{
  "_format": "hh-sol-artifact-1",
  "contractName": "MerkleTree",
  "sourceName": "contracts/MerkleTree.sol",
  "abi": [
    {
      "inputs": [
        {
          "internalType": "uint32",
          "name": "_levels",
          "type": "uint32"
        }
      ],
      "stateMutability": "nonpayable",
      "type": "constructor"
    },
    {
      "inputs": [],
      "name": "ROOT_HISTORY_SIZE",
      "outputs": [
        {
          "internalType": "uint32",
          "name": "",
          "type": "uint32"
        }
      ],
      "stateMutability": "view",
      "type": "function"
    },
    {
      "inputs": [],
      "name": "currentRootIndex",
      "outputs": [
        {
          "internalType": "uint32",
          "name": "",
          "type": "uint32"
        }
      ],
      "stateMutability": "view",
      "type": "function"
    },
    {
      "inputs": [
        {
          "internalType": "uint256",
          "name": "",
          "type": "uint256"
        }
      ],
      "name": "filledSubtrees",
      "outputs": [
        {
          "internalType": "uint256",
          "name": "",
          "type": "uint256"
        }
      ],
      "stateMutability": "view",
      "type": "function"
    },
    {
      "inputs": [],
      "name": "getLastRoot",
      "outputs": [
        {
          "internalType": "uint256",
          "name": "",
          "type": "uint256"
        }
      ],
      "stateMutability": "view",
      "type": "function"
    },
    {
      "inputs": [
        {
          "internalType": "uint256",
          "name": "_left",
          "type": "uint256"
        },
        {
          "internalType": "uint256",
          "name": "_right",
          "type": "uint256"
        }
      ],
      "name": "hashLeftRight",
      "outputs": [
        {
          "internalType": "uint256",
          "name": "",
          "type": "uint256"
        }
      ],
      "stateMutability": "pure",
      "type": "function"
    },
    {
      "inputs": [],
      "name": "levels",
      "outputs": [
        {
          "internalType": "uint32",
          "name": "",
          "type": "uint32"
        }
      ],
      "stateMutability": "view",
      "type": "function"
    },
    {
      "inputs": [],
      "name": "nextIndex",
      "outputs": [
        {
          "internalType": "uint32",
          "name": "",
          "type": "uint32"
        }
      ],
      "stateMutability": "view",
      "type": "function"
    },
    {
      "inputs": [
        {
          "internalType": "uint256",
          "name": "",
          "type": "uint256"
        }
      ],
      "name": "roots",
      "outputs": [
        {
          "internalType": "uint256",
          "name": "",
          "type": "uint256"
        }
      ],
      "stateMutability": "view",
      "type": "function"
    },
    {
      "inputs": [
        {
          "internalType": "uint256",
          "name": "i",
          "type": "uint256"
        }
      ],
      "name": "zeros",
      "outputs": [
        {
          "internalType": "uint256",
          "name": "",
          "type": "uint256"
        }
      ],
      "stateMutability": "pure",
      "type": "function"
    }
  ],
  "bytecode": "0x6080604052600380546001600160401b031916905534801562000020575f80fd5b50604051620011833803806200118383398101604081905262000043916200082b565b5f8163ffffffff1611620000aa5760405162461bcd60e51b815260206004820152602360248201527f5f6c6576656c732073686f756c642062652067726561746572207468616e207a60448201526265726f60e81b60648201526084015b60405180910390fd5b60148163ffffffff1610620001025760405162461bcd60e51b815260206004820152601e60248201527f5f6c6576656c732073686f756c64206265206c657373207468616e20323000006044820152606401620000a1565b5f805463ffffffff191663ffffffff83161781555b8163ffffffff168163ffffffff1610156200015f576200013d63ffffffff8216620001a2565b63ffffffff82165f908152600160208190526040909120919091550162000117565b506200017163ffffffff8216620001a2565b5f805260026020527fac33ff75c19e70fe83507db0d683fd3465c996598dc972688b7ace676c89077b555062000857565b5f815f03620001b257505f919050565b81600103620001e257507f2098f5fb9e239eab3ceac3f27b81e481dc3124d55ffed523a839ee8446b64864919050565b816002036200021257507f1069673dcdb12263df301a6ff584a7ec261a44cb9dc68df067a4774460b1f1e1919050565b816003036200024257507f18f43331537ee2af2e3d758d50f72106467c6eea50371dd528d57eb2b856d238919050565b816004036200027257507f07f9d837cb17b0d36320ffe93ba52345f1b728571a568265caac97559dbc952a919050565b81600503620002a257507f2b94cf5e8746b3f5c9631f4c5df32907a699c58c94b2ad4d7b5cec1639183f55919050565b81600603620002d257507f2dee93c5a666459646ea7d22cca9e1bcfed71e6951b953611d11dda32ea09d78919050565b816007036200030257507f078295e5a22b84e982cf601eb639597b8b0515a88cb5ac7fa8a4aabe3c87349d919050565b816008036200033257507f2fa5e5f18f6027a6501bec864564472a616b2e274a41211a444cbe3a99f3cc61919050565b816009036200036257507f0e884376d0d8fd21ecb780389e941f66e45e7acce3e228ab3e2156a614fcd747919050565b81600a036200039257507f1b7201da72494f1e28717ad1a52eb469f95892f957713533de6175e5da190af2919050565b81600b03620003c257507f1f8d8822725e36385200c0b201249819a6e6e1e4650808b5bebc6bface7d7636919050565b81600c03620003f257507f2c5d82f66c914bafb9701589ba8cfcfb6162b0a12acf88a8d0879a0471b5f85a919050565b81600d036200042257507f14c54148a0940bb820957f5adf3fa1134ef5c4aaa113f4646458f270e0bfbfd0919050565b81600e036200045257507f190d33b12f986f961e10c0ee44d8b9af11be25588cad89d416118e4bf4ebe80c919050565b81600f036200048257507f22f98aa9ce704152ac17354914ad73ed1167ae6596af510aa5b3649325e06c92919050565b81601003620004b257507f2a7c7c9b6ce5880b9f6f228d72bf6a575a526f29c66ecceef8b753d38bba7323919050565b81601103620004e257507f2e8186e558698ec1c67af9c14d463ffc470043c9c2988b954d75dd643f36b992919050565b816012036200051257507f0f57c5571e9a4eab49e2c8cf050dae948aef6ead647392273546249d1c1ff10f919050565b816013036200054257507f1830ee67b5fb554ad5f63d4388800e1cfe78e310697d46e43c9ce36134f72cca919050565b816014036200057257507f2134e76ac5d21aab186c2be1dd8f84ee880a1e46eaf712f9d371b6df22191f3e919050565b81601503620005a257507f19df90ec844ebc4ffeebd866f33859b0c051d8c958ee3aa88f8f8df3db91a5b1919050565b81601603620005d257507f18cca2a66b5c0787981e69aefd84852d74af0e93ef4912b4648c05f722efe52b919050565b816017036200060257507f2388909415230d1b4d1304d2d54f473a628338f2efad83fadf05644549d2538d919050565b816018036200063257507f27171fb4a97b6cc0e9e8f543b5294de866a2af2c9c8d0b1d96e673e4529ed540919050565b816019036200066257507f2ff6650540f629fd5711a0bc74fc0d28dcb230b9392583e5f8d59696dde6ae21919050565b81601a036200069257507f120c58f143d491e95902f7f5277778a2e0ad5168f6add75669932630ce611518919050565b81601b03620006c257507f1f21feb70d3f21b07bf853d5e5db03071ec495a0a565a21da2d665d279483795919050565b81601c03620006f257507f24be905fa71335e14c638cc0f66a8623a826e768068a9e968bb1a1dde18a72d2919050565b81601d036200072257507f0f8666b62ed17491c50ceadead57d4cd597ef3821d65c328744c74e553dac26d919050565b81601e036200075257507f0918d46bf52d98b034413f4a1a1c41594e7a7a3f6ae08cb43d1a2a230e1959ef919050565b81601f036200078257507f1bbeb01b4c479ecde76917645e404dfa2e26f90d0afc5a65128513ad375c5ff2919050565b81602003620007b257507f2f68a1c58e257e42a17a6c61dff5551ed560b9922ab119d5ac8e184c9734ead9919050565b81602103620007e257507f1102d2f8db05e4af4842e8ad3d85ed45eb28447eb7212235a2281d5ab5d81d11919050565b60405162461bcd60e51b815260206004820152601360248201527f496e646578206f7574206f6620626f756e6473000000000000000000000000006044820152606401620000a1565b5f602082840312156200083c575f80fd5b815163ffffffff8116811462000850575f80fd5b9392505050565b61091e80620008655f395ff3fe608060405234801561000f575f80fd5b5060043610610090575f3560e01c8063c2b40ae411610063578063c2b40ae41461010a578063cd87a3b414610129578063e829558814610131578063f178e47c14610144578063fc7e9c6f14610163575f80fd5b80634ecf518b146100945780635bb93995146100bd57806390eeb02b146100de578063ba70f757146100ee575b5f80fd5b5f546100a39063ffffffff1681565b60405163ffffffff90911681526020015b60405180910390f35b6100d06100cb36600461086a565b61017b565b6040519081526020016100b4565b6003546100a39063ffffffff1681565b60035463ffffffff165f908152600260205260409020546100d0565b6100d061011836600461088a565b60026020525f908152604090205481565b6100a3601e81565b6100d061013f36600461088a565b61020a565b6100d061015236600461088a565b60016020525f908152604090205481565b6003546100a390640100000000900463ffffffff1681565b604080518082018252838152602081018390529051632b0aac7f60e11b81525f9173__$75f79a42d9bcbdbb69ad79ebd80f556f39$__9163561558fe916101c4916004016108a1565b602060405180830381865af41580156101df573d5f803e3d5ffd5b505050506040513d601f19601f8201168201806040525081019061020391906108d1565b9392505050565b5f815f0361021957505f919050565b8160010361024857507f2098f5fb9e239eab3ceac3f27b81e481dc3124d55ffed523a839ee8446b64864919050565b8160020361027757507f1069673dcdb12263df301a6ff584a7ec261a44cb9dc68df067a4774460b1f1e1919050565b816003036102a657507f18f43331537ee2af2e3d758d50f72106467c6eea50371dd528d57eb2b856d238919050565b816004036102d557507f07f9d837cb17b0d36320ffe93ba52345f1b728571a568265caac97559dbc952a919050565b8160050361030457507f2b94cf5e8746b3f5c9631f4c5df32907a699c58c94b2ad4d7b5cec1639183f55919050565b8160060361033357507f2dee93c5a666459646ea7d22cca9e1bcfed71e6951b953611d11dda32ea09d78919050565b8160070361036257507f078295e5a22b84e982cf601eb639597b8b0515a88cb5ac7fa8a4aabe3c87349d919050565b8160080361039157507f2fa5e5f18f6027a6501bec864564472a616b2e274a41211a444cbe3a99f3cc61919050565b816009036103c057507f0e884376d0d8fd21ecb780389e941f66e45e7acce3e228ab3e2156a614fcd747919050565b81600a036103ef57507f1b7201da72494f1e28717ad1a52eb469f95892f957713533de6175e5da190af2919050565b81600b0361041e57507f1f8d8822725e36385200c0b201249819a6e6e1e4650808b5bebc6bface7d7636919050565b81600c0361044d57507f2c5d82f66c914bafb9701589ba8cfcfb6162b0a12acf88a8d0879a0471b5f85a919050565b81600d0361047c57507f14c54148a0940bb820957f5adf3fa1134ef5c4aaa113f4646458f270e0bfbfd0919050565b81600e036104ab57507f190d33b12f986f961e10c0ee44d8b9af11be25588cad89d416118e4bf4ebe80c919050565b81600f036104da57507f22f98aa9ce704152ac17354914ad73ed1167ae6596af510aa5b3649325e06c92919050565b8160100361050957507f2a7c7c9b6ce5880b9f6f228d72bf6a575a526f29c66ecceef8b753d38bba7323919050565b8160110361053857507f2e8186e558698ec1c67af9c14d463ffc470043c9c2988b954d75dd643f36b992919050565b8160120361056757507f0f57c5571e9a4eab49e2c8cf050dae948aef6ead647392273546249d1c1ff10f919050565b8160130361059657507f1830ee67b5fb554ad5f63d4388800e1cfe78e310697d46e43c9ce36134f72cca919050565b816014036105c557507f2134e76ac5d21aab186c2be1dd8f84ee880a1e46eaf712f9d371b6df22191f3e919050565b816015036105f457507f19df90ec844ebc4ffeebd866f33859b0c051d8c958ee3aa88f8f8df3db91a5b1919050565b8160160361062357507f18cca2a66b5c0787981e69aefd84852d74af0e93ef4912b4648c05f722efe52b919050565b8160170361065257507f2388909415230d1b4d1304d2d54f473a628338f2efad83fadf05644549d2538d919050565b8160180361068157507f27171fb4a97b6cc0e9e8f543b5294de866a2af2c9c8d0b1d96e673e4529ed540919050565b816019036106b057507f2ff6650540f629fd5711a0bc74fc0d28dcb230b9392583e5f8d59696dde6ae21919050565b81601a036106df57507f120c58f143d491e95902f7f5277778a2e0ad5168f6add75669932630ce611518919050565b81601b0361070e57507f1f21feb70d3f21b07bf853d5e5db03071ec495a0a565a21da2d665d279483795919050565b81601c0361073d57507f24be905fa71335e14c638cc0f66a8623a826e768068a9e968bb1a1dde18a72d2919050565b81601d0361076c57507f0f8666b62ed17491c50ceadead57d4cd597ef3821d65c328744c74e553dac26d919050565b81601e0361079b57507f0918d46bf52d98b034413f4a1a1c41594e7a7a3f6ae08cb43d1a2a230e1959ef919050565b81601f036107ca57507f1bbeb01b4c479ecde76917645e404dfa2e26f90d0afc5a65128513ad375c5ff2919050565b816020036107f957507f2f68a1c58e257e42a17a6c61dff5551ed560b9922ab119d5ac8e184c9734ead9919050565b8160210361082857507f1102d2f8db05e4af4842e8ad3d85ed45eb28447eb7212235a2281d5ab5d81d11919050565b60405162461bcd60e51b8152602060048201526013602482015272496e646578206f7574206f6620626f756e647360681b604482015260640160405180910390fd5b5f806040838503121561087b575f80fd5b50508035926020909101359150565b5f6020828403121561089a575f80fd5b5035919050565b6040810181835f5b60028110156108c85781518352602092830192909101906001016108a9565b50505092915050565b5f602082840312156108e1575f80fd5b505191905056fea26469706673582212201785960bcf2d2ae75be3ee7be281cb865178bc30330d775e1bdba2263674c97064736f6c63430008170033",
  "linkReferences": {
    "poseidon-solidity/PoseidonT3.sol": {
      "PoseidonT3": [
        {
          "length": 20,
          "start": 2563
        }
      ]
    }
  },
  "deployedLinkReferences": {
    "poseidon-solidity/PoseidonT3.sol": {
      "PoseidonT3": [
        {
          "length": 20,
          "start": 414
        }
      ]
    }
  }
}