{"contracts/ToadnadoL1.sol":{"ToadnadoL1":{"abi":[{"inputs":[{"internalType":"address","name":"_verifier","type":"address"},{"internalType":"uint256","name":"_denomination","type":"uint256"},{"internalType":"uint32","name":"_merkleTreeHeight","type":"uint32"}],"stateMutability":"nonpayable","type":"constructor"},{"inputs":[],"name":"ReentrancyGuardReentrantCall","type":"error"},{"anonymous":false,"inputs":[{"indexed":true,"internalType":"bytes32","name":"commitment","type":"bytes32"},{"indexed":false,"internalType":"uint32","name":"leafIndex","type":"uint32"},{"indexed":false,"internalType":"uint256","name":"timestamp","type":"uint256"}],"name":"Deposit","type":"event"},{"inputs":[],"name":"ROOT_HISTORY_SIZE","outputs":[{"internalType":"uint32","name":"","type":"uint32"}],"stateMutability":"view","type":"function"},{"inputs":[{"internalType":"bytes32","name":"_root","type":"bytes32"},{"internalType":"bytes32","name":"_nullifier","type":"bytes32"},{"internalType":"address","name":"_recipient","type":"address"},{"internalType":"uint256","name":"_chainId","type":"uint256"}],"name":"_formatPublicInputs","outputs":[{"internalType":"bytes32[]","name":"","type":"bytes32[]"}],"stateMutability":"pure","type":"function"},{"inputs":[],"name":"adminWithdraw","outputs":[],"stateMutability":"payable","type":"function"},{"inputs":[{"internalType":"uint256","name":"","type":"uint256"}],"name":"commitmentLeafs","outputs":[{"internalType":"bytes32","name":"","type":"bytes32"}],"stateMutability":"view","type":"function"},{"inputs":[{"internalType":"bytes32","name":"","type":"bytes32"}],"name":"commitments","outputs":[{"internalType":"bool","name":"","type":"bool"}],"stateMutability":"view","type":"function"},{"inputs":[{"internalType":"bytes32","name":"","type":"bytes32"}],"name":"commitmentsTreeRoots","outputs":[{"internalType":"bool","name":"","type":"bool"}],"stateMutability":"view","type":"function"},{"inputs":[],"name":"currentRootIndex","outputs":[{"internalType":"uint32","name":"","type":"uint32"}],"stateMutability":"view","type":"function"},{"inputs":[],"name":"denomination","outputs":[{"internalType":"uint256","name":"","type":"uint256"}],"stateMutability":"view","type":"function"},{"inputs":[{"internalType":"bytes32","name":"_commitment","type":"bytes32"}],"name":"deposit","outputs":[],"stateMutability":"payable","type":"function"},{"inputs":[{"internalType":"uint256","name":"","type":"uint256"}],"name":"filledSubtrees","outputs":[{"internalType":"bytes32","name":"","type":"bytes32"}],"stateMutability":"view","type":"function"},{"inputs":[],"name":"getLastRoot","outputs":[{"internalType":"bytes32","name":"","type":"bytes32"}],"stateMutability":"view","type":"function"},{"inputs":[{"internalType":"bytes32","name":"_left","type":"bytes32"},{"internalType":"bytes32","name":"_right","type":"bytes32"}],"name":"hashLeftRight","outputs":[{"internalType":"bytes32","name":"","type":"bytes32"}],"stateMutability":"pure","type":"function"},{"inputs":[{"internalType":"bytes32","name":"_root","type":"bytes32"}],"name":"isKnownRoot","outputs":[{"internalType":"bool","name":"","type":"bool"}],"stateMutability":"view","type":"function"},{"inputs":[{"internalType":"bytes32","name":"_nullifierHash","type":"bytes32"}],"name":"isSpent","outputs":[{"internalType":"bool","name":"","type":"bool"}],"stateMutability":"view","type":"function"},{"inputs":[{"internalType":"bytes32[]","name":"_nullifierHashes","type":"bytes32[]"}],"name":"isSpentArray","outputs":[{"internalType":"bool[]","name":"spent","type":"bool[]"}],"stateMutability":"view","type":"function"},{"inputs":[],"name":"levels","outputs":[{"internalType":"uint32","name":"","type":"uint32"}],"stateMutability":"view","type":"function"},{"inputs":[],"name":"nextIndex","outputs":[{"internalType":"uint32","name":"","type":"uint32"}],"stateMutability":"view","type":"function"},{"inputs":[{"internalType":"bytes32","name":"","type":"bytes32"}],"name":"nullifiers","outputs":[{"internalType":"bool","name":"","type":"bool"}],"stateMutability":"view","type":"function"},{"inputs":[{"internalType":"uint256","name":"","type":"uint256"}],"name":"roots","outputs":[{"internalType":"bytes32","name":"","type":"bytes32"}],"stateMutability":"view","type":"function"},{"inputs":[],"name":"verifier","outputs":[{"internalType":"address","name":"","type":"address"}],"stateMutability":"view","type":"function"},{"inputs":[{"internalType":"uint256","name":"i","type":"uint256"}],"name":"zeros","outputs":[{"internalType":"bytes32","name":"","type":"bytes32"}],"stateMutability":"pure","type":"function"},{"stateMutability":"payable","type":"receive"}],"evm":{"bytecode":{"linkReferences":{},"object":"6080604052600480546001600160401b031916905534801562000020575f80fd5b506040516200199438038062001994833981016040819052620000439162000666565b828282805f8163ffffffff1611620000ae5760405162461bcd60e51b815260206004820152602360248201527f5f6c6576656c732073686f756c642062652067726561746572207468616e207a60448201526265726f60e81b60648201526084015b60405180910390fd5b60148163ffffffff1610620001065760405162461bcd60e51b815260206004820152601e60248201527f5f6c6576656c732073686f756c64206265206c657373207468616e20323000006044820152606401620000a5565b5f805463ffffffff191663ffffffff83161781555b8163ffffffff168163ffffffff1610156200015f576200014163ffffffff82166200022d565b63ffffffff82165f908152600260205260409020556001016200011b565b506200017163ffffffff82166200022d565b5f805260036020527f3617319a054d772f909f7c479a2cebe5066e836a939412e32403c99029b92eff5550600160055581620001fe5760405162461bcd60e51b815260206004820152602560248201527f64656e6f6d696e6174696f6e2073686f756c6420626520677265617465722074604482015264068616e20360dc1b6064820152608401620000a5565b50600780546001600160a01b0319166001600160a01b03939093169290921790915560065550620006bc915050565b5f815f036200025d57507f2fe54c60d3acabf3343a35b6eba15db4821b340f76e741e2249685ed4899af6c919050565b816001036200028d57507f4fc2fe9184a25f44ce8ddb5f32671fcae6d9c85ed710c199acef16ad16b29911919050565b81600203620002bd57507f0d826a474f851c563052d929ef0daa70f658aba9ba084f51f6e3483c13c0e59a919050565b81600303620002ed57507ff7761a16b5e4c0120e4c5704b910dbe18ff6162a9668ed1c2c4efde7c4f15806919050565b816004036200031d57507fce9ce09a0ab259d6d14ca3dcd74e6c6b9e7d9074bff66973d4c57ccdffdb2a82919050565b816005036200034d57507f02efd44c63015ff1385344e0624867775486d05e6eb1290a24976964a598003b919050565b816006036200037d57507fc4dec5845d407ce2ac2e6824bb7857c4b138f819e5789d5d11e812db10c846cd919050565b81600703620003ad57507f5fbe3f20c23f3bd6ac347917fb0903433e0b9a48373412348240a5f919bfde19919050565b81600803620003dd57507f92d1b07e56b3da96b7917778cb657f2c513eaeeb4d1579a73b5ea316f25b7289919050565b816009036200040d57507fa08add5656d6d3d0827ef909f7647981eac42aa1f51970a752f130f718f6d76a919050565b81600a036200043d57507f1704c5f297590d8ec62776b0714f4f3f2234bae0524035342b0da8b8988ebd79919050565b81600b036200046d57507fc5ae2bd47379c2c6d1189cfc3d057948dc6054caf845fcacd8f7affe94b11944919050565b81600c036200049d57507f12a161d6d5561062f387d91ad9f0f8966c0956afdb9e8325458b9e5057b82bdb919050565b81600d03620004cd57507f4ade524ba596de20bbe94507a761c45251ae7a27857ceb4287d9018525b99bc5919050565b81600e03620004fd57507f38287ad69151fa833bf4bf8b8eb6ffb39400a38f1a7e53b473f639c8c60fd5e4919050565b81600f036200052d57507f57f2ade7d711707e785451f2aba6c95872c7fe03153a98b7327b4024e8068fa3919050565b816010036200055d57507fb1982e0d1b0de46a88d8b17941472e41a86d3ff64571ed8e0ca72d58633547fc919050565b816011036200058d57507fb7c60f8670af15eb32b4ee36727179bc085a3dde03d5f9a1486664ba576b30a6919050565b81601203620005bd57507f5ff905c5c659a926b132ef3665a3de5d5a859c1d479e68851085bfc0348c5331919050565b81601303620005ed57507fb4dfa78b912e98c9f7eb42d71eb537a02bf3173d44a2eb887a48b3972072dd8e919050565b816014036200061d57507f60919a16a2eb8b91cfb8ba1e5b4c155a76a14c217b5403edbd563f34e508ecdc919050565b60405162461bcd60e51b815260206004820152601360248201527f496e646578206f7574206f6620626f756e6473000000000000000000000000006044820152606401620000a5565b5f805f6060848603121562000679575f80fd5b83516001600160a01b038116811462000690575f80fd5b60208501516040860151919450925063ffffffff81168114620006b1575f80fd5b809150509250925092565b6112ca80620006ca5f395ff3fe608060405260043610610129575f3560e01c80639ec44154116100a8578063cd87a3b41161006d578063cd87a3b4146103a6578063e5285dcc146103ba578063e8295588146103e8578063f178e47c14610407578063f18d20be14610432578063fc7e9c6f1461043a575f80fd5b80639ec44154146102e75780639fa12d0b14610312578063b214faa51461033e578063ba70f75714610353578063c2b40ae41461037b575f80fd5b80634ecf518b116100ee5780634ecf518b146102395780636d9833e314610269578063839df945146102885780638bca6d16146102b657806390eeb02b146102cb575f80fd5b806326627210146101345780632997e86b146101695780632b7ac3f3146101a75780633591d78d146101de57806338bf282e1461020c575f80fd5b3661013057005b5f80fd5b34801561013f575f80fd5b5061015361014e366004610f1e565b61045e565b6040516101609190610f65565b60405180910390f35b348015610174575f80fd5b50610197610183366004610fa8565b60086020525f908152604090205460ff1681565b6040519015158152602001610160565b3480156101b2575f80fd5b506007546101c6906001600160a01b031681565b6040516001600160a01b039091168152602001610160565b3480156101e9575f80fd5b506101976101f8366004610fa8565b600a6020525f908152604090205460ff1681565b348015610217575f80fd5b5061022b610226366004610fbf565b61057c565b604051908152602001610160565b348015610244575f80fd5b505f546102549063ffffffff1681565b60405163ffffffff9091168152602001610160565b348015610274575f80fd5b50610197610283366004610fa8565b6105ab565b348015610293575f80fd5b506101976102a2366004610fa8565b60096020525f908152604090205460ff1681565b3480156102c1575f80fd5b5061022b60065481565b3480156102d6575f80fd5b506004546102549063ffffffff1681565b3480156102f2575f80fd5b5061022b610301366004610fa8565b60016020525f908152604090205481565b34801561031d575f80fd5b5061033161032c366004610fdf565b610624565b604051610160919061104e565b61035161034c366004610fa8565b6106de565b005b34801561035e575f80fd5b5060045463ffffffff165f9081526003602052604090205461022b565b348015610386575f80fd5b5061022b610395366004610fa8565b60036020525f908152604090205481565b3480156103b1575f80fd5b50610254601e81565b3480156103c5575f80fd5b506101976103d4366004610fa8565b5f9081526008602052604090205460ff1690565b3480156103f3575f80fd5b5061022b610402366004610fa8565b6107cd565b348015610412575f80fd5b5061022b610421366004610fa8565b60026020525f908152604090205481565b610351610be6565b348015610445575f80fd5b5060045461025490640100000000900463ffffffff1681565b60408051604280825261086082019092526060915f919060208201610840803683370190505090505f5b60208110156104ce578681602081106104a3576104a361109b565b835191901a908390839081106104bb576104bb61109b565b6020908102919091010152600101610488565b5060205b604081101561052257856104e76020836110c3565b602081106104f7576104f761109b565b835191901a9083908390811061050f5761050f61109b565b60209081029190910101526001016104d2565b5080516001600160a01b038516908190839060409081106105455761054561109b565b602002602001018181525050835f1b826041815181106105675761056761109b565b60209081029190910101525095945050505050565b604080516020808201859052818301849052825180830384018152606090920190925280519101205b92915050565b5f8181036105ba57505f919050565b60045463ffffffff16805b63ffffffff81165f9081526003602052604090205484036105ea575060019392505050565b8063ffffffff165f036105fb5750601e5b80610605816110d6565b9150508163ffffffff168163ffffffff16036105c557505f9392505050565b60608167ffffffffffffffff81111561063f5761063f611087565b604051908082528060200260200182016040528015610668578160200160208202803683370190505b5090505f5b828110156106d7576106a584848381811061068a5761068a61109b565b905060200201355f9081526008602052604090205460ff1690565b156106cf5760018282815181106106be576106be61109b565b911515602092830291909101909101525b60010161066d565b5092915050565b6106e6610ca7565b5f8181526009602052604090205460ff16156107535760405162461bcd60e51b815260206004820152602160248201527f54686520636f6d6d69746d656e7420686173206265656e207375626d697474656044820152601960fa1b60648201526084015b60405180910390fd5b5f61075d82610cd1565b5f838152600960205260409020805460ff19166001179055905061077f610ea7565b6040805163ffffffff8316815242602082015283917fa945e51eec50ab98c161376f0db4cf2aeba3ec92755fe2fcd388bdbbb80ff196910160405180910390a2506107ca6001600555565b50565b5f815f036107fc57507f2fe54c60d3acabf3343a35b6eba15db4821b340f76e741e2249685ed4899af6c919050565b8160010361082b57507f4fc2fe9184a25f44ce8ddb5f32671fcae6d9c85ed710c199acef16ad16b29911919050565b8160020361085a57507f0d826a474f851c563052d929ef0daa70f658aba9ba084f51f6e3483c13c0e59a919050565b8160030361088957507ff7761a16b5e4c0120e4c5704b910dbe18ff6162a9668ed1c2c4efde7c4f15806919050565b816004036108b857507fce9ce09a0ab259d6d14ca3dcd74e6c6b9e7d9074bff66973d4c57ccdffdb2a82919050565b816005036108e757507f02efd44c63015ff1385344e0624867775486d05e6eb1290a24976964a598003b919050565b8160060361091657507fc4dec5845d407ce2ac2e6824bb7857c4b138f819e5789d5d11e812db10c846cd919050565b8160070361094557507f5fbe3f20c23f3bd6ac347917fb0903433e0b9a48373412348240a5f919bfde19919050565b8160080361097457507f92d1b07e56b3da96b7917778cb657f2c513eaeeb4d1579a73b5ea316f25b7289919050565b816009036109a357507fa08add5656d6d3d0827ef909f7647981eac42aa1f51970a752f130f718f6d76a919050565b81600a036109d257507f1704c5f297590d8ec62776b0714f4f3f2234bae0524035342b0da8b8988ebd79919050565b81600b03610a0157507fc5ae2bd47379c2c6d1189cfc3d057948dc6054caf845fcacd8f7affe94b11944919050565b81600c03610a3057507f12a161d6d5561062f387d91ad9f0f8966c0956afdb9e8325458b9e5057b82bdb919050565b81600d03610a5f57507f4ade524ba596de20bbe94507a761c45251ae7a27857ceb4287d9018525b99bc5919050565b81600e03610a8e57507f38287ad69151fa833bf4bf8b8eb6ffb39400a38f1a7e53b473f639c8c60fd5e4919050565b81600f03610abd57507f57f2ade7d711707e785451f2aba6c95872c7fe03153a98b7327b4024e8068fa3919050565b81601003610aec57507fb1982e0d1b0de46a88d8b17941472e41a86d3ff64571ed8e0ca72d58633547fc919050565b81601103610b1b57507fb7c60f8670af15eb32b4ee36727179bc085a3dde03d5f9a1486664ba576b30a6919050565b81601203610b4a57507f5ff905c5c659a926b132ef3665a3de5d5a859c1d479e68851085bfc0348c5331919050565b81601303610b7957507fb4dfa78b912e98c9f7eb42d71eb537a02bf3173d44a2eb887a48b3972072dd8e919050565b81601403610ba857507f60919a16a2eb8b91cfb8ba1e5b4c155a76a14c217b5403edbd563f34e508ecdc919050565b60405162461bcd60e51b8152602060048201526013602482015272496e646578206f7574206f6620626f756e647360681b604482015260640161074a565b610bee610ca7565b60405173be34cc4cebf526887ec2c0035463dd26b3e7fea4905f90829047908381818185875af1925050503d805f8114610c43576040519150601f19603f3d011682016040523d82523d5f602084013e610c48565b606091505b5050905080610c995760405162461bcd60e51b815260206004820181905260248201527f7061796d656e7420746f2061646d696e20646964206e6f7420676f2074687275604482015260640161074a565b5050610ca56001600555565b565b600260055403610cca57604051633ee5aeb560e01b815260040160405180910390fd5b6002600555565b6004545f8054909163ffffffff640100000000909104811691610cf691166002611203565b63ffffffff168163ffffffff1603610d695760405162461bcd60e51b815260206004820152603060248201527f4d65726b6c6520747265652069732066756c6c2e204e6f206d6f7265206c656160448201526f1d995cc818d85b88189948185919195960821b606482015260840161074a565b80835f80805b5f5463ffffffff9081169082161015610e0557610d8d600286611233565b63ffffffff165f03610dc957839250610dab8163ffffffff166107cd565b63ffffffff82165f9081526002602052604090208590559150610de4565b63ffffffff81165f9081526002602052604090205492508391505b610dee838361057c565b9350610dfb600286611255565b9450600101610d6f565b506004545f90601e90610e1f9063ffffffff166001611277565b610e299190611233565b6004805463ffffffff191663ffffffff8381169182179092555f908152600360209081526040808320899055928a1682526001908190529190208a9055909150610e74908790611277565b6004805463ffffffff929092166401000000000267ffffffff000000001990921691909117905550939695505050505050565b6006543414610ca55760405162461bcd60e51b815260206004820152603860248201527f506c656173652073656e6420606d697844656e6f6d696e6174696f6e6020455460448201527f4820616c6f6e672077697468207472616e73616374696f6e0000000000000000606482015260840161074a565b5f805f8060808587031215610f31575f80fd5b843593506020850135925060408501356001600160a01b0381168114610f55575f80fd5b9396929550929360600135925050565b602080825282518282018190525f9190848201906040850190845b81811015610f9c57835183529284019291840191600101610f80565b50909695505050505050565b5f60208284031215610fb8575f80fd5b5035919050565b5f8060408385031215610fd0575f80fd5b50508035926020909101359150565b5f8060208385031215610ff0575f80fd5b823567ffffffffffffffff80821115611007575f80fd5b818501915085601f83011261101a575f80fd5b813581811115611028575f80fd5b8660208260051b850101111561103c575f80fd5b60209290920196919550909350505050565b602080825282518282018190525f9190848201906040850190845b81811015610f9c578351151583529284019291840191600101611069565b634e487b7160e01b5f52604160045260245ffd5b634e487b7160e01b5f52603260045260245ffd5b634e487b7160e01b5f52601160045260245ffd5b818103818111156105a5576105a56110af565b5f63ffffffff8216806110eb576110eb6110af565b5f190192915050565b600181815b80851115611131578163ffffffff04821115611117576111176110af565b8085161561112457918102915b93841c93908002906110f9565b509250929050565b5f82611147575060016105a5565b8161115357505f6105a5565b81600181146111695760028114611173576111a4565b60019150506105a5565b60ff841115611184576111846110af565b6001841b915063ffffffff82111561119e5761119e6110af565b506105a5565b5060208310610133831016604e8410600b84101617156111db575081810a63ffffffff8111156111d6576111d66110af565b6105a5565b6111e583836110f4565b8063ffffffff048211156111fb576111fb6110af565b029392505050565b5f63ffffffff611217818516828516611139565b949350505050565b634e487b7160e01b5f52601260045260245ffd5b5f63ffffffff808416806112495761124961121f565b92169190910692915050565b5f63ffffffff8084168061126b5761126b61121f565b92169190910492915050565b63ffffffff8181168382160190808211156106d7576106d76110af56fea26469706673582212203b3568ed75ac6dfd9d00eede77a4699fcea68cad62a64b5a1ba1daa45d3be59164736f6c63430008170033","opcodes":"PUSH1 0x80 PUSH1 0x40 MSTORE PUSH1 0x4 DUP1 SLOAD PUSH1 0x1 PUSH1 0x1 PUSH1 0x40 SHL SUB NOT AND SWAP1 SSTORE CALLVALUE DUP1 ISZERO PUSH3 0x20 JUMPI PUSH0 DUP1 REVERT JUMPDEST POP PUSH1 0x40 MLOAD PUSH3 0x1994 CODESIZE SUB DUP1 PUSH3 0x1994 DUP4 CODECOPY DUP2 ADD PUSH1 0x40 DUP2 SWAP1 MSTORE PUSH3 0x43 SWAP2 PUSH3 0x666 JUMP JUMPDEST DUP3 DUP3 DUP3 DUP1 PUSH0 DUP2 PUSH4 0xFFFFFFFF AND GT PUSH3 0xAE JUMPI PUSH1 0x40 MLOAD PUSH3 0x461BCD PUSH1 0xE5 SHL DUP2 MSTORE PUSH1 0x20 PUSH1 0x4 DUP3 ADD MSTORE PUSH1 0x23 PUSH1 0x24 DUP3 ADD MSTORE PUSH32 0x5F6C6576656C732073686F756C642062652067726561746572207468616E207A PUSH1 0x44 DUP3 ADD MSTORE PUSH3 0x65726F PUSH1 0xE8 SHL PUSH1 0x64 DUP3 ADD MSTORE PUSH1 0x84 ADD JUMPDEST PUSH1 0x40 MLOAD DUP1 SWAP2 SUB SWAP1 REVERT JUMPDEST PUSH1 0x14 DUP2 PUSH4 0xFFFFFFFF AND LT PUSH3 0x106 JUMPI PUSH1 0x40 MLOAD PUSH3 0x461BCD PUSH1 0xE5 SHL DUP2 MSTORE PUSH1 0x20 PUSH1 0x4 DUP3 ADD MSTORE PUSH1 0x1E PUSH1 0x24 DUP3 ADD MSTORE PUSH32 0x5F6C6576656C732073686F756C64206265206C657373207468616E2032300000 PUSH1 0x44 DUP3 ADD MSTORE PUSH1 0x64 ADD PUSH3 0xA5 JUMP JUMPDEST PUSH0 DUP1 SLOAD PUSH4 0xFFFFFFFF NOT AND PUSH4 0xFFFFFFFF DUP4 AND OR DUP2 SSTORE JUMPDEST DUP2 PUSH4 0xFFFFFFFF AND DUP2 PUSH4 0xFFFFFFFF AND LT ISZERO PUSH3 0x15F JUMPI PUSH3 0x141 PUSH4 0xFFFFFFFF DUP3 AND PUSH3 0x22D JUMP JUMPDEST PUSH4 0xFFFFFFFF DUP3 AND PUSH0 SWAP1 DUP2 MSTORE PUSH1 0x2 PUSH1 0x20 MSTORE PUSH1 0x40 SWAP1 KECCAK256 SSTORE PUSH1 0x1 ADD PUSH3 0x11B JUMP JUMPDEST POP PUSH3 0x171 PUSH4 0xFFFFFFFF DUP3 AND PUSH3 0x22D JUMP JUMPDEST PUSH0 DUP1 MSTORE PUSH1 0x3 PUSH1 0x20 MSTORE PUSH32 0x3617319A054D772F909F7C479A2CEBE5066E836A939412E32403C99029B92EFF SSTORE POP PUSH1 0x1 PUSH1 0x5 SSTORE DUP2 PUSH3 0x1FE JUMPI PUSH1 0x40 MLOAD PUSH3 0x461BCD PUSH1 0xE5 SHL DUP2 MSTORE PUSH1 0x20 PUSH1 0x4 DUP3 ADD MSTORE PUSH1 0x25 PUSH1 0x24 DUP3 ADD MSTORE PUSH32 0x64656E6F6D696E6174696F6E2073686F756C6420626520677265617465722074 PUSH1 0x44 DUP3 ADD MSTORE PUSH5 0x68616E203 PUSH1 0xDC SHL PUSH1 0x64 DUP3 ADD MSTORE PUSH1 0x84 ADD PUSH3 0xA5 JUMP JUMPDEST POP PUSH1 0x7 DUP1 SLOAD PUSH1 0x1 PUSH1 0x1 PUSH1 0xA0 SHL SUB NOT AND PUSH1 0x1 PUSH1 0x1 PUSH1 0xA0 SHL SUB SWAP4 SWAP1 SWAP4 AND SWAP3 SWAP1 SWAP3 OR SWAP1 SWAP2 SSTORE PUSH1 0x6 SSTORE POP PUSH3 0x6BC SWAP2 POP POP JUMP JUMPDEST PUSH0 DUP2 PUSH0 SUB PUSH3 0x25D JUMPI POP PUSH32 0x2FE54C60D3ACABF3343A35B6EBA15DB4821B340F76E741E2249685ED4899AF6C SWAP2 SWAP1 POP JUMP JUMPDEST DUP2 PUSH1 0x1 SUB PUSH3 0x28D JUMPI POP PUSH32 0x4FC2FE9184A25F44CE8DDB5F32671FCAE6D9C85ED710C199ACEF16AD16B29911 SWAP2 SWAP1 POP JUMP JUMPDEST DUP2 PUSH1 0x2 SUB PUSH3 0x2BD JUMPI POP PUSH32 0xD826A474F851C563052D929EF0DAA70F658ABA9BA084F51F6E3483C13C0E59A SWAP2 SWAP1 POP JUMP JUMPDEST DUP2 PUSH1 0x3 SUB PUSH3 0x2ED JUMPI POP PUSH32 0xF7761A16B5E4C0120E4C5704B910DBE18FF6162A9668ED1C2C4EFDE7C4F15806 SWAP2 SWAP1 POP JUMP JUMPDEST DUP2 PUSH1 0x4 SUB PUSH3 0x31D JUMPI POP PUSH32 0xCE9CE09A0AB259D6D14CA3DCD74E6C6B9E7D9074BFF66973D4C57CCDFFDB2A82 SWAP2 SWAP1 POP JUMP JUMPDEST DUP2 PUSH1 0x5 SUB PUSH3 0x34D JUMPI POP PUSH32 0x2EFD44C63015FF1385344E0624867775486D05E6EB1290A24976964A598003B SWAP2 SWAP1 POP JUMP JUMPDEST DUP2 PUSH1 0x6 SUB PUSH3 0x37D JUMPI POP PUSH32 0xC4DEC5845D407CE2AC2E6824BB7857C4B138F819E5789D5D11E812DB10C846CD SWAP2 SWAP1 POP JUMP JUMPDEST DUP2 PUSH1 0x7 SUB PUSH3 0x3AD JUMPI POP PUSH32 0x5FBE3F20C23F3BD6AC347917FB0903433E0B9A48373412348240A5F919BFDE19 SWAP2 SWAP1 POP JUMP JUMPDEST DUP2 PUSH1 0x8 SUB PUSH3 0x3DD JUMPI POP PUSH32 0x92D1B07E56B3DA96B7917778CB657F2C513EAEEB4D1579A73B5EA316F25B7289 SWAP2 SWAP1 POP JUMP JUMPDEST DUP2 PUSH1 0x9 SUB PUSH3 0x40D JUMPI POP PUSH32 0xA08ADD5656D6D3D0827EF909F7647981EAC42AA1F51970A752F130F718F6D76A SWAP2 SWAP1 POP JUMP JUMPDEST DUP2 PUSH1 0xA SUB PUSH3 0x43D JUMPI POP PUSH32 0x1704C5F297590D8EC62776B0714F4F3F2234BAE0524035342B0DA8B8988EBD79 SWAP2 SWAP1 POP JUMP JUMPDEST DUP2 PUSH1 0xB SUB PUSH3 0x46D JUMPI POP PUSH32 0xC5AE2BD47379C2C6D1189CFC3D057948DC6054CAF845FCACD8F7AFFE94B11944 SWAP2 SWAP1 POP JUMP JUMPDEST DUP2 PUSH1 0xC SUB PUSH3 0x49D JUMPI POP PUSH32 0x12A161D6D5561062F387D91AD9F0F8966C0956AFDB9E8325458B9E5057B82BDB SWAP2 SWAP1 POP JUMP JUMPDEST DUP2 PUSH1 0xD SUB PUSH3 0x4CD JUMPI POP PUSH32 0x4ADE524BA596DE20BBE94507A761C45251AE7A27857CEB4287D9018525B99BC5 SWAP2 SWAP1 POP JUMP JUMPDEST DUP2 PUSH1 0xE SUB PUSH3 0x4FD JUMPI POP PUSH32 0x38287AD69151FA833BF4BF8B8EB6FFB39400A38F1A7E53B473F639C8C60FD5E4 SWAP2 SWAP1 POP JUMP JUMPDEST DUP2 PUSH1 0xF SUB PUSH3 0x52D JUMPI POP PUSH32 0x57F2ADE7D711707E785451F2ABA6C95872C7FE03153A98B7327B4024E8068FA3 SWAP2 SWAP1 POP JUMP JUMPDEST DUP2 PUSH1 0x10 SUB PUSH3 0x55D JUMPI POP PUSH32 0xB1982E0D1B0DE46A88D8B17941472E41A86D3FF64571ED8E0CA72D58633547FC SWAP2 SWAP1 POP JUMP JUMPDEST DUP2 PUSH1 0x11 SUB PUSH3 0x58D JUMPI POP PUSH32 0xB7C60F8670AF15EB32B4EE36727179BC085A3DDE03D5F9A1486664BA576B30A6 SWAP2 SWAP1 POP JUMP JUMPDEST DUP2 PUSH1 0x12 SUB PUSH3 0x5BD JUMPI POP PUSH32 0x5FF905C5C659A926B132EF3665A3DE5D5A859C1D479E68851085BFC0348C5331 SWAP2 SWAP1 POP JUMP JUMPDEST DUP2 PUSH1 0x13 SUB PUSH3 0x5ED JUMPI POP PUSH32 0xB4DFA78B912E98C9F7EB42D71EB537A02BF3173D44A2EB887A48B3972072DD8E SWAP2 SWAP1 POP JUMP JUMPDEST DUP2 PUSH1 0x14 SUB PUSH3 0x61D JUMPI POP PUSH32 0x60919A16A2EB8B91CFB8BA1E5B4C155A76A14C217B5403EDBD563F34E508ECDC SWAP2 SWAP1 POP JUMP JUMPDEST PUSH1 0x40 MLOAD PUSH3 0x461BCD PUSH1 0xE5 SHL DUP2 MSTORE PUSH1 0x20 PUSH1 0x4 DUP3 ADD MSTORE PUSH1 0x13 PUSH1 0x24 DUP3 ADD MSTORE PUSH32 0x496E646578206F7574206F6620626F756E647300000000000000000000000000 PUSH1 0x44 DUP3 ADD MSTORE PUSH1 0x64 ADD PUSH3 0xA5 JUMP JUMPDEST PUSH0 DUP1 PUSH0 PUSH1 0x60 DUP5 DUP7 SUB SLT ISZERO PUSH3 0x679 JUMPI PUSH0 DUP1 REVERT JUMPDEST DUP4 MLOAD PUSH1 0x1 PUSH1 0x1 PUSH1 0xA0 SHL SUB DUP2 AND DUP2 EQ PUSH3 0x690 JUMPI PUSH0 DUP1 REVERT JUMPDEST PUSH1 0x20 DUP6 ADD MLOAD PUSH1 0x40 DUP7 ADD MLOAD SWAP2 SWAP5 POP SWAP3 POP PUSH4 0xFFFFFFFF DUP2 AND DUP2 EQ PUSH3 0x6B1 JUMPI PUSH0 DUP1 REVERT JUMPDEST DUP1 SWAP2 POP POP SWAP3 POP SWAP3 POP SWAP3 JUMP JUMPDEST PUSH2 0x12CA DUP1 PUSH3 0x6CA PUSH0 CODECOPY PUSH0 RETURN INVALID PUSH1 0x80 PUSH1 0x40 MSTORE PUSH1 0x4 CALLDATASIZE LT PUSH2 0x129 JUMPI PUSH0 CALLDATALOAD PUSH1 0xE0 SHR DUP1 PUSH4 0x9EC44154 GT PUSH2 0xA8 JUMPI DUP1 PUSH4 0xCD87A3B4 GT PUSH2 0x6D JUMPI DUP1 PUSH4 0xCD87A3B4 EQ PUSH2 0x3A6 JUMPI DUP1 PUSH4 0xE5285DCC EQ PUSH2 0x3BA JUMPI DUP1 PUSH4 0xE8295588 EQ PUSH2 0x3E8 JUMPI DUP1 PUSH4 0xF178E47C EQ PUSH2 0x407 JUMPI DUP1 PUSH4 0xF18D20BE EQ PUSH2 0x432 JUMPI DUP1 PUSH4 0xFC7E9C6F EQ PUSH2 0x43A JUMPI PUSH0 DUP1 REVERT JUMPDEST DUP1 PUSH4 0x9EC44154 EQ PUSH2 0x2E7 JUMPI DUP1 PUSH4 0x9FA12D0B EQ PUSH2 0x312 JUMPI DUP1 PUSH4 0xB214FAA5 EQ PUSH2 0x33E JUMPI DUP1 PUSH4 0xBA70F757 EQ PUSH2 0x353 JUMPI DUP1 PUSH4 0xC2B40AE4 EQ PUSH2 0x37B JUMPI PUSH0 DUP1 REVERT JUMPDEST DUP1 PUSH4 0x4ECF518B GT PUSH2 0xEE JUMPI DUP1 PUSH4 0x4ECF518B EQ PUSH2 0x239 JUMPI DUP1 PUSH4 0x6D9833E3 EQ PUSH2 0x269 JUMPI DUP1 PUSH4 0x839DF945 EQ PUSH2 0x288 JUMPI DUP1 PUSH4 0x8BCA6D16 EQ PUSH2 0x2B6 JUMPI DUP1 PUSH4 0x90EEB02B EQ PUSH2 0x2CB JUMPI PUSH0 DUP1 REVERT JUMPDEST DUP1 PUSH4 0x26627210 EQ PUSH2 0x134 JUMPI DUP1 PUSH4 0x2997E86B EQ PUSH2 0x169 JUMPI DUP1 PUSH4 0x2B7AC3F3 EQ PUSH2 0x1A7 JUMPI DUP1 PUSH4 0x3591D78D EQ PUSH2 0x1DE JUMPI DUP1 PUSH4 0x38BF282E EQ PUSH2 0x20C JUMPI PUSH0 DUP1 REVERT JUMPDEST CALLDATASIZE PUSH2 0x130 JUMPI STOP JUMPDEST PUSH0 DUP1 REVERT JUMPDEST CALLVALUE DUP1 ISZERO PUSH2 0x13F JUMPI PUSH0 DUP1 REVERT JUMPDEST POP PUSH2 0x153 PUSH2 0x14E CALLDATASIZE PUSH1 0x4 PUSH2 0xF1E JUMP JUMPDEST PUSH2 0x45E JUMP JUMPDEST PUSH1 0x40 MLOAD PUSH2 0x160 SWAP2 SWAP1 PUSH2 0xF65 JUMP JUMPDEST PUSH1 0x40 MLOAD DUP1 SWAP2 SUB SWAP1 RETURN JUMPDEST CALLVALUE DUP1 ISZERO PUSH2 0x174 JUMPI PUSH0 DUP1 REVERT JUMPDEST POP PUSH2 0x197 PUSH2 0x183 CALLDATASIZE PUSH1 0x4 PUSH2 0xFA8 JUMP JUMPDEST PUSH1 0x8 PUSH1 0x20 MSTORE PUSH0 SWAP1 DUP2 MSTORE PUSH1 0x40 SWAP1 KECCAK256 SLOAD PUSH1 0xFF AND DUP2 JUMP JUMPDEST PUSH1 0x40 MLOAD SWAP1 ISZERO ISZERO DUP2 MSTORE PUSH1 0x20 ADD PUSH2 0x160 JUMP JUMPDEST CALLVALUE DUP1 ISZERO PUSH2 0x1B2 JUMPI PUSH0 DUP1 REVERT JUMPDEST POP PUSH1 0x7 SLOAD PUSH2 0x1C6 SWAP1 PUSH1 0x1 PUSH1 0x1 PUSH1 0xA0 SHL SUB AND DUP2 JUMP JUMPDEST PUSH1 0x40 MLOAD PUSH1 0x1 PUSH1 0x1 PUSH1 0xA0 SHL SUB SWAP1 SWAP2 AND DUP2 MSTORE PUSH1 0x20 ADD PUSH2 0x160 JUMP JUMPDEST CALLVALUE DUP1 ISZERO PUSH2 0x1E9 JUMPI PUSH0 DUP1 REVERT JUMPDEST POP PUSH2 0x197 PUSH2 0x1F8 CALLDATASIZE PUSH1 0x4 PUSH2 0xFA8 JUMP JUMPDEST PUSH1 0xA PUSH1 0x20 MSTORE PUSH0 SWAP1 DUP2 MSTORE PUSH1 0x40 SWAP1 KECCAK256 SLOAD PUSH1 0xFF AND DUP2 JUMP JUMPDEST CALLVALUE DUP1 ISZERO PUSH2 0x217 JUMPI PUSH0 DUP1 REVERT JUMPDEST POP PUSH2 0x22B PUSH2 0x226 CALLDATASIZE PUSH1 0x4 PUSH2 0xFBF JUMP JUMPDEST PUSH2 0x57C JUMP JUMPDEST PUSH1 0x40 MLOAD SWAP1 DUP2 MSTORE PUSH1 0x20 ADD PUSH2 0x160 JUMP JUMPDEST CALLVALUE DUP1 ISZERO PUSH2 0x244 JUMPI PUSH0 DUP1 REVERT JUMPDEST POP PUSH0 SLOAD PUSH2 0x254 SWAP1 PUSH4 0xFFFFFFFF AND DUP2 JUMP JUMPDEST PUSH1 0x40 MLOAD PUSH4 0xFFFFFFFF SWAP1 SWAP2 AND DUP2 MSTORE PUSH1 0x20 ADD PUSH2 0x160 JUMP JUMPDEST CALLVALUE DUP1 ISZERO PUSH2 0x274 JUMPI PUSH0 DUP1 REVERT JUMPDEST POP PUSH2 0x197 PUSH2 0x283 CALLDATASIZE PUSH1 0x4 PUSH2 0xFA8 JUMP JUMPDEST PUSH2 0x5AB JUMP JUMPDEST CALLVALUE DUP1 ISZERO PUSH2 0x293 JUMPI PUSH0 DUP1 REVERT JUMPDEST POP PUSH2 0x197 PUSH2 0x2A2 CALLDATASIZE PUSH1 0x4 PUSH2 0xFA8 JUMP JUMPDEST PUSH1 0x9 PUSH1 0x20 MSTORE PUSH0 SWAP1 DUP2 MSTORE PUSH1 0x40 SWAP1 KECCAK256 SLOAD PUSH1 0xFF AND DUP2 JUMP JUMPDEST CALLVALUE DUP1 ISZERO PUSH2 0x2C1 JUMPI PUSH0 DUP1 REVERT JUMPDEST POP PUSH2 0x22B PUSH1 0x6 SLOAD DUP2 JUMP JUMPDEST CALLVALUE DUP1 ISZERO PUSH2 0x2D6 JUMPI PUSH0 DUP1 REVERT JUMPDEST POP PUSH1 0x4 SLOAD PUSH2 0x254 SWAP1 PUSH4 0xFFFFFFFF AND DUP2 JUMP JUMPDEST CALLVALUE DUP1 ISZERO PUSH2 0x2F2 JUMPI PUSH0 DUP1 REVERT JUMPDEST POP PUSH2 0x22B PUSH2 0x301 CALLDATASIZE PUSH1 0x4 PUSH2 0xFA8 JUMP JUMPDEST PUSH1 0x1 PUSH1 0x20 MSTORE PUSH0 SWAP1 DUP2 MSTORE PUSH1 0x40 SWAP1 KECCAK256 SLOAD DUP2 JUMP JUMPDEST CALLVALUE DUP1 ISZERO PUSH2 0x31D JUMPI PUSH0 DUP1 REVERT JUMPDEST POP PUSH2 0x331 PUSH2 0x32C CALLDATASIZE PUSH1 0x4 PUSH2 0xFDF JUMP JUMPDEST PUSH2 0x624 JUMP JUMPDEST PUSH1 0x40 MLOAD PUSH2 0x160 SWAP2 SWAP1 PUSH2 0x104E JUMP JUMPDEST PUSH2 0x351 PUSH2 0x34C CALLDATASIZE PUSH1 0x4 PUSH2 0xFA8 JUMP JUMPDEST PUSH2 0x6DE JUMP JUMPDEST STOP JUMPDEST CALLVALUE DUP1 ISZERO PUSH2 0x35E JUMPI PUSH0 DUP1 REVERT JUMPDEST POP PUSH1 0x4 SLOAD PUSH4 0xFFFFFFFF AND PUSH0 SWAP1 DUP2 MSTORE PUSH1 0x3 PUSH1 0x20 MSTORE PUSH1 0x40 SWAP1 KECCAK256 SLOAD PUSH2 0x22B JUMP JUMPDEST CALLVALUE DUP1 ISZERO PUSH2 0x386 JUMPI PUSH0 DUP1 REVERT JUMPDEST POP PUSH2 0x22B PUSH2 0x395 CALLDATASIZE PUSH1 0x4 PUSH2 0xFA8 JUMP JUMPDEST PUSH1 0x3 PUSH1 0x20 MSTORE PUSH0 SWAP1 DUP2 MSTORE PUSH1 0x40 SWAP1 KECCAK256 SLOAD DUP2 JUMP JUMPDEST CALLVALUE DUP1 ISZERO PUSH2 0x3B1 JUMPI PUSH0 DUP1 REVERT JUMPDEST POP PUSH2 0x254 PUSH1 0x1E DUP2 JUMP JUMPDEST CALLVALUE DUP1 ISZERO PUSH2 0x3C5 JUMPI PUSH0 DUP1 REVERT JUMPDEST POP PUSH2 0x197 PUSH2 0x3D4 CALLDATASIZE PUSH1 0x4 PUSH2 0xFA8 JUMP JUMPDEST PUSH0 SWAP1 DUP2 MSTORE PUSH1 0x8 PUSH1 0x20 MSTORE PUSH1 0x40 SWAP1 KECCAK256 SLOAD PUSH1 0xFF AND SWAP1 JUMP JUMPDEST CALLVALUE DUP1 ISZERO PUSH2 0x3F3 JUMPI PUSH0 DUP1 REVERT JUMPDEST POP PUSH2 0x22B PUSH2 0x402 CALLDATASIZE PUSH1 0x4 PUSH2 0xFA8 JUMP JUMPDEST PUSH2 0x7CD JUMP JUMPDEST CALLVALUE DUP1 ISZERO PUSH2 0x412 JUMPI PUSH0 DUP1 REVERT JUMPDEST POP PUSH2 0x22B PUSH2 0x421 CALLDATASIZE PUSH1 0x4 PUSH2 0xFA8 JUMP JUMPDEST PUSH1 0x2 PUSH1 0x20 MSTORE PUSH0 SWAP1 DUP2 MSTORE PUSH1 0x40 SWAP1 KECCAK256 SLOAD DUP2 JUMP JUMPDEST PUSH2 0x351 PUSH2 0xBE6 JUMP JUMPDEST CALLVALUE DUP1 ISZERO PUSH2 0x445 JUMPI PUSH0 DUP1 REVERT JUMPDEST POP PUSH1 0x4 SLOAD PUSH2 0x254 SWAP1 PUSH5 0x100000000 SWAP1 DIV PUSH4 0xFFFFFFFF AND DUP2 JUMP JUMPDEST PUSH1 0x40 DUP1 MLOAD PUSH1 0x42 DUP1 DUP3 MSTORE PUSH2 0x860 DUP3 ADD SWAP1 SWAP3 MSTORE PUSH1 0x60 SWAP2 PUSH0 SWAP2 SWAP1 PUSH1 0x20 DUP3 ADD PUSH2 0x840 DUP1 CALLDATASIZE DUP4 CALLDATACOPY ADD SWAP1 POP POP SWAP1 POP PUSH0 JUMPDEST PUSH1 0x20 DUP2 LT ISZERO PUSH2 0x4CE JUMPI DUP7 DUP2 PUSH1 0x20 DUP2 LT PUSH2 0x4A3 JUMPI PUSH2 0x4A3 PUSH2 0x109B JUMP JUMPDEST DUP4 MLOAD SWAP2 SWAP1 BYTE SWAP1 DUP4 SWAP1 DUP4 SWAP1 DUP2 LT PUSH2 0x4BB JUMPI PUSH2 0x4BB PUSH2 0x109B JUMP JUMPDEST PUSH1 0x20 SWAP1 DUP2 MUL SWAP2 SWAP1 SWAP2 ADD ADD MSTORE PUSH1 0x1 ADD PUSH2 0x488 JUMP JUMPDEST POP PUSH1 0x20 JUMPDEST PUSH1 0x40 DUP2 LT ISZERO PUSH2 0x522 JUMPI DUP6 PUSH2 0x4E7 PUSH1 0x20 DUP4 PUSH2 0x10C3 JUMP JUMPDEST PUSH1 0x20 DUP2 LT PUSH2 0x4F7 JUMPI PUSH2 0x4F7 PUSH2 0x109B JUMP JUMPDEST DUP4 MLOAD SWAP2 SWAP1 BYTE SWAP1 DUP4 SWAP1 DUP4 SWAP1 DUP2 LT PUSH2 0x50F JUMPI PUSH2 0x50F PUSH2 0x109B JUMP JUMPDEST PUSH1 0x20 SWAP1 DUP2 MUL SWAP2 SWAP1 SWAP2 ADD ADD MSTORE PUSH1 0x1 ADD PUSH2 0x4D2 JUMP JUMPDEST POP DUP1 MLOAD PUSH1 0x1 PUSH1 0x1 PUSH1 0xA0 SHL SUB DUP6 AND SWAP1 DUP2 SWAP1 DUP4 SWAP1 PUSH1 0x40 SWAP1 DUP2 LT PUSH2 0x545 JUMPI PUSH2 0x545 PUSH2 0x109B JUMP JUMPDEST PUSH1 0x20 MUL PUSH1 0x20 ADD ADD DUP2 DUP2 MSTORE POP POP DUP4 PUSH0 SHL DUP3 PUSH1 0x41 DUP2 MLOAD DUP2 LT PUSH2 0x567 JUMPI PUSH2 0x567 PUSH2 0x109B JUMP JUMPDEST PUSH1 0x20 SWAP1 DUP2 MUL SWAP2 SWAP1 SWAP2 ADD ADD MSTORE POP SWAP6 SWAP5 POP POP POP POP POP JUMP JUMPDEST PUSH1 0x40 DUP1 MLOAD PUSH1 0x20 DUP1 DUP3 ADD DUP6 SWAP1 MSTORE DUP2 DUP4 ADD DUP5 SWAP1 MSTORE DUP3 MLOAD DUP1 DUP4 SUB DUP5 ADD DUP2 MSTORE PUSH1 0x60 SWAP1 SWAP3 ADD SWAP1 SWAP3 MSTORE DUP1 MLOAD SWAP2 ADD KECCAK256 JUMPDEST SWAP3 SWAP2 POP POP JUMP JUMPDEST PUSH0 DUP2 DUP2 SUB PUSH2 0x5BA JUMPI POP PUSH0 SWAP2 SWAP1 POP JUMP JUMPDEST PUSH1 0x4 SLOAD PUSH4 0xFFFFFFFF AND DUP1 JUMPDEST PUSH4 0xFFFFFFFF DUP2 AND PUSH0 SWAP1 DUP2 MSTORE PUSH1 0x3 PUSH1 0x20 MSTORE PUSH1 0x40 SWAP1 KECCAK256 SLOAD DUP5 SUB PUSH2 0x5EA JUMPI POP PUSH1 0x1 SWAP4 SWAP3 POP POP POP JUMP JUMPDEST DUP1 PUSH4 0xFFFFFFFF AND PUSH0 SUB PUSH2 0x5FB JUMPI POP PUSH1 0x1E JUMPDEST DUP1 PUSH2 0x605 DUP2 PUSH2 0x10D6 JUMP JUMPDEST SWAP2 POP POP DUP2 PUSH4 0xFFFFFFFF AND DUP2 PUSH4 0xFFFFFFFF AND SUB PUSH2 0x5C5 JUMPI POP PUSH0 SWAP4 SWAP3 POP POP POP JUMP JUMPDEST PUSH1 0x60 DUP2 PUSH8 0xFFFFFFFFFFFFFFFF DUP2 GT ISZERO PUSH2 0x63F JUMPI PUSH2 0x63F PUSH2 0x1087 JUMP JUMPDEST PUSH1 0x40 MLOAD SWAP1 DUP1 DUP3 MSTORE DUP1 PUSH1 0x20 MUL PUSH1 0x20 ADD DUP3 ADD PUSH1 0x40 MSTORE DUP1 ISZERO PUSH2 0x668 JUMPI DUP2 PUSH1 0x20 ADD PUSH1 0x20 DUP3 MUL DUP1 CALLDATASIZE DUP4 CALLDATACOPY ADD SWAP1 POP JUMPDEST POP SWAP1 POP PUSH0 JUMPDEST DUP3 DUP2 LT ISZERO PUSH2 0x6D7 JUMPI PUSH2 0x6A5 DUP5 DUP5 DUP4 DUP2 DUP2 LT PUSH2 0x68A JUMPI PUSH2 0x68A PUSH2 0x109B JUMP JUMPDEST SWAP1 POP PUSH1 0x20 MUL ADD CALLDATALOAD PUSH0 SWAP1 DUP2 MSTORE PUSH1 0x8 PUSH1 0x20 MSTORE PUSH1 0x40 SWAP1 KECCAK256 SLOAD PUSH1 0xFF AND SWAP1 JUMP JUMPDEST ISZERO PUSH2 0x6CF JUMPI PUSH1 0x1 DUP3 DUP3 DUP2 MLOAD DUP2 LT PUSH2 0x6BE JUMPI PUSH2 0x6BE PUSH2 0x109B JUMP JUMPDEST SWAP2 ISZERO ISZERO PUSH1 0x20 SWAP3 DUP4 MUL SWAP2 SWAP1 SWAP2 ADD SWAP1 SWAP2 ADD MSTORE JUMPDEST PUSH1 0x1 ADD PUSH2 0x66D JUMP JUMPDEST POP SWAP3 SWAP2 POP POP JUMP JUMPDEST PUSH2 0x6E6 PUSH2 0xCA7 JUMP JUMPDEST PUSH0 DUP2 DUP2 MSTORE PUSH1 0x9 PUSH1 0x20 MSTORE PUSH1 0x40 SWAP1 KECCAK256 SLOAD PUSH1 0xFF AND ISZERO PUSH2 0x753 JUMPI PUSH1 0x40 MLOAD PUSH3 0x461BCD PUSH1 0xE5 SHL DUP2 MSTORE PUSH1 0x20 PUSH1 0x4 DUP3 ADD MSTORE PUSH1 0x21 PUSH1 0x24 DUP3 ADD MSTORE PUSH32 0x54686520636F6D6D69746D656E7420686173206265656E207375626D69747465 PUSH1 0x44 DUP3 ADD MSTORE PUSH1 0x19 PUSH1 0xFA SHL PUSH1 0x64 DUP3 ADD MSTORE PUSH1 0x84 ADD JUMPDEST PUSH1 0x40 MLOAD DUP1 SWAP2 SUB SWAP1 REVERT JUMPDEST PUSH0 PUSH2 0x75D DUP3 PUSH2 0xCD1 JUMP JUMPDEST PUSH0 DUP4 DUP2 MSTORE PUSH1 0x9 PUSH1 0x20 MSTORE PUSH1 0x40 SWAP1 KECCAK256 DUP1 SLOAD PUSH1 0xFF NOT AND PUSH1 0x1 OR SWAP1 SSTORE SWAP1 POP PUSH2 0x77F PUSH2 0xEA7 JUMP JUMPDEST PUSH1 0x40 DUP1 MLOAD PUSH4 0xFFFFFFFF DUP4 AND DUP2 MSTORE TIMESTAMP PUSH1 0x20 DUP3 ADD MSTORE DUP4 SWAP2 PUSH32 0xA945E51EEC50AB98C161376F0DB4CF2AEBA3EC92755FE2FCD388BDBBB80FF196 SWAP2 ADD PUSH1 0x40 MLOAD DUP1 SWAP2 SUB SWAP1 LOG2 POP PUSH2 0x7CA PUSH1 0x1 PUSH1 0x5 SSTORE JUMP JUMPDEST POP JUMP JUMPDEST PUSH0 DUP2 PUSH0 SUB PUSH2 0x7FC JUMPI POP PUSH32 0x2FE54C60D3ACABF3343A35B6EBA15DB4821B340F76E741E2249685ED4899AF6C SWAP2 SWAP1 POP JUMP JUMPDEST DUP2 PUSH1 0x1 SUB PUSH2 0x82B JUMPI POP PUSH32 0x4FC2FE9184A25F44CE8DDB5F32671FCAE6D9C85ED710C199ACEF16AD16B29911 SWAP2 SWAP1 POP JUMP JUMPDEST DUP2 PUSH1 0x2 SUB PUSH2 0x85A JUMPI POP PUSH32 0xD826A474F851C563052D929EF0DAA70F658ABA9BA084F51F6E3483C13C0E59A SWAP2 SWAP1 POP JUMP JUMPDEST DUP2 PUSH1 0x3 SUB PUSH2 0x889 JUMPI POP PUSH32 0xF7761A16B5E4C0120E4C5704B910DBE18FF6162A9668ED1C2C4EFDE7C4F15806 SWAP2 SWAP1 POP JUMP JUMPDEST DUP2 PUSH1 0x4 SUB PUSH2 0x8B8 JUMPI POP PUSH32 0xCE9CE09A0AB259D6D14CA3DCD74E6C6B9E7D9074BFF66973D4C57CCDFFDB2A82 SWAP2 SWAP1 POP JUMP JUMPDEST DUP2 PUSH1 0x5 SUB PUSH2 0x8E7 JUMPI POP PUSH32 0x2EFD44C63015FF1385344E0624867775486D05E6EB1290A24976964A598003B SWAP2 SWAP1 POP JUMP JUMPDEST DUP2 PUSH1 0x6 SUB PUSH2 0x916 JUMPI POP PUSH32 0xC4DEC5845D407CE2AC2E6824BB7857C4B138F819E5789D5D11E812DB10C846CD SWAP2 SWAP1 POP JUMP JUMPDEST DUP2 PUSH1 0x7 SUB PUSH2 0x945 JUMPI POP PUSH32 0x5FBE3F20C23F3BD6AC347917FB0903433E0B9A48373412348240A5F919BFDE19 SWAP2 SWAP1 POP JUMP JUMPDEST DUP2 PUSH1 0x8 SUB PUSH2 0x974 JUMPI POP PUSH32 0x92D1B07E56B3DA96B7917778CB657F2C513EAEEB4D1579A73B5EA316F25B7289 SWAP2 SWAP1 POP JUMP JUMPDEST DUP2 PUSH1 0x9 SUB PUSH2 0x9A3 JUMPI POP PUSH32 0xA08ADD5656D6D3D0827EF909F7647981EAC42AA1F51970A752F130F718F6D76A SWAP2 SWAP1 POP JUMP JUMPDEST DUP2 PUSH1 0xA SUB PUSH2 0x9D2 JUMPI POP PUSH32 0x1704C5F297590D8EC62776B0714F4F3F2234BAE0524035342B0DA8B8988EBD79 SWAP2 SWAP1 POP JUMP JUMPDEST DUP2 PUSH1 0xB SUB PUSH2 0xA01 JUMPI POP PUSH32 0xC5AE2BD47379C2C6D1189CFC3D057948DC6054CAF845FCACD8F7AFFE94B11944 SWAP2 SWAP1 POP JUMP JUMPDEST DUP2 PUSH1 0xC SUB PUSH2 0xA30 JUMPI POP PUSH32 0x12A161D6D5561062F387D91AD9F0F8966C0956AFDB9E8325458B9E5057B82BDB SWAP2 SWAP1 POP JUMP JUMPDEST DUP2 PUSH1 0xD SUB PUSH2 0xA5F JUMPI POP PUSH32 0x4ADE524BA596DE20BBE94507A761C45251AE7A27857CEB4287D9018525B99BC5 SWAP2 SWAP1 POP JUMP JUMPDEST DUP2 PUSH1 0xE SUB PUSH2 0xA8E JUMPI POP PUSH32 0x38287AD69151FA833BF4BF8B8EB6FFB39400A38F1A7E53B473F639C8C60FD5E4 SWAP2 SWAP1 POP JUMP JUMPDEST DUP2 PUSH1 0xF SUB PUSH2 0xABD JUMPI POP PUSH32 0x57F2ADE7D711707E785451F2ABA6C95872C7FE03153A98B7327B4024E8068FA3 SWAP2 SWAP1 POP JUMP JUMPDEST DUP2 PUSH1 0x10 SUB PUSH2 0xAEC JUMPI POP PUSH32 0xB1982E0D1B0DE46A88D8B17941472E41A86D3FF64571ED8E0CA72D58633547FC SWAP2 SWAP1 POP JUMP JUMPDEST DUP2 PUSH1 0x11 SUB PUSH2 0xB1B JUMPI POP PUSH32 0xB7C60F8670AF15EB32B4EE36727179BC085A3DDE03D5F9A1486664BA576B30A6 SWAP2 SWAP1 POP JUMP JUMPDEST DUP2 PUSH1 0x12 SUB PUSH2 0xB4A JUMPI POP PUSH32 0x5FF905C5C659A926B132EF3665A3DE5D5A859C1D479E68851085BFC0348C5331 SWAP2 SWAP1 POP JUMP JUMPDEST DUP2 PUSH1 0x13 SUB PUSH2 0xB79 JUMPI POP PUSH32 0xB4DFA78B912E98C9F7EB42D71EB537A02BF3173D44A2EB887A48B3972072DD8E SWAP2 SWAP1 POP JUMP JUMPDEST DUP2 PUSH1 0x14 SUB PUSH2 0xBA8 JUMPI POP PUSH32 0x60919A16A2EB8B91CFB8BA1E5B4C155A76A14C217B5403EDBD563F34E508ECDC SWAP2 SWAP1 POP JUMP JUMPDEST PUSH1 0x40 MLOAD PUSH3 0x461BCD PUSH1 0xE5 SHL DUP2 MSTORE PUSH1 0x20 PUSH1 0x4 DUP3 ADD MSTORE PUSH1 0x13 PUSH1 0x24 DUP3 ADD MSTORE PUSH19 0x496E646578206F7574206F6620626F756E6473 PUSH1 0x68 SHL PUSH1 0x44 DUP3 ADD MSTORE PUSH1 0x64 ADD PUSH2 0x74A JUMP JUMPDEST PUSH2 0xBEE PUSH2 0xCA7 JUMP JUMPDEST PUSH1 0x40 MLOAD PUSH20 0xBE34CC4CEBF526887EC2C0035463DD26B3E7FEA4 SWAP1 PUSH0 SWAP1 DUP3 SWAP1 SELFBALANCE SWAP1 DUP4 DUP2 DUP2 DUP2 DUP6 DUP8 GAS CALL SWAP3 POP POP POP RETURNDATASIZE DUP1 PUSH0 DUP2 EQ PUSH2 0xC43 JUMPI PUSH1 0x40 MLOAD SWAP2 POP PUSH1 0x1F NOT PUSH1 0x3F RETURNDATASIZE ADD AND DUP3 ADD PUSH1 0x40 MSTORE RETURNDATASIZE DUP3 MSTORE RETURNDATASIZE PUSH0 PUSH1 0x20 DUP5 ADD RETURNDATACOPY PUSH2 0xC48 JUMP JUMPDEST PUSH1 0x60 SWAP2 POP JUMPDEST POP POP SWAP1 POP DUP1 PUSH2 0xC99 JUMPI PUSH1 0x40 MLOAD PUSH3 0x461BCD PUSH1 0xE5 SHL DUP2 MSTORE PUSH1 0x20 PUSH1 0x4 DUP3 ADD DUP2 SWAP1 MSTORE PUSH1 0x24 DUP3 ADD MSTORE PUSH32 0x7061796D656E7420746F2061646D696E20646964206E6F7420676F2074687275 PUSH1 0x44 DUP3 ADD MSTORE PUSH1 0x64 ADD PUSH2 0x74A JUMP JUMPDEST POP POP PUSH2 0xCA5 PUSH1 0x1 PUSH1 0x5 SSTORE JUMP JUMPDEST JUMP JUMPDEST PUSH1 0x2 PUSH1 0x5 SLOAD SUB PUSH2 0xCCA JUMPI PUSH1 0x40 MLOAD PUSH4 0x3EE5AEB5 PUSH1 0xE0 SHL DUP2 MSTORE PUSH1 0x4 ADD PUSH1 0x40 MLOAD DUP1 SWAP2 SUB SWAP1 REVERT JUMPDEST PUSH1 0x2 PUSH1 0x5 SSTORE JUMP JUMPDEST PUSH1 0x4 SLOAD PUSH0 DUP1 SLOAD SWAP1 SWAP2 PUSH4 0xFFFFFFFF PUSH5 0x100000000 SWAP1 SWAP2 DIV DUP2 AND SWAP2 PUSH2 0xCF6 SWAP2 AND PUSH1 0x2 PUSH2 0x1203 JUMP JUMPDEST PUSH4 0xFFFFFFFF AND DUP2 PUSH4 0xFFFFFFFF AND SUB PUSH2 0xD69 JUMPI PUSH1 0x40 MLOAD PUSH3 0x461BCD PUSH1 0xE5 SHL DUP2 MSTORE PUSH1 0x20 PUSH1 0x4 DUP3 ADD MSTORE PUSH1 0x30 PUSH1 0x24 DUP3 ADD MSTORE PUSH32 0x4D65726B6C6520747265652069732066756C6C2E204E6F206D6F7265206C6561 PUSH1 0x44 DUP3 ADD MSTORE PUSH16 0x1D995CC818D85B881899481859191959 PUSH1 0x82 SHL PUSH1 0x64 DUP3 ADD MSTORE PUSH1 0x84 ADD PUSH2 0x74A JUMP JUMPDEST DUP1 DUP4 PUSH0 DUP1 DUP1 JUMPDEST PUSH0 SLOAD PUSH4 0xFFFFFFFF SWAP1 DUP2 AND SWAP1 DUP3 AND LT ISZERO PUSH2 0xE05 JUMPI PUSH2 0xD8D PUSH1 0x2 DUP7 PUSH2 0x1233 JUMP JUMPDEST PUSH4 0xFFFFFFFF AND PUSH0 SUB PUSH2 0xDC9 JUMPI DUP4 SWAP3 POP PUSH2 0xDAB DUP2 PUSH4 0xFFFFFFFF AND PUSH2 0x7CD JUMP JUMPDEST PUSH4 0xFFFFFFFF DUP3 AND PUSH0 SWAP1 DUP2 MSTORE PUSH1 0x2 PUSH1 0x20 MSTORE PUSH1 0x40 SWAP1 KECCAK256 DUP6 SWAP1 SSTORE SWAP2 POP PUSH2 0xDE4 JUMP JUMPDEST PUSH4 0xFFFFFFFF DUP2 AND PUSH0 SWAP1 DUP2 MSTORE PUSH1 0x2 PUSH1 0x20 MSTORE PUSH1 0x40 SWAP1 KECCAK256 SLOAD SWAP3 POP DUP4 SWAP2 POP JUMPDEST PUSH2 0xDEE DUP4 DUP4 PUSH2 0x57C JUMP JUMPDEST SWAP4 POP PUSH2 0xDFB PUSH1 0x2 DUP7 PUSH2 0x1255 JUMP JUMPDEST SWAP5 POP PUSH1 0x1 ADD PUSH2 0xD6F JUMP JUMPDEST POP PUSH1 0x4 SLOAD PUSH0 SWAP1 PUSH1 0x1E SWAP1 PUSH2 0xE1F SWAP1 PUSH4 0xFFFFFFFF AND PUSH1 0x1 PUSH2 0x1277 JUMP JUMPDEST PUSH2 0xE29 SWAP2 SWAP1 PUSH2 0x1233 JUMP JUMPDEST PUSH1 0x4 DUP1 SLOAD PUSH4 0xFFFFFFFF NOT AND PUSH4 0xFFFFFFFF DUP4 DUP2 AND SWAP2 DUP3 OR SWAP1 SWAP3 SSTORE PUSH0 SWAP1 DUP2 MSTORE PUSH1 0x3 PUSH1 0x20 SWAP1 DUP2 MSTORE PUSH1 0x40 DUP1 DUP4 KECCAK256 DUP10 SWAP1 SSTORE SWAP3 DUP11 AND DUP3 MSTORE PUSH1 0x1 SWAP1 DUP2 SWAP1 MSTORE SWAP2 SWAP1 KECCAK256 DUP11 SWAP1 SSTORE SWAP1 SWAP2 POP PUSH2 0xE74 SWAP1 DUP8 SWAP1 PUSH2 0x1277 JUMP JUMPDEST PUSH1 0x4 DUP1 SLOAD PUSH4 0xFFFFFFFF SWAP3 SWAP1 SWAP3 AND PUSH5 0x100000000 MUL PUSH8 0xFFFFFFFF00000000 NOT SWAP1 SWAP3 AND SWAP2 SWAP1 SWAP2 OR SWAP1 SSTORE POP SWAP4 SWAP7 SWAP6 POP POP POP POP POP POP JUMP JUMPDEST PUSH1 0x6 SLOAD CALLVALUE EQ PUSH2 0xCA5 JUMPI PUSH1 0x40 MLOAD PUSH3 0x461BCD PUSH1 0xE5 SHL DUP2 MSTORE PUSH1 0x20 PUSH1 0x4 DUP3 ADD MSTORE PUSH1 0x38 PUSH1 0x24 DUP3 ADD MSTORE PUSH32 0x506C656173652073656E6420606D697844656E6F6D696E6174696F6E60204554 PUSH1 0x44 DUP3 ADD MSTORE PUSH32 0x4820616C6F6E672077697468207472616E73616374696F6E0000000000000000 PUSH1 0x64 DUP3 ADD MSTORE PUSH1 0x84 ADD PUSH2 0x74A JUMP JUMPDEST PUSH0 DUP1 PUSH0 DUP1 PUSH1 0x80 DUP6 DUP8 SUB SLT ISZERO PUSH2 0xF31 JUMPI PUSH0 DUP1 REVERT JUMPDEST DUP5 CALLDATALOAD SWAP4 POP PUSH1 0x20 DUP6 ADD CALLDATALOAD SWAP3 POP PUSH1 0x40 DUP6 ADD CALLDATALOAD PUSH1 0x1 PUSH1 0x1 PUSH1 0xA0 SHL SUB DUP2 AND DUP2 EQ PUSH2 0xF55 JUMPI PUSH0 DUP1 REVERT JUMPDEST SWAP4 SWAP7 SWAP3 SWAP6 POP SWAP3 SWAP4 PUSH1 0x60 ADD CALLDATALOAD SWAP3 POP POP JUMP JUMPDEST PUSH1 0x20 DUP1 DUP3 MSTORE DUP3 MLOAD DUP3 DUP3 ADD DUP2 SWAP1 MSTORE PUSH0 SWAP2 SWAP1 DUP5 DUP3 ADD SWAP1 PUSH1 0x40 DUP6 ADD SWAP1 DUP5 JUMPDEST DUP2 DUP2 LT ISZERO PUSH2 0xF9C JUMPI DUP4 MLOAD DUP4 MSTORE SWAP3 DUP5 ADD SWAP3 SWAP2 DUP5 ADD SWAP2 PUSH1 0x1 ADD PUSH2 0xF80 JUMP JUMPDEST POP SWAP1 SWAP7 SWAP6 POP POP POP POP POP POP JUMP JUMPDEST PUSH0 PUSH1 0x20 DUP3 DUP5 SUB SLT ISZERO PUSH2 0xFB8 JUMPI PUSH0 DUP1 REVERT JUMPDEST POP CALLDATALOAD SWAP2 SWAP1 POP JUMP JUMPDEST PUSH0 DUP1 PUSH1 0x40 DUP4 DUP6 SUB SLT ISZERO PUSH2 0xFD0 JUMPI PUSH0 DUP1 REVERT JUMPDEST POP POP DUP1 CALLDATALOAD SWAP3 PUSH1 0x20 SWAP1 SWAP2 ADD CALLDATALOAD SWAP2 POP JUMP JUMPDEST PUSH0 DUP1 PUSH1 0x20 DUP4 DUP6 SUB SLT ISZERO PUSH2 0xFF0 JUMPI PUSH0 DUP1 REVERT JUMPDEST DUP3 CALLDATALOAD PUSH8 0xFFFFFFFFFFFFFFFF DUP1 DUP3 GT ISZERO PUSH2 0x1007 JUMPI PUSH0 DUP1 REVERT JUMPDEST DUP2 DUP6 ADD SWAP2 POP DUP6 PUSH1 0x1F DUP4 ADD SLT PUSH2 0x101A JUMPI PUSH0 DUP1 REVERT JUMPDEST DUP2 CALLDATALOAD DUP2 DUP2 GT ISZERO PUSH2 0x1028 JUMPI PUSH0 DUP1 REVERT JUMPDEST DUP7 PUSH1 0x20 DUP3 PUSH1 0x5 SHL DUP6 ADD ADD GT ISZERO PUSH2 0x103C JUMPI PUSH0 DUP1 REVERT JUMPDEST PUSH1 0x20 SWAP3 SWAP1 SWAP3 ADD SWAP7 SWAP2 SWAP6 POP SWAP1 SWAP4 POP POP POP POP JUMP JUMPDEST PUSH1 0x20 DUP1 DUP3 MSTORE DUP3 MLOAD DUP3 DUP3 ADD DUP2 SWAP1 MSTORE PUSH0 SWAP2 SWAP1 DUP5 DUP3 ADD SWAP1 PUSH1 0x40 DUP6 ADD SWAP1 DUP5 JUMPDEST DUP2 DUP2 LT ISZERO PUSH2 0xF9C JUMPI DUP4 MLOAD ISZERO ISZERO DUP4 MSTORE SWAP3 DUP5 ADD SWAP3 SWAP2 DUP5 ADD SWAP2 PUSH1 0x1 ADD PUSH2 0x1069 JUMP JUMPDEST PUSH4 0x4E487B71 PUSH1 0xE0 SHL PUSH0 MSTORE PUSH1 0x41 PUSH1 0x4 MSTORE PUSH1 0x24 PUSH0 REVERT JUMPDEST PUSH4 0x4E487B71 PUSH1 0xE0 SHL PUSH0 MSTORE PUSH1 0x32 PUSH1 0x4 MSTORE PUSH1 0x24 PUSH0 REVERT JUMPDEST PUSH4 0x4E487B71 PUSH1 0xE0 SHL PUSH0 MSTORE PUSH1 0x11 PUSH1 0x4 MSTORE PUSH1 0x24 PUSH0 REVERT JUMPDEST DUP2 DUP2 SUB DUP2 DUP2 GT ISZERO PUSH2 0x5A5 JUMPI PUSH2 0x5A5 PUSH2 0x10AF JUMP JUMPDEST PUSH0 PUSH4 0xFFFFFFFF DUP3 AND DUP1 PUSH2 0x10EB JUMPI PUSH2 0x10EB PUSH2 0x10AF JUMP JUMPDEST PUSH0 NOT ADD SWAP3 SWAP2 POP POP JUMP JUMPDEST PUSH1 0x1 DUP2 DUP2 JUMPDEST DUP1 DUP6 GT ISZERO PUSH2 0x1131 JUMPI DUP2 PUSH4 0xFFFFFFFF DIV DUP3 GT ISZERO PUSH2 0x1117 JUMPI PUSH2 0x1117 PUSH2 0x10AF JUMP JUMPDEST DUP1 DUP6 AND ISZERO PUSH2 0x1124 JUMPI SWAP2 DUP2 MUL SWAP2 JUMPDEST SWAP4 DUP5 SHR SWAP4 SWAP1 DUP1 MUL SWAP1 PUSH2 0x10F9 JUMP JUMPDEST POP SWAP3 POP SWAP3 SWAP1 POP JUMP JUMPDEST PUSH0 DUP3 PUSH2 0x1147 JUMPI POP PUSH1 0x1 PUSH2 0x5A5 JUMP JUMPDEST DUP2 PUSH2 0x1153 JUMPI POP PUSH0 PUSH2 0x5A5 JUMP JUMPDEST DUP2 PUSH1 0x1 DUP2 EQ PUSH2 0x1169 JUMPI PUSH1 0x2 DUP2 EQ PUSH2 0x1173 JUMPI PUSH2 0x11A4 JUMP JUMPDEST PUSH1 0x1 SWAP2 POP POP PUSH2 0x5A5 JUMP JUMPDEST PUSH1 0xFF DUP5 GT ISZERO PUSH2 0x1184 JUMPI PUSH2 0x1184 PUSH2 0x10AF JUMP JUMPDEST PUSH1 0x1 DUP5 SHL SWAP2 POP PUSH4 0xFFFFFFFF DUP3 GT ISZERO PUSH2 0x119E JUMPI PUSH2 0x119E PUSH2 0x10AF JUMP JUMPDEST POP PUSH2 0x5A5 JUMP JUMPDEST POP PUSH1 0x20 DUP4 LT PUSH2 0x133 DUP4 LT AND PUSH1 0x4E DUP5 LT PUSH1 0xB DUP5 LT AND OR ISZERO PUSH2 0x11DB JUMPI POP DUP2 DUP2 EXP PUSH4 0xFFFFFFFF DUP2 GT ISZERO PUSH2 0x11D6 JUMPI PUSH2 0x11D6 PUSH2 0x10AF JUMP JUMPDEST PUSH2 0x5A5 JUMP JUMPDEST PUSH2 0x11E5 DUP4 DUP4 PUSH2 0x10F4 JUMP JUMPDEST DUP1 PUSH4 0xFFFFFFFF DIV DUP3 GT ISZERO PUSH2 0x11FB JUMPI PUSH2 0x11FB PUSH2 0x10AF JUMP JUMPDEST MUL SWAP4 SWAP3 POP POP POP JUMP JUMPDEST PUSH0 PUSH4 0xFFFFFFFF PUSH2 0x1217 DUP2 DUP6 AND DUP3 DUP6 AND PUSH2 0x1139 JUMP JUMPDEST SWAP5 SWAP4 POP POP POP POP JUMP JUMPDEST PUSH4 0x4E487B71 PUSH1 0xE0 SHL PUSH0 MSTORE PUSH1 0x12 PUSH1 0x4 MSTORE PUSH1 0x24 PUSH0 REVERT JUMPDEST PUSH0 PUSH4 0xFFFFFFFF DUP1 DUP5 AND DUP1 PUSH2 0x1249 JUMPI PUSH2 0x1249 PUSH2 0x121F JUMP JUMPDEST SWAP3 AND SWAP2 SWAP1 SWAP2 MOD SWAP3 SWAP2 POP POP JUMP JUMPDEST PUSH0 PUSH4 0xFFFFFFFF DUP1 DUP5 AND DUP1 PUSH2 0x126B JUMPI PUSH2 0x126B PUSH2 0x121F JUMP JUMPDEST SWAP3 AND SWAP2 SWAP1 SWAP2 DIV SWAP3 SWAP2 POP POP JUMP JUMPDEST PUSH4 0xFFFFFFFF DUP2 DUP2 AND DUP4 DUP3 AND ADD SWAP1 DUP1 DUP3 GT ISZERO PUSH2 0x6D7 JUMPI PUSH2 0x6D7 PUSH2 0x10AF JUMP INVALID LOG2 PUSH5 0x6970667358 0x22 SLT KECCAK256 EXTCODESIZE CALLDATALOAD PUSH9 0xED75AC6DFD9D00EEDE PUSH24 0xA4699FCEA68CAD62A64B5A1BA1DAA45D3BE59164736F6C63 NUMBER STOP ADDMOD OR STOP CALLER "},"methodIdentifiers":{"ROOT_HISTORY_SIZE()":"cd87a3b4","_formatPublicInputs(bytes32,bytes32,address,uint256)":"26627210","adminWithdraw()":"f18d20be","commitmentLeafs(uint256)":"9ec44154","commitments(bytes32)":"839df945","commitmentsTreeRoots(bytes32)":"3591d78d","currentRootIndex()":"90eeb02b","denomination()":"8bca6d16","deposit(bytes32)":"b214faa5","filledSubtrees(uint256)":"f178e47c","getLastRoot()":"ba70f757","hashLeftRight(bytes32,bytes32)":"38bf282e","isKnownRoot(bytes32)":"6d9833e3","isSpent(bytes32)":"e5285dcc","isSpentArray(bytes32[])":"9fa12d0b","levels()":"4ecf518b","nextIndex()":"fc7e9c6f","nullifiers(bytes32)":"2997e86b","roots(uint256)":"c2b40ae4","verifier()":"2b7ac3f3","zeros(uint256)":"e8295588"}}}}}