{"contracts/ToadnadoL2.sol":{"ToadnadoL2":{"abi":[{"inputs":[{"internalType":"address","name":"_l1Address","type":"address"},{"internalType":"address","name":"_verifier","type":"address"},{"internalType":"uint256","name":"_denomination","type":"uint256"},{"internalType":"uint32","name":"_merkleTreeHeight","type":"uint32"}],"stateMutability":"nonpayable","type":"constructor"},{"inputs":[],"name":"ReentrancyGuardReentrantCall","type":"error"},{"inputs":[],"name":"VerificationFailed","type":"error"},{"anonymous":false,"inputs":[{"indexed":true,"internalType":"bytes32","name":"commitment","type":"bytes32"},{"indexed":false,"internalType":"uint32","name":"leafIndex","type":"uint32"},{"indexed":false,"internalType":"uint256","name":"timestamp","type":"uint256"}],"name":"Deposit","type":"event"},{"anonymous":false,"inputs":[{"indexed":false,"internalType":"address","name":"recipient","type":"address"},{"indexed":false,"internalType":"bytes32","name":"nullifier","type":"bytes32"}],"name":"Withdrawal","type":"event"},{"inputs":[],"name":"L1_SLOAD_ADDRESS","outputs":[{"internalType":"address","name":"","type":"address"}],"stateMutability":"view","type":"function"},{"inputs":[],"name":"ROOT_HISTORY_SIZE","outputs":[{"internalType":"uint32","name":"","type":"uint32"}],"stateMutability":"view","type":"function"},{"inputs":[{"internalType":"bytes32","name":"_root","type":"bytes32"},{"internalType":"bytes32","name":"_nullifier","type":"bytes32"},{"internalType":"address","name":"_recipient","type":"address"},{"internalType":"uint256","name":"_chainId","type":"uint256"}],"name":"_formatPublicInputs","outputs":[{"internalType":"bytes32[]","name":"","type":"bytes32[]"}],"stateMutability":"pure","type":"function"},{"inputs":[],"name":"adminWithdraw","outputs":[],"stateMutability":"payable","type":"function"},{"inputs":[{"internalType":"uint256","name":"","type":"uint256"}],"name":"commitmentLeafs","outputs":[{"internalType":"bytes32","name":"","type":"bytes32"}],"stateMutability":"view","type":"function"},{"inputs":[{"internalType":"bytes32","name":"","type":"bytes32"}],"name":"commitments","outputs":[{"internalType":"bool","name":"","type":"bool"}],"stateMutability":"view","type":"function"},{"inputs":[{"internalType":"bytes32","name":"","type":"bytes32"}],"name":"commitmentsTreeRoots","outputs":[{"internalType":"bool","name":"","type":"bool"}],"stateMutability":"view","type":"function"},{"inputs":[],"name":"currentRootIndex","outputs":[{"internalType":"uint32","name":"","type":"uint32"}],"stateMutability":"view","type":"function"},{"inputs":[],"name":"denomination","outputs":[{"internalType":"uint256","name":"","type":"uint256"}],"stateMutability":"view","type":"function"},{"inputs":[{"internalType":"bytes32","name":"_commitment","type":"bytes32"}],"name":"deposit","outputs":[],"stateMutability":"payable","type":"function"},{"inputs":[{"internalType":"uint256","name":"","type":"uint256"}],"name":"filledSubtrees","outputs":[{"internalType":"bytes32","name":"","type":"bytes32"}],"stateMutability":"view","type":"function"},{"inputs":[],"name":"getAllCommitments","outputs":[{"internalType":"bytes32[]","name":"","type":"bytes32[]"},{"internalType":"bytes32[]","name":"","type":"bytes32[]"}],"stateMutability":"view","type":"function"},{"inputs":[{"internalType":"uint256","name":"key","type":"uint256"}],"name":"getL1LeafCommitments","outputs":[{"internalType":"bytes32","name":"","type":"bytes32"}],"stateMutability":"view","type":"function"},{"inputs":[{"internalType":"uint256","name":"key","type":"uint256"}],"name":"getL1Root","outputs":[{"internalType":"bytes32","name":"","type":"bytes32"}],"stateMutability":"view","type":"function"},{"inputs":[],"name":"getLastRoot","outputs":[{"internalType":"bytes32","name":"","type":"bytes32"}],"stateMutability":"view","type":"function"},{"inputs":[{"internalType":"bytes32","name":"_left","type":"bytes32"},{"internalType":"bytes32","name":"_right","type":"bytes32"}],"name":"hashLeftRight","outputs":[{"internalType":"bytes32","name":"","type":"bytes32"}],"stateMutability":"pure","type":"function"},{"inputs":[{"internalType":"bytes32","name":"_root","type":"bytes32"}],"name":"isKnownL1Root","outputs":[{"internalType":"bool","name":"","type":"bool"}],"stateMutability":"view","type":"function"},{"inputs":[{"internalType":"bytes32","name":"_root","type":"bytes32"}],"name":"isKnownRoot","outputs":[{"internalType":"bool","name":"","type":"bool"}],"stateMutability":"view","type":"function"},{"inputs":[{"internalType":"bytes32","name":"_nullifierHash","type":"bytes32"}],"name":"isSpent","outputs":[{"internalType":"bool","name":"","type":"bool"}],"stateMutability":"view","type":"function"},{"inputs":[{"internalType":"bytes32[]","name":"_nullifierHashes","type":"bytes32[]"}],"name":"isSpentArray","outputs":[{"internalType":"bool[]","name":"spent","type":"bool[]"}],"stateMutability":"view","type":"function"},{"inputs":[],"name":"l1Address","outputs":[{"internalType":"address","name":"","type":"address"}],"stateMutability":"view","type":"function"},{"inputs":[],"name":"l1_currentRootIndex","outputs":[{"internalType":"uint32","name":"","type":"uint32"}],"stateMutability":"view","type":"function"},{"inputs":[],"name":"levels","outputs":[{"internalType":"uint32","name":"","type":"uint32"}],"stateMutability":"view","type":"function"},{"inputs":[],"name":"nextIndex","outputs":[{"internalType":"uint32","name":"","type":"uint32"}],"stateMutability":"view","type":"function"},{"inputs":[{"internalType":"bytes32","name":"","type":"bytes32"}],"name":"nullifiers","outputs":[{"internalType":"bool","name":"","type":"bool"}],"stateMutability":"view","type":"function"},{"inputs":[{"internalType":"address","name":"l1_contract","type":"address"},{"internalType":"uint256","name":"slot","type":"uint256"}],"name":"readSingleSlot","outputs":[{"internalType":"bytes","name":"","type":"bytes"}],"stateMutability":"view","type":"function"},{"inputs":[{"internalType":"uint256","name":"","type":"uint256"}],"name":"roots","outputs":[{"internalType":"bytes32","name":"","type":"bytes32"}],"stateMutability":"view","type":"function"},{"inputs":[],"name":"verifier","outputs":[{"internalType":"address","name":"","type":"address"}],"stateMutability":"view","type":"function"},{"inputs":[{"internalType":"bytes32","name":"_l1root","type":"bytes32"},{"internalType":"bytes32","name":"_l2root","type":"bytes32"},{"internalType":"bytes32","name":"_nullifier","type":"bytes32"},{"internalType":"address payable","name":"_recipient","type":"address"},{"internalType":"bytes","name":"snarkProof","type":"bytes"}],"name":"withdraw","outputs":[],"stateMutability":"payable","type":"function"},{"inputs":[{"internalType":"uint256","name":"i","type":"uint256"}],"name":"zeros","outputs":[{"internalType":"bytes32","name":"","type":"bytes32"}],"stateMutability":"pure","type":"function"},{"stateMutability":"payable","type":"receive"}],"evm":{"bytecode":{"linkReferences":{},"object":"6080604052600480546001600160401b0319169055600c805463ffffffff19169055600d80546001600160a01b03191661010117905534801562000041575f80fd5b5060405162002893380380620028938339810160408190526200006491620006c1565b828282805f8163ffffffff1611620000cf5760405162461bcd60e51b815260206004820152602360248201527f5f6c6576656c732073686f756c642062652067726561746572207468616e207a60448201526265726f60e81b60648201526084015b60405180910390fd5b60148163ffffffff1610620001275760405162461bcd60e51b815260206004820152601e60248201527f5f6c6576656c732073686f756c64206265206c657373207468616e20323000006044820152606401620000c6565b5f805463ffffffff191663ffffffff83161781555b8163ffffffff168163ffffffff16101562000180576200016263ffffffff82166200026c565b63ffffffff82165f908152600260205260409020556001016200013c565b506200019263ffffffff82166200026c565b5f805260036020527f3617319a054d772f909f7c479a2cebe5066e836a939412e32403c99029b92eff55506001600555816200021f5760405162461bcd60e51b815260206004820152602560248201527f64656e6f6d696e6174696f6e2073686f756c6420626520677265617465722074604482015264068616e20360dc1b6064820152608401620000c6565b50600780546001600160a01b0319166001600160a01b03938416179055600655600c8054600160201b600160c01b031916640100000000969092169590950217909355506200071b915050565b5f815f036200029c57507f2fe54c60d3acabf3343a35b6eba15db4821b340f76e741e2249685ed4899af6c919050565b81600103620002cc57507f4fc2fe9184a25f44ce8ddb5f32671fcae6d9c85ed710c199acef16ad16b29911919050565b81600203620002fc57507f0d826a474f851c563052d929ef0daa70f658aba9ba084f51f6e3483c13c0e59a919050565b816003036200032c57507ff7761a16b5e4c0120e4c5704b910dbe18ff6162a9668ed1c2c4efde7c4f15806919050565b816004036200035c57507fce9ce09a0ab259d6d14ca3dcd74e6c6b9e7d9074bff66973d4c57ccdffdb2a82919050565b816005036200038c57507f02efd44c63015ff1385344e0624867775486d05e6eb1290a24976964a598003b919050565b81600603620003bc57507fc4dec5845d407ce2ac2e6824bb7857c4b138f819e5789d5d11e812db10c846cd919050565b81600703620003ec57507f5fbe3f20c23f3bd6ac347917fb0903433e0b9a48373412348240a5f919bfde19919050565b816008036200041c57507f92d1b07e56b3da96b7917778cb657f2c513eaeeb4d1579a73b5ea316f25b7289919050565b816009036200044c57507fa08add5656d6d3d0827ef909f7647981eac42aa1f51970a752f130f718f6d76a919050565b81600a036200047c57507f1704c5f297590d8ec62776b0714f4f3f2234bae0524035342b0da8b8988ebd79919050565b81600b03620004ac57507fc5ae2bd47379c2c6d1189cfc3d057948dc6054caf845fcacd8f7affe94b11944919050565b81600c03620004dc57507f12a161d6d5561062f387d91ad9f0f8966c0956afdb9e8325458b9e5057b82bdb919050565b81600d036200050c57507f4ade524ba596de20bbe94507a761c45251ae7a27857ceb4287d9018525b99bc5919050565b81600e036200053c57507f38287ad69151fa833bf4bf8b8eb6ffb39400a38f1a7e53b473f639c8c60fd5e4919050565b81600f036200056c57507f57f2ade7d711707e785451f2aba6c95872c7fe03153a98b7327b4024e8068fa3919050565b816010036200059c57507fb1982e0d1b0de46a88d8b17941472e41a86d3ff64571ed8e0ca72d58633547fc919050565b81601103620005cc57507fb7c60f8670af15eb32b4ee36727179bc085a3dde03d5f9a1486664ba576b30a6919050565b81601203620005fc57507f5ff905c5c659a926b132ef3665a3de5d5a859c1d479e68851085bfc0348c5331919050565b816013036200062c57507fb4dfa78b912e98c9f7eb42d71eb537a02bf3173d44a2eb887a48b3972072dd8e919050565b816014036200065c57507f60919a16a2eb8b91cfb8ba1e5b4c155a76a14c217b5403edbd563f34e508ecdc919050565b60405162461bcd60e51b815260206004820152601360248201527f496e646578206f7574206f6620626f756e6473000000000000000000000000006044820152606401620000c6565b919050565b80516001600160a01b0381168114620006a5575f80fd5b5f805f8060808587031215620006d5575f80fd5b620006e085620006aa565b9350620006f060208601620006aa565b925060408501519150606085015163ffffffff8116811462000710575f80fd5b939692955090935050565b61216a80620007295f395ff3fe6080604052600436106101c8575f3560e01c806390eeb02b116100f2578063c2eeeebd11610092578063e993d00b11610062578063e993d00b146105cd578063f178e47c146105ec578063f18d20be14610617578063fc7e9c6f1461061f575f80fd5b8063c2eeeebd14610546578063cd87a3b41461056c578063e5285dcc14610580578063e8295588146105ae575f80fd5b8063a867a5ef116100cd578063a867a5ef146104c1578063b214faa5146104e0578063ba70f757146104f3578063c2b40ae41461051b575f80fd5b806390eeb02b1461044e5780639ec441541461046a5780639fa12d0b14610495575f80fd5b806338bf282e116101685780635032d4f1116101385780635032d4f1146103cd5780636d9833e3146103ec578063839df9451461040b5780638bca6d1614610439575f80fd5b806338bf282e1461032a5780633ed4eae51461037e5780634ecf518b1461039d57806350241a3f146103b8575f80fd5b80632997e86b116101a35780632997e86b146102655780632b7ac3f3146102a35780632c0ee3c4146102da5780633591d78d146102fc575f80fd5b8063102b72e7146101d3578063164ddd01146102085780632662721014610239575f80fd5b366101cf57005b5f80fd5b3480156101de575f80fd5b506101f26101ed366004611b88565b610642565b6040516101ff9190611bff565b60405180910390f35b348015610213575f80fd5b50600c546102249063ffffffff1681565b60405163ffffffff90911681526020016101ff565b348015610244575f80fd5b50610258610253366004611c11565b610767565b6040516101ff9190611c87565b348015610270575f80fd5b5061029361027f366004611c99565b60086020525f908152604090205460ff1681565b60405190151581526020016101ff565b3480156102ae575f80fd5b506007546102c2906001600160a01b031681565b6040516001600160a01b0390911681526020016101ff565b3480156102e5575f80fd5b506102ee610885565b6040516101ff929190611cb0565b348015610307575f80fd5b50610293610316366004611c99565b600a6020525f908152604090205460ff1681565b348015610335575f80fd5b50610370610344366004611cdd565b604080516020808201949094528082019290925280518083038201815260609092019052805191012090565b6040519081526020016101ff565b348015610389575f80fd5b50610370610398366004611c99565b6109ce565b3480156103a8575f80fd5b505f546102249063ffffffff1681565b6103cb6103c6366004611cfd565b610a37565b005b3480156103d8575f80fd5b506103706103e7366004611c99565b610e81565b3480156103f7575f80fd5b50610293610406366004611c99565b610ee4565b348015610416575f80fd5b50610293610425366004611c99565b60096020525f908152604090205460ff1681565b348015610444575f80fd5b5061037060065481565b348015610459575f80fd5b506004546102249063ffffffff1681565b348015610475575f80fd5b50610370610484366004611c99565b60016020525f908152604090205481565b3480156104a0575f80fd5b506104b46104af366004611d96565b610f5d565b6040516101ff9190611e05565b3480156104cc575f80fd5b50600d546102c2906001600160a01b031681565b6103cb6104ee366004611c99565b611017565b3480156104fe575f80fd5b5060045463ffffffff165f90815260036020526040902054610370565b348015610526575f80fd5b50610370610535366004611c99565b60036020525f908152604090205481565b348015610551575f80fd5b50600c546102c290600160201b90046001600160a01b031681565b348015610577575f80fd5b50610224601e81565b34801561058b575f80fd5b5061029361059a366004611c99565b5f9081526008602052604090205460ff1690565b3480156105b9575f80fd5b506103706105c8366004611c99565b611101565b3480156105d8575f80fd5b506102936105e7366004611c99565b61151a565b3480156105f7575f80fd5b50610370610606366004611c99565b60026020525f908152604090205481565b6103cb61168c565b34801561062a575f80fd5b5060045461022490600160201b900463ffffffff1681565b6060610679604051806040016040528060148152602001733932b0b229b4b733b632a9b637ba1039b637ba1d60611b81525061174d565b61068282611790565b60408051606085811b6bffffffffffffffffffffffff19166020830152603480830186905283518084039091018152605490920192839052600d5491925f926001600160a01b0316906106d6908590611e4a565b5f60405180830381855afa9150503d805f811461070e576040519150601f19603f3d011682016040523d82523d5f602084013e610713565b606091505b5090925090508161075c5760405162461bcd60e51b815260206004820152600e60248201526d130c54d313d0510819985a5b195960921b60448201526064015b60405180910390fd5b925050505b92915050565b60408051604280825261086082019092526060915f919060208201610840803683370190505090505f5b60208110156107d7578681602081106107ac576107ac611e79565b835191901a908390839081106107c4576107c4611e79565b6020908102919091010152600101610791565b5060205b604081101561082b57856107f0602083611ea1565b6020811061080057610800611e79565b835191901a9083908390811061081857610818611e79565b60209081029190910101526001016107db565b5080516001600160a01b0385169081908390604090811061084e5761084e611e79565b602002602001018181525050835f1b8260418151811061087057610870611e79565b60209081029190910101525095945050505050565b604080516020808252610420820190925260609182915f908280820161040080368337019050506004549091505f90600160201b900463ffffffff1667ffffffffffffffff8111156108d9576108d9611e65565b604051908082528060200260200182016040528015610902578160200160208202803683370190505b5090505f5b60045463ffffffff600160201b9091048116908216101561095e5763ffffffff81165f81815260016020526040902054835190918491811061094b5761094b611e79565b6020908102919091010152600101610907565b505f5b8363ffffffff168163ffffffff1610156109c3576109848163ffffffff166109ce565b156109c3576109988163ffffffff166109ce565b838263ffffffff16815181106109b0576109b0611e79565b6020908102919091010152600101610961565b509094909350915050565b600c54604080516020810184905260019181018290525f92610a1d91600160201b9091046001600160a01b0316906060015b604051602081830303815290604052805190602001205f1c610642565b806020019051810190610a309190611eb4565b9392505050565b610a3f6117d5565b46610a49816117ff565b610a6b604051806040016040528060018152602001603160f81b81525061174d565b8062aa36a703610abd5760405162461bcd60e51b815260206004820152601d60248201527f7769746864726177616c206f6e6c7920616c6c6f776564206f6e204c320000006044820152606401610753565b5f8581526008602052604090205460ff1615610b1b5760405162461bcd60e51b815260206004820152601f60248201527f546865206e6f746520686173206265656e20616c7265616479207370656e74006044820152606401610753565b610b3e60405180604001604052806002815260200161189960f11b81525061174d565b610b4786610ee4565b610b935760405162461bcd60e51b815260206004820152601f60248201527f43616e6e6f742066696e6420796f7572206c32206d65726b6c6520726f6f74006044820152606401610753565b610bb660405180604001604052806002815260200161313360f01b81525061174d565b610bbf8761151a565b610c0b5760405162461bcd60e51b815260206004820152601f60248201527f43616e6e6f742066696e6420796f7572206c31206d65726b6c6520726f6f74006044820152606401610753565b610c2e604051806040016040528060028152602001610c4d60f21b81525061174d565b60408051602081018990529081018790525f90606001604051602081830303815290604052805190602001209050610c7e604051806040016040528060018152602001601960f91b81525061174d565b5f610c8b82888886610767565b9050610caf604051806040016040528060018152602001603360f81b81525061174d565b610cd06040518060600160405280602381526020016121126023913961174d565b610cf381604181518110610ce657610ce6611e79565b60200260200101516117ff565b600754604051633a94343960e21b81526001600160a01b039091169063ea50d0e490610d2790889088908690600401611ecb565b602060405180830381865afa158015610d42573d5f803e3d5ffd5b505050506040513d601f19601f82011682018060405250810190610d669190611f11565b610d835760405163439cc0cd60e01b815260040160405180910390fd5b610da46040518060600160405280602381526020016121126023913961174d565b5f87815260086020908152604091829020805460ff191660011790558151606081019092526023808352610ddf92916121129083013961174d565b610de886611844565b610e096040518060600160405280602381526020016121126023913961174d565b604080516001600160a01b0388168152602081018990527f0ce490531f6c8ae2f1ff174643bc8b7ed5e52987ab50dc1e8f33655d2cd8c90b910160405180910390a1610e6c6040518060600160405280602381526020016121126023913961174d565b505050610e796001600555565b505050505050565b5f610eae6040518060400160405280600b81526020016a6765744c31526f6f74203160a81b81525061174d565b600c54604080516020810185905260039181018290529091610a1d91600160201b9091046001600160a01b031690606001610a00565b5f818103610ef357505f919050565b60045463ffffffff16805b63ffffffff81165f908152600360205260409020548403610f23575060019392505050565b8063ffffffff165f03610f345750601e5b80610f3e81611f30565b9150508163ffffffff168163ffffffff1603610efe57505f9392505050565b60608167ffffffffffffffff811115610f7857610f78611e65565b604051908082528060200260200182016040528015610fa1578160200160208202803683370190505b5090505f5b8281101561101057610fde848483818110610fc357610fc3611e79565b905060200201355f9081526008602052604090205460ff1690565b15611008576001828281518110610ff757610ff7611e79565b911515602092830291909101909101525b600101610fa6565b5092915050565b61101f6117d5565b5f8181526009602052604090205460ff16156110875760405162461bcd60e51b815260206004820152602160248201527f54686520636f6d6d69746d656e7420686173206265656e207375626d697474656044820152601960fa1b6064820152608401610753565b5f611091826118e8565b5f838152600960205260409020805460ff1916600117905590506110b3611ada565b6040805163ffffffff8316815242602082015283917fa945e51eec50ab98c161376f0db4cf2aeba3ec92755fe2fcd388bdbbb80ff196910160405180910390a2506110fe6001600555565b50565b5f815f0361113057507f2fe54c60d3acabf3343a35b6eba15db4821b340f76e741e2249685ed4899af6c919050565b8160010361115f57507f4fc2fe9184a25f44ce8ddb5f32671fcae6d9c85ed710c199acef16ad16b29911919050565b8160020361118e57507f0d826a474f851c563052d929ef0daa70f658aba9ba084f51f6e3483c13c0e59a919050565b816003036111bd57507ff7761a16b5e4c0120e4c5704b910dbe18ff6162a9668ed1c2c4efde7c4f15806919050565b816004036111ec57507fce9ce09a0ab259d6d14ca3dcd74e6c6b9e7d9074bff66973d4c57ccdffdb2a82919050565b8160050361121b57507f02efd44c63015ff1385344e0624867775486d05e6eb1290a24976964a598003b919050565b8160060361124a57507fc4dec5845d407ce2ac2e6824bb7857c4b138f819e5789d5d11e812db10c846cd919050565b8160070361127957507f5fbe3f20c23f3bd6ac347917fb0903433e0b9a48373412348240a5f919bfde19919050565b816008036112a857507f92d1b07e56b3da96b7917778cb657f2c513eaeeb4d1579a73b5ea316f25b7289919050565b816009036112d757507fa08add5656d6d3d0827ef909f7647981eac42aa1f51970a752f130f718f6d76a919050565b81600a0361130657507f1704c5f297590d8ec62776b0714f4f3f2234bae0524035342b0da8b8988ebd79919050565b81600b0361133557507fc5ae2bd47379c2c6d1189cfc3d057948dc6054caf845fcacd8f7affe94b11944919050565b81600c0361136457507f12a161d6d5561062f387d91ad9f0f8966c0956afdb9e8325458b9e5057b82bdb919050565b81600d0361139357507f4ade524ba596de20bbe94507a761c45251ae7a27857ceb4287d9018525b99bc5919050565b81600e036113c257507f38287ad69151fa833bf4bf8b8eb6ffb39400a38f1a7e53b473f639c8c60fd5e4919050565b81600f036113f157507f57f2ade7d711707e785451f2aba6c95872c7fe03153a98b7327b4024e8068fa3919050565b8160100361142057507fb1982e0d1b0de46a88d8b17941472e41a86d3ff64571ed8e0ca72d58633547fc919050565b8160110361144f57507fb7c60f8670af15eb32b4ee36727179bc085a3dde03d5f9a1486664ba576b30a6919050565b8160120361147e57507f5ff905c5c659a926b132ef3665a3de5d5a859c1d479e68851085bfc0348c5331919050565b816013036114ad57507fb4dfa78b912e98c9f7eb42d71eb537a02bf3173d44a2eb887a48b3972072dd8e919050565b816014036114dc57507f60919a16a2eb8b91cfb8ba1e5b4c155a76a14c217b5403edbd563f34e508ecdc919050565b60405162461bcd60e51b8152602060048201526013602482015272496e646578206f7574206f6620626f756e647360681b6044820152606401610753565b5f600382820361152c57505f92915050565b61155c6040518060400160405280600f81526020016e69734b6e6f776e4c31526f6f74203160881b81525061174d565b600c545f9061157b90600160201b90046001600160a01b031683610642565b80602001905181019061158e9190611f4e565b905061159f8163ffffffff16611790565b6115cf6040518060400160405280600f81526020016e34b9a5b737bbb72618a937b7ba101960891b81525061174d565b805b6116016040518060400160405280600f81526020016e69734b6e6f776e4c31526f6f74203360881b81525061174d565b6116108163ffffffff16610e81565b850361162157506001949350505050565b8063ffffffff165f036116325750601e5b8061163c81611f30565b9150508163ffffffff168163ffffffff16036115d1576116826040518060400160405280600f81526020016e69734b6e6f776e4c31526f6f74203560881b81525061174d565b505f949350505050565b6116946117d5565b60405173be34cc4cebf526887ec2c0035463dd26b3e7fea4905f90829047908381818185875af1925050503d805f81146116e9576040519150601f19603f3d011682016040523d82523d5f602084013e6116ee565b606091505b505090508061173f5760405162461bcd60e51b815260206004820181905260248201527f7061796d656e7420746f2061646d696e20646964206e6f7420676f20746872756044820152606401610753565b505061174b6001600555565b565b6110fe816040516024016117619190611bff565b60408051601f198184030181529190526020810180516001600160e01b031663104c13eb60e21b179052611b51565b6110fe816040516024016117a691815260200190565b60408051601f198184030181529190526020810180516001600160e01b031663f82c50f160e01b179052611b51565b6002600554036117f857604051633ee5aeb560e01b815260040160405180910390fd5b6002600555565b6110fe8160405160240161181591815260200190565b60408051601f198184030181529190526020810180516001600160e01b03166327b7cf8560e01b179052611b51565b34156118b05760405162461bcd60e51b815260206004820152603560248201527f4d6573736167652076616c756520697320737570706f73656420746f206265206044820152747a65726f20666f722045544820696e7374616e636560581b6064820152608401610753565b6006546040516001600160a01b0383169180156108fc02915f818181858888f193505050501580156118e4573d5f803e3d5ffd5b5050565b6004545f8054909163ffffffff600160201b90910481169161190c91166002612080565b63ffffffff168163ffffffff160361197f5760405162461bcd60e51b815260206004820152603060248201527f4d65726b6c6520747265652069732066756c6c2e204e6f206d6f7265206c656160448201526f1d995cc818d85b88189948185919195960821b6064820152608401610753565b80835f80805b5f5463ffffffff9081169082161015611a39576119a36002866120b0565b63ffffffff165f036119df578392506119c18163ffffffff16611101565b63ffffffff82165f90815260026020526040902085905591506119fa565b63ffffffff81165f9081526002602052604090205492508391505b604080516020808201869052818301859052825180830384018152606090920190925280519101209350611a2f6002866120d2565b9450600101611985565b506004545f90601e90611a539063ffffffff1660016120f4565b611a5d91906120b0565b6004805463ffffffff191663ffffffff8381169182179092555f908152600360209081526040808320899055928a1682526001908190529190208a9055909150611aa89087906120f4565b6004805463ffffffff92909216600160201b0267ffffffff000000001990921691909117905550939695505050505050565b600654341461174b5760405162461bcd60e51b815260206004820152603860248201527f506c656173652073656e6420606d697844656e6f6d696e6174696f6e6020455460448201527f4820616c6f6e672077697468207472616e73616374696f6e00000000000000006064820152608401610753565b6110fe815f6a636f6e736f6c652e6c6f6790505f80835160208501845afa505050565b6001600160a01b03811681146110fe575f80fd5b5f8060408385031215611b99575f80fd5b8235611ba481611b74565b946020939093013593505050565b5f5b83811015611bcc578181015183820152602001611bb4565b50505f910152565b5f8151808452611beb816020860160208601611bb2565b601f01601f19169290920160200192915050565b602081525f610a306020830184611bd4565b5f805f8060808587031215611c24575f80fd5b84359350602085013592506040850135611c3d81611b74565b9396929550929360600135925050565b5f815180845260208085019450602084015f5b83811015611c7c57815187529582019590820190600101611c60565b509495945050505050565b602081525f610a306020830184611c4d565b5f60208284031215611ca9575f80fd5b5035919050565b604081525f611cc26040830185611c4d565b8281036020840152611cd48185611c4d565b95945050505050565b5f8060408385031215611cee575f80fd5b50508035926020909101359150565b5f805f805f8060a08789031215611d12575f80fd5b8635955060208701359450604087013593506060870135611d3281611b74565b9250608087013567ffffffffffffffff80821115611d4e575f80fd5b818901915089601f830112611d61575f80fd5b813581811115611d6f575f80fd5b8a6020828501011115611d80575f80fd5b6020830194508093505050509295509295509295565b5f8060208385031215611da7575f80fd5b823567ffffffffffffffff80821115611dbe575f80fd5b818501915085601f830112611dd1575f80fd5b813581811115611ddf575f80fd5b8660208260051b8501011115611df3575f80fd5b60209290920196919550909350505050565b602080825282518282018190525f9190848201906040850190845b81811015611e3e578351151583529284019291840191600101611e20565b50909695505050505050565b5f8251611e5b818460208701611bb2565b9190910192915050565b634e487b7160e01b5f52604160045260245ffd5b634e487b7160e01b5f52603260045260245ffd5b634e487b7160e01b5f52601160045260245ffd5b8181038181111561076157610761611e8d565b5f60208284031215611ec4575f80fd5b5051919050565b60408152826040820152828460608301375f606084830101525f601f19601f85011682016060838203016020840152611f076060820185611c4d565b9695505050505050565b5f60208284031215611f21575f80fd5b81518015158114610a30575f80fd5b5f63ffffffff821680611f4557611f45611e8d565b5f190192915050565b5f60208284031215611f5e575f80fd5b815163ffffffff81168114610a30575f80fd5b600181815b80851115611fae578163ffffffff04821115611f9457611f94611e8d565b80851615611fa157918102915b93841c9390800290611f76565b509250929050565b5f82611fc457506001610761565b81611fd057505f610761565b8160018114611fe65760028114611ff057612021565b6001915050610761565b60ff84111561200157612001611e8d565b6001841b915063ffffffff82111561201b5761201b611e8d565b50610761565b5060208310610133831016604e8410600b8410161715612058575081810a63ffffffff81111561205357612053611e8d565b610761565b6120628383611f71565b8063ffffffff0482111561207857612078611e8d565b029392505050565b5f63ffffffff612094818516828516611fb6565b949350505050565b634e487b7160e01b5f52601260045260245ffd5b5f63ffffffff808416806120c6576120c661209c565b92169190910692915050565b5f63ffffffff808416806120e8576120e861209c565b92169190910492915050565b63ffffffff81811683821601908082111561101057611010611e8d56fe636861696e496420696e20666f726d6174746564207075626c696320696e707574733aa2646970667358221220e9cbecd8378a12b027e660c9d4c7eb4774f9ae7e332839df8f5a48f6b7a29f9064736f6c63430008170033","opcodes":"PUSH1 0x80 PUSH1 0x40 MSTORE PUSH1 0x4 DUP1 SLOAD PUSH1 0x1 PUSH1 0x1 PUSH1 0x40 SHL SUB NOT AND SWAP1 SSTORE PUSH1 0xC DUP1 SLOAD PUSH4 0xFFFFFFFF NOT AND SWAP1 SSTORE PUSH1 0xD DUP1 SLOAD PUSH1 0x1 PUSH1 0x1 PUSH1 0xA0 SHL SUB NOT AND PUSH2 0x101 OR SWAP1 SSTORE CALLVALUE DUP1 ISZERO PUSH3 0x41 JUMPI PUSH0 DUP1 REVERT JUMPDEST POP PUSH1 0x40 MLOAD PUSH3 0x2893 CODESIZE SUB DUP1 PUSH3 0x2893 DUP4 CODECOPY DUP2 ADD PUSH1 0x40 DUP2 SWAP1 MSTORE PUSH3 0x64 SWAP2 PUSH3 0x6C1 JUMP JUMPDEST DUP3 DUP3 DUP3 DUP1 PUSH0 DUP2 PUSH4 0xFFFFFFFF AND GT PUSH3 0xCF JUMPI PUSH1 0x40 MLOAD PUSH3 0x461BCD PUSH1 0xE5 SHL DUP2 MSTORE PUSH1 0x20 PUSH1 0x4 DUP3 ADD MSTORE PUSH1 0x23 PUSH1 0x24 DUP3 ADD MSTORE PUSH32 0x5F6C6576656C732073686F756C642062652067726561746572207468616E207A PUSH1 0x44 DUP3 ADD MSTORE PUSH3 0x65726F PUSH1 0xE8 SHL PUSH1 0x64 DUP3 ADD MSTORE PUSH1 0x84 ADD JUMPDEST PUSH1 0x40 MLOAD DUP1 SWAP2 SUB SWAP1 REVERT JUMPDEST PUSH1 0x14 DUP2 PUSH4 0xFFFFFFFF AND LT PUSH3 0x127 JUMPI PUSH1 0x40 MLOAD PUSH3 0x461BCD PUSH1 0xE5 SHL DUP2 MSTORE PUSH1 0x20 PUSH1 0x4 DUP3 ADD MSTORE PUSH1 0x1E PUSH1 0x24 DUP3 ADD MSTORE PUSH32 0x5F6C6576656C732073686F756C64206265206C657373207468616E2032300000 PUSH1 0x44 DUP3 ADD MSTORE PUSH1 0x64 ADD PUSH3 0xC6 JUMP JUMPDEST PUSH0 DUP1 SLOAD PUSH4 0xFFFFFFFF NOT AND PUSH4 0xFFFFFFFF DUP4 AND OR DUP2 SSTORE JUMPDEST DUP2 PUSH4 0xFFFFFFFF AND DUP2 PUSH4 0xFFFFFFFF AND LT ISZERO PUSH3 0x180 JUMPI PUSH3 0x162 PUSH4 0xFFFFFFFF DUP3 AND PUSH3 0x26C JUMP JUMPDEST PUSH4 0xFFFFFFFF DUP3 AND PUSH0 SWAP1 DUP2 MSTORE PUSH1 0x2 PUSH1 0x20 MSTORE PUSH1 0x40 SWAP1 KECCAK256 SSTORE PUSH1 0x1 ADD PUSH3 0x13C JUMP JUMPDEST POP PUSH3 0x192 PUSH4 0xFFFFFFFF DUP3 AND PUSH3 0x26C JUMP JUMPDEST PUSH0 DUP1 MSTORE PUSH1 0x3 PUSH1 0x20 MSTORE PUSH32 0x3617319A054D772F909F7C479A2CEBE5066E836A939412E32403C99029B92EFF SSTORE POP PUSH1 0x1 PUSH1 0x5 SSTORE DUP2 PUSH3 0x21F JUMPI PUSH1 0x40 MLOAD PUSH3 0x461BCD PUSH1 0xE5 SHL DUP2 MSTORE PUSH1 0x20 PUSH1 0x4 DUP3 ADD MSTORE PUSH1 0x25 PUSH1 0x24 DUP3 ADD MSTORE PUSH32 0x64656E6F6D696E6174696F6E2073686F756C6420626520677265617465722074 PUSH1 0x44 DUP3 ADD MSTORE PUSH5 0x68616E203 PUSH1 0xDC SHL PUSH1 0x64 DUP3 ADD MSTORE PUSH1 0x84 ADD PUSH3 0xC6 JUMP JUMPDEST POP PUSH1 0x7 DUP1 SLOAD PUSH1 0x1 PUSH1 0x1 PUSH1 0xA0 SHL SUB NOT AND PUSH1 0x1 PUSH1 0x1 PUSH1 0xA0 SHL SUB SWAP4 DUP5 AND OR SWAP1 SSTORE PUSH1 0x6 SSTORE PUSH1 0xC DUP1 SLOAD PUSH1 0x1 PUSH1 0x20 SHL PUSH1 0x1 PUSH1 0xC0 SHL SUB NOT AND PUSH5 0x100000000 SWAP7 SWAP1 SWAP3 AND SWAP6 SWAP1 SWAP6 MUL OR SWAP1 SWAP4 SSTORE POP PUSH3 0x71B SWAP2 POP POP JUMP JUMPDEST PUSH0 DUP2 PUSH0 SUB PUSH3 0x29C JUMPI POP PUSH32 0x2FE54C60D3ACABF3343A35B6EBA15DB4821B340F76E741E2249685ED4899AF6C SWAP2 SWAP1 POP JUMP JUMPDEST DUP2 PUSH1 0x1 SUB PUSH3 0x2CC JUMPI POP PUSH32 0x4FC2FE9184A25F44CE8DDB5F32671FCAE6D9C85ED710C199ACEF16AD16B29911 SWAP2 SWAP1 POP JUMP JUMPDEST DUP2 PUSH1 0x2 SUB PUSH3 0x2FC JUMPI POP PUSH32 0xD826A474F851C563052D929EF0DAA70F658ABA9BA084F51F6E3483C13C0E59A SWAP2 SWAP1 POP JUMP JUMPDEST DUP2 PUSH1 0x3 SUB PUSH3 0x32C JUMPI POP PUSH32 0xF7761A16B5E4C0120E4C5704B910DBE18FF6162A9668ED1C2C4EFDE7C4F15806 SWAP2 SWAP1 POP JUMP JUMPDEST DUP2 PUSH1 0x4 SUB PUSH3 0x35C JUMPI POP PUSH32 0xCE9CE09A0AB259D6D14CA3DCD74E6C6B9E7D9074BFF66973D4C57CCDFFDB2A82 SWAP2 SWAP1 POP JUMP JUMPDEST DUP2 PUSH1 0x5 SUB PUSH3 0x38C JUMPI POP PUSH32 0x2EFD44C63015FF1385344E0624867775486D05E6EB1290A24976964A598003B SWAP2 SWAP1 POP JUMP JUMPDEST DUP2 PUSH1 0x6 SUB PUSH3 0x3BC JUMPI POP PUSH32 0xC4DEC5845D407CE2AC2E6824BB7857C4B138F819E5789D5D11E812DB10C846CD SWAP2 SWAP1 POP JUMP JUMPDEST DUP2 PUSH1 0x7 SUB PUSH3 0x3EC JUMPI POP PUSH32 0x5FBE3F20C23F3BD6AC347917FB0903433E0B9A48373412348240A5F919BFDE19 SWAP2 SWAP1 POP JUMP JUMPDEST DUP2 PUSH1 0x8 SUB PUSH3 0x41C JUMPI POP PUSH32 0x92D1B07E56B3DA96B7917778CB657F2C513EAEEB4D1579A73B5EA316F25B7289 SWAP2 SWAP1 POP JUMP JUMPDEST DUP2 PUSH1 0x9 SUB PUSH3 0x44C JUMPI POP PUSH32 0xA08ADD5656D6D3D0827EF909F7647981EAC42AA1F51970A752F130F718F6D76A SWAP2 SWAP1 POP JUMP JUMPDEST DUP2 PUSH1 0xA SUB PUSH3 0x47C JUMPI POP PUSH32 0x1704C5F297590D8EC62776B0714F4F3F2234BAE0524035342B0DA8B8988EBD79 SWAP2 SWAP1 POP JUMP JUMPDEST DUP2 PUSH1 0xB SUB PUSH3 0x4AC JUMPI POP PUSH32 0xC5AE2BD47379C2C6D1189CFC3D057948DC6054CAF845FCACD8F7AFFE94B11944 SWAP2 SWAP1 POP JUMP JUMPDEST DUP2 PUSH1 0xC SUB PUSH3 0x4DC JUMPI POP PUSH32 0x12A161D6D5561062F387D91AD9F0F8966C0956AFDB9E8325458B9E5057B82BDB SWAP2 SWAP1 POP JUMP JUMPDEST DUP2 PUSH1 0xD SUB PUSH3 0x50C JUMPI POP PUSH32 0x4ADE524BA596DE20BBE94507A761C45251AE7A27857CEB4287D9018525B99BC5 SWAP2 SWAP1 POP JUMP JUMPDEST DUP2 PUSH1 0xE SUB PUSH3 0x53C JUMPI POP PUSH32 0x38287AD69151FA833BF4BF8B8EB6FFB39400A38F1A7E53B473F639C8C60FD5E4 SWAP2 SWAP1 POP JUMP JUMPDEST DUP2 PUSH1 0xF SUB PUSH3 0x56C JUMPI POP PUSH32 0x57F2ADE7D711707E785451F2ABA6C95872C7FE03153A98B7327B4024E8068FA3 SWAP2 SWAP1 POP JUMP JUMPDEST DUP2 PUSH1 0x10 SUB PUSH3 0x59C JUMPI POP PUSH32 0xB1982E0D1B0DE46A88D8B17941472E41A86D3FF64571ED8E0CA72D58633547FC SWAP2 SWAP1 POP JUMP JUMPDEST DUP2 PUSH1 0x11 SUB PUSH3 0x5CC JUMPI POP PUSH32 0xB7C60F8670AF15EB32B4EE36727179BC085A3DDE03D5F9A1486664BA576B30A6 SWAP2 SWAP1 POP JUMP JUMPDEST DUP2 PUSH1 0x12 SUB PUSH3 0x5FC JUMPI POP PUSH32 0x5FF905C5C659A926B132EF3665A3DE5D5A859C1D479E68851085BFC0348C5331 SWAP2 SWAP1 POP JUMP JUMPDEST DUP2 PUSH1 0x13 SUB PUSH3 0x62C JUMPI POP PUSH32 0xB4DFA78B912E98C9F7EB42D71EB537A02BF3173D44A2EB887A48B3972072DD8E SWAP2 SWAP1 POP JUMP JUMPDEST DUP2 PUSH1 0x14 SUB PUSH3 0x65C JUMPI POP PUSH32 0x60919A16A2EB8B91CFB8BA1E5B4C155A76A14C217B5403EDBD563F34E508ECDC SWAP2 SWAP1 POP JUMP JUMPDEST PUSH1 0x40 MLOAD PUSH3 0x461BCD PUSH1 0xE5 SHL DUP2 MSTORE PUSH1 0x20 PUSH1 0x4 DUP3 ADD MSTORE PUSH1 0x13 PUSH1 0x24 DUP3 ADD MSTORE PUSH32 0x496E646578206F7574206F6620626F756E647300000000000000000000000000 PUSH1 0x44 DUP3 ADD MSTORE PUSH1 0x64 ADD PUSH3 0xC6 JUMP JUMPDEST SWAP2 SWAP1 POP JUMP JUMPDEST DUP1 MLOAD PUSH1 0x1 PUSH1 0x1 PUSH1 0xA0 SHL SUB DUP2 AND DUP2 EQ PUSH3 0x6A5 JUMPI PUSH0 DUP1 REVERT JUMPDEST PUSH0 DUP1 PUSH0 DUP1 PUSH1 0x80 DUP6 DUP8 SUB SLT ISZERO PUSH3 0x6D5 JUMPI PUSH0 DUP1 REVERT JUMPDEST PUSH3 0x6E0 DUP6 PUSH3 0x6AA JUMP JUMPDEST SWAP4 POP PUSH3 0x6F0 PUSH1 0x20 DUP7 ADD PUSH3 0x6AA JUMP JUMPDEST SWAP3 POP PUSH1 0x40 DUP6 ADD MLOAD SWAP2 POP PUSH1 0x60 DUP6 ADD MLOAD PUSH4 0xFFFFFFFF DUP2 AND DUP2 EQ PUSH3 0x710 JUMPI PUSH0 DUP1 REVERT JUMPDEST SWAP4 SWAP7 SWAP3 SWAP6 POP SWAP1 SWAP4 POP POP JUMP JUMPDEST PUSH2 0x216A DUP1 PUSH3 0x729 PUSH0 CODECOPY PUSH0 RETURN INVALID PUSH1 0x80 PUSH1 0x40 MSTORE PUSH1 0x4 CALLDATASIZE LT PUSH2 0x1C8 JUMPI PUSH0 CALLDATALOAD PUSH1 0xE0 SHR DUP1 PUSH4 0x90EEB02B GT PUSH2 0xF2 JUMPI DUP1 PUSH4 0xC2EEEEBD GT PUSH2 0x92 JUMPI DUP1 PUSH4 0xE993D00B GT PUSH2 0x62 JUMPI DUP1 PUSH4 0xE993D00B EQ PUSH2 0x5CD JUMPI DUP1 PUSH4 0xF178E47C EQ PUSH2 0x5EC JUMPI DUP1 PUSH4 0xF18D20BE EQ PUSH2 0x617 JUMPI DUP1 PUSH4 0xFC7E9C6F EQ PUSH2 0x61F JUMPI PUSH0 DUP1 REVERT JUMPDEST DUP1 PUSH4 0xC2EEEEBD EQ PUSH2 0x546 JUMPI DUP1 PUSH4 0xCD87A3B4 EQ PUSH2 0x56C JUMPI DUP1 PUSH4 0xE5285DCC EQ PUSH2 0x580 JUMPI DUP1 PUSH4 0xE8295588 EQ PUSH2 0x5AE JUMPI PUSH0 DUP1 REVERT JUMPDEST DUP1 PUSH4 0xA867A5EF GT PUSH2 0xCD JUMPI DUP1 PUSH4 0xA867A5EF EQ PUSH2 0x4C1 JUMPI DUP1 PUSH4 0xB214FAA5 EQ PUSH2 0x4E0 JUMPI DUP1 PUSH4 0xBA70F757 EQ PUSH2 0x4F3 JUMPI DUP1 PUSH4 0xC2B40AE4 EQ PUSH2 0x51B JUMPI PUSH0 DUP1 REVERT JUMPDEST DUP1 PUSH4 0x90EEB02B EQ PUSH2 0x44E JUMPI DUP1 PUSH4 0x9EC44154 EQ PUSH2 0x46A JUMPI DUP1 PUSH4 0x9FA12D0B EQ PUSH2 0x495 JUMPI PUSH0 DUP1 REVERT JUMPDEST DUP1 PUSH4 0x38BF282E GT PUSH2 0x168 JUMPI DUP1 PUSH4 0x5032D4F1 GT PUSH2 0x138 JUMPI DUP1 PUSH4 0x5032D4F1 EQ PUSH2 0x3CD JUMPI DUP1 PUSH4 0x6D9833E3 EQ PUSH2 0x3EC JUMPI DUP1 PUSH4 0x839DF945 EQ PUSH2 0x40B JUMPI DUP1 PUSH4 0x8BCA6D16 EQ PUSH2 0x439 JUMPI PUSH0 DUP1 REVERT JUMPDEST DUP1 PUSH4 0x38BF282E EQ PUSH2 0x32A JUMPI DUP1 PUSH4 0x3ED4EAE5 EQ PUSH2 0x37E JUMPI DUP1 PUSH4 0x4ECF518B EQ PUSH2 0x39D JUMPI DUP1 PUSH4 0x50241A3F EQ PUSH2 0x3B8 JUMPI PUSH0 DUP1 REVERT JUMPDEST DUP1 PUSH4 0x2997E86B GT PUSH2 0x1A3 JUMPI DUP1 PUSH4 0x2997E86B EQ PUSH2 0x265 JUMPI DUP1 PUSH4 0x2B7AC3F3 EQ PUSH2 0x2A3 JUMPI DUP1 PUSH4 0x2C0EE3C4 EQ PUSH2 0x2DA JUMPI DUP1 PUSH4 0x3591D78D EQ PUSH2 0x2FC JUMPI PUSH0 DUP1 REVERT JUMPDEST DUP1 PUSH4 0x102B72E7 EQ PUSH2 0x1D3 JUMPI DUP1 PUSH4 0x164DDD01 EQ PUSH2 0x208 JUMPI DUP1 PUSH4 0x26627210 EQ PUSH2 0x239 JUMPI PUSH0 DUP1 REVERT JUMPDEST CALLDATASIZE PUSH2 0x1CF JUMPI STOP JUMPDEST PUSH0 DUP1 REVERT JUMPDEST CALLVALUE DUP1 ISZERO PUSH2 0x1DE JUMPI PUSH0 DUP1 REVERT JUMPDEST POP PUSH2 0x1F2 PUSH2 0x1ED CALLDATASIZE PUSH1 0x4 PUSH2 0x1B88 JUMP JUMPDEST PUSH2 0x642 JUMP JUMPDEST PUSH1 0x40 MLOAD PUSH2 0x1FF SWAP2 SWAP1 PUSH2 0x1BFF JUMP JUMPDEST PUSH1 0x40 MLOAD DUP1 SWAP2 SUB SWAP1 RETURN JUMPDEST CALLVALUE DUP1 ISZERO PUSH2 0x213 JUMPI PUSH0 DUP1 REVERT JUMPDEST POP PUSH1 0xC SLOAD PUSH2 0x224 SWAP1 PUSH4 0xFFFFFFFF AND DUP2 JUMP JUMPDEST PUSH1 0x40 MLOAD PUSH4 0xFFFFFFFF SWAP1 SWAP2 AND DUP2 MSTORE PUSH1 0x20 ADD PUSH2 0x1FF JUMP JUMPDEST CALLVALUE DUP1 ISZERO PUSH2 0x244 JUMPI PUSH0 DUP1 REVERT JUMPDEST POP PUSH2 0x258 PUSH2 0x253 CALLDATASIZE PUSH1 0x4 PUSH2 0x1C11 JUMP JUMPDEST PUSH2 0x767 JUMP JUMPDEST PUSH1 0x40 MLOAD PUSH2 0x1FF SWAP2 SWAP1 PUSH2 0x1C87 JUMP JUMPDEST CALLVALUE DUP1 ISZERO PUSH2 0x270 JUMPI PUSH0 DUP1 REVERT JUMPDEST POP PUSH2 0x293 PUSH2 0x27F CALLDATASIZE PUSH1 0x4 PUSH2 0x1C99 JUMP JUMPDEST PUSH1 0x8 PUSH1 0x20 MSTORE PUSH0 SWAP1 DUP2 MSTORE PUSH1 0x40 SWAP1 KECCAK256 SLOAD PUSH1 0xFF AND DUP2 JUMP JUMPDEST PUSH1 0x40 MLOAD SWAP1 ISZERO ISZERO DUP2 MSTORE PUSH1 0x20 ADD PUSH2 0x1FF JUMP JUMPDEST CALLVALUE DUP1 ISZERO PUSH2 0x2AE JUMPI PUSH0 DUP1 REVERT JUMPDEST POP PUSH1 0x7 SLOAD PUSH2 0x2C2 SWAP1 PUSH1 0x1 PUSH1 0x1 PUSH1 0xA0 SHL SUB AND DUP2 JUMP JUMPDEST PUSH1 0x40 MLOAD PUSH1 0x1 PUSH1 0x1 PUSH1 0xA0 SHL SUB SWAP1 SWAP2 AND DUP2 MSTORE PUSH1 0x20 ADD PUSH2 0x1FF JUMP JUMPDEST CALLVALUE DUP1 ISZERO PUSH2 0x2E5 JUMPI PUSH0 DUP1 REVERT JUMPDEST POP PUSH2 0x2EE PUSH2 0x885 JUMP JUMPDEST PUSH1 0x40 MLOAD PUSH2 0x1FF SWAP3 SWAP2 SWAP1 PUSH2 0x1CB0 JUMP JUMPDEST CALLVALUE DUP1 ISZERO PUSH2 0x307 JUMPI PUSH0 DUP1 REVERT JUMPDEST POP PUSH2 0x293 PUSH2 0x316 CALLDATASIZE PUSH1 0x4 PUSH2 0x1C99 JUMP JUMPDEST PUSH1 0xA PUSH1 0x20 MSTORE PUSH0 SWAP1 DUP2 MSTORE PUSH1 0x40 SWAP1 KECCAK256 SLOAD PUSH1 0xFF AND DUP2 JUMP JUMPDEST CALLVALUE DUP1 ISZERO PUSH2 0x335 JUMPI PUSH0 DUP1 REVERT JUMPDEST POP PUSH2 0x370 PUSH2 0x344 CALLDATASIZE PUSH1 0x4 PUSH2 0x1CDD JUMP JUMPDEST PUSH1 0x40 DUP1 MLOAD PUSH1 0x20 DUP1 DUP3 ADD SWAP5 SWAP1 SWAP5 MSTORE DUP1 DUP3 ADD SWAP3 SWAP1 SWAP3 MSTORE DUP1 MLOAD DUP1 DUP4 SUB DUP3 ADD DUP2 MSTORE PUSH1 0x60 SWAP1 SWAP3 ADD SWAP1 MSTORE DUP1 MLOAD SWAP2 ADD KECCAK256 SWAP1 JUMP JUMPDEST PUSH1 0x40 MLOAD SWAP1 DUP2 MSTORE PUSH1 0x20 ADD PUSH2 0x1FF JUMP JUMPDEST CALLVALUE DUP1 ISZERO PUSH2 0x389 JUMPI PUSH0 DUP1 REVERT JUMPDEST POP PUSH2 0x370 PUSH2 0x398 CALLDATASIZE PUSH1 0x4 PUSH2 0x1C99 JUMP JUMPDEST PUSH2 0x9CE JUMP JUMPDEST CALLVALUE DUP1 ISZERO PUSH2 0x3A8 JUMPI PUSH0 DUP1 REVERT JUMPDEST POP PUSH0 SLOAD PUSH2 0x224 SWAP1 PUSH4 0xFFFFFFFF AND DUP2 JUMP JUMPDEST PUSH2 0x3CB PUSH2 0x3C6 CALLDATASIZE PUSH1 0x4 PUSH2 0x1CFD JUMP JUMPDEST PUSH2 0xA37 JUMP JUMPDEST STOP JUMPDEST CALLVALUE DUP1 ISZERO PUSH2 0x3D8 JUMPI PUSH0 DUP1 REVERT JUMPDEST POP PUSH2 0x370 PUSH2 0x3E7 CALLDATASIZE PUSH1 0x4 PUSH2 0x1C99 JUMP JUMPDEST PUSH2 0xE81 JUMP JUMPDEST CALLVALUE DUP1 ISZERO PUSH2 0x3F7 JUMPI PUSH0 DUP1 REVERT JUMPDEST POP PUSH2 0x293 PUSH2 0x406 CALLDATASIZE PUSH1 0x4 PUSH2 0x1C99 JUMP JUMPDEST PUSH2 0xEE4 JUMP JUMPDEST CALLVALUE DUP1 ISZERO PUSH2 0x416 JUMPI PUSH0 DUP1 REVERT JUMPDEST POP PUSH2 0x293 PUSH2 0x425 CALLDATASIZE PUSH1 0x4 PUSH2 0x1C99 JUMP JUMPDEST PUSH1 0x9 PUSH1 0x20 MSTORE PUSH0 SWAP1 DUP2 MSTORE PUSH1 0x40 SWAP1 KECCAK256 SLOAD PUSH1 0xFF AND DUP2 JUMP JUMPDEST CALLVALUE DUP1 ISZERO PUSH2 0x444 JUMPI PUSH0 DUP1 REVERT JUMPDEST POP PUSH2 0x370 PUSH1 0x6 SLOAD DUP2 JUMP JUMPDEST CALLVALUE DUP1 ISZERO PUSH2 0x459 JUMPI PUSH0 DUP1 REVERT JUMPDEST POP PUSH1 0x4 SLOAD PUSH2 0x224 SWAP1 PUSH4 0xFFFFFFFF AND DUP2 JUMP JUMPDEST CALLVALUE DUP1 ISZERO PUSH2 0x475 JUMPI PUSH0 DUP1 REVERT JUMPDEST POP PUSH2 0x370 PUSH2 0x484 CALLDATASIZE PUSH1 0x4 PUSH2 0x1C99 JUMP JUMPDEST PUSH1 0x1 PUSH1 0x20 MSTORE PUSH0 SWAP1 DUP2 MSTORE PUSH1 0x40 SWAP1 KECCAK256 SLOAD DUP2 JUMP JUMPDEST CALLVALUE DUP1 ISZERO PUSH2 0x4A0 JUMPI PUSH0 DUP1 REVERT JUMPDEST POP PUSH2 0x4B4 PUSH2 0x4AF CALLDATASIZE PUSH1 0x4 PUSH2 0x1D96 JUMP JUMPDEST PUSH2 0xF5D JUMP JUMPDEST PUSH1 0x40 MLOAD PUSH2 0x1FF SWAP2 SWAP1 PUSH2 0x1E05 JUMP JUMPDEST CALLVALUE DUP1 ISZERO PUSH2 0x4CC JUMPI PUSH0 DUP1 REVERT JUMPDEST POP PUSH1 0xD SLOAD PUSH2 0x2C2 SWAP1 PUSH1 0x1 PUSH1 0x1 PUSH1 0xA0 SHL SUB AND DUP2 JUMP JUMPDEST PUSH2 0x3CB PUSH2 0x4EE CALLDATASIZE PUSH1 0x4 PUSH2 0x1C99 JUMP JUMPDEST PUSH2 0x1017 JUMP JUMPDEST CALLVALUE DUP1 ISZERO PUSH2 0x4FE JUMPI PUSH0 DUP1 REVERT JUMPDEST POP PUSH1 0x4 SLOAD PUSH4 0xFFFFFFFF AND PUSH0 SWAP1 DUP2 MSTORE PUSH1 0x3 PUSH1 0x20 MSTORE PUSH1 0x40 SWAP1 KECCAK256 SLOAD PUSH2 0x370 JUMP JUMPDEST CALLVALUE DUP1 ISZERO PUSH2 0x526 JUMPI PUSH0 DUP1 REVERT JUMPDEST POP PUSH2 0x370 PUSH2 0x535 CALLDATASIZE PUSH1 0x4 PUSH2 0x1C99 JUMP JUMPDEST PUSH1 0x3 PUSH1 0x20 MSTORE PUSH0 SWAP1 DUP2 MSTORE PUSH1 0x40 SWAP1 KECCAK256 SLOAD DUP2 JUMP JUMPDEST CALLVALUE DUP1 ISZERO PUSH2 0x551 JUMPI PUSH0 DUP1 REVERT JUMPDEST POP PUSH1 0xC SLOAD PUSH2 0x2C2 SWAP1 PUSH1 0x1 PUSH1 0x20 SHL SWAP1 DIV PUSH1 0x1 PUSH1 0x1 PUSH1 0xA0 SHL SUB AND DUP2 JUMP JUMPDEST CALLVALUE DUP1 ISZERO PUSH2 0x577 JUMPI PUSH0 DUP1 REVERT JUMPDEST POP PUSH2 0x224 PUSH1 0x1E DUP2 JUMP JUMPDEST CALLVALUE DUP1 ISZERO PUSH2 0x58B JUMPI PUSH0 DUP1 REVERT JUMPDEST POP PUSH2 0x293 PUSH2 0x59A CALLDATASIZE PUSH1 0x4 PUSH2 0x1C99 JUMP JUMPDEST PUSH0 SWAP1 DUP2 MSTORE PUSH1 0x8 PUSH1 0x20 MSTORE PUSH1 0x40 SWAP1 KECCAK256 SLOAD PUSH1 0xFF AND SWAP1 JUMP JUMPDEST CALLVALUE DUP1 ISZERO PUSH2 0x5B9 JUMPI PUSH0 DUP1 REVERT JUMPDEST POP PUSH2 0x370 PUSH2 0x5C8 CALLDATASIZE PUSH1 0x4 PUSH2 0x1C99 JUMP JUMPDEST PUSH2 0x1101 JUMP JUMPDEST CALLVALUE DUP1 ISZERO PUSH2 0x5D8 JUMPI PUSH0 DUP1 REVERT JUMPDEST POP PUSH2 0x293 PUSH2 0x5E7 CALLDATASIZE PUSH1 0x4 PUSH2 0x1C99 JUMP JUMPDEST PUSH2 0x151A JUMP JUMPDEST CALLVALUE DUP1 ISZERO PUSH2 0x5F7 JUMPI PUSH0 DUP1 REVERT JUMPDEST POP PUSH2 0x370 PUSH2 0x606 CALLDATASIZE PUSH1 0x4 PUSH2 0x1C99 JUMP JUMPDEST PUSH1 0x2 PUSH1 0x20 MSTORE PUSH0 SWAP1 DUP2 MSTORE PUSH1 0x40 SWAP1 KECCAK256 SLOAD DUP2 JUMP JUMPDEST PUSH2 0x3CB PUSH2 0x168C JUMP JUMPDEST CALLVALUE DUP1 ISZERO PUSH2 0x62A JUMPI PUSH0 DUP1 REVERT JUMPDEST POP PUSH1 0x4 SLOAD PUSH2 0x224 SWAP1 PUSH1 0x1 PUSH1 0x20 SHL SWAP1 DIV PUSH4 0xFFFFFFFF AND DUP2 JUMP JUMPDEST PUSH1 0x60 PUSH2 0x679 PUSH1 0x40 MLOAD DUP1 PUSH1 0x40 ADD PUSH1 0x40 MSTORE DUP1 PUSH1 0x14 DUP2 MSTORE PUSH1 0x20 ADD PUSH20 0x3932B0B229B4B733B632A9B637BA1039B637BA1D PUSH1 0x61 SHL DUP2 MSTORE POP PUSH2 0x174D JUMP JUMPDEST PUSH2 0x682 DUP3 PUSH2 0x1790 JUMP JUMPDEST PUSH1 0x40 DUP1 MLOAD PUSH1 0x60 DUP6 DUP2 SHL PUSH12 0xFFFFFFFFFFFFFFFFFFFFFFFF NOT AND PUSH1 0x20 DUP4 ADD MSTORE PUSH1 0x34 DUP1 DUP4 ADD DUP7 SWAP1 MSTORE DUP4 MLOAD DUP1 DUP5 SUB SWAP1 SWAP2 ADD DUP2 MSTORE PUSH1 0x54 SWAP1 SWAP3 ADD SWAP3 DUP4 SWAP1 MSTORE PUSH1 0xD SLOAD SWAP2 SWAP3 PUSH0 SWAP3 PUSH1 0x1 PUSH1 0x1 PUSH1 0xA0 SHL SUB AND SWAP1 PUSH2 0x6D6 SWAP1 DUP6 SWAP1 PUSH2 0x1E4A JUMP JUMPDEST PUSH0 PUSH1 0x40 MLOAD DUP1 DUP4 SUB DUP2 DUP6 GAS STATICCALL SWAP2 POP POP RETURNDATASIZE DUP1 PUSH0 DUP2 EQ PUSH2 0x70E JUMPI PUSH1 0x40 MLOAD SWAP2 POP PUSH1 0x1F NOT PUSH1 0x3F RETURNDATASIZE ADD AND DUP3 ADD PUSH1 0x40 MSTORE RETURNDATASIZE DUP3 MSTORE RETURNDATASIZE PUSH0 PUSH1 0x20 DUP5 ADD RETURNDATACOPY PUSH2 0x713 JUMP JUMPDEST PUSH1 0x60 SWAP2 POP JUMPDEST POP SWAP1 SWAP3 POP SWAP1 POP DUP2 PUSH2 0x75C JUMPI PUSH1 0x40 MLOAD PUSH3 0x461BCD PUSH1 0xE5 SHL DUP2 MSTORE PUSH1 0x20 PUSH1 0x4 DUP3 ADD MSTORE PUSH1 0xE PUSH1 0x24 DUP3 ADD MSTORE PUSH14 0x130C54D313D0510819985A5B1959 PUSH1 0x92 SHL PUSH1 0x44 DUP3 ADD MSTORE PUSH1 0x64 ADD JUMPDEST PUSH1 0x40 MLOAD DUP1 SWAP2 SUB SWAP1 REVERT JUMPDEST SWAP3 POP POP POP JUMPDEST SWAP3 SWAP2 POP POP JUMP JUMPDEST PUSH1 0x40 DUP1 MLOAD PUSH1 0x42 DUP1 DUP3 MSTORE PUSH2 0x860 DUP3 ADD SWAP1 SWAP3 MSTORE PUSH1 0x60 SWAP2 PUSH0 SWAP2 SWAP1 PUSH1 0x20 DUP3 ADD PUSH2 0x840 DUP1 CALLDATASIZE DUP4 CALLDATACOPY ADD SWAP1 POP POP SWAP1 POP PUSH0 JUMPDEST PUSH1 0x20 DUP2 LT ISZERO PUSH2 0x7D7 JUMPI DUP7 DUP2 PUSH1 0x20 DUP2 LT PUSH2 0x7AC JUMPI PUSH2 0x7AC PUSH2 0x1E79 JUMP JUMPDEST DUP4 MLOAD SWAP2 SWAP1 BYTE SWAP1 DUP4 SWAP1 DUP4 SWAP1 DUP2 LT PUSH2 0x7C4 JUMPI PUSH2 0x7C4 PUSH2 0x1E79 JUMP JUMPDEST PUSH1 0x20 SWAP1 DUP2 MUL SWAP2 SWAP1 SWAP2 ADD ADD MSTORE PUSH1 0x1 ADD PUSH2 0x791 JUMP JUMPDEST POP PUSH1 0x20 JUMPDEST PUSH1 0x40 DUP2 LT ISZERO PUSH2 0x82B JUMPI DUP6 PUSH2 0x7F0 PUSH1 0x20 DUP4 PUSH2 0x1EA1 JUMP JUMPDEST PUSH1 0x20 DUP2 LT PUSH2 0x800 JUMPI PUSH2 0x800 PUSH2 0x1E79 JUMP JUMPDEST DUP4 MLOAD SWAP2 SWAP1 BYTE SWAP1 DUP4 SWAP1 DUP4 SWAP1 DUP2 LT PUSH2 0x818 JUMPI PUSH2 0x818 PUSH2 0x1E79 JUMP JUMPDEST PUSH1 0x20 SWAP1 DUP2 MUL SWAP2 SWAP1 SWAP2 ADD ADD MSTORE PUSH1 0x1 ADD PUSH2 0x7DB JUMP JUMPDEST POP DUP1 MLOAD PUSH1 0x1 PUSH1 0x1 PUSH1 0xA0 SHL SUB DUP6 AND SWAP1 DUP2 SWAP1 DUP4 SWAP1 PUSH1 0x40 SWAP1 DUP2 LT PUSH2 0x84E JUMPI PUSH2 0x84E PUSH2 0x1E79 JUMP JUMPDEST PUSH1 0x20 MUL PUSH1 0x20 ADD ADD DUP2 DUP2 MSTORE POP POP DUP4 PUSH0 SHL DUP3 PUSH1 0x41 DUP2 MLOAD DUP2 LT PUSH2 0x870 JUMPI PUSH2 0x870 PUSH2 0x1E79 JUMP JUMPDEST PUSH1 0x20 SWAP1 DUP2 MUL SWAP2 SWAP1 SWAP2 ADD ADD MSTORE POP SWAP6 SWAP5 POP POP POP POP POP JUMP JUMPDEST PUSH1 0x40 DUP1 MLOAD PUSH1 0x20 DUP1 DUP3 MSTORE PUSH2 0x420 DUP3 ADD SWAP1 SWAP3 MSTORE PUSH1 0x60 SWAP2 DUP3 SWAP2 PUSH0 SWAP1 DUP3 DUP1 DUP3 ADD PUSH2 0x400 DUP1 CALLDATASIZE DUP4 CALLDATACOPY ADD SWAP1 POP POP PUSH1 0x4 SLOAD SWAP1 SWAP2 POP PUSH0 SWAP1 PUSH1 0x1 PUSH1 0x20 SHL SWAP1 DIV PUSH4 0xFFFFFFFF AND PUSH8 0xFFFFFFFFFFFFFFFF DUP2 GT ISZERO PUSH2 0x8D9 JUMPI PUSH2 0x8D9 PUSH2 0x1E65 JUMP JUMPDEST PUSH1 0x40 MLOAD SWAP1 DUP1 DUP3 MSTORE DUP1 PUSH1 0x20 MUL PUSH1 0x20 ADD DUP3 ADD PUSH1 0x40 MSTORE DUP1 ISZERO PUSH2 0x902 JUMPI DUP2 PUSH1 0x20 ADD PUSH1 0x20 DUP3 MUL DUP1 CALLDATASIZE DUP4 CALLDATACOPY ADD SWAP1 POP JUMPDEST POP SWAP1 POP PUSH0 JUMPDEST PUSH1 0x4 SLOAD PUSH4 0xFFFFFFFF PUSH1 0x1 PUSH1 0x20 SHL SWAP1 SWAP2 DIV DUP2 AND SWAP1 DUP3 AND LT ISZERO PUSH2 0x95E JUMPI PUSH4 0xFFFFFFFF DUP2 AND PUSH0 DUP2 DUP2 MSTORE PUSH1 0x1 PUSH1 0x20 MSTORE PUSH1 0x40 SWAP1 KECCAK256 SLOAD DUP4 MLOAD SWAP1 SWAP2 DUP5 SWAP2 DUP2 LT PUSH2 0x94B JUMPI PUSH2 0x94B PUSH2 0x1E79 JUMP JUMPDEST PUSH1 0x20 SWAP1 DUP2 MUL SWAP2 SWAP1 SWAP2 ADD ADD MSTORE PUSH1 0x1 ADD PUSH2 0x907 JUMP JUMPDEST POP PUSH0 JUMPDEST DUP4 PUSH4 0xFFFFFFFF AND DUP2 PUSH4 0xFFFFFFFF AND LT ISZERO PUSH2 0x9C3 JUMPI PUSH2 0x984 DUP2 PUSH4 0xFFFFFFFF AND PUSH2 0x9CE JUMP JUMPDEST ISZERO PUSH2 0x9C3 JUMPI PUSH2 0x998 DUP2 PUSH4 0xFFFFFFFF AND PUSH2 0x9CE JUMP JUMPDEST DUP4 DUP3 PUSH4 0xFFFFFFFF AND DUP2 MLOAD DUP2 LT PUSH2 0x9B0 JUMPI PUSH2 0x9B0 PUSH2 0x1E79 JUMP JUMPDEST PUSH1 0x20 SWAP1 DUP2 MUL SWAP2 SWAP1 SWAP2 ADD ADD MSTORE PUSH1 0x1 ADD PUSH2 0x961 JUMP JUMPDEST POP SWAP1 SWAP5 SWAP1 SWAP4 POP SWAP2 POP POP JUMP JUMPDEST PUSH1 0xC SLOAD PUSH1 0x40 DUP1 MLOAD PUSH1 0x20 DUP2 ADD DUP5 SWAP1 MSTORE PUSH1 0x1 SWAP2 DUP2 ADD DUP3 SWAP1 MSTORE PUSH0 SWAP3 PUSH2 0xA1D SWAP2 PUSH1 0x1 PUSH1 0x20 SHL SWAP1 SWAP2 DIV PUSH1 0x1 PUSH1 0x1 PUSH1 0xA0 SHL SUB AND SWAP1 PUSH1 0x60 ADD JUMPDEST PUSH1 0x40 MLOAD PUSH1 0x20 DUP2 DUP4 SUB SUB DUP2 MSTORE SWAP1 PUSH1 0x40 MSTORE DUP1 MLOAD SWAP1 PUSH1 0x20 ADD KECCAK256 PUSH0 SHR PUSH2 0x642 JUMP JUMPDEST DUP1 PUSH1 0x20 ADD SWAP1 MLOAD DUP2 ADD SWAP1 PUSH2 0xA30 SWAP2 SWAP1 PUSH2 0x1EB4 JUMP JUMPDEST SWAP4 SWAP3 POP POP POP JUMP JUMPDEST PUSH2 0xA3F PUSH2 0x17D5 JUMP JUMPDEST CHAINID PUSH2 0xA49 DUP2 PUSH2 0x17FF JUMP JUMPDEST PUSH2 0xA6B PUSH1 0x40 MLOAD DUP1 PUSH1 0x40 ADD PUSH1 0x40 MSTORE DUP1 PUSH1 0x1 DUP2 MSTORE PUSH1 0x20 ADD PUSH1 0x31 PUSH1 0xF8 SHL DUP2 MSTORE POP PUSH2 0x174D JUMP JUMPDEST DUP1 PUSH3 0xAA36A7 SUB PUSH2 0xABD JUMPI PUSH1 0x40 MLOAD PUSH3 0x461BCD PUSH1 0xE5 SHL DUP2 MSTORE PUSH1 0x20 PUSH1 0x4 DUP3 ADD MSTORE PUSH1 0x1D PUSH1 0x24 DUP3 ADD MSTORE PUSH32 0x7769746864726177616C206F6E6C7920616C6C6F776564206F6E204C32000000 PUSH1 0x44 DUP3 ADD MSTORE PUSH1 0x64 ADD PUSH2 0x753 JUMP JUMPDEST PUSH0 DUP6 DUP2 MSTORE PUSH1 0x8 PUSH1 0x20 MSTORE PUSH1 0x40 SWAP1 KECCAK256 SLOAD PUSH1 0xFF AND ISZERO PUSH2 0xB1B JUMPI PUSH1 0x40 MLOAD PUSH3 0x461BCD PUSH1 0xE5 SHL DUP2 MSTORE PUSH1 0x20 PUSH1 0x4 DUP3 ADD MSTORE PUSH1 0x1F PUSH1 0x24 DUP3 ADD MSTORE PUSH32 0x546865206E6F746520686173206265656E20616C7265616479207370656E7400 PUSH1 0x44 DUP3 ADD MSTORE PUSH1 0x64 ADD PUSH2 0x753 JUMP JUMPDEST PUSH2 0xB3E PUSH1 0x40 MLOAD DUP1 PUSH1 0x40 ADD PUSH1 0x40 MSTORE DUP1 PUSH1 0x2 DUP2 MSTORE PUSH1 0x20 ADD PUSH2 0x1899 PUSH1 0xF1 SHL DUP2 MSTORE POP PUSH2 0x174D JUMP JUMPDEST PUSH2 0xB47 DUP7 PUSH2 0xEE4 JUMP JUMPDEST PUSH2 0xB93 JUMPI PUSH1 0x40 MLOAD PUSH3 0x461BCD PUSH1 0xE5 SHL DUP2 MSTORE PUSH1 0x20 PUSH1 0x4 DUP3 ADD MSTORE PUSH1 0x1F PUSH1 0x24 DUP3 ADD MSTORE PUSH32 0x43616E6E6F742066696E6420796F7572206C32206D65726B6C6520726F6F7400 PUSH1 0x44 DUP3 ADD MSTORE PUSH1 0x64 ADD PUSH2 0x753 JUMP JUMPDEST PUSH2 0xBB6 PUSH1 0x40 MLOAD DUP1 PUSH1 0x40 ADD PUSH1 0x40 MSTORE DUP1 PUSH1 0x2 DUP2 MSTORE PUSH1 0x20 ADD PUSH2 0x3133 PUSH1 0xF0 SHL DUP2 MSTORE POP PUSH2 0x174D JUMP JUMPDEST PUSH2 0xBBF DUP8 PUSH2 0x151A JUMP JUMPDEST PUSH2 0xC0B JUMPI PUSH1 0x40 MLOAD PUSH3 0x461BCD PUSH1 0xE5 SHL DUP2 MSTORE PUSH1 0x20 PUSH1 0x4 DUP3 ADD MSTORE PUSH1 0x1F PUSH1 0x24 DUP3 ADD MSTORE PUSH32 0x43616E6E6F742066696E6420796F7572206C31206D65726B6C6520726F6F7400 PUSH1 0x44 DUP3 ADD MSTORE PUSH1 0x64 ADD PUSH2 0x753 JUMP JUMPDEST PUSH2 0xC2E PUSH1 0x40 MLOAD DUP1 PUSH1 0x40 ADD PUSH1 0x40 MSTORE DUP1 PUSH1 0x2 DUP2 MSTORE PUSH1 0x20 ADD PUSH2 0xC4D PUSH1 0xF2 SHL DUP2 MSTORE POP PUSH2 0x174D JUMP JUMPDEST PUSH1 0x40 DUP1 MLOAD PUSH1 0x20 DUP2 ADD DUP10 SWAP1 MSTORE SWAP1 DUP2 ADD DUP8 SWAP1 MSTORE PUSH0 SWAP1 PUSH1 0x60 ADD PUSH1 0x40 MLOAD PUSH1 0x20 DUP2 DUP4 SUB SUB DUP2 MSTORE SWAP1 PUSH1 0x40 MSTORE DUP1 MLOAD SWAP1 PUSH1 0x20 ADD KECCAK256 SWAP1 POP PUSH2 0xC7E PUSH1 0x40 MLOAD DUP1 PUSH1 0x40 ADD PUSH1 0x40 MSTORE DUP1 PUSH1 0x1 DUP2 MSTORE PUSH1 0x20 ADD PUSH1 0x19 PUSH1 0xF9 SHL DUP2 MSTORE POP PUSH2 0x174D JUMP JUMPDEST PUSH0 PUSH2 0xC8B DUP3 DUP9 DUP9 DUP7 PUSH2 0x767 JUMP JUMPDEST SWAP1 POP PUSH2 0xCAF PUSH1 0x40 MLOAD DUP1 PUSH1 0x40 ADD PUSH1 0x40 MSTORE DUP1 PUSH1 0x1 DUP2 MSTORE PUSH1 0x20 ADD PUSH1 0x33 PUSH1 0xF8 SHL DUP2 MSTORE POP PUSH2 0x174D JUMP JUMPDEST PUSH2 0xCD0 PUSH1 0x40 MLOAD DUP1 PUSH1 0x60 ADD PUSH1 0x40 MSTORE DUP1 PUSH1 0x23 DUP2 MSTORE PUSH1 0x20 ADD PUSH2 0x2112 PUSH1 0x23 SWAP2 CODECOPY PUSH2 0x174D JUMP JUMPDEST PUSH2 0xCF3 DUP2 PUSH1 0x41 DUP2 MLOAD DUP2 LT PUSH2 0xCE6 JUMPI PUSH2 0xCE6 PUSH2 0x1E79 JUMP JUMPDEST PUSH1 0x20 MUL PUSH1 0x20 ADD ADD MLOAD PUSH2 0x17FF JUMP JUMPDEST PUSH1 0x7 SLOAD PUSH1 0x40 MLOAD PUSH4 0x3A943439 PUSH1 0xE2 SHL DUP2 MSTORE PUSH1 0x1 PUSH1 0x1 PUSH1 0xA0 SHL SUB SWAP1 SWAP2 AND SWAP1 PUSH4 0xEA50D0E4 SWAP1 PUSH2 0xD27 SWAP1 DUP9 SWAP1 DUP9 SWAP1 DUP7 SWAP1 PUSH1 0x4 ADD PUSH2 0x1ECB JUMP JUMPDEST PUSH1 0x20 PUSH1 0x40 MLOAD DUP1 DUP4 SUB DUP2 DUP7 GAS STATICCALL ISZERO DUP1 ISZERO PUSH2 0xD42 JUMPI RETURNDATASIZE PUSH0 DUP1 RETURNDATACOPY RETURNDATASIZE PUSH0 REVERT JUMPDEST POP POP POP POP PUSH1 0x40 MLOAD RETURNDATASIZE PUSH1 0x1F NOT PUSH1 0x1F DUP3 ADD AND DUP3 ADD DUP1 PUSH1 0x40 MSTORE POP DUP2 ADD SWAP1 PUSH2 0xD66 SWAP2 SWAP1 PUSH2 0x1F11 JUMP JUMPDEST PUSH2 0xD83 JUMPI PUSH1 0x40 MLOAD PUSH4 0x439CC0CD PUSH1 0xE0 SHL DUP2 MSTORE PUSH1 0x4 ADD PUSH1 0x40 MLOAD DUP1 SWAP2 SUB SWAP1 REVERT JUMPDEST PUSH2 0xDA4 PUSH1 0x40 MLOAD DUP1 PUSH1 0x60 ADD PUSH1 0x40 MSTORE DUP1 PUSH1 0x23 DUP2 MSTORE PUSH1 0x20 ADD PUSH2 0x2112 PUSH1 0x23 SWAP2 CODECOPY PUSH2 0x174D JUMP JUMPDEST PUSH0 DUP8 DUP2 MSTORE PUSH1 0x8 PUSH1 0x20 SWAP1 DUP2 MSTORE PUSH1 0x40 SWAP2 DUP3 SWAP1 KECCAK256 DUP1 SLOAD PUSH1 0xFF NOT AND PUSH1 0x1 OR SWAP1 SSTORE DUP2 MLOAD PUSH1 0x60 DUP2 ADD SWAP1 SWAP3 MSTORE PUSH1 0x23 DUP1 DUP4 MSTORE PUSH2 0xDDF SWAP3 SWAP2 PUSH2 0x2112 SWAP1 DUP4 ADD CODECOPY PUSH2 0x174D JUMP JUMPDEST PUSH2 0xDE8 DUP7 PUSH2 0x1844 JUMP JUMPDEST PUSH2 0xE09 PUSH1 0x40 MLOAD DUP1 PUSH1 0x60 ADD PUSH1 0x40 MSTORE DUP1 PUSH1 0x23 DUP2 MSTORE PUSH1 0x20 ADD PUSH2 0x2112 PUSH1 0x23 SWAP2 CODECOPY PUSH2 0x174D JUMP JUMPDEST PUSH1 0x40 DUP1 MLOAD PUSH1 0x1 PUSH1 0x1 PUSH1 0xA0 SHL SUB DUP9 AND DUP2 MSTORE PUSH1 0x20 DUP2 ADD DUP10 SWAP1 MSTORE PUSH32 0xCE490531F6C8AE2F1FF174643BC8B7ED5E52987AB50DC1E8F33655D2CD8C90B SWAP2 ADD PUSH1 0x40 MLOAD DUP1 SWAP2 SUB SWAP1 LOG1 PUSH2 0xE6C PUSH1 0x40 MLOAD DUP1 PUSH1 0x60 ADD PUSH1 0x40 MSTORE DUP1 PUSH1 0x23 DUP2 MSTORE PUSH1 0x20 ADD PUSH2 0x2112 PUSH1 0x23 SWAP2 CODECOPY PUSH2 0x174D JUMP JUMPDEST POP POP POP PUSH2 0xE79 PUSH1 0x1 PUSH1 0x5 SSTORE JUMP JUMPDEST POP POP POP POP POP POP JUMP JUMPDEST PUSH0 PUSH2 0xEAE PUSH1 0x40 MLOAD DUP1 PUSH1 0x40 ADD PUSH1 0x40 MSTORE DUP1 PUSH1 0xB DUP2 MSTORE PUSH1 0x20 ADD PUSH11 0x6765744C31526F6F742031 PUSH1 0xA8 SHL DUP2 MSTORE POP PUSH2 0x174D JUMP JUMPDEST PUSH1 0xC SLOAD PUSH1 0x40 DUP1 MLOAD PUSH1 0x20 DUP2 ADD DUP6 SWAP1 MSTORE PUSH1 0x3 SWAP2 DUP2 ADD DUP3 SWAP1 MSTORE SWAP1 SWAP2 PUSH2 0xA1D SWAP2 PUSH1 0x1 PUSH1 0x20 SHL SWAP1 SWAP2 DIV PUSH1 0x1 PUSH1 0x1 PUSH1 0xA0 SHL SUB AND SWAP1 PUSH1 0x60 ADD PUSH2 0xA00 JUMP JUMPDEST PUSH0 DUP2 DUP2 SUB PUSH2 0xEF3 JUMPI POP PUSH0 SWAP2 SWAP1 POP JUMP JUMPDEST PUSH1 0x4 SLOAD PUSH4 0xFFFFFFFF AND DUP1 JUMPDEST PUSH4 0xFFFFFFFF DUP2 AND PUSH0 SWAP1 DUP2 MSTORE PUSH1 0x3 PUSH1 0x20 MSTORE PUSH1 0x40 SWAP1 KECCAK256 SLOAD DUP5 SUB PUSH2 0xF23 JUMPI POP PUSH1 0x1 SWAP4 SWAP3 POP POP POP JUMP JUMPDEST DUP1 PUSH4 0xFFFFFFFF AND PUSH0 SUB PUSH2 0xF34 JUMPI POP PUSH1 0x1E JUMPDEST DUP1 PUSH2 0xF3E DUP2 PUSH2 0x1F30 JUMP JUMPDEST SWAP2 POP POP DUP2 PUSH4 0xFFFFFFFF AND DUP2 PUSH4 0xFFFFFFFF AND SUB PUSH2 0xEFE JUMPI POP PUSH0 SWAP4 SWAP3 POP POP POP JUMP JUMPDEST PUSH1 0x60 DUP2 PUSH8 0xFFFFFFFFFFFFFFFF DUP2 GT ISZERO PUSH2 0xF78 JUMPI PUSH2 0xF78 PUSH2 0x1E65 JUMP JUMPDEST PUSH1 0x40 MLOAD SWAP1 DUP1 DUP3 MSTORE DUP1 PUSH1 0x20 MUL PUSH1 0x20 ADD DUP3 ADD PUSH1 0x40 MSTORE DUP1 ISZERO PUSH2 0xFA1 JUMPI DUP2 PUSH1 0x20 ADD PUSH1 0x20 DUP3 MUL DUP1 CALLDATASIZE DUP4 CALLDATACOPY ADD SWAP1 POP JUMPDEST POP SWAP1 POP PUSH0 JUMPDEST DUP3 DUP2 LT ISZERO PUSH2 0x1010 JUMPI PUSH2 0xFDE DUP5 DUP5 DUP4 DUP2 DUP2 LT PUSH2 0xFC3 JUMPI PUSH2 0xFC3 PUSH2 0x1E79 JUMP JUMPDEST SWAP1 POP PUSH1 0x20 MUL ADD CALLDATALOAD PUSH0 SWAP1 DUP2 MSTORE PUSH1 0x8 PUSH1 0x20 MSTORE PUSH1 0x40 SWAP1 KECCAK256 SLOAD PUSH1 0xFF AND SWAP1 JUMP JUMPDEST ISZERO PUSH2 0x1008 JUMPI PUSH1 0x1 DUP3 DUP3 DUP2 MLOAD DUP2 LT PUSH2 0xFF7 JUMPI PUSH2 0xFF7 PUSH2 0x1E79 JUMP JUMPDEST SWAP2 ISZERO ISZERO PUSH1 0x20 SWAP3 DUP4 MUL SWAP2 SWAP1 SWAP2 ADD SWAP1 SWAP2 ADD MSTORE JUMPDEST PUSH1 0x1 ADD PUSH2 0xFA6 JUMP JUMPDEST POP SWAP3 SWAP2 POP POP JUMP JUMPDEST PUSH2 0x101F PUSH2 0x17D5 JUMP JUMPDEST PUSH0 DUP2 DUP2 MSTORE PUSH1 0x9 PUSH1 0x20 MSTORE PUSH1 0x40 SWAP1 KECCAK256 SLOAD PUSH1 0xFF AND ISZERO PUSH2 0x1087 JUMPI PUSH1 0x40 MLOAD PUSH3 0x461BCD PUSH1 0xE5 SHL DUP2 MSTORE PUSH1 0x20 PUSH1 0x4 DUP3 ADD MSTORE PUSH1 0x21 PUSH1 0x24 DUP3 ADD MSTORE PUSH32 0x54686520636F6D6D69746D656E7420686173206265656E207375626D69747465 PUSH1 0x44 DUP3 ADD MSTORE PUSH1 0x19 PUSH1 0xFA SHL PUSH1 0x64 DUP3 ADD MSTORE PUSH1 0x84 ADD PUSH2 0x753 JUMP JUMPDEST PUSH0 PUSH2 0x1091 DUP3 PUSH2 0x18E8 JUMP JUMPDEST PUSH0 DUP4 DUP2 MSTORE PUSH1 0x9 PUSH1 0x20 MSTORE PUSH1 0x40 SWAP1 KECCAK256 DUP1 SLOAD PUSH1 0xFF NOT AND PUSH1 0x1 OR SWAP1 SSTORE SWAP1 POP PUSH2 0x10B3 PUSH2 0x1ADA JUMP JUMPDEST PUSH1 0x40 DUP1 MLOAD PUSH4 0xFFFFFFFF DUP4 AND DUP2 MSTORE TIMESTAMP PUSH1 0x20 DUP3 ADD MSTORE DUP4 SWAP2 PUSH32 0xA945E51EEC50AB98C161376F0DB4CF2AEBA3EC92755FE2FCD388BDBBB80FF196 SWAP2 ADD PUSH1 0x40 MLOAD DUP1 SWAP2 SUB SWAP1 LOG2 POP PUSH2 0x10FE PUSH1 0x1 PUSH1 0x5 SSTORE JUMP JUMPDEST POP JUMP JUMPDEST PUSH0 DUP2 PUSH0 SUB PUSH2 0x1130 JUMPI POP PUSH32 0x2FE54C60D3ACABF3343A35B6EBA15DB4821B340F76E741E2249685ED4899AF6C SWAP2 SWAP1 POP JUMP JUMPDEST DUP2 PUSH1 0x1 SUB PUSH2 0x115F JUMPI POP PUSH32 0x4FC2FE9184A25F44CE8DDB5F32671FCAE6D9C85ED710C199ACEF16AD16B29911 SWAP2 SWAP1 POP JUMP JUMPDEST DUP2 PUSH1 0x2 SUB PUSH2 0x118E JUMPI POP PUSH32 0xD826A474F851C563052D929EF0DAA70F658ABA9BA084F51F6E3483C13C0E59A SWAP2 SWAP1 POP JUMP JUMPDEST DUP2 PUSH1 0x3 SUB PUSH2 0x11BD JUMPI POP PUSH32 0xF7761A16B5E4C0120E4C5704B910DBE18FF6162A9668ED1C2C4EFDE7C4F15806 SWAP2 SWAP1 POP JUMP JUMPDEST DUP2 PUSH1 0x4 SUB PUSH2 0x11EC JUMPI POP PUSH32 0xCE9CE09A0AB259D6D14CA3DCD74E6C6B9E7D9074BFF66973D4C57CCDFFDB2A82 SWAP2 SWAP1 POP JUMP JUMPDEST DUP2 PUSH1 0x5 SUB PUSH2 0x121B JUMPI POP PUSH32 0x2EFD44C63015FF1385344E0624867775486D05E6EB1290A24976964A598003B SWAP2 SWAP1 POP JUMP JUMPDEST DUP2 PUSH1 0x6 SUB PUSH2 0x124A JUMPI POP PUSH32 0xC4DEC5845D407CE2AC2E6824BB7857C4B138F819E5789D5D11E812DB10C846CD SWAP2 SWAP1 POP JUMP JUMPDEST DUP2 PUSH1 0x7 SUB PUSH2 0x1279 JUMPI POP PUSH32 0x5FBE3F20C23F3BD6AC347917FB0903433E0B9A48373412348240A5F919BFDE19 SWAP2 SWAP1 POP JUMP JUMPDEST DUP2 PUSH1 0x8 SUB PUSH2 0x12A8 JUMPI POP PUSH32 0x92D1B07E56B3DA96B7917778CB657F2C513EAEEB4D1579A73B5EA316F25B7289 SWAP2 SWAP1 POP JUMP JUMPDEST DUP2 PUSH1 0x9 SUB PUSH2 0x12D7 JUMPI POP PUSH32 0xA08ADD5656D6D3D0827EF909F7647981EAC42AA1F51970A752F130F718F6D76A SWAP2 SWAP1 POP JUMP JUMPDEST DUP2 PUSH1 0xA SUB PUSH2 0x1306 JUMPI POP PUSH32 0x1704C5F297590D8EC62776B0714F4F3F2234BAE0524035342B0DA8B8988EBD79 SWAP2 SWAP1 POP JUMP JUMPDEST DUP2 PUSH1 0xB SUB PUSH2 0x1335 JUMPI POP PUSH32 0xC5AE2BD47379C2C6D1189CFC3D057948DC6054CAF845FCACD8F7AFFE94B11944 SWAP2 SWAP1 POP JUMP JUMPDEST DUP2 PUSH1 0xC SUB PUSH2 0x1364 JUMPI POP PUSH32 0x12A161D6D5561062F387D91AD9F0F8966C0956AFDB9E8325458B9E5057B82BDB SWAP2 SWAP1 POP JUMP JUMPDEST DUP2 PUSH1 0xD SUB PUSH2 0x1393 JUMPI POP PUSH32 0x4ADE524BA596DE20BBE94507A761C45251AE7A27857CEB4287D9018525B99BC5 SWAP2 SWAP1 POP JUMP JUMPDEST DUP2 PUSH1 0xE SUB PUSH2 0x13C2 JUMPI POP PUSH32 0x38287AD69151FA833BF4BF8B8EB6FFB39400A38F1A7E53B473F639C8C60FD5E4 SWAP2 SWAP1 POP JUMP JUMPDEST DUP2 PUSH1 0xF SUB PUSH2 0x13F1 JUMPI POP PUSH32 0x57F2ADE7D711707E785451F2ABA6C95872C7FE03153A98B7327B4024E8068FA3 SWAP2 SWAP1 POP JUMP JUMPDEST DUP2 PUSH1 0x10 SUB PUSH2 0x1420 JUMPI POP PUSH32 0xB1982E0D1B0DE46A88D8B17941472E41A86D3FF64571ED8E0CA72D58633547FC SWAP2 SWAP1 POP JUMP JUMPDEST DUP2 PUSH1 0x11 SUB PUSH2 0x144F JUMPI POP PUSH32 0xB7C60F8670AF15EB32B4EE36727179BC085A3DDE03D5F9A1486664BA576B30A6 SWAP2 SWAP1 POP JUMP JUMPDEST DUP2 PUSH1 0x12 SUB PUSH2 0x147E JUMPI POP PUSH32 0x5FF905C5C659A926B132EF3665A3DE5D5A859C1D479E68851085BFC0348C5331 SWAP2 SWAP1 POP JUMP JUMPDEST DUP2 PUSH1 0x13 SUB PUSH2 0x14AD JUMPI POP PUSH32 0xB4DFA78B912E98C9F7EB42D71EB537A02BF3173D44A2EB887A48B3972072DD8E SWAP2 SWAP1 POP JUMP JUMPDEST DUP2 PUSH1 0x14 SUB PUSH2 0x14DC JUMPI POP PUSH32 0x60919A16A2EB8B91CFB8BA1E5B4C155A76A14C217B5403EDBD563F34E508ECDC SWAP2 SWAP1 POP JUMP JUMPDEST PUSH1 0x40 MLOAD PUSH3 0x461BCD PUSH1 0xE5 SHL DUP2 MSTORE PUSH1 0x20 PUSH1 0x4 DUP3 ADD MSTORE PUSH1 0x13 PUSH1 0x24 DUP3 ADD MSTORE PUSH19 0x496E646578206F7574206F6620626F756E6473 PUSH1 0x68 SHL PUSH1 0x44 DUP3 ADD MSTORE PUSH1 0x64 ADD PUSH2 0x753 JUMP JUMPDEST PUSH0 PUSH1 0x3 DUP3 DUP3 SUB PUSH2 0x152C JUMPI POP PUSH0 SWAP3 SWAP2 POP POP JUMP JUMPDEST PUSH2 0x155C PUSH1 0x40 MLOAD DUP1 PUSH1 0x40 ADD PUSH1 0x40 MSTORE DUP1 PUSH1 0xF DUP2 MSTORE PUSH1 0x20 ADD PUSH15 0x69734B6E6F776E4C31526F6F742031 PUSH1 0x88 SHL DUP2 MSTORE POP PUSH2 0x174D JUMP JUMPDEST PUSH1 0xC SLOAD PUSH0 SWAP1 PUSH2 0x157B SWAP1 PUSH1 0x1 PUSH1 0x20 SHL SWAP1 DIV PUSH1 0x1 PUSH1 0x1 PUSH1 0xA0 SHL SUB AND DUP4 PUSH2 0x642 JUMP JUMPDEST DUP1 PUSH1 0x20 ADD SWAP1 MLOAD DUP2 ADD SWAP1 PUSH2 0x158E SWAP2 SWAP1 PUSH2 0x1F4E JUMP JUMPDEST SWAP1 POP PUSH2 0x159F DUP2 PUSH4 0xFFFFFFFF AND PUSH2 0x1790 JUMP JUMPDEST PUSH2 0x15CF PUSH1 0x40 MLOAD DUP1 PUSH1 0x40 ADD PUSH1 0x40 MSTORE DUP1 PUSH1 0xF DUP2 MSTORE PUSH1 0x20 ADD PUSH15 0x34B9A5B737BBB72618A937B7BA1019 PUSH1 0x89 SHL DUP2 MSTORE POP PUSH2 0x174D JUMP JUMPDEST DUP1 JUMPDEST PUSH2 0x1601 PUSH1 0x40 MLOAD DUP1 PUSH1 0x40 ADD PUSH1 0x40 MSTORE DUP1 PUSH1 0xF DUP2 MSTORE PUSH1 0x20 ADD PUSH15 0x69734B6E6F776E4C31526F6F742033 PUSH1 0x88 SHL DUP2 MSTORE POP PUSH2 0x174D JUMP JUMPDEST PUSH2 0x1610 DUP2 PUSH4 0xFFFFFFFF AND PUSH2 0xE81 JUMP JUMPDEST DUP6 SUB PUSH2 0x1621 JUMPI POP PUSH1 0x1 SWAP5 SWAP4 POP POP POP POP JUMP JUMPDEST DUP1 PUSH4 0xFFFFFFFF AND PUSH0 SUB PUSH2 0x1632 JUMPI POP PUSH1 0x1E JUMPDEST DUP1 PUSH2 0x163C DUP2 PUSH2 0x1F30 JUMP JUMPDEST SWAP2 POP POP DUP2 PUSH4 0xFFFFFFFF AND DUP2 PUSH4 0xFFFFFFFF AND SUB PUSH2 0x15D1 JUMPI PUSH2 0x1682 PUSH1 0x40 MLOAD DUP1 PUSH1 0x40 ADD PUSH1 0x40 MSTORE DUP1 PUSH1 0xF DUP2 MSTORE PUSH1 0x20 ADD PUSH15 0x69734B6E6F776E4C31526F6F742035 PUSH1 0x88 SHL DUP2 MSTORE POP PUSH2 0x174D JUMP JUMPDEST POP PUSH0 SWAP5 SWAP4 POP POP POP POP JUMP JUMPDEST PUSH2 0x1694 PUSH2 0x17D5 JUMP JUMPDEST PUSH1 0x40 MLOAD PUSH20 0xBE34CC4CEBF526887EC2C0035463DD26B3E7FEA4 SWAP1 PUSH0 SWAP1 DUP3 SWAP1 SELFBALANCE SWAP1 DUP4 DUP2 DUP2 DUP2 DUP6 DUP8 GAS CALL SWAP3 POP POP POP RETURNDATASIZE DUP1 PUSH0 DUP2 EQ PUSH2 0x16E9 JUMPI PUSH1 0x40 MLOAD SWAP2 POP PUSH1 0x1F NOT PUSH1 0x3F RETURNDATASIZE ADD AND DUP3 ADD PUSH1 0x40 MSTORE RETURNDATASIZE DUP3 MSTORE RETURNDATASIZE PUSH0 PUSH1 0x20 DUP5 ADD RETURNDATACOPY PUSH2 0x16EE JUMP JUMPDEST PUSH1 0x60 SWAP2 POP JUMPDEST POP POP SWAP1 POP DUP1 PUSH2 0x173F JUMPI PUSH1 0x40 MLOAD PUSH3 0x461BCD PUSH1 0xE5 SHL DUP2 MSTORE PUSH1 0x20 PUSH1 0x4 DUP3 ADD DUP2 SWAP1 MSTORE PUSH1 0x24 DUP3 ADD MSTORE PUSH32 0x7061796D656E7420746F2061646D696E20646964206E6F7420676F2074687275 PUSH1 0x44 DUP3 ADD MSTORE PUSH1 0x64 ADD PUSH2 0x753 JUMP JUMPDEST POP POP PUSH2 0x174B PUSH1 0x1 PUSH1 0x5 SSTORE JUMP JUMPDEST JUMP JUMPDEST PUSH2 0x10FE DUP2 PUSH1 0x40 MLOAD PUSH1 0x24 ADD PUSH2 0x1761 SWAP2 SWAP1 PUSH2 0x1BFF JUMP JUMPDEST PUSH1 0x40 DUP1 MLOAD PUSH1 0x1F NOT DUP2 DUP5 SUB ADD DUP2 MSTORE SWAP2 SWAP1 MSTORE PUSH1 0x20 DUP2 ADD DUP1 MLOAD PUSH1 0x1 PUSH1 0x1 PUSH1 0xE0 SHL SUB AND PUSH4 0x104C13EB PUSH1 0xE2 SHL OR SWAP1 MSTORE PUSH2 0x1B51 JUMP JUMPDEST PUSH2 0x10FE DUP2 PUSH1 0x40 MLOAD PUSH1 0x24 ADD PUSH2 0x17A6 SWAP2 DUP2 MSTORE PUSH1 0x20 ADD SWAP1 JUMP JUMPDEST PUSH1 0x40 DUP1 MLOAD PUSH1 0x1F NOT DUP2 DUP5 SUB ADD DUP2 MSTORE SWAP2 SWAP1 MSTORE PUSH1 0x20 DUP2 ADD DUP1 MLOAD PUSH1 0x1 PUSH1 0x1 PUSH1 0xE0 SHL SUB AND PUSH4 0xF82C50F1 PUSH1 0xE0 SHL OR SWAP1 MSTORE PUSH2 0x1B51 JUMP JUMPDEST PUSH1 0x2 PUSH1 0x5 SLOAD SUB PUSH2 0x17F8 JUMPI PUSH1 0x40 MLOAD PUSH4 0x3EE5AEB5 PUSH1 0xE0 SHL DUP2 MSTORE PUSH1 0x4 ADD PUSH1 0x40 MLOAD DUP1 SWAP2 SUB SWAP1 REVERT JUMPDEST PUSH1 0x2 PUSH1 0x5 SSTORE JUMP JUMPDEST PUSH2 0x10FE DUP2 PUSH1 0x40 MLOAD PUSH1 0x24 ADD PUSH2 0x1815 SWAP2 DUP2 MSTORE PUSH1 0x20 ADD SWAP1 JUMP JUMPDEST PUSH1 0x40 DUP1 MLOAD PUSH1 0x1F NOT DUP2 DUP5 SUB ADD DUP2 MSTORE SWAP2 SWAP1 MSTORE PUSH1 0x20 DUP2 ADD DUP1 MLOAD PUSH1 0x1 PUSH1 0x1 PUSH1 0xE0 SHL SUB AND PUSH4 0x27B7CF85 PUSH1 0xE0 SHL OR SWAP1 MSTORE PUSH2 0x1B51 JUMP JUMPDEST CALLVALUE ISZERO PUSH2 0x18B0 JUMPI PUSH1 0x40 MLOAD PUSH3 0x461BCD PUSH1 0xE5 SHL DUP2 MSTORE PUSH1 0x20 PUSH1 0x4 DUP3 ADD MSTORE PUSH1 0x35 PUSH1 0x24 DUP3 ADD MSTORE PUSH32 0x4D6573736167652076616C756520697320737570706F73656420746F20626520 PUSH1 0x44 DUP3 ADD MSTORE PUSH21 0x7A65726F20666F722045544820696E7374616E6365 PUSH1 0x58 SHL PUSH1 0x64 DUP3 ADD MSTORE PUSH1 0x84 ADD PUSH2 0x753 JUMP JUMPDEST PUSH1 0x6 SLOAD PUSH1 0x40 MLOAD PUSH1 0x1 PUSH1 0x1 PUSH1 0xA0 SHL SUB DUP4 AND SWAP2 DUP1 ISZERO PUSH2 0x8FC MUL SWAP2 PUSH0 DUP2 DUP2 DUP2 DUP6 DUP9 DUP9 CALL SWAP4 POP POP POP POP ISZERO DUP1 ISZERO PUSH2 0x18E4 JUMPI RETURNDATASIZE PUSH0 DUP1 RETURNDATACOPY RETURNDATASIZE PUSH0 REVERT JUMPDEST POP POP JUMP JUMPDEST PUSH1 0x4 SLOAD PUSH0 DUP1 SLOAD SWAP1 SWAP2 PUSH4 0xFFFFFFFF PUSH1 0x1 PUSH1 0x20 SHL SWAP1 SWAP2 DIV DUP2 AND SWAP2 PUSH2 0x190C SWAP2 AND PUSH1 0x2 PUSH2 0x2080 JUMP JUMPDEST PUSH4 0xFFFFFFFF AND DUP2 PUSH4 0xFFFFFFFF AND SUB PUSH2 0x197F JUMPI PUSH1 0x40 MLOAD PUSH3 0x461BCD PUSH1 0xE5 SHL DUP2 MSTORE PUSH1 0x20 PUSH1 0x4 DUP3 ADD MSTORE PUSH1 0x30 PUSH1 0x24 DUP3 ADD MSTORE PUSH32 0x4D65726B6C6520747265652069732066756C6C2E204E6F206D6F7265206C6561 PUSH1 0x44 DUP3 ADD MSTORE PUSH16 0x1D995CC818D85B881899481859191959 PUSH1 0x82 SHL PUSH1 0x64 DUP3 ADD MSTORE PUSH1 0x84 ADD PUSH2 0x753 JUMP JUMPDEST DUP1 DUP4 PUSH0 DUP1 DUP1 JUMPDEST PUSH0 SLOAD PUSH4 0xFFFFFFFF SWAP1 DUP2 AND SWAP1 DUP3 AND LT ISZERO PUSH2 0x1A39 JUMPI PUSH2 0x19A3 PUSH1 0x2 DUP7 PUSH2 0x20B0 JUMP JUMPDEST PUSH4 0xFFFFFFFF AND PUSH0 SUB PUSH2 0x19DF JUMPI DUP4 SWAP3 POP PUSH2 0x19C1 DUP2 PUSH4 0xFFFFFFFF AND PUSH2 0x1101 JUMP JUMPDEST PUSH4 0xFFFFFFFF DUP3 AND PUSH0 SWAP1 DUP2 MSTORE PUSH1 0x2 PUSH1 0x20 MSTORE PUSH1 0x40 SWAP1 KECCAK256 DUP6 SWAP1 SSTORE SWAP2 POP PUSH2 0x19FA JUMP JUMPDEST PUSH4 0xFFFFFFFF DUP2 AND PUSH0 SWAP1 DUP2 MSTORE PUSH1 0x2 PUSH1 0x20 MSTORE PUSH1 0x40 SWAP1 KECCAK256 SLOAD SWAP3 POP DUP4 SWAP2 POP JUMPDEST PUSH1 0x40 DUP1 MLOAD PUSH1 0x20 DUP1 DUP3 ADD DUP7 SWAP1 MSTORE DUP2 DUP4 ADD DUP6 SWAP1 MSTORE DUP3 MLOAD DUP1 DUP4 SUB DUP5 ADD DUP2 MSTORE PUSH1 0x60 SWAP1 SWAP3 ADD SWAP1 SWAP3 MSTORE DUP1 MLOAD SWAP2 ADD KECCAK256 SWAP4 POP PUSH2 0x1A2F PUSH1 0x2 DUP7 PUSH2 0x20D2 JUMP JUMPDEST SWAP5 POP PUSH1 0x1 ADD PUSH2 0x1985 JUMP JUMPDEST POP PUSH1 0x4 SLOAD PUSH0 SWAP1 PUSH1 0x1E SWAP1 PUSH2 0x1A53 SWAP1 PUSH4 0xFFFFFFFF AND PUSH1 0x1 PUSH2 0x20F4 JUMP JUMPDEST PUSH2 0x1A5D SWAP2 SWAP1 PUSH2 0x20B0 JUMP JUMPDEST PUSH1 0x4 DUP1 SLOAD PUSH4 0xFFFFFFFF NOT AND PUSH4 0xFFFFFFFF DUP4 DUP2 AND SWAP2 DUP3 OR SWAP1 SWAP3 SSTORE PUSH0 SWAP1 DUP2 MSTORE PUSH1 0x3 PUSH1 0x20 SWAP1 DUP2 MSTORE PUSH1 0x40 DUP1 DUP4 KECCAK256 DUP10 SWAP1 SSTORE SWAP3 DUP11 AND DUP3 MSTORE PUSH1 0x1 SWAP1 DUP2 SWAP1 MSTORE SWAP2 SWAP1 KECCAK256 DUP11 SWAP1 SSTORE SWAP1 SWAP2 POP PUSH2 0x1AA8 SWAP1 DUP8 SWAP1 PUSH2 0x20F4 JUMP JUMPDEST PUSH1 0x4 DUP1 SLOAD PUSH4 0xFFFFFFFF SWAP3 SWAP1 SWAP3 AND PUSH1 0x1 PUSH1 0x20 SHL MUL PUSH8 0xFFFFFFFF00000000 NOT SWAP1 SWAP3 AND SWAP2 SWAP1 SWAP2 OR SWAP1 SSTORE POP SWAP4 SWAP7 SWAP6 POP POP POP POP POP POP JUMP JUMPDEST PUSH1 0x6 SLOAD CALLVALUE EQ PUSH2 0x174B JUMPI PUSH1 0x40 MLOAD PUSH3 0x461BCD PUSH1 0xE5 SHL DUP2 MSTORE PUSH1 0x20 PUSH1 0x4 DUP3 ADD MSTORE PUSH1 0x38 PUSH1 0x24 DUP3 ADD MSTORE PUSH32 0x506C656173652073656E6420606D697844656E6F6D696E6174696F6E60204554 PUSH1 0x44 DUP3 ADD MSTORE PUSH32 0x4820616C6F6E672077697468207472616E73616374696F6E0000000000000000 PUSH1 0x64 DUP3 ADD MSTORE PUSH1 0x84 ADD PUSH2 0x753 JUMP JUMPDEST PUSH2 0x10FE DUP2 PUSH0 PUSH11 0x636F6E736F6C652E6C6F67 SWAP1 POP PUSH0 DUP1 DUP4 MLOAD PUSH1 0x20 DUP6 ADD DUP5 GAS STATICCALL POP POP POP JUMP JUMPDEST PUSH1 0x1 PUSH1 0x1 PUSH1 0xA0 SHL SUB DUP2 AND DUP2 EQ PUSH2 0x10FE JUMPI PUSH0 DUP1 REVERT JUMPDEST PUSH0 DUP1 PUSH1 0x40 DUP4 DUP6 SUB SLT ISZERO PUSH2 0x1B99 JUMPI PUSH0 DUP1 REVERT JUMPDEST DUP3 CALLDATALOAD PUSH2 0x1BA4 DUP2 PUSH2 0x1B74 JUMP JUMPDEST SWAP5 PUSH1 0x20 SWAP4 SWAP1 SWAP4 ADD CALLDATALOAD SWAP4 POP POP POP JUMP JUMPDEST PUSH0 JUMPDEST DUP4 DUP2 LT ISZERO PUSH2 0x1BCC JUMPI DUP2 DUP2 ADD MLOAD DUP4 DUP3 ADD MSTORE PUSH1 0x20 ADD PUSH2 0x1BB4 JUMP JUMPDEST POP POP PUSH0 SWAP2 ADD MSTORE JUMP JUMPDEST PUSH0 DUP2 MLOAD DUP1 DUP5 MSTORE PUSH2 0x1BEB DUP2 PUSH1 0x20 DUP7 ADD PUSH1 0x20 DUP7 ADD PUSH2 0x1BB2 JUMP JUMPDEST PUSH1 0x1F ADD PUSH1 0x1F NOT AND SWAP3 SWAP1 SWAP3 ADD PUSH1 0x20 ADD SWAP3 SWAP2 POP POP JUMP JUMPDEST PUSH1 0x20 DUP2 MSTORE PUSH0 PUSH2 0xA30 PUSH1 0x20 DUP4 ADD DUP5 PUSH2 0x1BD4 JUMP JUMPDEST PUSH0 DUP1 PUSH0 DUP1 PUSH1 0x80 DUP6 DUP8 SUB SLT ISZERO PUSH2 0x1C24 JUMPI PUSH0 DUP1 REVERT JUMPDEST DUP5 CALLDATALOAD SWAP4 POP PUSH1 0x20 DUP6 ADD CALLDATALOAD SWAP3 POP PUSH1 0x40 DUP6 ADD CALLDATALOAD PUSH2 0x1C3D DUP2 PUSH2 0x1B74 JUMP JUMPDEST SWAP4 SWAP7 SWAP3 SWAP6 POP SWAP3 SWAP4 PUSH1 0x60 ADD CALLDATALOAD SWAP3 POP POP JUMP JUMPDEST PUSH0 DUP2 MLOAD DUP1 DUP5 MSTORE PUSH1 0x20 DUP1 DUP6 ADD SWAP5 POP PUSH1 0x20 DUP5 ADD PUSH0 JUMPDEST DUP4 DUP2 LT ISZERO PUSH2 0x1C7C JUMPI DUP2 MLOAD DUP8 MSTORE SWAP6 DUP3 ADD SWAP6 SWAP1 DUP3 ADD SWAP1 PUSH1 0x1 ADD PUSH2 0x1C60 JUMP JUMPDEST POP SWAP5 SWAP6 SWAP5 POP POP POP POP POP JUMP JUMPDEST PUSH1 0x20 DUP2 MSTORE PUSH0 PUSH2 0xA30 PUSH1 0x20 DUP4 ADD DUP5 PUSH2 0x1C4D JUMP JUMPDEST PUSH0 PUSH1 0x20 DUP3 DUP5 SUB SLT ISZERO PUSH2 0x1CA9 JUMPI PUSH0 DUP1 REVERT JUMPDEST POP CALLDATALOAD SWAP2 SWAP1 POP JUMP JUMPDEST PUSH1 0x40 DUP2 MSTORE PUSH0 PUSH2 0x1CC2 PUSH1 0x40 DUP4 ADD DUP6 PUSH2 0x1C4D JUMP JUMPDEST DUP3 DUP2 SUB PUSH1 0x20 DUP5 ADD MSTORE PUSH2 0x1CD4 DUP2 DUP6 PUSH2 0x1C4D JUMP JUMPDEST SWAP6 SWAP5 POP POP POP POP POP JUMP JUMPDEST PUSH0 DUP1 PUSH1 0x40 DUP4 DUP6 SUB SLT ISZERO PUSH2 0x1CEE JUMPI PUSH0 DUP1 REVERT JUMPDEST POP POP DUP1 CALLDATALOAD SWAP3 PUSH1 0x20 SWAP1 SWAP2 ADD CALLDATALOAD SWAP2 POP JUMP JUMPDEST PUSH0 DUP1 PUSH0 DUP1 PUSH0 DUP1 PUSH1 0xA0 DUP8 DUP10 SUB SLT ISZERO PUSH2 0x1D12 JUMPI PUSH0 DUP1 REVERT JUMPDEST DUP7 CALLDATALOAD SWAP6 POP PUSH1 0x20 DUP8 ADD CALLDATALOAD SWAP5 POP PUSH1 0x40 DUP8 ADD CALLDATALOAD SWAP4 POP PUSH1 0x60 DUP8 ADD CALLDATALOAD PUSH2 0x1D32 DUP2 PUSH2 0x1B74 JUMP JUMPDEST SWAP3 POP PUSH1 0x80 DUP8 ADD CALLDATALOAD PUSH8 0xFFFFFFFFFFFFFFFF DUP1 DUP3 GT ISZERO PUSH2 0x1D4E JUMPI PUSH0 DUP1 REVERT JUMPDEST DUP2 DUP10 ADD SWAP2 POP DUP10 PUSH1 0x1F DUP4 ADD SLT PUSH2 0x1D61 JUMPI PUSH0 DUP1 REVERT JUMPDEST DUP2 CALLDATALOAD DUP2 DUP2 GT ISZERO PUSH2 0x1D6F JUMPI PUSH0 DUP1 REVERT JUMPDEST DUP11 PUSH1 0x20 DUP3 DUP6 ADD ADD GT ISZERO PUSH2 0x1D80 JUMPI PUSH0 DUP1 REVERT JUMPDEST PUSH1 0x20 DUP4 ADD SWAP5 POP DUP1 SWAP4 POP POP POP POP SWAP3 SWAP6 POP SWAP3 SWAP6 POP SWAP3 SWAP6 JUMP JUMPDEST PUSH0 DUP1 PUSH1 0x20 DUP4 DUP6 SUB SLT ISZERO PUSH2 0x1DA7 JUMPI PUSH0 DUP1 REVERT JUMPDEST DUP3 CALLDATALOAD PUSH8 0xFFFFFFFFFFFFFFFF DUP1 DUP3 GT ISZERO PUSH2 0x1DBE JUMPI PUSH0 DUP1 REVERT JUMPDEST DUP2 DUP6 ADD SWAP2 POP DUP6 PUSH1 0x1F DUP4 ADD SLT PUSH2 0x1DD1 JUMPI PUSH0 DUP1 REVERT JUMPDEST DUP2 CALLDATALOAD DUP2 DUP2 GT ISZERO PUSH2 0x1DDF JUMPI PUSH0 DUP1 REVERT JUMPDEST DUP7 PUSH1 0x20 DUP3 PUSH1 0x5 SHL DUP6 ADD ADD GT ISZERO PUSH2 0x1DF3 JUMPI PUSH0 DUP1 REVERT JUMPDEST PUSH1 0x20 SWAP3 SWAP1 SWAP3 ADD SWAP7 SWAP2 SWAP6 POP SWAP1 SWAP4 POP POP POP POP JUMP JUMPDEST PUSH1 0x20 DUP1 DUP3 MSTORE DUP3 MLOAD DUP3 DUP3 ADD DUP2 SWAP1 MSTORE PUSH0 SWAP2 SWAP1 DUP5 DUP3 ADD SWAP1 PUSH1 0x40 DUP6 ADD SWAP1 DUP5 JUMPDEST DUP2 DUP2 LT ISZERO PUSH2 0x1E3E JUMPI DUP4 MLOAD ISZERO ISZERO DUP4 MSTORE SWAP3 DUP5 ADD SWAP3 SWAP2 DUP5 ADD SWAP2 PUSH1 0x1 ADD PUSH2 0x1E20 JUMP JUMPDEST POP SWAP1 SWAP7 SWAP6 POP POP POP POP POP POP JUMP JUMPDEST PUSH0 DUP3 MLOAD PUSH2 0x1E5B DUP2 DUP5 PUSH1 0x20 DUP8 ADD PUSH2 0x1BB2 JUMP JUMPDEST SWAP2 SWAP1 SWAP2 ADD SWAP3 SWAP2 POP POP JUMP JUMPDEST PUSH4 0x4E487B71 PUSH1 0xE0 SHL PUSH0 MSTORE PUSH1 0x41 PUSH1 0x4 MSTORE PUSH1 0x24 PUSH0 REVERT JUMPDEST PUSH4 0x4E487B71 PUSH1 0xE0 SHL PUSH0 MSTORE PUSH1 0x32 PUSH1 0x4 MSTORE PUSH1 0x24 PUSH0 REVERT JUMPDEST PUSH4 0x4E487B71 PUSH1 0xE0 SHL PUSH0 MSTORE PUSH1 0x11 PUSH1 0x4 MSTORE PUSH1 0x24 PUSH0 REVERT JUMPDEST DUP2 DUP2 SUB DUP2 DUP2 GT ISZERO PUSH2 0x761 JUMPI PUSH2 0x761 PUSH2 0x1E8D JUMP JUMPDEST PUSH0 PUSH1 0x20 DUP3 DUP5 SUB SLT ISZERO PUSH2 0x1EC4 JUMPI PUSH0 DUP1 REVERT JUMPDEST POP MLOAD SWAP2 SWAP1 POP JUMP JUMPDEST PUSH1 0x40 DUP2 MSTORE DUP3 PUSH1 0x40 DUP3 ADD MSTORE DUP3 DUP5 PUSH1 0x60 DUP4 ADD CALLDATACOPY PUSH0 PUSH1 0x60 DUP5 DUP4 ADD ADD MSTORE PUSH0 PUSH1 0x1F NOT PUSH1 0x1F DUP6 ADD AND DUP3 ADD PUSH1 0x60 DUP4 DUP3 SUB ADD PUSH1 0x20 DUP5 ADD MSTORE PUSH2 0x1F07 PUSH1 0x60 DUP3 ADD DUP6 PUSH2 0x1C4D JUMP JUMPDEST SWAP7 SWAP6 POP POP POP POP POP POP JUMP JUMPDEST PUSH0 PUSH1 0x20 DUP3 DUP5 SUB SLT ISZERO PUSH2 0x1F21 JUMPI PUSH0 DUP1 REVERT JUMPDEST DUP2 MLOAD DUP1 ISZERO ISZERO DUP2 EQ PUSH2 0xA30 JUMPI PUSH0 DUP1 REVERT JUMPDEST PUSH0 PUSH4 0xFFFFFFFF DUP3 AND DUP1 PUSH2 0x1F45 JUMPI PUSH2 0x1F45 PUSH2 0x1E8D JUMP JUMPDEST PUSH0 NOT ADD SWAP3 SWAP2 POP POP JUMP JUMPDEST PUSH0 PUSH1 0x20 DUP3 DUP5 SUB SLT ISZERO PUSH2 0x1F5E JUMPI PUSH0 DUP1 REVERT JUMPDEST DUP2 MLOAD PUSH4 0xFFFFFFFF DUP2 AND DUP2 EQ PUSH2 0xA30 JUMPI PUSH0 DUP1 REVERT JUMPDEST PUSH1 0x1 DUP2 DUP2 JUMPDEST DUP1 DUP6 GT ISZERO PUSH2 0x1FAE JUMPI DUP2 PUSH4 0xFFFFFFFF DIV DUP3 GT ISZERO PUSH2 0x1F94 JUMPI PUSH2 0x1F94 PUSH2 0x1E8D JUMP JUMPDEST DUP1 DUP6 AND ISZERO PUSH2 0x1FA1 JUMPI SWAP2 DUP2 MUL SWAP2 JUMPDEST SWAP4 DUP5 SHR SWAP4 SWAP1 DUP1 MUL SWAP1 PUSH2 0x1F76 JUMP JUMPDEST POP SWAP3 POP SWAP3 SWAP1 POP JUMP JUMPDEST PUSH0 DUP3 PUSH2 0x1FC4 JUMPI POP PUSH1 0x1 PUSH2 0x761 JUMP JUMPDEST DUP2 PUSH2 0x1FD0 JUMPI POP PUSH0 PUSH2 0x761 JUMP JUMPDEST DUP2 PUSH1 0x1 DUP2 EQ PUSH2 0x1FE6 JUMPI PUSH1 0x2 DUP2 EQ PUSH2 0x1FF0 JUMPI PUSH2 0x2021 JUMP JUMPDEST PUSH1 0x1 SWAP2 POP POP PUSH2 0x761 JUMP JUMPDEST PUSH1 0xFF DUP5 GT ISZERO PUSH2 0x2001 JUMPI PUSH2 0x2001 PUSH2 0x1E8D JUMP JUMPDEST PUSH1 0x1 DUP5 SHL SWAP2 POP PUSH4 0xFFFFFFFF DUP3 GT ISZERO PUSH2 0x201B JUMPI PUSH2 0x201B PUSH2 0x1E8D JUMP JUMPDEST POP PUSH2 0x761 JUMP JUMPDEST POP PUSH1 0x20 DUP4 LT PUSH2 0x133 DUP4 LT AND PUSH1 0x4E DUP5 LT PUSH1 0xB DUP5 LT AND OR ISZERO PUSH2 0x2058 JUMPI POP DUP2 DUP2 EXP PUSH4 0xFFFFFFFF DUP2 GT ISZERO PUSH2 0x2053 JUMPI PUSH2 0x2053 PUSH2 0x1E8D JUMP JUMPDEST PUSH2 0x761 JUMP JUMPDEST PUSH2 0x2062 DUP4 DUP4 PUSH2 0x1F71 JUMP JUMPDEST DUP1 PUSH4 0xFFFFFFFF DIV DUP3 GT ISZERO PUSH2 0x2078 JUMPI PUSH2 0x2078 PUSH2 0x1E8D JUMP JUMPDEST MUL SWAP4 SWAP3 POP POP POP JUMP JUMPDEST PUSH0 PUSH4 0xFFFFFFFF PUSH2 0x2094 DUP2 DUP6 AND DUP3 DUP6 AND PUSH2 0x1FB6 JUMP JUMPDEST SWAP5 SWAP4 POP POP POP POP JUMP JUMPDEST PUSH4 0x4E487B71 PUSH1 0xE0 SHL PUSH0 MSTORE PUSH1 0x12 PUSH1 0x4 MSTORE PUSH1 0x24 PUSH0 REVERT JUMPDEST PUSH0 PUSH4 0xFFFFFFFF DUP1 DUP5 AND DUP1 PUSH2 0x20C6 JUMPI PUSH2 0x20C6 PUSH2 0x209C JUMP JUMPDEST SWAP3 AND SWAP2 SWAP1 SWAP2 MOD SWAP3 SWAP2 POP POP JUMP JUMPDEST PUSH0 PUSH4 0xFFFFFFFF DUP1 DUP5 AND DUP1 PUSH2 0x20E8 JUMPI PUSH2 0x20E8 PUSH2 0x209C JUMP JUMPDEST SWAP3 AND SWAP2 SWAP1 SWAP2 DIV SWAP3 SWAP2 POP POP JUMP JUMPDEST PUSH4 0xFFFFFFFF DUP2 DUP2 AND DUP4 DUP3 AND ADD SWAP1 DUP1 DUP3 GT ISZERO PUSH2 0x1010 JUMPI PUSH2 0x1010 PUSH2 0x1E8D JUMP INVALID PUSH4 0x6861696E 0x49 PUSH5 0x20696E2066 PUSH16 0x726D6174746564207075626C69632069 PUSH15 0x707574733AA2646970667358221220 0xE9 0xCB 0xEC 0xD8 CALLDATACOPY DUP11 SLT 0xB0 0x27 0xE6 PUSH1 0xC9 0xD4 0xC7 0xEB SELFBALANCE PUSH21 0xF9AE7E332839DF8F5A48F6B7A29F9064736F6C6343 STOP ADDMOD OR STOP CALLER "},"methodIdentifiers":{"L1_SLOAD_ADDRESS()":"a867a5ef","ROOT_HISTORY_SIZE()":"cd87a3b4","_formatPublicInputs(bytes32,bytes32,address,uint256)":"26627210","adminWithdraw()":"f18d20be","commitmentLeafs(uint256)":"9ec44154","commitments(bytes32)":"839df945","commitmentsTreeRoots(bytes32)":"3591d78d","currentRootIndex()":"90eeb02b","denomination()":"8bca6d16","deposit(bytes32)":"b214faa5","filledSubtrees(uint256)":"f178e47c","getAllCommitments()":"2c0ee3c4","getL1LeafCommitments(uint256)":"3ed4eae5","getL1Root(uint256)":"5032d4f1","getLastRoot()":"ba70f757","hashLeftRight(bytes32,bytes32)":"38bf282e","isKnownL1Root(bytes32)":"e993d00b","isKnownRoot(bytes32)":"6d9833e3","isSpent(bytes32)":"e5285dcc","isSpentArray(bytes32[])":"9fa12d0b","l1Address()":"c2eeeebd","l1_currentRootIndex()":"164ddd01","levels()":"4ecf518b","nextIndex()":"fc7e9c6f","nullifiers(bytes32)":"2997e86b","readSingleSlot(address,uint256)":"102b72e7","roots(uint256)":"c2b40ae4","verifier()":"2b7ac3f3","withdraw(bytes32,bytes32,bytes32,address,bytes)":"50241a3f","zeros(uint256)":"e8295588"}}}}}