{"contracts/test/L2SLOADmock.sol":{"L2SLOADmock":{"abi":[{"inputs":[],"stateMutability":"nonpayable","type":"constructor"},{"stateMutability":"nonpayable","type":"fallback"},{"inputs":[],"name":"hi","outputs":[{"internalType":"uint256","name":"","type":"uint256"}],"stateMutability":"view","type":"function"},{"inputs":[{"internalType":"address","name":"","type":"address"},{"internalType":"uint256","name":"","type":"uint256"}],"name":"mockedSlots","outputs":[{"internalType":"bytes","name":"","type":"bytes"}],"stateMutability":"view","type":"function"},{"inputs":[{"internalType":"address","name":"l1ContactAddr","type":"address"},{"internalType":"uint256","name":"slot","type":"uint256"}],"name":"readMockedSlot","outputs":[{"internalType":"bytes","name":"","type":"bytes"}],"stateMutability":"view","type":"function"},{"inputs":[{"internalType":"address","name":"l1ContactAddr","type":"address"},{"internalType":"uint256","name":"slot","type":"uint256"},{"internalType":"bytes","name":"value","type":"bytes"}],"name":"setMockedSlot","outputs":[],"stateMutability":"nonpayable","type":"function"}],"evm":{"bytecode":{"linkReferences":{},"object":"608060405234801561000f575f80fd5b506104f28061001d5f395ff3fe608060405234801561000f575f80fd5b506004361061004a575f3560e01c8063540811ed1461007757806373475633146100a05780637693efb6146100b5578063a99dca3f146100c8575b5f366060828061005a8482610275565b909250905061006982826100d8565b805195506020019350505050f35b61008a610085366004610275565b6100d8565b604051610097919061029f565b60405180910390f35b6100b36100ae3660046102eb565b61018d565b005b61008a6100c3366004610275565b6101bf565b6040516101a48152602001610097565b6001600160a01b0382165f908152602081815260408083208484529091528120805460609291906101089061036d565b80601f01602080910402602001604051908101604052809291908181526020018280546101349061036d565b801561017f5780601f106101565761010080835404028352916020019161017f565b820191905f5260205f20905b81548152906001019060200180831161016257829003601f168201915b509398975050505050505050565b6001600160a01b0384165f9081526020818152604080832086845290915290206101b8828483610402565b5050505050565b5f602081815292815260408082209093529081522080546101df9061036d565b80601f016020809104026020016040519081016040528092919081815260200182805461020b9061036d565b80156102565780601f1061022d57610100808354040283529160200191610256565b820191905f5260205f20905b81548152906001019060200180831161023957829003601f168201915b505050505081565b6001600160a01b0381168114610272575f80fd5b50565b5f8060408385031215610286575f80fd5b82356102918161025e565b946020939093013593505050565b5f602080835283518060208501525f5b818110156102cb578581018301518582016040015282016102af565b505f604082860101526040601f19601f8301168501019250505092915050565b5f805f80606085870312156102fe575f80fd5b84356103098161025e565b935060208501359250604085013567ffffffffffffffff8082111561032c575f80fd5b818701915087601f83011261033f575f80fd5b81358181111561034d575f80fd5b88602082850101111561035e575f80fd5b95989497505060200194505050565b600181811c9082168061038157607f821691505b60208210810361039f57634e487b7160e01b5f52602260045260245ffd5b50919050565b634e487b7160e01b5f52604160045260245ffd5b601f8211156103fd57805f5260205f20601f840160051c810160208510156103de5750805b601f840160051c820191505b818110156101b8575f81556001016103ea565b505050565b67ffffffffffffffff83111561041a5761041a6103a5565b61042e83610428835461036d565b836103b9565b5f601f84116001811461045f575f85156104485750838201355b5f19600387901b1c1916600186901b1783556101b8565b5f83815260208120601f198716915b8281101561048e578685013582556020948501946001909201910161046e565b50868210156104aa575f1960f88860031b161c19848701351681555b505060018560011b018355505050505056fea26469706673582212209c907c1a6847bbe4eeb1f5aa9fa24e842ef86dd6da8b7cdee171f41558e980e564736f6c63430008170033","opcodes":"PUSH1 0x80 PUSH1 0x40 MSTORE CALLVALUE DUP1 ISZERO PUSH2 0xF JUMPI PUSH0 DUP1 REVERT JUMPDEST POP PUSH2 0x4F2 DUP1 PUSH2 0x1D PUSH0 CODECOPY PUSH0 RETURN INVALID PUSH1 0x80 PUSH1 0x40 MSTORE CALLVALUE DUP1 ISZERO PUSH2 0xF JUMPI PUSH0 DUP1 REVERT JUMPDEST POP PUSH1 0x4 CALLDATASIZE LT PUSH2 0x4A JUMPI PUSH0 CALLDATALOAD PUSH1 0xE0 SHR DUP1 PUSH4 0x540811ED EQ PUSH2 0x77 JUMPI DUP1 PUSH4 0x73475633 EQ PUSH2 0xA0 JUMPI DUP1 PUSH4 0x7693EFB6 EQ PUSH2 0xB5 JUMPI DUP1 PUSH4 0xA99DCA3F EQ PUSH2 0xC8 JUMPI JUMPDEST PUSH0 CALLDATASIZE PUSH1 0x60 DUP3 DUP1 PUSH2 0x5A DUP5 DUP3 PUSH2 0x275 JUMP JUMPDEST SWAP1 SWAP3 POP SWAP1 POP PUSH2 0x69 DUP3 DUP3 PUSH2 0xD8 JUMP JUMPDEST DUP1 MLOAD SWAP6 POP PUSH1 0x20 ADD SWAP4 POP POP POP POP RETURN JUMPDEST PUSH2 0x8A PUSH2 0x85 CALLDATASIZE PUSH1 0x4 PUSH2 0x275 JUMP JUMPDEST PUSH2 0xD8 JUMP JUMPDEST PUSH1 0x40 MLOAD PUSH2 0x97 SWAP2 SWAP1 PUSH2 0x29F JUMP JUMPDEST PUSH1 0x40 MLOAD DUP1 SWAP2 SUB SWAP1 RETURN JUMPDEST PUSH2 0xB3 PUSH2 0xAE CALLDATASIZE PUSH1 0x4 PUSH2 0x2EB JUMP JUMPDEST PUSH2 0x18D JUMP JUMPDEST STOP JUMPDEST PUSH2 0x8A PUSH2 0xC3 CALLDATASIZE PUSH1 0x4 PUSH2 0x275 JUMP JUMPDEST PUSH2 0x1BF JUMP JUMPDEST PUSH1 0x40 MLOAD PUSH2 0x1A4 DUP2 MSTORE PUSH1 0x20 ADD PUSH2 0x97 JUMP JUMPDEST PUSH1 0x1 PUSH1 0x1 PUSH1 0xA0 SHL SUB DUP3 AND PUSH0 SWAP1 DUP2 MSTORE PUSH1 0x20 DUP2 DUP2 MSTORE PUSH1 0x40 DUP1 DUP4 KECCAK256 DUP5 DUP5 MSTORE SWAP1 SWAP2 MSTORE DUP2 KECCAK256 DUP1 SLOAD PUSH1 0x60 SWAP3 SWAP2 SWAP1 PUSH2 0x108 SWAP1 PUSH2 0x36D JUMP JUMPDEST DUP1 PUSH1 0x1F ADD PUSH1 0x20 DUP1 SWAP2 DIV MUL PUSH1 0x20 ADD PUSH1 0x40 MLOAD SWAP1 DUP2 ADD PUSH1 0x40 MSTORE DUP1 SWAP3 SWAP2 SWAP1 DUP2 DUP2 MSTORE PUSH1 0x20 ADD DUP3 DUP1 SLOAD PUSH2 0x134 SWAP1 PUSH2 0x36D JUMP JUMPDEST DUP1 ISZERO PUSH2 0x17F JUMPI DUP1 PUSH1 0x1F LT PUSH2 0x156 JUMPI PUSH2 0x100 DUP1 DUP4 SLOAD DIV MUL DUP4 MSTORE SWAP2 PUSH1 0x20 ADD SWAP2 PUSH2 0x17F JUMP JUMPDEST DUP3 ADD SWAP2 SWAP1 PUSH0 MSTORE PUSH1 0x20 PUSH0 KECCAK256 SWAP1 JUMPDEST DUP2 SLOAD DUP2 MSTORE SWAP1 PUSH1 0x1 ADD SWAP1 PUSH1 0x20 ADD DUP1 DUP4 GT PUSH2 0x162 JUMPI DUP3 SWAP1 SUB PUSH1 0x1F AND DUP3 ADD SWAP2 JUMPDEST POP SWAP4 SWAP9 SWAP8 POP POP POP POP POP POP POP POP JUMP JUMPDEST PUSH1 0x1 PUSH1 0x1 PUSH1 0xA0 SHL SUB DUP5 AND PUSH0 SWAP1 DUP2 MSTORE PUSH1 0x20 DUP2 DUP2 MSTORE PUSH1 0x40 DUP1 DUP4 KECCAK256 DUP7 DUP5 MSTORE SWAP1 SWAP2 MSTORE SWAP1 KECCAK256 PUSH2 0x1B8 DUP3 DUP5 DUP4 PUSH2 0x402 JUMP JUMPDEST POP POP POP POP POP JUMP JUMPDEST PUSH0 PUSH1 0x20 DUP2 DUP2 MSTORE SWAP3 DUP2 MSTORE PUSH1 0x40 DUP1 DUP3 KECCAK256 SWAP1 SWAP4 MSTORE SWAP1 DUP2 MSTORE KECCAK256 DUP1 SLOAD PUSH2 0x1DF SWAP1 PUSH2 0x36D JUMP JUMPDEST DUP1 PUSH1 0x1F ADD PUSH1 0x20 DUP1 SWAP2 DIV MUL PUSH1 0x20 ADD PUSH1 0x40 MLOAD SWAP1 DUP2 ADD PUSH1 0x40 MSTORE DUP1 SWAP3 SWAP2 SWAP1 DUP2 DUP2 MSTORE PUSH1 0x20 ADD DUP3 DUP1 SLOAD PUSH2 0x20B SWAP1 PUSH2 0x36D JUMP JUMPDEST DUP1 ISZERO PUSH2 0x256 JUMPI DUP1 PUSH1 0x1F LT PUSH2 0x22D JUMPI PUSH2 0x100 DUP1 DUP4 SLOAD DIV MUL DUP4 MSTORE SWAP2 PUSH1 0x20 ADD SWAP2 PUSH2 0x256 JUMP JUMPDEST DUP3 ADD SWAP2 SWAP1 PUSH0 MSTORE PUSH1 0x20 PUSH0 KECCAK256 SWAP1 JUMPDEST DUP2 SLOAD DUP2 MSTORE SWAP1 PUSH1 0x1 ADD SWAP1 PUSH1 0x20 ADD DUP1 DUP4 GT PUSH2 0x239 JUMPI DUP3 SWAP1 SUB PUSH1 0x1F AND DUP3 ADD SWAP2 JUMPDEST POP POP POP POP POP DUP2 JUMP JUMPDEST PUSH1 0x1 PUSH1 0x1 PUSH1 0xA0 SHL SUB DUP2 AND DUP2 EQ PUSH2 0x272 JUMPI PUSH0 DUP1 REVERT JUMPDEST POP JUMP JUMPDEST PUSH0 DUP1 PUSH1 0x40 DUP4 DUP6 SUB SLT ISZERO PUSH2 0x286 JUMPI PUSH0 DUP1 REVERT JUMPDEST DUP3 CALLDATALOAD PUSH2 0x291 DUP2 PUSH2 0x25E JUMP JUMPDEST SWAP5 PUSH1 0x20 SWAP4 SWAP1 SWAP4 ADD CALLDATALOAD SWAP4 POP POP POP JUMP JUMPDEST PUSH0 PUSH1 0x20 DUP1 DUP4 MSTORE DUP4 MLOAD DUP1 PUSH1 0x20 DUP6 ADD MSTORE PUSH0 JUMPDEST DUP2 DUP2 LT ISZERO PUSH2 0x2CB JUMPI DUP6 DUP2 ADD DUP4 ADD MLOAD DUP6 DUP3 ADD PUSH1 0x40 ADD MSTORE DUP3 ADD PUSH2 0x2AF JUMP JUMPDEST POP PUSH0 PUSH1 0x40 DUP3 DUP7 ADD ADD MSTORE PUSH1 0x40 PUSH1 0x1F NOT PUSH1 0x1F DUP4 ADD AND DUP6 ADD ADD SWAP3 POP POP POP SWAP3 SWAP2 POP POP JUMP JUMPDEST PUSH0 DUP1 PUSH0 DUP1 PUSH1 0x60 DUP6 DUP8 SUB SLT ISZERO PUSH2 0x2FE JUMPI PUSH0 DUP1 REVERT JUMPDEST DUP5 CALLDATALOAD PUSH2 0x309 DUP2 PUSH2 0x25E JUMP JUMPDEST SWAP4 POP PUSH1 0x20 DUP6 ADD CALLDATALOAD SWAP3 POP PUSH1 0x40 DUP6 ADD CALLDATALOAD PUSH8 0xFFFFFFFFFFFFFFFF DUP1 DUP3 GT ISZERO PUSH2 0x32C JUMPI PUSH0 DUP1 REVERT JUMPDEST DUP2 DUP8 ADD SWAP2 POP DUP8 PUSH1 0x1F DUP4 ADD SLT PUSH2 0x33F JUMPI PUSH0 DUP1 REVERT JUMPDEST DUP2 CALLDATALOAD DUP2 DUP2 GT ISZERO PUSH2 0x34D JUMPI PUSH0 DUP1 REVERT JUMPDEST DUP9 PUSH1 0x20 DUP3 DUP6 ADD ADD GT ISZERO PUSH2 0x35E JUMPI PUSH0 DUP1 REVERT JUMPDEST SWAP6 SWAP9 SWAP5 SWAP8 POP POP PUSH1 0x20 ADD SWAP5 POP POP POP JUMP JUMPDEST PUSH1 0x1 DUP2 DUP2 SHR SWAP1 DUP3 AND DUP1 PUSH2 0x381 JUMPI PUSH1 0x7F DUP3 AND SWAP2 POP JUMPDEST PUSH1 0x20 DUP3 LT DUP2 SUB PUSH2 0x39F JUMPI PUSH4 0x4E487B71 PUSH1 0xE0 SHL PUSH0 MSTORE PUSH1 0x22 PUSH1 0x4 MSTORE PUSH1 0x24 PUSH0 REVERT JUMPDEST POP SWAP2 SWAP1 POP JUMP JUMPDEST PUSH4 0x4E487B71 PUSH1 0xE0 SHL PUSH0 MSTORE PUSH1 0x41 PUSH1 0x4 MSTORE PUSH1 0x24 PUSH0 REVERT JUMPDEST PUSH1 0x1F DUP3 GT ISZERO PUSH2 0x3FD JUMPI DUP1 PUSH0 MSTORE PUSH1 0x20 PUSH0 KECCAK256 PUSH1 0x1F DUP5 ADD PUSH1 0x5 SHR DUP2 ADD PUSH1 0x20 DUP6 LT ISZERO PUSH2 0x3DE JUMPI POP DUP1 JUMPDEST PUSH1 0x1F DUP5 ADD PUSH1 0x5 SHR DUP3 ADD SWAP2 POP JUMPDEST DUP2 DUP2 LT ISZERO PUSH2 0x1B8 JUMPI PUSH0 DUP2 SSTORE PUSH1 0x1 ADD PUSH2 0x3EA JUMP JUMPDEST POP POP POP JUMP JUMPDEST PUSH8 0xFFFFFFFFFFFFFFFF DUP4 GT ISZERO PUSH2 0x41A JUMPI PUSH2 0x41A PUSH2 0x3A5 JUMP JUMPDEST PUSH2 0x42E DUP4 PUSH2 0x428 DUP4 SLOAD PUSH2 0x36D JUMP JUMPDEST DUP4 PUSH2 0x3B9 JUMP JUMPDEST PUSH0 PUSH1 0x1F DUP5 GT PUSH1 0x1 DUP2 EQ PUSH2 0x45F JUMPI PUSH0 DUP6 ISZERO PUSH2 0x448 JUMPI POP DUP4 DUP3 ADD CALLDATALOAD JUMPDEST PUSH0 NOT PUSH1 0x3 DUP8 SWAP1 SHL SHR NOT AND PUSH1 0x1 DUP7 SWAP1 SHL OR DUP4 SSTORE PUSH2 0x1B8 JUMP JUMPDEST PUSH0 DUP4 DUP2 MSTORE PUSH1 0x20 DUP2 KECCAK256 PUSH1 0x1F NOT DUP8 AND SWAP2 JUMPDEST DUP3 DUP2 LT ISZERO PUSH2 0x48E JUMPI DUP7 DUP6 ADD CALLDATALOAD DUP3 SSTORE PUSH1 0x20 SWAP5 DUP6 ADD SWAP5 PUSH1 0x1 SWAP1 SWAP3 ADD SWAP2 ADD PUSH2 0x46E JUMP JUMPDEST POP DUP7 DUP3 LT ISZERO PUSH2 0x4AA JUMPI PUSH0 NOT PUSH1 0xF8 DUP9 PUSH1 0x3 SHL AND SHR NOT DUP5 DUP8 ADD CALLDATALOAD AND DUP2 SSTORE JUMPDEST POP POP PUSH1 0x1 DUP6 PUSH1 0x1 SHL ADD DUP4 SSTORE POP POP POP POP POP JUMP INVALID LOG2 PUSH5 0x6970667358 0x22 SLT KECCAK256 SWAP13 SWAP1 PUSH29 0x1A6847BBE4EEB1F5AA9FA24E842EF86DD6DA8B7CDEE171F41558E980E5 PUSH5 0x736F6C6343 STOP ADDMOD OR STOP CALLER "},"methodIdentifiers":{"hi()":"a99dca3f","mockedSlots(address,uint256)":"7693efb6","readMockedSlot(address,uint256)":"540811ed","setMockedSlot(address,uint256,bytes)":"73475633"}}}}}