{"contracts/ToadnadoL2.sol":{"ToadnadoL2":{"abi":[{"inputs":[{"internalType":"address","name":"_verifier","type":"address"},{"internalType":"uint32","name":"_merkleTreeHeight","type":"uint32"},{"internalType":"address","name":"_l2ScrollMessenger","type":"address"},{"internalType":"address","name":"_l1ToadnadoAddress","type":"address"}],"stateMutability":"nonpayable","type":"constructor"},{"inputs":[],"name":"ReentrancyGuardReentrantCall","type":"error"},{"inputs":[],"name":"VerificationFailed","type":"error"},{"anonymous":false,"inputs":[{"indexed":true,"internalType":"uint256","name":"commitment","type":"uint256"},{"indexed":false,"internalType":"uint32","name":"leafIndex","type":"uint32"},{"indexed":false,"internalType":"uint256","name":"timestamp","type":"uint256"}],"name":"Deposit","type":"event"},{"anonymous":false,"inputs":[{"indexed":false,"internalType":"address","name":"recipient","type":"address"},{"indexed":false,"internalType":"uint256","name":"nullifier","type":"uint256"}],"name":"PendingWithdrawal","type":"event"},{"anonymous":false,"inputs":[{"indexed":false,"internalType":"address","name":"recipient","type":"address"},{"indexed":false,"internalType":"uint256","name":"nullifier","type":"uint256"}],"name":"Withdrawal","type":"event"},{"inputs":[],"name":"ROOT_HISTORY_SIZE","outputs":[{"internalType":"uint32","name":"","type":"uint32"}],"stateMutability":"view","type":"function"},{"inputs":[],"name":"bridgeDebt","outputs":[{"internalType":"uint256","name":"","type":"uint256"}],"stateMutability":"view","type":"function"},{"inputs":[{"internalType":"uint256","name":"_amount","type":"uint256"},{"internalType":"uint256","name":"gasLimit","type":"uint256"}],"name":"bridgeEth","outputs":[],"stateMutability":"nonpayable","type":"function"},{"inputs":[{"internalType":"uint256","name":"","type":"uint256"}],"name":"commitments","outputs":[{"internalType":"bool","name":"","type":"bool"}],"stateMutability":"view","type":"function"},{"inputs":[{"internalType":"uint256","name":"","type":"uint256"}],"name":"commitmentsTreeRoots","outputs":[{"internalType":"bool","name":"","type":"bool"}],"stateMutability":"view","type":"function"},{"inputs":[],"name":"currentRootIndex","outputs":[{"internalType":"uint32","name":"","type":"uint32"}],"stateMutability":"view","type":"function"},{"inputs":[{"internalType":"uint256","name":"_preCommitment","type":"uint256"}],"name":"deposit","outputs":[],"stateMutability":"payable","type":"function"},{"inputs":[],"name":"ethPendingWithdrawals","outputs":[{"internalType":"uint256","name":"","type":"uint256"}],"stateMutability":"view","type":"function"},{"inputs":[{"internalType":"uint256","name":"","type":"uint256"}],"name":"filledSubtrees","outputs":[{"internalType":"uint256","name":"","type":"uint256"}],"stateMutability":"view","type":"function"},{"inputs":[{"internalType":"uint256","name":"key","type":"uint256"}],"name":"getL1Root","outputs":[{"internalType":"uint256","name":"","type":"uint256"}],"stateMutability":"view","type":"function"},{"inputs":[],"name":"getLastKnowL1Root","outputs":[{"internalType":"uint256","name":"","type":"uint256"}],"stateMutability":"view","type":"function"},{"inputs":[],"name":"getLastKnowL2Root","outputs":[{"internalType":"uint256","name":"","type":"uint256"}],"stateMutability":"view","type":"function"},{"inputs":[],"name":"getLastRoot","outputs":[{"internalType":"uint256","name":"","type":"uint256"}],"stateMutability":"view","type":"function"},{"inputs":[{"internalType":"uint256","name":"_left","type":"uint256"},{"internalType":"uint256","name":"_right","type":"uint256"}],"name":"hashLeftRight","outputs":[{"internalType":"uint256","name":"","type":"uint256"}],"stateMutability":"pure","type":"function"},{"inputs":[{"internalType":"uint256","name":"_root","type":"uint256"}],"name":"isKnownL1Root","outputs":[{"internalType":"bool","name":"","type":"bool"}],"stateMutability":"view","type":"function"},{"inputs":[{"internalType":"uint256","name":"_root","type":"uint256"}],"name":"isKnownL2Root","outputs":[{"internalType":"bool","name":"","type":"bool"}],"stateMutability":"view","type":"function"},{"inputs":[{"internalType":"uint256","name":"_nullifierHash","type":"uint256"}],"name":"isSpent","outputs":[{"internalType":"bool","name":"","type":"bool"}],"stateMutability":"view","type":"function"},{"inputs":[{"internalType":"uint256[]","name":"_nullifierHashes","type":"uint256[]"}],"name":"isSpentArray","outputs":[{"internalType":"bool[]","name":"spent","type":"bool[]"}],"stateMutability":"view","type":"function"},{"inputs":[],"name":"l1ToadnadoAddress","outputs":[{"internalType":"address","name":"","type":"address"}],"stateMutability":"view","type":"function"},{"inputs":[],"name":"l2ScrollMessenger","outputs":[{"internalType":"address","name":"","type":"address"}],"stateMutability":"view","type":"function"},{"inputs":[],"name":"levels","outputs":[{"internalType":"uint32","name":"","type":"uint32"}],"stateMutability":"view","type":"function"},{"inputs":[],"name":"nextIndex","outputs":[{"internalType":"uint32","name":"","type":"uint32"}],"stateMutability":"view","type":"function"},{"inputs":[{"internalType":"uint256","name":"","type":"uint256"}],"name":"nullifiers","outputs":[{"internalType":"bool","name":"","type":"bool"}],"stateMutability":"view","type":"function"},{"inputs":[{"internalType":"address","name":"l1_contract","type":"address"},{"internalType":"uint256","name":"slot","type":"uint256"}],"name":"readSingleSlot","outputs":[{"internalType":"bytes","name":"","type":"bytes"}],"stateMutability":"view","type":"function"},{"inputs":[],"name":"recieveBridgedEth","outputs":[],"stateMutability":"payable","type":"function"},{"inputs":[{"internalType":"uint256","name":"gasLimit","type":"uint256"}],"name":"requestEthBridge","outputs":[],"stateMutability":"nonpayable","type":"function"},{"inputs":[{"internalType":"uint256","name":"","type":"uint256"}],"name":"roots","outputs":[{"internalType":"uint256","name":"","type":"uint256"}],"stateMutability":"view","type":"function"},{"inputs":[{"internalType":"uint32","name":"gasLimit","type":"uint32"}],"name":"sendLatestRootToL1","outputs":[],"stateMutability":"payable","type":"function"},{"inputs":[],"name":"verifier","outputs":[{"internalType":"address","name":"","type":"address"}],"stateMutability":"view","type":"function"},{"inputs":[{"internalType":"uint256","name":"_l1root","type":"uint256"},{"internalType":"uint256","name":"_l2root","type":"uint256"},{"internalType":"uint256","name":"_nullifier","type":"uint256"},{"internalType":"address payable","name":"_recipient","type":"address"},{"internalType":"uint256","name":"_amount","type":"uint256"},{"internalType":"bytes","name":"snarkProof","type":"bytes"}],"name":"withdraw","outputs":[],"stateMutability":"payable","type":"function"},{"inputs":[{"internalType":"uint256","name":"_nullifier","type":"uint256"}],"name":"withdrawPending","outputs":[],"stateMutability":"nonpayable","type":"function"},{"inputs":[{"internalType":"uint256","name":"i","type":"uint256"}],"name":"zeros","outputs":[{"internalType":"uint256","name":"","type":"uint256"}],"stateMutability":"pure","type":"function"}],"evm":{"bytecode":{"linkReferences":{"poseidon-solidity/PoseidonT3.sol":{"PoseidonT3":[{"length":20,"start":4332},{"length":20,"start":5864},{"length":20,"start":6266}]}},"object":"60e0604052600380546001600160401b03191690555f6009819055600a5534801562000029575f80fd5b50604051620030af380380620030af8339810160408190526200004c9162000874565b8383805f8163ffffffff1611620000b65760405162461bcd60e51b815260206004820152602360248201527f5f6c6576656c732073686f756c642062652067726561746572207468616e207a60448201526265726f60e81b60648201526084015b60405180910390fd5b60148163ffffffff16106200010e5760405162461bcd60e51b815260206004820152601e60248201527f5f6c6576656c732073686f756c64206265206c657373207468616e20323000006044820152606401620000ad565b5f805463ffffffff191663ffffffff83161781555b8163ffffffff168163ffffffff1610156200016b576200014963ffffffff8216620001cf565b63ffffffff82165f908152600160208190526040909120919091550162000123565b506200017d63ffffffff8216620001cf565b5f805260026020527fac33ff75c19e70fe83507db0d683fd3465c996598dc972688b7ace676c89077b55505060016004556001600160a01b0390811660805291821660a0521660c05250620008d79050565b5f815f03620001df57505f919050565b816001036200020f57507f2098f5fb9e239eab3ceac3f27b81e481dc3124d55ffed523a839ee8446b64864919050565b816002036200023f57507f1069673dcdb12263df301a6ff584a7ec261a44cb9dc68df067a4774460b1f1e1919050565b816003036200026f57507f18f43331537ee2af2e3d758d50f72106467c6eea50371dd528d57eb2b856d238919050565b816004036200029f57507f07f9d837cb17b0d36320ffe93ba52345f1b728571a568265caac97559dbc952a919050565b81600503620002cf57507f2b94cf5e8746b3f5c9631f4c5df32907a699c58c94b2ad4d7b5cec1639183f55919050565b81600603620002ff57507f2dee93c5a666459646ea7d22cca9e1bcfed71e6951b953611d11dda32ea09d78919050565b816007036200032f57507f078295e5a22b84e982cf601eb639597b8b0515a88cb5ac7fa8a4aabe3c87349d919050565b816008036200035f57507f2fa5e5f18f6027a6501bec864564472a616b2e274a41211a444cbe3a99f3cc61919050565b816009036200038f57507f0e884376d0d8fd21ecb780389e941f66e45e7acce3e228ab3e2156a614fcd747919050565b81600a03620003bf57507f1b7201da72494f1e28717ad1a52eb469f95892f957713533de6175e5da190af2919050565b81600b03620003ef57507f1f8d8822725e36385200c0b201249819a6e6e1e4650808b5bebc6bface7d7636919050565b81600c036200041f57507f2c5d82f66c914bafb9701589ba8cfcfb6162b0a12acf88a8d0879a0471b5f85a919050565b81600d036200044f57507f14c54148a0940bb820957f5adf3fa1134ef5c4aaa113f4646458f270e0bfbfd0919050565b81600e036200047f57507f190d33b12f986f961e10c0ee44d8b9af11be25588cad89d416118e4bf4ebe80c919050565b81600f03620004af57507f22f98aa9ce704152ac17354914ad73ed1167ae6596af510aa5b3649325e06c92919050565b81601003620004df57507f2a7c7c9b6ce5880b9f6f228d72bf6a575a526f29c66ecceef8b753d38bba7323919050565b816011036200050f57507f2e8186e558698ec1c67af9c14d463ffc470043c9c2988b954d75dd643f36b992919050565b816012036200053f57507f0f57c5571e9a4eab49e2c8cf050dae948aef6ead647392273546249d1c1ff10f919050565b816013036200056f57507f1830ee67b5fb554ad5f63d4388800e1cfe78e310697d46e43c9ce36134f72cca919050565b816014036200059f57507f2134e76ac5d21aab186c2be1dd8f84ee880a1e46eaf712f9d371b6df22191f3e919050565b81601503620005cf57507f19df90ec844ebc4ffeebd866f33859b0c051d8c958ee3aa88f8f8df3db91a5b1919050565b81601603620005ff57507f18cca2a66b5c0787981e69aefd84852d74af0e93ef4912b4648c05f722efe52b919050565b816017036200062f57507f2388909415230d1b4d1304d2d54f473a628338f2efad83fadf05644549d2538d919050565b816018036200065f57507f27171fb4a97b6cc0e9e8f543b5294de866a2af2c9c8d0b1d96e673e4529ed540919050565b816019036200068f57507f2ff6650540f629fd5711a0bc74fc0d28dcb230b9392583e5f8d59696dde6ae21919050565b81601a03620006bf57507f120c58f143d491e95902f7f5277778a2e0ad5168f6add75669932630ce611518919050565b81601b03620006ef57507f1f21feb70d3f21b07bf853d5e5db03071ec495a0a565a21da2d665d279483795919050565b81601c036200071f57507f24be905fa71335e14c638cc0f66a8623a826e768068a9e968bb1a1dde18a72d2919050565b81601d036200074f57507f0f8666b62ed17491c50ceadead57d4cd597ef3821d65c328744c74e553dac26d919050565b81601e036200077f57507f0918d46bf52d98b034413f4a1a1c41594e7a7a3f6ae08cb43d1a2a230e1959ef919050565b81601f03620007af57507f1bbeb01b4c479ecde76917645e404dfa2e26f90d0afc5a65128513ad375c5ff2919050565b81602003620007df57507f2f68a1c58e257e42a17a6c61dff5551ed560b9922ab119d5ac8e184c9734ead9919050565b816021036200080f57507f1102d2f8db05e4af4842e8ad3d85ed45eb28447eb7212235a2281d5ab5d81d11919050565b60405162461bcd60e51b815260206004820152601360248201527f496e646578206f7574206f6620626f756e6473000000000000000000000000006044820152606401620000ad565b919050565b80516001600160a01b038116811462000858575f80fd5b5f805f806080858703121562000888575f80fd5b62000893856200085d565b9350602085015163ffffffff81168114620008ac575f80fd5b9250620008bc604086016200085d565b9150620008cc606086016200085d565b905092959194509250565b60805160a05160c05161273d620009725f395f818161051001528181610b1b01528181610bfb01528181610ce701528181610e15015281816110730152818161114b015281816119930152611ad101525f818161049301528181610bbc01528181610c2501528181610de40152818161111201528181611954015281816119bd0152611a9801525f818161029b015261080a015261273d5ff3fe6080604052600436106101db575f3560e01c8063b6b55f25116100fd578063cd87a3b411610092578063ea65ba4911610062578063ea65ba49146105a8578063f178e47c146105d4578063f8af86e7146105ff578063fc7e9c6f1461061e575f80fd5b8063cd87a3b414610532578063d21e82ab14610546578063db394bb914610574578063e829558814610589575f80fd5b8063c0e70bbd116100cd578063c0e70bbd14610482578063c2b40ae4146104b5578063c9ca7a61146104e0578063cc48b735146104ff575f80fd5b8063b6b55f251461043c578063b89d302d1461044f578063ba70f75714610398578063c068a7ff1461046e575f80fd5b806349ce8997116101735780635a129efe116101435780635a129efe146103c05780635bb93995146103ee57806390eeb02b1461040d5780639d7d010f14610429575f80fd5b806349ce89971461031b5780634ecf518b146103495780635032d4f11461037957806353a4778b14610398575f80fd5b80632b7ac3f3116101ae5780632b7ac3f31461028a5780632e585fd8146102d5578063397a14b4146102f457806339da4b5514610313575f80fd5b806306e473f2146101df578063102b72e7146101f45780631b5844ff1461022957806328482f891461024c575b5f80fd5b6101f26101ed366004612048565b610642565b005b3480156101ff575f80fd5b5061021361020e3660046120eb565b6108d8565b6040516102209190612162565b60405180910390f35b348015610234575f80fd5b5061023e600a5481565b604051908152602001610220565b348015610257575f80fd5b5061027a610266366004612174565b60076020525f908152604090205460ff1681565b6040519015158152602001610220565b348015610295575f80fd5b506102bd7f000000000000000000000000000000000000000000000000000000000000000081565b6040516001600160a01b039091168152602001610220565b3480156102e0575f80fd5b506101f26102ef366004612174565b6109bb565b3480156102ff575f80fd5b5061027a61030e366004612174565b610b06565b6101f2610bb1565b348015610326575f80fd5b5061027a610335366004612174565b60066020525f908152604090205460ff1681565b348015610354575f80fd5b505f546103649063ffffffff1681565b60405163ffffffff9091168152602001610220565b348015610384575f80fd5b5061023e610393366004612174565b610ce1565b3480156103a3575f80fd5b5060035463ffffffff165f9081526002602052604090205461023e565b3480156103cb575f80fd5b5061027a6103da366004612174565b5f9081526005602052604090205460ff1690565b3480156103f9575f80fd5b5061023e61040836600461218b565b610d53565b348015610418575f80fd5b506003546103649063ffffffff1681565b6101f26104373660046121bc565b610de2565b6101f261044a366004612174565b610edc565b34801561045a575f80fd5b5061027a610469366004612174565b611062565b348015610479575f80fd5b5061023e61106c565b34801561048d575f80fd5b506102bd7f000000000000000000000000000000000000000000000000000000000000000081565b3480156104c0575f80fd5b5061023e6104cf366004612174565b60026020525f908152604090205481565b3480156104eb575f80fd5b506101f26104fa366004612174565b6110c3565b34801561050a575f80fd5b506102bd7f000000000000000000000000000000000000000000000000000000000000000081565b34801561053d575f80fd5b50610364601e81565b348015610551575f80fd5b5061027a610560366004612174565b60056020525f908152604090205460ff1681565b34801561057f575f80fd5b5061023e60095481565b348015610594575f80fd5b5061023e6105a3366004612174565b6111b1565b3480156105b3575f80fd5b506105c76105c23660046121d7565b61180d565b6040516102209190612246565b3480156105df575f80fd5b5061023e6105ee366004612174565b60016020525f908152604090205481565b34801561060a575f80fd5b506101f261061936600461218b565b6118c7565b348015610629575f80fd5b5060035461036490640100000000900463ffffffff1681565b61064a611b30565b5f8581526005602052604090205460ff16156106ad5760405162461bcd60e51b815260206004820152601f60248201527f546865206e6f746520686173206265656e20616c7265616479207370656e740060448201526064015b60405180910390fd5b6106b686611062565b6107025760405162461bcd60e51b815260206004820152601f60248201527f43616e6e6f742066696e6420796f7572206c32206d65726b6c6520726f6f740060448201526064016106a4565b61070b87610b06565b6107575760405162461bcd60e51b815260206004820152601f60248201527f43616e6e6f742066696e6420796f7572206c31206d65726b6c6520726f6f740060448201526064016106a4565b604080518082018252888152602081018890529051632b0aac7f60e11b81525f9173__$75f79a42d9bcbdbb69ad79ebd80f556f39$__9163561558fe916107a09160040161228b565b602060405180830381865af41580156107bb573d5f803e3d5ffd5b505050506040513d601f19601f820116820180604052508101906107df91906122bb565b9050465f6107f0838989858a611b5a565b604051633a94343960e21b81529091506001600160a01b037f0000000000000000000000000000000000000000000000000000000000000000169063ea50d0e490610843908890889086906004016122d2565b602060405180830381865afa15801561085e573d5f803e3d5ffd5b505050506040513d601f19601f82011682018060405250810190610882919061234a565b61089f5760405163439cc0cd60e01b815260040160405180910390fd5b5f888152600560205260409020805460ff191660011790556108c2878988611c3b565b5050506108cf6001600455565b50505050505050565b604051606083811b6bffffffffffffffffffffffff1916602083015260348201839052905f9060540160405160208183030381529060405290505f60606101016001600160a01b03168360405161092f9190612369565b5f60405180830381855afa9150503d805f8114610967576040519150601f19603f3d011682016040523d82523d5f602084013e61096c565b606091505b509092509050816109b05760405162461bcd60e51b815260206004820152600e60248201526d130c54d313d0510819985a5b195960921b60448201526064016106a4565b925050505b92915050565b5f81815260086020908152604091829020825160608101845281546001600160a01b031681526001808301549382019390935260029091015460ff1615159281018390529114610a4d5760405162461bcd60e51b815260206004820181905260248201527f5468697320776974686472617720697320616c726561647920636c61696d656460448201526064016106a4565b5f8281526008602090815260408220600201805460ff19169055820151600a805491929091610a7d908490612398565b9091555050805160208201516040516001600160a01b039092169181156108fc0291905f818181858888f19350505050158015610abc573d5f803e3d5ffd5b508051604080516001600160a01b039092168252602082018490527f7fcf532c15f0a6db0bd6d0e038bea71d30d808c7d98cb3bf7268a95bf5081b65910160405180910390a15050565b5f815f03610b1557505f919050565b5f610b417f000000000000000000000000000000000000000000000000000000000000000060036108d8565b806020019051810190610b5491906123ab565b9050805b610b678163ffffffff16610ce1565b8403610b77575060019392505050565b8063ffffffff165f03610b885750601e5b80610b92816123c6565b9150508163ffffffff168163ffffffff1603610b5857505f9392505050565b336001600160a01b037f00000000000000000000000000000000000000000000000000000000000000001614610bf95760405162461bcd60e51b81526004016106a4906123e4565b7f00000000000000000000000000000000000000000000000000000000000000006001600160a01b03167f00000000000000000000000000000000000000000000000000000000000000006001600160a01b0316636e296e456040518163ffffffff1660e01b8152600401602060405180830381865afa158015610c7f573d5f803e3d5ffd5b505050506040513d601f19601f82011682018060405250810190610ca3919061242c565b6001600160a01b031614610cc95760405162461bcd60e51b81526004016106a490612447565b34600a5f828254610cda91906124a4565b9091555050565b5f610d407f0000000000000000000000000000000000000000000000000000000000000000836003604051602001610d23929190918252602082015260400190565b604051602081830303815290604052805190602001205f1c6108d8565b8060200190518101906109b591906122bb565b604080518082018252838152602081018390529051632b0aac7f60e11b81525f9173__$75f79a42d9bcbdbb69ad79ebd80f556f39$__9163561558fe91610d9c9160040161228b565b602060405180830381865af4158015610db7573d5f803e3d5ffd5b505050506040513d601f19601f82011682018060405250810190610ddb91906122bb565b9392505050565b7f00000000000000000000000000000000000000000000000000000000000000006001600160a01b038116635f7b1577347f00000000000000000000000000000000000000000000000000000000000000005f610e5260035463ffffffff165f9081526002602052604090205490565b604051602401610e6491815260200190565b60408051601f198184030181529181526020820180516001600160e01b0316636b91e4d560e01b1790525160e086901b6001600160e01b0319168152610eb393929190899033906004016124b7565b5f604051808303818588803b158015610eca575f80fd5b505af11580156108cf573d5f803e3d5ffd5b610ee4611b30565b60408051808201825282815234602082018190529151632b0aac7f60e11b81525f9173__$75f79a42d9bcbdbb69ad79ebd80f556f39$__9163561558fe91610f2e9160040161228b565b602060405180830381865af4158015610f49573d5f803e3d5ffd5b505050506040513d601f19601f82011682018060405250810190610f6d91906122bb565b5f8181526006602052604090205490915060ff1615610fe05760405162461bcd60e51b815260206004820152602960248201527f54686520636f6d6d69746d656e742068617320616c7265616479206265656e206044820152681cdd589b5a5d1d195960ba1b60648201526084016106a4565b5f610fea82611dfb565b5f8381526006602052604090819020805460ff191660011790555190915082907f2813ca2762c14ad53880ef467c7448a9015904c20e064e6216ffb3f63390ec5d9061104a908490429063ffffffff929092168252602082015260400190565b60405180910390a250505061105f6001600455565b50565b5f6109b582611fbb565b5f806110997f000000000000000000000000000000000000000000000000000000000000000060036108d8565b8060200190518101906110ac91906123ab565b90506110bd8163ffffffff16610ce1565b91505090565b6009546040805160248101839052604480820185905282518083039091018152606490910182526020810180516001600160e01b031663f8af86e760e01b1790529051635f7b157760e01b81527f0000000000000000000000000000000000000000000000000000000000000000916001600160a01b03831691635f7b1577915f9161117a917f0000000000000000000000000000000000000000000000000000000000000000918491908a9033906004016124fe565b5f604051808303818588803b158015611191575f80fd5b505af11580156111a3573d5f803e3d5ffd5b50505f600955505050505050565b5f815f036111c057505f919050565b816001036111ef57507f2098f5fb9e239eab3ceac3f27b81e481dc3124d55ffed523a839ee8446b64864919050565b8160020361121e57507f1069673dcdb12263df301a6ff584a7ec261a44cb9dc68df067a4774460b1f1e1919050565b8160030361124d57507f18f43331537ee2af2e3d758d50f72106467c6eea50371dd528d57eb2b856d238919050565b8160040361127c57507f07f9d837cb17b0d36320ffe93ba52345f1b728571a568265caac97559dbc952a919050565b816005036112ab57507f2b94cf5e8746b3f5c9631f4c5df32907a699c58c94b2ad4d7b5cec1639183f55919050565b816006036112da57507f2dee93c5a666459646ea7d22cca9e1bcfed71e6951b953611d11dda32ea09d78919050565b8160070361130957507f078295e5a22b84e982cf601eb639597b8b0515a88cb5ac7fa8a4aabe3c87349d919050565b8160080361133857507f2fa5e5f18f6027a6501bec864564472a616b2e274a41211a444cbe3a99f3cc61919050565b8160090361136757507f0e884376d0d8fd21ecb780389e941f66e45e7acce3e228ab3e2156a614fcd747919050565b81600a0361139657507f1b7201da72494f1e28717ad1a52eb469f95892f957713533de6175e5da190af2919050565b81600b036113c557507f1f8d8822725e36385200c0b201249819a6e6e1e4650808b5bebc6bface7d7636919050565b81600c036113f457507f2c5d82f66c914bafb9701589ba8cfcfb6162b0a12acf88a8d0879a0471b5f85a919050565b81600d0361142357507f14c54148a0940bb820957f5adf3fa1134ef5c4aaa113f4646458f270e0bfbfd0919050565b81600e0361145257507f190d33b12f986f961e10c0ee44d8b9af11be25588cad89d416118e4bf4ebe80c919050565b81600f0361148157507f22f98aa9ce704152ac17354914ad73ed1167ae6596af510aa5b3649325e06c92919050565b816010036114b057507f2a7c7c9b6ce5880b9f6f228d72bf6a575a526f29c66ecceef8b753d38bba7323919050565b816011036114df57507f2e8186e558698ec1c67af9c14d463ffc470043c9c2988b954d75dd643f36b992919050565b8160120361150e57507f0f57c5571e9a4eab49e2c8cf050dae948aef6ead647392273546249d1c1ff10f919050565b8160130361153d57507f1830ee67b5fb554ad5f63d4388800e1cfe78e310697d46e43c9ce36134f72cca919050565b8160140361156c57507f2134e76ac5d21aab186c2be1dd8f84ee880a1e46eaf712f9d371b6df22191f3e919050565b8160150361159b57507f19df90ec844ebc4ffeebd866f33859b0c051d8c958ee3aa88f8f8df3db91a5b1919050565b816016036115ca57507f18cca2a66b5c0787981e69aefd84852d74af0e93ef4912b4648c05f722efe52b919050565b816017036115f957507f2388909415230d1b4d1304d2d54f473a628338f2efad83fadf05644549d2538d919050565b8160180361162857507f27171fb4a97b6cc0e9e8f543b5294de866a2af2c9c8d0b1d96e673e4529ed540919050565b8160190361165757507f2ff6650540f629fd5711a0bc74fc0d28dcb230b9392583e5f8d59696dde6ae21919050565b81601a0361168657507f120c58f143d491e95902f7f5277778a2e0ad5168f6add75669932630ce611518919050565b81601b036116b557507f1f21feb70d3f21b07bf853d5e5db03071ec495a0a565a21da2d665d279483795919050565b81601c036116e457507f24be905fa71335e14c638cc0f66a8623a826e768068a9e968bb1a1dde18a72d2919050565b81601d0361171357507f0f8666b62ed17491c50ceadead57d4cd597ef3821d65c328744c74e553dac26d919050565b81601e0361174257507f0918d46bf52d98b034413f4a1a1c41594e7a7a3f6ae08cb43d1a2a230e1959ef919050565b81601f0361177157507f1bbeb01b4c479ecde76917645e404dfa2e26f90d0afc5a65128513ad375c5ff2919050565b816020036117a057507f2f68a1c58e257e42a17a6c61dff5551ed560b9922ab119d5ac8e184c9734ead9919050565b816021036117cf57507f1102d2f8db05e4af4842e8ad3d85ed45eb28447eb7212235a2281d5ab5d81d11919050565b60405162461bcd60e51b8152602060048201526013602482015272496e646578206f7574206f6620626f756e647360681b60448201526064016106a4565b60608167ffffffffffffffff8111156118285761182861253f565b604051908082528060200260200182016040528015611851578160200160208202803683370190505b5090505f5b828110156118c05761188e84848381811061187357611873612553565b905060200201355f9081526005602052604090205460ff1690565b156118b85760018282815181106118a7576118a7612553565b911515602092830291909101909101525b600101611856565b5092915050565b600a546118d49047612398565b8211156119495760405162461bcd60e51b815260206004820152603e60248201527f6e6f7420656e6f7567682065746820696e20636f6e74726163742028636f6e7360448201527f69646572696e672065746850656e64696e675769746864726177616c7329000060648201526084016106a4565b336001600160a01b037f000000000000000000000000000000000000000000000000000000000000000016146119915760405162461bcd60e51b81526004016106a4906123e4565b7f00000000000000000000000000000000000000000000000000000000000000006001600160a01b03167f00000000000000000000000000000000000000000000000000000000000000006001600160a01b0316636e296e456040518163ffffffff1660e01b8152600401602060405180830381865afa158015611a17573d5f803e3d5ffd5b505050506040513d601f19601f82011682018060405250810190611a3b919061242c565b6001600160a01b031614611a615760405162461bcd60e51b81526004016106a490612447565b6040805160048082526024820183526020820180516001600160e01b03166339da4b5560e01b1790529151635f7b157760e01b81527f0000000000000000000000000000000000000000000000000000000000000000926001600160a01b03841692635f7b1577928792611afd927f00000000000000000000000000000000000000000000000000000000000000009285928a913391016124fe565b5f604051808303818588803b158015611b14575f80fd5b505af1158015611b26573d5f803e3d5ffd5b5050505050505050565b600260045403611b5357604051633ee5aeb560e01b815260040160405180910390fd5b6002600455565b60408051600580825260c082019092526060915f91906020820160a080368337019050509050865f1b815f81518110611b9557611b95612553565b602002602001018181525050855f1b81600181518110611bb757611bb7612553565b602090810291909101015280516001600160a01b0386169082906002908110611be257611be2612553565b602002602001018181525050835f1b81600381518110611c0457611c04612553565b602002602001018181525050825f1b81600481518110611c2657611c26612553565b60209081029190910101529695505050505050565b3415611ca75760405162461bcd60e51b815260206004820152603560248201527f4d6573736167652076616c756520697320737570706f73656420746f206265206044820152747a65726f20666f722045544820696e7374616e636560581b60648201526084016106a4565b80600a5447611cb69190612398565b10611d3657604080516001600160a01b0385168152602081018490527f7fcf532c15f0a6db0bd6d0e038bea71d30d808c7d98cb3bf7268a95bf5081b65910160405180910390a16040516001600160a01b0384169082156108fc029083905f818181858888f19350505050158015611d30573d5f803e3d5ffd5b50505050565b604080516001600160a01b0385168152602081018490527f39d9cf4ffb93650d8ce789639cb8cf3c8d7b039e1f9795c038af55b4ae643fca910160405180910390a1604080516060810182526001600160a01b038581168252602080830185815260018486018181525f8981526008909452958320945185546001600160a01b0319169416939093178455519183019190915591516002909101805460ff191691151591909117905560098054839290611df19084906124a4565b9091555050505050565b6003545f8054909163ffffffff640100000000909104811691611e2091166002612676565b63ffffffff168163ffffffff1603611e935760405162461bcd60e51b815260206004820152603060248201527f4d65726b6c6520747265652069732066756c6c2e204e6f206d6f7265206c656160448201526f1d995cc818d85b88189948185919195960821b60648201526084016106a4565b80835f80805b5f5463ffffffff9081169082161015611f2f57611eb76002866126a6565b63ffffffff165f03611ef357839250611ed58163ffffffff166111b1565b63ffffffff82165f9081526001602052604090208590559150611f0e565b63ffffffff81165f9081526001602052604090205492508391505b611f188383610d53565b9350611f256002866126c8565b9450600101611e99565b506003545f90601e90611f499063ffffffff1660016126ea565b611f5391906126a6565b6003805463ffffffff191663ffffffff83169081179091555f9081526002602052604090208590559050611f888660016126ea565b6003805463ffffffff929092166401000000000267ffffffff000000001990921691909117905550939695505050505050565b5f815f03611fca57505f919050565b60035463ffffffff16805b63ffffffff81165f908152600260205260409020548403611ffa575060019392505050565b8063ffffffff165f0361200b5750601e5b80612015816123c6565b9150508163ffffffff168163ffffffff1603611fd557505f9392505050565b6001600160a01b038116811461105f575f80fd5b5f805f805f805f60c0888a03121561205e575f80fd5b873596506020880135955060408801359450606088013561207e81612034565b93506080880135925060a088013567ffffffffffffffff808211156120a1575f80fd5b818a0191508a601f8301126120b4575f80fd5b8135818111156120c2575f80fd5b8b60208285010111156120d3575f80fd5b60208301945080935050505092959891949750929550565b5f80604083850312156120fc575f80fd5b823561210781612034565b946020939093013593505050565b5f5b8381101561212f578181015183820152602001612117565b50505f910152565b5f815180845261214e816020860160208601612115565b601f01601f19169290920160200192915050565b602081525f610ddb6020830184612137565b5f60208284031215612184575f80fd5b5035919050565b5f806040838503121561219c575f80fd5b50508035926020909101359150565b63ffffffff8116811461105f575f80fd5b5f602082840312156121cc575f80fd5b8135610ddb816121ab565b5f80602083850312156121e8575f80fd5b823567ffffffffffffffff808211156121ff575f80fd5b818501915085601f830112612212575f80fd5b813581811115612220575f80fd5b8660208260051b8501011115612234575f80fd5b60209290920196919550909350505050565b602080825282518282018190525f9190848201906040850190845b8181101561227f578351151583529284019291840191600101612261565b50909695505050505050565b6040810181835f5b60028110156122b2578151835260209283019290910190600101612293565b50505092915050565b5f602082840312156122cb575f80fd5b5051919050565b60408152826040820152828460608301375f606084830101525f601f19601f850116820160608101602060608584030160208601528186518084526080850191506020880194505f93505b8084101561233d578451825293820193600193909301929082019061231d565b5098975050505050505050565b5f6020828403121561235a575f80fd5b81518015158114610ddb575f80fd5b5f825161237a818460208701612115565b9190910192915050565b634e487b7160e01b5f52601160045260245ffd5b818103818111156109b5576109b5612384565b5f602082840312156123bb575f80fd5b8151610ddb816121ab565b5f63ffffffff8216806123db576123db612384565b5f190192915050565b60208082526028908201527f66756e6374696f6e206e6f742063616c6c6564206279206c315363726f6c6c4d60408201526732b9b9b2b733b2b960c11b606082015260800190565b5f6020828403121561243c575f80fd5b8151610ddb81612034565b6020808252603d908201527f636f6e7472616374206d6573736167696e672066726f6d204c32206973206e6f60408201527f7420746865206c32546f61646e61646f5363726f6c6c41646472657373000000606082015260800190565b808201808211156109b5576109b5612384565b5f60018060a01b03808816835286602084015260a060408401526124de60a0840187612137565b63ffffffff95909516606084015292909216608090910152509392505050565b5f60018060a01b03808816835286602084015260a0604084015261252560a0840187612137565b606084019590955292909216608090910152509392505050565b634e487b7160e01b5f52604160045260245ffd5b634e487b7160e01b5f52603260045260245ffd5b600181815b808511156125a4578163ffffffff0482111561258a5761258a612384565b8085161561259757918102915b93841c939080029061256c565b509250929050565b5f826125ba575060016109b5565b816125c657505f6109b5565b81600181146125dc57600281146125e657612617565b60019150506109b5565b60ff8411156125f7576125f7612384565b6001841b915063ffffffff82111561261157612611612384565b506109b5565b5060208310610133831016604e8410600b841016171561264e575081810a63ffffffff81111561264957612649612384565b6109b5565b6126588383612567565b8063ffffffff0482111561266e5761266e612384565b029392505050565b5f63ffffffff61268a8185168285166125ac565b949350505050565b634e487b7160e01b5f52601260045260245ffd5b5f63ffffffff808416806126bc576126bc612692565b92169190910692915050565b5f63ffffffff808416806126de576126de612692565b92169190910492915050565b63ffffffff8181168382160190808211156118c0576118c061238456fea264697066735822122091fdc46043af5b6c03278deed7b1ed7dece7b1317fc9153ecb28d572866af93364736f6c63430008170033","opcodes":"PUSH1 0xE0 PUSH1 0x40 MSTORE PUSH1 0x3 DUP1 SLOAD PUSH1 0x1 PUSH1 0x1 PUSH1 0x40 SHL SUB NOT AND SWAP1 SSTORE PUSH0 PUSH1 0x9 DUP2 SWAP1 SSTORE PUSH1 0xA SSTORE CALLVALUE DUP1 ISZERO PUSH3 0x29 JUMPI PUSH0 DUP1 REVERT JUMPDEST POP PUSH1 0x40 MLOAD PUSH3 0x30AF CODESIZE SUB DUP1 PUSH3 0x30AF DUP4 CODECOPY DUP2 ADD PUSH1 0x40 DUP2 SWAP1 MSTORE PUSH3 0x4C SWAP2 PUSH3 0x874 JUMP JUMPDEST DUP4 DUP4 DUP1 PUSH0 DUP2 PUSH4 0xFFFFFFFF AND GT PUSH3 0xB6 JUMPI PUSH1 0x40 MLOAD PUSH3 0x461BCD PUSH1 0xE5 SHL DUP2 MSTORE PUSH1 0x20 PUSH1 0x4 DUP3 ADD MSTORE PUSH1 0x23 PUSH1 0x24 DUP3 ADD MSTORE PUSH32 0x5F6C6576656C732073686F756C642062652067726561746572207468616E207A PUSH1 0x44 DUP3 ADD MSTORE PUSH3 0x65726F PUSH1 0xE8 SHL PUSH1 0x64 DUP3 ADD MSTORE PUSH1 0x84 ADD JUMPDEST PUSH1 0x40 MLOAD DUP1 SWAP2 SUB SWAP1 REVERT JUMPDEST PUSH1 0x14 DUP2 PUSH4 0xFFFFFFFF AND LT PUSH3 0x10E JUMPI PUSH1 0x40 MLOAD PUSH3 0x461BCD PUSH1 0xE5 SHL DUP2 MSTORE PUSH1 0x20 PUSH1 0x4 DUP3 ADD MSTORE PUSH1 0x1E PUSH1 0x24 DUP3 ADD MSTORE PUSH32 0x5F6C6576656C732073686F756C64206265206C657373207468616E2032300000 PUSH1 0x44 DUP3 ADD MSTORE PUSH1 0x64 ADD PUSH3 0xAD JUMP JUMPDEST PUSH0 DUP1 SLOAD PUSH4 0xFFFFFFFF NOT AND PUSH4 0xFFFFFFFF DUP4 AND OR DUP2 SSTORE JUMPDEST DUP2 PUSH4 0xFFFFFFFF AND DUP2 PUSH4 0xFFFFFFFF AND LT ISZERO PUSH3 0x16B JUMPI PUSH3 0x149 PUSH4 0xFFFFFFFF DUP3 AND PUSH3 0x1CF JUMP JUMPDEST PUSH4 0xFFFFFFFF DUP3 AND PUSH0 SWAP1 DUP2 MSTORE PUSH1 0x1 PUSH1 0x20 DUP2 SWAP1 MSTORE PUSH1 0x40 SWAP1 SWAP2 KECCAK256 SWAP2 SWAP1 SWAP2 SSTORE ADD PUSH3 0x123 JUMP JUMPDEST POP PUSH3 0x17D PUSH4 0xFFFFFFFF DUP3 AND PUSH3 0x1CF JUMP JUMPDEST PUSH0 DUP1 MSTORE PUSH1 0x2 PUSH1 0x20 MSTORE PUSH32 0xAC33FF75C19E70FE83507DB0D683FD3465C996598DC972688B7ACE676C89077B SSTORE POP POP PUSH1 0x1 PUSH1 0x4 SSTORE PUSH1 0x1 PUSH1 0x1 PUSH1 0xA0 SHL SUB SWAP1 DUP2 AND PUSH1 0x80 MSTORE SWAP2 DUP3 AND PUSH1 0xA0 MSTORE AND PUSH1 0xC0 MSTORE POP PUSH3 0x8D7 SWAP1 POP JUMP JUMPDEST PUSH0 DUP2 PUSH0 SUB PUSH3 0x1DF JUMPI POP PUSH0 SWAP2 SWAP1 POP JUMP JUMPDEST DUP2 PUSH1 0x1 SUB PUSH3 0x20F JUMPI POP PUSH32 0x2098F5FB9E239EAB3CEAC3F27B81E481DC3124D55FFED523A839EE8446B64864 SWAP2 SWAP1 POP JUMP JUMPDEST DUP2 PUSH1 0x2 SUB PUSH3 0x23F JUMPI POP PUSH32 0x1069673DCDB12263DF301A6FF584A7EC261A44CB9DC68DF067A4774460B1F1E1 SWAP2 SWAP1 POP JUMP JUMPDEST DUP2 PUSH1 0x3 SUB PUSH3 0x26F JUMPI POP PUSH32 0x18F43331537EE2AF2E3D758D50F72106467C6EEA50371DD528D57EB2B856D238 SWAP2 SWAP1 POP JUMP JUMPDEST DUP2 PUSH1 0x4 SUB PUSH3 0x29F JUMPI POP PUSH32 0x7F9D837CB17B0D36320FFE93BA52345F1B728571A568265CAAC97559DBC952A SWAP2 SWAP1 POP JUMP JUMPDEST DUP2 PUSH1 0x5 SUB PUSH3 0x2CF JUMPI POP PUSH32 0x2B94CF5E8746B3F5C9631F4C5DF32907A699C58C94B2AD4D7B5CEC1639183F55 SWAP2 SWAP1 POP JUMP JUMPDEST DUP2 PUSH1 0x6 SUB PUSH3 0x2FF JUMPI POP PUSH32 0x2DEE93C5A666459646EA7D22CCA9E1BCFED71E6951B953611D11DDA32EA09D78 SWAP2 SWAP1 POP JUMP JUMPDEST DUP2 PUSH1 0x7 SUB PUSH3 0x32F JUMPI POP PUSH32 0x78295E5A22B84E982CF601EB639597B8B0515A88CB5AC7FA8A4AABE3C87349D SWAP2 SWAP1 POP JUMP JUMPDEST DUP2 PUSH1 0x8 SUB PUSH3 0x35F JUMPI POP PUSH32 0x2FA5E5F18F6027A6501BEC864564472A616B2E274A41211A444CBE3A99F3CC61 SWAP2 SWAP1 POP JUMP JUMPDEST DUP2 PUSH1 0x9 SUB PUSH3 0x38F JUMPI POP PUSH32 0xE884376D0D8FD21ECB780389E941F66E45E7ACCE3E228AB3E2156A614FCD747 SWAP2 SWAP1 POP JUMP JUMPDEST DUP2 PUSH1 0xA SUB PUSH3 0x3BF JUMPI POP PUSH32 0x1B7201DA72494F1E28717AD1A52EB469F95892F957713533DE6175E5DA190AF2 SWAP2 SWAP1 POP JUMP JUMPDEST DUP2 PUSH1 0xB SUB PUSH3 0x3EF JUMPI POP PUSH32 0x1F8D8822725E36385200C0B201249819A6E6E1E4650808B5BEBC6BFACE7D7636 SWAP2 SWAP1 POP JUMP JUMPDEST DUP2 PUSH1 0xC SUB PUSH3 0x41F JUMPI POP PUSH32 0x2C5D82F66C914BAFB9701589BA8CFCFB6162B0A12ACF88A8D0879A0471B5F85A SWAP2 SWAP1 POP JUMP JUMPDEST DUP2 PUSH1 0xD SUB PUSH3 0x44F JUMPI POP PUSH32 0x14C54148A0940BB820957F5ADF3FA1134EF5C4AAA113F4646458F270E0BFBFD0 SWAP2 SWAP1 POP JUMP JUMPDEST DUP2 PUSH1 0xE SUB PUSH3 0x47F JUMPI POP PUSH32 0x190D33B12F986F961E10C0EE44D8B9AF11BE25588CAD89D416118E4BF4EBE80C SWAP2 SWAP1 POP JUMP JUMPDEST DUP2 PUSH1 0xF SUB PUSH3 0x4AF JUMPI POP PUSH32 0x22F98AA9CE704152AC17354914AD73ED1167AE6596AF510AA5B3649325E06C92 SWAP2 SWAP1 POP JUMP JUMPDEST DUP2 PUSH1 0x10 SUB PUSH3 0x4DF JUMPI POP PUSH32 0x2A7C7C9B6CE5880B9F6F228D72BF6A575A526F29C66ECCEEF8B753D38BBA7323 SWAP2 SWAP1 POP JUMP JUMPDEST DUP2 PUSH1 0x11 SUB PUSH3 0x50F JUMPI POP PUSH32 0x2E8186E558698EC1C67AF9C14D463FFC470043C9C2988B954D75DD643F36B992 SWAP2 SWAP1 POP JUMP JUMPDEST DUP2 PUSH1 0x12 SUB PUSH3 0x53F JUMPI POP PUSH32 0xF57C5571E9A4EAB49E2C8CF050DAE948AEF6EAD647392273546249D1C1FF10F SWAP2 SWAP1 POP JUMP JUMPDEST DUP2 PUSH1 0x13 SUB PUSH3 0x56F JUMPI POP PUSH32 0x1830EE67B5FB554AD5F63D4388800E1CFE78E310697D46E43C9CE36134F72CCA SWAP2 SWAP1 POP JUMP JUMPDEST DUP2 PUSH1 0x14 SUB PUSH3 0x59F JUMPI POP PUSH32 0x2134E76AC5D21AAB186C2BE1DD8F84EE880A1E46EAF712F9D371B6DF22191F3E SWAP2 SWAP1 POP JUMP JUMPDEST DUP2 PUSH1 0x15 SUB PUSH3 0x5CF JUMPI POP PUSH32 0x19DF90EC844EBC4FFEEBD866F33859B0C051D8C958EE3AA88F8F8DF3DB91A5B1 SWAP2 SWAP1 POP JUMP JUMPDEST DUP2 PUSH1 0x16 SUB PUSH3 0x5FF JUMPI POP PUSH32 0x18CCA2A66B5C0787981E69AEFD84852D74AF0E93EF4912B4648C05F722EFE52B SWAP2 SWAP1 POP JUMP JUMPDEST DUP2 PUSH1 0x17 SUB PUSH3 0x62F JUMPI POP PUSH32 0x2388909415230D1B4D1304D2D54F473A628338F2EFAD83FADF05644549D2538D SWAP2 SWAP1 POP JUMP JUMPDEST DUP2 PUSH1 0x18 SUB PUSH3 0x65F JUMPI POP PUSH32 0x27171FB4A97B6CC0E9E8F543B5294DE866A2AF2C9C8D0B1D96E673E4529ED540 SWAP2 SWAP1 POP JUMP JUMPDEST DUP2 PUSH1 0x19 SUB PUSH3 0x68F JUMPI POP PUSH32 0x2FF6650540F629FD5711A0BC74FC0D28DCB230B9392583E5F8D59696DDE6AE21 SWAP2 SWAP1 POP JUMP JUMPDEST DUP2 PUSH1 0x1A SUB PUSH3 0x6BF JUMPI POP PUSH32 0x120C58F143D491E95902F7F5277778A2E0AD5168F6ADD75669932630CE611518 SWAP2 SWAP1 POP JUMP JUMPDEST DUP2 PUSH1 0x1B SUB PUSH3 0x6EF JUMPI POP PUSH32 0x1F21FEB70D3F21B07BF853D5E5DB03071EC495A0A565A21DA2D665D279483795 SWAP2 SWAP1 POP JUMP JUMPDEST DUP2 PUSH1 0x1C SUB PUSH3 0x71F JUMPI POP PUSH32 0x24BE905FA71335E14C638CC0F66A8623A826E768068A9E968BB1A1DDE18A72D2 SWAP2 SWAP1 POP JUMP JUMPDEST DUP2 PUSH1 0x1D SUB PUSH3 0x74F JUMPI POP PUSH32 0xF8666B62ED17491C50CEADEAD57D4CD597EF3821D65C328744C74E553DAC26D SWAP2 SWAP1 POP JUMP JUMPDEST DUP2 PUSH1 0x1E SUB PUSH3 0x77F JUMPI POP PUSH32 0x918D46BF52D98B034413F4A1A1C41594E7A7A3F6AE08CB43D1A2A230E1959EF SWAP2 SWAP1 POP JUMP JUMPDEST DUP2 PUSH1 0x1F SUB PUSH3 0x7AF JUMPI POP PUSH32 0x1BBEB01B4C479ECDE76917645E404DFA2E26F90D0AFC5A65128513AD375C5FF2 SWAP2 SWAP1 POP JUMP JUMPDEST DUP2 PUSH1 0x20 SUB PUSH3 0x7DF JUMPI POP PUSH32 0x2F68A1C58E257E42A17A6C61DFF5551ED560B9922AB119D5AC8E184C9734EAD9 SWAP2 SWAP1 POP JUMP JUMPDEST DUP2 PUSH1 0x21 SUB PUSH3 0x80F JUMPI POP PUSH32 0x1102D2F8DB05E4AF4842E8AD3D85ED45EB28447EB7212235A2281D5AB5D81D11 SWAP2 SWAP1 POP JUMP JUMPDEST PUSH1 0x40 MLOAD PUSH3 0x461BCD PUSH1 0xE5 SHL DUP2 MSTORE PUSH1 0x20 PUSH1 0x4 DUP3 ADD MSTORE PUSH1 0x13 PUSH1 0x24 DUP3 ADD MSTORE PUSH32 0x496E646578206F7574206F6620626F756E647300000000000000000000000000 PUSH1 0x44 DUP3 ADD MSTORE PUSH1 0x64 ADD PUSH3 0xAD JUMP JUMPDEST SWAP2 SWAP1 POP JUMP JUMPDEST DUP1 MLOAD PUSH1 0x1 PUSH1 0x1 PUSH1 0xA0 SHL SUB DUP2 AND DUP2 EQ PUSH3 0x858 JUMPI PUSH0 DUP1 REVERT JUMPDEST PUSH0 DUP1 PUSH0 DUP1 PUSH1 0x80 DUP6 DUP8 SUB SLT ISZERO PUSH3 0x888 JUMPI PUSH0 DUP1 REVERT JUMPDEST PUSH3 0x893 DUP6 PUSH3 0x85D JUMP JUMPDEST SWAP4 POP PUSH1 0x20 DUP6 ADD MLOAD PUSH4 0xFFFFFFFF DUP2 AND DUP2 EQ PUSH3 0x8AC JUMPI PUSH0 DUP1 REVERT JUMPDEST SWAP3 POP PUSH3 0x8BC PUSH1 0x40 DUP7 ADD PUSH3 0x85D JUMP JUMPDEST SWAP2 POP PUSH3 0x8CC PUSH1 0x60 DUP7 ADD PUSH3 0x85D JUMP JUMPDEST SWAP1 POP SWAP3 SWAP6 SWAP2 SWAP5 POP SWAP3 POP JUMP JUMPDEST PUSH1 0x80 MLOAD PUSH1 0xA0 MLOAD PUSH1 0xC0 MLOAD PUSH2 0x273D PUSH3 0x972 PUSH0 CODECOPY PUSH0 DUP2 DUP2 PUSH2 0x510 ADD MSTORE DUP2 DUP2 PUSH2 0xB1B ADD MSTORE DUP2 DUP2 PUSH2 0xBFB ADD MSTORE DUP2 DUP2 PUSH2 0xCE7 ADD MSTORE DUP2 DUP2 PUSH2 0xE15 ADD MSTORE DUP2 DUP2 PUSH2 0x1073 ADD MSTORE DUP2 DUP2 PUSH2 0x114B ADD MSTORE DUP2 DUP2 PUSH2 0x1993 ADD MSTORE PUSH2 0x1AD1 ADD MSTORE PUSH0 DUP2 DUP2 PUSH2 0x493 ADD MSTORE DUP2 DUP2 PUSH2 0xBBC ADD MSTORE DUP2 DUP2 PUSH2 0xC25 ADD MSTORE DUP2 DUP2 PUSH2 0xDE4 ADD MSTORE DUP2 DUP2 PUSH2 0x1112 ADD MSTORE DUP2 DUP2 PUSH2 0x1954 ADD MSTORE DUP2 DUP2 PUSH2 0x19BD ADD MSTORE PUSH2 0x1A98 ADD MSTORE PUSH0 DUP2 DUP2 PUSH2 0x29B ADD MSTORE PUSH2 0x80A ADD MSTORE PUSH2 0x273D PUSH0 RETURN INVALID PUSH1 0x80 PUSH1 0x40 MSTORE PUSH1 0x4 CALLDATASIZE LT PUSH2 0x1DB JUMPI PUSH0 CALLDATALOAD PUSH1 0xE0 SHR DUP1 PUSH4 0xB6B55F25 GT PUSH2 0xFD JUMPI DUP1 PUSH4 0xCD87A3B4 GT PUSH2 0x92 JUMPI DUP1 PUSH4 0xEA65BA49 GT PUSH2 0x62 JUMPI DUP1 PUSH4 0xEA65BA49 EQ PUSH2 0x5A8 JUMPI DUP1 PUSH4 0xF178E47C EQ PUSH2 0x5D4 JUMPI DUP1 PUSH4 0xF8AF86E7 EQ PUSH2 0x5FF JUMPI DUP1 PUSH4 0xFC7E9C6F EQ PUSH2 0x61E JUMPI PUSH0 DUP1 REVERT JUMPDEST DUP1 PUSH4 0xCD87A3B4 EQ PUSH2 0x532 JUMPI DUP1 PUSH4 0xD21E82AB EQ PUSH2 0x546 JUMPI DUP1 PUSH4 0xDB394BB9 EQ PUSH2 0x574 JUMPI DUP1 PUSH4 0xE8295588 EQ PUSH2 0x589 JUMPI PUSH0 DUP1 REVERT JUMPDEST DUP1 PUSH4 0xC0E70BBD GT PUSH2 0xCD JUMPI DUP1 PUSH4 0xC0E70BBD EQ PUSH2 0x482 JUMPI DUP1 PUSH4 0xC2B40AE4 EQ PUSH2 0x4B5 JUMPI DUP1 PUSH4 0xC9CA7A61 EQ PUSH2 0x4E0 JUMPI DUP1 PUSH4 0xCC48B735 EQ PUSH2 0x4FF JUMPI PUSH0 DUP1 REVERT JUMPDEST DUP1 PUSH4 0xB6B55F25 EQ PUSH2 0x43C JUMPI DUP1 PUSH4 0xB89D302D EQ PUSH2 0x44F JUMPI DUP1 PUSH4 0xBA70F757 EQ PUSH2 0x398 JUMPI DUP1 PUSH4 0xC068A7FF EQ PUSH2 0x46E JUMPI PUSH0 DUP1 REVERT JUMPDEST DUP1 PUSH4 0x49CE8997 GT PUSH2 0x173 JUMPI DUP1 PUSH4 0x5A129EFE GT PUSH2 0x143 JUMPI DUP1 PUSH4 0x5A129EFE EQ PUSH2 0x3C0 JUMPI DUP1 PUSH4 0x5BB93995 EQ PUSH2 0x3EE JUMPI DUP1 PUSH4 0x90EEB02B EQ PUSH2 0x40D JUMPI DUP1 PUSH4 0x9D7D010F EQ PUSH2 0x429 JUMPI PUSH0 DUP1 REVERT JUMPDEST DUP1 PUSH4 0x49CE8997 EQ PUSH2 0x31B JUMPI DUP1 PUSH4 0x4ECF518B EQ PUSH2 0x349 JUMPI DUP1 PUSH4 0x5032D4F1 EQ PUSH2 0x379 JUMPI DUP1 PUSH4 0x53A4778B EQ PUSH2 0x398 JUMPI PUSH0 DUP1 REVERT JUMPDEST DUP1 PUSH4 0x2B7AC3F3 GT PUSH2 0x1AE JUMPI DUP1 PUSH4 0x2B7AC3F3 EQ PUSH2 0x28A JUMPI DUP1 PUSH4 0x2E585FD8 EQ PUSH2 0x2D5 JUMPI DUP1 PUSH4 0x397A14B4 EQ PUSH2 0x2F4 JUMPI DUP1 PUSH4 0x39DA4B55 EQ PUSH2 0x313 JUMPI PUSH0 DUP1 REVERT JUMPDEST DUP1 PUSH4 0x6E473F2 EQ PUSH2 0x1DF JUMPI DUP1 PUSH4 0x102B72E7 EQ PUSH2 0x1F4 JUMPI DUP1 PUSH4 0x1B5844FF EQ PUSH2 0x229 JUMPI DUP1 PUSH4 0x28482F89 EQ PUSH2 0x24C JUMPI JUMPDEST PUSH0 DUP1 REVERT JUMPDEST PUSH2 0x1F2 PUSH2 0x1ED CALLDATASIZE PUSH1 0x4 PUSH2 0x2048 JUMP JUMPDEST PUSH2 0x642 JUMP JUMPDEST STOP JUMPDEST CALLVALUE DUP1 ISZERO PUSH2 0x1FF JUMPI PUSH0 DUP1 REVERT JUMPDEST POP PUSH2 0x213 PUSH2 0x20E CALLDATASIZE PUSH1 0x4 PUSH2 0x20EB JUMP JUMPDEST PUSH2 0x8D8 JUMP JUMPDEST PUSH1 0x40 MLOAD PUSH2 0x220 SWAP2 SWAP1 PUSH2 0x2162 JUMP JUMPDEST PUSH1 0x40 MLOAD DUP1 SWAP2 SUB SWAP1 RETURN JUMPDEST CALLVALUE DUP1 ISZERO PUSH2 0x234 JUMPI PUSH0 DUP1 REVERT JUMPDEST POP PUSH2 0x23E PUSH1 0xA SLOAD DUP2 JUMP JUMPDEST PUSH1 0x40 MLOAD SWAP1 DUP2 MSTORE PUSH1 0x20 ADD PUSH2 0x220 JUMP JUMPDEST CALLVALUE DUP1 ISZERO PUSH2 0x257 JUMPI PUSH0 DUP1 REVERT JUMPDEST POP PUSH2 0x27A PUSH2 0x266 CALLDATASIZE PUSH1 0x4 PUSH2 0x2174 JUMP JUMPDEST PUSH1 0x7 PUSH1 0x20 MSTORE PUSH0 SWAP1 DUP2 MSTORE PUSH1 0x40 SWAP1 KECCAK256 SLOAD PUSH1 0xFF AND DUP2 JUMP JUMPDEST PUSH1 0x40 MLOAD SWAP1 ISZERO ISZERO DUP2 MSTORE PUSH1 0x20 ADD PUSH2 0x220 JUMP JUMPDEST CALLVALUE DUP1 ISZERO PUSH2 0x295 JUMPI PUSH0 DUP1 REVERT JUMPDEST POP PUSH2 0x2BD PUSH32 0x0 DUP2 JUMP JUMPDEST PUSH1 0x40 MLOAD PUSH1 0x1 PUSH1 0x1 PUSH1 0xA0 SHL SUB SWAP1 SWAP2 AND DUP2 MSTORE PUSH1 0x20 ADD PUSH2 0x220 JUMP JUMPDEST CALLVALUE DUP1 ISZERO PUSH2 0x2E0 JUMPI PUSH0 DUP1 REVERT JUMPDEST POP PUSH2 0x1F2 PUSH2 0x2EF CALLDATASIZE PUSH1 0x4 PUSH2 0x2174 JUMP JUMPDEST PUSH2 0x9BB JUMP JUMPDEST CALLVALUE DUP1 ISZERO PUSH2 0x2FF JUMPI PUSH0 DUP1 REVERT JUMPDEST POP PUSH2 0x27A PUSH2 0x30E CALLDATASIZE PUSH1 0x4 PUSH2 0x2174 JUMP JUMPDEST PUSH2 0xB06 JUMP JUMPDEST PUSH2 0x1F2 PUSH2 0xBB1 JUMP JUMPDEST CALLVALUE DUP1 ISZERO PUSH2 0x326 JUMPI PUSH0 DUP1 REVERT JUMPDEST POP PUSH2 0x27A PUSH2 0x335 CALLDATASIZE PUSH1 0x4 PUSH2 0x2174 JUMP JUMPDEST PUSH1 0x6 PUSH1 0x20 MSTORE PUSH0 SWAP1 DUP2 MSTORE PUSH1 0x40 SWAP1 KECCAK256 SLOAD PUSH1 0xFF AND DUP2 JUMP JUMPDEST CALLVALUE DUP1 ISZERO PUSH2 0x354 JUMPI PUSH0 DUP1 REVERT JUMPDEST POP PUSH0 SLOAD PUSH2 0x364 SWAP1 PUSH4 0xFFFFFFFF AND DUP2 JUMP JUMPDEST PUSH1 0x40 MLOAD PUSH4 0xFFFFFFFF SWAP1 SWAP2 AND DUP2 MSTORE PUSH1 0x20 ADD PUSH2 0x220 JUMP JUMPDEST CALLVALUE DUP1 ISZERO PUSH2 0x384 JUMPI PUSH0 DUP1 REVERT JUMPDEST POP PUSH2 0x23E PUSH2 0x393 CALLDATASIZE PUSH1 0x4 PUSH2 0x2174 JUMP JUMPDEST PUSH2 0xCE1 JUMP JUMPDEST CALLVALUE DUP1 ISZERO PUSH2 0x3A3 JUMPI PUSH0 DUP1 REVERT JUMPDEST POP PUSH1 0x3 SLOAD PUSH4 0xFFFFFFFF AND PUSH0 SWAP1 DUP2 MSTORE PUSH1 0x2 PUSH1 0x20 MSTORE PUSH1 0x40 SWAP1 KECCAK256 SLOAD PUSH2 0x23E JUMP JUMPDEST CALLVALUE DUP1 ISZERO PUSH2 0x3CB JUMPI PUSH0 DUP1 REVERT JUMPDEST POP PUSH2 0x27A PUSH2 0x3DA CALLDATASIZE PUSH1 0x4 PUSH2 0x2174 JUMP JUMPDEST PUSH0 SWAP1 DUP2 MSTORE PUSH1 0x5 PUSH1 0x20 MSTORE PUSH1 0x40 SWAP1 KECCAK256 SLOAD PUSH1 0xFF AND SWAP1 JUMP JUMPDEST CALLVALUE DUP1 ISZERO PUSH2 0x3F9 JUMPI PUSH0 DUP1 REVERT JUMPDEST POP PUSH2 0x23E PUSH2 0x408 CALLDATASIZE PUSH1 0x4 PUSH2 0x218B JUMP JUMPDEST PUSH2 0xD53 JUMP JUMPDEST CALLVALUE DUP1 ISZERO PUSH2 0x418 JUMPI PUSH0 DUP1 REVERT JUMPDEST POP PUSH1 0x3 SLOAD PUSH2 0x364 SWAP1 PUSH4 0xFFFFFFFF AND DUP2 JUMP JUMPDEST PUSH2 0x1F2 PUSH2 0x437 CALLDATASIZE PUSH1 0x4 PUSH2 0x21BC JUMP JUMPDEST PUSH2 0xDE2 JUMP JUMPDEST PUSH2 0x1F2 PUSH2 0x44A CALLDATASIZE PUSH1 0x4 PUSH2 0x2174 JUMP JUMPDEST PUSH2 0xEDC JUMP JUMPDEST CALLVALUE DUP1 ISZERO PUSH2 0x45A JUMPI PUSH0 DUP1 REVERT JUMPDEST POP PUSH2 0x27A PUSH2 0x469 CALLDATASIZE PUSH1 0x4 PUSH2 0x2174 JUMP JUMPDEST PUSH2 0x1062 JUMP JUMPDEST CALLVALUE DUP1 ISZERO PUSH2 0x479 JUMPI PUSH0 DUP1 REVERT JUMPDEST POP PUSH2 0x23E PUSH2 0x106C JUMP JUMPDEST CALLVALUE DUP1 ISZERO PUSH2 0x48D JUMPI PUSH0 DUP1 REVERT JUMPDEST POP PUSH2 0x2BD PUSH32 0x0 DUP2 JUMP JUMPDEST CALLVALUE DUP1 ISZERO PUSH2 0x4C0 JUMPI PUSH0 DUP1 REVERT JUMPDEST POP PUSH2 0x23E PUSH2 0x4CF CALLDATASIZE PUSH1 0x4 PUSH2 0x2174 JUMP JUMPDEST PUSH1 0x2 PUSH1 0x20 MSTORE PUSH0 SWAP1 DUP2 MSTORE PUSH1 0x40 SWAP1 KECCAK256 SLOAD DUP2 JUMP JUMPDEST CALLVALUE DUP1 ISZERO PUSH2 0x4EB JUMPI PUSH0 DUP1 REVERT JUMPDEST POP PUSH2 0x1F2 PUSH2 0x4FA CALLDATASIZE PUSH1 0x4 PUSH2 0x2174 JUMP JUMPDEST PUSH2 0x10C3 JUMP JUMPDEST CALLVALUE DUP1 ISZERO PUSH2 0x50A JUMPI PUSH0 DUP1 REVERT JUMPDEST POP PUSH2 0x2BD PUSH32 0x0 DUP2 JUMP JUMPDEST CALLVALUE DUP1 ISZERO PUSH2 0x53D JUMPI PUSH0 DUP1 REVERT JUMPDEST POP PUSH2 0x364 PUSH1 0x1E DUP2 JUMP JUMPDEST CALLVALUE DUP1 ISZERO PUSH2 0x551 JUMPI PUSH0 DUP1 REVERT JUMPDEST POP PUSH2 0x27A PUSH2 0x560 CALLDATASIZE PUSH1 0x4 PUSH2 0x2174 JUMP JUMPDEST PUSH1 0x5 PUSH1 0x20 MSTORE PUSH0 SWAP1 DUP2 MSTORE PUSH1 0x40 SWAP1 KECCAK256 SLOAD PUSH1 0xFF AND DUP2 JUMP JUMPDEST CALLVALUE DUP1 ISZERO PUSH2 0x57F JUMPI PUSH0 DUP1 REVERT JUMPDEST POP PUSH2 0x23E PUSH1 0x9 SLOAD DUP2 JUMP JUMPDEST CALLVALUE DUP1 ISZERO PUSH2 0x594 JUMPI PUSH0 DUP1 REVERT JUMPDEST POP PUSH2 0x23E PUSH2 0x5A3 CALLDATASIZE PUSH1 0x4 PUSH2 0x2174 JUMP JUMPDEST PUSH2 0x11B1 JUMP JUMPDEST CALLVALUE DUP1 ISZERO PUSH2 0x5B3 JUMPI PUSH0 DUP1 REVERT JUMPDEST POP PUSH2 0x5C7 PUSH2 0x5C2 CALLDATASIZE PUSH1 0x4 PUSH2 0x21D7 JUMP JUMPDEST PUSH2 0x180D JUMP JUMPDEST PUSH1 0x40 MLOAD PUSH2 0x220 SWAP2 SWAP1 PUSH2 0x2246 JUMP JUMPDEST CALLVALUE DUP1 ISZERO PUSH2 0x5DF JUMPI PUSH0 DUP1 REVERT JUMPDEST POP PUSH2 0x23E PUSH2 0x5EE CALLDATASIZE PUSH1 0x4 PUSH2 0x2174 JUMP JUMPDEST PUSH1 0x1 PUSH1 0x20 MSTORE PUSH0 SWAP1 DUP2 MSTORE PUSH1 0x40 SWAP1 KECCAK256 SLOAD DUP2 JUMP JUMPDEST CALLVALUE DUP1 ISZERO PUSH2 0x60A JUMPI PUSH0 DUP1 REVERT JUMPDEST POP PUSH2 0x1F2 PUSH2 0x619 CALLDATASIZE PUSH1 0x4 PUSH2 0x218B JUMP JUMPDEST PUSH2 0x18C7 JUMP JUMPDEST CALLVALUE DUP1 ISZERO PUSH2 0x629 JUMPI PUSH0 DUP1 REVERT JUMPDEST POP PUSH1 0x3 SLOAD PUSH2 0x364 SWAP1 PUSH5 0x100000000 SWAP1 DIV PUSH4 0xFFFFFFFF AND DUP2 JUMP JUMPDEST PUSH2 0x64A PUSH2 0x1B30 JUMP JUMPDEST PUSH0 DUP6 DUP2 MSTORE PUSH1 0x5 PUSH1 0x20 MSTORE PUSH1 0x40 SWAP1 KECCAK256 SLOAD PUSH1 0xFF AND ISZERO PUSH2 0x6AD JUMPI PUSH1 0x40 MLOAD PUSH3 0x461BCD PUSH1 0xE5 SHL DUP2 MSTORE PUSH1 0x20 PUSH1 0x4 DUP3 ADD MSTORE PUSH1 0x1F PUSH1 0x24 DUP3 ADD MSTORE PUSH32 0x546865206E6F746520686173206265656E20616C7265616479207370656E7400 PUSH1 0x44 DUP3 ADD MSTORE PUSH1 0x64 ADD JUMPDEST PUSH1 0x40 MLOAD DUP1 SWAP2 SUB SWAP1 REVERT JUMPDEST PUSH2 0x6B6 DUP7 PUSH2 0x1062 JUMP JUMPDEST PUSH2 0x702 JUMPI PUSH1 0x40 MLOAD PUSH3 0x461BCD PUSH1 0xE5 SHL DUP2 MSTORE PUSH1 0x20 PUSH1 0x4 DUP3 ADD MSTORE PUSH1 0x1F PUSH1 0x24 DUP3 ADD MSTORE PUSH32 0x43616E6E6F742066696E6420796F7572206C32206D65726B6C6520726F6F7400 PUSH1 0x44 DUP3 ADD MSTORE PUSH1 0x64 ADD PUSH2 0x6A4 JUMP JUMPDEST PUSH2 0x70B DUP8 PUSH2 0xB06 JUMP JUMPDEST PUSH2 0x757 JUMPI PUSH1 0x40 MLOAD PUSH3 0x461BCD PUSH1 0xE5 SHL DUP2 MSTORE PUSH1 0x20 PUSH1 0x4 DUP3 ADD MSTORE PUSH1 0x1F PUSH1 0x24 DUP3 ADD MSTORE PUSH32 0x43616E6E6F742066696E6420796F7572206C31206D65726B6C6520726F6F7400 PUSH1 0x44 DUP3 ADD MSTORE PUSH1 0x64 ADD PUSH2 0x6A4 JUMP JUMPDEST PUSH1 0x40 DUP1 MLOAD DUP1 DUP3 ADD DUP3 MSTORE DUP9 DUP2 MSTORE PUSH1 0x20 DUP2 ADD DUP9 SWAP1 MSTORE SWAP1 MLOAD PUSH4 0x2B0AAC7F PUSH1 0xE1 SHL DUP2 MSTORE PUSH0 SWAP2 PUSH20 0x0 SWAP2 PUSH4 0x561558FE SWAP2 PUSH2 0x7A0 SWAP2 PUSH1 0x4 ADD PUSH2 0x228B JUMP JUMPDEST PUSH1 0x20 PUSH1 0x40 MLOAD DUP1 DUP4 SUB DUP2 DUP7 GAS DELEGATECALL ISZERO DUP1 ISZERO PUSH2 0x7BB JUMPI RETURNDATASIZE PUSH0 DUP1 RETURNDATACOPY RETURNDATASIZE PUSH0 REVERT JUMPDEST POP POP POP POP PUSH1 0x40 MLOAD RETURNDATASIZE PUSH1 0x1F NOT PUSH1 0x1F DUP3 ADD AND DUP3 ADD DUP1 PUSH1 0x40 MSTORE POP DUP2 ADD SWAP1 PUSH2 0x7DF SWAP2 SWAP1 PUSH2 0x22BB JUMP JUMPDEST SWAP1 POP CHAINID PUSH0 PUSH2 0x7F0 DUP4 DUP10 DUP10 DUP6 DUP11 PUSH2 0x1B5A JUMP JUMPDEST PUSH1 0x40 MLOAD PUSH4 0x3A943439 PUSH1 0xE2 SHL DUP2 MSTORE SWAP1 SWAP2 POP PUSH1 0x1 PUSH1 0x1 PUSH1 0xA0 SHL SUB PUSH32 0x0 AND SWAP1 PUSH4 0xEA50D0E4 SWAP1 PUSH2 0x843 SWAP1 DUP9 SWAP1 DUP9 SWAP1 DUP7 SWAP1 PUSH1 0x4 ADD PUSH2 0x22D2 JUMP JUMPDEST PUSH1 0x20 PUSH1 0x40 MLOAD DUP1 DUP4 SUB DUP2 DUP7 GAS STATICCALL ISZERO DUP1 ISZERO PUSH2 0x85E JUMPI RETURNDATASIZE PUSH0 DUP1 RETURNDATACOPY RETURNDATASIZE PUSH0 REVERT JUMPDEST POP POP POP POP PUSH1 0x40 MLOAD RETURNDATASIZE PUSH1 0x1F NOT PUSH1 0x1F DUP3 ADD AND DUP3 ADD DUP1 PUSH1 0x40 MSTORE POP DUP2 ADD SWAP1 PUSH2 0x882 SWAP2 SWAP1 PUSH2 0x234A JUMP JUMPDEST PUSH2 0x89F JUMPI PUSH1 0x40 MLOAD PUSH4 0x439CC0CD PUSH1 0xE0 SHL DUP2 MSTORE PUSH1 0x4 ADD PUSH1 0x40 MLOAD DUP1 SWAP2 SUB SWAP1 REVERT JUMPDEST PUSH0 DUP9 DUP2 MSTORE PUSH1 0x5 PUSH1 0x20 MSTORE PUSH1 0x40 SWAP1 KECCAK256 DUP1 SLOAD PUSH1 0xFF NOT AND PUSH1 0x1 OR SWAP1 SSTORE PUSH2 0x8C2 DUP8 DUP10 DUP9 PUSH2 0x1C3B JUMP JUMPDEST POP POP POP PUSH2 0x8CF PUSH1 0x1 PUSH1 0x4 SSTORE JUMP JUMPDEST POP POP POP POP POP POP POP JUMP JUMPDEST PUSH1 0x40 MLOAD PUSH1 0x60 DUP4 DUP2 SHL PUSH12 0xFFFFFFFFFFFFFFFFFFFFFFFF NOT AND PUSH1 0x20 DUP4 ADD MSTORE PUSH1 0x34 DUP3 ADD DUP4 SWAP1 MSTORE SWAP1 PUSH0 SWAP1 PUSH1 0x54 ADD PUSH1 0x40 MLOAD PUSH1 0x20 DUP2 DUP4 SUB SUB DUP2 MSTORE SWAP1 PUSH1 0x40 MSTORE SWAP1 POP PUSH0 PUSH1 0x60 PUSH2 0x101 PUSH1 0x1 PUSH1 0x1 PUSH1 0xA0 SHL SUB AND DUP4 PUSH1 0x40 MLOAD PUSH2 0x92F SWAP2 SWAP1 PUSH2 0x2369 JUMP JUMPDEST PUSH0 PUSH1 0x40 MLOAD DUP1 DUP4 SUB DUP2 DUP6 GAS STATICCALL SWAP2 POP POP RETURNDATASIZE DUP1 PUSH0 DUP2 EQ PUSH2 0x967 JUMPI PUSH1 0x40 MLOAD SWAP2 POP PUSH1 0x1F NOT PUSH1 0x3F RETURNDATASIZE ADD AND DUP3 ADD PUSH1 0x40 MSTORE RETURNDATASIZE DUP3 MSTORE RETURNDATASIZE PUSH0 PUSH1 0x20 DUP5 ADD RETURNDATACOPY PUSH2 0x96C JUMP JUMPDEST PUSH1 0x60 SWAP2 POP JUMPDEST POP SWAP1 SWAP3 POP SWAP1 POP DUP2 PUSH2 0x9B0 JUMPI PUSH1 0x40 MLOAD PUSH3 0x461BCD PUSH1 0xE5 SHL DUP2 MSTORE PUSH1 0x20 PUSH1 0x4 DUP3 ADD MSTORE PUSH1 0xE PUSH1 0x24 DUP3 ADD MSTORE PUSH14 0x130C54D313D0510819985A5B1959 PUSH1 0x92 SHL PUSH1 0x44 DUP3 ADD MSTORE PUSH1 0x64 ADD PUSH2 0x6A4 JUMP JUMPDEST SWAP3 POP POP POP JUMPDEST SWAP3 SWAP2 POP POP JUMP JUMPDEST PUSH0 DUP2 DUP2 MSTORE PUSH1 0x8 PUSH1 0x20 SWAP1 DUP2 MSTORE PUSH1 0x40 SWAP2 DUP3 SWAP1 KECCAK256 DUP3 MLOAD PUSH1 0x60 DUP2 ADD DUP5 MSTORE DUP2 SLOAD PUSH1 0x1 PUSH1 0x1 PUSH1 0xA0 SHL SUB AND DUP2 MSTORE PUSH1 0x1 DUP1 DUP4 ADD SLOAD SWAP4 DUP3 ADD SWAP4 SWAP1 SWAP4 MSTORE PUSH1 0x2 SWAP1 SWAP2 ADD SLOAD PUSH1 0xFF AND ISZERO ISZERO SWAP3 DUP2 ADD DUP4 SWAP1 MSTORE SWAP2 EQ PUSH2 0xA4D JUMPI PUSH1 0x40 MLOAD PUSH3 0x461BCD PUSH1 0xE5 SHL DUP2 MSTORE PUSH1 0x20 PUSH1 0x4 DUP3 ADD DUP2 SWAP1 MSTORE PUSH1 0x24 DUP3 ADD MSTORE PUSH32 0x5468697320776974686472617720697320616C726561647920636C61696D6564 PUSH1 0x44 DUP3 ADD MSTORE PUSH1 0x64 ADD PUSH2 0x6A4 JUMP JUMPDEST PUSH0 DUP3 DUP2 MSTORE PUSH1 0x8 PUSH1 0x20 SWAP1 DUP2 MSTORE PUSH1 0x40 DUP3 KECCAK256 PUSH1 0x2 ADD DUP1 SLOAD PUSH1 0xFF NOT AND SWAP1 SSTORE DUP3 ADD MLOAD PUSH1 0xA DUP1 SLOAD SWAP2 SWAP3 SWAP1 SWAP2 PUSH2 0xA7D SWAP1 DUP5 SWAP1 PUSH2 0x2398 JUMP JUMPDEST SWAP1 SWAP2 SSTORE POP POP DUP1 MLOAD PUSH1 0x20 DUP3 ADD MLOAD PUSH1 0x40 MLOAD PUSH1 0x1 PUSH1 0x1 PUSH1 0xA0 SHL SUB SWAP1 SWAP3 AND SWAP2 DUP2 ISZERO PUSH2 0x8FC MUL SWAP2 SWAP1 PUSH0 DUP2 DUP2 DUP2 DUP6 DUP9 DUP9 CALL SWAP4 POP POP POP POP ISZERO DUP1 ISZERO PUSH2 0xABC JUMPI RETURNDATASIZE PUSH0 DUP1 RETURNDATACOPY RETURNDATASIZE PUSH0 REVERT JUMPDEST POP DUP1 MLOAD PUSH1 0x40 DUP1 MLOAD PUSH1 0x1 PUSH1 0x1 PUSH1 0xA0 SHL SUB SWAP1 SWAP3 AND DUP3 MSTORE PUSH1 0x20 DUP3 ADD DUP5 SWAP1 MSTORE PUSH32 0x7FCF532C15F0A6DB0BD6D0E038BEA71D30D808C7D98CB3BF7268A95BF5081B65 SWAP2 ADD PUSH1 0x40 MLOAD DUP1 SWAP2 SUB SWAP1 LOG1 POP POP JUMP JUMPDEST PUSH0 DUP2 PUSH0 SUB PUSH2 0xB15 JUMPI POP PUSH0 SWAP2 SWAP1 POP JUMP JUMPDEST PUSH0 PUSH2 0xB41 PUSH32 0x0 PUSH1 0x3 PUSH2 0x8D8 JUMP JUMPDEST DUP1 PUSH1 0x20 ADD SWAP1 MLOAD DUP2 ADD SWAP1 PUSH2 0xB54 SWAP2 SWAP1 PUSH2 0x23AB JUMP JUMPDEST SWAP1 POP DUP1 JUMPDEST PUSH2 0xB67 DUP2 PUSH4 0xFFFFFFFF AND PUSH2 0xCE1 JUMP JUMPDEST DUP5 SUB PUSH2 0xB77 JUMPI POP PUSH1 0x1 SWAP4 SWAP3 POP POP POP JUMP JUMPDEST DUP1 PUSH4 0xFFFFFFFF AND PUSH0 SUB PUSH2 0xB88 JUMPI POP PUSH1 0x1E JUMPDEST DUP1 PUSH2 0xB92 DUP2 PUSH2 0x23C6 JUMP JUMPDEST SWAP2 POP POP DUP2 PUSH4 0xFFFFFFFF AND DUP2 PUSH4 0xFFFFFFFF AND SUB PUSH2 0xB58 JUMPI POP PUSH0 SWAP4 SWAP3 POP POP POP JUMP JUMPDEST CALLER PUSH1 0x1 PUSH1 0x1 PUSH1 0xA0 SHL SUB PUSH32 0x0 AND EQ PUSH2 0xBF9 JUMPI PUSH1 0x40 MLOAD PUSH3 0x461BCD PUSH1 0xE5 SHL DUP2 MSTORE PUSH1 0x4 ADD PUSH2 0x6A4 SWAP1 PUSH2 0x23E4 JUMP JUMPDEST PUSH32 0x0 PUSH1 0x1 PUSH1 0x1 PUSH1 0xA0 SHL SUB AND PUSH32 0x0 PUSH1 0x1 PUSH1 0x1 PUSH1 0xA0 SHL SUB AND PUSH4 0x6E296E45 PUSH1 0x40 MLOAD DUP2 PUSH4 0xFFFFFFFF AND PUSH1 0xE0 SHL DUP2 MSTORE PUSH1 0x4 ADD PUSH1 0x20 PUSH1 0x40 MLOAD DUP1 DUP4 SUB DUP2 DUP7 GAS STATICCALL ISZERO DUP1 ISZERO PUSH2 0xC7F JUMPI RETURNDATASIZE PUSH0 DUP1 RETURNDATACOPY RETURNDATASIZE PUSH0 REVERT JUMPDEST POP POP POP POP PUSH1 0x40 MLOAD RETURNDATASIZE PUSH1 0x1F NOT PUSH1 0x1F DUP3 ADD AND DUP3 ADD DUP1 PUSH1 0x40 MSTORE POP DUP2 ADD SWAP1 PUSH2 0xCA3 SWAP2 SWAP1 PUSH2 0x242C JUMP JUMPDEST PUSH1 0x1 PUSH1 0x1 PUSH1 0xA0 SHL SUB AND EQ PUSH2 0xCC9 JUMPI PUSH1 0x40 MLOAD PUSH3 0x461BCD PUSH1 0xE5 SHL DUP2 MSTORE PUSH1 0x4 ADD PUSH2 0x6A4 SWAP1 PUSH2 0x2447 JUMP JUMPDEST CALLVALUE PUSH1 0xA PUSH0 DUP3 DUP3 SLOAD PUSH2 0xCDA SWAP2 SWAP1 PUSH2 0x24A4 JUMP JUMPDEST SWAP1 SWAP2 SSTORE POP POP JUMP JUMPDEST PUSH0 PUSH2 0xD40 PUSH32 0x0 DUP4 PUSH1 0x3 PUSH1 0x40 MLOAD PUSH1 0x20 ADD PUSH2 0xD23 SWAP3 SWAP2 SWAP1 SWAP2 DUP3 MSTORE PUSH1 0x20 DUP3 ADD MSTORE PUSH1 0x40 ADD SWAP1 JUMP JUMPDEST PUSH1 0x40 MLOAD PUSH1 0x20 DUP2 DUP4 SUB SUB DUP2 MSTORE SWAP1 PUSH1 0x40 MSTORE DUP1 MLOAD SWAP1 PUSH1 0x20 ADD KECCAK256 PUSH0 SHR PUSH2 0x8D8 JUMP JUMPDEST DUP1 PUSH1 0x20 ADD SWAP1 MLOAD DUP2 ADD SWAP1 PUSH2 0x9B5 SWAP2 SWAP1 PUSH2 0x22BB JUMP JUMPDEST PUSH1 0x40 DUP1 MLOAD DUP1 DUP3 ADD DUP3 MSTORE DUP4 DUP2 MSTORE PUSH1 0x20 DUP2 ADD DUP4 SWAP1 MSTORE SWAP1 MLOAD PUSH4 0x2B0AAC7F PUSH1 0xE1 SHL DUP2 MSTORE PUSH0 SWAP2 PUSH20 0x0 SWAP2 PUSH4 0x561558FE SWAP2 PUSH2 0xD9C SWAP2 PUSH1 0x4 ADD PUSH2 0x228B JUMP JUMPDEST PUSH1 0x20 PUSH1 0x40 MLOAD DUP1 DUP4 SUB DUP2 DUP7 GAS DELEGATECALL ISZERO DUP1 ISZERO PUSH2 0xDB7 JUMPI RETURNDATASIZE PUSH0 DUP1 RETURNDATACOPY RETURNDATASIZE PUSH0 REVERT JUMPDEST POP POP POP POP PUSH1 0x40 MLOAD RETURNDATASIZE PUSH1 0x1F NOT PUSH1 0x1F DUP3 ADD AND DUP3 ADD DUP1 PUSH1 0x40 MSTORE POP DUP2 ADD SWAP1 PUSH2 0xDDB SWAP2 SWAP1 PUSH2 0x22BB JUMP JUMPDEST SWAP4 SWAP3 POP POP POP JUMP JUMPDEST PUSH32 0x0 PUSH1 0x1 PUSH1 0x1 PUSH1 0xA0 SHL SUB DUP2 AND PUSH4 0x5F7B1577 CALLVALUE PUSH32 0x0 PUSH0 PUSH2 0xE52 PUSH1 0x3 SLOAD PUSH4 0xFFFFFFFF AND PUSH0 SWAP1 DUP2 MSTORE PUSH1 0x2 PUSH1 0x20 MSTORE PUSH1 0x40 SWAP1 KECCAK256 SLOAD SWAP1 JUMP JUMPDEST PUSH1 0x40 MLOAD PUSH1 0x24 ADD PUSH2 0xE64 SWAP2 DUP2 MSTORE PUSH1 0x20 ADD SWAP1 JUMP JUMPDEST PUSH1 0x40 DUP1 MLOAD PUSH1 0x1F NOT DUP2 DUP5 SUB ADD DUP2 MSTORE SWAP2 DUP2 MSTORE PUSH1 0x20 DUP3 ADD DUP1 MLOAD PUSH1 0x1 PUSH1 0x1 PUSH1 0xE0 SHL SUB AND PUSH4 0x6B91E4D5 PUSH1 0xE0 SHL OR SWAP1 MSTORE MLOAD PUSH1 0xE0 DUP7 SWAP1 SHL PUSH1 0x1 PUSH1 0x1 PUSH1 0xE0 SHL SUB NOT AND DUP2 MSTORE PUSH2 0xEB3 SWAP4 SWAP3 SWAP2 SWAP1 DUP10 SWAP1 CALLER SWAP1 PUSH1 0x4 ADD PUSH2 0x24B7 JUMP JUMPDEST PUSH0 PUSH1 0x40 MLOAD DUP1 DUP4 SUB DUP2 DUP6 DUP9 DUP1 EXTCODESIZE ISZERO DUP1 ISZERO PUSH2 0xECA JUMPI PUSH0 DUP1 REVERT JUMPDEST POP GAS CALL ISZERO DUP1 ISZERO PUSH2 0x8CF JUMPI RETURNDATASIZE PUSH0 DUP1 RETURNDATACOPY RETURNDATASIZE PUSH0 REVERT JUMPDEST PUSH2 0xEE4 PUSH2 0x1B30 JUMP JUMPDEST PUSH1 0x40 DUP1 MLOAD DUP1 DUP3 ADD DUP3 MSTORE DUP3 DUP2 MSTORE CALLVALUE PUSH1 0x20 DUP3 ADD DUP2 SWAP1 MSTORE SWAP2 MLOAD PUSH4 0x2B0AAC7F PUSH1 0xE1 SHL DUP2 MSTORE PUSH0 SWAP2 PUSH20 0x0 SWAP2 PUSH4 0x561558FE SWAP2 PUSH2 0xF2E SWAP2 PUSH1 0x4 ADD PUSH2 0x228B JUMP JUMPDEST PUSH1 0x20 PUSH1 0x40 MLOAD DUP1 DUP4 SUB DUP2 DUP7 GAS DELEGATECALL ISZERO DUP1 ISZERO PUSH2 0xF49 JUMPI RETURNDATASIZE PUSH0 DUP1 RETURNDATACOPY RETURNDATASIZE PUSH0 REVERT JUMPDEST POP POP POP POP PUSH1 0x40 MLOAD RETURNDATASIZE PUSH1 0x1F NOT PUSH1 0x1F DUP3 ADD AND DUP3 ADD DUP1 PUSH1 0x40 MSTORE POP DUP2 ADD SWAP1 PUSH2 0xF6D SWAP2 SWAP1 PUSH2 0x22BB JUMP JUMPDEST PUSH0 DUP2 DUP2 MSTORE PUSH1 0x6 PUSH1 0x20 MSTORE PUSH1 0x40 SWAP1 KECCAK256 SLOAD SWAP1 SWAP2 POP PUSH1 0xFF AND ISZERO PUSH2 0xFE0 JUMPI PUSH1 0x40 MLOAD PUSH3 0x461BCD PUSH1 0xE5 SHL DUP2 MSTORE PUSH1 0x20 PUSH1 0x4 DUP3 ADD MSTORE PUSH1 0x29 PUSH1 0x24 DUP3 ADD MSTORE PUSH32 0x54686520636F6D6D69746D656E742068617320616C7265616479206265656E20 PUSH1 0x44 DUP3 ADD MSTORE PUSH9 0x1CDD589B5A5D1D1959 PUSH1 0xBA SHL PUSH1 0x64 DUP3 ADD MSTORE PUSH1 0x84 ADD PUSH2 0x6A4 JUMP JUMPDEST PUSH0 PUSH2 0xFEA DUP3 PUSH2 0x1DFB JUMP JUMPDEST PUSH0 DUP4 DUP2 MSTORE PUSH1 0x6 PUSH1 0x20 MSTORE PUSH1 0x40 SWAP1 DUP2 SWAP1 KECCAK256 DUP1 SLOAD PUSH1 0xFF NOT AND PUSH1 0x1 OR SWAP1 SSTORE MLOAD SWAP1 SWAP2 POP DUP3 SWAP1 PUSH32 0x2813CA2762C14AD53880EF467C7448A9015904C20E064E6216FFB3F63390EC5D SWAP1 PUSH2 0x104A SWAP1 DUP5 SWAP1 TIMESTAMP SWAP1 PUSH4 0xFFFFFFFF SWAP3 SWAP1 SWAP3 AND DUP3 MSTORE PUSH1 0x20 DUP3 ADD MSTORE PUSH1 0x40 ADD SWAP1 JUMP JUMPDEST PUSH1 0x40 MLOAD DUP1 SWAP2 SUB SWAP1 LOG2 POP POP POP PUSH2 0x105F PUSH1 0x1 PUSH1 0x4 SSTORE JUMP JUMPDEST POP JUMP JUMPDEST PUSH0 PUSH2 0x9B5 DUP3 PUSH2 0x1FBB JUMP JUMPDEST PUSH0 DUP1 PUSH2 0x1099 PUSH32 0x0 PUSH1 0x3 PUSH2 0x8D8 JUMP JUMPDEST DUP1 PUSH1 0x20 ADD SWAP1 MLOAD DUP2 ADD SWAP1 PUSH2 0x10AC SWAP2 SWAP1 PUSH2 0x23AB JUMP JUMPDEST SWAP1 POP PUSH2 0x10BD DUP2 PUSH4 0xFFFFFFFF AND PUSH2 0xCE1 JUMP JUMPDEST SWAP2 POP POP SWAP1 JUMP JUMPDEST PUSH1 0x9 SLOAD PUSH1 0x40 DUP1 MLOAD PUSH1 0x24 DUP2 ADD DUP4 SWAP1 MSTORE PUSH1 0x44 DUP1 DUP3 ADD DUP6 SWAP1 MSTORE DUP3 MLOAD DUP1 DUP4 SUB SWAP1 SWAP2 ADD DUP2 MSTORE PUSH1 0x64 SWAP1 SWAP2 ADD DUP3 MSTORE PUSH1 0x20 DUP2 ADD DUP1 MLOAD PUSH1 0x1 PUSH1 0x1 PUSH1 0xE0 SHL SUB AND PUSH4 0xF8AF86E7 PUSH1 0xE0 SHL OR SWAP1 MSTORE SWAP1 MLOAD PUSH4 0x5F7B1577 PUSH1 0xE0 SHL DUP2 MSTORE PUSH32 0x0 SWAP2 PUSH1 0x1 PUSH1 0x1 PUSH1 0xA0 SHL SUB DUP4 AND SWAP2 PUSH4 0x5F7B1577 SWAP2 PUSH0 SWAP2 PUSH2 0x117A SWAP2 PUSH32 0x0 SWAP2 DUP5 SWAP2 SWAP1 DUP11 SWAP1 CALLER SWAP1 PUSH1 0x4 ADD PUSH2 0x24FE JUMP JUMPDEST PUSH0 PUSH1 0x40 MLOAD DUP1 DUP4 SUB DUP2 DUP6 DUP9 DUP1 EXTCODESIZE ISZERO DUP1 ISZERO PUSH2 0x1191 JUMPI PUSH0 DUP1 REVERT JUMPDEST POP GAS CALL ISZERO DUP1 ISZERO PUSH2 0x11A3 JUMPI RETURNDATASIZE PUSH0 DUP1 RETURNDATACOPY RETURNDATASIZE PUSH0 REVERT JUMPDEST POP POP PUSH0 PUSH1 0x9 SSTORE POP POP POP POP POP POP JUMP JUMPDEST PUSH0 DUP2 PUSH0 SUB PUSH2 0x11C0 JUMPI POP PUSH0 SWAP2 SWAP1 POP JUMP JUMPDEST DUP2 PUSH1 0x1 SUB PUSH2 0x11EF JUMPI POP PUSH32 0x2098F5FB9E239EAB3CEAC3F27B81E481DC3124D55FFED523A839EE8446B64864 SWAP2 SWAP1 POP JUMP JUMPDEST DUP2 PUSH1 0x2 SUB PUSH2 0x121E JUMPI POP PUSH32 0x1069673DCDB12263DF301A6FF584A7EC261A44CB9DC68DF067A4774460B1F1E1 SWAP2 SWAP1 POP JUMP JUMPDEST DUP2 PUSH1 0x3 SUB PUSH2 0x124D JUMPI POP PUSH32 0x18F43331537EE2AF2E3D758D50F72106467C6EEA50371DD528D57EB2B856D238 SWAP2 SWAP1 POP JUMP JUMPDEST DUP2 PUSH1 0x4 SUB PUSH2 0x127C JUMPI POP PUSH32 0x7F9D837CB17B0D36320FFE93BA52345F1B728571A568265CAAC97559DBC952A SWAP2 SWAP1 POP JUMP JUMPDEST DUP2 PUSH1 0x5 SUB PUSH2 0x12AB JUMPI POP PUSH32 0x2B94CF5E8746B3F5C9631F4C5DF32907A699C58C94B2AD4D7B5CEC1639183F55 SWAP2 SWAP1 POP JUMP JUMPDEST DUP2 PUSH1 0x6 SUB PUSH2 0x12DA JUMPI POP PUSH32 0x2DEE93C5A666459646EA7D22CCA9E1BCFED71E6951B953611D11DDA32EA09D78 SWAP2 SWAP1 POP JUMP JUMPDEST DUP2 PUSH1 0x7 SUB PUSH2 0x1309 JUMPI POP PUSH32 0x78295E5A22B84E982CF601EB639597B8B0515A88CB5AC7FA8A4AABE3C87349D SWAP2 SWAP1 POP JUMP JUMPDEST DUP2 PUSH1 0x8 SUB PUSH2 0x1338 JUMPI POP PUSH32 0x2FA5E5F18F6027A6501BEC864564472A616B2E274A41211A444CBE3A99F3CC61 SWAP2 SWAP1 POP JUMP JUMPDEST DUP2 PUSH1 0x9 SUB PUSH2 0x1367 JUMPI POP PUSH32 0xE884376D0D8FD21ECB780389E941F66E45E7ACCE3E228AB3E2156A614FCD747 SWAP2 SWAP1 POP JUMP JUMPDEST DUP2 PUSH1 0xA SUB PUSH2 0x1396 JUMPI POP PUSH32 0x1B7201DA72494F1E28717AD1A52EB469F95892F957713533DE6175E5DA190AF2 SWAP2 SWAP1 POP JUMP JUMPDEST DUP2 PUSH1 0xB SUB PUSH2 0x13C5 JUMPI POP PUSH32 0x1F8D8822725E36385200C0B201249819A6E6E1E4650808B5BEBC6BFACE7D7636 SWAP2 SWAP1 POP JUMP JUMPDEST DUP2 PUSH1 0xC SUB PUSH2 0x13F4 JUMPI POP PUSH32 0x2C5D82F66C914BAFB9701589BA8CFCFB6162B0A12ACF88A8D0879A0471B5F85A SWAP2 SWAP1 POP JUMP JUMPDEST DUP2 PUSH1 0xD SUB PUSH2 0x1423 JUMPI POP PUSH32 0x14C54148A0940BB820957F5ADF3FA1134EF5C4AAA113F4646458F270E0BFBFD0 SWAP2 SWAP1 POP JUMP JUMPDEST DUP2 PUSH1 0xE SUB PUSH2 0x1452 JUMPI POP PUSH32 0x190D33B12F986F961E10C0EE44D8B9AF11BE25588CAD89D416118E4BF4EBE80C SWAP2 SWAP1 POP JUMP JUMPDEST DUP2 PUSH1 0xF SUB PUSH2 0x1481 JUMPI POP PUSH32 0x22F98AA9CE704152AC17354914AD73ED1167AE6596AF510AA5B3649325E06C92 SWAP2 SWAP1 POP JUMP JUMPDEST DUP2 PUSH1 0x10 SUB PUSH2 0x14B0 JUMPI POP PUSH32 0x2A7C7C9B6CE5880B9F6F228D72BF6A575A526F29C66ECCEEF8B753D38BBA7323 SWAP2 SWAP1 POP JUMP JUMPDEST DUP2 PUSH1 0x11 SUB PUSH2 0x14DF JUMPI POP PUSH32 0x2E8186E558698EC1C67AF9C14D463FFC470043C9C2988B954D75DD643F36B992 SWAP2 SWAP1 POP JUMP JUMPDEST DUP2 PUSH1 0x12 SUB PUSH2 0x150E JUMPI POP PUSH32 0xF57C5571E9A4EAB49E2C8CF050DAE948AEF6EAD647392273546249D1C1FF10F SWAP2 SWAP1 POP JUMP JUMPDEST DUP2 PUSH1 0x13 SUB PUSH2 0x153D JUMPI POP PUSH32 0x1830EE67B5FB554AD5F63D4388800E1CFE78E310697D46E43C9CE36134F72CCA SWAP2 SWAP1 POP JUMP JUMPDEST DUP2 PUSH1 0x14 SUB PUSH2 0x156C JUMPI POP PUSH32 0x2134E76AC5D21AAB186C2BE1DD8F84EE880A1E46EAF712F9D371B6DF22191F3E SWAP2 SWAP1 POP JUMP JUMPDEST DUP2 PUSH1 0x15 SUB PUSH2 0x159B JUMPI POP PUSH32 0x19DF90EC844EBC4FFEEBD866F33859B0C051D8C958EE3AA88F8F8DF3DB91A5B1 SWAP2 SWAP1 POP JUMP JUMPDEST DUP2 PUSH1 0x16 SUB PUSH2 0x15CA JUMPI POP PUSH32 0x18CCA2A66B5C0787981E69AEFD84852D74AF0E93EF4912B4648C05F722EFE52B SWAP2 SWAP1 POP JUMP JUMPDEST DUP2 PUSH1 0x17 SUB PUSH2 0x15F9 JUMPI POP PUSH32 0x2388909415230D1B4D1304D2D54F473A628338F2EFAD83FADF05644549D2538D SWAP2 SWAP1 POP JUMP JUMPDEST DUP2 PUSH1 0x18 SUB PUSH2 0x1628 JUMPI POP PUSH32 0x27171FB4A97B6CC0E9E8F543B5294DE866A2AF2C9C8D0B1D96E673E4529ED540 SWAP2 SWAP1 POP JUMP JUMPDEST DUP2 PUSH1 0x19 SUB PUSH2 0x1657 JUMPI POP PUSH32 0x2FF6650540F629FD5711A0BC74FC0D28DCB230B9392583E5F8D59696DDE6AE21 SWAP2 SWAP1 POP JUMP JUMPDEST DUP2 PUSH1 0x1A SUB PUSH2 0x1686 JUMPI POP PUSH32 0x120C58F143D491E95902F7F5277778A2E0AD5168F6ADD75669932630CE611518 SWAP2 SWAP1 POP JUMP JUMPDEST DUP2 PUSH1 0x1B SUB PUSH2 0x16B5 JUMPI POP PUSH32 0x1F21FEB70D3F21B07BF853D5E5DB03071EC495A0A565A21DA2D665D279483795 SWAP2 SWAP1 POP JUMP JUMPDEST DUP2 PUSH1 0x1C SUB PUSH2 0x16E4 JUMPI POP PUSH32 0x24BE905FA71335E14C638CC0F66A8623A826E768068A9E968BB1A1DDE18A72D2 SWAP2 SWAP1 POP JUMP JUMPDEST DUP2 PUSH1 0x1D SUB PUSH2 0x1713 JUMPI POP PUSH32 0xF8666B62ED17491C50CEADEAD57D4CD597EF3821D65C328744C74E553DAC26D SWAP2 SWAP1 POP JUMP JUMPDEST DUP2 PUSH1 0x1E SUB PUSH2 0x1742 JUMPI POP PUSH32 0x918D46BF52D98B034413F4A1A1C41594E7A7A3F6AE08CB43D1A2A230E1959EF SWAP2 SWAP1 POP JUMP JUMPDEST DUP2 PUSH1 0x1F SUB PUSH2 0x1771 JUMPI POP PUSH32 0x1BBEB01B4C479ECDE76917645E404DFA2E26F90D0AFC5A65128513AD375C5FF2 SWAP2 SWAP1 POP JUMP JUMPDEST DUP2 PUSH1 0x20 SUB PUSH2 0x17A0 JUMPI POP PUSH32 0x2F68A1C58E257E42A17A6C61DFF5551ED560B9922AB119D5AC8E184C9734EAD9 SWAP2 SWAP1 POP JUMP JUMPDEST DUP2 PUSH1 0x21 SUB PUSH2 0x17CF JUMPI POP PUSH32 0x1102D2F8DB05E4AF4842E8AD3D85ED45EB28447EB7212235A2281D5AB5D81D11 SWAP2 SWAP1 POP JUMP JUMPDEST PUSH1 0x40 MLOAD PUSH3 0x461BCD PUSH1 0xE5 SHL DUP2 MSTORE PUSH1 0x20 PUSH1 0x4 DUP3 ADD MSTORE PUSH1 0x13 PUSH1 0x24 DUP3 ADD MSTORE PUSH19 0x496E646578206F7574206F6620626F756E6473 PUSH1 0x68 SHL PUSH1 0x44 DUP3 ADD MSTORE PUSH1 0x64 ADD PUSH2 0x6A4 JUMP JUMPDEST PUSH1 0x60 DUP2 PUSH8 0xFFFFFFFFFFFFFFFF DUP2 GT ISZERO PUSH2 0x1828 JUMPI PUSH2 0x1828 PUSH2 0x253F JUMP JUMPDEST PUSH1 0x40 MLOAD SWAP1 DUP1 DUP3 MSTORE DUP1 PUSH1 0x20 MUL PUSH1 0x20 ADD DUP3 ADD PUSH1 0x40 MSTORE DUP1 ISZERO PUSH2 0x1851 JUMPI DUP2 PUSH1 0x20 ADD PUSH1 0x20 DUP3 MUL DUP1 CALLDATASIZE DUP4 CALLDATACOPY ADD SWAP1 POP JUMPDEST POP SWAP1 POP PUSH0 JUMPDEST DUP3 DUP2 LT ISZERO PUSH2 0x18C0 JUMPI PUSH2 0x188E DUP5 DUP5 DUP4 DUP2 DUP2 LT PUSH2 0x1873 JUMPI PUSH2 0x1873 PUSH2 0x2553 JUMP JUMPDEST SWAP1 POP PUSH1 0x20 MUL ADD CALLDATALOAD PUSH0 SWAP1 DUP2 MSTORE PUSH1 0x5 PUSH1 0x20 MSTORE PUSH1 0x40 SWAP1 KECCAK256 SLOAD PUSH1 0xFF AND SWAP1 JUMP JUMPDEST ISZERO PUSH2 0x18B8 JUMPI PUSH1 0x1 DUP3 DUP3 DUP2 MLOAD DUP2 LT PUSH2 0x18A7 JUMPI PUSH2 0x18A7 PUSH2 0x2553 JUMP JUMPDEST SWAP2 ISZERO ISZERO PUSH1 0x20 SWAP3 DUP4 MUL SWAP2 SWAP1 SWAP2 ADD SWAP1 SWAP2 ADD MSTORE JUMPDEST PUSH1 0x1 ADD PUSH2 0x1856 JUMP JUMPDEST POP SWAP3 SWAP2 POP POP JUMP JUMPDEST PUSH1 0xA SLOAD PUSH2 0x18D4 SWAP1 SELFBALANCE PUSH2 0x2398 JUMP JUMPDEST DUP3 GT ISZERO PUSH2 0x1949 JUMPI PUSH1 0x40 MLOAD PUSH3 0x461BCD PUSH1 0xE5 SHL DUP2 MSTORE PUSH1 0x20 PUSH1 0x4 DUP3 ADD MSTORE PUSH1 0x3E PUSH1 0x24 DUP3 ADD MSTORE PUSH32 0x6E6F7420656E6F7567682065746820696E20636F6E74726163742028636F6E73 PUSH1 0x44 DUP3 ADD MSTORE PUSH32 0x69646572696E672065746850656E64696E675769746864726177616C73290000 PUSH1 0x64 DUP3 ADD MSTORE PUSH1 0x84 ADD PUSH2 0x6A4 JUMP JUMPDEST CALLER PUSH1 0x1 PUSH1 0x1 PUSH1 0xA0 SHL SUB PUSH32 0x0 AND EQ PUSH2 0x1991 JUMPI PUSH1 0x40 MLOAD PUSH3 0x461BCD PUSH1 0xE5 SHL DUP2 MSTORE PUSH1 0x4 ADD PUSH2 0x6A4 SWAP1 PUSH2 0x23E4 JUMP JUMPDEST PUSH32 0x0 PUSH1 0x1 PUSH1 0x1 PUSH1 0xA0 SHL SUB AND PUSH32 0x0 PUSH1 0x1 PUSH1 0x1 PUSH1 0xA0 SHL SUB AND PUSH4 0x6E296E45 PUSH1 0x40 MLOAD DUP2 PUSH4 0xFFFFFFFF AND PUSH1 0xE0 SHL DUP2 MSTORE PUSH1 0x4 ADD PUSH1 0x20 PUSH1 0x40 MLOAD DUP1 DUP4 SUB DUP2 DUP7 GAS STATICCALL ISZERO DUP1 ISZERO PUSH2 0x1A17 JUMPI RETURNDATASIZE PUSH0 DUP1 RETURNDATACOPY RETURNDATASIZE PUSH0 REVERT JUMPDEST POP POP POP POP PUSH1 0x40 MLOAD RETURNDATASIZE PUSH1 0x1F NOT PUSH1 0x1F DUP3 ADD AND DUP3 ADD DUP1 PUSH1 0x40 MSTORE POP DUP2 ADD SWAP1 PUSH2 0x1A3B SWAP2 SWAP1 PUSH2 0x242C JUMP JUMPDEST PUSH1 0x1 PUSH1 0x1 PUSH1 0xA0 SHL SUB AND EQ PUSH2 0x1A61 JUMPI PUSH1 0x40 MLOAD PUSH3 0x461BCD PUSH1 0xE5 SHL DUP2 MSTORE PUSH1 0x4 ADD PUSH2 0x6A4 SWAP1 PUSH2 0x2447 JUMP JUMPDEST PUSH1 0x40 DUP1 MLOAD PUSH1 0x4 DUP1 DUP3 MSTORE PUSH1 0x24 DUP3 ADD DUP4 MSTORE PUSH1 0x20 DUP3 ADD DUP1 MLOAD PUSH1 0x1 PUSH1 0x1 PUSH1 0xE0 SHL SUB AND PUSH4 0x39DA4B55 PUSH1 0xE0 SHL OR SWAP1 MSTORE SWAP2 MLOAD PUSH4 0x5F7B1577 PUSH1 0xE0 SHL DUP2 MSTORE PUSH32 0x0 SWAP3 PUSH1 0x1 PUSH1 0x1 PUSH1 0xA0 SHL SUB DUP5 AND SWAP3 PUSH4 0x5F7B1577 SWAP3 DUP8 SWAP3 PUSH2 0x1AFD SWAP3 PUSH32 0x0 SWAP3 DUP6 SWAP3 DUP11 SWAP2 CALLER SWAP2 ADD PUSH2 0x24FE JUMP JUMPDEST PUSH0 PUSH1 0x40 MLOAD DUP1 DUP4 SUB DUP2 DUP6 DUP9 DUP1 EXTCODESIZE ISZERO DUP1 ISZERO PUSH2 0x1B14 JUMPI PUSH0 DUP1 REVERT JUMPDEST POP GAS CALL ISZERO DUP1 ISZERO PUSH2 0x1B26 JUMPI RETURNDATASIZE PUSH0 DUP1 RETURNDATACOPY RETURNDATASIZE PUSH0 REVERT JUMPDEST POP POP POP POP POP POP POP POP JUMP JUMPDEST PUSH1 0x2 PUSH1 0x4 SLOAD SUB PUSH2 0x1B53 JUMPI PUSH1 0x40 MLOAD PUSH4 0x3EE5AEB5 PUSH1 0xE0 SHL DUP2 MSTORE PUSH1 0x4 ADD PUSH1 0x40 MLOAD DUP1 SWAP2 SUB SWAP1 REVERT JUMPDEST PUSH1 0x2 PUSH1 0x4 SSTORE JUMP JUMPDEST PUSH1 0x40 DUP1 MLOAD PUSH1 0x5 DUP1 DUP3 MSTORE PUSH1 0xC0 DUP3 ADD SWAP1 SWAP3 MSTORE PUSH1 0x60 SWAP2 PUSH0 SWAP2 SWAP1 PUSH1 0x20 DUP3 ADD PUSH1 0xA0 DUP1 CALLDATASIZE DUP4 CALLDATACOPY ADD SWAP1 POP POP SWAP1 POP DUP7 PUSH0 SHL DUP2 PUSH0 DUP2 MLOAD DUP2 LT PUSH2 0x1B95 JUMPI PUSH2 0x1B95 PUSH2 0x2553 JUMP JUMPDEST PUSH1 0x20 MUL PUSH1 0x20 ADD ADD DUP2 DUP2 MSTORE POP POP DUP6 PUSH0 SHL DUP2 PUSH1 0x1 DUP2 MLOAD DUP2 LT PUSH2 0x1BB7 JUMPI PUSH2 0x1BB7 PUSH2 0x2553 JUMP JUMPDEST PUSH1 0x20 SWAP1 DUP2 MUL SWAP2 SWAP1 SWAP2 ADD ADD MSTORE DUP1 MLOAD PUSH1 0x1 PUSH1 0x1 PUSH1 0xA0 SHL SUB DUP7 AND SWAP1 DUP3 SWAP1 PUSH1 0x2 SWAP1 DUP2 LT PUSH2 0x1BE2 JUMPI PUSH2 0x1BE2 PUSH2 0x2553 JUMP JUMPDEST PUSH1 0x20 MUL PUSH1 0x20 ADD ADD DUP2 DUP2 MSTORE POP POP DUP4 PUSH0 SHL DUP2 PUSH1 0x3 DUP2 MLOAD DUP2 LT PUSH2 0x1C04 JUMPI PUSH2 0x1C04 PUSH2 0x2553 JUMP JUMPDEST PUSH1 0x20 MUL PUSH1 0x20 ADD ADD DUP2 DUP2 MSTORE POP POP DUP3 PUSH0 SHL DUP2 PUSH1 0x4 DUP2 MLOAD DUP2 LT PUSH2 0x1C26 JUMPI PUSH2 0x1C26 PUSH2 0x2553 JUMP JUMPDEST PUSH1 0x20 SWAP1 DUP2 MUL SWAP2 SWAP1 SWAP2 ADD ADD MSTORE SWAP7 SWAP6 POP POP POP POP POP POP JUMP JUMPDEST CALLVALUE ISZERO PUSH2 0x1CA7 JUMPI PUSH1 0x40 MLOAD PUSH3 0x461BCD PUSH1 0xE5 SHL DUP2 MSTORE PUSH1 0x20 PUSH1 0x4 DUP3 ADD MSTORE PUSH1 0x35 PUSH1 0x24 DUP3 ADD MSTORE PUSH32 0x4D6573736167652076616C756520697320737570706F73656420746F20626520 PUSH1 0x44 DUP3 ADD MSTORE PUSH21 0x7A65726F20666F722045544820696E7374616E6365 PUSH1 0x58 SHL PUSH1 0x64 DUP3 ADD MSTORE PUSH1 0x84 ADD PUSH2 0x6A4 JUMP JUMPDEST DUP1 PUSH1 0xA SLOAD SELFBALANCE PUSH2 0x1CB6 SWAP2 SWAP1 PUSH2 0x2398 JUMP JUMPDEST LT PUSH2 0x1D36 JUMPI PUSH1 0x40 DUP1 MLOAD PUSH1 0x1 PUSH1 0x1 PUSH1 0xA0 SHL SUB DUP6 AND DUP2 MSTORE PUSH1 0x20 DUP2 ADD DUP5 SWAP1 MSTORE PUSH32 0x7FCF532C15F0A6DB0BD6D0E038BEA71D30D808C7D98CB3BF7268A95BF5081B65 SWAP2 ADD PUSH1 0x40 MLOAD DUP1 SWAP2 SUB SWAP1 LOG1 PUSH1 0x40 MLOAD PUSH1 0x1 PUSH1 0x1 PUSH1 0xA0 SHL SUB DUP5 AND SWAP1 DUP3 ISZERO PUSH2 0x8FC MUL SWAP1 DUP4 SWAP1 PUSH0 DUP2 DUP2 DUP2 DUP6 DUP9 DUP9 CALL SWAP4 POP POP POP POP ISZERO DUP1 ISZERO PUSH2 0x1D30 JUMPI RETURNDATASIZE PUSH0 DUP1 RETURNDATACOPY RETURNDATASIZE PUSH0 REVERT JUMPDEST POP POP POP POP JUMP JUMPDEST PUSH1 0x40 DUP1 MLOAD PUSH1 0x1 PUSH1 0x1 PUSH1 0xA0 SHL SUB DUP6 AND DUP2 MSTORE PUSH1 0x20 DUP2 ADD DUP5 SWAP1 MSTORE PUSH32 0x39D9CF4FFB93650D8CE789639CB8CF3C8D7B039E1F9795C038AF55B4AE643FCA SWAP2 ADD PUSH1 0x40 MLOAD DUP1 SWAP2 SUB SWAP1 LOG1 PUSH1 0x40 DUP1 MLOAD PUSH1 0x60 DUP2 ADD DUP3 MSTORE PUSH1 0x1 PUSH1 0x1 PUSH1 0xA0 SHL SUB DUP6 DUP2 AND DUP3 MSTORE PUSH1 0x20 DUP1 DUP4 ADD DUP6 DUP2 MSTORE PUSH1 0x1 DUP5 DUP7 ADD DUP2 DUP2 MSTORE PUSH0 DUP10 DUP2 MSTORE PUSH1 0x8 SWAP1 SWAP5 MSTORE SWAP6 DUP4 KECCAK256 SWAP5 MLOAD DUP6 SLOAD PUSH1 0x1 PUSH1 0x1 PUSH1 0xA0 SHL SUB NOT AND SWAP5 AND SWAP4 SWAP1 SWAP4 OR DUP5 SSTORE MLOAD SWAP2 DUP4 ADD SWAP2 SWAP1 SWAP2 SSTORE SWAP2 MLOAD PUSH1 0x2 SWAP1 SWAP2 ADD DUP1 SLOAD PUSH1 0xFF NOT AND SWAP2 ISZERO ISZERO SWAP2 SWAP1 SWAP2 OR SWAP1 SSTORE PUSH1 0x9 DUP1 SLOAD DUP4 SWAP3 SWAP1 PUSH2 0x1DF1 SWAP1 DUP5 SWAP1 PUSH2 0x24A4 JUMP JUMPDEST SWAP1 SWAP2 SSTORE POP POP POP POP POP JUMP JUMPDEST PUSH1 0x3 SLOAD PUSH0 DUP1 SLOAD SWAP1 SWAP2 PUSH4 0xFFFFFFFF PUSH5 0x100000000 SWAP1 SWAP2 DIV DUP2 AND SWAP2 PUSH2 0x1E20 SWAP2 AND PUSH1 0x2 PUSH2 0x2676 JUMP JUMPDEST PUSH4 0xFFFFFFFF AND DUP2 PUSH4 0xFFFFFFFF AND SUB PUSH2 0x1E93 JUMPI PUSH1 0x40 MLOAD PUSH3 0x461BCD PUSH1 0xE5 SHL DUP2 MSTORE PUSH1 0x20 PUSH1 0x4 DUP3 ADD MSTORE PUSH1 0x30 PUSH1 0x24 DUP3 ADD MSTORE PUSH32 0x4D65726B6C6520747265652069732066756C6C2E204E6F206D6F7265206C6561 PUSH1 0x44 DUP3 ADD MSTORE PUSH16 0x1D995CC818D85B881899481859191959 PUSH1 0x82 SHL PUSH1 0x64 DUP3 ADD MSTORE PUSH1 0x84 ADD PUSH2 0x6A4 JUMP JUMPDEST DUP1 DUP4 PUSH0 DUP1 DUP1 JUMPDEST PUSH0 SLOAD PUSH4 0xFFFFFFFF SWAP1 DUP2 AND SWAP1 DUP3 AND LT ISZERO PUSH2 0x1F2F JUMPI PUSH2 0x1EB7 PUSH1 0x2 DUP7 PUSH2 0x26A6 JUMP JUMPDEST PUSH4 0xFFFFFFFF AND PUSH0 SUB PUSH2 0x1EF3 JUMPI DUP4 SWAP3 POP PUSH2 0x1ED5 DUP2 PUSH4 0xFFFFFFFF AND PUSH2 0x11B1 JUMP JUMPDEST PUSH4 0xFFFFFFFF DUP3 AND PUSH0 SWAP1 DUP2 MSTORE PUSH1 0x1 PUSH1 0x20 MSTORE PUSH1 0x40 SWAP1 KECCAK256 DUP6 SWAP1 SSTORE SWAP2 POP PUSH2 0x1F0E JUMP JUMPDEST PUSH4 0xFFFFFFFF DUP2 AND PUSH0 SWAP1 DUP2 MSTORE PUSH1 0x1 PUSH1 0x20 MSTORE PUSH1 0x40 SWAP1 KECCAK256 SLOAD SWAP3 POP DUP4 SWAP2 POP JUMPDEST PUSH2 0x1F18 DUP4 DUP4 PUSH2 0xD53 JUMP JUMPDEST SWAP4 POP PUSH2 0x1F25 PUSH1 0x2 DUP7 PUSH2 0x26C8 JUMP JUMPDEST SWAP5 POP PUSH1 0x1 ADD PUSH2 0x1E99 JUMP JUMPDEST POP PUSH1 0x3 SLOAD PUSH0 SWAP1 PUSH1 0x1E SWAP1 PUSH2 0x1F49 SWAP1 PUSH4 0xFFFFFFFF AND PUSH1 0x1 PUSH2 0x26EA JUMP JUMPDEST PUSH2 0x1F53 SWAP2 SWAP1 PUSH2 0x26A6 JUMP JUMPDEST PUSH1 0x3 DUP1 SLOAD PUSH4 0xFFFFFFFF NOT AND PUSH4 0xFFFFFFFF DUP4 AND SWAP1 DUP2 OR SWAP1 SWAP2 SSTORE PUSH0 SWAP1 DUP2 MSTORE PUSH1 0x2 PUSH1 0x20 MSTORE PUSH1 0x40 SWAP1 KECCAK256 DUP6 SWAP1 SSTORE SWAP1 POP PUSH2 0x1F88 DUP7 PUSH1 0x1 PUSH2 0x26EA JUMP JUMPDEST PUSH1 0x3 DUP1 SLOAD PUSH4 0xFFFFFFFF SWAP3 SWAP1 SWAP3 AND PUSH5 0x100000000 MUL PUSH8 0xFFFFFFFF00000000 NOT SWAP1 SWAP3 AND SWAP2 SWAP1 SWAP2 OR SWAP1 SSTORE POP SWAP4 SWAP7 SWAP6 POP POP POP POP POP POP JUMP JUMPDEST PUSH0 DUP2 PUSH0 SUB PUSH2 0x1FCA JUMPI POP PUSH0 SWAP2 SWAP1 POP JUMP JUMPDEST PUSH1 0x3 SLOAD PUSH4 0xFFFFFFFF AND DUP1 JUMPDEST PUSH4 0xFFFFFFFF DUP2 AND PUSH0 SWAP1 DUP2 MSTORE PUSH1 0x2 PUSH1 0x20 MSTORE PUSH1 0x40 SWAP1 KECCAK256 SLOAD DUP5 SUB PUSH2 0x1FFA JUMPI POP PUSH1 0x1 SWAP4 SWAP3 POP POP POP JUMP JUMPDEST DUP1 PUSH4 0xFFFFFFFF AND PUSH0 SUB PUSH2 0x200B JUMPI POP PUSH1 0x1E JUMPDEST DUP1 PUSH2 0x2015 DUP2 PUSH2 0x23C6 JUMP JUMPDEST SWAP2 POP POP DUP2 PUSH4 0xFFFFFFFF AND DUP2 PUSH4 0xFFFFFFFF AND SUB PUSH2 0x1FD5 JUMPI POP PUSH0 SWAP4 SWAP3 POP POP POP JUMP JUMPDEST PUSH1 0x1 PUSH1 0x1 PUSH1 0xA0 SHL SUB DUP2 AND DUP2 EQ PUSH2 0x105F JUMPI PUSH0 DUP1 REVERT JUMPDEST PUSH0 DUP1 PUSH0 DUP1 PUSH0 DUP1 PUSH0 PUSH1 0xC0 DUP9 DUP11 SUB SLT ISZERO PUSH2 0x205E JUMPI PUSH0 DUP1 REVERT JUMPDEST DUP8 CALLDATALOAD SWAP7 POP PUSH1 0x20 DUP9 ADD CALLDATALOAD SWAP6 POP PUSH1 0x40 DUP9 ADD CALLDATALOAD SWAP5 POP PUSH1 0x60 DUP9 ADD CALLDATALOAD PUSH2 0x207E DUP2 PUSH2 0x2034 JUMP JUMPDEST SWAP4 POP PUSH1 0x80 DUP9 ADD CALLDATALOAD SWAP3 POP PUSH1 0xA0 DUP9 ADD CALLDATALOAD PUSH8 0xFFFFFFFFFFFFFFFF DUP1 DUP3 GT ISZERO PUSH2 0x20A1 JUMPI PUSH0 DUP1 REVERT JUMPDEST DUP2 DUP11 ADD SWAP2 POP DUP11 PUSH1 0x1F DUP4 ADD SLT PUSH2 0x20B4 JUMPI PUSH0 DUP1 REVERT JUMPDEST DUP2 CALLDATALOAD DUP2 DUP2 GT ISZERO PUSH2 0x20C2 JUMPI PUSH0 DUP1 REVERT JUMPDEST DUP12 PUSH1 0x20 DUP3 DUP6 ADD ADD GT ISZERO PUSH2 0x20D3 JUMPI PUSH0 DUP1 REVERT JUMPDEST PUSH1 0x20 DUP4 ADD SWAP5 POP DUP1 SWAP4 POP POP POP POP SWAP3 SWAP6 SWAP9 SWAP2 SWAP5 SWAP8 POP SWAP3 SWAP6 POP JUMP JUMPDEST PUSH0 DUP1 PUSH1 0x40 DUP4 DUP6 SUB SLT ISZERO PUSH2 0x20FC JUMPI PUSH0 DUP1 REVERT JUMPDEST DUP3 CALLDATALOAD PUSH2 0x2107 DUP2 PUSH2 0x2034 JUMP JUMPDEST SWAP5 PUSH1 0x20 SWAP4 SWAP1 SWAP4 ADD CALLDATALOAD SWAP4 POP POP POP JUMP JUMPDEST PUSH0 JUMPDEST DUP4 DUP2 LT ISZERO PUSH2 0x212F JUMPI DUP2 DUP2 ADD MLOAD DUP4 DUP3 ADD MSTORE PUSH1 0x20 ADD PUSH2 0x2117 JUMP JUMPDEST POP POP PUSH0 SWAP2 ADD MSTORE JUMP JUMPDEST PUSH0 DUP2 MLOAD DUP1 DUP5 MSTORE PUSH2 0x214E DUP2 PUSH1 0x20 DUP7 ADD PUSH1 0x20 DUP7 ADD PUSH2 0x2115 JUMP JUMPDEST PUSH1 0x1F ADD PUSH1 0x1F NOT AND SWAP3 SWAP1 SWAP3 ADD PUSH1 0x20 ADD SWAP3 SWAP2 POP POP JUMP JUMPDEST PUSH1 0x20 DUP2 MSTORE PUSH0 PUSH2 0xDDB PUSH1 0x20 DUP4 ADD DUP5 PUSH2 0x2137 JUMP JUMPDEST PUSH0 PUSH1 0x20 DUP3 DUP5 SUB SLT ISZERO PUSH2 0x2184 JUMPI PUSH0 DUP1 REVERT JUMPDEST POP CALLDATALOAD SWAP2 SWAP1 POP JUMP JUMPDEST PUSH0 DUP1 PUSH1 0x40 DUP4 DUP6 SUB SLT ISZERO PUSH2 0x219C JUMPI PUSH0 DUP1 REVERT JUMPDEST POP POP DUP1 CALLDATALOAD SWAP3 PUSH1 0x20 SWAP1 SWAP2 ADD CALLDATALOAD SWAP2 POP JUMP JUMPDEST PUSH4 0xFFFFFFFF DUP2 AND DUP2 EQ PUSH2 0x105F JUMPI PUSH0 DUP1 REVERT JUMPDEST PUSH0 PUSH1 0x20 DUP3 DUP5 SUB SLT ISZERO PUSH2 0x21CC JUMPI PUSH0 DUP1 REVERT JUMPDEST DUP2 CALLDATALOAD PUSH2 0xDDB DUP2 PUSH2 0x21AB JUMP JUMPDEST PUSH0 DUP1 PUSH1 0x20 DUP4 DUP6 SUB SLT ISZERO PUSH2 0x21E8 JUMPI PUSH0 DUP1 REVERT JUMPDEST DUP3 CALLDATALOAD PUSH8 0xFFFFFFFFFFFFFFFF DUP1 DUP3 GT ISZERO PUSH2 0x21FF JUMPI PUSH0 DUP1 REVERT JUMPDEST DUP2 DUP6 ADD SWAP2 POP DUP6 PUSH1 0x1F DUP4 ADD SLT PUSH2 0x2212 JUMPI PUSH0 DUP1 REVERT JUMPDEST DUP2 CALLDATALOAD DUP2 DUP2 GT ISZERO PUSH2 0x2220 JUMPI PUSH0 DUP1 REVERT JUMPDEST DUP7 PUSH1 0x20 DUP3 PUSH1 0x5 SHL DUP6 ADD ADD GT ISZERO PUSH2 0x2234 JUMPI PUSH0 DUP1 REVERT JUMPDEST PUSH1 0x20 SWAP3 SWAP1 SWAP3 ADD SWAP7 SWAP2 SWAP6 POP SWAP1 SWAP4 POP POP POP POP JUMP JUMPDEST PUSH1 0x20 DUP1 DUP3 MSTORE DUP3 MLOAD DUP3 DUP3 ADD DUP2 SWAP1 MSTORE PUSH0 SWAP2 SWAP1 DUP5 DUP3 ADD SWAP1 PUSH1 0x40 DUP6 ADD SWAP1 DUP5 JUMPDEST DUP2 DUP2 LT ISZERO PUSH2 0x227F JUMPI DUP4 MLOAD ISZERO ISZERO DUP4 MSTORE SWAP3 DUP5 ADD SWAP3 SWAP2 DUP5 ADD SWAP2 PUSH1 0x1 ADD PUSH2 0x2261 JUMP JUMPDEST POP SWAP1 SWAP7 SWAP6 POP POP POP POP POP POP JUMP JUMPDEST PUSH1 0x40 DUP2 ADD DUP2 DUP4 PUSH0 JUMPDEST PUSH1 0x2 DUP2 LT ISZERO PUSH2 0x22B2 JUMPI DUP2 MLOAD DUP4 MSTORE PUSH1 0x20 SWAP3 DUP4 ADD SWAP3 SWAP1 SWAP2 ADD SWAP1 PUSH1 0x1 ADD PUSH2 0x2293 JUMP JUMPDEST POP POP POP SWAP3 SWAP2 POP POP JUMP JUMPDEST PUSH0 PUSH1 0x20 DUP3 DUP5 SUB SLT ISZERO PUSH2 0x22CB JUMPI PUSH0 DUP1 REVERT JUMPDEST POP MLOAD SWAP2 SWAP1 POP JUMP JUMPDEST PUSH1 0x40 DUP2 MSTORE DUP3 PUSH1 0x40 DUP3 ADD MSTORE DUP3 DUP5 PUSH1 0x60 DUP4 ADD CALLDATACOPY PUSH0 PUSH1 0x60 DUP5 DUP4 ADD ADD MSTORE PUSH0 PUSH1 0x1F NOT PUSH1 0x1F DUP6 ADD AND DUP3 ADD PUSH1 0x60 DUP2 ADD PUSH1 0x20 PUSH1 0x60 DUP6 DUP5 SUB ADD PUSH1 0x20 DUP7 ADD MSTORE DUP2 DUP7 MLOAD DUP1 DUP5 MSTORE PUSH1 0x80 DUP6 ADD SWAP2 POP PUSH1 0x20 DUP9 ADD SWAP5 POP PUSH0 SWAP4 POP JUMPDEST DUP1 DUP5 LT ISZERO PUSH2 0x233D JUMPI DUP5 MLOAD DUP3 MSTORE SWAP4 DUP3 ADD SWAP4 PUSH1 0x1 SWAP4 SWAP1 SWAP4 ADD SWAP3 SWAP1 DUP3 ADD SWAP1 PUSH2 0x231D JUMP JUMPDEST POP SWAP9 SWAP8 POP POP POP POP POP POP POP POP JUMP JUMPDEST PUSH0 PUSH1 0x20 DUP3 DUP5 SUB SLT ISZERO PUSH2 0x235A JUMPI PUSH0 DUP1 REVERT JUMPDEST DUP2 MLOAD DUP1 ISZERO ISZERO DUP2 EQ PUSH2 0xDDB JUMPI PUSH0 DUP1 REVERT JUMPDEST PUSH0 DUP3 MLOAD PUSH2 0x237A DUP2 DUP5 PUSH1 0x20 DUP8 ADD PUSH2 0x2115 JUMP JUMPDEST SWAP2 SWAP1 SWAP2 ADD SWAP3 SWAP2 POP POP JUMP JUMPDEST PUSH4 0x4E487B71 PUSH1 0xE0 SHL PUSH0 MSTORE PUSH1 0x11 PUSH1 0x4 MSTORE PUSH1 0x24 PUSH0 REVERT JUMPDEST DUP2 DUP2 SUB DUP2 DUP2 GT ISZERO PUSH2 0x9B5 JUMPI PUSH2 0x9B5 PUSH2 0x2384 JUMP JUMPDEST PUSH0 PUSH1 0x20 DUP3 DUP5 SUB SLT ISZERO PUSH2 0x23BB JUMPI PUSH0 DUP1 REVERT JUMPDEST DUP2 MLOAD PUSH2 0xDDB DUP2 PUSH2 0x21AB JUMP JUMPDEST PUSH0 PUSH4 0xFFFFFFFF DUP3 AND DUP1 PUSH2 0x23DB JUMPI PUSH2 0x23DB PUSH2 0x2384 JUMP JUMPDEST PUSH0 NOT ADD SWAP3 SWAP2 POP POP JUMP JUMPDEST PUSH1 0x20 DUP1 DUP3 MSTORE PUSH1 0x28 SWAP1 DUP3 ADD MSTORE PUSH32 0x66756E6374696F6E206E6F742063616C6C6564206279206C315363726F6C6C4D PUSH1 0x40 DUP3 ADD MSTORE PUSH8 0x32B9B9B2B733B2B9 PUSH1 0xC1 SHL PUSH1 0x60 DUP3 ADD MSTORE PUSH1 0x80 ADD SWAP1 JUMP JUMPDEST PUSH0 PUSH1 0x20 DUP3 DUP5 SUB SLT ISZERO PUSH2 0x243C JUMPI PUSH0 DUP1 REVERT JUMPDEST DUP2 MLOAD PUSH2 0xDDB DUP2 PUSH2 0x2034 JUMP JUMPDEST PUSH1 0x20 DUP1 DUP3 MSTORE PUSH1 0x3D SWAP1 DUP3 ADD MSTORE PUSH32 0x636F6E7472616374206D6573736167696E672066726F6D204C32206973206E6F PUSH1 0x40 DUP3 ADD MSTORE PUSH32 0x7420746865206C32546F61646E61646F5363726F6C6C41646472657373000000 PUSH1 0x60 DUP3 ADD MSTORE PUSH1 0x80 ADD SWAP1 JUMP JUMPDEST DUP1 DUP3 ADD DUP1 DUP3 GT ISZERO PUSH2 0x9B5 JUMPI PUSH2 0x9B5 PUSH2 0x2384 JUMP JUMPDEST PUSH0 PUSH1 0x1 DUP1 PUSH1 0xA0 SHL SUB DUP1 DUP9 AND DUP4 MSTORE DUP7 PUSH1 0x20 DUP5 ADD MSTORE PUSH1 0xA0 PUSH1 0x40 DUP5 ADD MSTORE PUSH2 0x24DE PUSH1 0xA0 DUP5 ADD DUP8 PUSH2 0x2137 JUMP JUMPDEST PUSH4 0xFFFFFFFF SWAP6 SWAP1 SWAP6 AND PUSH1 0x60 DUP5 ADD MSTORE SWAP3 SWAP1 SWAP3 AND PUSH1 0x80 SWAP1 SWAP2 ADD MSTORE POP SWAP4 SWAP3 POP POP POP JUMP JUMPDEST PUSH0 PUSH1 0x1 DUP1 PUSH1 0xA0 SHL SUB DUP1 DUP9 AND DUP4 MSTORE DUP7 PUSH1 0x20 DUP5 ADD MSTORE PUSH1 0xA0 PUSH1 0x40 DUP5 ADD MSTORE PUSH2 0x2525 PUSH1 0xA0 DUP5 ADD DUP8 PUSH2 0x2137 JUMP JUMPDEST PUSH1 0x60 DUP5 ADD SWAP6 SWAP1 SWAP6 MSTORE SWAP3 SWAP1 SWAP3 AND PUSH1 0x80 SWAP1 SWAP2 ADD MSTORE POP SWAP4 SWAP3 POP POP POP JUMP JUMPDEST PUSH4 0x4E487B71 PUSH1 0xE0 SHL PUSH0 MSTORE PUSH1 0x41 PUSH1 0x4 MSTORE PUSH1 0x24 PUSH0 REVERT JUMPDEST PUSH4 0x4E487B71 PUSH1 0xE0 SHL PUSH0 MSTORE PUSH1 0x32 PUSH1 0x4 MSTORE PUSH1 0x24 PUSH0 REVERT JUMPDEST PUSH1 0x1 DUP2 DUP2 JUMPDEST DUP1 DUP6 GT ISZERO PUSH2 0x25A4 JUMPI DUP2 PUSH4 0xFFFFFFFF DIV DUP3 GT ISZERO PUSH2 0x258A JUMPI PUSH2 0x258A PUSH2 0x2384 JUMP JUMPDEST DUP1 DUP6 AND ISZERO PUSH2 0x2597 JUMPI SWAP2 DUP2 MUL SWAP2 JUMPDEST SWAP4 DUP5 SHR SWAP4 SWAP1 DUP1 MUL SWAP1 PUSH2 0x256C JUMP JUMPDEST POP SWAP3 POP SWAP3 SWAP1 POP JUMP JUMPDEST PUSH0 DUP3 PUSH2 0x25BA JUMPI POP PUSH1 0x1 PUSH2 0x9B5 JUMP JUMPDEST DUP2 PUSH2 0x25C6 JUMPI POP PUSH0 PUSH2 0x9B5 JUMP JUMPDEST DUP2 PUSH1 0x1 DUP2 EQ PUSH2 0x25DC JUMPI PUSH1 0x2 DUP2 EQ PUSH2 0x25E6 JUMPI PUSH2 0x2617 JUMP JUMPDEST PUSH1 0x1 SWAP2 POP POP PUSH2 0x9B5 JUMP JUMPDEST PUSH1 0xFF DUP5 GT ISZERO PUSH2 0x25F7 JUMPI PUSH2 0x25F7 PUSH2 0x2384 JUMP JUMPDEST PUSH1 0x1 DUP5 SHL SWAP2 POP PUSH4 0xFFFFFFFF DUP3 GT ISZERO PUSH2 0x2611 JUMPI PUSH2 0x2611 PUSH2 0x2384 JUMP JUMPDEST POP PUSH2 0x9B5 JUMP JUMPDEST POP PUSH1 0x20 DUP4 LT PUSH2 0x133 DUP4 LT AND PUSH1 0x4E DUP5 LT PUSH1 0xB DUP5 LT AND OR ISZERO PUSH2 0x264E JUMPI POP DUP2 DUP2 EXP PUSH4 0xFFFFFFFF DUP2 GT ISZERO PUSH2 0x2649 JUMPI PUSH2 0x2649 PUSH2 0x2384 JUMP JUMPDEST PUSH2 0x9B5 JUMP JUMPDEST PUSH2 0x2658 DUP4 DUP4 PUSH2 0x2567 JUMP JUMPDEST DUP1 PUSH4 0xFFFFFFFF DIV DUP3 GT ISZERO PUSH2 0x266E JUMPI PUSH2 0x266E PUSH2 0x2384 JUMP JUMPDEST MUL SWAP4 SWAP3 POP POP POP JUMP JUMPDEST PUSH0 PUSH4 0xFFFFFFFF PUSH2 0x268A DUP2 DUP6 AND DUP3 DUP6 AND PUSH2 0x25AC JUMP JUMPDEST SWAP5 SWAP4 POP POP POP POP JUMP JUMPDEST PUSH4 0x4E487B71 PUSH1 0xE0 SHL PUSH0 MSTORE PUSH1 0x12 PUSH1 0x4 MSTORE PUSH1 0x24 PUSH0 REVERT JUMPDEST PUSH0 PUSH4 0xFFFFFFFF DUP1 DUP5 AND DUP1 PUSH2 0x26BC JUMPI PUSH2 0x26BC PUSH2 0x2692 JUMP JUMPDEST SWAP3 AND SWAP2 SWAP1 SWAP2 MOD SWAP3 SWAP2 POP POP JUMP JUMPDEST PUSH0 PUSH4 0xFFFFFFFF DUP1 DUP5 AND DUP1 PUSH2 0x26DE JUMPI PUSH2 0x26DE PUSH2 0x2692 JUMP JUMPDEST SWAP3 AND SWAP2 SWAP1 SWAP2 DIV SWAP3 SWAP2 POP POP JUMP JUMPDEST PUSH4 0xFFFFFFFF DUP2 DUP2 AND DUP4 DUP3 AND ADD SWAP1 DUP1 DUP3 GT ISZERO PUSH2 0x18C0 JUMPI PUSH2 0x18C0 PUSH2 0x2384 JUMP INVALID LOG2 PUSH5 0x6970667358 0x22 SLT KECCAK256 SWAP2 REVERT 0xC4 PUSH1 0x43 0xAF JUMPDEST PUSH13 0x3278DEED7B1ED7DECE7B1317F 0xC9 ISZERO RETURNDATACOPY 0xCB 0x28 0xD5 PUSH19 0x866AF93364736F6C6343000817003300000000 "},"methodIdentifiers":{"ROOT_HISTORY_SIZE()":"cd87a3b4","bridgeDebt()":"db394bb9","bridgeEth(uint256,uint256)":"f8af86e7","commitments(uint256)":"49ce8997","commitmentsTreeRoots(uint256)":"28482f89","currentRootIndex()":"90eeb02b","deposit(uint256)":"b6b55f25","ethPendingWithdrawals()":"1b5844ff","filledSubtrees(uint256)":"f178e47c","getL1Root(uint256)":"5032d4f1","getLastKnowL1Root()":"c068a7ff","getLastKnowL2Root()":"53a4778b","getLastRoot()":"ba70f757","hashLeftRight(uint256,uint256)":"5bb93995","isKnownL1Root(uint256)":"397a14b4","isKnownL2Root(uint256)":"b89d302d","isSpent(uint256)":"5a129efe","isSpentArray(uint256[])":"ea65ba49","l1ToadnadoAddress()":"cc48b735","l2ScrollMessenger()":"c0e70bbd","levels()":"4ecf518b","nextIndex()":"fc7e9c6f","nullifiers(uint256)":"d21e82ab","readSingleSlot(address,uint256)":"102b72e7","recieveBridgedEth()":"39da4b55","requestEthBridge(uint256)":"c9ca7a61","roots(uint256)":"c2b40ae4","sendLatestRootToL1(uint32)":"9d7d010f","verifier()":"2b7ac3f3","withdraw(uint256,uint256,uint256,address,uint256,bytes)":"06e473f2","withdrawPending(uint256)":"2e585fd8","zeros(uint256)":"e8295588"}}}}}