{"contracts/MerkleTree.sol":{"MerkleTree":{"abi":[{"inputs":[{"internalType":"uint32","name":"_levels","type":"uint32"}],"stateMutability":"nonpayable","type":"constructor"},{"inputs":[],"name":"ROOT_HISTORY_SIZE","outputs":[{"internalType":"uint32","name":"","type":"uint32"}],"stateMutability":"view","type":"function"},{"inputs":[{"internalType":"uint256","name":"","type":"uint256"}],"name":"commitmentLeafs","outputs":[{"internalType":"bytes32","name":"","type":"bytes32"}],"stateMutability":"view","type":"function"},{"inputs":[],"name":"currentRootIndex","outputs":[{"internalType":"uint32","name":"","type":"uint32"}],"stateMutability":"view","type":"function"},{"inputs":[{"internalType":"uint256","name":"","type":"uint256"}],"name":"filledSubtrees","outputs":[{"internalType":"bytes32","name":"","type":"bytes32"}],"stateMutability":"view","type":"function"},{"inputs":[],"name":"getLastRoot","outputs":[{"internalType":"bytes32","name":"","type":"bytes32"}],"stateMutability":"view","type":"function"},{"inputs":[{"internalType":"bytes32","name":"_left","type":"bytes32"},{"internalType":"bytes32","name":"_right","type":"bytes32"}],"name":"hashLeftRight","outputs":[{"internalType":"bytes32","name":"","type":"bytes32"}],"stateMutability":"pure","type":"function"},{"inputs":[{"internalType":"bytes32","name":"_root","type":"bytes32"}],"name":"isKnownRoot","outputs":[{"internalType":"bool","name":"","type":"bool"}],"stateMutability":"view","type":"function"},{"inputs":[],"name":"levels","outputs":[{"internalType":"uint32","name":"","type":"uint32"}],"stateMutability":"view","type":"function"},{"inputs":[],"name":"nextIndex","outputs":[{"internalType":"uint32","name":"","type":"uint32"}],"stateMutability":"view","type":"function"},{"inputs":[{"internalType":"uint256","name":"","type":"uint256"}],"name":"roots","outputs":[{"internalType":"bytes32","name":"","type":"bytes32"}],"stateMutability":"view","type":"function"},{"inputs":[{"internalType":"uint256","name":"i","type":"uint256"}],"name":"zeros","outputs":[{"internalType":"bytes32","name":"","type":"bytes32"}],"stateMutability":"pure","type":"function"}],"evm":{"bytecode":{"linkReferences":{},"object":"6080604052600480546001600160401b031916905534801562000020575f80fd5b5060405162000d3838038062000d388339810160408190526200004391620005d7565b5f8163ffffffff1611620000aa5760405162461bcd60e51b815260206004820152602360248201527f5f6c6576656c732073686f756c642062652067726561746572207468616e207a60448201526265726f60e81b60648201526084015b60405180910390fd5b60148163ffffffff1610620001025760405162461bcd60e51b815260206004820152601e60248201527f5f6c6576656c732073686f756c64206265206c657373207468616e20323000006044820152606401620000a1565b5f805463ffffffff191663ffffffff83161781555b8163ffffffff168163ffffffff1610156200015b576200013d63ffffffff82166200019e565b63ffffffff82165f9081526002602052604090205560010162000117565b506200016d63ffffffff82166200019e565b5f805260036020527f3617319a054d772f909f7c479a2cebe5066e836a939412e32403c99029b92eff555062000603565b5f815f03620001ce57507f2fe54c60d3acabf3343a35b6eba15db4821b340f76e741e2249685ed4899af6c919050565b81600103620001fe57507f4fc2fe9184a25f44ce8ddb5f32671fcae6d9c85ed710c199acef16ad16b29911919050565b816002036200022e57507f0d826a474f851c563052d929ef0daa70f658aba9ba084f51f6e3483c13c0e59a919050565b816003036200025e57507ff7761a16b5e4c0120e4c5704b910dbe18ff6162a9668ed1c2c4efde7c4f15806919050565b816004036200028e57507fce9ce09a0ab259d6d14ca3dcd74e6c6b9e7d9074bff66973d4c57ccdffdb2a82919050565b81600503620002be57507f02efd44c63015ff1385344e0624867775486d05e6eb1290a24976964a598003b919050565b81600603620002ee57507fc4dec5845d407ce2ac2e6824bb7857c4b138f819e5789d5d11e812db10c846cd919050565b816007036200031e57507f5fbe3f20c23f3bd6ac347917fb0903433e0b9a48373412348240a5f919bfde19919050565b816008036200034e57507f92d1b07e56b3da96b7917778cb657f2c513eaeeb4d1579a73b5ea316f25b7289919050565b816009036200037e57507fa08add5656d6d3d0827ef909f7647981eac42aa1f51970a752f130f718f6d76a919050565b81600a03620003ae57507f1704c5f297590d8ec62776b0714f4f3f2234bae0524035342b0da8b8988ebd79919050565b81600b03620003de57507fc5ae2bd47379c2c6d1189cfc3d057948dc6054caf845fcacd8f7affe94b11944919050565b81600c036200040e57507f12a161d6d5561062f387d91ad9f0f8966c0956afdb9e8325458b9e5057b82bdb919050565b81600d036200043e57507f4ade524ba596de20bbe94507a761c45251ae7a27857ceb4287d9018525b99bc5919050565b81600e036200046e57507f38287ad69151fa833bf4bf8b8eb6ffb39400a38f1a7e53b473f639c8c60fd5e4919050565b81600f036200049e57507f57f2ade7d711707e785451f2aba6c95872c7fe03153a98b7327b4024e8068fa3919050565b81601003620004ce57507fb1982e0d1b0de46a88d8b17941472e41a86d3ff64571ed8e0ca72d58633547fc919050565b81601103620004fe57507fb7c60f8670af15eb32b4ee36727179bc085a3dde03d5f9a1486664ba576b30a6919050565b816012036200052e57507f5ff905c5c659a926b132ef3665a3de5d5a859c1d479e68851085bfc0348c5331919050565b816013036200055e57507fb4dfa78b912e98c9f7eb42d71eb537a02bf3173d44a2eb887a48b3972072dd8e919050565b816014036200058e57507f60919a16a2eb8b91cfb8ba1e5b4c155a76a14c217b5403edbd563f34e508ecdc919050565b60405162461bcd60e51b815260206004820152601360248201527f496e646578206f7574206f6620626f756e6473000000000000000000000000006044820152606401620000a1565b5f60208284031215620005e8575f80fd5b815163ffffffff81168114620005fc575f80fd5b9392505050565b61072780620006115f395ff3fe608060405234801561000f575f80fd5b50600436106100a6575f3560e01c8063ba70f7571161006e578063ba70f7571461016d578063c2b40ae414610189578063cd87a3b4146101a8578063e8295588146101b0578063f178e47c146101c3578063fc7e9c6f146101e2575f80fd5b806338bf282e146100aa5780634ecf518b146100f75780636d9833e31461011b57806390eeb02b1461013e5780639ec441541461014e575b5f80fd5b6100e46100b8366004610690565b604080516020808201949094528082019290925280518083038201815260609092019052805191012090565b6040519081526020015b60405180910390f35b5f546101069063ffffffff1681565b60405163ffffffff90911681526020016100ee565b61012e6101293660046106b0565b6101fa565b60405190151581526020016100ee565b6004546101069063ffffffff1681565b6100e461015c3660046106b0565b60016020525f908152604090205481565b60045463ffffffff165f908152600360205260409020546100e4565b6100e46101973660046106b0565b60036020525f908152604090205481565b610106601e81565b6100e46101be3660046106b0565b610273565b6100e46101d13660046106b0565b60026020525f908152604090205481565b60045461010690640100000000900463ffffffff1681565b5f81810361020957505f919050565b60045463ffffffff16805b63ffffffff81165f908152600360205260409020548403610239575060019392505050565b8063ffffffff165f0361024a5750601e5b80610254816106c7565b9150508163ffffffff168163ffffffff160361021457505f9392505050565b5f815f036102a257507f2fe54c60d3acabf3343a35b6eba15db4821b340f76e741e2249685ed4899af6c919050565b816001036102d157507f4fc2fe9184a25f44ce8ddb5f32671fcae6d9c85ed710c199acef16ad16b29911919050565b8160020361030057507f0d826a474f851c563052d929ef0daa70f658aba9ba084f51f6e3483c13c0e59a919050565b8160030361032f57507ff7761a16b5e4c0120e4c5704b910dbe18ff6162a9668ed1c2c4efde7c4f15806919050565b8160040361035e57507fce9ce09a0ab259d6d14ca3dcd74e6c6b9e7d9074bff66973d4c57ccdffdb2a82919050565b8160050361038d57507f02efd44c63015ff1385344e0624867775486d05e6eb1290a24976964a598003b919050565b816006036103bc57507fc4dec5845d407ce2ac2e6824bb7857c4b138f819e5789d5d11e812db10c846cd919050565b816007036103eb57507f5fbe3f20c23f3bd6ac347917fb0903433e0b9a48373412348240a5f919bfde19919050565b8160080361041a57507f92d1b07e56b3da96b7917778cb657f2c513eaeeb4d1579a73b5ea316f25b7289919050565b8160090361044957507fa08add5656d6d3d0827ef909f7647981eac42aa1f51970a752f130f718f6d76a919050565b81600a0361047857507f1704c5f297590d8ec62776b0714f4f3f2234bae0524035342b0da8b8988ebd79919050565b81600b036104a757507fc5ae2bd47379c2c6d1189cfc3d057948dc6054caf845fcacd8f7affe94b11944919050565b81600c036104d657507f12a161d6d5561062f387d91ad9f0f8966c0956afdb9e8325458b9e5057b82bdb919050565b81600d0361050557507f4ade524ba596de20bbe94507a761c45251ae7a27857ceb4287d9018525b99bc5919050565b81600e0361053457507f38287ad69151fa833bf4bf8b8eb6ffb39400a38f1a7e53b473f639c8c60fd5e4919050565b81600f0361056357507f57f2ade7d711707e785451f2aba6c95872c7fe03153a98b7327b4024e8068fa3919050565b8160100361059257507fb1982e0d1b0de46a88d8b17941472e41a86d3ff64571ed8e0ca72d58633547fc919050565b816011036105c157507fb7c60f8670af15eb32b4ee36727179bc085a3dde03d5f9a1486664ba576b30a6919050565b816012036105f057507f5ff905c5c659a926b132ef3665a3de5d5a859c1d479e68851085bfc0348c5331919050565b8160130361061f57507fb4dfa78b912e98c9f7eb42d71eb537a02bf3173d44a2eb887a48b3972072dd8e919050565b8160140361064e57507f60919a16a2eb8b91cfb8ba1e5b4c155a76a14c217b5403edbd563f34e508ecdc919050565b60405162461bcd60e51b8152602060048201526013602482015272496e646578206f7574206f6620626f756e647360681b604482015260640160405180910390fd5b5f80604083850312156106a1575f80fd5b50508035926020909101359150565b5f602082840312156106c0575f80fd5b5035919050565b5f63ffffffff8216806106e857634e487b7160e01b5f52601160045260245ffd5b5f19019291505056fea264697066735822122034da094a6a1d0ab60c3407c434223d1ee2bc9bd51b3d3affac9b88bea95a4b1464736f6c63430008170033","opcodes":"PUSH1 0x80 PUSH1 0x40 MSTORE PUSH1 0x4 DUP1 SLOAD PUSH1 0x1 PUSH1 0x1 PUSH1 0x40 SHL SUB NOT AND SWAP1 SSTORE CALLVALUE DUP1 ISZERO PUSH3 0x20 JUMPI PUSH0 DUP1 REVERT JUMPDEST POP PUSH1 0x40 MLOAD PUSH3 0xD38 CODESIZE SUB DUP1 PUSH3 0xD38 DUP4 CODECOPY DUP2 ADD PUSH1 0x40 DUP2 SWAP1 MSTORE PUSH3 0x43 SWAP2 PUSH3 0x5D7 JUMP JUMPDEST PUSH0 DUP2 PUSH4 0xFFFFFFFF AND GT PUSH3 0xAA JUMPI PUSH1 0x40 MLOAD PUSH3 0x461BCD PUSH1 0xE5 SHL DUP2 MSTORE PUSH1 0x20 PUSH1 0x4 DUP3 ADD MSTORE PUSH1 0x23 PUSH1 0x24 DUP3 ADD MSTORE PUSH32 0x5F6C6576656C732073686F756C642062652067726561746572207468616E207A PUSH1 0x44 DUP3 ADD MSTORE PUSH3 0x65726F PUSH1 0xE8 SHL PUSH1 0x64 DUP3 ADD MSTORE PUSH1 0x84 ADD JUMPDEST PUSH1 0x40 MLOAD DUP1 SWAP2 SUB SWAP1 REVERT JUMPDEST PUSH1 0x14 DUP2 PUSH4 0xFFFFFFFF AND LT PUSH3 0x102 JUMPI PUSH1 0x40 MLOAD PUSH3 0x461BCD PUSH1 0xE5 SHL DUP2 MSTORE PUSH1 0x20 PUSH1 0x4 DUP3 ADD MSTORE PUSH1 0x1E PUSH1 0x24 DUP3 ADD MSTORE PUSH32 0x5F6C6576656C732073686F756C64206265206C657373207468616E2032300000 PUSH1 0x44 DUP3 ADD MSTORE PUSH1 0x64 ADD PUSH3 0xA1 JUMP JUMPDEST PUSH0 DUP1 SLOAD PUSH4 0xFFFFFFFF NOT AND PUSH4 0xFFFFFFFF DUP4 AND OR DUP2 SSTORE JUMPDEST DUP2 PUSH4 0xFFFFFFFF AND DUP2 PUSH4 0xFFFFFFFF AND LT ISZERO PUSH3 0x15B JUMPI PUSH3 0x13D PUSH4 0xFFFFFFFF DUP3 AND PUSH3 0x19E JUMP JUMPDEST PUSH4 0xFFFFFFFF DUP3 AND PUSH0 SWAP1 DUP2 MSTORE PUSH1 0x2 PUSH1 0x20 MSTORE PUSH1 0x40 SWAP1 KECCAK256 SSTORE PUSH1 0x1 ADD PUSH3 0x117 JUMP JUMPDEST POP PUSH3 0x16D PUSH4 0xFFFFFFFF DUP3 AND PUSH3 0x19E JUMP JUMPDEST PUSH0 DUP1 MSTORE PUSH1 0x3 PUSH1 0x20 MSTORE PUSH32 0x3617319A054D772F909F7C479A2CEBE5066E836A939412E32403C99029B92EFF SSTORE POP PUSH3 0x603 JUMP JUMPDEST PUSH0 DUP2 PUSH0 SUB PUSH3 0x1CE JUMPI POP PUSH32 0x2FE54C60D3ACABF3343A35B6EBA15DB4821B340F76E741E2249685ED4899AF6C SWAP2 SWAP1 POP JUMP JUMPDEST DUP2 PUSH1 0x1 SUB PUSH3 0x1FE JUMPI POP PUSH32 0x4FC2FE9184A25F44CE8DDB5F32671FCAE6D9C85ED710C199ACEF16AD16B29911 SWAP2 SWAP1 POP JUMP JUMPDEST DUP2 PUSH1 0x2 SUB PUSH3 0x22E JUMPI POP PUSH32 0xD826A474F851C563052D929EF0DAA70F658ABA9BA084F51F6E3483C13C0E59A SWAP2 SWAP1 POP JUMP JUMPDEST DUP2 PUSH1 0x3 SUB PUSH3 0x25E JUMPI POP PUSH32 0xF7761A16B5E4C0120E4C5704B910DBE18FF6162A9668ED1C2C4EFDE7C4F15806 SWAP2 SWAP1 POP JUMP JUMPDEST DUP2 PUSH1 0x4 SUB PUSH3 0x28E JUMPI POP PUSH32 0xCE9CE09A0AB259D6D14CA3DCD74E6C6B9E7D9074BFF66973D4C57CCDFFDB2A82 SWAP2 SWAP1 POP JUMP JUMPDEST DUP2 PUSH1 0x5 SUB PUSH3 0x2BE JUMPI POP PUSH32 0x2EFD44C63015FF1385344E0624867775486D05E6EB1290A24976964A598003B SWAP2 SWAP1 POP JUMP JUMPDEST DUP2 PUSH1 0x6 SUB PUSH3 0x2EE JUMPI POP PUSH32 0xC4DEC5845D407CE2AC2E6824BB7857C4B138F819E5789D5D11E812DB10C846CD SWAP2 SWAP1 POP JUMP JUMPDEST DUP2 PUSH1 0x7 SUB PUSH3 0x31E JUMPI POP PUSH32 0x5FBE3F20C23F3BD6AC347917FB0903433E0B9A48373412348240A5F919BFDE19 SWAP2 SWAP1 POP JUMP JUMPDEST DUP2 PUSH1 0x8 SUB PUSH3 0x34E JUMPI POP PUSH32 0x92D1B07E56B3DA96B7917778CB657F2C513EAEEB4D1579A73B5EA316F25B7289 SWAP2 SWAP1 POP JUMP JUMPDEST DUP2 PUSH1 0x9 SUB PUSH3 0x37E JUMPI POP PUSH32 0xA08ADD5656D6D3D0827EF909F7647981EAC42AA1F51970A752F130F718F6D76A SWAP2 SWAP1 POP JUMP JUMPDEST DUP2 PUSH1 0xA SUB PUSH3 0x3AE JUMPI POP PUSH32 0x1704C5F297590D8EC62776B0714F4F3F2234BAE0524035342B0DA8B8988EBD79 SWAP2 SWAP1 POP JUMP JUMPDEST DUP2 PUSH1 0xB SUB PUSH3 0x3DE JUMPI POP PUSH32 0xC5AE2BD47379C2C6D1189CFC3D057948DC6054CAF845FCACD8F7AFFE94B11944 SWAP2 SWAP1 POP JUMP JUMPDEST DUP2 PUSH1 0xC SUB PUSH3 0x40E JUMPI POP PUSH32 0x12A161D6D5561062F387D91AD9F0F8966C0956AFDB9E8325458B9E5057B82BDB SWAP2 SWAP1 POP JUMP JUMPDEST DUP2 PUSH1 0xD SUB PUSH3 0x43E JUMPI POP PUSH32 0x4ADE524BA596DE20BBE94507A761C45251AE7A27857CEB4287D9018525B99BC5 SWAP2 SWAP1 POP JUMP JUMPDEST DUP2 PUSH1 0xE SUB PUSH3 0x46E JUMPI POP PUSH32 0x38287AD69151FA833BF4BF8B8EB6FFB39400A38F1A7E53B473F639C8C60FD5E4 SWAP2 SWAP1 POP JUMP JUMPDEST DUP2 PUSH1 0xF SUB PUSH3 0x49E JUMPI POP PUSH32 0x57F2ADE7D711707E785451F2ABA6C95872C7FE03153A98B7327B4024E8068FA3 SWAP2 SWAP1 POP JUMP JUMPDEST DUP2 PUSH1 0x10 SUB PUSH3 0x4CE JUMPI POP PUSH32 0xB1982E0D1B0DE46A88D8B17941472E41A86D3FF64571ED8E0CA72D58633547FC SWAP2 SWAP1 POP JUMP JUMPDEST DUP2 PUSH1 0x11 SUB PUSH3 0x4FE JUMPI POP PUSH32 0xB7C60F8670AF15EB32B4EE36727179BC085A3DDE03D5F9A1486664BA576B30A6 SWAP2 SWAP1 POP JUMP JUMPDEST DUP2 PUSH1 0x12 SUB PUSH3 0x52E JUMPI POP PUSH32 0x5FF905C5C659A926B132EF3665A3DE5D5A859C1D479E68851085BFC0348C5331 SWAP2 SWAP1 POP JUMP JUMPDEST DUP2 PUSH1 0x13 SUB PUSH3 0x55E JUMPI POP PUSH32 0xB4DFA78B912E98C9F7EB42D71EB537A02BF3173D44A2EB887A48B3972072DD8E SWAP2 SWAP1 POP JUMP JUMPDEST DUP2 PUSH1 0x14 SUB PUSH3 0x58E JUMPI POP PUSH32 0x60919A16A2EB8B91CFB8BA1E5B4C155A76A14C217B5403EDBD563F34E508ECDC SWAP2 SWAP1 POP JUMP JUMPDEST PUSH1 0x40 MLOAD PUSH3 0x461BCD PUSH1 0xE5 SHL DUP2 MSTORE PUSH1 0x20 PUSH1 0x4 DUP3 ADD MSTORE PUSH1 0x13 PUSH1 0x24 DUP3 ADD MSTORE PUSH32 0x496E646578206F7574206F6620626F756E647300000000000000000000000000 PUSH1 0x44 DUP3 ADD MSTORE PUSH1 0x64 ADD PUSH3 0xA1 JUMP JUMPDEST PUSH0 PUSH1 0x20 DUP3 DUP5 SUB SLT ISZERO PUSH3 0x5E8 JUMPI PUSH0 DUP1 REVERT JUMPDEST DUP2 MLOAD PUSH4 0xFFFFFFFF DUP2 AND DUP2 EQ PUSH3 0x5FC JUMPI PUSH0 DUP1 REVERT JUMPDEST SWAP4 SWAP3 POP POP POP JUMP JUMPDEST PUSH2 0x727 DUP1 PUSH3 0x611 PUSH0 CODECOPY PUSH0 RETURN INVALID PUSH1 0x80 PUSH1 0x40 MSTORE CALLVALUE DUP1 ISZERO PUSH2 0xF JUMPI PUSH0 DUP1 REVERT JUMPDEST POP PUSH1 0x4 CALLDATASIZE LT PUSH2 0xA6 JUMPI PUSH0 CALLDATALOAD PUSH1 0xE0 SHR DUP1 PUSH4 0xBA70F757 GT PUSH2 0x6E JUMPI DUP1 PUSH4 0xBA70F757 EQ PUSH2 0x16D JUMPI DUP1 PUSH4 0xC2B40AE4 EQ PUSH2 0x189 JUMPI DUP1 PUSH4 0xCD87A3B4 EQ PUSH2 0x1A8 JUMPI DUP1 PUSH4 0xE8295588 EQ PUSH2 0x1B0 JUMPI DUP1 PUSH4 0xF178E47C EQ PUSH2 0x1C3 JUMPI DUP1 PUSH4 0xFC7E9C6F EQ PUSH2 0x1E2 JUMPI PUSH0 DUP1 REVERT JUMPDEST DUP1 PUSH4 0x38BF282E EQ PUSH2 0xAA JUMPI DUP1 PUSH4 0x4ECF518B EQ PUSH2 0xF7 JUMPI DUP1 PUSH4 0x6D9833E3 EQ PUSH2 0x11B JUMPI DUP1 PUSH4 0x90EEB02B EQ PUSH2 0x13E JUMPI DUP1 PUSH4 0x9EC44154 EQ PUSH2 0x14E JUMPI JUMPDEST PUSH0 DUP1 REVERT JUMPDEST PUSH2 0xE4 PUSH2 0xB8 CALLDATASIZE PUSH1 0x4 PUSH2 0x690 JUMP JUMPDEST PUSH1 0x40 DUP1 MLOAD PUSH1 0x20 DUP1 DUP3 ADD SWAP5 SWAP1 SWAP5 MSTORE DUP1 DUP3 ADD SWAP3 SWAP1 SWAP3 MSTORE DUP1 MLOAD DUP1 DUP4 SUB DUP3 ADD DUP2 MSTORE PUSH1 0x60 SWAP1 SWAP3 ADD SWAP1 MSTORE DUP1 MLOAD SWAP2 ADD KECCAK256 SWAP1 JUMP JUMPDEST PUSH1 0x40 MLOAD SWAP1 DUP2 MSTORE PUSH1 0x20 ADD JUMPDEST PUSH1 0x40 MLOAD DUP1 SWAP2 SUB SWAP1 RETURN JUMPDEST PUSH0 SLOAD PUSH2 0x106 SWAP1 PUSH4 0xFFFFFFFF AND DUP2 JUMP JUMPDEST PUSH1 0x40 MLOAD PUSH4 0xFFFFFFFF SWAP1 SWAP2 AND DUP2 MSTORE PUSH1 0x20 ADD PUSH2 0xEE JUMP JUMPDEST PUSH2 0x12E PUSH2 0x129 CALLDATASIZE PUSH1 0x4 PUSH2 0x6B0 JUMP JUMPDEST PUSH2 0x1FA JUMP JUMPDEST PUSH1 0x40 MLOAD SWAP1 ISZERO ISZERO DUP2 MSTORE PUSH1 0x20 ADD PUSH2 0xEE JUMP JUMPDEST PUSH1 0x4 SLOAD PUSH2 0x106 SWAP1 PUSH4 0xFFFFFFFF AND DUP2 JUMP JUMPDEST PUSH2 0xE4 PUSH2 0x15C CALLDATASIZE PUSH1 0x4 PUSH2 0x6B0 JUMP JUMPDEST PUSH1 0x1 PUSH1 0x20 MSTORE PUSH0 SWAP1 DUP2 MSTORE PUSH1 0x40 SWAP1 KECCAK256 SLOAD DUP2 JUMP JUMPDEST PUSH1 0x4 SLOAD PUSH4 0xFFFFFFFF AND PUSH0 SWAP1 DUP2 MSTORE PUSH1 0x3 PUSH1 0x20 MSTORE PUSH1 0x40 SWAP1 KECCAK256 SLOAD PUSH2 0xE4 JUMP JUMPDEST PUSH2 0xE4 PUSH2 0x197 CALLDATASIZE PUSH1 0x4 PUSH2 0x6B0 JUMP JUMPDEST PUSH1 0x3 PUSH1 0x20 MSTORE PUSH0 SWAP1 DUP2 MSTORE PUSH1 0x40 SWAP1 KECCAK256 SLOAD DUP2 JUMP JUMPDEST PUSH2 0x106 PUSH1 0x1E DUP2 JUMP JUMPDEST PUSH2 0xE4 PUSH2 0x1BE CALLDATASIZE PUSH1 0x4 PUSH2 0x6B0 JUMP JUMPDEST PUSH2 0x273 JUMP JUMPDEST PUSH2 0xE4 PUSH2 0x1D1 CALLDATASIZE PUSH1 0x4 PUSH2 0x6B0 JUMP JUMPDEST PUSH1 0x2 PUSH1 0x20 MSTORE PUSH0 SWAP1 DUP2 MSTORE PUSH1 0x40 SWAP1 KECCAK256 SLOAD DUP2 JUMP JUMPDEST PUSH1 0x4 SLOAD PUSH2 0x106 SWAP1 PUSH5 0x100000000 SWAP1 DIV PUSH4 0xFFFFFFFF AND DUP2 JUMP JUMPDEST PUSH0 DUP2 DUP2 SUB PUSH2 0x209 JUMPI POP PUSH0 SWAP2 SWAP1 POP JUMP JUMPDEST PUSH1 0x4 SLOAD PUSH4 0xFFFFFFFF AND DUP1 JUMPDEST PUSH4 0xFFFFFFFF DUP2 AND PUSH0 SWAP1 DUP2 MSTORE PUSH1 0x3 PUSH1 0x20 MSTORE PUSH1 0x40 SWAP1 KECCAK256 SLOAD DUP5 SUB PUSH2 0x239 JUMPI POP PUSH1 0x1 SWAP4 SWAP3 POP POP POP JUMP JUMPDEST DUP1 PUSH4 0xFFFFFFFF AND PUSH0 SUB PUSH2 0x24A JUMPI POP PUSH1 0x1E JUMPDEST DUP1 PUSH2 0x254 DUP2 PUSH2 0x6C7 JUMP JUMPDEST SWAP2 POP POP DUP2 PUSH4 0xFFFFFFFF AND DUP2 PUSH4 0xFFFFFFFF AND SUB PUSH2 0x214 JUMPI POP PUSH0 SWAP4 SWAP3 POP POP POP JUMP JUMPDEST PUSH0 DUP2 PUSH0 SUB PUSH2 0x2A2 JUMPI POP PUSH32 0x2FE54C60D3ACABF3343A35B6EBA15DB4821B340F76E741E2249685ED4899AF6C SWAP2 SWAP1 POP JUMP JUMPDEST DUP2 PUSH1 0x1 SUB PUSH2 0x2D1 JUMPI POP PUSH32 0x4FC2FE9184A25F44CE8DDB5F32671FCAE6D9C85ED710C199ACEF16AD16B29911 SWAP2 SWAP1 POP JUMP JUMPDEST DUP2 PUSH1 0x2 SUB PUSH2 0x300 JUMPI POP PUSH32 0xD826A474F851C563052D929EF0DAA70F658ABA9BA084F51F6E3483C13C0E59A SWAP2 SWAP1 POP JUMP JUMPDEST DUP2 PUSH1 0x3 SUB PUSH2 0x32F JUMPI POP PUSH32 0xF7761A16B5E4C0120E4C5704B910DBE18FF6162A9668ED1C2C4EFDE7C4F15806 SWAP2 SWAP1 POP JUMP JUMPDEST DUP2 PUSH1 0x4 SUB PUSH2 0x35E JUMPI POP PUSH32 0xCE9CE09A0AB259D6D14CA3DCD74E6C6B9E7D9074BFF66973D4C57CCDFFDB2A82 SWAP2 SWAP1 POP JUMP JUMPDEST DUP2 PUSH1 0x5 SUB PUSH2 0x38D JUMPI POP PUSH32 0x2EFD44C63015FF1385344E0624867775486D05E6EB1290A24976964A598003B SWAP2 SWAP1 POP JUMP JUMPDEST DUP2 PUSH1 0x6 SUB PUSH2 0x3BC JUMPI POP PUSH32 0xC4DEC5845D407CE2AC2E6824BB7857C4B138F819E5789D5D11E812DB10C846CD SWAP2 SWAP1 POP JUMP JUMPDEST DUP2 PUSH1 0x7 SUB PUSH2 0x3EB JUMPI POP PUSH32 0x5FBE3F20C23F3BD6AC347917FB0903433E0B9A48373412348240A5F919BFDE19 SWAP2 SWAP1 POP JUMP JUMPDEST DUP2 PUSH1 0x8 SUB PUSH2 0x41A JUMPI POP PUSH32 0x92D1B07E56B3DA96B7917778CB657F2C513EAEEB4D1579A73B5EA316F25B7289 SWAP2 SWAP1 POP JUMP JUMPDEST DUP2 PUSH1 0x9 SUB PUSH2 0x449 JUMPI POP PUSH32 0xA08ADD5656D6D3D0827EF909F7647981EAC42AA1F51970A752F130F718F6D76A SWAP2 SWAP1 POP JUMP JUMPDEST DUP2 PUSH1 0xA SUB PUSH2 0x478 JUMPI POP PUSH32 0x1704C5F297590D8EC62776B0714F4F3F2234BAE0524035342B0DA8B8988EBD79 SWAP2 SWAP1 POP JUMP JUMPDEST DUP2 PUSH1 0xB SUB PUSH2 0x4A7 JUMPI POP PUSH32 0xC5AE2BD47379C2C6D1189CFC3D057948DC6054CAF845FCACD8F7AFFE94B11944 SWAP2 SWAP1 POP JUMP JUMPDEST DUP2 PUSH1 0xC SUB PUSH2 0x4D6 JUMPI POP PUSH32 0x12A161D6D5561062F387D91AD9F0F8966C0956AFDB9E8325458B9E5057B82BDB SWAP2 SWAP1 POP JUMP JUMPDEST DUP2 PUSH1 0xD SUB PUSH2 0x505 JUMPI POP PUSH32 0x4ADE524BA596DE20BBE94507A761C45251AE7A27857CEB4287D9018525B99BC5 SWAP2 SWAP1 POP JUMP JUMPDEST DUP2 PUSH1 0xE SUB PUSH2 0x534 JUMPI POP PUSH32 0x38287AD69151FA833BF4BF8B8EB6FFB39400A38F1A7E53B473F639C8C60FD5E4 SWAP2 SWAP1 POP JUMP JUMPDEST DUP2 PUSH1 0xF SUB PUSH2 0x563 JUMPI POP PUSH32 0x57F2ADE7D711707E785451F2ABA6C95872C7FE03153A98B7327B4024E8068FA3 SWAP2 SWAP1 POP JUMP JUMPDEST DUP2 PUSH1 0x10 SUB PUSH2 0x592 JUMPI POP PUSH32 0xB1982E0D1B0DE46A88D8B17941472E41A86D3FF64571ED8E0CA72D58633547FC SWAP2 SWAP1 POP JUMP JUMPDEST DUP2 PUSH1 0x11 SUB PUSH2 0x5C1 JUMPI POP PUSH32 0xB7C60F8670AF15EB32B4EE36727179BC085A3DDE03D5F9A1486664BA576B30A6 SWAP2 SWAP1 POP JUMP JUMPDEST DUP2 PUSH1 0x12 SUB PUSH2 0x5F0 JUMPI POP PUSH32 0x5FF905C5C659A926B132EF3665A3DE5D5A859C1D479E68851085BFC0348C5331 SWAP2 SWAP1 POP JUMP JUMPDEST DUP2 PUSH1 0x13 SUB PUSH2 0x61F JUMPI POP PUSH32 0xB4DFA78B912E98C9F7EB42D71EB537A02BF3173D44A2EB887A48B3972072DD8E SWAP2 SWAP1 POP JUMP JUMPDEST DUP2 PUSH1 0x14 SUB PUSH2 0x64E JUMPI POP PUSH32 0x60919A16A2EB8B91CFB8BA1E5B4C155A76A14C217B5403EDBD563F34E508ECDC SWAP2 SWAP1 POP JUMP JUMPDEST PUSH1 0x40 MLOAD PUSH3 0x461BCD PUSH1 0xE5 SHL DUP2 MSTORE PUSH1 0x20 PUSH1 0x4 DUP3 ADD MSTORE PUSH1 0x13 PUSH1 0x24 DUP3 ADD MSTORE PUSH19 0x496E646578206F7574206F6620626F756E6473 PUSH1 0x68 SHL PUSH1 0x44 DUP3 ADD MSTORE PUSH1 0x64 ADD PUSH1 0x40 MLOAD DUP1 SWAP2 SUB SWAP1 REVERT JUMPDEST PUSH0 DUP1 PUSH1 0x40 DUP4 DUP6 SUB SLT ISZERO PUSH2 0x6A1 JUMPI PUSH0 DUP1 REVERT JUMPDEST POP POP DUP1 CALLDATALOAD SWAP3 PUSH1 0x20 SWAP1 SWAP2 ADD CALLDATALOAD SWAP2 POP JUMP JUMPDEST PUSH0 PUSH1 0x20 DUP3 DUP5 SUB SLT ISZERO PUSH2 0x6C0 JUMPI PUSH0 DUP1 REVERT JUMPDEST POP CALLDATALOAD SWAP2 SWAP1 POP JUMP JUMPDEST PUSH0 PUSH4 0xFFFFFFFF DUP3 AND DUP1 PUSH2 0x6E8 JUMPI PUSH4 0x4E487B71 PUSH1 0xE0 SHL PUSH0 MSTORE PUSH1 0x11 PUSH1 0x4 MSTORE PUSH1 0x24 PUSH0 REVERT JUMPDEST PUSH0 NOT ADD SWAP3 SWAP2 POP POP JUMP INVALID LOG2 PUSH5 0x6970667358 0x22 SLT KECCAK256 CALLVALUE 0xDA MULMOD 0x4A PUSH11 0x1D0AB60C3407C434223D1E 0xE2 0xBC SWAP12 0xD5 SHL RETURNDATASIZE GASPRICE SELFDESTRUCT 0xAC SWAP12 DUP9 0xBE 0xA9 GAS 0x4B EQ PUSH5 0x736F6C6343 STOP ADDMOD OR STOP CALLER "},"methodIdentifiers":{"ROOT_HISTORY_SIZE()":"cd87a3b4","commitmentLeafs(uint256)":"9ec44154","currentRootIndex()":"90eeb02b","filledSubtrees(uint256)":"f178e47c","getLastRoot()":"ba70f757","hashLeftRight(bytes32,bytes32)":"38bf282e","isKnownRoot(bytes32)":"6d9833e3","levels()":"4ecf518b","nextIndex()":"fc7e9c6f","roots(uint256)":"c2b40ae4","zeros(uint256)":"e8295588"}}}}}