{"contracts/plonk_vk.sol":{"UltraVerifier":{"abi":[{"inputs":[],"name":"INVALID_VERIFICATION_KEY","type":"error"},{"inputs":[],"name":"MOD_EXP_FAILURE","type":"error"},{"inputs":[],"name":"OPENING_COMMITMENT_FAILED","type":"error"},{"inputs":[],"name":"PAIRING_FAILED","type":"error"},{"inputs":[],"name":"PAIRING_PREAMBLE_FAILED","type":"error"},{"inputs":[],"name":"POINT_NOT_ON_CURVE","type":"error"},{"inputs":[{"internalType":"uint256","name":"expected","type":"uint256"},{"internalType":"uint256","name":"actual","type":"uint256"}],"name":"PUBLIC_INPUT_COUNT_INVALID","type":"error"},{"inputs":[],"name":"PUBLIC_INPUT_GE_P","type":"error"},{"inputs":[],"name":"PUBLIC_INPUT_INVALID_BN128_G1_POINT","type":"error"},{"inputs":[],"name":"getVerificationKeyHash","outputs":[{"internalType":"bytes32","name":"","type":"bytes32"}],"stateMutability":"pure","type":"function"},{"inputs":[{"internalType":"bytes","name":"_proof","type":"bytes"},{"internalType":"bytes32[]","name":"_publicInputs","type":"bytes32[]"}],"name":"verify","outputs":[{"internalType":"bool","name":"","type":"bool"}],"stateMutability":"view","type":"function"}],"evm":{"bytecode":{"linkReferences":{},"object":"608060405234801561000f575f80fd5b50620400006103805260416103a0527f19ddbcaf3a8d46c15c0176fbb5b95e4dc57088ff13f4d1bd84c6bfa57dcdc0e06103c0527f30644259cd94e7dd5045d7a27013b7fcd21c9e3b7fa75222e7bda49b729b04016103e0527f05a7b4aba70e14b78821a0d30ff6b4e1f232fe8fdc5b65fcb652acbc7a612112610400527f2d427ab41fc84e6d04700df91f30f16c32c49966852e496105a37ad703f9731e610420527f21098c48f07198e9c0c1fe311f2922fff3be0d4d36727b85b457b30e61933e9e610440527f1bf81969b3565d343d3ea22902e248f64c4b483f6a05cce53a589f0550ec0e4a610460527f0270b8d8aae2f73fc5f08b9faecc5b304372dd7f2b8e399428f3ed934c42cdb7610480527f263a10ae8c941fdb6cd9a92b98cec9f12f6391d1cdecba65a1b3dbe9a624abee6104a0527f254d7693cf700f9c138bf7ad8881586d7fa1b219efcc9d939e80a5b8042bed736104c0527f04ee3d6c3d583b7f7875d71693f78ec525d58793b44504a9c7b3aae5e8b81faa6104e0527f230058139b0564aa6ede5144e29e2c4f49f63a3a9bd24fb671ff582a10008023610500527f0dd69023c666b3a5d9092ef7397baeda4569be893205a4f575af70fcf2af8f71610520527f2d128fcee4841087d16bd7f7c072b92d903075469c8721021a358ceda22ad983610540527f124cc97eb493edbe112f23ee45f8cce920cea54409ccbcae8820ea2bfcc88341610560527f2e1b791426286a53dff4f3021178166cd2f733f75f3cc6238728a7bee873033f610580527f12797075cc860cbe359da421b65172e89bdfa831e8d3801cffdb201694a41d6b6105a0527f0cc776cc99ecb9c50c74a224847b1de150ba2f87e31cf878b7911aa18f7df4366105c0527f231dd7c0c72300c228ed89ba5913b78f91ad1e02ede01fe0939ee519612504026105e0527f07b4590c2f0cb850f38974bb5ca53c2d8abc659f2dc4d12b9f56aefbec83b46b610600527f18ad4d01cf7a24ce12d95be79b52842ab1169cee446d70403214ac1e7cf5c7bd610620527f22ad0684af2dd0c196bab939f4d0afe2e71a666b9affee42d04ed29a27d0f1c4610640527f0a7bf1cb3b71e4aa5875b5944968cea3bfe94cb48dba51804c9aa240fd2f7751610660527f26545e2e7c69252309f36c2d2ee4877096425c3e0f76c6d0313886647fdc1c34610680527f18fd1add74882762599323465912b0d9790956b9b6a55c9d72222c5e83184a616106a0527f2a48862dbadd186bb067cf14219022c8d6da2dc00d605f6a9b684316f2b37a9d6106c0527f1c13efac6e7a22efe5f916861b78b22b822d3afc675a841d3fc580f50b6735156106e0527f02539a635ca57b82b3fd0ae5acf7dfc7ae8fbf7d152ea14031ef55b801176df4610700527f1c1293d01ec101a162e29c4d23da6b8ad88878323263ac400badfc43eb5bbe3b610720527f1f8b23df5d07cff0ae556481cf73ab450006de70a2572fd453ecceef5b72eaac610740527f234188fcd9cf0b7fd20029291afa1a25b9639e978bd44eeb5e173735733ceb75610760527f24ec4e91a34243b3f0a0cad6b3e3e197e896fff5bd1184e6f356ab0d2b9e8f18610780527f295b8cfdda100a52cfff8890498f4245cdf3acfe71d98db3b338453988f6df786107a0527f0474f7749df187ab47e1590590cddcfe2fda25c6ff4dfd26e7211f9730e4911f6107c0527f02d65a3f02db65058472601e184b9e0bc6619f0fec863b1e456bbe1cf238d0606107e0527f2d8baf693bf660e8fbc9ee8459ab99471e2e0010a1e7c7c0cedd07607d60711e610800527f215a1bb26337a4aaddc0d70a0ca1425448e582bbb026b47253328fe414fd9a6e610820527f225f3fbd31be1a72d035dd26b793c425832c21fd171a6490cd11a3ee9acd3da7610840527f0bfaa201bc5fdaceceab080752d855737b65c6cae330c210f6e11eeec0f55d41610860527f1f576d158e84fd80ad9538c3a4220508aecd25494ec99de3b572d30b0105d455610880527f045df0e7588220178acd390d024f40d2a68cff2eb1cb2e3ea9661e127854b6db6108a0527f201dc829e49c667451ca4db2bd583d9e0bc5e70f7dc18b955c119c64603c132e6108c0527f08d6b0d8a8d427e6cca97bd8f13e94a52c811e56cd60883487c2f64b71cb0df46108e0527e8c3722cbb28b0d0e28bcf63d26f6fc68ad4729e28642a5321227acc05a3be1610900527f2a986dc5c884bc0084ba19513cc2a597a01c59e94d3ec8d291662c2b4ed2f041610920527f1ec0a28ce4c3489582d5c37c91201963ec318ad604c8301c8ecaf684fec9a1ef610940527f09d6f8c0c4c8220bdcf83106778fe30109929fe85b7bdf66f5121667ef808102610960527f1526b7717153a69340452f566b29ba0e8f3f0c1cffb3fecc002b342935be6169610980527f1ecee8172a7a92fe5f7d359a82887b8b27d236ae29a628d20c11e2121620a4b96109a0525f6109c08190526109e0527f260e01b251f6f1c7e7ff4e580791dee8ea51d87a358e038b4efe30fac09383c1610a00527f0118c4d5b837bcc2bc89b5b398b5974e9f5944073b32078b7e231fec938883b0610a20527f04fc6369f7110fe3d25156c1bb9a72859cf2a04641f99ba4ee413c80da6a5fe4610a40527f22febda3c0c0632a56475b4214e5615e11e6dd3f96e6cea2854a87d4dacc5e55610a60527f036853f083780e87f8d7c71d111119c57dbe118c22d5ad707a82317466c5174c613300527f30644e72e131a029b85045b68181585d97816a916871ca8d3c208c16d87cfd47600161040051610420518382830984600386838609088583840914841693505050506104405161046051838283098460038683860908858384091484169350505050610480516104a0518382830984600386838609088583840914841693505050506104c0516104e05183828309846003868386090885838409148416935050815f5280602052505061050051610520518382830984600386838609088583840914841693505050506105405161056051838283098460038683860908858384091484169350505050610580516105a0518382830984600386838609088583840914841693505050506105c0516105e05183828309846003868386090885838409148416935050505061060051610620518382830984600386838609088583840914841693505050506106405161066051838283098460038683860908858384091484169350505050610680516106a0518382830984600386838609088583840914841693505050506106c0516106e05183828309846003868386090885838409148416935050505061070051610720518382830984600386838609088583840914841693505050506107405161076051838283098460038683860908858384091484169350505050610780516107a0518382830984600386838609088583840914841693505050506107c0516107e05183828309846003868386090885838409148416935050505061080051610820518382830984600386838609088583840914841693505050506108405161086051838283098460038683860908858384091484169350505050610880516108a0518382830984600386838609088583840914841693505050506108c0516108e05183828309846003868386090885838409148416935050505061090051610920518382830984600386838609088583840914841693505050506109405161096051838283098460038683860908858384091484169350505050610980516109a05183828309846003868386090885838409148416935050505080610aef57637e5769bf60e01b5f5260045ffd5b5050612b1e80610afe5f395ff3fe608060405234801561000f575f80fd5b5060043610610034575f3560e01c8063937f6a1014610038578063ea50d0e41461006b575b5f80fd5b6040517f418ffa9bdef7621159197cd1e3cc2b6b3769601a5ad0113bcb3c1eae7e564cba81526020015b60405180910390f35b61007e610079366004612a2e565b61008e565b6040519015158152602001610062565b620400006103805260416103a0527f19ddbcaf3a8d46c15c0176fbb5b95e4dc57088ff13f4d1bd84c6bfa57dcdc0e06103c0527f30644259cd94e7dd5045d7a27013b7fcd21c9e3b7fa75222e7bda49b729b04016103e0527f05a7b4aba70e14b78821a0d30ff6b4e1f232fe8fdc5b65fcb652acbc7a612112610400527f2d427ab41fc84e6d04700df91f30f16c32c49966852e496105a37ad703f9731e610420527f21098c48f07198e9c0c1fe311f2922fff3be0d4d36727b85b457b30e61933e9e610440527f1bf81969b3565d343d3ea22902e248f64c4b483f6a05cce53a589f0550ec0e4a610460527f0270b8d8aae2f73fc5f08b9faecc5b304372dd7f2b8e399428f3ed934c42cdb7610480527f263a10ae8c941fdb6cd9a92b98cec9f12f6391d1cdecba65a1b3dbe9a624abee6104a0527f254d7693cf700f9c138bf7ad8881586d7fa1b219efcc9d939e80a5b8042bed736104c0527f04ee3d6c3d583b7f7875d71693f78ec525d58793b44504a9c7b3aae5e8b81faa6104e0527f230058139b0564aa6ede5144e29e2c4f49f63a3a9bd24fb671ff582a10008023610500527f0dd69023c666b3a5d9092ef7397baeda4569be893205a4f575af70fcf2af8f71610520527f2d128fcee4841087d16bd7f7c072b92d903075469c8721021a358ceda22ad983610540527f124cc97eb493edbe112f23ee45f8cce920cea54409ccbcae8820ea2bfcc88341610560527f2e1b791426286a53dff4f3021178166cd2f733f75f3cc6238728a7bee873033f610580527f12797075cc860cbe359da421b65172e89bdfa831e8d3801cffdb201694a41d6b6105a0527f0cc776cc99ecb9c50c74a224847b1de150ba2f87e31cf878b7911aa18f7df4366105c0527f231dd7c0c72300c228ed89ba5913b78f91ad1e02ede01fe0939ee519612504026105e0527f07b4590c2f0cb850f38974bb5ca53c2d8abc659f2dc4d12b9f56aefbec83b46b610600527f18ad4d01cf7a24ce12d95be79b52842ab1169cee446d70403214ac1e7cf5c7bd610620527f22ad0684af2dd0c196bab939f4d0afe2e71a666b9affee42d04ed29a27d0f1c4610640527f0a7bf1cb3b71e4aa5875b5944968cea3bfe94cb48dba51804c9aa240fd2f7751610660527f26545e2e7c69252309f36c2d2ee4877096425c3e0f76c6d0313886647fdc1c34610680527f18fd1add74882762599323465912b0d9790956b9b6a55c9d72222c5e83184a616106a0527f2a48862dbadd186bb067cf14219022c8d6da2dc00d605f6a9b684316f2b37a9d6106c0527f1c13efac6e7a22efe5f916861b78b22b822d3afc675a841d3fc580f50b6735156106e0527f02539a635ca57b82b3fd0ae5acf7dfc7ae8fbf7d152ea14031ef55b801176df4610700527f1c1293d01ec101a162e29c4d23da6b8ad88878323263ac400badfc43eb5bbe3b610720527f1f8b23df5d07cff0ae556481cf73ab450006de70a2572fd453ecceef5b72eaac610740527f234188fcd9cf0b7fd20029291afa1a25b9639e978bd44eeb5e173735733ceb75610760527f24ec4e91a34243b3f0a0cad6b3e3e197e896fff5bd1184e6f356ab0d2b9e8f18610780527f295b8cfdda100a52cfff8890498f4245cdf3acfe71d98db3b338453988f6df786107a0527f0474f7749df187ab47e1590590cddcfe2fda25c6ff4dfd26e7211f9730e4911f6107c0527f02d65a3f02db65058472601e184b9e0bc6619f0fec863b1e456bbe1cf238d0606107e0527f2d8baf693bf660e8fbc9ee8459ab99471e2e0010a1e7c7c0cedd07607d60711e610800527f215a1bb26337a4aaddc0d70a0ca1425448e582bbb026b47253328fe414fd9a6e610820527f225f3fbd31be1a72d035dd26b793c425832c21fd171a6490cd11a3ee9acd3da7610840527f0bfaa201bc5fdaceceab080752d855737b65c6cae330c210f6e11eeec0f55d41610860527f1f576d158e84fd80ad9538c3a4220508aecd25494ec99de3b572d30b0105d455610880527f045df0e7588220178acd390d024f40d2a68cff2eb1cb2e3ea9661e127854b6db6108a0527f201dc829e49c667451ca4db2bd583d9e0bc5e70f7dc18b955c119c64603c132e6108c0527f08d6b0d8a8d427e6cca97bd8f13e94a52c811e56cd60883487c2f64b71cb0df46108e0527e8c3722cbb28b0d0e28bcf63d26f6fc68ad4729e28642a5321227acc05a3be1610900527f2a986dc5c884bc0084ba19513cc2a597a01c59e94d3ec8d291662c2b4ed2f041610920527f1ec0a28ce4c3489582d5c37c91201963ec318ad604c8301c8ecaf684fec9a1ef610940527f09d6f8c0c4c8220bdcf83106778fe30109929fe85b7bdf66f5121667ef808102610960527f1526b7717153a69340452f566b29ba0e8f3f0c1cffb3fecc002b342935be6169610980527f1ecee8172a7a92fe5f7d359a82887b8b27d236ae29a628d20c11e2121620a4b96109a0525f6109c08190526109e08190527f260e01b251f6f1c7e7ff4e580791dee8ea51d87a358e038b4efe30fac09383c1610a00527f0118c4d5b837bcc2bc89b5b398b5974e9f5944073b32078b7e231fec938883b0610a20527f04fc6369f7110fe3d25156c1bb9a72859cf2a04641f99ba4ee413c80da6a5fe4610a40527f22febda3c0c0632a56475b4214e5615e11e6dd3f96e6cea2854a87d4dacc5e55610a60527f036853f083780e87f8d7c71d111119c57dbe118c22d5ad707a82317466c5174c613300526103a05182811461088357604051637667dc9b60e01b8152600481018290526024810184905260440160405180910390fd5b7f30644e72e131a029b85045b68181585d97816a916871ca8d3c208c16d87cfd477f30644e72e131a029b85045b68181585d2833e84879b9709143e1f593f00000016024600435018281350661122052826020820135066112005282604082013506611260528260608201350661124052826080820135066112a0528260a082013506611280528260c0820135066112e0528260e0820135066112c05282610100820135066113205282610120820135066113005282610140820135066113605282610160820135066113405282610180820135066113a052826101a08201350661138052826101c0820135066113e052826101e0820135066113c05282610200820135066114205282610220820135066114005282610240820135066114605282610260820135066114405282610280820135066114a052826102a08201350661148052816102c08201350661160052816102e0820135066116205281610300820135066116405281610320820135066116605281610340820135066116805281610360820135066116a05281610380820135066116c052816103a0820135066116e052816103c08201350661170052816103e0820135066117205281610400820135066117405281610420820135066117605281610440820135066117805281610460820135066117a05281610480820135066117c052816104a0820135066117e052816104c08201350661180052816104e0820135066119605281610500820135066119805281610520820135066119a05281610540820135066119c052816105608201350661184052816105808201350661186052816105a08201350661188052816105c0820135066118a052816105e0820135066118c05281610600820135066118e05281610620820135066119005281610640820135066119205281610660820135066119405281610680820135066119e052816106a08201350661200052816106c08201350661202052816106e0820135066120405281610700820135066120605281610720820135066120805281610740820135066120a05281610760820135066120c05281610780820135066120e052816107a08201350661210052816107c08201350661212052826107e08201350661232052826108008201350661230052826108208201350661236052826108408201350661234052506109c05115610ce3576024803501806109e05160051b0190508035602082013560441b81019050604082013560881b81019050606082013560cc1b81019050608082013560a083013560441b8101905060c083013560881b8101905060e083013560cc1b8101905061010083013561012084013560441b8101905061014084013560881b8101905061016084013560cc1b810190506101808401356101a085013560441b810190506101c085013560881b810190506101e085013560cc1b810190508361340052826134205281613440528061346052868110878410168783108886101616610cdd576375d4fa5360e11b5f5260045ffd5b50505050505b6103805160e01b5f526103a05160e01b60045260085f208061348052602480350160206103a05102808260206134800137600435602401915060c0826134a083013760e0016134802083810661266081905290925090508281800961268052828161268051096126a05250805f526112e0516020526112c051604052611320516060526113005160805260a05f20905081810661260052805f5260016020535060215f90812082810661262052815261136051602052611340516040526113a0516060526113805160805260a09020818106612640819052828180096133205282816133205109613340528281613340510961336052806133805250805f526113e0516020526113c05160405261142051606052611400516080526114605160a0526114405160c0526114a05160e05261148051610100526101205f2090508181066126c052806126e0525061260051612620516103c051600180856001602480350160206103a0510281018360058a0984600c8b0999505b81831015610e9b57823585811085169450858a82089050858183018909975085818c01880996505084888209905084888b099950602083019250610e5c565b50505080610eb25763374a972f60e01b5f5260045ffd5b50508161300052806130205250505050508081600161260051086126205109806103805160015b81811015610eee578483840992508001610ed9565b5050613100528181800990508181820961312052506126c05161038051819060015b81811015610f25578483840992508001610f10565b50508061304052826001840382089050613300518084036103e051858286088684840992508687848808820990508684840992508687848808820990508687888686098808820990506103c051925086828609915086600188038708878485099450876001890389898b888d8b8c0909090896506130205194508493508782860994508488878709955085898388099650868a61312051890997508760205f526020805260206040528b8b8a0960605260028c036080528b60a05260205f60c05f60055afa610ffd57633e2529ef60e21b5f5260045ffd5b5f5198508b818a0990508b8b8a0998508b828a0991508b613120518a0998508b838a0992508b858a0998508b848a0993508b8a8a0998508b888a0997508b868a0998508b613020518d8b8c090998508b896130005109613060528b888b09613080528b848709613680528b8388096130a0528b826131005109613140528b8188096130c052505050505050505050505061264051506126005161262051828361190051840982611620510101846118e051850983611600510101098384611940518509836116605101018561192051860984611640510101098485868385096116a051096133805109858661198051870985611620510101876119605188098661160051010109925085866119c051870985611660510101876119a0518809866116405101010991508586878885870961208051096133805109870382089050856126405161338051096133805285868788613060518a0361208051086130c0510961338051098208905085612640516133805109613380528586878860018a036116a051086130a05109613380510982086135005250505050508061264051613380510961338052806117205161266051098182836120205161178051096116405108820890508161266051820990508182836120005161176051096116205108820890508161266051820990508182836119e0516117005109611600510882089050816118405183846126605161186051098586612680516118805109876126a0516118a05109080808826120c0518485612660516120e051098687612680516121005109886126a051612120510908080883846001612600510861262051098461262051866118c051870908935084818687612600518609860808925084838509935084856001612600510885099350846130a05161264051099250848385089350846116c0518509935084838603850893508481868761260051612060510961168051080892505050826130c05161332051098381850383089150836120a05183099150838461314051830983089150508261338051848386038508096135205250508061334051613380510961338052806116e0516116005109816117005161162051098261172051611640510983611740516116605109847f183227397098d014dc2822db40c0ac2e9419f4243cdcb848a1f0fac9f80000008687600389036117a0510888611760518a6116205161160051090909098586878889858a08880886088408611780510894505050505081828384856116605161160051086119e051870308611760510884600286036117a05108096126405109828384858685612040510887600189036117a051080985086117a05109613380510961354052505080613320516133805109613380526002810360038203826116005184036116205108836116205185036116405108846116405186036116605108856116605187036119e05108866133805188898888088a8b8b8a088c8a8e038e8c8d09080909099350868788612640516133805109898a8988088b8c8c8a088d8a8f038f8c8d090809090985089350868788613320516133805109898a8987088b8c8c89088d898f038f8b8c090809090985089350868788613340516133805109898a8986088b8c8c88088d888f038f8a8b090809090985089350505050836117c051820961356052505061336051613380518392500961338052806116205182036119e051088161204051612040510982611640516116405109836116e05185612040516116405109098485868384088785870888030886878788098889611620516119e0510861200051080908925050508261338051848561176051870360010884090990508261202051611640510883611640518503856116e05161204051090884858287611620518903612000510809868685090893505050828361264051613380510984856117605187036001088509099150826117e0518484840809613580525050806116205161162051098161164051611640510982611620518460118408098360048309915083600982099050836003840992508381850385848788611620516116205108612000510809089150508283846120205161164051088561164051611640510809840384856120005187036116205108850908915082613380518209905082836126405161338051098309915082611760518209905082611760518309915082836117e0518585850809613580510861358052505080613360516133805109613380528081611620516119e05109826120005161160051090881612020518303838461164051611620510985611660516116005109080882600160441b82099050826120405184038208905082828208905082611740518209905082600160441b830991508283612000516119e05109830891508261172051848561166051611640510886038508098361176051858661204051612020510887038761166051880808099250836117005185858786860808096135c0525050612000518291506140009009816119e0518208905081614000820990508161164051820890508161400082099050816116205182089050816140008209905081611600518208905081611660518303820890508161174051820990508161400061202051098261200051820890508261400082099050826119e05182089050826140008209905082611660518208905082614000820990508261164051820890508261204051840382089050826117605182099050826117205184838508096135e0525050806126605161164051098161162051820890508161266051820990508161160051820890508161266051820990508161178051820890508082611660518403830891508161364052826116005184036119e05108836116605185036120405108848560018703840883098586848803600108830991508585876126405189858b61264051890908090861362052856126605161202051099450856120005186089450856126605186099450856119e0518608945085612660518609945085858703612040510894508561164051870361202051089150858687878903600108840987858903600108099150858487036116605108868760018903830882099050868760018903880887099550866126405184099250868284089250866126405184099250868684089250866126405184099250868184089250508161360052505083611620518503612000510892508361164051850385868488036001088609089250836117005161362051099150838461174051850983089150838461176051613640510983089150836116e0518309915083846117a051613600510983089150836135c05183089250836135e05184089250836118005184099250836133805184099250826135a05283613340516133805109613380525050508061368051826135a0518461358051866135605188613540518a61352051613500510808080808096136608190526126e0516136a08190526136c0919091526102e460043501610520816136e03750506105606136a020818106612700525f81905260016020538160215f20066127205260026020538160215f20066127405260036020538160215f20066127605260046020538160215f20066127805260056020538160215f20066127a05260066020538160215f20066127c05260076020538160215f20066127e05260086020538160215f20066128005260096020538160215f200661282052600a6020538160215f200661284052600b6020538160215f200661286052600c6020538160215f200661288052600d6020538160215f20066128a052600e6020538160215f20066128c052600f6020538160215f20066128e05260106020538160215f20066129005260116020538160215f20066129205260126020538160215f20066129405260136020538160215f20066129605260146020538160215f20066129805260156020538160215f20066129a05260166020538160215f20066129c05260176020538160215f20066129e05260186020538160215f2006612a005260196020538160215f2006612a2052601a6020538160215f2006612a4052601b6020538160215f2006612a6052601c6020538160215f2006612a8052601d6020538160215f2006612aa052601d6020535060215f908120828106612ac05281526123205160205261230051604052612360516060526123405160805260a08120829006612b00526113c0516113e0518482800985600387838609088683840914611c42576328f6b59560e21b5f5260045ffd5b50613160919091526131805261140051611420518482800985600387838609088683840914611c7a576328f6b59560e21b5f5260045ffd5b50815f528060205250506130405160405260406131a060605f60075afa90506040613160608061316060065afa8116905061144051611460518482830985600387838609088683840914611cd7576328f6b59560e21b5f5260045ffd5b505f91909152602052613040518290800960405260406131a060605f60075afa16604061316060808160065afa81169050611480516114a0518482830985600387838609088683840914611d34576328f6b59560e21b5f5260045ffd5b505f91909152602052613040518290818180090960405260406131a060605f60075afa16604061316060808160065afa8116905061120051611220518482830985600387838609088683840914611d94576328f6b59560e21b5f5260045ffd5b50815f528060205250508161270051836001612b0051080960405260406131a060605f60075afa16604061316060808160065afa8116905061124051611260518482830985600387838609088683840914611df8576328f6b59560e21b5f5260045ffd5b50815f528060205250508161272051836001612b0051080960405260406131a060605f60075afa16604061316060808160065afa81169050611280516112a0518482830985600387838609088683840914611e5c576328f6b59560e21b5f5260045ffd5b50815f528060205250508161274051836001612b0051080960405260406131a060605f60075afa16604061316060808160065afa811690506112c0516112e0518482830985600387838609088683840914611ec0576328f6b59560e21b5f5260045ffd5b50815f528060205250508161276051836001612b0051080960405260406131a060605f60075afa16604061316060808160065afa8116905061130051611320518482830985600387838609088683840914611f24576328f6b59560e21b5f5260045ffd5b50815f528060205250508161278051836001612b0051080960405260406131a060605f60075afa16604061316060808160065afa8116905061134051611360518482830985600387838609088683840914611f88576328f6b59560e21b5f5260045ffd5b50815f52806020525050816127a051836001612b0051080960405260406131a060605f60075afa16604061316060808160065afa81169050611380516113a0518482830985600387838609088683840914611fec576328f6b59560e21b5f5260045ffd5b50815f52806020525050816127c051836001612b0051080960405260406131a060605f60075afa16604061316060808160065afa81169050610400515f52610420516020526127e05160405260406131a060605f60075afa16604061316060808160065afa81169050610440515f52610460516020526128005160405260406131a060605f60075afa16604061316060808160065afa81169050610480515f526104a0516020526128205160405260406131a060605f60075afa16604061316060808160065afa811690506104c0515f526104e0516020526128405160405260406131a060605f60075afa16604061316060808160065afa81169050610500515f52610520516020526128605160405260406131a060605f60075afa16604061316060808160065afa81169050610540515f52610560516020526128805160405260406131a060605f60075afa16604061316060808160065afa81169050610580515f526105a0516020526128a05160405260406131a060605f60075afa16604061316060808160065afa811690506105c0515f526105e0516020526128c05160405260406131a060605f60075afa16604061316060808160065afa81169050610600515f52610620516020526128e05160405260406131a060605f60075afa16604061316060808160065afa81169050610640515f52610660516020526129005160405260406131a060605f60075afa16604061316060808160065afa81169050610680515f526106a0516020526129205160405260406131a060605f60075afa16604061316060808160065afa811690506106c0515f526106e0516020526129405160405260406131a060605f60075afa16604061316060808160065afa81169050610700515f52610720516020526129605160405260406131a060605f60075afa16604061316060808160065afa81169050610740515f52610760516020526129805160405260406131a060605f60075afa16604061316060808160065afa81169050610780515f526107a051602052816129a051836001612b0051080960405260406131a060605f60075afa16604061316060808160065afa811690506107c0515f526107e051602052816129c051836001612b0051080960405260406131a060605f60075afa16604061316060808160065afa81169050610800515f5261082051602052816129e051836001612b0051080960405260406131a060605f60075afa16604061316060808160065afa81169050610840515f526108605160205281612a0051836001612b0051080960405260406131a060605f60075afa16604061316060808160065afa81169050610880515f526108a051602052612a205160405260406131a060605f60075afa16604061316060808160065afa811690506108c0515f526108e051602052612a405160405260406131a060605f60075afa16604061316060808160065afa81169050610900515f5261092051602052612a605160405260406131a060605f60075afa16604061316060808160065afa81169050610940515f5261096051602052612a805160405260406131a060605f60075afa16604061316060808160065afa81169050610980515f526109a051602052612aa05160405260406131a060605f60075afa16604061316060808160065afa8116905081826116005184612b00516119e051090861270051098283846116205186612b00516120005109086127205109820890508283846116405186612b00516120205109086127405109820890508283846116605186612b00516120405109086127605109820890508283846116805186612b00516120605109086127805109820890508283846116a05186612b00516120805109086127a05109820890508283846116c05186612b00516120a05109086127c051098208905082836116e0516127e051098208905082836117005161280051098208905082836117205161282051098208905082836117405161284051098208905082836117605161286051098208905082836117805161288051098208905082836117a0516128a051098208905082836117c0516128c051098208905082836117e0516128e051098208905082836118005161290051098208905082836119605161292051098208905082836119805161294051098208905082836119a05161296051098208905082836119c0516129805109820890508283846118405186612b00516120c05109086129a05109820890508283846118605186612b00516120e05109086129c05109820890508283846118805186612b00516121005109086129e05109820890508283846118a05186612b0051612120510908612a0051098208905082836118c051612a2051098208905082836118e051612a40510982089050828361190051612a60510982089050828361192051612a80510982089050828361194051612aa051098208905082613660518208905060015f5260026020528083036040525060406131a060605f60075afa16604061316060808160065afa168061273b57634e71976360e01b5f5260045ffd5b612b00516126c0516123005161232051868283098760038983860908888384091461276f576328f6b59560e21b5f5260045ffd5b50815f528060205250508060405260406131a060605f60075afa92506040613160608061316060065afa83169250612340516123605186828309876003898386090888838409146127c9576328f6b59560e21b5f5260045ffd5b50815f52806020525050836103c05185838509096040525060406131a060605f60075afa821691506040613220608061316060065afa82169150612300515f52612320516020526123405160405261236051606052806080526040806060604060075afa8216915060406131e060805f60065afa82169150613200518403613200526109c0511561291e5761340051613420518582830986600388838609088783840914612880576328f6b59560e21b5f5260045ffd5b505f919091526020528281800960405260406060805f60075afa82169150613440516134605185828309866003888386090887838409146128ca576328f6b59560e21b5f5260045ffd5b505f91825260205260409060608160075afa821691506132205160a0526132405160c05260406132206080606060065afa821691506131e0516040526132005160605260406131e060805f60065afa821691505b5080612933576301882d8160e01b5f5260045ffd5b613220515f52613240516020527f198e9393920d483a7260bfb731fb5d25f1aa493335a9e71297e485b7aef312c26040527f1800deef121f1e76426a00665e5c4479674322d4f75edadd46debd5cd992f6ed6060527f090689d0585ff075ec9e99ad690c3395bc4b313370b38ef355acdadcd122975b6080527f12c85ea5db8c6deb4aab71808dcb408fe3d1e7690c43d37b4ce6cc0166fa7daa60a0526131e05160c0526132005160e052610a005161010052610a205161012052610a405161014052610a60516101605260205f6101805f60085afa90505f518116612a225763d71fd26360e01b5f5260045ffd5b50505060015f5260205ff35b5f805f8060408587031215612a41575f80fd5b843567ffffffffffffffff80821115612a58575f80fd5b818701915087601f830112612a6b575f80fd5b813581811115612a79575f80fd5b886020828501011115612a8a575f80fd5b602092830196509450908601359080821115612aa4575f80fd5b818701915087601f830112612ab7575f80fd5b813581811115612ac5575f80fd5b8860208260051b8501011115612ad9575f80fd5b9598949750506020019450505056fea264697066735822122049c7b3ba237ad912827f1eb23af469df0df8938e3f7670727d5c1d6a96f8b43764736f6c63430008170033","opcodes":"PUSH1 0x80 PUSH1 0x40 MSTORE CALLVALUE DUP1 ISZERO PUSH2 0xF JUMPI PUSH0 DUP1 REVERT JUMPDEST POP PUSH3 0x40000 PUSH2 0x380 MSTORE PUSH1 0x41 PUSH2 0x3A0 MSTORE PUSH32 0x19DDBCAF3A8D46C15C0176FBB5B95E4DC57088FF13F4D1BD84C6BFA57DCDC0E0 PUSH2 0x3C0 MSTORE PUSH32 0x30644259CD94E7DD5045D7A27013B7FCD21C9E3B7FA75222E7BDA49B729B0401 PUSH2 0x3E0 MSTORE PUSH32 0x5A7B4ABA70E14B78821A0D30FF6B4E1F232FE8FDC5B65FCB652ACBC7A612112 PUSH2 0x400 MSTORE PUSH32 0x2D427AB41FC84E6D04700DF91F30F16C32C49966852E496105A37AD703F9731E PUSH2 0x420 MSTORE PUSH32 0x21098C48F07198E9C0C1FE311F2922FFF3BE0D4D36727B85B457B30E61933E9E PUSH2 0x440 MSTORE PUSH32 0x1BF81969B3565D343D3EA22902E248F64C4B483F6A05CCE53A589F0550EC0E4A PUSH2 0x460 MSTORE PUSH32 0x270B8D8AAE2F73FC5F08B9FAECC5B304372DD7F2B8E399428F3ED934C42CDB7 PUSH2 0x480 MSTORE PUSH32 0x263A10AE8C941FDB6CD9A92B98CEC9F12F6391D1CDECBA65A1B3DBE9A624ABEE PUSH2 0x4A0 MSTORE PUSH32 0x254D7693CF700F9C138BF7AD8881586D7FA1B219EFCC9D939E80A5B8042BED73 PUSH2 0x4C0 MSTORE PUSH32 0x4EE3D6C3D583B7F7875D71693F78EC525D58793B44504A9C7B3AAE5E8B81FAA PUSH2 0x4E0 MSTORE PUSH32 0x230058139B0564AA6EDE5144E29E2C4F49F63A3A9BD24FB671FF582A10008023 PUSH2 0x500 MSTORE PUSH32 0xDD69023C666B3A5D9092EF7397BAEDA4569BE893205A4F575AF70FCF2AF8F71 PUSH2 0x520 MSTORE PUSH32 0x2D128FCEE4841087D16BD7F7C072B92D903075469C8721021A358CEDA22AD983 PUSH2 0x540 MSTORE PUSH32 0x124CC97EB493EDBE112F23EE45F8CCE920CEA54409CCBCAE8820EA2BFCC88341 PUSH2 0x560 MSTORE PUSH32 0x2E1B791426286A53DFF4F3021178166CD2F733F75F3CC6238728A7BEE873033F PUSH2 0x580 MSTORE PUSH32 0x12797075CC860CBE359DA421B65172E89BDFA831E8D3801CFFDB201694A41D6B PUSH2 0x5A0 MSTORE PUSH32 0xCC776CC99ECB9C50C74A224847B1DE150BA2F87E31CF878B7911AA18F7DF436 PUSH2 0x5C0 MSTORE PUSH32 0x231DD7C0C72300C228ED89BA5913B78F91AD1E02EDE01FE0939EE51961250402 PUSH2 0x5E0 MSTORE PUSH32 0x7B4590C2F0CB850F38974BB5CA53C2D8ABC659F2DC4D12B9F56AEFBEC83B46B PUSH2 0x600 MSTORE PUSH32 0x18AD4D01CF7A24CE12D95BE79B52842AB1169CEE446D70403214AC1E7CF5C7BD PUSH2 0x620 MSTORE PUSH32 0x22AD0684AF2DD0C196BAB939F4D0AFE2E71A666B9AFFEE42D04ED29A27D0F1C4 PUSH2 0x640 MSTORE PUSH32 0xA7BF1CB3B71E4AA5875B5944968CEA3BFE94CB48DBA51804C9AA240FD2F7751 PUSH2 0x660 MSTORE PUSH32 0x26545E2E7C69252309F36C2D2EE4877096425C3E0F76C6D0313886647FDC1C34 PUSH2 0x680 MSTORE PUSH32 0x18FD1ADD74882762599323465912B0D9790956B9B6A55C9D72222C5E83184A61 PUSH2 0x6A0 MSTORE PUSH32 0x2A48862DBADD186BB067CF14219022C8D6DA2DC00D605F6A9B684316F2B37A9D PUSH2 0x6C0 MSTORE PUSH32 0x1C13EFAC6E7A22EFE5F916861B78B22B822D3AFC675A841D3FC580F50B673515 PUSH2 0x6E0 MSTORE PUSH32 0x2539A635CA57B82B3FD0AE5ACF7DFC7AE8FBF7D152EA14031EF55B801176DF4 PUSH2 0x700 MSTORE PUSH32 0x1C1293D01EC101A162E29C4D23DA6B8AD88878323263AC400BADFC43EB5BBE3B PUSH2 0x720 MSTORE PUSH32 0x1F8B23DF5D07CFF0AE556481CF73AB450006DE70A2572FD453ECCEEF5B72EAAC PUSH2 0x740 MSTORE PUSH32 0x234188FCD9CF0B7FD20029291AFA1A25B9639E978BD44EEB5E173735733CEB75 PUSH2 0x760 MSTORE PUSH32 0x24EC4E91A34243B3F0A0CAD6B3E3E197E896FFF5BD1184E6F356AB0D2B9E8F18 PUSH2 0x780 MSTORE PUSH32 0x295B8CFDDA100A52CFFF8890498F4245CDF3ACFE71D98DB3B338453988F6DF78 PUSH2 0x7A0 MSTORE PUSH32 0x474F7749DF187AB47E1590590CDDCFE2FDA25C6FF4DFD26E7211F9730E4911F PUSH2 0x7C0 MSTORE PUSH32 0x2D65A3F02DB65058472601E184B9E0BC6619F0FEC863B1E456BBE1CF238D060 PUSH2 0x7E0 MSTORE PUSH32 0x2D8BAF693BF660E8FBC9EE8459AB99471E2E0010A1E7C7C0CEDD07607D60711E PUSH2 0x800 MSTORE PUSH32 0x215A1BB26337A4AADDC0D70A0CA1425448E582BBB026B47253328FE414FD9A6E PUSH2 0x820 MSTORE PUSH32 0x225F3FBD31BE1A72D035DD26B793C425832C21FD171A6490CD11A3EE9ACD3DA7 PUSH2 0x840 MSTORE PUSH32 0xBFAA201BC5FDACECEAB080752D855737B65C6CAE330C210F6E11EEEC0F55D41 PUSH2 0x860 MSTORE PUSH32 0x1F576D158E84FD80AD9538C3A4220508AECD25494EC99DE3B572D30B0105D455 PUSH2 0x880 MSTORE PUSH32 0x45DF0E7588220178ACD390D024F40D2A68CFF2EB1CB2E3EA9661E127854B6DB PUSH2 0x8A0 MSTORE PUSH32 0x201DC829E49C667451CA4DB2BD583D9E0BC5E70F7DC18B955C119C64603C132E PUSH2 0x8C0 MSTORE PUSH32 0x8D6B0D8A8D427E6CCA97BD8F13E94A52C811E56CD60883487C2F64B71CB0DF4 PUSH2 0x8E0 MSTORE PUSH31 0x8C3722CBB28B0D0E28BCF63D26F6FC68AD4729E28642A5321227ACC05A3BE1 PUSH2 0x900 MSTORE PUSH32 0x2A986DC5C884BC0084BA19513CC2A597A01C59E94D3EC8D291662C2B4ED2F041 PUSH2 0x920 MSTORE PUSH32 0x1EC0A28CE4C3489582D5C37C91201963EC318AD604C8301C8ECAF684FEC9A1EF PUSH2 0x940 MSTORE PUSH32 0x9D6F8C0C4C8220BDCF83106778FE30109929FE85B7BDF66F5121667EF808102 PUSH2 0x960 MSTORE PUSH32 0x1526B7717153A69340452F566B29BA0E8F3F0C1CFFB3FECC002B342935BE6169 PUSH2 0x980 MSTORE PUSH32 0x1ECEE8172A7A92FE5F7D359A82887B8B27D236AE29A628D20C11E2121620A4B9 PUSH2 0x9A0 MSTORE PUSH0 PUSH2 0x9C0 DUP2 SWAP1 MSTORE PUSH2 0x9E0 MSTORE PUSH32 0x260E01B251F6F1C7E7FF4E580791DEE8EA51D87A358E038B4EFE30FAC09383C1 PUSH2 0xA00 MSTORE PUSH32 0x118C4D5B837BCC2BC89B5B398B5974E9F5944073B32078B7E231FEC938883B0 PUSH2 0xA20 MSTORE PUSH32 0x4FC6369F7110FE3D25156C1BB9A72859CF2A04641F99BA4EE413C80DA6A5FE4 PUSH2 0xA40 MSTORE PUSH32 0x22FEBDA3C0C0632A56475B4214E5615E11E6DD3F96E6CEA2854A87D4DACC5E55 PUSH2 0xA60 MSTORE PUSH32 0x36853F083780E87F8D7C71D111119C57DBE118C22D5AD707A82317466C5174C PUSH2 0x3300 MSTORE PUSH32 0x30644E72E131A029B85045B68181585D97816A916871CA8D3C208C16D87CFD47 PUSH1 0x1 PUSH2 0x400 MLOAD PUSH2 0x420 MLOAD DUP4 DUP3 DUP4 MULMOD DUP5 PUSH1 0x3 DUP7 DUP4 DUP7 MULMOD ADDMOD DUP6 DUP4 DUP5 MULMOD EQ DUP5 AND SWAP4 POP POP POP POP PUSH2 0x440 MLOAD PUSH2 0x460 MLOAD DUP4 DUP3 DUP4 MULMOD DUP5 PUSH1 0x3 DUP7 DUP4 DUP7 MULMOD ADDMOD DUP6 DUP4 DUP5 MULMOD EQ DUP5 AND SWAP4 POP POP POP POP PUSH2 0x480 MLOAD PUSH2 0x4A0 MLOAD DUP4 DUP3 DUP4 MULMOD DUP5 PUSH1 0x3 DUP7 DUP4 DUP7 MULMOD ADDMOD DUP6 DUP4 DUP5 MULMOD EQ DUP5 AND SWAP4 POP POP POP POP PUSH2 0x4C0 MLOAD PUSH2 0x4E0 MLOAD DUP4 DUP3 DUP4 MULMOD DUP5 PUSH1 0x3 DUP7 DUP4 DUP7 MULMOD ADDMOD DUP6 DUP4 DUP5 MULMOD EQ DUP5 AND SWAP4 POP POP DUP2 PUSH0 MSTORE DUP1 PUSH1 0x20 MSTORE POP POP PUSH2 0x500 MLOAD PUSH2 0x520 MLOAD DUP4 DUP3 DUP4 MULMOD DUP5 PUSH1 0x3 DUP7 DUP4 DUP7 MULMOD ADDMOD DUP6 DUP4 DUP5 MULMOD EQ DUP5 AND SWAP4 POP POP POP POP PUSH2 0x540 MLOAD PUSH2 0x560 MLOAD DUP4 DUP3 DUP4 MULMOD DUP5 PUSH1 0x3 DUP7 DUP4 DUP7 MULMOD ADDMOD DUP6 DUP4 DUP5 MULMOD EQ DUP5 AND SWAP4 POP POP POP POP PUSH2 0x580 MLOAD PUSH2 0x5A0 MLOAD DUP4 DUP3 DUP4 MULMOD DUP5 PUSH1 0x3 DUP7 DUP4 DUP7 MULMOD ADDMOD DUP6 DUP4 DUP5 MULMOD EQ DUP5 AND SWAP4 POP POP POP POP PUSH2 0x5C0 MLOAD PUSH2 0x5E0 MLOAD DUP4 DUP3 DUP4 MULMOD DUP5 PUSH1 0x3 DUP7 DUP4 DUP7 MULMOD ADDMOD DUP6 DUP4 DUP5 MULMOD EQ DUP5 AND SWAP4 POP POP POP POP PUSH2 0x600 MLOAD PUSH2 0x620 MLOAD DUP4 DUP3 DUP4 MULMOD DUP5 PUSH1 0x3 DUP7 DUP4 DUP7 MULMOD ADDMOD DUP6 DUP4 DUP5 MULMOD EQ DUP5 AND SWAP4 POP POP POP POP PUSH2 0x640 MLOAD PUSH2 0x660 MLOAD DUP4 DUP3 DUP4 MULMOD DUP5 PUSH1 0x3 DUP7 DUP4 DUP7 MULMOD ADDMOD DUP6 DUP4 DUP5 MULMOD EQ DUP5 AND SWAP4 POP POP POP POP PUSH2 0x680 MLOAD PUSH2 0x6A0 MLOAD DUP4 DUP3 DUP4 MULMOD DUP5 PUSH1 0x3 DUP7 DUP4 DUP7 MULMOD ADDMOD DUP6 DUP4 DUP5 MULMOD EQ DUP5 AND SWAP4 POP POP POP POP PUSH2 0x6C0 MLOAD PUSH2 0x6E0 MLOAD DUP4 DUP3 DUP4 MULMOD DUP5 PUSH1 0x3 DUP7 DUP4 DUP7 MULMOD ADDMOD DUP6 DUP4 DUP5 MULMOD EQ DUP5 AND SWAP4 POP POP POP POP PUSH2 0x700 MLOAD PUSH2 0x720 MLOAD DUP4 DUP3 DUP4 MULMOD DUP5 PUSH1 0x3 DUP7 DUP4 DUP7 MULMOD ADDMOD DUP6 DUP4 DUP5 MULMOD EQ DUP5 AND SWAP4 POP POP POP POP PUSH2 0x740 MLOAD PUSH2 0x760 MLOAD DUP4 DUP3 DUP4 MULMOD DUP5 PUSH1 0x3 DUP7 DUP4 DUP7 MULMOD ADDMOD DUP6 DUP4 DUP5 MULMOD EQ DUP5 AND SWAP4 POP POP POP POP PUSH2 0x780 MLOAD PUSH2 0x7A0 MLOAD DUP4 DUP3 DUP4 MULMOD DUP5 PUSH1 0x3 DUP7 DUP4 DUP7 MULMOD ADDMOD DUP6 DUP4 DUP5 MULMOD EQ DUP5 AND SWAP4 POP POP POP POP PUSH2 0x7C0 MLOAD PUSH2 0x7E0 MLOAD DUP4 DUP3 DUP4 MULMOD DUP5 PUSH1 0x3 DUP7 DUP4 DUP7 MULMOD ADDMOD DUP6 DUP4 DUP5 MULMOD EQ DUP5 AND SWAP4 POP POP POP POP PUSH2 0x800 MLOAD PUSH2 0x820 MLOAD DUP4 DUP3 DUP4 MULMOD DUP5 PUSH1 0x3 DUP7 DUP4 DUP7 MULMOD ADDMOD DUP6 DUP4 DUP5 MULMOD EQ DUP5 AND SWAP4 POP POP POP POP PUSH2 0x840 MLOAD PUSH2 0x860 MLOAD DUP4 DUP3 DUP4 MULMOD DUP5 PUSH1 0x3 DUP7 DUP4 DUP7 MULMOD ADDMOD DUP6 DUP4 DUP5 MULMOD EQ DUP5 AND SWAP4 POP POP POP POP PUSH2 0x880 MLOAD PUSH2 0x8A0 MLOAD DUP4 DUP3 DUP4 MULMOD DUP5 PUSH1 0x3 DUP7 DUP4 DUP7 MULMOD ADDMOD DUP6 DUP4 DUP5 MULMOD EQ DUP5 AND SWAP4 POP POP POP POP PUSH2 0x8C0 MLOAD PUSH2 0x8E0 MLOAD DUP4 DUP3 DUP4 MULMOD DUP5 PUSH1 0x3 DUP7 DUP4 DUP7 MULMOD ADDMOD DUP6 DUP4 DUP5 MULMOD EQ DUP5 AND SWAP4 POP POP POP POP PUSH2 0x900 MLOAD PUSH2 0x920 MLOAD DUP4 DUP3 DUP4 MULMOD DUP5 PUSH1 0x3 DUP7 DUP4 DUP7 MULMOD ADDMOD DUP6 DUP4 DUP5 MULMOD EQ DUP5 AND SWAP4 POP POP POP POP PUSH2 0x940 MLOAD PUSH2 0x960 MLOAD DUP4 DUP3 DUP4 MULMOD DUP5 PUSH1 0x3 DUP7 DUP4 DUP7 MULMOD ADDMOD DUP6 DUP4 DUP5 MULMOD EQ DUP5 AND SWAP4 POP POP POP POP PUSH2 0x980 MLOAD PUSH2 0x9A0 MLOAD DUP4 DUP3 DUP4 MULMOD DUP5 PUSH1 0x3 DUP7 DUP4 DUP7 MULMOD ADDMOD DUP6 DUP4 DUP5 MULMOD EQ DUP5 AND SWAP4 POP POP POP POP DUP1 PUSH2 0xAEF JUMPI PUSH4 0x7E5769BF PUSH1 0xE0 SHL PUSH0 MSTORE PUSH1 0x4 PUSH0 REVERT JUMPDEST POP POP PUSH2 0x2B1E DUP1 PUSH2 0xAFE PUSH0 CODECOPY PUSH0 RETURN INVALID PUSH1 0x80 PUSH1 0x40 MSTORE CALLVALUE DUP1 ISZERO PUSH2 0xF JUMPI PUSH0 DUP1 REVERT JUMPDEST POP PUSH1 0x4 CALLDATASIZE LT PUSH2 0x34 JUMPI PUSH0 CALLDATALOAD PUSH1 0xE0 SHR DUP1 PUSH4 0x937F6A10 EQ PUSH2 0x38 JUMPI DUP1 PUSH4 0xEA50D0E4 EQ PUSH2 0x6B JUMPI JUMPDEST PUSH0 DUP1 REVERT JUMPDEST PUSH1 0x40 MLOAD PUSH32 0x418FFA9BDEF7621159197CD1E3CC2B6B3769601A5AD0113BCB3C1EAE7E564CBA DUP2 MSTORE PUSH1 0x20 ADD JUMPDEST PUSH1 0x40 MLOAD DUP1 SWAP2 SUB SWAP1 RETURN JUMPDEST PUSH2 0x7E PUSH2 0x79 CALLDATASIZE PUSH1 0x4 PUSH2 0x2A2E JUMP JUMPDEST PUSH2 0x8E JUMP JUMPDEST PUSH1 0x40 MLOAD SWAP1 ISZERO ISZERO DUP2 MSTORE PUSH1 0x20 ADD PUSH2 0x62 JUMP JUMPDEST PUSH3 0x40000 PUSH2 0x380 MSTORE PUSH1 0x41 PUSH2 0x3A0 MSTORE PUSH32 0x19DDBCAF3A8D46C15C0176FBB5B95E4DC57088FF13F4D1BD84C6BFA57DCDC0E0 PUSH2 0x3C0 MSTORE PUSH32 0x30644259CD94E7DD5045D7A27013B7FCD21C9E3B7FA75222E7BDA49B729B0401 PUSH2 0x3E0 MSTORE PUSH32 0x5A7B4ABA70E14B78821A0D30FF6B4E1F232FE8FDC5B65FCB652ACBC7A612112 PUSH2 0x400 MSTORE PUSH32 0x2D427AB41FC84E6D04700DF91F30F16C32C49966852E496105A37AD703F9731E PUSH2 0x420 MSTORE PUSH32 0x21098C48F07198E9C0C1FE311F2922FFF3BE0D4D36727B85B457B30E61933E9E PUSH2 0x440 MSTORE PUSH32 0x1BF81969B3565D343D3EA22902E248F64C4B483F6A05CCE53A589F0550EC0E4A PUSH2 0x460 MSTORE PUSH32 0x270B8D8AAE2F73FC5F08B9FAECC5B304372DD7F2B8E399428F3ED934C42CDB7 PUSH2 0x480 MSTORE PUSH32 0x263A10AE8C941FDB6CD9A92B98CEC9F12F6391D1CDECBA65A1B3DBE9A624ABEE PUSH2 0x4A0 MSTORE PUSH32 0x254D7693CF700F9C138BF7AD8881586D7FA1B219EFCC9D939E80A5B8042BED73 PUSH2 0x4C0 MSTORE PUSH32 0x4EE3D6C3D583B7F7875D71693F78EC525D58793B44504A9C7B3AAE5E8B81FAA PUSH2 0x4E0 MSTORE PUSH32 0x230058139B0564AA6EDE5144E29E2C4F49F63A3A9BD24FB671FF582A10008023 PUSH2 0x500 MSTORE PUSH32 0xDD69023C666B3A5D9092EF7397BAEDA4569BE893205A4F575AF70FCF2AF8F71 PUSH2 0x520 MSTORE PUSH32 0x2D128FCEE4841087D16BD7F7C072B92D903075469C8721021A358CEDA22AD983 PUSH2 0x540 MSTORE PUSH32 0x124CC97EB493EDBE112F23EE45F8CCE920CEA54409CCBCAE8820EA2BFCC88341 PUSH2 0x560 MSTORE PUSH32 0x2E1B791426286A53DFF4F3021178166CD2F733F75F3CC6238728A7BEE873033F PUSH2 0x580 MSTORE PUSH32 0x12797075CC860CBE359DA421B65172E89BDFA831E8D3801CFFDB201694A41D6B PUSH2 0x5A0 MSTORE PUSH32 0xCC776CC99ECB9C50C74A224847B1DE150BA2F87E31CF878B7911AA18F7DF436 PUSH2 0x5C0 MSTORE PUSH32 0x231DD7C0C72300C228ED89BA5913B78F91AD1E02EDE01FE0939EE51961250402 PUSH2 0x5E0 MSTORE PUSH32 0x7B4590C2F0CB850F38974BB5CA53C2D8ABC659F2DC4D12B9F56AEFBEC83B46B PUSH2 0x600 MSTORE PUSH32 0x18AD4D01CF7A24CE12D95BE79B52842AB1169CEE446D70403214AC1E7CF5C7BD PUSH2 0x620 MSTORE PUSH32 0x22AD0684AF2DD0C196BAB939F4D0AFE2E71A666B9AFFEE42D04ED29A27D0F1C4 PUSH2 0x640 MSTORE PUSH32 0xA7BF1CB3B71E4AA5875B5944968CEA3BFE94CB48DBA51804C9AA240FD2F7751 PUSH2 0x660 MSTORE PUSH32 0x26545E2E7C69252309F36C2D2EE4877096425C3E0F76C6D0313886647FDC1C34 PUSH2 0x680 MSTORE PUSH32 0x18FD1ADD74882762599323465912B0D9790956B9B6A55C9D72222C5E83184A61 PUSH2 0x6A0 MSTORE PUSH32 0x2A48862DBADD186BB067CF14219022C8D6DA2DC00D605F6A9B684316F2B37A9D PUSH2 0x6C0 MSTORE PUSH32 0x1C13EFAC6E7A22EFE5F916861B78B22B822D3AFC675A841D3FC580F50B673515 PUSH2 0x6E0 MSTORE PUSH32 0x2539A635CA57B82B3FD0AE5ACF7DFC7AE8FBF7D152EA14031EF55B801176DF4 PUSH2 0x700 MSTORE PUSH32 0x1C1293D01EC101A162E29C4D23DA6B8AD88878323263AC400BADFC43EB5BBE3B PUSH2 0x720 MSTORE PUSH32 0x1F8B23DF5D07CFF0AE556481CF73AB450006DE70A2572FD453ECCEEF5B72EAAC PUSH2 0x740 MSTORE PUSH32 0x234188FCD9CF0B7FD20029291AFA1A25B9639E978BD44EEB5E173735733CEB75 PUSH2 0x760 MSTORE PUSH32 0x24EC4E91A34243B3F0A0CAD6B3E3E197E896FFF5BD1184E6F356AB0D2B9E8F18 PUSH2 0x780 MSTORE PUSH32 0x295B8CFDDA100A52CFFF8890498F4245CDF3ACFE71D98DB3B338453988F6DF78 PUSH2 0x7A0 MSTORE PUSH32 0x474F7749DF187AB47E1590590CDDCFE2FDA25C6FF4DFD26E7211F9730E4911F PUSH2 0x7C0 MSTORE PUSH32 0x2D65A3F02DB65058472601E184B9E0BC6619F0FEC863B1E456BBE1CF238D060 PUSH2 0x7E0 MSTORE PUSH32 0x2D8BAF693BF660E8FBC9EE8459AB99471E2E0010A1E7C7C0CEDD07607D60711E PUSH2 0x800 MSTORE PUSH32 0x215A1BB26337A4AADDC0D70A0CA1425448E582BBB026B47253328FE414FD9A6E PUSH2 0x820 MSTORE PUSH32 0x225F3FBD31BE1A72D035DD26B793C425832C21FD171A6490CD11A3EE9ACD3DA7 PUSH2 0x840 MSTORE PUSH32 0xBFAA201BC5FDACECEAB080752D855737B65C6CAE330C210F6E11EEEC0F55D41 PUSH2 0x860 MSTORE PUSH32 0x1F576D158E84FD80AD9538C3A4220508AECD25494EC99DE3B572D30B0105D455 PUSH2 0x880 MSTORE PUSH32 0x45DF0E7588220178ACD390D024F40D2A68CFF2EB1CB2E3EA9661E127854B6DB PUSH2 0x8A0 MSTORE PUSH32 0x201DC829E49C667451CA4DB2BD583D9E0BC5E70F7DC18B955C119C64603C132E PUSH2 0x8C0 MSTORE PUSH32 0x8D6B0D8A8D427E6CCA97BD8F13E94A52C811E56CD60883487C2F64B71CB0DF4 PUSH2 0x8E0 MSTORE PUSH31 0x8C3722CBB28B0D0E28BCF63D26F6FC68AD4729E28642A5321227ACC05A3BE1 PUSH2 0x900 MSTORE PUSH32 0x2A986DC5C884BC0084BA19513CC2A597A01C59E94D3EC8D291662C2B4ED2F041 PUSH2 0x920 MSTORE PUSH32 0x1EC0A28CE4C3489582D5C37C91201963EC318AD604C8301C8ECAF684FEC9A1EF PUSH2 0x940 MSTORE PUSH32 0x9D6F8C0C4C8220BDCF83106778FE30109929FE85B7BDF66F5121667EF808102 PUSH2 0x960 MSTORE PUSH32 0x1526B7717153A69340452F566B29BA0E8F3F0C1CFFB3FECC002B342935BE6169 PUSH2 0x980 MSTORE PUSH32 0x1ECEE8172A7A92FE5F7D359A82887B8B27D236AE29A628D20C11E2121620A4B9 PUSH2 0x9A0 MSTORE PUSH0 PUSH2 0x9C0 DUP2 SWAP1 MSTORE PUSH2 0x9E0 DUP2 SWAP1 MSTORE PUSH32 0x260E01B251F6F1C7E7FF4E580791DEE8EA51D87A358E038B4EFE30FAC09383C1 PUSH2 0xA00 MSTORE PUSH32 0x118C4D5B837BCC2BC89B5B398B5974E9F5944073B32078B7E231FEC938883B0 PUSH2 0xA20 MSTORE PUSH32 0x4FC6369F7110FE3D25156C1BB9A72859CF2A04641F99BA4EE413C80DA6A5FE4 PUSH2 0xA40 MSTORE PUSH32 0x22FEBDA3C0C0632A56475B4214E5615E11E6DD3F96E6CEA2854A87D4DACC5E55 PUSH2 0xA60 MSTORE PUSH32 0x36853F083780E87F8D7C71D111119C57DBE118C22D5AD707A82317466C5174C PUSH2 0x3300 MSTORE PUSH2 0x3A0 MLOAD DUP3 DUP2 EQ PUSH2 0x883 JUMPI PUSH1 0x40 MLOAD PUSH4 0x7667DC9B PUSH1 0xE0 SHL DUP2 MSTORE PUSH1 0x4 DUP2 ADD DUP3 SWAP1 MSTORE PUSH1 0x24 DUP2 ADD DUP5 SWAP1 MSTORE PUSH1 0x44 ADD PUSH1 0x40 MLOAD DUP1 SWAP2 SUB SWAP1 REVERT JUMPDEST PUSH32 0x30644E72E131A029B85045B68181585D97816A916871CA8D3C208C16D87CFD47 PUSH32 0x30644E72E131A029B85045B68181585D2833E84879B9709143E1F593F0000001 PUSH1 0x24 PUSH1 0x4 CALLDATALOAD ADD DUP3 DUP2 CALLDATALOAD MOD PUSH2 0x1220 MSTORE DUP3 PUSH1 0x20 DUP3 ADD CALLDATALOAD MOD PUSH2 0x1200 MSTORE DUP3 PUSH1 0x40 DUP3 ADD CALLDATALOAD MOD PUSH2 0x1260 MSTORE DUP3 PUSH1 0x60 DUP3 ADD CALLDATALOAD MOD PUSH2 0x1240 MSTORE DUP3 PUSH1 0x80 DUP3 ADD CALLDATALOAD MOD PUSH2 0x12A0 MSTORE DUP3 PUSH1 0xA0 DUP3 ADD CALLDATALOAD MOD PUSH2 0x1280 MSTORE DUP3 PUSH1 0xC0 DUP3 ADD CALLDATALOAD MOD PUSH2 0x12E0 MSTORE DUP3 PUSH1 0xE0 DUP3 ADD CALLDATALOAD MOD PUSH2 0x12C0 MSTORE DUP3 PUSH2 0x100 DUP3 ADD CALLDATALOAD MOD PUSH2 0x1320 MSTORE DUP3 PUSH2 0x120 DUP3 ADD CALLDATALOAD MOD PUSH2 0x1300 MSTORE DUP3 PUSH2 0x140 DUP3 ADD CALLDATALOAD MOD PUSH2 0x1360 MSTORE DUP3 PUSH2 0x160 DUP3 ADD CALLDATALOAD MOD PUSH2 0x1340 MSTORE DUP3 PUSH2 0x180 DUP3 ADD CALLDATALOAD MOD PUSH2 0x13A0 MSTORE DUP3 PUSH2 0x1A0 DUP3 ADD CALLDATALOAD MOD PUSH2 0x1380 MSTORE DUP3 PUSH2 0x1C0 DUP3 ADD CALLDATALOAD MOD PUSH2 0x13E0 MSTORE DUP3 PUSH2 0x1E0 DUP3 ADD CALLDATALOAD MOD PUSH2 0x13C0 MSTORE DUP3 PUSH2 0x200 DUP3 ADD CALLDATALOAD MOD PUSH2 0x1420 MSTORE DUP3 PUSH2 0x220 DUP3 ADD CALLDATALOAD MOD PUSH2 0x1400 MSTORE DUP3 PUSH2 0x240 DUP3 ADD CALLDATALOAD MOD PUSH2 0x1460 MSTORE DUP3 PUSH2 0x260 DUP3 ADD CALLDATALOAD MOD PUSH2 0x1440 MSTORE DUP3 PUSH2 0x280 DUP3 ADD CALLDATALOAD MOD PUSH2 0x14A0 MSTORE DUP3 PUSH2 0x2A0 DUP3 ADD CALLDATALOAD MOD PUSH2 0x1480 MSTORE DUP2 PUSH2 0x2C0 DUP3 ADD CALLDATALOAD MOD PUSH2 0x1600 MSTORE DUP2 PUSH2 0x2E0 DUP3 ADD CALLDATALOAD MOD PUSH2 0x1620 MSTORE DUP2 PUSH2 0x300 DUP3 ADD CALLDATALOAD MOD PUSH2 0x1640 MSTORE DUP2 PUSH2 0x320 DUP3 ADD CALLDATALOAD MOD PUSH2 0x1660 MSTORE DUP2 PUSH2 0x340 DUP3 ADD CALLDATALOAD MOD PUSH2 0x1680 MSTORE DUP2 PUSH2 0x360 DUP3 ADD CALLDATALOAD MOD PUSH2 0x16A0 MSTORE DUP2 PUSH2 0x380 DUP3 ADD CALLDATALOAD MOD PUSH2 0x16C0 MSTORE DUP2 PUSH2 0x3A0 DUP3 ADD CALLDATALOAD MOD PUSH2 0x16E0 MSTORE DUP2 PUSH2 0x3C0 DUP3 ADD CALLDATALOAD MOD PUSH2 0x1700 MSTORE DUP2 PUSH2 0x3E0 DUP3 ADD CALLDATALOAD MOD PUSH2 0x1720 MSTORE DUP2 PUSH2 0x400 DUP3 ADD CALLDATALOAD MOD PUSH2 0x1740 MSTORE DUP2 PUSH2 0x420 DUP3 ADD CALLDATALOAD MOD PUSH2 0x1760 MSTORE DUP2 PUSH2 0x440 DUP3 ADD CALLDATALOAD MOD PUSH2 0x1780 MSTORE DUP2 PUSH2 0x460 DUP3 ADD CALLDATALOAD MOD PUSH2 0x17A0 MSTORE DUP2 PUSH2 0x480 DUP3 ADD CALLDATALOAD MOD PUSH2 0x17C0 MSTORE DUP2 PUSH2 0x4A0 DUP3 ADD CALLDATALOAD MOD PUSH2 0x17E0 MSTORE DUP2 PUSH2 0x4C0 DUP3 ADD CALLDATALOAD MOD PUSH2 0x1800 MSTORE DUP2 PUSH2 0x4E0 DUP3 ADD CALLDATALOAD MOD PUSH2 0x1960 MSTORE DUP2 PUSH2 0x500 DUP3 ADD CALLDATALOAD MOD PUSH2 0x1980 MSTORE DUP2 PUSH2 0x520 DUP3 ADD CALLDATALOAD MOD PUSH2 0x19A0 MSTORE DUP2 PUSH2 0x540 DUP3 ADD CALLDATALOAD MOD PUSH2 0x19C0 MSTORE DUP2 PUSH2 0x560 DUP3 ADD CALLDATALOAD MOD PUSH2 0x1840 MSTORE DUP2 PUSH2 0x580 DUP3 ADD CALLDATALOAD MOD PUSH2 0x1860 MSTORE DUP2 PUSH2 0x5A0 DUP3 ADD CALLDATALOAD MOD PUSH2 0x1880 MSTORE DUP2 PUSH2 0x5C0 DUP3 ADD CALLDATALOAD MOD PUSH2 0x18A0 MSTORE DUP2 PUSH2 0x5E0 DUP3 ADD CALLDATALOAD MOD PUSH2 0x18C0 MSTORE DUP2 PUSH2 0x600 DUP3 ADD CALLDATALOAD MOD PUSH2 0x18E0 MSTORE DUP2 PUSH2 0x620 DUP3 ADD CALLDATALOAD MOD PUSH2 0x1900 MSTORE DUP2 PUSH2 0x640 DUP3 ADD CALLDATALOAD MOD PUSH2 0x1920 MSTORE DUP2 PUSH2 0x660 DUP3 ADD CALLDATALOAD MOD PUSH2 0x1940 MSTORE DUP2 PUSH2 0x680 DUP3 ADD CALLDATALOAD MOD PUSH2 0x19E0 MSTORE DUP2 PUSH2 0x6A0 DUP3 ADD CALLDATALOAD MOD PUSH2 0x2000 MSTORE DUP2 PUSH2 0x6C0 DUP3 ADD CALLDATALOAD MOD PUSH2 0x2020 MSTORE DUP2 PUSH2 0x6E0 DUP3 ADD CALLDATALOAD MOD PUSH2 0x2040 MSTORE DUP2 PUSH2 0x700 DUP3 ADD CALLDATALOAD MOD PUSH2 0x2060 MSTORE DUP2 PUSH2 0x720 DUP3 ADD CALLDATALOAD MOD PUSH2 0x2080 MSTORE DUP2 PUSH2 0x740 DUP3 ADD CALLDATALOAD MOD PUSH2 0x20A0 MSTORE DUP2 PUSH2 0x760 DUP3 ADD CALLDATALOAD MOD PUSH2 0x20C0 MSTORE DUP2 PUSH2 0x780 DUP3 ADD CALLDATALOAD MOD PUSH2 0x20E0 MSTORE DUP2 PUSH2 0x7A0 DUP3 ADD CALLDATALOAD MOD PUSH2 0x2100 MSTORE DUP2 PUSH2 0x7C0 DUP3 ADD CALLDATALOAD MOD PUSH2 0x2120 MSTORE DUP3 PUSH2 0x7E0 DUP3 ADD CALLDATALOAD MOD PUSH2 0x2320 MSTORE DUP3 PUSH2 0x800 DUP3 ADD CALLDATALOAD MOD PUSH2 0x2300 MSTORE DUP3 PUSH2 0x820 DUP3 ADD CALLDATALOAD MOD PUSH2 0x2360 MSTORE DUP3 PUSH2 0x840 DUP3 ADD CALLDATALOAD MOD PUSH2 0x2340 MSTORE POP PUSH2 0x9C0 MLOAD ISZERO PUSH2 0xCE3 JUMPI PUSH1 0x24 DUP1 CALLDATALOAD ADD DUP1 PUSH2 0x9E0 MLOAD PUSH1 0x5 SHL ADD SWAP1 POP DUP1 CALLDATALOAD PUSH1 0x20 DUP3 ADD CALLDATALOAD PUSH1 0x44 SHL DUP2 ADD SWAP1 POP PUSH1 0x40 DUP3 ADD CALLDATALOAD PUSH1 0x88 SHL DUP2 ADD SWAP1 POP PUSH1 0x60 DUP3 ADD CALLDATALOAD PUSH1 0xCC SHL DUP2 ADD SWAP1 POP PUSH1 0x80 DUP3 ADD CALLDATALOAD PUSH1 0xA0 DUP4 ADD CALLDATALOAD PUSH1 0x44 SHL DUP2 ADD SWAP1 POP PUSH1 0xC0 DUP4 ADD CALLDATALOAD PUSH1 0x88 SHL DUP2 ADD SWAP1 POP PUSH1 0xE0 DUP4 ADD CALLDATALOAD PUSH1 0xCC SHL DUP2 ADD SWAP1 POP PUSH2 0x100 DUP4 ADD CALLDATALOAD PUSH2 0x120 DUP5 ADD CALLDATALOAD PUSH1 0x44 SHL DUP2 ADD SWAP1 POP PUSH2 0x140 DUP5 ADD CALLDATALOAD PUSH1 0x88 SHL DUP2 ADD SWAP1 POP PUSH2 0x160 DUP5 ADD CALLDATALOAD PUSH1 0xCC SHL DUP2 ADD SWAP1 POP PUSH2 0x180 DUP5 ADD CALLDATALOAD PUSH2 0x1A0 DUP6 ADD CALLDATALOAD PUSH1 0x44 SHL DUP2 ADD SWAP1 POP PUSH2 0x1C0 DUP6 ADD CALLDATALOAD PUSH1 0x88 SHL DUP2 ADD SWAP1 POP PUSH2 0x1E0 DUP6 ADD CALLDATALOAD PUSH1 0xCC SHL DUP2 ADD SWAP1 POP DUP4 PUSH2 0x3400 MSTORE DUP3 PUSH2 0x3420 MSTORE DUP2 PUSH2 0x3440 MSTORE DUP1 PUSH2 0x3460 MSTORE DUP7 DUP2 LT DUP8 DUP5 LT AND DUP8 DUP4 LT DUP9 DUP7 LT AND AND PUSH2 0xCDD JUMPI PUSH4 0x75D4FA53 PUSH1 0xE1 SHL PUSH0 MSTORE PUSH1 0x4 PUSH0 REVERT JUMPDEST POP POP POP POP POP JUMPDEST PUSH2 0x380 MLOAD PUSH1 0xE0 SHL PUSH0 MSTORE PUSH2 0x3A0 MLOAD PUSH1 0xE0 SHL PUSH1 0x4 MSTORE PUSH1 0x8 PUSH0 KECCAK256 DUP1 PUSH2 0x3480 MSTORE PUSH1 0x24 DUP1 CALLDATALOAD ADD PUSH1 0x20 PUSH2 0x3A0 MLOAD MUL DUP1 DUP3 PUSH1 0x20 PUSH2 0x3480 ADD CALLDATACOPY PUSH1 0x4 CALLDATALOAD PUSH1 0x24 ADD SWAP2 POP PUSH1 0xC0 DUP3 PUSH2 0x34A0 DUP4 ADD CALLDATACOPY PUSH1 0xE0 ADD PUSH2 0x3480 KECCAK256 DUP4 DUP2 MOD PUSH2 0x2660 DUP2 SWAP1 MSTORE SWAP1 SWAP3 POP SWAP1 POP DUP3 DUP2 DUP1 MULMOD PUSH2 0x2680 MSTORE DUP3 DUP2 PUSH2 0x2680 MLOAD MULMOD PUSH2 0x26A0 MSTORE POP DUP1 PUSH0 MSTORE PUSH2 0x12E0 MLOAD PUSH1 0x20 MSTORE PUSH2 0x12C0 MLOAD PUSH1 0x40 MSTORE PUSH2 0x1320 MLOAD PUSH1 0x60 MSTORE PUSH2 0x1300 MLOAD PUSH1 0x80 MSTORE PUSH1 0xA0 PUSH0 KECCAK256 SWAP1 POP DUP2 DUP2 MOD PUSH2 0x2600 MSTORE DUP1 PUSH0 MSTORE PUSH1 0x1 PUSH1 0x20 MSTORE8 POP PUSH1 0x21 PUSH0 SWAP1 DUP2 KECCAK256 DUP3 DUP2 MOD PUSH2 0x2620 MSTORE DUP2 MSTORE PUSH2 0x1360 MLOAD PUSH1 0x20 MSTORE PUSH2 0x1340 MLOAD PUSH1 0x40 MSTORE PUSH2 0x13A0 MLOAD PUSH1 0x60 MSTORE PUSH2 0x1380 MLOAD PUSH1 0x80 MSTORE PUSH1 0xA0 SWAP1 KECCAK256 DUP2 DUP2 MOD PUSH2 0x2640 DUP2 SWAP1 MSTORE DUP3 DUP2 DUP1 MULMOD PUSH2 0x3320 MSTORE DUP3 DUP2 PUSH2 0x3320 MLOAD MULMOD PUSH2 0x3340 MSTORE DUP3 DUP2 PUSH2 0x3340 MLOAD MULMOD PUSH2 0x3360 MSTORE DUP1 PUSH2 0x3380 MSTORE POP DUP1 PUSH0 MSTORE PUSH2 0x13E0 MLOAD PUSH1 0x20 MSTORE PUSH2 0x13C0 MLOAD PUSH1 0x40 MSTORE PUSH2 0x1420 MLOAD PUSH1 0x60 MSTORE PUSH2 0x1400 MLOAD PUSH1 0x80 MSTORE PUSH2 0x1460 MLOAD PUSH1 0xA0 MSTORE PUSH2 0x1440 MLOAD PUSH1 0xC0 MSTORE PUSH2 0x14A0 MLOAD PUSH1 0xE0 MSTORE PUSH2 0x1480 MLOAD PUSH2 0x100 MSTORE PUSH2 0x120 PUSH0 KECCAK256 SWAP1 POP DUP2 DUP2 MOD PUSH2 0x26C0 MSTORE DUP1 PUSH2 0x26E0 MSTORE POP PUSH2 0x2600 MLOAD PUSH2 0x2620 MLOAD PUSH2 0x3C0 MLOAD PUSH1 0x1 DUP1 DUP6 PUSH1 0x1 PUSH1 0x24 DUP1 CALLDATALOAD ADD PUSH1 0x20 PUSH2 0x3A0 MLOAD MUL DUP2 ADD DUP4 PUSH1 0x5 DUP11 MULMOD DUP5 PUSH1 0xC DUP12 MULMOD SWAP10 POP JUMPDEST DUP2 DUP4 LT ISZERO PUSH2 0xE9B JUMPI DUP3 CALLDATALOAD DUP6 DUP2 LT DUP6 AND SWAP5 POP DUP6 DUP11 DUP3 ADDMOD SWAP1 POP DUP6 DUP2 DUP4 ADD DUP10 MULMOD SWAP8 POP DUP6 DUP2 DUP13 ADD DUP9 MULMOD SWAP7 POP POP DUP5 DUP9 DUP3 MULMOD SWAP1 POP DUP5 DUP9 DUP12 MULMOD SWAP10 POP PUSH1 0x20 DUP4 ADD SWAP3 POP PUSH2 0xE5C JUMP JUMPDEST POP POP POP DUP1 PUSH2 0xEB2 JUMPI PUSH4 0x374A972F PUSH1 0xE0 SHL PUSH0 MSTORE PUSH1 0x4 PUSH0 REVERT JUMPDEST POP POP DUP2 PUSH2 0x3000 MSTORE DUP1 PUSH2 0x3020 MSTORE POP POP POP POP POP DUP1 DUP2 PUSH1 0x1 PUSH2 0x2600 MLOAD ADDMOD PUSH2 0x2620 MLOAD MULMOD DUP1 PUSH2 0x380 MLOAD PUSH1 0x1 JUMPDEST DUP2 DUP2 LT ISZERO PUSH2 0xEEE JUMPI DUP5 DUP4 DUP5 MULMOD SWAP3 POP DUP1 ADD PUSH2 0xED9 JUMP JUMPDEST POP POP PUSH2 0x3100 MSTORE DUP2 DUP2 DUP1 MULMOD SWAP1 POP DUP2 DUP2 DUP3 MULMOD PUSH2 0x3120 MSTORE POP PUSH2 0x26C0 MLOAD PUSH2 0x380 MLOAD DUP2 SWAP1 PUSH1 0x1 JUMPDEST DUP2 DUP2 LT ISZERO PUSH2 0xF25 JUMPI DUP5 DUP4 DUP5 MULMOD SWAP3 POP DUP1 ADD PUSH2 0xF10 JUMP JUMPDEST POP POP DUP1 PUSH2 0x3040 MSTORE DUP3 PUSH1 0x1 DUP5 SUB DUP3 ADDMOD SWAP1 POP PUSH2 0x3300 MLOAD DUP1 DUP5 SUB PUSH2 0x3E0 MLOAD DUP6 DUP3 DUP7 ADDMOD DUP7 DUP5 DUP5 MULMOD SWAP3 POP DUP7 DUP8 DUP5 DUP9 ADDMOD DUP3 MULMOD SWAP1 POP DUP7 DUP5 DUP5 MULMOD SWAP3 POP DUP7 DUP8 DUP5 DUP9 ADDMOD DUP3 MULMOD SWAP1 POP DUP7 DUP8 DUP9 DUP7 DUP7 MULMOD DUP9 ADDMOD DUP3 MULMOD SWAP1 POP PUSH2 0x3C0 MLOAD SWAP3 POP DUP7 DUP3 DUP7 MULMOD SWAP2 POP DUP7 PUSH1 0x1 DUP9 SUB DUP8 ADDMOD DUP8 DUP5 DUP6 MULMOD SWAP5 POP DUP8 PUSH1 0x1 DUP10 SUB DUP10 DUP10 DUP12 DUP9 DUP14 DUP12 DUP13 MULMOD MULMOD MULMOD ADDMOD SWAP7 POP PUSH2 0x3020 MLOAD SWAP5 POP DUP5 SWAP4 POP DUP8 DUP3 DUP7 MULMOD SWAP5 POP DUP5 DUP9 DUP8 DUP8 MULMOD SWAP6 POP DUP6 DUP10 DUP4 DUP9 MULMOD SWAP7 POP DUP7 DUP11 PUSH2 0x3120 MLOAD DUP10 MULMOD SWAP8 POP DUP8 PUSH1 0x20 PUSH0 MSTORE PUSH1 0x20 DUP1 MSTORE PUSH1 0x20 PUSH1 0x40 MSTORE DUP12 DUP12 DUP11 MULMOD PUSH1 0x60 MSTORE PUSH1 0x2 DUP13 SUB PUSH1 0x80 MSTORE DUP12 PUSH1 0xA0 MSTORE PUSH1 0x20 PUSH0 PUSH1 0xC0 PUSH0 PUSH1 0x5 GAS STATICCALL PUSH2 0xFFD JUMPI PUSH4 0x3E2529EF PUSH1 0xE2 SHL PUSH0 MSTORE PUSH1 0x4 PUSH0 REVERT JUMPDEST PUSH0 MLOAD SWAP9 POP DUP12 DUP2 DUP11 MULMOD SWAP1 POP DUP12 DUP12 DUP11 MULMOD SWAP9 POP DUP12 DUP3 DUP11 MULMOD SWAP2 POP DUP12 PUSH2 0x3120 MLOAD DUP11 MULMOD SWAP9 POP DUP12 DUP4 DUP11 MULMOD SWAP3 POP DUP12 DUP6 DUP11 MULMOD SWAP9 POP DUP12 DUP5 DUP11 MULMOD SWAP4 POP DUP12 DUP11 DUP11 MULMOD SWAP9 POP DUP12 DUP9 DUP11 MULMOD SWAP8 POP DUP12 DUP7 DUP11 MULMOD SWAP9 POP DUP12 PUSH2 0x3020 MLOAD DUP14 DUP12 DUP13 MULMOD MULMOD SWAP9 POP DUP12 DUP10 PUSH2 0x3000 MLOAD MULMOD PUSH2 0x3060 MSTORE DUP12 DUP9 DUP12 MULMOD PUSH2 0x3080 MSTORE DUP12 DUP5 DUP8 MULMOD PUSH2 0x3680 MSTORE DUP12 DUP4 DUP9 MULMOD PUSH2 0x30A0 MSTORE DUP12 DUP3 PUSH2 0x3100 MLOAD MULMOD PUSH2 0x3140 MSTORE DUP12 DUP2 DUP9 MULMOD PUSH2 0x30C0 MSTORE POP POP POP POP POP POP POP POP POP POP POP PUSH2 0x2640 MLOAD POP PUSH2 0x2600 MLOAD PUSH2 0x2620 MLOAD DUP3 DUP4 PUSH2 0x1900 MLOAD DUP5 MULMOD DUP3 PUSH2 0x1620 MLOAD ADD ADD DUP5 PUSH2 0x18E0 MLOAD DUP6 MULMOD DUP4 PUSH2 0x1600 MLOAD ADD ADD MULMOD DUP4 DUP5 PUSH2 0x1940 MLOAD DUP6 MULMOD DUP4 PUSH2 0x1660 MLOAD ADD ADD DUP6 PUSH2 0x1920 MLOAD DUP7 MULMOD DUP5 PUSH2 0x1640 MLOAD ADD ADD MULMOD DUP5 DUP6 DUP7 DUP4 DUP6 MULMOD PUSH2 0x16A0 MLOAD MULMOD PUSH2 0x3380 MLOAD MULMOD DUP6 DUP7 PUSH2 0x1980 MLOAD DUP8 MULMOD DUP6 PUSH2 0x1620 MLOAD ADD ADD DUP8 PUSH2 0x1960 MLOAD DUP9 MULMOD DUP7 PUSH2 0x1600 MLOAD ADD ADD MULMOD SWAP3 POP DUP6 DUP7 PUSH2 0x19C0 MLOAD DUP8 MULMOD DUP6 PUSH2 0x1660 MLOAD ADD ADD DUP8 PUSH2 0x19A0 MLOAD DUP9 MULMOD DUP7 PUSH2 0x1640 MLOAD ADD ADD MULMOD SWAP2 POP DUP6 DUP7 DUP8 DUP9 DUP6 DUP8 MULMOD PUSH2 0x2080 MLOAD MULMOD PUSH2 0x3380 MLOAD MULMOD DUP8 SUB DUP3 ADDMOD SWAP1 POP DUP6 PUSH2 0x2640 MLOAD PUSH2 0x3380 MLOAD MULMOD PUSH2 0x3380 MSTORE DUP6 DUP7 DUP8 DUP9 PUSH2 0x3060 MLOAD DUP11 SUB PUSH2 0x2080 MLOAD ADDMOD PUSH2 0x30C0 MLOAD MULMOD PUSH2 0x3380 MLOAD MULMOD DUP3 ADDMOD SWAP1 POP DUP6 PUSH2 0x2640 MLOAD PUSH2 0x3380 MLOAD MULMOD PUSH2 0x3380 MSTORE DUP6 DUP7 DUP8 DUP9 PUSH1 0x1 DUP11 SUB PUSH2 0x16A0 MLOAD ADDMOD PUSH2 0x30A0 MLOAD MULMOD PUSH2 0x3380 MLOAD MULMOD DUP3 ADDMOD PUSH2 0x3500 MSTORE POP POP POP POP POP DUP1 PUSH2 0x2640 MLOAD PUSH2 0x3380 MLOAD MULMOD PUSH2 0x3380 MSTORE DUP1 PUSH2 0x1720 MLOAD PUSH2 0x2660 MLOAD MULMOD DUP2 DUP3 DUP4 PUSH2 0x2020 MLOAD PUSH2 0x1780 MLOAD MULMOD PUSH2 0x1640 MLOAD ADDMOD DUP3 ADDMOD SWAP1 POP DUP2 PUSH2 0x2660 MLOAD DUP3 MULMOD SWAP1 POP DUP2 DUP3 DUP4 PUSH2 0x2000 MLOAD PUSH2 0x1760 MLOAD MULMOD PUSH2 0x1620 MLOAD ADDMOD DUP3 ADDMOD SWAP1 POP DUP2 PUSH2 0x2660 MLOAD DUP3 MULMOD SWAP1 POP DUP2 DUP3 DUP4 PUSH2 0x19E0 MLOAD PUSH2 0x1700 MLOAD MULMOD PUSH2 0x1600 MLOAD ADDMOD DUP3 ADDMOD SWAP1 POP DUP2 PUSH2 0x1840 MLOAD DUP4 DUP5 PUSH2 0x2660 MLOAD PUSH2 0x1860 MLOAD MULMOD DUP6 DUP7 PUSH2 0x2680 MLOAD PUSH2 0x1880 MLOAD MULMOD DUP8 PUSH2 0x26A0 MLOAD PUSH2 0x18A0 MLOAD MULMOD ADDMOD ADDMOD ADDMOD DUP3 PUSH2 0x20C0 MLOAD DUP5 DUP6 PUSH2 0x2660 MLOAD PUSH2 0x20E0 MLOAD MULMOD DUP7 DUP8 PUSH2 0x2680 MLOAD PUSH2 0x2100 MLOAD MULMOD DUP9 PUSH2 0x26A0 MLOAD PUSH2 0x2120 MLOAD MULMOD ADDMOD ADDMOD ADDMOD DUP4 DUP5 PUSH1 0x1 PUSH2 0x2600 MLOAD ADDMOD PUSH2 0x2620 MLOAD MULMOD DUP5 PUSH2 0x2620 MLOAD DUP7 PUSH2 0x18C0 MLOAD DUP8 MULMOD ADDMOD SWAP4 POP DUP5 DUP2 DUP7 DUP8 PUSH2 0x2600 MLOAD DUP7 MULMOD DUP7 ADDMOD ADDMOD SWAP3 POP DUP5 DUP4 DUP6 MULMOD SWAP4 POP DUP5 DUP6 PUSH1 0x1 PUSH2 0x2600 MLOAD ADDMOD DUP6 MULMOD SWAP4 POP DUP5 PUSH2 0x30A0 MLOAD PUSH2 0x2640 MLOAD MULMOD SWAP3 POP DUP5 DUP4 DUP6 ADDMOD SWAP4 POP DUP5 PUSH2 0x16C0 MLOAD DUP6 MULMOD SWAP4 POP DUP5 DUP4 DUP7 SUB DUP6 ADDMOD SWAP4 POP DUP5 DUP2 DUP7 DUP8 PUSH2 0x2600 MLOAD PUSH2 0x2060 MLOAD MULMOD PUSH2 0x1680 MLOAD ADDMOD ADDMOD SWAP3 POP POP POP DUP3 PUSH2 0x30C0 MLOAD PUSH2 0x3320 MLOAD MULMOD DUP4 DUP2 DUP6 SUB DUP4 ADDMOD SWAP2 POP DUP4 PUSH2 0x20A0 MLOAD DUP4 MULMOD SWAP2 POP DUP4 DUP5 PUSH2 0x3140 MLOAD DUP4 MULMOD DUP4 ADDMOD SWAP2 POP POP DUP3 PUSH2 0x3380 MLOAD DUP5 DUP4 DUP7 SUB DUP6 ADDMOD MULMOD PUSH2 0x3520 MSTORE POP POP DUP1 PUSH2 0x3340 MLOAD PUSH2 0x3380 MLOAD MULMOD PUSH2 0x3380 MSTORE DUP1 PUSH2 0x16E0 MLOAD PUSH2 0x1600 MLOAD MULMOD DUP2 PUSH2 0x1700 MLOAD PUSH2 0x1620 MLOAD MULMOD DUP3 PUSH2 0x1720 MLOAD PUSH2 0x1640 MLOAD MULMOD DUP4 PUSH2 0x1740 MLOAD PUSH2 0x1660 MLOAD MULMOD DUP5 PUSH32 0x183227397098D014DC2822DB40C0AC2E9419F4243CDCB848A1F0FAC9F8000000 DUP7 DUP8 PUSH1 0x3 DUP10 SUB PUSH2 0x17A0 MLOAD ADDMOD DUP9 PUSH2 0x1760 MLOAD DUP11 PUSH2 0x1620 MLOAD PUSH2 0x1600 MLOAD MULMOD MULMOD MULMOD MULMOD DUP6 DUP7 DUP8 DUP9 DUP10 DUP6 DUP11 ADDMOD DUP9 ADDMOD DUP7 ADDMOD DUP5 ADDMOD PUSH2 0x1780 MLOAD ADDMOD SWAP5 POP POP POP POP POP DUP2 DUP3 DUP4 DUP5 DUP6 PUSH2 0x1660 MLOAD PUSH2 0x1600 MLOAD ADDMOD PUSH2 0x19E0 MLOAD DUP8 SUB ADDMOD PUSH2 0x1760 MLOAD ADDMOD DUP5 PUSH1 0x2 DUP7 SUB PUSH2 0x17A0 MLOAD ADDMOD MULMOD PUSH2 0x2640 MLOAD MULMOD DUP3 DUP4 DUP5 DUP6 DUP7 DUP6 PUSH2 0x2040 MLOAD ADDMOD DUP8 PUSH1 0x1 DUP10 SUB PUSH2 0x17A0 MLOAD ADDMOD MULMOD DUP6 ADDMOD PUSH2 0x17A0 MLOAD MULMOD PUSH2 0x3380 MLOAD MULMOD PUSH2 0x3540 MSTORE POP POP DUP1 PUSH2 0x3320 MLOAD PUSH2 0x3380 MLOAD MULMOD PUSH2 0x3380 MSTORE PUSH1 0x2 DUP2 SUB PUSH1 0x3 DUP3 SUB DUP3 PUSH2 0x1600 MLOAD DUP5 SUB PUSH2 0x1620 MLOAD ADDMOD DUP4 PUSH2 0x1620 MLOAD DUP6 SUB PUSH2 0x1640 MLOAD ADDMOD DUP5 PUSH2 0x1640 MLOAD DUP7 SUB PUSH2 0x1660 MLOAD ADDMOD DUP6 PUSH2 0x1660 MLOAD DUP8 SUB PUSH2 0x19E0 MLOAD ADDMOD DUP7 PUSH2 0x3380 MLOAD DUP9 DUP10 DUP9 DUP9 ADDMOD DUP11 DUP12 DUP12 DUP11 ADDMOD DUP13 DUP11 DUP15 SUB DUP15 DUP13 DUP14 MULMOD ADDMOD MULMOD MULMOD MULMOD SWAP4 POP DUP7 DUP8 DUP9 PUSH2 0x2640 MLOAD PUSH2 0x3380 MLOAD MULMOD DUP10 DUP11 DUP10 DUP9 ADDMOD DUP12 DUP13 DUP13 DUP11 ADDMOD DUP14 DUP11 DUP16 SUB DUP16 DUP13 DUP14 MULMOD ADDMOD MULMOD MULMOD MULMOD DUP6 ADDMOD SWAP4 POP DUP7 DUP8 DUP9 PUSH2 0x3320 MLOAD PUSH2 0x3380 MLOAD MULMOD DUP10 DUP11 DUP10 DUP8 ADDMOD DUP12 DUP13 DUP13 DUP10 ADDMOD DUP14 DUP10 DUP16 SUB DUP16 DUP12 DUP13 MULMOD ADDMOD MULMOD MULMOD MULMOD DUP6 ADDMOD SWAP4 POP DUP7 DUP8 DUP9 PUSH2 0x3340 MLOAD PUSH2 0x3380 MLOAD MULMOD DUP10 DUP11 DUP10 DUP7 ADDMOD DUP12 DUP13 DUP13 DUP9 ADDMOD DUP14 DUP9 DUP16 SUB DUP16 DUP11 DUP12 MULMOD ADDMOD MULMOD MULMOD MULMOD DUP6 ADDMOD SWAP4 POP POP POP POP DUP4 PUSH2 0x17C0 MLOAD DUP3 MULMOD PUSH2 0x3560 MSTORE POP POP PUSH2 0x3360 MLOAD PUSH2 0x3380 MLOAD DUP4 SWAP3 POP MULMOD PUSH2 0x3380 MSTORE DUP1 PUSH2 0x1620 MLOAD DUP3 SUB PUSH2 0x19E0 MLOAD ADDMOD DUP2 PUSH2 0x2040 MLOAD PUSH2 0x2040 MLOAD MULMOD DUP3 PUSH2 0x1640 MLOAD PUSH2 0x1640 MLOAD MULMOD DUP4 PUSH2 0x16E0 MLOAD DUP6 PUSH2 0x2040 MLOAD PUSH2 0x1640 MLOAD MULMOD MULMOD DUP5 DUP6 DUP7 DUP4 DUP5 ADDMOD DUP8 DUP6 DUP8 ADDMOD DUP9 SUB ADDMOD DUP7 DUP8 DUP8 DUP9 MULMOD DUP9 DUP10 PUSH2 0x1620 MLOAD PUSH2 0x19E0 MLOAD ADDMOD PUSH2 0x2000 MLOAD ADDMOD MULMOD ADDMOD SWAP3 POP POP POP DUP3 PUSH2 0x3380 MLOAD DUP5 DUP6 PUSH2 0x1760 MLOAD DUP8 SUB PUSH1 0x1 ADDMOD DUP5 MULMOD MULMOD SWAP1 POP DUP3 PUSH2 0x2020 MLOAD PUSH2 0x1640 MLOAD ADDMOD DUP4 PUSH2 0x1640 MLOAD DUP6 SUB DUP6 PUSH2 0x16E0 MLOAD PUSH2 0x2040 MLOAD MULMOD ADDMOD DUP5 DUP6 DUP3 DUP8 PUSH2 0x1620 MLOAD DUP10 SUB PUSH2 0x2000 MLOAD ADDMOD MULMOD DUP7 DUP7 DUP6 MULMOD ADDMOD SWAP4 POP POP POP DUP3 DUP4 PUSH2 0x2640 MLOAD PUSH2 0x3380 MLOAD MULMOD DUP5 DUP6 PUSH2 0x1760 MLOAD DUP8 SUB PUSH1 0x1 ADDMOD DUP6 MULMOD MULMOD SWAP2 POP DUP3 PUSH2 0x17E0 MLOAD DUP5 DUP5 DUP5 ADDMOD MULMOD PUSH2 0x3580 MSTORE POP POP DUP1 PUSH2 0x1620 MLOAD PUSH2 0x1620 MLOAD MULMOD DUP2 PUSH2 0x1640 MLOAD PUSH2 0x1640 MLOAD MULMOD DUP3 PUSH2 0x1620 MLOAD DUP5 PUSH1 0x11 DUP5 ADDMOD MULMOD DUP4 PUSH1 0x4 DUP4 MULMOD SWAP2 POP DUP4 PUSH1 0x9 DUP3 MULMOD SWAP1 POP DUP4 PUSH1 0x3 DUP5 MULMOD SWAP3 POP DUP4 DUP2 DUP6 SUB DUP6 DUP5 DUP8 DUP9 PUSH2 0x1620 MLOAD PUSH2 0x1620 MLOAD ADDMOD PUSH2 0x2000 MLOAD ADDMOD MULMOD ADDMOD SWAP2 POP POP DUP3 DUP4 DUP5 PUSH2 0x2020 MLOAD PUSH2 0x1640 MLOAD ADDMOD DUP6 PUSH2 0x1640 MLOAD PUSH2 0x1640 MLOAD ADDMOD MULMOD DUP5 SUB DUP5 DUP6 PUSH2 0x2000 MLOAD DUP8 SUB PUSH2 0x1620 MLOAD ADDMOD DUP6 MULMOD ADDMOD SWAP2 POP DUP3 PUSH2 0x3380 MLOAD DUP3 MULMOD SWAP1 POP DUP3 DUP4 PUSH2 0x2640 MLOAD PUSH2 0x3380 MLOAD MULMOD DUP4 MULMOD SWAP2 POP DUP3 PUSH2 0x1760 MLOAD DUP3 MULMOD SWAP1 POP DUP3 PUSH2 0x1760 MLOAD DUP4 MULMOD SWAP2 POP DUP3 DUP4 PUSH2 0x17E0 MLOAD DUP6 DUP6 DUP6 ADDMOD MULMOD PUSH2 0x3580 MLOAD ADDMOD PUSH2 0x3580 MSTORE POP POP DUP1 PUSH2 0x3360 MLOAD PUSH2 0x3380 MLOAD MULMOD PUSH2 0x3380 MSTORE DUP1 DUP2 PUSH2 0x1620 MLOAD PUSH2 0x19E0 MLOAD MULMOD DUP3 PUSH2 0x2000 MLOAD PUSH2 0x1600 MLOAD MULMOD ADDMOD DUP2 PUSH2 0x2020 MLOAD DUP4 SUB DUP4 DUP5 PUSH2 0x1640 MLOAD PUSH2 0x1620 MLOAD MULMOD DUP6 PUSH2 0x1660 MLOAD PUSH2 0x1600 MLOAD MULMOD ADDMOD ADDMOD DUP3 PUSH1 0x1 PUSH1 0x44 SHL DUP3 MULMOD SWAP1 POP DUP3 PUSH2 0x2040 MLOAD DUP5 SUB DUP3 ADDMOD SWAP1 POP DUP3 DUP3 DUP3 ADDMOD SWAP1 POP DUP3 PUSH2 0x1740 MLOAD DUP3 MULMOD SWAP1 POP DUP3 PUSH1 0x1 PUSH1 0x44 SHL DUP4 MULMOD SWAP2 POP DUP3 DUP4 PUSH2 0x2000 MLOAD PUSH2 0x19E0 MLOAD MULMOD DUP4 ADDMOD SWAP2 POP DUP3 PUSH2 0x1720 MLOAD DUP5 DUP6 PUSH2 0x1660 MLOAD PUSH2 0x1640 MLOAD ADDMOD DUP7 SUB DUP6 ADDMOD MULMOD DUP4 PUSH2 0x1760 MLOAD DUP6 DUP7 PUSH2 0x2040 MLOAD PUSH2 0x2020 MLOAD ADDMOD DUP8 SUB DUP8 PUSH2 0x1660 MLOAD DUP9 ADDMOD ADDMOD MULMOD SWAP3 POP DUP4 PUSH2 0x1700 MLOAD DUP6 DUP6 DUP8 DUP7 DUP7 ADDMOD ADDMOD MULMOD PUSH2 0x35C0 MSTORE POP POP PUSH2 0x2000 MLOAD DUP3 SWAP2 POP PUSH2 0x4000 SWAP1 MULMOD DUP2 PUSH2 0x19E0 MLOAD DUP3 ADDMOD SWAP1 POP DUP2 PUSH2 0x4000 DUP3 MULMOD SWAP1 POP DUP2 PUSH2 0x1640 MLOAD DUP3 ADDMOD SWAP1 POP DUP2 PUSH2 0x4000 DUP3 MULMOD SWAP1 POP DUP2 PUSH2 0x1620 MLOAD DUP3 ADDMOD SWAP1 POP DUP2 PUSH2 0x4000 DUP3 MULMOD SWAP1 POP DUP2 PUSH2 0x1600 MLOAD DUP3 ADDMOD SWAP1 POP DUP2 PUSH2 0x1660 MLOAD DUP4 SUB DUP3 ADDMOD SWAP1 POP DUP2 PUSH2 0x1740 MLOAD DUP3 MULMOD SWAP1 POP DUP2 PUSH2 0x4000 PUSH2 0x2020 MLOAD MULMOD DUP3 PUSH2 0x2000 MLOAD DUP3 ADDMOD SWAP1 POP DUP3 PUSH2 0x4000 DUP3 MULMOD SWAP1 POP DUP3 PUSH2 0x19E0 MLOAD DUP3 ADDMOD SWAP1 POP DUP3 PUSH2 0x4000 DUP3 MULMOD SWAP1 POP DUP3 PUSH2 0x1660 MLOAD DUP3 ADDMOD SWAP1 POP DUP3 PUSH2 0x4000 DUP3 MULMOD SWAP1 POP DUP3 PUSH2 0x1640 MLOAD DUP3 ADDMOD SWAP1 POP DUP3 PUSH2 0x2040 MLOAD DUP5 SUB DUP3 ADDMOD SWAP1 POP DUP3 PUSH2 0x1760 MLOAD DUP3 MULMOD SWAP1 POP DUP3 PUSH2 0x1720 MLOAD DUP5 DUP4 DUP6 ADDMOD MULMOD PUSH2 0x35E0 MSTORE POP POP DUP1 PUSH2 0x2660 MLOAD PUSH2 0x1640 MLOAD MULMOD DUP2 PUSH2 0x1620 MLOAD DUP3 ADDMOD SWAP1 POP DUP2 PUSH2 0x2660 MLOAD DUP3 MULMOD SWAP1 POP DUP2 PUSH2 0x1600 MLOAD DUP3 ADDMOD SWAP1 POP DUP2 PUSH2 0x2660 MLOAD DUP3 MULMOD SWAP1 POP DUP2 PUSH2 0x1780 MLOAD DUP3 ADDMOD SWAP1 POP DUP1 DUP3 PUSH2 0x1660 MLOAD DUP5 SUB DUP4 ADDMOD SWAP2 POP DUP2 PUSH2 0x3640 MSTORE DUP3 PUSH2 0x1600 MLOAD DUP5 SUB PUSH2 0x19E0 MLOAD ADDMOD DUP4 PUSH2 0x1660 MLOAD DUP6 SUB PUSH2 0x2040 MLOAD ADDMOD DUP5 DUP6 PUSH1 0x1 DUP8 SUB DUP5 ADDMOD DUP4 MULMOD DUP6 DUP7 DUP5 DUP9 SUB PUSH1 0x1 ADDMOD DUP4 MULMOD SWAP2 POP DUP6 DUP6 DUP8 PUSH2 0x2640 MLOAD DUP10 DUP6 DUP12 PUSH2 0x2640 MLOAD DUP10 MULMOD ADDMOD MULMOD ADDMOD PUSH2 0x3620 MSTORE DUP6 PUSH2 0x2660 MLOAD PUSH2 0x2020 MLOAD MULMOD SWAP5 POP DUP6 PUSH2 0x2000 MLOAD DUP7 ADDMOD SWAP5 POP DUP6 PUSH2 0x2660 MLOAD DUP7 MULMOD SWAP5 POP DUP6 PUSH2 0x19E0 MLOAD DUP7 ADDMOD SWAP5 POP DUP6 PUSH2 0x2660 MLOAD DUP7 MULMOD SWAP5 POP DUP6 DUP6 DUP8 SUB PUSH2 0x2040 MLOAD ADDMOD SWAP5 POP DUP6 PUSH2 0x1640 MLOAD DUP8 SUB PUSH2 0x2020 MLOAD ADDMOD SWAP2 POP DUP6 DUP7 DUP8 DUP8 DUP10 SUB PUSH1 0x1 ADDMOD DUP5 MULMOD DUP8 DUP6 DUP10 SUB PUSH1 0x1 ADDMOD MULMOD SWAP2 POP DUP6 DUP5 DUP8 SUB PUSH2 0x1660 MLOAD ADDMOD DUP7 DUP8 PUSH1 0x1 DUP10 SUB DUP4 ADDMOD DUP3 MULMOD SWAP1 POP DUP7 DUP8 PUSH1 0x1 DUP10 SUB DUP9 ADDMOD DUP8 MULMOD SWAP6 POP DUP7 PUSH2 0x2640 MLOAD DUP5 MULMOD SWAP3 POP DUP7 DUP3 DUP5 ADDMOD SWAP3 POP DUP7 PUSH2 0x2640 MLOAD DUP5 MULMOD SWAP3 POP DUP7 DUP7 DUP5 ADDMOD SWAP3 POP DUP7 PUSH2 0x2640 MLOAD DUP5 MULMOD SWAP3 POP DUP7 DUP2 DUP5 ADDMOD SWAP3 POP POP DUP2 PUSH2 0x3600 MSTORE POP POP DUP4 PUSH2 0x1620 MLOAD DUP6 SUB PUSH2 0x2000 MLOAD ADDMOD SWAP3 POP DUP4 PUSH2 0x1640 MLOAD DUP6 SUB DUP6 DUP7 DUP5 DUP9 SUB PUSH1 0x1 ADDMOD DUP7 MULMOD ADDMOD SWAP3 POP DUP4 PUSH2 0x1700 MLOAD PUSH2 0x3620 MLOAD MULMOD SWAP2 POP DUP4 DUP5 PUSH2 0x1740 MLOAD DUP6 MULMOD DUP4 ADDMOD SWAP2 POP DUP4 DUP5 PUSH2 0x1760 MLOAD PUSH2 0x3640 MLOAD MULMOD DUP4 ADDMOD SWAP2 POP DUP4 PUSH2 0x16E0 MLOAD DUP4 MULMOD SWAP2 POP DUP4 DUP5 PUSH2 0x17A0 MLOAD PUSH2 0x3600 MLOAD MULMOD DUP4 ADDMOD SWAP2 POP DUP4 PUSH2 0x35C0 MLOAD DUP4 ADDMOD SWAP3 POP DUP4 PUSH2 0x35E0 MLOAD DUP5 ADDMOD SWAP3 POP DUP4 PUSH2 0x1800 MLOAD DUP5 MULMOD SWAP3 POP DUP4 PUSH2 0x3380 MLOAD DUP5 MULMOD SWAP3 POP DUP3 PUSH2 0x35A0 MSTORE DUP4 PUSH2 0x3340 MLOAD PUSH2 0x3380 MLOAD MULMOD PUSH2 0x3380 MSTORE POP POP POP DUP1 PUSH2 0x3680 MLOAD DUP3 PUSH2 0x35A0 MLOAD DUP5 PUSH2 0x3580 MLOAD DUP7 PUSH2 0x3560 MLOAD DUP9 PUSH2 0x3540 MLOAD DUP11 PUSH2 0x3520 MLOAD PUSH2 0x3500 MLOAD ADDMOD ADDMOD ADDMOD ADDMOD ADDMOD MULMOD PUSH2 0x3660 DUP2 SWAP1 MSTORE PUSH2 0x26E0 MLOAD PUSH2 0x36A0 DUP2 SWAP1 MSTORE PUSH2 0x36C0 SWAP2 SWAP1 SWAP2 MSTORE PUSH2 0x2E4 PUSH1 0x4 CALLDATALOAD ADD PUSH2 0x520 DUP2 PUSH2 0x36E0 CALLDATACOPY POP POP PUSH2 0x560 PUSH2 0x36A0 KECCAK256 DUP2 DUP2 MOD PUSH2 0x2700 MSTORE PUSH0 DUP2 SWAP1 MSTORE PUSH1 0x1 PUSH1 0x20 MSTORE8 DUP2 PUSH1 0x21 PUSH0 KECCAK256 MOD PUSH2 0x2720 MSTORE PUSH1 0x2 PUSH1 0x20 MSTORE8 DUP2 PUSH1 0x21 PUSH0 KECCAK256 MOD PUSH2 0x2740 MSTORE PUSH1 0x3 PUSH1 0x20 MSTORE8 DUP2 PUSH1 0x21 PUSH0 KECCAK256 MOD PUSH2 0x2760 MSTORE PUSH1 0x4 PUSH1 0x20 MSTORE8 DUP2 PUSH1 0x21 PUSH0 KECCAK256 MOD PUSH2 0x2780 MSTORE PUSH1 0x5 PUSH1 0x20 MSTORE8 DUP2 PUSH1 0x21 PUSH0 KECCAK256 MOD PUSH2 0x27A0 MSTORE PUSH1 0x6 PUSH1 0x20 MSTORE8 DUP2 PUSH1 0x21 PUSH0 KECCAK256 MOD PUSH2 0x27C0 MSTORE PUSH1 0x7 PUSH1 0x20 MSTORE8 DUP2 PUSH1 0x21 PUSH0 KECCAK256 MOD PUSH2 0x27E0 MSTORE PUSH1 0x8 PUSH1 0x20 MSTORE8 DUP2 PUSH1 0x21 PUSH0 KECCAK256 MOD PUSH2 0x2800 MSTORE PUSH1 0x9 PUSH1 0x20 MSTORE8 DUP2 PUSH1 0x21 PUSH0 KECCAK256 MOD PUSH2 0x2820 MSTORE PUSH1 0xA PUSH1 0x20 MSTORE8 DUP2 PUSH1 0x21 PUSH0 KECCAK256 MOD PUSH2 0x2840 MSTORE PUSH1 0xB PUSH1 0x20 MSTORE8 DUP2 PUSH1 0x21 PUSH0 KECCAK256 MOD PUSH2 0x2860 MSTORE PUSH1 0xC PUSH1 0x20 MSTORE8 DUP2 PUSH1 0x21 PUSH0 KECCAK256 MOD PUSH2 0x2880 MSTORE PUSH1 0xD PUSH1 0x20 MSTORE8 DUP2 PUSH1 0x21 PUSH0 KECCAK256 MOD PUSH2 0x28A0 MSTORE PUSH1 0xE PUSH1 0x20 MSTORE8 DUP2 PUSH1 0x21 PUSH0 KECCAK256 MOD PUSH2 0x28C0 MSTORE PUSH1 0xF PUSH1 0x20 MSTORE8 DUP2 PUSH1 0x21 PUSH0 KECCAK256 MOD PUSH2 0x28E0 MSTORE PUSH1 0x10 PUSH1 0x20 MSTORE8 DUP2 PUSH1 0x21 PUSH0 KECCAK256 MOD PUSH2 0x2900 MSTORE PUSH1 0x11 PUSH1 0x20 MSTORE8 DUP2 PUSH1 0x21 PUSH0 KECCAK256 MOD PUSH2 0x2920 MSTORE PUSH1 0x12 PUSH1 0x20 MSTORE8 DUP2 PUSH1 0x21 PUSH0 KECCAK256 MOD PUSH2 0x2940 MSTORE PUSH1 0x13 PUSH1 0x20 MSTORE8 DUP2 PUSH1 0x21 PUSH0 KECCAK256 MOD PUSH2 0x2960 MSTORE PUSH1 0x14 PUSH1 0x20 MSTORE8 DUP2 PUSH1 0x21 PUSH0 KECCAK256 MOD PUSH2 0x2980 MSTORE PUSH1 0x15 PUSH1 0x20 MSTORE8 DUP2 PUSH1 0x21 PUSH0 KECCAK256 MOD PUSH2 0x29A0 MSTORE PUSH1 0x16 PUSH1 0x20 MSTORE8 DUP2 PUSH1 0x21 PUSH0 KECCAK256 MOD PUSH2 0x29C0 MSTORE PUSH1 0x17 PUSH1 0x20 MSTORE8 DUP2 PUSH1 0x21 PUSH0 KECCAK256 MOD PUSH2 0x29E0 MSTORE PUSH1 0x18 PUSH1 0x20 MSTORE8 DUP2 PUSH1 0x21 PUSH0 KECCAK256 MOD PUSH2 0x2A00 MSTORE PUSH1 0x19 PUSH1 0x20 MSTORE8 DUP2 PUSH1 0x21 PUSH0 KECCAK256 MOD PUSH2 0x2A20 MSTORE PUSH1 0x1A PUSH1 0x20 MSTORE8 DUP2 PUSH1 0x21 PUSH0 KECCAK256 MOD PUSH2 0x2A40 MSTORE PUSH1 0x1B PUSH1 0x20 MSTORE8 DUP2 PUSH1 0x21 PUSH0 KECCAK256 MOD PUSH2 0x2A60 MSTORE PUSH1 0x1C PUSH1 0x20 MSTORE8 DUP2 PUSH1 0x21 PUSH0 KECCAK256 MOD PUSH2 0x2A80 MSTORE PUSH1 0x1D PUSH1 0x20 MSTORE8 DUP2 PUSH1 0x21 PUSH0 KECCAK256 MOD PUSH2 0x2AA0 MSTORE PUSH1 0x1D PUSH1 0x20 MSTORE8 POP PUSH1 0x21 PUSH0 SWAP1 DUP2 KECCAK256 DUP3 DUP2 MOD PUSH2 0x2AC0 MSTORE DUP2 MSTORE PUSH2 0x2320 MLOAD PUSH1 0x20 MSTORE PUSH2 0x2300 MLOAD PUSH1 0x40 MSTORE PUSH2 0x2360 MLOAD PUSH1 0x60 MSTORE PUSH2 0x2340 MLOAD PUSH1 0x80 MSTORE PUSH1 0xA0 DUP2 KECCAK256 DUP3 SWAP1 MOD PUSH2 0x2B00 MSTORE PUSH2 0x13C0 MLOAD PUSH2 0x13E0 MLOAD DUP5 DUP3 DUP1 MULMOD DUP6 PUSH1 0x3 DUP8 DUP4 DUP7 MULMOD ADDMOD DUP7 DUP4 DUP5 MULMOD EQ PUSH2 0x1C42 JUMPI PUSH4 0x28F6B595 PUSH1 0xE2 SHL PUSH0 MSTORE PUSH1 0x4 PUSH0 REVERT JUMPDEST POP PUSH2 0x3160 SWAP2 SWAP1 SWAP2 MSTORE PUSH2 0x3180 MSTORE PUSH2 0x1400 MLOAD PUSH2 0x1420 MLOAD DUP5 DUP3 DUP1 MULMOD DUP6 PUSH1 0x3 DUP8 DUP4 DUP7 MULMOD ADDMOD DUP7 DUP4 DUP5 MULMOD EQ PUSH2 0x1C7A JUMPI PUSH4 0x28F6B595 PUSH1 0xE2 SHL PUSH0 MSTORE PUSH1 0x4 PUSH0 REVERT JUMPDEST POP DUP2 PUSH0 MSTORE DUP1 PUSH1 0x20 MSTORE POP POP PUSH2 0x3040 MLOAD PUSH1 0x40 MSTORE PUSH1 0x40 PUSH2 0x31A0 PUSH1 0x60 PUSH0 PUSH1 0x7 GAS STATICCALL SWAP1 POP PUSH1 0x40 PUSH2 0x3160 PUSH1 0x80 PUSH2 0x3160 PUSH1 0x6 GAS STATICCALL DUP2 AND SWAP1 POP PUSH2 0x1440 MLOAD PUSH2 0x1460 MLOAD DUP5 DUP3 DUP4 MULMOD DUP6 PUSH1 0x3 DUP8 DUP4 DUP7 MULMOD ADDMOD DUP7 DUP4 DUP5 MULMOD EQ PUSH2 0x1CD7 JUMPI PUSH4 0x28F6B595 PUSH1 0xE2 SHL PUSH0 MSTORE PUSH1 0x4 PUSH0 REVERT JUMPDEST POP PUSH0 SWAP2 SWAP1 SWAP2 MSTORE PUSH1 0x20 MSTORE PUSH2 0x3040 MLOAD DUP3 SWAP1 DUP1 MULMOD PUSH1 0x40 MSTORE PUSH1 0x40 PUSH2 0x31A0 PUSH1 0x60 PUSH0 PUSH1 0x7 GAS STATICCALL AND PUSH1 0x40 PUSH2 0x3160 PUSH1 0x80 DUP2 PUSH1 0x6 GAS STATICCALL DUP2 AND SWAP1 POP PUSH2 0x1480 MLOAD PUSH2 0x14A0 MLOAD DUP5 DUP3 DUP4 MULMOD DUP6 PUSH1 0x3 DUP8 DUP4 DUP7 MULMOD ADDMOD DUP7 DUP4 DUP5 MULMOD EQ PUSH2 0x1D34 JUMPI PUSH4 0x28F6B595 PUSH1 0xE2 SHL PUSH0 MSTORE PUSH1 0x4 PUSH0 REVERT JUMPDEST POP PUSH0 SWAP2 SWAP1 SWAP2 MSTORE PUSH1 0x20 MSTORE PUSH2 0x3040 MLOAD DUP3 SWAP1 DUP2 DUP2 DUP1 MULMOD MULMOD PUSH1 0x40 MSTORE PUSH1 0x40 PUSH2 0x31A0 PUSH1 0x60 PUSH0 PUSH1 0x7 GAS STATICCALL AND PUSH1 0x40 PUSH2 0x3160 PUSH1 0x80 DUP2 PUSH1 0x6 GAS STATICCALL DUP2 AND SWAP1 POP PUSH2 0x1200 MLOAD PUSH2 0x1220 MLOAD DUP5 DUP3 DUP4 MULMOD DUP6 PUSH1 0x3 DUP8 DUP4 DUP7 MULMOD ADDMOD DUP7 DUP4 DUP5 MULMOD EQ PUSH2 0x1D94 JUMPI PUSH4 0x28F6B595 PUSH1 0xE2 SHL PUSH0 MSTORE PUSH1 0x4 PUSH0 REVERT JUMPDEST POP DUP2 PUSH0 MSTORE DUP1 PUSH1 0x20 MSTORE POP POP DUP2 PUSH2 0x2700 MLOAD DUP4 PUSH1 0x1 PUSH2 0x2B00 MLOAD ADDMOD MULMOD PUSH1 0x40 MSTORE PUSH1 0x40 PUSH2 0x31A0 PUSH1 0x60 PUSH0 PUSH1 0x7 GAS STATICCALL AND PUSH1 0x40 PUSH2 0x3160 PUSH1 0x80 DUP2 PUSH1 0x6 GAS STATICCALL DUP2 AND SWAP1 POP PUSH2 0x1240 MLOAD PUSH2 0x1260 MLOAD DUP5 DUP3 DUP4 MULMOD DUP6 PUSH1 0x3 DUP8 DUP4 DUP7 MULMOD ADDMOD DUP7 DUP4 DUP5 MULMOD EQ PUSH2 0x1DF8 JUMPI PUSH4 0x28F6B595 PUSH1 0xE2 SHL PUSH0 MSTORE PUSH1 0x4 PUSH0 REVERT JUMPDEST POP DUP2 PUSH0 MSTORE DUP1 PUSH1 0x20 MSTORE POP POP DUP2 PUSH2 0x2720 MLOAD DUP4 PUSH1 0x1 PUSH2 0x2B00 MLOAD ADDMOD MULMOD PUSH1 0x40 MSTORE PUSH1 0x40 PUSH2 0x31A0 PUSH1 0x60 PUSH0 PUSH1 0x7 GAS STATICCALL AND PUSH1 0x40 PUSH2 0x3160 PUSH1 0x80 DUP2 PUSH1 0x6 GAS STATICCALL DUP2 AND SWAP1 POP PUSH2 0x1280 MLOAD PUSH2 0x12A0 MLOAD DUP5 DUP3 DUP4 MULMOD DUP6 PUSH1 0x3 DUP8 DUP4 DUP7 MULMOD ADDMOD DUP7 DUP4 DUP5 MULMOD EQ PUSH2 0x1E5C JUMPI PUSH4 0x28F6B595 PUSH1 0xE2 SHL PUSH0 MSTORE PUSH1 0x4 PUSH0 REVERT JUMPDEST POP DUP2 PUSH0 MSTORE DUP1 PUSH1 0x20 MSTORE POP POP DUP2 PUSH2 0x2740 MLOAD DUP4 PUSH1 0x1 PUSH2 0x2B00 MLOAD ADDMOD MULMOD PUSH1 0x40 MSTORE PUSH1 0x40 PUSH2 0x31A0 PUSH1 0x60 PUSH0 PUSH1 0x7 GAS STATICCALL AND PUSH1 0x40 PUSH2 0x3160 PUSH1 0x80 DUP2 PUSH1 0x6 GAS STATICCALL DUP2 AND SWAP1 POP PUSH2 0x12C0 MLOAD PUSH2 0x12E0 MLOAD DUP5 DUP3 DUP4 MULMOD DUP6 PUSH1 0x3 DUP8 DUP4 DUP7 MULMOD ADDMOD DUP7 DUP4 DUP5 MULMOD EQ PUSH2 0x1EC0 JUMPI PUSH4 0x28F6B595 PUSH1 0xE2 SHL PUSH0 MSTORE PUSH1 0x4 PUSH0 REVERT JUMPDEST POP DUP2 PUSH0 MSTORE DUP1 PUSH1 0x20 MSTORE POP POP DUP2 PUSH2 0x2760 MLOAD DUP4 PUSH1 0x1 PUSH2 0x2B00 MLOAD ADDMOD MULMOD PUSH1 0x40 MSTORE PUSH1 0x40 PUSH2 0x31A0 PUSH1 0x60 PUSH0 PUSH1 0x7 GAS STATICCALL AND PUSH1 0x40 PUSH2 0x3160 PUSH1 0x80 DUP2 PUSH1 0x6 GAS STATICCALL DUP2 AND SWAP1 POP PUSH2 0x1300 MLOAD PUSH2 0x1320 MLOAD DUP5 DUP3 DUP4 MULMOD DUP6 PUSH1 0x3 DUP8 DUP4 DUP7 MULMOD ADDMOD DUP7 DUP4 DUP5 MULMOD EQ PUSH2 0x1F24 JUMPI PUSH4 0x28F6B595 PUSH1 0xE2 SHL PUSH0 MSTORE PUSH1 0x4 PUSH0 REVERT JUMPDEST POP DUP2 PUSH0 MSTORE DUP1 PUSH1 0x20 MSTORE POP POP DUP2 PUSH2 0x2780 MLOAD DUP4 PUSH1 0x1 PUSH2 0x2B00 MLOAD ADDMOD MULMOD PUSH1 0x40 MSTORE PUSH1 0x40 PUSH2 0x31A0 PUSH1 0x60 PUSH0 PUSH1 0x7 GAS STATICCALL AND PUSH1 0x40 PUSH2 0x3160 PUSH1 0x80 DUP2 PUSH1 0x6 GAS STATICCALL DUP2 AND SWAP1 POP PUSH2 0x1340 MLOAD PUSH2 0x1360 MLOAD DUP5 DUP3 DUP4 MULMOD DUP6 PUSH1 0x3 DUP8 DUP4 DUP7 MULMOD ADDMOD DUP7 DUP4 DUP5 MULMOD EQ PUSH2 0x1F88 JUMPI PUSH4 0x28F6B595 PUSH1 0xE2 SHL PUSH0 MSTORE PUSH1 0x4 PUSH0 REVERT JUMPDEST POP DUP2 PUSH0 MSTORE DUP1 PUSH1 0x20 MSTORE POP POP DUP2 PUSH2 0x27A0 MLOAD DUP4 PUSH1 0x1 PUSH2 0x2B00 MLOAD ADDMOD MULMOD PUSH1 0x40 MSTORE PUSH1 0x40 PUSH2 0x31A0 PUSH1 0x60 PUSH0 PUSH1 0x7 GAS STATICCALL AND PUSH1 0x40 PUSH2 0x3160 PUSH1 0x80 DUP2 PUSH1 0x6 GAS STATICCALL DUP2 AND SWAP1 POP PUSH2 0x1380 MLOAD PUSH2 0x13A0 MLOAD DUP5 DUP3 DUP4 MULMOD DUP6 PUSH1 0x3 DUP8 DUP4 DUP7 MULMOD ADDMOD DUP7 DUP4 DUP5 MULMOD EQ PUSH2 0x1FEC JUMPI PUSH4 0x28F6B595 PUSH1 0xE2 SHL PUSH0 MSTORE PUSH1 0x4 PUSH0 REVERT JUMPDEST POP DUP2 PUSH0 MSTORE DUP1 PUSH1 0x20 MSTORE POP POP DUP2 PUSH2 0x27C0 MLOAD DUP4 PUSH1 0x1 PUSH2 0x2B00 MLOAD ADDMOD MULMOD PUSH1 0x40 MSTORE PUSH1 0x40 PUSH2 0x31A0 PUSH1 0x60 PUSH0 PUSH1 0x7 GAS STATICCALL AND PUSH1 0x40 PUSH2 0x3160 PUSH1 0x80 DUP2 PUSH1 0x6 GAS STATICCALL DUP2 AND SWAP1 POP PUSH2 0x400 MLOAD PUSH0 MSTORE PUSH2 0x420 MLOAD PUSH1 0x20 MSTORE PUSH2 0x27E0 MLOAD PUSH1 0x40 MSTORE PUSH1 0x40 PUSH2 0x31A0 PUSH1 0x60 PUSH0 PUSH1 0x7 GAS STATICCALL AND PUSH1 0x40 PUSH2 0x3160 PUSH1 0x80 DUP2 PUSH1 0x6 GAS STATICCALL DUP2 AND SWAP1 POP PUSH2 0x440 MLOAD PUSH0 MSTORE PUSH2 0x460 MLOAD PUSH1 0x20 MSTORE PUSH2 0x2800 MLOAD PUSH1 0x40 MSTORE PUSH1 0x40 PUSH2 0x31A0 PUSH1 0x60 PUSH0 PUSH1 0x7 GAS STATICCALL AND PUSH1 0x40 PUSH2 0x3160 PUSH1 0x80 DUP2 PUSH1 0x6 GAS STATICCALL DUP2 AND SWAP1 POP PUSH2 0x480 MLOAD PUSH0 MSTORE PUSH2 0x4A0 MLOAD PUSH1 0x20 MSTORE PUSH2 0x2820 MLOAD PUSH1 0x40 MSTORE PUSH1 0x40 PUSH2 0x31A0 PUSH1 0x60 PUSH0 PUSH1 0x7 GAS STATICCALL AND PUSH1 0x40 PUSH2 0x3160 PUSH1 0x80 DUP2 PUSH1 0x6 GAS STATICCALL DUP2 AND SWAP1 POP PUSH2 0x4C0 MLOAD PUSH0 MSTORE PUSH2 0x4E0 MLOAD PUSH1 0x20 MSTORE PUSH2 0x2840 MLOAD PUSH1 0x40 MSTORE PUSH1 0x40 PUSH2 0x31A0 PUSH1 0x60 PUSH0 PUSH1 0x7 GAS STATICCALL AND PUSH1 0x40 PUSH2 0x3160 PUSH1 0x80 DUP2 PUSH1 0x6 GAS STATICCALL DUP2 AND SWAP1 POP PUSH2 0x500 MLOAD PUSH0 MSTORE PUSH2 0x520 MLOAD PUSH1 0x20 MSTORE PUSH2 0x2860 MLOAD PUSH1 0x40 MSTORE PUSH1 0x40 PUSH2 0x31A0 PUSH1 0x60 PUSH0 PUSH1 0x7 GAS STATICCALL AND PUSH1 0x40 PUSH2 0x3160 PUSH1 0x80 DUP2 PUSH1 0x6 GAS STATICCALL DUP2 AND SWAP1 POP PUSH2 0x540 MLOAD PUSH0 MSTORE PUSH2 0x560 MLOAD PUSH1 0x20 MSTORE PUSH2 0x2880 MLOAD PUSH1 0x40 MSTORE PUSH1 0x40 PUSH2 0x31A0 PUSH1 0x60 PUSH0 PUSH1 0x7 GAS STATICCALL AND PUSH1 0x40 PUSH2 0x3160 PUSH1 0x80 DUP2 PUSH1 0x6 GAS STATICCALL DUP2 AND SWAP1 POP PUSH2 0x580 MLOAD PUSH0 MSTORE PUSH2 0x5A0 MLOAD PUSH1 0x20 MSTORE PUSH2 0x28A0 MLOAD PUSH1 0x40 MSTORE PUSH1 0x40 PUSH2 0x31A0 PUSH1 0x60 PUSH0 PUSH1 0x7 GAS STATICCALL AND PUSH1 0x40 PUSH2 0x3160 PUSH1 0x80 DUP2 PUSH1 0x6 GAS STATICCALL DUP2 AND SWAP1 POP PUSH2 0x5C0 MLOAD PUSH0 MSTORE PUSH2 0x5E0 MLOAD PUSH1 0x20 MSTORE PUSH2 0x28C0 MLOAD PUSH1 0x40 MSTORE PUSH1 0x40 PUSH2 0x31A0 PUSH1 0x60 PUSH0 PUSH1 0x7 GAS STATICCALL AND PUSH1 0x40 PUSH2 0x3160 PUSH1 0x80 DUP2 PUSH1 0x6 GAS STATICCALL DUP2 AND SWAP1 POP PUSH2 0x600 MLOAD PUSH0 MSTORE PUSH2 0x620 MLOAD PUSH1 0x20 MSTORE PUSH2 0x28E0 MLOAD PUSH1 0x40 MSTORE PUSH1 0x40 PUSH2 0x31A0 PUSH1 0x60 PUSH0 PUSH1 0x7 GAS STATICCALL AND PUSH1 0x40 PUSH2 0x3160 PUSH1 0x80 DUP2 PUSH1 0x6 GAS STATICCALL DUP2 AND SWAP1 POP PUSH2 0x640 MLOAD PUSH0 MSTORE PUSH2 0x660 MLOAD PUSH1 0x20 MSTORE PUSH2 0x2900 MLOAD PUSH1 0x40 MSTORE PUSH1 0x40 PUSH2 0x31A0 PUSH1 0x60 PUSH0 PUSH1 0x7 GAS STATICCALL AND PUSH1 0x40 PUSH2 0x3160 PUSH1 0x80 DUP2 PUSH1 0x6 GAS STATICCALL DUP2 AND SWAP1 POP PUSH2 0x680 MLOAD PUSH0 MSTORE PUSH2 0x6A0 MLOAD PUSH1 0x20 MSTORE PUSH2 0x2920 MLOAD PUSH1 0x40 MSTORE PUSH1 0x40 PUSH2 0x31A0 PUSH1 0x60 PUSH0 PUSH1 0x7 GAS STATICCALL AND PUSH1 0x40 PUSH2 0x3160 PUSH1 0x80 DUP2 PUSH1 0x6 GAS STATICCALL DUP2 AND SWAP1 POP PUSH2 0x6C0 MLOAD PUSH0 MSTORE PUSH2 0x6E0 MLOAD PUSH1 0x20 MSTORE PUSH2 0x2940 MLOAD PUSH1 0x40 MSTORE PUSH1 0x40 PUSH2 0x31A0 PUSH1 0x60 PUSH0 PUSH1 0x7 GAS STATICCALL AND PUSH1 0x40 PUSH2 0x3160 PUSH1 0x80 DUP2 PUSH1 0x6 GAS STATICCALL DUP2 AND SWAP1 POP PUSH2 0x700 MLOAD PUSH0 MSTORE PUSH2 0x720 MLOAD PUSH1 0x20 MSTORE PUSH2 0x2960 MLOAD PUSH1 0x40 MSTORE PUSH1 0x40 PUSH2 0x31A0 PUSH1 0x60 PUSH0 PUSH1 0x7 GAS STATICCALL AND PUSH1 0x40 PUSH2 0x3160 PUSH1 0x80 DUP2 PUSH1 0x6 GAS STATICCALL DUP2 AND SWAP1 POP PUSH2 0x740 MLOAD PUSH0 MSTORE PUSH2 0x760 MLOAD PUSH1 0x20 MSTORE PUSH2 0x2980 MLOAD PUSH1 0x40 MSTORE PUSH1 0x40 PUSH2 0x31A0 PUSH1 0x60 PUSH0 PUSH1 0x7 GAS STATICCALL AND PUSH1 0x40 PUSH2 0x3160 PUSH1 0x80 DUP2 PUSH1 0x6 GAS STATICCALL DUP2 AND SWAP1 POP PUSH2 0x780 MLOAD PUSH0 MSTORE PUSH2 0x7A0 MLOAD PUSH1 0x20 MSTORE DUP2 PUSH2 0x29A0 MLOAD DUP4 PUSH1 0x1 PUSH2 0x2B00 MLOAD ADDMOD MULMOD PUSH1 0x40 MSTORE PUSH1 0x40 PUSH2 0x31A0 PUSH1 0x60 PUSH0 PUSH1 0x7 GAS STATICCALL AND PUSH1 0x40 PUSH2 0x3160 PUSH1 0x80 DUP2 PUSH1 0x6 GAS STATICCALL DUP2 AND SWAP1 POP PUSH2 0x7C0 MLOAD PUSH0 MSTORE PUSH2 0x7E0 MLOAD PUSH1 0x20 MSTORE DUP2 PUSH2 0x29C0 MLOAD DUP4 PUSH1 0x1 PUSH2 0x2B00 MLOAD ADDMOD MULMOD PUSH1 0x40 MSTORE PUSH1 0x40 PUSH2 0x31A0 PUSH1 0x60 PUSH0 PUSH1 0x7 GAS STATICCALL AND PUSH1 0x40 PUSH2 0x3160 PUSH1 0x80 DUP2 PUSH1 0x6 GAS STATICCALL DUP2 AND SWAP1 POP PUSH2 0x800 MLOAD PUSH0 MSTORE PUSH2 0x820 MLOAD PUSH1 0x20 MSTORE DUP2 PUSH2 0x29E0 MLOAD DUP4 PUSH1 0x1 PUSH2 0x2B00 MLOAD ADDMOD MULMOD PUSH1 0x40 MSTORE PUSH1 0x40 PUSH2 0x31A0 PUSH1 0x60 PUSH0 PUSH1 0x7 GAS STATICCALL AND PUSH1 0x40 PUSH2 0x3160 PUSH1 0x80 DUP2 PUSH1 0x6 GAS STATICCALL DUP2 AND SWAP1 POP PUSH2 0x840 MLOAD PUSH0 MSTORE PUSH2 0x860 MLOAD PUSH1 0x20 MSTORE DUP2 PUSH2 0x2A00 MLOAD DUP4 PUSH1 0x1 PUSH2 0x2B00 MLOAD ADDMOD MULMOD PUSH1 0x40 MSTORE PUSH1 0x40 PUSH2 0x31A0 PUSH1 0x60 PUSH0 PUSH1 0x7 GAS STATICCALL AND PUSH1 0x40 PUSH2 0x3160 PUSH1 0x80 DUP2 PUSH1 0x6 GAS STATICCALL DUP2 AND SWAP1 POP PUSH2 0x880 MLOAD PUSH0 MSTORE PUSH2 0x8A0 MLOAD PUSH1 0x20 MSTORE PUSH2 0x2A20 MLOAD PUSH1 0x40 MSTORE PUSH1 0x40 PUSH2 0x31A0 PUSH1 0x60 PUSH0 PUSH1 0x7 GAS STATICCALL AND PUSH1 0x40 PUSH2 0x3160 PUSH1 0x80 DUP2 PUSH1 0x6 GAS STATICCALL DUP2 AND SWAP1 POP PUSH2 0x8C0 MLOAD PUSH0 MSTORE PUSH2 0x8E0 MLOAD PUSH1 0x20 MSTORE PUSH2 0x2A40 MLOAD PUSH1 0x40 MSTORE PUSH1 0x40 PUSH2 0x31A0 PUSH1 0x60 PUSH0 PUSH1 0x7 GAS STATICCALL AND PUSH1 0x40 PUSH2 0x3160 PUSH1 0x80 DUP2 PUSH1 0x6 GAS STATICCALL DUP2 AND SWAP1 POP PUSH2 0x900 MLOAD PUSH0 MSTORE PUSH2 0x920 MLOAD PUSH1 0x20 MSTORE PUSH2 0x2A60 MLOAD PUSH1 0x40 MSTORE PUSH1 0x40 PUSH2 0x31A0 PUSH1 0x60 PUSH0 PUSH1 0x7 GAS STATICCALL AND PUSH1 0x40 PUSH2 0x3160 PUSH1 0x80 DUP2 PUSH1 0x6 GAS STATICCALL DUP2 AND SWAP1 POP PUSH2 0x940 MLOAD PUSH0 MSTORE PUSH2 0x960 MLOAD PUSH1 0x20 MSTORE PUSH2 0x2A80 MLOAD PUSH1 0x40 MSTORE PUSH1 0x40 PUSH2 0x31A0 PUSH1 0x60 PUSH0 PUSH1 0x7 GAS STATICCALL AND PUSH1 0x40 PUSH2 0x3160 PUSH1 0x80 DUP2 PUSH1 0x6 GAS STATICCALL DUP2 AND SWAP1 POP PUSH2 0x980 MLOAD PUSH0 MSTORE PUSH2 0x9A0 MLOAD PUSH1 0x20 MSTORE PUSH2 0x2AA0 MLOAD PUSH1 0x40 MSTORE PUSH1 0x40 PUSH2 0x31A0 PUSH1 0x60 PUSH0 PUSH1 0x7 GAS STATICCALL AND PUSH1 0x40 PUSH2 0x3160 PUSH1 0x80 DUP2 PUSH1 0x6 GAS STATICCALL DUP2 AND SWAP1 POP DUP2 DUP3 PUSH2 0x1600 MLOAD DUP5 PUSH2 0x2B00 MLOAD PUSH2 0x19E0 MLOAD MULMOD ADDMOD PUSH2 0x2700 MLOAD MULMOD DUP3 DUP4 DUP5 PUSH2 0x1620 MLOAD DUP7 PUSH2 0x2B00 MLOAD PUSH2 0x2000 MLOAD MULMOD ADDMOD PUSH2 0x2720 MLOAD MULMOD DUP3 ADDMOD SWAP1 POP DUP3 DUP4 DUP5 PUSH2 0x1640 MLOAD DUP7 PUSH2 0x2B00 MLOAD PUSH2 0x2020 MLOAD MULMOD ADDMOD PUSH2 0x2740 MLOAD MULMOD DUP3 ADDMOD SWAP1 POP DUP3 DUP4 DUP5 PUSH2 0x1660 MLOAD DUP7 PUSH2 0x2B00 MLOAD PUSH2 0x2040 MLOAD MULMOD ADDMOD PUSH2 0x2760 MLOAD MULMOD DUP3 ADDMOD SWAP1 POP DUP3 DUP4 DUP5 PUSH2 0x1680 MLOAD DUP7 PUSH2 0x2B00 MLOAD PUSH2 0x2060 MLOAD MULMOD ADDMOD PUSH2 0x2780 MLOAD MULMOD DUP3 ADDMOD SWAP1 POP DUP3 DUP4 DUP5 PUSH2 0x16A0 MLOAD DUP7 PUSH2 0x2B00 MLOAD PUSH2 0x2080 MLOAD MULMOD ADDMOD PUSH2 0x27A0 MLOAD MULMOD DUP3 ADDMOD SWAP1 POP DUP3 DUP4 DUP5 PUSH2 0x16C0 MLOAD DUP7 PUSH2 0x2B00 MLOAD PUSH2 0x20A0 MLOAD MULMOD ADDMOD PUSH2 0x27C0 MLOAD MULMOD DUP3 ADDMOD SWAP1 POP DUP3 DUP4 PUSH2 0x16E0 MLOAD PUSH2 0x27E0 MLOAD MULMOD DUP3 ADDMOD SWAP1 POP DUP3 DUP4 PUSH2 0x1700 MLOAD PUSH2 0x2800 MLOAD MULMOD DUP3 ADDMOD SWAP1 POP DUP3 DUP4 PUSH2 0x1720 MLOAD PUSH2 0x2820 MLOAD MULMOD DUP3 ADDMOD SWAP1 POP DUP3 DUP4 PUSH2 0x1740 MLOAD PUSH2 0x2840 MLOAD MULMOD DUP3 ADDMOD SWAP1 POP DUP3 DUP4 PUSH2 0x1760 MLOAD PUSH2 0x2860 MLOAD MULMOD DUP3 ADDMOD SWAP1 POP DUP3 DUP4 PUSH2 0x1780 MLOAD PUSH2 0x2880 MLOAD MULMOD DUP3 ADDMOD SWAP1 POP DUP3 DUP4 PUSH2 0x17A0 MLOAD PUSH2 0x28A0 MLOAD MULMOD DUP3 ADDMOD SWAP1 POP DUP3 DUP4 PUSH2 0x17C0 MLOAD PUSH2 0x28C0 MLOAD MULMOD DUP3 ADDMOD SWAP1 POP DUP3 DUP4 PUSH2 0x17E0 MLOAD PUSH2 0x28E0 MLOAD MULMOD DUP3 ADDMOD SWAP1 POP DUP3 DUP4 PUSH2 0x1800 MLOAD PUSH2 0x2900 MLOAD MULMOD DUP3 ADDMOD SWAP1 POP DUP3 DUP4 PUSH2 0x1960 MLOAD PUSH2 0x2920 MLOAD MULMOD DUP3 ADDMOD SWAP1 POP DUP3 DUP4 PUSH2 0x1980 MLOAD PUSH2 0x2940 MLOAD MULMOD DUP3 ADDMOD SWAP1 POP DUP3 DUP4 PUSH2 0x19A0 MLOAD PUSH2 0x2960 MLOAD MULMOD DUP3 ADDMOD SWAP1 POP DUP3 DUP4 PUSH2 0x19C0 MLOAD PUSH2 0x2980 MLOAD MULMOD DUP3 ADDMOD SWAP1 POP DUP3 DUP4 DUP5 PUSH2 0x1840 MLOAD DUP7 PUSH2 0x2B00 MLOAD PUSH2 0x20C0 MLOAD MULMOD ADDMOD PUSH2 0x29A0 MLOAD MULMOD DUP3 ADDMOD SWAP1 POP DUP3 DUP4 DUP5 PUSH2 0x1860 MLOAD DUP7 PUSH2 0x2B00 MLOAD PUSH2 0x20E0 MLOAD MULMOD ADDMOD PUSH2 0x29C0 MLOAD MULMOD DUP3 ADDMOD SWAP1 POP DUP3 DUP4 DUP5 PUSH2 0x1880 MLOAD DUP7 PUSH2 0x2B00 MLOAD PUSH2 0x2100 MLOAD MULMOD ADDMOD PUSH2 0x29E0 MLOAD MULMOD DUP3 ADDMOD SWAP1 POP DUP3 DUP4 DUP5 PUSH2 0x18A0 MLOAD DUP7 PUSH2 0x2B00 MLOAD PUSH2 0x2120 MLOAD MULMOD ADDMOD PUSH2 0x2A00 MLOAD MULMOD DUP3 ADDMOD SWAP1 POP DUP3 DUP4 PUSH2 0x18C0 MLOAD PUSH2 0x2A20 MLOAD MULMOD DUP3 ADDMOD SWAP1 POP DUP3 DUP4 PUSH2 0x18E0 MLOAD PUSH2 0x2A40 MLOAD MULMOD DUP3 ADDMOD SWAP1 POP DUP3 DUP4 PUSH2 0x1900 MLOAD PUSH2 0x2A60 MLOAD MULMOD DUP3 ADDMOD SWAP1 POP DUP3 DUP4 PUSH2 0x1920 MLOAD PUSH2 0x2A80 MLOAD MULMOD DUP3 ADDMOD SWAP1 POP DUP3 DUP4 PUSH2 0x1940 MLOAD PUSH2 0x2AA0 MLOAD MULMOD DUP3 ADDMOD SWAP1 POP DUP3 PUSH2 0x3660 MLOAD DUP3 ADDMOD SWAP1 POP PUSH1 0x1 PUSH0 MSTORE PUSH1 0x2 PUSH1 0x20 MSTORE DUP1 DUP4 SUB PUSH1 0x40 MSTORE POP PUSH1 0x40 PUSH2 0x31A0 PUSH1 0x60 PUSH0 PUSH1 0x7 GAS STATICCALL AND PUSH1 0x40 PUSH2 0x3160 PUSH1 0x80 DUP2 PUSH1 0x6 GAS STATICCALL AND DUP1 PUSH2 0x273B JUMPI PUSH4 0x4E719763 PUSH1 0xE0 SHL PUSH0 MSTORE PUSH1 0x4 PUSH0 REVERT JUMPDEST PUSH2 0x2B00 MLOAD PUSH2 0x26C0 MLOAD PUSH2 0x2300 MLOAD PUSH2 0x2320 MLOAD DUP7 DUP3 DUP4 MULMOD DUP8 PUSH1 0x3 DUP10 DUP4 DUP7 MULMOD ADDMOD DUP9 DUP4 DUP5 MULMOD EQ PUSH2 0x276F JUMPI PUSH4 0x28F6B595 PUSH1 0xE2 SHL PUSH0 MSTORE PUSH1 0x4 PUSH0 REVERT JUMPDEST POP DUP2 PUSH0 MSTORE DUP1 PUSH1 0x20 MSTORE POP POP DUP1 PUSH1 0x40 MSTORE PUSH1 0x40 PUSH2 0x31A0 PUSH1 0x60 PUSH0 PUSH1 0x7 GAS STATICCALL SWAP3 POP PUSH1 0x40 PUSH2 0x3160 PUSH1 0x80 PUSH2 0x3160 PUSH1 0x6 GAS STATICCALL DUP4 AND SWAP3 POP PUSH2 0x2340 MLOAD PUSH2 0x2360 MLOAD DUP7 DUP3 DUP4 MULMOD DUP8 PUSH1 0x3 DUP10 DUP4 DUP7 MULMOD ADDMOD DUP9 DUP4 DUP5 MULMOD EQ PUSH2 0x27C9 JUMPI PUSH4 0x28F6B595 PUSH1 0xE2 SHL PUSH0 MSTORE PUSH1 0x4 PUSH0 REVERT JUMPDEST POP DUP2 PUSH0 MSTORE DUP1 PUSH1 0x20 MSTORE POP POP DUP4 PUSH2 0x3C0 MLOAD DUP6 DUP4 DUP6 MULMOD MULMOD PUSH1 0x40 MSTORE POP PUSH1 0x40 PUSH2 0x31A0 PUSH1 0x60 PUSH0 PUSH1 0x7 GAS STATICCALL DUP3 AND SWAP2 POP PUSH1 0x40 PUSH2 0x3220 PUSH1 0x80 PUSH2 0x3160 PUSH1 0x6 GAS STATICCALL DUP3 AND SWAP2 POP PUSH2 0x2300 MLOAD PUSH0 MSTORE PUSH2 0x2320 MLOAD PUSH1 0x20 MSTORE PUSH2 0x2340 MLOAD PUSH1 0x40 MSTORE PUSH2 0x2360 MLOAD PUSH1 0x60 MSTORE DUP1 PUSH1 0x80 MSTORE PUSH1 0x40 DUP1 PUSH1 0x60 PUSH1 0x40 PUSH1 0x7 GAS STATICCALL DUP3 AND SWAP2 POP PUSH1 0x40 PUSH2 0x31E0 PUSH1 0x80 PUSH0 PUSH1 0x6 GAS STATICCALL DUP3 AND SWAP2 POP PUSH2 0x3200 MLOAD DUP5 SUB PUSH2 0x3200 MSTORE PUSH2 0x9C0 MLOAD ISZERO PUSH2 0x291E JUMPI PUSH2 0x3400 MLOAD PUSH2 0x3420 MLOAD DUP6 DUP3 DUP4 MULMOD DUP7 PUSH1 0x3 DUP9 DUP4 DUP7 MULMOD ADDMOD DUP8 DUP4 DUP5 MULMOD EQ PUSH2 0x2880 JUMPI PUSH4 0x28F6B595 PUSH1 0xE2 SHL PUSH0 MSTORE PUSH1 0x4 PUSH0 REVERT JUMPDEST POP PUSH0 SWAP2 SWAP1 SWAP2 MSTORE PUSH1 0x20 MSTORE DUP3 DUP2 DUP1 MULMOD PUSH1 0x40 MSTORE PUSH1 0x40 PUSH1 0x60 DUP1 PUSH0 PUSH1 0x7 GAS STATICCALL DUP3 AND SWAP2 POP PUSH2 0x3440 MLOAD PUSH2 0x3460 MLOAD DUP6 DUP3 DUP4 MULMOD DUP7 PUSH1 0x3 DUP9 DUP4 DUP7 MULMOD ADDMOD DUP8 DUP4 DUP5 MULMOD EQ PUSH2 0x28CA JUMPI PUSH4 0x28F6B595 PUSH1 0xE2 SHL PUSH0 MSTORE PUSH1 0x4 PUSH0 REVERT JUMPDEST POP PUSH0 SWAP2 DUP3 MSTORE PUSH1 0x20 MSTORE PUSH1 0x40 SWAP1 PUSH1 0x60 DUP2 PUSH1 0x7 GAS STATICCALL DUP3 AND SWAP2 POP PUSH2 0x3220 MLOAD PUSH1 0xA0 MSTORE PUSH2 0x3240 MLOAD PUSH1 0xC0 MSTORE PUSH1 0x40 PUSH2 0x3220 PUSH1 0x80 PUSH1 0x60 PUSH1 0x6 GAS STATICCALL DUP3 AND SWAP2 POP PUSH2 0x31E0 MLOAD PUSH1 0x40 MSTORE PUSH2 0x3200 MLOAD PUSH1 0x60 MSTORE PUSH1 0x40 PUSH2 0x31E0 PUSH1 0x80 PUSH0 PUSH1 0x6 GAS STATICCALL DUP3 AND SWAP2 POP JUMPDEST POP DUP1 PUSH2 0x2933 JUMPI PUSH4 0x1882D81 PUSH1 0xE0 SHL PUSH0 MSTORE PUSH1 0x4 PUSH0 REVERT JUMPDEST PUSH2 0x3220 MLOAD PUSH0 MSTORE PUSH2 0x3240 MLOAD PUSH1 0x20 MSTORE PUSH32 0x198E9393920D483A7260BFB731FB5D25F1AA493335A9E71297E485B7AEF312C2 PUSH1 0x40 MSTORE PUSH32 0x1800DEEF121F1E76426A00665E5C4479674322D4F75EDADD46DEBD5CD992F6ED PUSH1 0x60 MSTORE PUSH32 0x90689D0585FF075EC9E99AD690C3395BC4B313370B38EF355ACDADCD122975B PUSH1 0x80 MSTORE PUSH32 0x12C85EA5DB8C6DEB4AAB71808DCB408FE3D1E7690C43D37B4CE6CC0166FA7DAA PUSH1 0xA0 MSTORE PUSH2 0x31E0 MLOAD PUSH1 0xC0 MSTORE PUSH2 0x3200 MLOAD PUSH1 0xE0 MSTORE PUSH2 0xA00 MLOAD PUSH2 0x100 MSTORE PUSH2 0xA20 MLOAD PUSH2 0x120 MSTORE PUSH2 0xA40 MLOAD PUSH2 0x140 MSTORE PUSH2 0xA60 MLOAD PUSH2 0x160 MSTORE PUSH1 0x20 PUSH0 PUSH2 0x180 PUSH0 PUSH1 0x8 GAS STATICCALL SWAP1 POP PUSH0 MLOAD DUP2 AND PUSH2 0x2A22 JUMPI PUSH4 0xD71FD263 PUSH1 0xE0 SHL PUSH0 MSTORE PUSH1 0x4 PUSH0 REVERT JUMPDEST POP POP POP PUSH1 0x1 PUSH0 MSTORE PUSH1 0x20 PUSH0 RETURN JUMPDEST PUSH0 DUP1 PUSH0 DUP1 PUSH1 0x40 DUP6 DUP8 SUB SLT ISZERO PUSH2 0x2A41 JUMPI PUSH0 DUP1 REVERT JUMPDEST DUP5 CALLDATALOAD PUSH8 0xFFFFFFFFFFFFFFFF DUP1 DUP3 GT ISZERO PUSH2 0x2A58 JUMPI PUSH0 DUP1 REVERT JUMPDEST DUP2 DUP8 ADD SWAP2 POP DUP8 PUSH1 0x1F DUP4 ADD SLT PUSH2 0x2A6B JUMPI PUSH0 DUP1 REVERT JUMPDEST DUP2 CALLDATALOAD DUP2 DUP2 GT ISZERO PUSH2 0x2A79 JUMPI PUSH0 DUP1 REVERT JUMPDEST DUP9 PUSH1 0x20 DUP3 DUP6 ADD ADD GT ISZERO PUSH2 0x2A8A JUMPI PUSH0 DUP1 REVERT JUMPDEST PUSH1 0x20 SWAP3 DUP4 ADD SWAP7 POP SWAP5 POP SWAP1 DUP7 ADD CALLDATALOAD SWAP1 DUP1 DUP3 GT ISZERO PUSH2 0x2AA4 JUMPI PUSH0 DUP1 REVERT JUMPDEST DUP2 DUP8 ADD SWAP2 POP DUP8 PUSH1 0x1F DUP4 ADD SLT PUSH2 0x2AB7 JUMPI PUSH0 DUP1 REVERT JUMPDEST DUP2 CALLDATALOAD DUP2 DUP2 GT ISZERO PUSH2 0x2AC5 JUMPI PUSH0 DUP1 REVERT JUMPDEST DUP9 PUSH1 0x20 DUP3 PUSH1 0x5 SHL DUP6 ADD ADD GT ISZERO PUSH2 0x2AD9 JUMPI PUSH0 DUP1 REVERT JUMPDEST SWAP6 SWAP9 SWAP5 SWAP8 POP POP PUSH1 0x20 ADD SWAP5 POP POP POP JUMP INVALID LOG2 PUSH5 0x6970667358 0x22 SLT KECCAK256 0x49 0xC7 0xB3 0xBA 0x23 PUSH27 0xD912827F1EB23AF469DF0DF8938E3F7670727D5C1D6A96F8B43764 PUSH20 0x6F6C634300081700330000000000000000000000 "},"methodIdentifiers":{"getVerificationKeyHash()":"937f6a10","verify(bytes,bytes32[])":"ea50d0e4"}}}}}