{"contracts/ToadnadoL1.sol":{"ToadnadoL1":{"abi":[{"inputs":[{"internalType":"address","name":"_verifier","type":"address"},{"internalType":"uint256","name":"_denomination","type":"uint256"},{"internalType":"uint32","name":"_merkleTreeHeight","type":"uint32"}],"stateMutability":"nonpayable","type":"constructor"},{"inputs":[],"name":"ReentrancyGuardReentrantCall","type":"error"},{"anonymous":false,"inputs":[{"indexed":true,"internalType":"bytes32","name":"commitment","type":"bytes32"},{"indexed":false,"internalType":"uint32","name":"leafIndex","type":"uint32"},{"indexed":false,"internalType":"uint256","name":"timestamp","type":"uint256"}],"name":"Deposit","type":"event"},{"inputs":[],"name":"ROOT_HISTORY_SIZE","outputs":[{"internalType":"uint32","name":"","type":"uint32"}],"stateMutability":"view","type":"function"},{"inputs":[{"internalType":"bytes32","name":"_root","type":"bytes32"},{"internalType":"bytes32","name":"_nullifier","type":"bytes32"},{"internalType":"address","name":"_recipient","type":"address"}],"name":"_formatPublicInputs","outputs":[{"internalType":"bytes32[]","name":"","type":"bytes32[]"}],"stateMutability":"pure","type":"function"},{"inputs":[],"name":"adminWithdraw","outputs":[],"stateMutability":"payable","type":"function"},{"inputs":[{"internalType":"uint256","name":"","type":"uint256"}],"name":"commitmentLeafs","outputs":[{"internalType":"bytes32","name":"","type":"bytes32"}],"stateMutability":"view","type":"function"},{"inputs":[{"internalType":"bytes32","name":"","type":"bytes32"}],"name":"commitments","outputs":[{"internalType":"bool","name":"","type":"bool"}],"stateMutability":"view","type":"function"},{"inputs":[{"internalType":"bytes32","name":"","type":"bytes32"}],"name":"commitmentsTreeRoots","outputs":[{"internalType":"bool","name":"","type":"bool"}],"stateMutability":"view","type":"function"},{"inputs":[],"name":"currentRootIndex","outputs":[{"internalType":"uint32","name":"","type":"uint32"}],"stateMutability":"view","type":"function"},{"inputs":[],"name":"denomination","outputs":[{"internalType":"uint256","name":"","type":"uint256"}],"stateMutability":"view","type":"function"},{"inputs":[{"internalType":"bytes32","name":"_commitment","type":"bytes32"}],"name":"deposit","outputs":[],"stateMutability":"payable","type":"function"},{"inputs":[{"internalType":"uint256","name":"","type":"uint256"}],"name":"filledSubtrees","outputs":[{"internalType":"bytes32","name":"","type":"bytes32"}],"stateMutability":"view","type":"function"},{"inputs":[],"name":"getLastRoot","outputs":[{"internalType":"bytes32","name":"","type":"bytes32"}],"stateMutability":"view","type":"function"},{"inputs":[{"internalType":"bytes32","name":"_left","type":"bytes32"},{"internalType":"bytes32","name":"_right","type":"bytes32"}],"name":"hashLeftRight","outputs":[{"internalType":"bytes32","name":"","type":"bytes32"}],"stateMutability":"pure","type":"function"},{"inputs":[{"internalType":"bytes32","name":"_root","type":"bytes32"}],"name":"isKnownRoot","outputs":[{"internalType":"bool","name":"","type":"bool"}],"stateMutability":"view","type":"function"},{"inputs":[{"internalType":"bytes32","name":"_nullifierHash","type":"bytes32"}],"name":"isSpent","outputs":[{"internalType":"bool","name":"","type":"bool"}],"stateMutability":"view","type":"function"},{"inputs":[{"internalType":"bytes32[]","name":"_nullifierHashes","type":"bytes32[]"}],"name":"isSpentArray","outputs":[{"internalType":"bool[]","name":"spent","type":"bool[]"}],"stateMutability":"view","type":"function"},{"inputs":[],"name":"levels","outputs":[{"internalType":"uint32","name":"","type":"uint32"}],"stateMutability":"view","type":"function"},{"inputs":[],"name":"nextIndex","outputs":[{"internalType":"uint32","name":"","type":"uint32"}],"stateMutability":"view","type":"function"},{"inputs":[{"internalType":"bytes32","name":"","type":"bytes32"}],"name":"nullifiers","outputs":[{"internalType":"bool","name":"","type":"bool"}],"stateMutability":"view","type":"function"},{"inputs":[{"internalType":"uint256","name":"","type":"uint256"}],"name":"roots","outputs":[{"internalType":"bytes32","name":"","type":"bytes32"}],"stateMutability":"view","type":"function"},{"inputs":[],"name":"verifier","outputs":[{"internalType":"address","name":"","type":"address"}],"stateMutability":"view","type":"function"},{"inputs":[{"internalType":"uint256","name":"i","type":"uint256"}],"name":"zeros","outputs":[{"internalType":"bytes32","name":"","type":"bytes32"}],"stateMutability":"pure","type":"function"},{"stateMutability":"payable","type":"receive"}],"evm":{"bytecode":{"linkReferences":{},"object":"6080604052600480546001600160401b031916905534801562000020575f80fd5b506040516200196738038062001967833981016040819052620000439162000666565b828282805f8163ffffffff1611620000ae5760405162461bcd60e51b815260206004820152602360248201527f5f6c6576656c732073686f756c642062652067726561746572207468616e207a60448201526265726f60e81b60648201526084015b60405180910390fd5b60148163ffffffff1610620001065760405162461bcd60e51b815260206004820152601e60248201527f5f6c6576656c732073686f756c64206265206c657373207468616e20323000006044820152606401620000a5565b5f805463ffffffff191663ffffffff83161781555b8163ffffffff168163ffffffff1610156200015f576200014163ffffffff82166200022d565b63ffffffff82165f908152600260205260409020556001016200011b565b506200017163ffffffff82166200022d565b5f805260036020527f3617319a054d772f909f7c479a2cebe5066e836a939412e32403c99029b92eff5550600160055581620001fe5760405162461bcd60e51b815260206004820152602560248201527f64656e6f6d696e6174696f6e2073686f756c6420626520677265617465722074604482015264068616e20360dc1b6064820152608401620000a5565b50600780546001600160a01b0319166001600160a01b03939093169290921790915560065550620006bc915050565b5f815f036200025d57507f2fe54c60d3acabf3343a35b6eba15db4821b340f76e741e2249685ed4899af6c919050565b816001036200028d57507f4fc2fe9184a25f44ce8ddb5f32671fcae6d9c85ed710c199acef16ad16b29911919050565b81600203620002bd57507f0d826a474f851c563052d929ef0daa70f658aba9ba084f51f6e3483c13c0e59a919050565b81600303620002ed57507ff7761a16b5e4c0120e4c5704b910dbe18ff6162a9668ed1c2c4efde7c4f15806919050565b816004036200031d57507fce9ce09a0ab259d6d14ca3dcd74e6c6b9e7d9074bff66973d4c57ccdffdb2a82919050565b816005036200034d57507f02efd44c63015ff1385344e0624867775486d05e6eb1290a24976964a598003b919050565b816006036200037d57507fc4dec5845d407ce2ac2e6824bb7857c4b138f819e5789d5d11e812db10c846cd919050565b81600703620003ad57507f5fbe3f20c23f3bd6ac347917fb0903433e0b9a48373412348240a5f919bfde19919050565b81600803620003dd57507f92d1b07e56b3da96b7917778cb657f2c513eaeeb4d1579a73b5ea316f25b7289919050565b816009036200040d57507fa08add5656d6d3d0827ef909f7647981eac42aa1f51970a752f130f718f6d76a919050565b81600a036200043d57507f1704c5f297590d8ec62776b0714f4f3f2234bae0524035342b0da8b8988ebd79919050565b81600b036200046d57507fc5ae2bd47379c2c6d1189cfc3d057948dc6054caf845fcacd8f7affe94b11944919050565b81600c036200049d57507f12a161d6d5561062f387d91ad9f0f8966c0956afdb9e8325458b9e5057b82bdb919050565b81600d03620004cd57507f4ade524ba596de20bbe94507a761c45251ae7a27857ceb4287d9018525b99bc5919050565b81600e03620004fd57507f38287ad69151fa833bf4bf8b8eb6ffb39400a38f1a7e53b473f639c8c60fd5e4919050565b81600f036200052d57507f57f2ade7d711707e785451f2aba6c95872c7fe03153a98b7327b4024e8068fa3919050565b816010036200055d57507fb1982e0d1b0de46a88d8b17941472e41a86d3ff64571ed8e0ca72d58633547fc919050565b816011036200058d57507fb7c60f8670af15eb32b4ee36727179bc085a3dde03d5f9a1486664ba576b30a6919050565b81601203620005bd57507f5ff905c5c659a926b132ef3665a3de5d5a859c1d479e68851085bfc0348c5331919050565b81601303620005ed57507fb4dfa78b912e98c9f7eb42d71eb537a02bf3173d44a2eb887a48b3972072dd8e919050565b816014036200061d57507f60919a16a2eb8b91cfb8ba1e5b4c155a76a14c217b5403edbd563f34e508ecdc919050565b60405162461bcd60e51b815260206004820152601360248201527f496e646578206f7574206f6620626f756e6473000000000000000000000000006044820152606401620000a5565b5f805f6060848603121562000679575f80fd5b83516001600160a01b038116811462000690575f80fd5b60208501516040860151919450925063ffffffff81168114620006b1575f80fd5b809150509250925092565b61129d80620006ca5f395ff3fe608060405260043610610129575f3560e01c80639ec44154116100a8578063cd87a3b41161006d578063cd87a3b4146103a2578063e5285dcc146103b6578063e8295588146103e4578063f178e47c14610403578063f18d20be1461042e578063fc7e9c6f14610436575f80fd5b80639ec44154146102e35780639fa12d0b1461030e578063b214faa51461033a578063ba70f7571461034f578063c2b40ae414610377575f80fd5b80634fe3fbf0116100ee5780634fe3fbf0146102395780636d9833e314610265578063839df945146102845780638bca6d16146102b257806390eeb02b146102c7575f80fd5b80632997e86b146101345780632b7ac3f3146101775780633591d78d146101ae57806338bf282e146101dc5780634ecf518b14610209575f80fd5b3661013057005b5f80fd5b34801561013f575f80fd5b5061016261014e366004610ef7565b60086020525f908152604090205460ff1681565b60405190151581526020015b60405180910390f35b348015610182575f80fd5b50600754610196906001600160a01b031681565b6040516001600160a01b03909116815260200161016e565b3480156101b9575f80fd5b506101626101c8366004610ef7565b600a6020525f908152604090205460ff1681565b3480156101e7575f80fd5b506101fb6101f6366004610f0e565b61045a565b60405190815260200161016e565b348015610214575f80fd5b505f546102249063ffffffff1681565b60405163ffffffff909116815260200161016e565b348015610244575f80fd5b50610258610253366004610f2e565b610489565b60405161016e9190610f6f565b348015610270575f80fd5b5061016261027f366004610ef7565b610584565b34801561028f575f80fd5b5061016261029e366004610ef7565b60096020525f908152604090205460ff1681565b3480156102bd575f80fd5b506101fb60065481565b3480156102d2575f80fd5b506004546102249063ffffffff1681565b3480156102ee575f80fd5b506101fb6102fd366004610ef7565b60016020525f908152604090205481565b348015610319575f80fd5b5061032d610328366004610fb2565b6105fd565b60405161016e9190611021565b61034d610348366004610ef7565b6106b7565b005b34801561035a575f80fd5b5060045463ffffffff165f908152600360205260409020546101fb565b348015610382575f80fd5b506101fb610391366004610ef7565b60036020525f908152604090205481565b3480156103ad575f80fd5b50610224601e81565b3480156103c1575f80fd5b506101626103d0366004610ef7565b5f9081526008602052604090205460ff1690565b3480156103ef575f80fd5b506101fb6103fe366004610ef7565b6107a6565b34801561040e575f80fd5b506101fb61041d366004610ef7565b60026020525f908152604090205481565b61034d610bbf565b348015610441575f80fd5b5060045461022490640100000000900463ffffffff1681565b604080516020808201859052818301849052825180830384018152606090920190925280519101205b92915050565b60408051604180825261084082019092526060915f919060208201610820803683370190505090505f5b60208110156104f9578581602081106104ce576104ce61106e565b835191901a908390839081106104e6576104e661106e565b60209081029190910101526001016104b3565b5060205b604081101561054d5784610512602083611096565b602081106105225761052261106e565b835191901a9083908390811061053a5761053a61106e565b60209081029190910101526001016104fd565b5080516001600160a01b038416908190839060409081106105705761057061106e565b602090810291909101015250949350505050565b5f81810361059357505f919050565b60045463ffffffff16805b63ffffffff81165f9081526003602052604090205484036105c3575060019392505050565b8063ffffffff165f036105d45750601e5b806105de816110a9565b9150508163ffffffff168163ffffffff160361059e57505f9392505050565b60608167ffffffffffffffff8111156106185761061861105a565b604051908082528060200260200182016040528015610641578160200160208202803683370190505b5090505f5b828110156106b05761067e8484838181106106635761066361106e565b905060200201355f9081526008602052604090205460ff1690565b156106a85760018282815181106106975761069761106e565b911515602092830291909101909101525b600101610646565b5092915050565b6106bf610c80565b5f8181526009602052604090205460ff161561072c5760405162461bcd60e51b815260206004820152602160248201527f54686520636f6d6d69746d656e7420686173206265656e207375626d697474656044820152601960fa1b60648201526084015b60405180910390fd5b5f61073682610caa565b5f838152600960205260409020805460ff191660011790559050610758610e80565b6040805163ffffffff8316815242602082015283917fa945e51eec50ab98c161376f0db4cf2aeba3ec92755fe2fcd388bdbbb80ff196910160405180910390a2506107a36001600555565b50565b5f815f036107d557507f2fe54c60d3acabf3343a35b6eba15db4821b340f76e741e2249685ed4899af6c919050565b8160010361080457507f4fc2fe9184a25f44ce8ddb5f32671fcae6d9c85ed710c199acef16ad16b29911919050565b8160020361083357507f0d826a474f851c563052d929ef0daa70f658aba9ba084f51f6e3483c13c0e59a919050565b8160030361086257507ff7761a16b5e4c0120e4c5704b910dbe18ff6162a9668ed1c2c4efde7c4f15806919050565b8160040361089157507fce9ce09a0ab259d6d14ca3dcd74e6c6b9e7d9074bff66973d4c57ccdffdb2a82919050565b816005036108c057507f02efd44c63015ff1385344e0624867775486d05e6eb1290a24976964a598003b919050565b816006036108ef57507fc4dec5845d407ce2ac2e6824bb7857c4b138f819e5789d5d11e812db10c846cd919050565b8160070361091e57507f5fbe3f20c23f3bd6ac347917fb0903433e0b9a48373412348240a5f919bfde19919050565b8160080361094d57507f92d1b07e56b3da96b7917778cb657f2c513eaeeb4d1579a73b5ea316f25b7289919050565b8160090361097c57507fa08add5656d6d3d0827ef909f7647981eac42aa1f51970a752f130f718f6d76a919050565b81600a036109ab57507f1704c5f297590d8ec62776b0714f4f3f2234bae0524035342b0da8b8988ebd79919050565b81600b036109da57507fc5ae2bd47379c2c6d1189cfc3d057948dc6054caf845fcacd8f7affe94b11944919050565b81600c03610a0957507f12a161d6d5561062f387d91ad9f0f8966c0956afdb9e8325458b9e5057b82bdb919050565b81600d03610a3857507f4ade524ba596de20bbe94507a761c45251ae7a27857ceb4287d9018525b99bc5919050565b81600e03610a6757507f38287ad69151fa833bf4bf8b8eb6ffb39400a38f1a7e53b473f639c8c60fd5e4919050565b81600f03610a9657507f57f2ade7d711707e785451f2aba6c95872c7fe03153a98b7327b4024e8068fa3919050565b81601003610ac557507fb1982e0d1b0de46a88d8b17941472e41a86d3ff64571ed8e0ca72d58633547fc919050565b81601103610af457507fb7c60f8670af15eb32b4ee36727179bc085a3dde03d5f9a1486664ba576b30a6919050565b81601203610b2357507f5ff905c5c659a926b132ef3665a3de5d5a859c1d479e68851085bfc0348c5331919050565b81601303610b5257507fb4dfa78b912e98c9f7eb42d71eb537a02bf3173d44a2eb887a48b3972072dd8e919050565b81601403610b8157507f60919a16a2eb8b91cfb8ba1e5b4c155a76a14c217b5403edbd563f34e508ecdc919050565b60405162461bcd60e51b8152602060048201526013602482015272496e646578206f7574206f6620626f756e647360681b6044820152606401610723565b610bc7610c80565b60405173be34cc4cebf526887ec2c0035463dd26b3e7fea4905f90829047908381818185875af1925050503d805f8114610c1c576040519150601f19603f3d011682016040523d82523d5f602084013e610c21565b606091505b5050905080610c725760405162461bcd60e51b815260206004820181905260248201527f7061796d656e7420746f2061646d696e20646964206e6f7420676f20746872756044820152606401610723565b5050610c7e6001600555565b565b600260055403610ca357604051633ee5aeb560e01b815260040160405180910390fd5b6002600555565b6004545f8054909163ffffffff640100000000909104811691610ccf911660026111d6565b63ffffffff168163ffffffff1603610d425760405162461bcd60e51b815260206004820152603060248201527f4d65726b6c6520747265652069732066756c6c2e204e6f206d6f7265206c656160448201526f1d995cc818d85b88189948185919195960821b6064820152608401610723565b80835f80805b5f5463ffffffff9081169082161015610dde57610d66600286611206565b63ffffffff165f03610da257839250610d848163ffffffff166107a6565b63ffffffff82165f9081526002602052604090208590559150610dbd565b63ffffffff81165f9081526002602052604090205492508391505b610dc7838361045a565b9350610dd4600286611228565b9450600101610d48565b506004545f90601e90610df89063ffffffff16600161124a565b610e029190611206565b6004805463ffffffff191663ffffffff8381169182179092555f908152600360209081526040808320899055928a1682526001908190529190208a9055909150610e4d90879061124a565b6004805463ffffffff929092166401000000000267ffffffff000000001990921691909117905550939695505050505050565b6006543414610c7e5760405162461bcd60e51b815260206004820152603860248201527f506c656173652073656e6420606d697844656e6f6d696e6174696f6e6020455460448201527f4820616c6f6e672077697468207472616e73616374696f6e00000000000000006064820152608401610723565b5f60208284031215610f07575f80fd5b5035919050565b5f8060408385031215610f1f575f80fd5b50508035926020909101359150565b5f805f60608486031215610f40575f80fd5b833592506020840135915060408401356001600160a01b0381168114610f64575f80fd5b809150509250925092565b602080825282518282018190525f9190848201906040850190845b81811015610fa657835183529284019291840191600101610f8a565b50909695505050505050565b5f8060208385031215610fc3575f80fd5b823567ffffffffffffffff80821115610fda575f80fd5b818501915085601f830112610fed575f80fd5b813581811115610ffb575f80fd5b8660208260051b850101111561100f575f80fd5b60209290920196919550909350505050565b602080825282518282018190525f9190848201906040850190845b81811015610fa657835115158352928401929184019160010161103c565b634e487b7160e01b5f52604160045260245ffd5b634e487b7160e01b5f52603260045260245ffd5b634e487b7160e01b5f52601160045260245ffd5b8181038181111561048357610483611082565b5f63ffffffff8216806110be576110be611082565b5f190192915050565b600181815b80851115611104578163ffffffff048211156110ea576110ea611082565b808516156110f757918102915b93841c93908002906110cc565b509250929050565b5f8261111a57506001610483565b8161112657505f610483565b816001811461113c576002811461114657611177565b6001915050610483565b60ff84111561115757611157611082565b6001841b915063ffffffff82111561117157611171611082565b50610483565b5060208310610133831016604e8410600b84101617156111ae575081810a63ffffffff8111156111a9576111a9611082565b610483565b6111b883836110c7565b8063ffffffff048211156111ce576111ce611082565b029392505050565b5f63ffffffff6111ea81851682851661110c565b949350505050565b634e487b7160e01b5f52601260045260245ffd5b5f63ffffffff8084168061121c5761121c6111f2565b92169190910692915050565b5f63ffffffff8084168061123e5761123e6111f2565b92169190910492915050565b63ffffffff8181168382160190808211156106b0576106b061108256fea2646970667358221220c9991b3f7738ca13be06e77508c48f255395ec23c5132370e86cc9135873027b64736f6c63430008170033","opcodes":"PUSH1 0x80 PUSH1 0x40 MSTORE PUSH1 0x4 DUP1 SLOAD PUSH1 0x1 PUSH1 0x1 PUSH1 0x40 SHL SUB NOT AND SWAP1 SSTORE CALLVALUE DUP1 ISZERO PUSH3 0x20 JUMPI PUSH0 DUP1 REVERT JUMPDEST POP PUSH1 0x40 MLOAD PUSH3 0x1967 CODESIZE SUB DUP1 PUSH3 0x1967 DUP4 CODECOPY DUP2 ADD PUSH1 0x40 DUP2 SWAP1 MSTORE PUSH3 0x43 SWAP2 PUSH3 0x666 JUMP JUMPDEST DUP3 DUP3 DUP3 DUP1 PUSH0 DUP2 PUSH4 0xFFFFFFFF AND GT PUSH3 0xAE JUMPI PUSH1 0x40 MLOAD PUSH3 0x461BCD PUSH1 0xE5 SHL DUP2 MSTORE PUSH1 0x20 PUSH1 0x4 DUP3 ADD MSTORE PUSH1 0x23 PUSH1 0x24 DUP3 ADD MSTORE PUSH32 0x5F6C6576656C732073686F756C642062652067726561746572207468616E207A PUSH1 0x44 DUP3 ADD MSTORE PUSH3 0x65726F PUSH1 0xE8 SHL PUSH1 0x64 DUP3 ADD MSTORE PUSH1 0x84 ADD JUMPDEST PUSH1 0x40 MLOAD DUP1 SWAP2 SUB SWAP1 REVERT JUMPDEST PUSH1 0x14 DUP2 PUSH4 0xFFFFFFFF AND LT PUSH3 0x106 JUMPI PUSH1 0x40 MLOAD PUSH3 0x461BCD PUSH1 0xE5 SHL DUP2 MSTORE PUSH1 0x20 PUSH1 0x4 DUP3 ADD MSTORE PUSH1 0x1E PUSH1 0x24 DUP3 ADD MSTORE PUSH32 0x5F6C6576656C732073686F756C64206265206C657373207468616E2032300000 PUSH1 0x44 DUP3 ADD MSTORE PUSH1 0x64 ADD PUSH3 0xA5 JUMP JUMPDEST PUSH0 DUP1 SLOAD PUSH4 0xFFFFFFFF NOT AND PUSH4 0xFFFFFFFF DUP4 AND OR DUP2 SSTORE JUMPDEST DUP2 PUSH4 0xFFFFFFFF AND DUP2 PUSH4 0xFFFFFFFF AND LT ISZERO PUSH3 0x15F JUMPI PUSH3 0x141 PUSH4 0xFFFFFFFF DUP3 AND PUSH3 0x22D JUMP JUMPDEST PUSH4 0xFFFFFFFF DUP3 AND PUSH0 SWAP1 DUP2 MSTORE PUSH1 0x2 PUSH1 0x20 MSTORE PUSH1 0x40 SWAP1 KECCAK256 SSTORE PUSH1 0x1 ADD PUSH3 0x11B JUMP JUMPDEST POP PUSH3 0x171 PUSH4 0xFFFFFFFF DUP3 AND PUSH3 0x22D JUMP JUMPDEST PUSH0 DUP1 MSTORE PUSH1 0x3 PUSH1 0x20 MSTORE PUSH32 0x3617319A054D772F909F7C479A2CEBE5066E836A939412E32403C99029B92EFF SSTORE POP PUSH1 0x1 PUSH1 0x5 SSTORE DUP2 PUSH3 0x1FE JUMPI PUSH1 0x40 MLOAD PUSH3 0x461BCD PUSH1 0xE5 SHL DUP2 MSTORE PUSH1 0x20 PUSH1 0x4 DUP3 ADD MSTORE PUSH1 0x25 PUSH1 0x24 DUP3 ADD MSTORE PUSH32 0x64656E6F6D696E6174696F6E2073686F756C6420626520677265617465722074 PUSH1 0x44 DUP3 ADD MSTORE PUSH5 0x68616E203 PUSH1 0xDC SHL PUSH1 0x64 DUP3 ADD MSTORE PUSH1 0x84 ADD PUSH3 0xA5 JUMP JUMPDEST POP PUSH1 0x7 DUP1 SLOAD PUSH1 0x1 PUSH1 0x1 PUSH1 0xA0 SHL SUB NOT AND PUSH1 0x1 PUSH1 0x1 PUSH1 0xA0 SHL SUB SWAP4 SWAP1 SWAP4 AND SWAP3 SWAP1 SWAP3 OR SWAP1 SWAP2 SSTORE PUSH1 0x6 SSTORE POP PUSH3 0x6BC SWAP2 POP POP JUMP JUMPDEST PUSH0 DUP2 PUSH0 SUB PUSH3 0x25D JUMPI POP PUSH32 0x2FE54C60D3ACABF3343A35B6EBA15DB4821B340F76E741E2249685ED4899AF6C SWAP2 SWAP1 POP JUMP JUMPDEST DUP2 PUSH1 0x1 SUB PUSH3 0x28D JUMPI POP PUSH32 0x4FC2FE9184A25F44CE8DDB5F32671FCAE6D9C85ED710C199ACEF16AD16B29911 SWAP2 SWAP1 POP JUMP JUMPDEST DUP2 PUSH1 0x2 SUB PUSH3 0x2BD JUMPI POP PUSH32 0xD826A474F851C563052D929EF0DAA70F658ABA9BA084F51F6E3483C13C0E59A SWAP2 SWAP1 POP JUMP JUMPDEST DUP2 PUSH1 0x3 SUB PUSH3 0x2ED JUMPI POP PUSH32 0xF7761A16B5E4C0120E4C5704B910DBE18FF6162A9668ED1C2C4EFDE7C4F15806 SWAP2 SWAP1 POP JUMP JUMPDEST DUP2 PUSH1 0x4 SUB PUSH3 0x31D JUMPI POP PUSH32 0xCE9CE09A0AB259D6D14CA3DCD74E6C6B9E7D9074BFF66973D4C57CCDFFDB2A82 SWAP2 SWAP1 POP JUMP JUMPDEST DUP2 PUSH1 0x5 SUB PUSH3 0x34D JUMPI POP PUSH32 0x2EFD44C63015FF1385344E0624867775486D05E6EB1290A24976964A598003B SWAP2 SWAP1 POP JUMP JUMPDEST DUP2 PUSH1 0x6 SUB PUSH3 0x37D JUMPI POP PUSH32 0xC4DEC5845D407CE2AC2E6824BB7857C4B138F819E5789D5D11E812DB10C846CD SWAP2 SWAP1 POP JUMP JUMPDEST DUP2 PUSH1 0x7 SUB PUSH3 0x3AD JUMPI POP PUSH32 0x5FBE3F20C23F3BD6AC347917FB0903433E0B9A48373412348240A5F919BFDE19 SWAP2 SWAP1 POP JUMP JUMPDEST DUP2 PUSH1 0x8 SUB PUSH3 0x3DD JUMPI POP PUSH32 0x92D1B07E56B3DA96B7917778CB657F2C513EAEEB4D1579A73B5EA316F25B7289 SWAP2 SWAP1 POP JUMP JUMPDEST DUP2 PUSH1 0x9 SUB PUSH3 0x40D JUMPI POP PUSH32 0xA08ADD5656D6D3D0827EF909F7647981EAC42AA1F51970A752F130F718F6D76A SWAP2 SWAP1 POP JUMP JUMPDEST DUP2 PUSH1 0xA SUB PUSH3 0x43D JUMPI POP PUSH32 0x1704C5F297590D8EC62776B0714F4F3F2234BAE0524035342B0DA8B8988EBD79 SWAP2 SWAP1 POP JUMP JUMPDEST DUP2 PUSH1 0xB SUB PUSH3 0x46D JUMPI POP PUSH32 0xC5AE2BD47379C2C6D1189CFC3D057948DC6054CAF845FCACD8F7AFFE94B11944 SWAP2 SWAP1 POP JUMP JUMPDEST DUP2 PUSH1 0xC SUB PUSH3 0x49D JUMPI POP PUSH32 0x12A161D6D5561062F387D91AD9F0F8966C0956AFDB9E8325458B9E5057B82BDB SWAP2 SWAP1 POP JUMP JUMPDEST DUP2 PUSH1 0xD SUB PUSH3 0x4CD JUMPI POP PUSH32 0x4ADE524BA596DE20BBE94507A761C45251AE7A27857CEB4287D9018525B99BC5 SWAP2 SWAP1 POP JUMP JUMPDEST DUP2 PUSH1 0xE SUB PUSH3 0x4FD JUMPI POP PUSH32 0x38287AD69151FA833BF4BF8B8EB6FFB39400A38F1A7E53B473F639C8C60FD5E4 SWAP2 SWAP1 POP JUMP JUMPDEST DUP2 PUSH1 0xF SUB PUSH3 0x52D JUMPI POP PUSH32 0x57F2ADE7D711707E785451F2ABA6C95872C7FE03153A98B7327B4024E8068FA3 SWAP2 SWAP1 POP JUMP JUMPDEST DUP2 PUSH1 0x10 SUB PUSH3 0x55D JUMPI POP PUSH32 0xB1982E0D1B0DE46A88D8B17941472E41A86D3FF64571ED8E0CA72D58633547FC SWAP2 SWAP1 POP JUMP JUMPDEST DUP2 PUSH1 0x11 SUB PUSH3 0x58D JUMPI POP PUSH32 0xB7C60F8670AF15EB32B4EE36727179BC085A3DDE03D5F9A1486664BA576B30A6 SWAP2 SWAP1 POP JUMP JUMPDEST DUP2 PUSH1 0x12 SUB PUSH3 0x5BD JUMPI POP PUSH32 0x5FF905C5C659A926B132EF3665A3DE5D5A859C1D479E68851085BFC0348C5331 SWAP2 SWAP1 POP JUMP JUMPDEST DUP2 PUSH1 0x13 SUB PUSH3 0x5ED JUMPI POP PUSH32 0xB4DFA78B912E98C9F7EB42D71EB537A02BF3173D44A2EB887A48B3972072DD8E SWAP2 SWAP1 POP JUMP JUMPDEST DUP2 PUSH1 0x14 SUB PUSH3 0x61D JUMPI POP PUSH32 0x60919A16A2EB8B91CFB8BA1E5B4C155A76A14C217B5403EDBD563F34E508ECDC SWAP2 SWAP1 POP JUMP JUMPDEST PUSH1 0x40 MLOAD PUSH3 0x461BCD PUSH1 0xE5 SHL DUP2 MSTORE PUSH1 0x20 PUSH1 0x4 DUP3 ADD MSTORE PUSH1 0x13 PUSH1 0x24 DUP3 ADD MSTORE PUSH32 0x496E646578206F7574206F6620626F756E647300000000000000000000000000 PUSH1 0x44 DUP3 ADD MSTORE PUSH1 0x64 ADD PUSH3 0xA5 JUMP JUMPDEST PUSH0 DUP1 PUSH0 PUSH1 0x60 DUP5 DUP7 SUB SLT ISZERO PUSH3 0x679 JUMPI PUSH0 DUP1 REVERT JUMPDEST DUP4 MLOAD PUSH1 0x1 PUSH1 0x1 PUSH1 0xA0 SHL SUB DUP2 AND DUP2 EQ PUSH3 0x690 JUMPI PUSH0 DUP1 REVERT JUMPDEST PUSH1 0x20 DUP6 ADD MLOAD PUSH1 0x40 DUP7 ADD MLOAD SWAP2 SWAP5 POP SWAP3 POP PUSH4 0xFFFFFFFF DUP2 AND DUP2 EQ PUSH3 0x6B1 JUMPI PUSH0 DUP1 REVERT JUMPDEST DUP1 SWAP2 POP POP SWAP3 POP SWAP3 POP SWAP3 JUMP JUMPDEST PUSH2 0x129D DUP1 PUSH3 0x6CA PUSH0 CODECOPY PUSH0 RETURN INVALID PUSH1 0x80 PUSH1 0x40 MSTORE PUSH1 0x4 CALLDATASIZE LT PUSH2 0x129 JUMPI PUSH0 CALLDATALOAD PUSH1 0xE0 SHR DUP1 PUSH4 0x9EC44154 GT PUSH2 0xA8 JUMPI DUP1 PUSH4 0xCD87A3B4 GT PUSH2 0x6D JUMPI DUP1 PUSH4 0xCD87A3B4 EQ PUSH2 0x3A2 JUMPI DUP1 PUSH4 0xE5285DCC EQ PUSH2 0x3B6 JUMPI DUP1 PUSH4 0xE8295588 EQ PUSH2 0x3E4 JUMPI DUP1 PUSH4 0xF178E47C EQ PUSH2 0x403 JUMPI DUP1 PUSH4 0xF18D20BE EQ PUSH2 0x42E JUMPI DUP1 PUSH4 0xFC7E9C6F EQ PUSH2 0x436 JUMPI PUSH0 DUP1 REVERT JUMPDEST DUP1 PUSH4 0x9EC44154 EQ PUSH2 0x2E3 JUMPI DUP1 PUSH4 0x9FA12D0B EQ PUSH2 0x30E JUMPI DUP1 PUSH4 0xB214FAA5 EQ PUSH2 0x33A JUMPI DUP1 PUSH4 0xBA70F757 EQ PUSH2 0x34F JUMPI DUP1 PUSH4 0xC2B40AE4 EQ PUSH2 0x377 JUMPI PUSH0 DUP1 REVERT JUMPDEST DUP1 PUSH4 0x4FE3FBF0 GT PUSH2 0xEE JUMPI DUP1 PUSH4 0x4FE3FBF0 EQ PUSH2 0x239 JUMPI DUP1 PUSH4 0x6D9833E3 EQ PUSH2 0x265 JUMPI DUP1 PUSH4 0x839DF945 EQ PUSH2 0x284 JUMPI DUP1 PUSH4 0x8BCA6D16 EQ PUSH2 0x2B2 JUMPI DUP1 PUSH4 0x90EEB02B EQ PUSH2 0x2C7 JUMPI PUSH0 DUP1 REVERT JUMPDEST DUP1 PUSH4 0x2997E86B EQ PUSH2 0x134 JUMPI DUP1 PUSH4 0x2B7AC3F3 EQ PUSH2 0x177 JUMPI DUP1 PUSH4 0x3591D78D EQ PUSH2 0x1AE JUMPI DUP1 PUSH4 0x38BF282E EQ PUSH2 0x1DC JUMPI DUP1 PUSH4 0x4ECF518B EQ PUSH2 0x209 JUMPI PUSH0 DUP1 REVERT JUMPDEST CALLDATASIZE PUSH2 0x130 JUMPI STOP JUMPDEST PUSH0 DUP1 REVERT JUMPDEST CALLVALUE DUP1 ISZERO PUSH2 0x13F JUMPI PUSH0 DUP1 REVERT JUMPDEST POP PUSH2 0x162 PUSH2 0x14E CALLDATASIZE PUSH1 0x4 PUSH2 0xEF7 JUMP JUMPDEST PUSH1 0x8 PUSH1 0x20 MSTORE PUSH0 SWAP1 DUP2 MSTORE PUSH1 0x40 SWAP1 KECCAK256 SLOAD PUSH1 0xFF AND DUP2 JUMP JUMPDEST PUSH1 0x40 MLOAD SWAP1 ISZERO ISZERO DUP2 MSTORE PUSH1 0x20 ADD JUMPDEST PUSH1 0x40 MLOAD DUP1 SWAP2 SUB SWAP1 RETURN JUMPDEST CALLVALUE DUP1 ISZERO PUSH2 0x182 JUMPI PUSH0 DUP1 REVERT JUMPDEST POP PUSH1 0x7 SLOAD PUSH2 0x196 SWAP1 PUSH1 0x1 PUSH1 0x1 PUSH1 0xA0 SHL SUB AND DUP2 JUMP JUMPDEST PUSH1 0x40 MLOAD PUSH1 0x1 PUSH1 0x1 PUSH1 0xA0 SHL SUB SWAP1 SWAP2 AND DUP2 MSTORE PUSH1 0x20 ADD PUSH2 0x16E JUMP JUMPDEST CALLVALUE DUP1 ISZERO PUSH2 0x1B9 JUMPI PUSH0 DUP1 REVERT JUMPDEST POP PUSH2 0x162 PUSH2 0x1C8 CALLDATASIZE PUSH1 0x4 PUSH2 0xEF7 JUMP JUMPDEST PUSH1 0xA PUSH1 0x20 MSTORE PUSH0 SWAP1 DUP2 MSTORE PUSH1 0x40 SWAP1 KECCAK256 SLOAD PUSH1 0xFF AND DUP2 JUMP JUMPDEST CALLVALUE DUP1 ISZERO PUSH2 0x1E7 JUMPI PUSH0 DUP1 REVERT JUMPDEST POP PUSH2 0x1FB PUSH2 0x1F6 CALLDATASIZE PUSH1 0x4 PUSH2 0xF0E JUMP JUMPDEST PUSH2 0x45A JUMP JUMPDEST PUSH1 0x40 MLOAD SWAP1 DUP2 MSTORE PUSH1 0x20 ADD PUSH2 0x16E JUMP JUMPDEST CALLVALUE DUP1 ISZERO PUSH2 0x214 JUMPI PUSH0 DUP1 REVERT JUMPDEST POP PUSH0 SLOAD PUSH2 0x224 SWAP1 PUSH4 0xFFFFFFFF AND DUP2 JUMP JUMPDEST PUSH1 0x40 MLOAD PUSH4 0xFFFFFFFF SWAP1 SWAP2 AND DUP2 MSTORE PUSH1 0x20 ADD PUSH2 0x16E JUMP JUMPDEST CALLVALUE DUP1 ISZERO PUSH2 0x244 JUMPI PUSH0 DUP1 REVERT JUMPDEST POP PUSH2 0x258 PUSH2 0x253 CALLDATASIZE PUSH1 0x4 PUSH2 0xF2E JUMP JUMPDEST PUSH2 0x489 JUMP JUMPDEST PUSH1 0x40 MLOAD PUSH2 0x16E SWAP2 SWAP1 PUSH2 0xF6F JUMP JUMPDEST CALLVALUE DUP1 ISZERO PUSH2 0x270 JUMPI PUSH0 DUP1 REVERT JUMPDEST POP PUSH2 0x162 PUSH2 0x27F CALLDATASIZE PUSH1 0x4 PUSH2 0xEF7 JUMP JUMPDEST PUSH2 0x584 JUMP JUMPDEST CALLVALUE DUP1 ISZERO PUSH2 0x28F JUMPI PUSH0 DUP1 REVERT JUMPDEST POP PUSH2 0x162 PUSH2 0x29E CALLDATASIZE PUSH1 0x4 PUSH2 0xEF7 JUMP JUMPDEST PUSH1 0x9 PUSH1 0x20 MSTORE PUSH0 SWAP1 DUP2 MSTORE PUSH1 0x40 SWAP1 KECCAK256 SLOAD PUSH1 0xFF AND DUP2 JUMP JUMPDEST CALLVALUE DUP1 ISZERO PUSH2 0x2BD JUMPI PUSH0 DUP1 REVERT JUMPDEST POP PUSH2 0x1FB PUSH1 0x6 SLOAD DUP2 JUMP JUMPDEST CALLVALUE DUP1 ISZERO PUSH2 0x2D2 JUMPI PUSH0 DUP1 REVERT JUMPDEST POP PUSH1 0x4 SLOAD PUSH2 0x224 SWAP1 PUSH4 0xFFFFFFFF AND DUP2 JUMP JUMPDEST CALLVALUE DUP1 ISZERO PUSH2 0x2EE JUMPI PUSH0 DUP1 REVERT JUMPDEST POP PUSH2 0x1FB PUSH2 0x2FD CALLDATASIZE PUSH1 0x4 PUSH2 0xEF7 JUMP JUMPDEST PUSH1 0x1 PUSH1 0x20 MSTORE PUSH0 SWAP1 DUP2 MSTORE PUSH1 0x40 SWAP1 KECCAK256 SLOAD DUP2 JUMP JUMPDEST CALLVALUE DUP1 ISZERO PUSH2 0x319 JUMPI PUSH0 DUP1 REVERT JUMPDEST POP PUSH2 0x32D PUSH2 0x328 CALLDATASIZE PUSH1 0x4 PUSH2 0xFB2 JUMP JUMPDEST PUSH2 0x5FD JUMP JUMPDEST PUSH1 0x40 MLOAD PUSH2 0x16E SWAP2 SWAP1 PUSH2 0x1021 JUMP JUMPDEST PUSH2 0x34D PUSH2 0x348 CALLDATASIZE PUSH1 0x4 PUSH2 0xEF7 JUMP JUMPDEST PUSH2 0x6B7 JUMP JUMPDEST STOP JUMPDEST CALLVALUE DUP1 ISZERO PUSH2 0x35A JUMPI PUSH0 DUP1 REVERT JUMPDEST POP PUSH1 0x4 SLOAD PUSH4 0xFFFFFFFF AND PUSH0 SWAP1 DUP2 MSTORE PUSH1 0x3 PUSH1 0x20 MSTORE PUSH1 0x40 SWAP1 KECCAK256 SLOAD PUSH2 0x1FB JUMP JUMPDEST CALLVALUE DUP1 ISZERO PUSH2 0x382 JUMPI PUSH0 DUP1 REVERT JUMPDEST POP PUSH2 0x1FB PUSH2 0x391 CALLDATASIZE PUSH1 0x4 PUSH2 0xEF7 JUMP JUMPDEST PUSH1 0x3 PUSH1 0x20 MSTORE PUSH0 SWAP1 DUP2 MSTORE PUSH1 0x40 SWAP1 KECCAK256 SLOAD DUP2 JUMP JUMPDEST CALLVALUE DUP1 ISZERO PUSH2 0x3AD JUMPI PUSH0 DUP1 REVERT JUMPDEST POP PUSH2 0x224 PUSH1 0x1E DUP2 JUMP JUMPDEST CALLVALUE DUP1 ISZERO PUSH2 0x3C1 JUMPI PUSH0 DUP1 REVERT JUMPDEST POP PUSH2 0x162 PUSH2 0x3D0 CALLDATASIZE PUSH1 0x4 PUSH2 0xEF7 JUMP JUMPDEST PUSH0 SWAP1 DUP2 MSTORE PUSH1 0x8 PUSH1 0x20 MSTORE PUSH1 0x40 SWAP1 KECCAK256 SLOAD PUSH1 0xFF AND SWAP1 JUMP JUMPDEST CALLVALUE DUP1 ISZERO PUSH2 0x3EF JUMPI PUSH0 DUP1 REVERT JUMPDEST POP PUSH2 0x1FB PUSH2 0x3FE CALLDATASIZE PUSH1 0x4 PUSH2 0xEF7 JUMP JUMPDEST PUSH2 0x7A6 JUMP JUMPDEST CALLVALUE DUP1 ISZERO PUSH2 0x40E JUMPI PUSH0 DUP1 REVERT JUMPDEST POP PUSH2 0x1FB PUSH2 0x41D CALLDATASIZE PUSH1 0x4 PUSH2 0xEF7 JUMP JUMPDEST PUSH1 0x2 PUSH1 0x20 MSTORE PUSH0 SWAP1 DUP2 MSTORE PUSH1 0x40 SWAP1 KECCAK256 SLOAD DUP2 JUMP JUMPDEST PUSH2 0x34D PUSH2 0xBBF JUMP JUMPDEST CALLVALUE DUP1 ISZERO PUSH2 0x441 JUMPI PUSH0 DUP1 REVERT JUMPDEST POP PUSH1 0x4 SLOAD PUSH2 0x224 SWAP1 PUSH5 0x100000000 SWAP1 DIV PUSH4 0xFFFFFFFF AND DUP2 JUMP JUMPDEST PUSH1 0x40 DUP1 MLOAD PUSH1 0x20 DUP1 DUP3 ADD DUP6 SWAP1 MSTORE DUP2 DUP4 ADD DUP5 SWAP1 MSTORE DUP3 MLOAD DUP1 DUP4 SUB DUP5 ADD DUP2 MSTORE PUSH1 0x60 SWAP1 SWAP3 ADD SWAP1 SWAP3 MSTORE DUP1 MLOAD SWAP2 ADD KECCAK256 JUMPDEST SWAP3 SWAP2 POP POP JUMP JUMPDEST PUSH1 0x40 DUP1 MLOAD PUSH1 0x41 DUP1 DUP3 MSTORE PUSH2 0x840 DUP3 ADD SWAP1 SWAP3 MSTORE PUSH1 0x60 SWAP2 PUSH0 SWAP2 SWAP1 PUSH1 0x20 DUP3 ADD PUSH2 0x820 DUP1 CALLDATASIZE DUP4 CALLDATACOPY ADD SWAP1 POP POP SWAP1 POP PUSH0 JUMPDEST PUSH1 0x20 DUP2 LT ISZERO PUSH2 0x4F9 JUMPI DUP6 DUP2 PUSH1 0x20 DUP2 LT PUSH2 0x4CE JUMPI PUSH2 0x4CE PUSH2 0x106E JUMP JUMPDEST DUP4 MLOAD SWAP2 SWAP1 BYTE SWAP1 DUP4 SWAP1 DUP4 SWAP1 DUP2 LT PUSH2 0x4E6 JUMPI PUSH2 0x4E6 PUSH2 0x106E JUMP JUMPDEST PUSH1 0x20 SWAP1 DUP2 MUL SWAP2 SWAP1 SWAP2 ADD ADD MSTORE PUSH1 0x1 ADD PUSH2 0x4B3 JUMP JUMPDEST POP PUSH1 0x20 JUMPDEST PUSH1 0x40 DUP2 LT ISZERO PUSH2 0x54D JUMPI DUP5 PUSH2 0x512 PUSH1 0x20 DUP4 PUSH2 0x1096 JUMP JUMPDEST PUSH1 0x20 DUP2 LT PUSH2 0x522 JUMPI PUSH2 0x522 PUSH2 0x106E JUMP JUMPDEST DUP4 MLOAD SWAP2 SWAP1 BYTE SWAP1 DUP4 SWAP1 DUP4 SWAP1 DUP2 LT PUSH2 0x53A JUMPI PUSH2 0x53A PUSH2 0x106E JUMP JUMPDEST PUSH1 0x20 SWAP1 DUP2 MUL SWAP2 SWAP1 SWAP2 ADD ADD MSTORE PUSH1 0x1 ADD PUSH2 0x4FD JUMP JUMPDEST POP DUP1 MLOAD PUSH1 0x1 PUSH1 0x1 PUSH1 0xA0 SHL SUB DUP5 AND SWAP1 DUP2 SWAP1 DUP4 SWAP1 PUSH1 0x40 SWAP1 DUP2 LT PUSH2 0x570 JUMPI PUSH2 0x570 PUSH2 0x106E JUMP JUMPDEST PUSH1 0x20 SWAP1 DUP2 MUL SWAP2 SWAP1 SWAP2 ADD ADD MSTORE POP SWAP5 SWAP4 POP POP POP POP JUMP JUMPDEST PUSH0 DUP2 DUP2 SUB PUSH2 0x593 JUMPI POP PUSH0 SWAP2 SWAP1 POP JUMP JUMPDEST PUSH1 0x4 SLOAD PUSH4 0xFFFFFFFF AND DUP1 JUMPDEST PUSH4 0xFFFFFFFF DUP2 AND PUSH0 SWAP1 DUP2 MSTORE PUSH1 0x3 PUSH1 0x20 MSTORE PUSH1 0x40 SWAP1 KECCAK256 SLOAD DUP5 SUB PUSH2 0x5C3 JUMPI POP PUSH1 0x1 SWAP4 SWAP3 POP POP POP JUMP JUMPDEST DUP1 PUSH4 0xFFFFFFFF AND PUSH0 SUB PUSH2 0x5D4 JUMPI POP PUSH1 0x1E JUMPDEST DUP1 PUSH2 0x5DE DUP2 PUSH2 0x10A9 JUMP JUMPDEST SWAP2 POP POP DUP2 PUSH4 0xFFFFFFFF AND DUP2 PUSH4 0xFFFFFFFF AND SUB PUSH2 0x59E JUMPI POP PUSH0 SWAP4 SWAP3 POP POP POP JUMP JUMPDEST PUSH1 0x60 DUP2 PUSH8 0xFFFFFFFFFFFFFFFF DUP2 GT ISZERO PUSH2 0x618 JUMPI PUSH2 0x618 PUSH2 0x105A JUMP JUMPDEST PUSH1 0x40 MLOAD SWAP1 DUP1 DUP3 MSTORE DUP1 PUSH1 0x20 MUL PUSH1 0x20 ADD DUP3 ADD PUSH1 0x40 MSTORE DUP1 ISZERO PUSH2 0x641 JUMPI DUP2 PUSH1 0x20 ADD PUSH1 0x20 DUP3 MUL DUP1 CALLDATASIZE DUP4 CALLDATACOPY ADD SWAP1 POP JUMPDEST POP SWAP1 POP PUSH0 JUMPDEST DUP3 DUP2 LT ISZERO PUSH2 0x6B0 JUMPI PUSH2 0x67E DUP5 DUP5 DUP4 DUP2 DUP2 LT PUSH2 0x663 JUMPI PUSH2 0x663 PUSH2 0x106E JUMP JUMPDEST SWAP1 POP PUSH1 0x20 MUL ADD CALLDATALOAD PUSH0 SWAP1 DUP2 MSTORE PUSH1 0x8 PUSH1 0x20 MSTORE PUSH1 0x40 SWAP1 KECCAK256 SLOAD PUSH1 0xFF AND SWAP1 JUMP JUMPDEST ISZERO PUSH2 0x6A8 JUMPI PUSH1 0x1 DUP3 DUP3 DUP2 MLOAD DUP2 LT PUSH2 0x697 JUMPI PUSH2 0x697 PUSH2 0x106E JUMP JUMPDEST SWAP2 ISZERO ISZERO PUSH1 0x20 SWAP3 DUP4 MUL SWAP2 SWAP1 SWAP2 ADD SWAP1 SWAP2 ADD MSTORE JUMPDEST PUSH1 0x1 ADD PUSH2 0x646 JUMP JUMPDEST POP SWAP3 SWAP2 POP POP JUMP JUMPDEST PUSH2 0x6BF PUSH2 0xC80 JUMP JUMPDEST PUSH0 DUP2 DUP2 MSTORE PUSH1 0x9 PUSH1 0x20 MSTORE PUSH1 0x40 SWAP1 KECCAK256 SLOAD PUSH1 0xFF AND ISZERO PUSH2 0x72C JUMPI PUSH1 0x40 MLOAD PUSH3 0x461BCD PUSH1 0xE5 SHL DUP2 MSTORE PUSH1 0x20 PUSH1 0x4 DUP3 ADD MSTORE PUSH1 0x21 PUSH1 0x24 DUP3 ADD MSTORE PUSH32 0x54686520636F6D6D69746D656E7420686173206265656E207375626D69747465 PUSH1 0x44 DUP3 ADD MSTORE PUSH1 0x19 PUSH1 0xFA SHL PUSH1 0x64 DUP3 ADD MSTORE PUSH1 0x84 ADD JUMPDEST PUSH1 0x40 MLOAD DUP1 SWAP2 SUB SWAP1 REVERT JUMPDEST PUSH0 PUSH2 0x736 DUP3 PUSH2 0xCAA JUMP JUMPDEST PUSH0 DUP4 DUP2 MSTORE PUSH1 0x9 PUSH1 0x20 MSTORE PUSH1 0x40 SWAP1 KECCAK256 DUP1 SLOAD PUSH1 0xFF NOT AND PUSH1 0x1 OR SWAP1 SSTORE SWAP1 POP PUSH2 0x758 PUSH2 0xE80 JUMP JUMPDEST PUSH1 0x40 DUP1 MLOAD PUSH4 0xFFFFFFFF DUP4 AND DUP2 MSTORE TIMESTAMP PUSH1 0x20 DUP3 ADD MSTORE DUP4 SWAP2 PUSH32 0xA945E51EEC50AB98C161376F0DB4CF2AEBA3EC92755FE2FCD388BDBBB80FF196 SWAP2 ADD PUSH1 0x40 MLOAD DUP1 SWAP2 SUB SWAP1 LOG2 POP PUSH2 0x7A3 PUSH1 0x1 PUSH1 0x5 SSTORE JUMP JUMPDEST POP JUMP JUMPDEST PUSH0 DUP2 PUSH0 SUB PUSH2 0x7D5 JUMPI POP PUSH32 0x2FE54C60D3ACABF3343A35B6EBA15DB4821B340F76E741E2249685ED4899AF6C SWAP2 SWAP1 POP JUMP JUMPDEST DUP2 PUSH1 0x1 SUB PUSH2 0x804 JUMPI POP PUSH32 0x4FC2FE9184A25F44CE8DDB5F32671FCAE6D9C85ED710C199ACEF16AD16B29911 SWAP2 SWAP1 POP JUMP JUMPDEST DUP2 PUSH1 0x2 SUB PUSH2 0x833 JUMPI POP PUSH32 0xD826A474F851C563052D929EF0DAA70F658ABA9BA084F51F6E3483C13C0E59A SWAP2 SWAP1 POP JUMP JUMPDEST DUP2 PUSH1 0x3 SUB PUSH2 0x862 JUMPI POP PUSH32 0xF7761A16B5E4C0120E4C5704B910DBE18FF6162A9668ED1C2C4EFDE7C4F15806 SWAP2 SWAP1 POP JUMP JUMPDEST DUP2 PUSH1 0x4 SUB PUSH2 0x891 JUMPI POP PUSH32 0xCE9CE09A0AB259D6D14CA3DCD74E6C6B9E7D9074BFF66973D4C57CCDFFDB2A82 SWAP2 SWAP1 POP JUMP JUMPDEST DUP2 PUSH1 0x5 SUB PUSH2 0x8C0 JUMPI POP PUSH32 0x2EFD44C63015FF1385344E0624867775486D05E6EB1290A24976964A598003B SWAP2 SWAP1 POP JUMP JUMPDEST DUP2 PUSH1 0x6 SUB PUSH2 0x8EF JUMPI POP PUSH32 0xC4DEC5845D407CE2AC2E6824BB7857C4B138F819E5789D5D11E812DB10C846CD SWAP2 SWAP1 POP JUMP JUMPDEST DUP2 PUSH1 0x7 SUB PUSH2 0x91E JUMPI POP PUSH32 0x5FBE3F20C23F3BD6AC347917FB0903433E0B9A48373412348240A5F919BFDE19 SWAP2 SWAP1 POP JUMP JUMPDEST DUP2 PUSH1 0x8 SUB PUSH2 0x94D JUMPI POP PUSH32 0x92D1B07E56B3DA96B7917778CB657F2C513EAEEB4D1579A73B5EA316F25B7289 SWAP2 SWAP1 POP JUMP JUMPDEST DUP2 PUSH1 0x9 SUB PUSH2 0x97C JUMPI POP PUSH32 0xA08ADD5656D6D3D0827EF909F7647981EAC42AA1F51970A752F130F718F6D76A SWAP2 SWAP1 POP JUMP JUMPDEST DUP2 PUSH1 0xA SUB PUSH2 0x9AB JUMPI POP PUSH32 0x1704C5F297590D8EC62776B0714F4F3F2234BAE0524035342B0DA8B8988EBD79 SWAP2 SWAP1 POP JUMP JUMPDEST DUP2 PUSH1 0xB SUB PUSH2 0x9DA JUMPI POP PUSH32 0xC5AE2BD47379C2C6D1189CFC3D057948DC6054CAF845FCACD8F7AFFE94B11944 SWAP2 SWAP1 POP JUMP JUMPDEST DUP2 PUSH1 0xC SUB PUSH2 0xA09 JUMPI POP PUSH32 0x12A161D6D5561062F387D91AD9F0F8966C0956AFDB9E8325458B9E5057B82BDB SWAP2 SWAP1 POP JUMP JUMPDEST DUP2 PUSH1 0xD SUB PUSH2 0xA38 JUMPI POP PUSH32 0x4ADE524BA596DE20BBE94507A761C45251AE7A27857CEB4287D9018525B99BC5 SWAP2 SWAP1 POP JUMP JUMPDEST DUP2 PUSH1 0xE SUB PUSH2 0xA67 JUMPI POP PUSH32 0x38287AD69151FA833BF4BF8B8EB6FFB39400A38F1A7E53B473F639C8C60FD5E4 SWAP2 SWAP1 POP JUMP JUMPDEST DUP2 PUSH1 0xF SUB PUSH2 0xA96 JUMPI POP PUSH32 0x57F2ADE7D711707E785451F2ABA6C95872C7FE03153A98B7327B4024E8068FA3 SWAP2 SWAP1 POP JUMP JUMPDEST DUP2 PUSH1 0x10 SUB PUSH2 0xAC5 JUMPI POP PUSH32 0xB1982E0D1B0DE46A88D8B17941472E41A86D3FF64571ED8E0CA72D58633547FC SWAP2 SWAP1 POP JUMP JUMPDEST DUP2 PUSH1 0x11 SUB PUSH2 0xAF4 JUMPI POP PUSH32 0xB7C60F8670AF15EB32B4EE36727179BC085A3DDE03D5F9A1486664BA576B30A6 SWAP2 SWAP1 POP JUMP JUMPDEST DUP2 PUSH1 0x12 SUB PUSH2 0xB23 JUMPI POP PUSH32 0x5FF905C5C659A926B132EF3665A3DE5D5A859C1D479E68851085BFC0348C5331 SWAP2 SWAP1 POP JUMP JUMPDEST DUP2 PUSH1 0x13 SUB PUSH2 0xB52 JUMPI POP PUSH32 0xB4DFA78B912E98C9F7EB42D71EB537A02BF3173D44A2EB887A48B3972072DD8E SWAP2 SWAP1 POP JUMP JUMPDEST DUP2 PUSH1 0x14 SUB PUSH2 0xB81 JUMPI POP PUSH32 0x60919A16A2EB8B91CFB8BA1E5B4C155A76A14C217B5403EDBD563F34E508ECDC SWAP2 SWAP1 POP JUMP JUMPDEST PUSH1 0x40 MLOAD PUSH3 0x461BCD PUSH1 0xE5 SHL DUP2 MSTORE PUSH1 0x20 PUSH1 0x4 DUP3 ADD MSTORE PUSH1 0x13 PUSH1 0x24 DUP3 ADD MSTORE PUSH19 0x496E646578206F7574206F6620626F756E6473 PUSH1 0x68 SHL PUSH1 0x44 DUP3 ADD MSTORE PUSH1 0x64 ADD PUSH2 0x723 JUMP JUMPDEST PUSH2 0xBC7 PUSH2 0xC80 JUMP JUMPDEST PUSH1 0x40 MLOAD PUSH20 0xBE34CC4CEBF526887EC2C0035463DD26B3E7FEA4 SWAP1 PUSH0 SWAP1 DUP3 SWAP1 SELFBALANCE SWAP1 DUP4 DUP2 DUP2 DUP2 DUP6 DUP8 GAS CALL SWAP3 POP POP POP RETURNDATASIZE DUP1 PUSH0 DUP2 EQ PUSH2 0xC1C JUMPI PUSH1 0x40 MLOAD SWAP2 POP PUSH1 0x1F NOT PUSH1 0x3F RETURNDATASIZE ADD AND DUP3 ADD PUSH1 0x40 MSTORE RETURNDATASIZE DUP3 MSTORE RETURNDATASIZE PUSH0 PUSH1 0x20 DUP5 ADD RETURNDATACOPY PUSH2 0xC21 JUMP JUMPDEST PUSH1 0x60 SWAP2 POP JUMPDEST POP POP SWAP1 POP DUP1 PUSH2 0xC72 JUMPI PUSH1 0x40 MLOAD PUSH3 0x461BCD PUSH1 0xE5 SHL DUP2 MSTORE PUSH1 0x20 PUSH1 0x4 DUP3 ADD DUP2 SWAP1 MSTORE PUSH1 0x24 DUP3 ADD MSTORE PUSH32 0x7061796D656E7420746F2061646D696E20646964206E6F7420676F2074687275 PUSH1 0x44 DUP3 ADD MSTORE PUSH1 0x64 ADD PUSH2 0x723 JUMP JUMPDEST POP POP PUSH2 0xC7E PUSH1 0x1 PUSH1 0x5 SSTORE JUMP JUMPDEST JUMP JUMPDEST PUSH1 0x2 PUSH1 0x5 SLOAD SUB PUSH2 0xCA3 JUMPI PUSH1 0x40 MLOAD PUSH4 0x3EE5AEB5 PUSH1 0xE0 SHL DUP2 MSTORE PUSH1 0x4 ADD PUSH1 0x40 MLOAD DUP1 SWAP2 SUB SWAP1 REVERT JUMPDEST PUSH1 0x2 PUSH1 0x5 SSTORE JUMP JUMPDEST PUSH1 0x4 SLOAD PUSH0 DUP1 SLOAD SWAP1 SWAP2 PUSH4 0xFFFFFFFF PUSH5 0x100000000 SWAP1 SWAP2 DIV DUP2 AND SWAP2 PUSH2 0xCCF SWAP2 AND PUSH1 0x2 PUSH2 0x11D6 JUMP JUMPDEST PUSH4 0xFFFFFFFF AND DUP2 PUSH4 0xFFFFFFFF AND SUB PUSH2 0xD42 JUMPI PUSH1 0x40 MLOAD PUSH3 0x461BCD PUSH1 0xE5 SHL DUP2 MSTORE PUSH1 0x20 PUSH1 0x4 DUP3 ADD MSTORE PUSH1 0x30 PUSH1 0x24 DUP3 ADD MSTORE PUSH32 0x4D65726B6C6520747265652069732066756C6C2E204E6F206D6F7265206C6561 PUSH1 0x44 DUP3 ADD MSTORE PUSH16 0x1D995CC818D85B881899481859191959 PUSH1 0x82 SHL PUSH1 0x64 DUP3 ADD MSTORE PUSH1 0x84 ADD PUSH2 0x723 JUMP JUMPDEST DUP1 DUP4 PUSH0 DUP1 DUP1 JUMPDEST PUSH0 SLOAD PUSH4 0xFFFFFFFF SWAP1 DUP2 AND SWAP1 DUP3 AND LT ISZERO PUSH2 0xDDE JUMPI PUSH2 0xD66 PUSH1 0x2 DUP7 PUSH2 0x1206 JUMP JUMPDEST PUSH4 0xFFFFFFFF AND PUSH0 SUB PUSH2 0xDA2 JUMPI DUP4 SWAP3 POP PUSH2 0xD84 DUP2 PUSH4 0xFFFFFFFF AND PUSH2 0x7A6 JUMP JUMPDEST PUSH4 0xFFFFFFFF DUP3 AND PUSH0 SWAP1 DUP2 MSTORE PUSH1 0x2 PUSH1 0x20 MSTORE PUSH1 0x40 SWAP1 KECCAK256 DUP6 SWAP1 SSTORE SWAP2 POP PUSH2 0xDBD JUMP JUMPDEST PUSH4 0xFFFFFFFF DUP2 AND PUSH0 SWAP1 DUP2 MSTORE PUSH1 0x2 PUSH1 0x20 MSTORE PUSH1 0x40 SWAP1 KECCAK256 SLOAD SWAP3 POP DUP4 SWAP2 POP JUMPDEST PUSH2 0xDC7 DUP4 DUP4 PUSH2 0x45A JUMP JUMPDEST SWAP4 POP PUSH2 0xDD4 PUSH1 0x2 DUP7 PUSH2 0x1228 JUMP JUMPDEST SWAP5 POP PUSH1 0x1 ADD PUSH2 0xD48 JUMP JUMPDEST POP PUSH1 0x4 SLOAD PUSH0 SWAP1 PUSH1 0x1E SWAP1 PUSH2 0xDF8 SWAP1 PUSH4 0xFFFFFFFF AND PUSH1 0x1 PUSH2 0x124A JUMP JUMPDEST PUSH2 0xE02 SWAP2 SWAP1 PUSH2 0x1206 JUMP JUMPDEST PUSH1 0x4 DUP1 SLOAD PUSH4 0xFFFFFFFF NOT AND PUSH4 0xFFFFFFFF DUP4 DUP2 AND SWAP2 DUP3 OR SWAP1 SWAP3 SSTORE PUSH0 SWAP1 DUP2 MSTORE PUSH1 0x3 PUSH1 0x20 SWAP1 DUP2 MSTORE PUSH1 0x40 DUP1 DUP4 KECCAK256 DUP10 SWAP1 SSTORE SWAP3 DUP11 AND DUP3 MSTORE PUSH1 0x1 SWAP1 DUP2 SWAP1 MSTORE SWAP2 SWAP1 KECCAK256 DUP11 SWAP1 SSTORE SWAP1 SWAP2 POP PUSH2 0xE4D SWAP1 DUP8 SWAP1 PUSH2 0x124A JUMP JUMPDEST PUSH1 0x4 DUP1 SLOAD PUSH4 0xFFFFFFFF SWAP3 SWAP1 SWAP3 AND PUSH5 0x100000000 MUL PUSH8 0xFFFFFFFF00000000 NOT SWAP1 SWAP3 AND SWAP2 SWAP1 SWAP2 OR SWAP1 SSTORE POP SWAP4 SWAP7 SWAP6 POP POP POP POP POP POP JUMP JUMPDEST PUSH1 0x6 SLOAD CALLVALUE EQ PUSH2 0xC7E JUMPI PUSH1 0x40 MLOAD PUSH3 0x461BCD PUSH1 0xE5 SHL DUP2 MSTORE PUSH1 0x20 PUSH1 0x4 DUP3 ADD MSTORE PUSH1 0x38 PUSH1 0x24 DUP3 ADD MSTORE PUSH32 0x506C656173652073656E6420606D697844656E6F6D696E6174696F6E60204554 PUSH1 0x44 DUP3 ADD MSTORE PUSH32 0x4820616C6F6E672077697468207472616E73616374696F6E0000000000000000 PUSH1 0x64 DUP3 ADD MSTORE PUSH1 0x84 ADD PUSH2 0x723 JUMP JUMPDEST PUSH0 PUSH1 0x20 DUP3 DUP5 SUB SLT ISZERO PUSH2 0xF07 JUMPI PUSH0 DUP1 REVERT JUMPDEST POP CALLDATALOAD SWAP2 SWAP1 POP JUMP JUMPDEST PUSH0 DUP1 PUSH1 0x40 DUP4 DUP6 SUB SLT ISZERO PUSH2 0xF1F JUMPI PUSH0 DUP1 REVERT JUMPDEST POP POP DUP1 CALLDATALOAD SWAP3 PUSH1 0x20 SWAP1 SWAP2 ADD CALLDATALOAD SWAP2 POP JUMP JUMPDEST PUSH0 DUP1 PUSH0 PUSH1 0x60 DUP5 DUP7 SUB SLT ISZERO PUSH2 0xF40 JUMPI PUSH0 DUP1 REVERT JUMPDEST DUP4 CALLDATALOAD SWAP3 POP PUSH1 0x20 DUP5 ADD CALLDATALOAD SWAP2 POP PUSH1 0x40 DUP5 ADD CALLDATALOAD PUSH1 0x1 PUSH1 0x1 PUSH1 0xA0 SHL SUB DUP2 AND DUP2 EQ PUSH2 0xF64 JUMPI PUSH0 DUP1 REVERT JUMPDEST DUP1 SWAP2 POP POP SWAP3 POP SWAP3 POP SWAP3 JUMP JUMPDEST PUSH1 0x20 DUP1 DUP3 MSTORE DUP3 MLOAD DUP3 DUP3 ADD DUP2 SWAP1 MSTORE PUSH0 SWAP2 SWAP1 DUP5 DUP3 ADD SWAP1 PUSH1 0x40 DUP6 ADD SWAP1 DUP5 JUMPDEST DUP2 DUP2 LT ISZERO PUSH2 0xFA6 JUMPI DUP4 MLOAD DUP4 MSTORE SWAP3 DUP5 ADD SWAP3 SWAP2 DUP5 ADD SWAP2 PUSH1 0x1 ADD PUSH2 0xF8A JUMP JUMPDEST POP SWAP1 SWAP7 SWAP6 POP POP POP POP POP POP JUMP JUMPDEST PUSH0 DUP1 PUSH1 0x20 DUP4 DUP6 SUB SLT ISZERO PUSH2 0xFC3 JUMPI PUSH0 DUP1 REVERT JUMPDEST DUP3 CALLDATALOAD PUSH8 0xFFFFFFFFFFFFFFFF DUP1 DUP3 GT ISZERO PUSH2 0xFDA JUMPI PUSH0 DUP1 REVERT JUMPDEST DUP2 DUP6 ADD SWAP2 POP DUP6 PUSH1 0x1F DUP4 ADD SLT PUSH2 0xFED JUMPI PUSH0 DUP1 REVERT JUMPDEST DUP2 CALLDATALOAD DUP2 DUP2 GT ISZERO PUSH2 0xFFB JUMPI PUSH0 DUP1 REVERT JUMPDEST DUP7 PUSH1 0x20 DUP3 PUSH1 0x5 SHL DUP6 ADD ADD GT ISZERO PUSH2 0x100F JUMPI PUSH0 DUP1 REVERT JUMPDEST PUSH1 0x20 SWAP3 SWAP1 SWAP3 ADD SWAP7 SWAP2 SWAP6 POP SWAP1 SWAP4 POP POP POP POP JUMP JUMPDEST PUSH1 0x20 DUP1 DUP3 MSTORE DUP3 MLOAD DUP3 DUP3 ADD DUP2 SWAP1 MSTORE PUSH0 SWAP2 SWAP1 DUP5 DUP3 ADD SWAP1 PUSH1 0x40 DUP6 ADD SWAP1 DUP5 JUMPDEST DUP2 DUP2 LT ISZERO PUSH2 0xFA6 JUMPI DUP4 MLOAD ISZERO ISZERO DUP4 MSTORE SWAP3 DUP5 ADD SWAP3 SWAP2 DUP5 ADD SWAP2 PUSH1 0x1 ADD PUSH2 0x103C JUMP JUMPDEST PUSH4 0x4E487B71 PUSH1 0xE0 SHL PUSH0 MSTORE PUSH1 0x41 PUSH1 0x4 MSTORE PUSH1 0x24 PUSH0 REVERT JUMPDEST PUSH4 0x4E487B71 PUSH1 0xE0 SHL PUSH0 MSTORE PUSH1 0x32 PUSH1 0x4 MSTORE PUSH1 0x24 PUSH0 REVERT JUMPDEST PUSH4 0x4E487B71 PUSH1 0xE0 SHL PUSH0 MSTORE PUSH1 0x11 PUSH1 0x4 MSTORE PUSH1 0x24 PUSH0 REVERT JUMPDEST DUP2 DUP2 SUB DUP2 DUP2 GT ISZERO PUSH2 0x483 JUMPI PUSH2 0x483 PUSH2 0x1082 JUMP JUMPDEST PUSH0 PUSH4 0xFFFFFFFF DUP3 AND DUP1 PUSH2 0x10BE JUMPI PUSH2 0x10BE PUSH2 0x1082 JUMP JUMPDEST PUSH0 NOT ADD SWAP3 SWAP2 POP POP JUMP JUMPDEST PUSH1 0x1 DUP2 DUP2 JUMPDEST DUP1 DUP6 GT ISZERO PUSH2 0x1104 JUMPI DUP2 PUSH4 0xFFFFFFFF DIV DUP3 GT ISZERO PUSH2 0x10EA JUMPI PUSH2 0x10EA PUSH2 0x1082 JUMP JUMPDEST DUP1 DUP6 AND ISZERO PUSH2 0x10F7 JUMPI SWAP2 DUP2 MUL SWAP2 JUMPDEST SWAP4 DUP5 SHR SWAP4 SWAP1 DUP1 MUL SWAP1 PUSH2 0x10CC JUMP JUMPDEST POP SWAP3 POP SWAP3 SWAP1 POP JUMP JUMPDEST PUSH0 DUP3 PUSH2 0x111A JUMPI POP PUSH1 0x1 PUSH2 0x483 JUMP JUMPDEST DUP2 PUSH2 0x1126 JUMPI POP PUSH0 PUSH2 0x483 JUMP JUMPDEST DUP2 PUSH1 0x1 DUP2 EQ PUSH2 0x113C JUMPI PUSH1 0x2 DUP2 EQ PUSH2 0x1146 JUMPI PUSH2 0x1177 JUMP JUMPDEST PUSH1 0x1 SWAP2 POP POP PUSH2 0x483 JUMP JUMPDEST PUSH1 0xFF DUP5 GT ISZERO PUSH2 0x1157 JUMPI PUSH2 0x1157 PUSH2 0x1082 JUMP JUMPDEST PUSH1 0x1 DUP5 SHL SWAP2 POP PUSH4 0xFFFFFFFF DUP3 GT ISZERO PUSH2 0x1171 JUMPI PUSH2 0x1171 PUSH2 0x1082 JUMP JUMPDEST POP PUSH2 0x483 JUMP JUMPDEST POP PUSH1 0x20 DUP4 LT PUSH2 0x133 DUP4 LT AND PUSH1 0x4E DUP5 LT PUSH1 0xB DUP5 LT AND OR ISZERO PUSH2 0x11AE JUMPI POP DUP2 DUP2 EXP PUSH4 0xFFFFFFFF DUP2 GT ISZERO PUSH2 0x11A9 JUMPI PUSH2 0x11A9 PUSH2 0x1082 JUMP JUMPDEST PUSH2 0x483 JUMP JUMPDEST PUSH2 0x11B8 DUP4 DUP4 PUSH2 0x10C7 JUMP JUMPDEST DUP1 PUSH4 0xFFFFFFFF DIV DUP3 GT ISZERO PUSH2 0x11CE JUMPI PUSH2 0x11CE PUSH2 0x1082 JUMP JUMPDEST MUL SWAP4 SWAP3 POP POP POP JUMP JUMPDEST PUSH0 PUSH4 0xFFFFFFFF PUSH2 0x11EA DUP2 DUP6 AND DUP3 DUP6 AND PUSH2 0x110C JUMP JUMPDEST SWAP5 SWAP4 POP POP POP POP JUMP JUMPDEST PUSH4 0x4E487B71 PUSH1 0xE0 SHL PUSH0 MSTORE PUSH1 0x12 PUSH1 0x4 MSTORE PUSH1 0x24 PUSH0 REVERT JUMPDEST PUSH0 PUSH4 0xFFFFFFFF DUP1 DUP5 AND DUP1 PUSH2 0x121C JUMPI PUSH2 0x121C PUSH2 0x11F2 JUMP JUMPDEST SWAP3 AND SWAP2 SWAP1 SWAP2 MOD SWAP3 SWAP2 POP POP JUMP JUMPDEST PUSH0 PUSH4 0xFFFFFFFF DUP1 DUP5 AND DUP1 PUSH2 0x123E JUMPI PUSH2 0x123E PUSH2 0x11F2 JUMP JUMPDEST SWAP3 AND SWAP2 SWAP1 SWAP2 DIV SWAP3 SWAP2 POP POP JUMP JUMPDEST PUSH4 0xFFFFFFFF DUP2 DUP2 AND DUP4 DUP3 AND ADD SWAP1 DUP1 DUP3 GT ISZERO PUSH2 0x6B0 JUMPI PUSH2 0x6B0 PUSH2 0x1082 JUMP INVALID LOG2 PUSH5 0x6970667358 0x22 SLT KECCAK256 0xC9 SWAP10 SHL EXTCODEHASH PUSH24 0x38CA13BE06E77508C48F255395EC23C5132370E86CC91358 PUSH20 0x27B64736F6C6343000817003300000000000000 "},"methodIdentifiers":{"ROOT_HISTORY_SIZE()":"cd87a3b4","_formatPublicInputs(bytes32,bytes32,address)":"4fe3fbf0","adminWithdraw()":"f18d20be","commitmentLeafs(uint256)":"9ec44154","commitments(bytes32)":"839df945","commitmentsTreeRoots(bytes32)":"3591d78d","currentRootIndex()":"90eeb02b","denomination()":"8bca6d16","deposit(bytes32)":"b214faa5","filledSubtrees(uint256)":"f178e47c","getLastRoot()":"ba70f757","hashLeftRight(bytes32,bytes32)":"38bf282e","isKnownRoot(bytes32)":"6d9833e3","isSpent(bytes32)":"e5285dcc","isSpentArray(bytes32[])":"9fa12d0b","levels()":"4ecf518b","nextIndex()":"fc7e9c6f","nullifiers(bytes32)":"2997e86b","roots(uint256)":"c2b40ae4","verifier()":"2b7ac3f3","zeros(uint256)":"e8295588"}}}}}