{"contracts/ToadnadoL2.sol":{"ToadnadoL2":{"abi":[{"inputs":[{"internalType":"address","name":"_l1Address","type":"address"},{"internalType":"address","name":"_verifier","type":"address"},{"internalType":"uint256","name":"_denomination","type":"uint256"},{"internalType":"uint32","name":"_merkleTreeHeight","type":"uint32"}],"stateMutability":"nonpayable","type":"constructor"},{"inputs":[],"name":"ReentrancyGuardReentrantCall","type":"error"},{"inputs":[],"name":"VerificationFailed","type":"error"},{"anonymous":false,"inputs":[{"indexed":true,"internalType":"bytes32","name":"commitment","type":"bytes32"},{"indexed":false,"internalType":"uint32","name":"leafIndex","type":"uint32"},{"indexed":false,"internalType":"uint256","name":"timestamp","type":"uint256"}],"name":"Deposit","type":"event"},{"anonymous":false,"inputs":[{"indexed":false,"internalType":"address","name":"recipient","type":"address"},{"indexed":false,"internalType":"bytes32","name":"nullifier","type":"bytes32"}],"name":"Withdrawal","type":"event"},{"inputs":[],"name":"ROOT_HISTORY_SIZE","outputs":[{"internalType":"uint32","name":"","type":"uint32"}],"stateMutability":"view","type":"function"},{"inputs":[{"internalType":"bytes32","name":"_root","type":"bytes32"},{"internalType":"bytes32","name":"_nullifier","type":"bytes32"},{"internalType":"address","name":"_recipient","type":"address"}],"name":"_formatPublicInputs","outputs":[{"internalType":"bytes32[]","name":"","type":"bytes32[]"}],"stateMutability":"pure","type":"function"},{"inputs":[],"name":"adminWithdraw","outputs":[],"stateMutability":"payable","type":"function"},{"inputs":[{"internalType":"uint256","name":"","type":"uint256"}],"name":"commitmentLeafs","outputs":[{"internalType":"bytes32","name":"","type":"bytes32"}],"stateMutability":"view","type":"function"},{"inputs":[{"internalType":"bytes32","name":"","type":"bytes32"}],"name":"commitments","outputs":[{"internalType":"bool","name":"","type":"bool"}],"stateMutability":"view","type":"function"},{"inputs":[{"internalType":"bytes32","name":"","type":"bytes32"}],"name":"commitmentsTreeRoots","outputs":[{"internalType":"bool","name":"","type":"bool"}],"stateMutability":"view","type":"function"},{"inputs":[],"name":"currentRootIndex","outputs":[{"internalType":"uint32","name":"","type":"uint32"}],"stateMutability":"view","type":"function"},{"inputs":[],"name":"denomination","outputs":[{"internalType":"uint256","name":"","type":"uint256"}],"stateMutability":"view","type":"function"},{"inputs":[{"internalType":"bytes32","name":"_commitment","type":"bytes32"}],"name":"deposit","outputs":[],"stateMutability":"payable","type":"function"},{"inputs":[{"internalType":"uint256","name":"","type":"uint256"}],"name":"filledSubtrees","outputs":[{"internalType":"bytes32","name":"","type":"bytes32"}],"stateMutability":"view","type":"function"},{"inputs":[],"name":"getAllCommitments","outputs":[{"internalType":"bytes32[]","name":"","type":"bytes32[]"},{"internalType":"bytes32[]","name":"","type":"bytes32[]"}],"stateMutability":"view","type":"function"},{"inputs":[{"internalType":"uint256","name":"key","type":"uint256"}],"name":"getL1LeafCommitments","outputs":[{"internalType":"bytes32","name":"","type":"bytes32"}],"stateMutability":"view","type":"function"},{"inputs":[{"internalType":"uint256","name":"key","type":"uint256"}],"name":"getL1Root","outputs":[{"internalType":"bytes32","name":"","type":"bytes32"}],"stateMutability":"view","type":"function"},{"inputs":[{"internalType":"uint256","name":"key","type":"uint256"}],"name":"getL1RootSlot","outputs":[{"internalType":"bytes32","name":"","type":"bytes32"}],"stateMutability":"pure","type":"function"},{"inputs":[],"name":"getLastRoot","outputs":[{"internalType":"bytes32","name":"","type":"bytes32"}],"stateMutability":"view","type":"function"},{"inputs":[{"internalType":"bytes32","name":"_left","type":"bytes32"},{"internalType":"bytes32","name":"_right","type":"bytes32"}],"name":"hashLeftRight","outputs":[{"internalType":"bytes32","name":"","type":"bytes32"}],"stateMutability":"pure","type":"function"},{"inputs":[{"internalType":"bytes32","name":"_root","type":"bytes32"}],"name":"isKnownL1Root","outputs":[{"internalType":"bool","name":"","type":"bool"}],"stateMutability":"view","type":"function"},{"inputs":[{"internalType":"bytes32","name":"_root","type":"bytes32"}],"name":"isKnownRoot","outputs":[{"internalType":"bool","name":"","type":"bool"}],"stateMutability":"view","type":"function"},{"inputs":[{"internalType":"bytes32","name":"_nullifierHash","type":"bytes32"}],"name":"isSpent","outputs":[{"internalType":"bool","name":"","type":"bool"}],"stateMutability":"view","type":"function"},{"inputs":[{"internalType":"bytes32[]","name":"_nullifierHashes","type":"bytes32[]"}],"name":"isSpentArray","outputs":[{"internalType":"bool[]","name":"spent","type":"bool[]"}],"stateMutability":"view","type":"function"},{"inputs":[],"name":"l1Address","outputs":[{"internalType":"address","name":"","type":"address"}],"stateMutability":"view","type":"function"},{"inputs":[],"name":"l1_currentRootIndex","outputs":[{"internalType":"uint32","name":"","type":"uint32"}],"stateMutability":"view","type":"function"},{"inputs":[],"name":"levels","outputs":[{"internalType":"uint32","name":"","type":"uint32"}],"stateMutability":"view","type":"function"},{"inputs":[],"name":"nextIndex","outputs":[{"internalType":"uint32","name":"","type":"uint32"}],"stateMutability":"view","type":"function"},{"inputs":[{"internalType":"bytes32","name":"","type":"bytes32"}],"name":"nullifiers","outputs":[{"internalType":"bool","name":"","type":"bool"}],"stateMutability":"view","type":"function"},{"inputs":[{"internalType":"address","name":"l1_contract","type":"address"},{"internalType":"uint256","name":"slot","type":"uint256"}],"name":"readSingleSlot","outputs":[{"internalType":"bytes","name":"","type":"bytes"}],"stateMutability":"view","type":"function"},{"inputs":[{"internalType":"uint256","name":"","type":"uint256"}],"name":"roots","outputs":[{"internalType":"bytes32","name":"","type":"bytes32"}],"stateMutability":"view","type":"function"},{"inputs":[],"name":"verifier","outputs":[{"internalType":"address","name":"","type":"address"}],"stateMutability":"view","type":"function"},{"inputs":[{"internalType":"bytes32","name":"_l1root","type":"bytes32"},{"internalType":"bytes32","name":"_l2root","type":"bytes32"},{"internalType":"bytes32","name":"_nullifier","type":"bytes32"},{"internalType":"address payable","name":"_recipient","type":"address"},{"internalType":"bytes","name":"snarkProof","type":"bytes"}],"name":"withdraw","outputs":[],"stateMutability":"payable","type":"function"},{"inputs":[{"internalType":"uint256","name":"i","type":"uint256"}],"name":"zeros","outputs":[{"internalType":"bytes32","name":"","type":"bytes32"}],"stateMutability":"pure","type":"function"},{"stateMutability":"payable","type":"receive"}],"evm":{"bytecode":{"linkReferences":{},"object":"6080604052600480546001600160401b0319169055600c805463ffffffff191690553480156200002d575f80fd5b506040516200247a3803806200247a8339810160408190526200005091620006ad565b828282805f8163ffffffff1611620000bb5760405162461bcd60e51b815260206004820152602360248201527f5f6c6576656c732073686f756c642062652067726561746572207468616e207a60448201526265726f60e81b60648201526084015b60405180910390fd5b60148163ffffffff1610620001135760405162461bcd60e51b815260206004820152601e60248201527f5f6c6576656c732073686f756c64206265206c657373207468616e20323000006044820152606401620000b2565b5f805463ffffffff191663ffffffff83161781555b8163ffffffff168163ffffffff1610156200016c576200014e63ffffffff821662000258565b63ffffffff82165f9081526002602052604090205560010162000128565b506200017e63ffffffff821662000258565b5f805260036020527f3617319a054d772f909f7c479a2cebe5066e836a939412e32403c99029b92eff55506001600555816200020b5760405162461bcd60e51b815260206004820152602560248201527f64656e6f6d696e6174696f6e2073686f756c6420626520677265617465722074604482015264068616e20360dc1b6064820152608401620000b2565b50600780546001600160a01b0319166001600160a01b03938416179055600655600c8054600160201b600160c01b0319166401000000009690921695909502179093555062000707915050565b5f815f036200028857507f2fe54c60d3acabf3343a35b6eba15db4821b340f76e741e2249685ed4899af6c919050565b81600103620002b857507f4fc2fe9184a25f44ce8ddb5f32671fcae6d9c85ed710c199acef16ad16b29911919050565b81600203620002e857507f0d826a474f851c563052d929ef0daa70f658aba9ba084f51f6e3483c13c0e59a919050565b816003036200031857507ff7761a16b5e4c0120e4c5704b910dbe18ff6162a9668ed1c2c4efde7c4f15806919050565b816004036200034857507fce9ce09a0ab259d6d14ca3dcd74e6c6b9e7d9074bff66973d4c57ccdffdb2a82919050565b816005036200037857507f02efd44c63015ff1385344e0624867775486d05e6eb1290a24976964a598003b919050565b81600603620003a857507fc4dec5845d407ce2ac2e6824bb7857c4b138f819e5789d5d11e812db10c846cd919050565b81600703620003d857507f5fbe3f20c23f3bd6ac347917fb0903433e0b9a48373412348240a5f919bfde19919050565b816008036200040857507f92d1b07e56b3da96b7917778cb657f2c513eaeeb4d1579a73b5ea316f25b7289919050565b816009036200043857507fa08add5656d6d3d0827ef909f7647981eac42aa1f51970a752f130f718f6d76a919050565b81600a036200046857507f1704c5f297590d8ec62776b0714f4f3f2234bae0524035342b0da8b8988ebd79919050565b81600b036200049857507fc5ae2bd47379c2c6d1189cfc3d057948dc6054caf845fcacd8f7affe94b11944919050565b81600c03620004c857507f12a161d6d5561062f387d91ad9f0f8966c0956afdb9e8325458b9e5057b82bdb919050565b81600d03620004f857507f4ade524ba596de20bbe94507a761c45251ae7a27857ceb4287d9018525b99bc5919050565b81600e036200052857507f38287ad69151fa833bf4bf8b8eb6ffb39400a38f1a7e53b473f639c8c60fd5e4919050565b81600f036200055857507f57f2ade7d711707e785451f2aba6c95872c7fe03153a98b7327b4024e8068fa3919050565b816010036200058857507fb1982e0d1b0de46a88d8b17941472e41a86d3ff64571ed8e0ca72d58633547fc919050565b81601103620005b857507fb7c60f8670af15eb32b4ee36727179bc085a3dde03d5f9a1486664ba576b30a6919050565b81601203620005e857507f5ff905c5c659a926b132ef3665a3de5d5a859c1d479e68851085bfc0348c5331919050565b816013036200061857507fb4dfa78b912e98c9f7eb42d71eb537a02bf3173d44a2eb887a48b3972072dd8e919050565b816014036200064857507f60919a16a2eb8b91cfb8ba1e5b4c155a76a14c217b5403edbd563f34e508ecdc919050565b60405162461bcd60e51b815260206004820152601360248201527f496e646578206f7574206f6620626f756e6473000000000000000000000000006044820152606401620000b2565b919050565b80516001600160a01b038116811462000691575f80fd5b5f805f8060808587031215620006c1575f80fd5b620006cc8562000696565b9350620006dc6020860162000696565b925060408501519150606085015163ffffffff81168114620006fc575f80fd5b939692955090935050565b611d6580620007155f395ff3fe6080604052600436106101c8575f3560e01c80638bca6d16116100f2578063c2eeeebd11610092578063e993d00b11610062578063e993d00b146105f4578063f178e47c14610613578063f18d20be1461063e578063fc7e9c6f14610646575f80fd5b8063c2eeeebd1461056d578063cd87a3b414610593578063e5285dcc146105a7578063e8295588146105d5575f80fd5b80639fa12d0b116100cd5780639fa12d0b146104db578063b214faa514610507578063ba70f7571461051a578063c2b40ae414610542575f80fd5b80638bca6d161461047f57806390eeb02b146104945780639ec44154146104b0575f80fd5b80633ed4eae51161016857806350241a3f1161013857806350241a3f146103fe5780635032d4f1146104135780636d9833e314610432578063839df94514610451575f80fd5b80633ed4eae51461035257806348ee98da146103715780634ecf518b146103b75780634fe3fbf0146103d2575f80fd5b80632b7ac3f3116101a35780632b7ac3f3146102775780632c0ee3c4146102ae5780633591d78d146102d057806338bf282e146102fe575f80fd5b8063102b72e7146101d3578063164ddd01146102085780632997e86b14610239575f80fd5b366101cf57005b5f80fd5b3480156101de575f80fd5b506101f26101ed3660046117b7565b610669565b6040516101ff9190611803565b60405180910390f35b348015610213575f80fd5b50600c546102249063ffffffff1681565b60405163ffffffff90911681526020016101ff565b348015610244575f80fd5b50610267610253366004611835565b60086020525f908152604090205460ff1681565b60405190151581526020016101ff565b348015610282575f80fd5b50600754610296906001600160a01b031681565b6040516001600160a01b0390911681526020016101ff565b3480156102b9575f80fd5b506102c2610751565b6040516101ff929190611886565b3480156102db575f80fd5b506102676102ea366004611835565b600a6020525f908152604090205460ff1681565b348015610309575f80fd5b506103446103183660046118b3565b604080516020808201949094528082019290925280518083038201815260609092019052805191012090565b6040519081526020016101ff565b34801561035d575f80fd5b5061034461036c366004611835565b61089a565b34801561037c575f80fd5b5061034461038b366004611835565b604080516020808201939093526003818301528151808203830181526060909101909152805191012090565b3480156103c2575f80fd5b505f546102249063ffffffff1681565b3480156103dd575f80fd5b506103f16103ec3660046118d3565b610903565b6040516101ff9190611909565b61041161040c36600461191b565b6109fe565b005b34801561041e575f80fd5b5061034461042d366004611835565b610c9c565b34801561043d575f80fd5b5061026761044c366004611835565b610cd2565b34801561045c575f80fd5b5061026761046b366004611835565b60096020525f908152604090205460ff1681565b34801561048a575f80fd5b5061034460065481565b34801561049f575f80fd5b506004546102249063ffffffff1681565b3480156104bb575f80fd5b506103446104ca366004611835565b60016020525f908152604090205481565b3480156104e6575f80fd5b506104fa6104f53660046119b4565b610d4b565b6040516101ff9190611a23565b610411610515366004611835565b610e05565b348015610525575f80fd5b5060045463ffffffff165f90815260036020526040902054610344565b34801561054d575f80fd5b5061034461055c366004611835565b60036020525f908152604090205481565b348015610578575f80fd5b50600c5461029690600160201b90046001600160a01b031681565b34801561059e575f80fd5b50610224601e81565b3480156105b2575f80fd5b506102676105c1366004611835565b5f9081526008602052604090205460ff1690565b3480156105e0575f80fd5b506103446105ef366004611835565b610eef565b3480156105ff575f80fd5b5061026761060e366004611835565b611308565b34801561061e575f80fd5b5061034461062d366004611835565b60026020525f908152604090205481565b6104116113ab565b348015610651575f80fd5b5060045461022490600160201b900463ffffffff1681565b604051606083811b6bffffffffffffffffffffffff1916602083015260348201839052905f9060540160405160208183030381529060405290505f60606101016001600160a01b0316836040516106c09190611a68565b5f60405180830381855afa9150503d805f81146106f8576040519150601f19603f3d011682016040523d82523d5f602084013e6106fd565b606091505b509092509050816107465760405162461bcd60e51b815260206004820152600e60248201526d130c54d313d0510819985a5b195960921b60448201526064015b60405180910390fd5b925050505b92915050565b604080516020808252610420820190925260609182915f908280820161040080368337019050506004549091505f90600160201b900463ffffffff1667ffffffffffffffff8111156107a5576107a5611a83565b6040519080825280602002602001820160405280156107ce578160200160208202803683370190505b5090505f5b60045463ffffffff600160201b9091048116908216101561082a5763ffffffff81165f81815260016020526040902054835190918491811061081757610817611a97565b60209081029190910101526001016107d3565b505f5b8363ffffffff168163ffffffff16101561088f576108508163ffffffff1661089a565b1561088f576108648163ffffffff1661089a565b838263ffffffff168151811061087c5761087c611a97565b602090810291909101015260010161082d565b509094909350915050565b600c54604080516020810184905260019181018290525f926108e991600160201b9091046001600160a01b0316906060015b604051602081830303815290604052805190602001205f1c610669565b8060200190518101906108fc9190611aab565b9392505050565b60408051604180825261084082019092526060915f919060208201610820803683370190505090505f5b60208110156109735785816020811061094857610948611a97565b835191901a9083908390811061096057610960611a97565b602090810291909101015260010161092d565b5060205b60408110156109c7578461098c602083611ad6565b6020811061099c5761099c611a97565b835191901a908390839081106109b4576109b4611a97565b6020908102919091010152600101610977565b5080516001600160a01b038416908190839060409081106109ea576109ea611a97565b602090810291909101015250949350505050565b610a0661146c565b4662aa36a703610a585760405162461bcd60e51b815260206004820152601d60248201527f7769746864726177616c206f6e6c7920616c6c6f776564206f6e204c32000000604482015260640161073d565b5f8481526008602052604090205460ff1615610ab65760405162461bcd60e51b815260206004820152601f60248201527f546865206e6f746520686173206265656e20616c7265616479207370656e7400604482015260640161073d565b610abf85610cd2565b610b0b5760405162461bcd60e51b815260206004820152601f60248201527f43616e6e6f742066696e6420796f7572206c32206d65726b6c6520726f6f7400604482015260640161073d565b610b1486611308565b610b605760405162461bcd60e51b815260206004820152601f60248201527f43616e6e6f742066696e6420796f7572206c31206d65726b6c6520726f6f7400604482015260640161073d565b604080516020808201899052818301889052825180830384018152606090920190925280519101205f610b94828787610903565b600754604051633a94343960e21b81529192506001600160a01b03169063ea50d0e490610bc990879087908690600401611ae9565b602060405180830381865afa158015610be4573d5f803e3d5ffd5b505050506040513d601f19601f82011682018060405250810190610c089190611b2f565b610c255760405163439cc0cd60e01b815260040160405180910390fd5b5f868152600860205260409020805460ff19166001179055610c4685611496565b604080516001600160a01b0387168152602081018890527f0ce490531f6c8ae2f1ff174643bc8b7ed5e52987ab50dc1e8f33655d2cd8c90b910160405180910390a15050610c946001600555565b505050505050565b600c54604080516020810184905260039181018290525f926108e991600160201b9091046001600160a01b0316906060016108cc565b5f818103610ce157505f919050565b60045463ffffffff16805b63ffffffff81165f908152600360205260409020548403610d11575060019392505050565b8063ffffffff165f03610d225750601e5b80610d2c81611b4e565b9150508163ffffffff168163ffffffff1603610cec57505f9392505050565b60608167ffffffffffffffff811115610d6657610d66611a83565b604051908082528060200260200182016040528015610d8f578160200160208202803683370190505b5090505f5b82811015610dfe57610dcc848483818110610db157610db1611a97565b905060200201355f9081526008602052604090205460ff1690565b15610df6576001828281518110610de557610de5611a97565b911515602092830291909101909101525b600101610d94565b5092915050565b610e0d61146c565b5f8181526009602052604090205460ff1615610e755760405162461bcd60e51b815260206004820152602160248201527f54686520636f6d6d69746d656e7420686173206265656e207375626d697474656044820152601960fa1b606482015260840161073d565b5f610e7f8261153a565b5f838152600960205260409020805460ff191660011790559050610ea161172c565b6040805163ffffffff8316815242602082015283917fa945e51eec50ab98c161376f0db4cf2aeba3ec92755fe2fcd388bdbbb80ff196910160405180910390a250610eec6001600555565b50565b5f815f03610f1e57507f2fe54c60d3acabf3343a35b6eba15db4821b340f76e741e2249685ed4899af6c919050565b81600103610f4d57507f4fc2fe9184a25f44ce8ddb5f32671fcae6d9c85ed710c199acef16ad16b29911919050565b81600203610f7c57507f0d826a474f851c563052d929ef0daa70f658aba9ba084f51f6e3483c13c0e59a919050565b81600303610fab57507ff7761a16b5e4c0120e4c5704b910dbe18ff6162a9668ed1c2c4efde7c4f15806919050565b81600403610fda57507fce9ce09a0ab259d6d14ca3dcd74e6c6b9e7d9074bff66973d4c57ccdffdb2a82919050565b8160050361100957507f02efd44c63015ff1385344e0624867775486d05e6eb1290a24976964a598003b919050565b8160060361103857507fc4dec5845d407ce2ac2e6824bb7857c4b138f819e5789d5d11e812db10c846cd919050565b8160070361106757507f5fbe3f20c23f3bd6ac347917fb0903433e0b9a48373412348240a5f919bfde19919050565b8160080361109657507f92d1b07e56b3da96b7917778cb657f2c513eaeeb4d1579a73b5ea316f25b7289919050565b816009036110c557507fa08add5656d6d3d0827ef909f7647981eac42aa1f51970a752f130f718f6d76a919050565b81600a036110f457507f1704c5f297590d8ec62776b0714f4f3f2234bae0524035342b0da8b8988ebd79919050565b81600b0361112357507fc5ae2bd47379c2c6d1189cfc3d057948dc6054caf845fcacd8f7affe94b11944919050565b81600c0361115257507f12a161d6d5561062f387d91ad9f0f8966c0956afdb9e8325458b9e5057b82bdb919050565b81600d0361118157507f4ade524ba596de20bbe94507a761c45251ae7a27857ceb4287d9018525b99bc5919050565b81600e036111b057507f38287ad69151fa833bf4bf8b8eb6ffb39400a38f1a7e53b473f639c8c60fd5e4919050565b81600f036111df57507f57f2ade7d711707e785451f2aba6c95872c7fe03153a98b7327b4024e8068fa3919050565b8160100361120e57507fb1982e0d1b0de46a88d8b17941472e41a86d3ff64571ed8e0ca72d58633547fc919050565b8160110361123d57507fb7c60f8670af15eb32b4ee36727179bc085a3dde03d5f9a1486664ba576b30a6919050565b8160120361126c57507f5ff905c5c659a926b132ef3665a3de5d5a859c1d479e68851085bfc0348c5331919050565b8160130361129b57507fb4dfa78b912e98c9f7eb42d71eb537a02bf3173d44a2eb887a48b3972072dd8e919050565b816014036112ca57507f60919a16a2eb8b91cfb8ba1e5b4c155a76a14c217b5403edbd563f34e508ecdc919050565b60405162461bcd60e51b8152602060048201526013602482015272496e646578206f7574206f6620626f756e647360681b604482015260640161073d565b5f600382820361131a57505f92915050565b600c545f9061133990600160201b90046001600160a01b031683610669565b80602001905181019061134c9190611b6c565b9050805b61135f8163ffffffff16610c9c565b850361137057506001949350505050565b8063ffffffff165f036113815750601e5b8061138b81611b4e565b9150508163ffffffff168163ffffffff160361135057505f949350505050565b6113b361146c565b60405173be34cc4cebf526887ec2c0035463dd26b3e7fea4905f90829047908381818185875af1925050503d805f8114611408576040519150601f19603f3d011682016040523d82523d5f602084013e61140d565b606091505b505090508061145e5760405162461bcd60e51b815260206004820181905260248201527f7061796d656e7420746f2061646d696e20646964206e6f7420676f2074687275604482015260640161073d565b505061146a6001600555565b565b60026005540361148f57604051633ee5aeb560e01b815260040160405180910390fd5b6002600555565b34156115025760405162461bcd60e51b815260206004820152603560248201527f4d6573736167652076616c756520697320737570706f73656420746f206265206044820152747a65726f20666f722045544820696e7374616e636560581b606482015260840161073d565b6006546040516001600160a01b0383169180156108fc02915f818181858888f19350505050158015611536573d5f803e3d5ffd5b5050565b6004545f8054909163ffffffff600160201b90910481169161155e91166002611c9e565b63ffffffff168163ffffffff16036115d15760405162461bcd60e51b815260206004820152603060248201527f4d65726b6c6520747265652069732066756c6c2e204e6f206d6f7265206c656160448201526f1d995cc818d85b88189948185919195960821b606482015260840161073d565b80835f80805b5f5463ffffffff908116908216101561168b576115f5600286611cce565b63ffffffff165f03611631578392506116138163ffffffff16610eef565b63ffffffff82165f908152600260205260409020859055915061164c565b63ffffffff81165f9081526002602052604090205492508391505b604080516020808201869052818301859052825180830384018152606090920190925280519101209350611681600286611cf0565b94506001016115d7565b506004545f90601e906116a59063ffffffff166001611d12565b6116af9190611cce565b6004805463ffffffff191663ffffffff8381169182179092555f908152600360209081526040808320899055928a1682526001908190529190208a90559091506116fa908790611d12565b6004805463ffffffff92909216600160201b0267ffffffff000000001990921691909117905550939695505050505050565b600654341461146a5760405162461bcd60e51b815260206004820152603860248201527f506c656173652073656e6420606d697844656e6f6d696e6174696f6e6020455460448201527f4820616c6f6e672077697468207472616e73616374696f6e0000000000000000606482015260840161073d565b6001600160a01b0381168114610eec575f80fd5b5f80604083850312156117c8575f80fd5b82356117d3816117a3565b946020939093013593505050565b5f5b838110156117fb5781810151838201526020016117e3565b50505f910152565b602081525f82518060208401526118218160408501602087016117e1565b601f01601f19169190910160400192915050565b5f60208284031215611845575f80fd5b5035919050565b5f815180845260208085019450602084015f5b8381101561187b5781518752958201959082019060010161185f565b509495945050505050565b604081525f611898604083018561184c565b82810360208401526118aa818561184c565b95945050505050565b5f80604083850312156118c4575f80fd5b50508035926020909101359150565b5f805f606084860312156118e5575f80fd5b833592506020840135915060408401356118fe816117a3565b809150509250925092565b602081525f6108fc602083018461184c565b5f805f805f8060a08789031215611930575f80fd5b8635955060208701359450604087013593506060870135611950816117a3565b9250608087013567ffffffffffffffff8082111561196c575f80fd5b818901915089601f83011261197f575f80fd5b81358181111561198d575f80fd5b8a602082850101111561199e575f80fd5b6020830194508093505050509295509295509295565b5f80602083850312156119c5575f80fd5b823567ffffffffffffffff808211156119dc575f80fd5b818501915085601f8301126119ef575f80fd5b8135818111156119fd575f80fd5b8660208260051b8501011115611a11575f80fd5b60209290920196919550909350505050565b602080825282518282018190525f9190848201906040850190845b81811015611a5c578351151583529284019291840191600101611a3e565b50909695505050505050565b5f8251611a798184602087016117e1565b9190910192915050565b634e487b7160e01b5f52604160045260245ffd5b634e487b7160e01b5f52603260045260245ffd5b5f60208284031215611abb575f80fd5b5051919050565b634e487b7160e01b5f52601160045260245ffd5b8181038181111561074b5761074b611ac2565b60408152826040820152828460608301375f606084830101525f601f19601f85011682016060838203016020840152611b25606082018561184c565b9695505050505050565b5f60208284031215611b3f575f80fd5b815180151581146108fc575f80fd5b5f63ffffffff821680611b6357611b63611ac2565b5f190192915050565b5f60208284031215611b7c575f80fd5b815163ffffffff811681146108fc575f80fd5b600181815b80851115611bcc578163ffffffff04821115611bb257611bb2611ac2565b80851615611bbf57918102915b93841c9390800290611b94565b509250929050565b5f82611be25750600161074b565b81611bee57505f61074b565b8160018114611c045760028114611c0e57611c3f565b600191505061074b565b60ff841115611c1f57611c1f611ac2565b6001841b915063ffffffff821115611c3957611c39611ac2565b5061074b565b5060208310610133831016604e8410600b8410161715611c76575081810a63ffffffff811115611c7157611c71611ac2565b61074b565b611c808383611b8f565b8063ffffffff04821115611c9657611c96611ac2565b029392505050565b5f63ffffffff611cb2818516828516611bd4565b949350505050565b634e487b7160e01b5f52601260045260245ffd5b5f63ffffffff80841680611ce457611ce4611cba565b92169190910692915050565b5f63ffffffff80841680611d0657611d06611cba565b92169190910492915050565b63ffffffff818116838216019080821115610dfe57610dfe611ac256fea2646970667358221220ffc955dece43c068fafd6d96a93d1630c7ea2c2c80e8f29d8601b751a7fbb6fc64736f6c63430008170033","opcodes":"PUSH1 0x80 PUSH1 0x40 MSTORE PUSH1 0x4 DUP1 SLOAD PUSH1 0x1 PUSH1 0x1 PUSH1 0x40 SHL SUB NOT AND SWAP1 SSTORE PUSH1 0xC DUP1 SLOAD PUSH4 0xFFFFFFFF NOT AND SWAP1 SSTORE CALLVALUE DUP1 ISZERO PUSH3 0x2D JUMPI PUSH0 DUP1 REVERT JUMPDEST POP PUSH1 0x40 MLOAD PUSH3 0x247A CODESIZE SUB DUP1 PUSH3 0x247A DUP4 CODECOPY DUP2 ADD PUSH1 0x40 DUP2 SWAP1 MSTORE PUSH3 0x50 SWAP2 PUSH3 0x6AD JUMP JUMPDEST DUP3 DUP3 DUP3 DUP1 PUSH0 DUP2 PUSH4 0xFFFFFFFF AND GT PUSH3 0xBB JUMPI PUSH1 0x40 MLOAD PUSH3 0x461BCD PUSH1 0xE5 SHL DUP2 MSTORE PUSH1 0x20 PUSH1 0x4 DUP3 ADD MSTORE PUSH1 0x23 PUSH1 0x24 DUP3 ADD MSTORE PUSH32 0x5F6C6576656C732073686F756C642062652067726561746572207468616E207A PUSH1 0x44 DUP3 ADD MSTORE PUSH3 0x65726F PUSH1 0xE8 SHL PUSH1 0x64 DUP3 ADD MSTORE PUSH1 0x84 ADD JUMPDEST PUSH1 0x40 MLOAD DUP1 SWAP2 SUB SWAP1 REVERT JUMPDEST PUSH1 0x14 DUP2 PUSH4 0xFFFFFFFF AND LT PUSH3 0x113 JUMPI PUSH1 0x40 MLOAD PUSH3 0x461BCD PUSH1 0xE5 SHL DUP2 MSTORE PUSH1 0x20 PUSH1 0x4 DUP3 ADD MSTORE PUSH1 0x1E PUSH1 0x24 DUP3 ADD MSTORE PUSH32 0x5F6C6576656C732073686F756C64206265206C657373207468616E2032300000 PUSH1 0x44 DUP3 ADD MSTORE PUSH1 0x64 ADD PUSH3 0xB2 JUMP JUMPDEST PUSH0 DUP1 SLOAD PUSH4 0xFFFFFFFF NOT AND PUSH4 0xFFFFFFFF DUP4 AND OR DUP2 SSTORE JUMPDEST DUP2 PUSH4 0xFFFFFFFF AND DUP2 PUSH4 0xFFFFFFFF AND LT ISZERO PUSH3 0x16C JUMPI PUSH3 0x14E PUSH4 0xFFFFFFFF DUP3 AND PUSH3 0x258 JUMP JUMPDEST PUSH4 0xFFFFFFFF DUP3 AND PUSH0 SWAP1 DUP2 MSTORE PUSH1 0x2 PUSH1 0x20 MSTORE PUSH1 0x40 SWAP1 KECCAK256 SSTORE PUSH1 0x1 ADD PUSH3 0x128 JUMP JUMPDEST POP PUSH3 0x17E PUSH4 0xFFFFFFFF DUP3 AND PUSH3 0x258 JUMP JUMPDEST PUSH0 DUP1 MSTORE PUSH1 0x3 PUSH1 0x20 MSTORE PUSH32 0x3617319A054D772F909F7C479A2CEBE5066E836A939412E32403C99029B92EFF SSTORE POP PUSH1 0x1 PUSH1 0x5 SSTORE DUP2 PUSH3 0x20B JUMPI PUSH1 0x40 MLOAD PUSH3 0x461BCD PUSH1 0xE5 SHL DUP2 MSTORE PUSH1 0x20 PUSH1 0x4 DUP3 ADD MSTORE PUSH1 0x25 PUSH1 0x24 DUP3 ADD MSTORE PUSH32 0x64656E6F6D696E6174696F6E2073686F756C6420626520677265617465722074 PUSH1 0x44 DUP3 ADD MSTORE PUSH5 0x68616E203 PUSH1 0xDC SHL PUSH1 0x64 DUP3 ADD MSTORE PUSH1 0x84 ADD PUSH3 0xB2 JUMP JUMPDEST POP PUSH1 0x7 DUP1 SLOAD PUSH1 0x1 PUSH1 0x1 PUSH1 0xA0 SHL SUB NOT AND PUSH1 0x1 PUSH1 0x1 PUSH1 0xA0 SHL SUB SWAP4 DUP5 AND OR SWAP1 SSTORE PUSH1 0x6 SSTORE PUSH1 0xC DUP1 SLOAD PUSH1 0x1 PUSH1 0x20 SHL PUSH1 0x1 PUSH1 0xC0 SHL SUB NOT AND PUSH5 0x100000000 SWAP7 SWAP1 SWAP3 AND SWAP6 SWAP1 SWAP6 MUL OR SWAP1 SWAP4 SSTORE POP PUSH3 0x707 SWAP2 POP POP JUMP JUMPDEST PUSH0 DUP2 PUSH0 SUB PUSH3 0x288 JUMPI POP PUSH32 0x2FE54C60D3ACABF3343A35B6EBA15DB4821B340F76E741E2249685ED4899AF6C SWAP2 SWAP1 POP JUMP JUMPDEST DUP2 PUSH1 0x1 SUB PUSH3 0x2B8 JUMPI POP PUSH32 0x4FC2FE9184A25F44CE8DDB5F32671FCAE6D9C85ED710C199ACEF16AD16B29911 SWAP2 SWAP1 POP JUMP JUMPDEST DUP2 PUSH1 0x2 SUB PUSH3 0x2E8 JUMPI POP PUSH32 0xD826A474F851C563052D929EF0DAA70F658ABA9BA084F51F6E3483C13C0E59A SWAP2 SWAP1 POP JUMP JUMPDEST DUP2 PUSH1 0x3 SUB PUSH3 0x318 JUMPI POP PUSH32 0xF7761A16B5E4C0120E4C5704B910DBE18FF6162A9668ED1C2C4EFDE7C4F15806 SWAP2 SWAP1 POP JUMP JUMPDEST DUP2 PUSH1 0x4 SUB PUSH3 0x348 JUMPI POP PUSH32 0xCE9CE09A0AB259D6D14CA3DCD74E6C6B9E7D9074BFF66973D4C57CCDFFDB2A82 SWAP2 SWAP1 POP JUMP JUMPDEST DUP2 PUSH1 0x5 SUB PUSH3 0x378 JUMPI POP PUSH32 0x2EFD44C63015FF1385344E0624867775486D05E6EB1290A24976964A598003B SWAP2 SWAP1 POP JUMP JUMPDEST DUP2 PUSH1 0x6 SUB PUSH3 0x3A8 JUMPI POP PUSH32 0xC4DEC5845D407CE2AC2E6824BB7857C4B138F819E5789D5D11E812DB10C846CD SWAP2 SWAP1 POP JUMP JUMPDEST DUP2 PUSH1 0x7 SUB PUSH3 0x3D8 JUMPI POP PUSH32 0x5FBE3F20C23F3BD6AC347917FB0903433E0B9A48373412348240A5F919BFDE19 SWAP2 SWAP1 POP JUMP JUMPDEST DUP2 PUSH1 0x8 SUB PUSH3 0x408 JUMPI POP PUSH32 0x92D1B07E56B3DA96B7917778CB657F2C513EAEEB4D1579A73B5EA316F25B7289 SWAP2 SWAP1 POP JUMP JUMPDEST DUP2 PUSH1 0x9 SUB PUSH3 0x438 JUMPI POP PUSH32 0xA08ADD5656D6D3D0827EF909F7647981EAC42AA1F51970A752F130F718F6D76A SWAP2 SWAP1 POP JUMP JUMPDEST DUP2 PUSH1 0xA SUB PUSH3 0x468 JUMPI POP PUSH32 0x1704C5F297590D8EC62776B0714F4F3F2234BAE0524035342B0DA8B8988EBD79 SWAP2 SWAP1 POP JUMP JUMPDEST DUP2 PUSH1 0xB SUB PUSH3 0x498 JUMPI POP PUSH32 0xC5AE2BD47379C2C6D1189CFC3D057948DC6054CAF845FCACD8F7AFFE94B11944 SWAP2 SWAP1 POP JUMP JUMPDEST DUP2 PUSH1 0xC SUB PUSH3 0x4C8 JUMPI POP PUSH32 0x12A161D6D5561062F387D91AD9F0F8966C0956AFDB9E8325458B9E5057B82BDB SWAP2 SWAP1 POP JUMP JUMPDEST DUP2 PUSH1 0xD SUB PUSH3 0x4F8 JUMPI POP PUSH32 0x4ADE524BA596DE20BBE94507A761C45251AE7A27857CEB4287D9018525B99BC5 SWAP2 SWAP1 POP JUMP JUMPDEST DUP2 PUSH1 0xE SUB PUSH3 0x528 JUMPI POP PUSH32 0x38287AD69151FA833BF4BF8B8EB6FFB39400A38F1A7E53B473F639C8C60FD5E4 SWAP2 SWAP1 POP JUMP JUMPDEST DUP2 PUSH1 0xF SUB PUSH3 0x558 JUMPI POP PUSH32 0x57F2ADE7D711707E785451F2ABA6C95872C7FE03153A98B7327B4024E8068FA3 SWAP2 SWAP1 POP JUMP JUMPDEST DUP2 PUSH1 0x10 SUB PUSH3 0x588 JUMPI POP PUSH32 0xB1982E0D1B0DE46A88D8B17941472E41A86D3FF64571ED8E0CA72D58633547FC SWAP2 SWAP1 POP JUMP JUMPDEST DUP2 PUSH1 0x11 SUB PUSH3 0x5B8 JUMPI POP PUSH32 0xB7C60F8670AF15EB32B4EE36727179BC085A3DDE03D5F9A1486664BA576B30A6 SWAP2 SWAP1 POP JUMP JUMPDEST DUP2 PUSH1 0x12 SUB PUSH3 0x5E8 JUMPI POP PUSH32 0x5FF905C5C659A926B132EF3665A3DE5D5A859C1D479E68851085BFC0348C5331 SWAP2 SWAP1 POP JUMP JUMPDEST DUP2 PUSH1 0x13 SUB PUSH3 0x618 JUMPI POP PUSH32 0xB4DFA78B912E98C9F7EB42D71EB537A02BF3173D44A2EB887A48B3972072DD8E SWAP2 SWAP1 POP JUMP JUMPDEST DUP2 PUSH1 0x14 SUB PUSH3 0x648 JUMPI POP PUSH32 0x60919A16A2EB8B91CFB8BA1E5B4C155A76A14C217B5403EDBD563F34E508ECDC SWAP2 SWAP1 POP JUMP JUMPDEST PUSH1 0x40 MLOAD PUSH3 0x461BCD PUSH1 0xE5 SHL DUP2 MSTORE PUSH1 0x20 PUSH1 0x4 DUP3 ADD MSTORE PUSH1 0x13 PUSH1 0x24 DUP3 ADD MSTORE PUSH32 0x496E646578206F7574206F6620626F756E647300000000000000000000000000 PUSH1 0x44 DUP3 ADD MSTORE PUSH1 0x64 ADD PUSH3 0xB2 JUMP JUMPDEST SWAP2 SWAP1 POP JUMP JUMPDEST DUP1 MLOAD PUSH1 0x1 PUSH1 0x1 PUSH1 0xA0 SHL SUB DUP2 AND DUP2 EQ PUSH3 0x691 JUMPI PUSH0 DUP1 REVERT JUMPDEST PUSH0 DUP1 PUSH0 DUP1 PUSH1 0x80 DUP6 DUP8 SUB SLT ISZERO PUSH3 0x6C1 JUMPI PUSH0 DUP1 REVERT JUMPDEST PUSH3 0x6CC DUP6 PUSH3 0x696 JUMP JUMPDEST SWAP4 POP PUSH3 0x6DC PUSH1 0x20 DUP7 ADD PUSH3 0x696 JUMP JUMPDEST SWAP3 POP PUSH1 0x40 DUP6 ADD MLOAD SWAP2 POP PUSH1 0x60 DUP6 ADD MLOAD PUSH4 0xFFFFFFFF DUP2 AND DUP2 EQ PUSH3 0x6FC JUMPI PUSH0 DUP1 REVERT JUMPDEST SWAP4 SWAP7 SWAP3 SWAP6 POP SWAP1 SWAP4 POP POP JUMP JUMPDEST PUSH2 0x1D65 DUP1 PUSH3 0x715 PUSH0 CODECOPY PUSH0 RETURN INVALID PUSH1 0x80 PUSH1 0x40 MSTORE PUSH1 0x4 CALLDATASIZE LT PUSH2 0x1C8 JUMPI PUSH0 CALLDATALOAD PUSH1 0xE0 SHR DUP1 PUSH4 0x8BCA6D16 GT PUSH2 0xF2 JUMPI DUP1 PUSH4 0xC2EEEEBD GT PUSH2 0x92 JUMPI DUP1 PUSH4 0xE993D00B GT PUSH2 0x62 JUMPI DUP1 PUSH4 0xE993D00B EQ PUSH2 0x5F4 JUMPI DUP1 PUSH4 0xF178E47C EQ PUSH2 0x613 JUMPI DUP1 PUSH4 0xF18D20BE EQ PUSH2 0x63E JUMPI DUP1 PUSH4 0xFC7E9C6F EQ PUSH2 0x646 JUMPI PUSH0 DUP1 REVERT JUMPDEST DUP1 PUSH4 0xC2EEEEBD EQ PUSH2 0x56D JUMPI DUP1 PUSH4 0xCD87A3B4 EQ PUSH2 0x593 JUMPI DUP1 PUSH4 0xE5285DCC EQ PUSH2 0x5A7 JUMPI DUP1 PUSH4 0xE8295588 EQ PUSH2 0x5D5 JUMPI PUSH0 DUP1 REVERT JUMPDEST DUP1 PUSH4 0x9FA12D0B GT PUSH2 0xCD JUMPI DUP1 PUSH4 0x9FA12D0B EQ PUSH2 0x4DB JUMPI DUP1 PUSH4 0xB214FAA5 EQ PUSH2 0x507 JUMPI DUP1 PUSH4 0xBA70F757 EQ PUSH2 0x51A JUMPI DUP1 PUSH4 0xC2B40AE4 EQ PUSH2 0x542 JUMPI PUSH0 DUP1 REVERT JUMPDEST DUP1 PUSH4 0x8BCA6D16 EQ PUSH2 0x47F JUMPI DUP1 PUSH4 0x90EEB02B EQ PUSH2 0x494 JUMPI DUP1 PUSH4 0x9EC44154 EQ PUSH2 0x4B0 JUMPI PUSH0 DUP1 REVERT JUMPDEST DUP1 PUSH4 0x3ED4EAE5 GT PUSH2 0x168 JUMPI DUP1 PUSH4 0x50241A3F GT PUSH2 0x138 JUMPI DUP1 PUSH4 0x50241A3F EQ PUSH2 0x3FE JUMPI DUP1 PUSH4 0x5032D4F1 EQ PUSH2 0x413 JUMPI DUP1 PUSH4 0x6D9833E3 EQ PUSH2 0x432 JUMPI DUP1 PUSH4 0x839DF945 EQ PUSH2 0x451 JUMPI PUSH0 DUP1 REVERT JUMPDEST DUP1 PUSH4 0x3ED4EAE5 EQ PUSH2 0x352 JUMPI DUP1 PUSH4 0x48EE98DA EQ PUSH2 0x371 JUMPI DUP1 PUSH4 0x4ECF518B EQ PUSH2 0x3B7 JUMPI DUP1 PUSH4 0x4FE3FBF0 EQ PUSH2 0x3D2 JUMPI PUSH0 DUP1 REVERT JUMPDEST DUP1 PUSH4 0x2B7AC3F3 GT PUSH2 0x1A3 JUMPI DUP1 PUSH4 0x2B7AC3F3 EQ PUSH2 0x277 JUMPI DUP1 PUSH4 0x2C0EE3C4 EQ PUSH2 0x2AE JUMPI DUP1 PUSH4 0x3591D78D EQ PUSH2 0x2D0 JUMPI DUP1 PUSH4 0x38BF282E EQ PUSH2 0x2FE JUMPI PUSH0 DUP1 REVERT JUMPDEST DUP1 PUSH4 0x102B72E7 EQ PUSH2 0x1D3 JUMPI DUP1 PUSH4 0x164DDD01 EQ PUSH2 0x208 JUMPI DUP1 PUSH4 0x2997E86B EQ PUSH2 0x239 JUMPI PUSH0 DUP1 REVERT JUMPDEST CALLDATASIZE PUSH2 0x1CF JUMPI STOP JUMPDEST PUSH0 DUP1 REVERT JUMPDEST CALLVALUE DUP1 ISZERO PUSH2 0x1DE JUMPI PUSH0 DUP1 REVERT JUMPDEST POP PUSH2 0x1F2 PUSH2 0x1ED CALLDATASIZE PUSH1 0x4 PUSH2 0x17B7 JUMP JUMPDEST PUSH2 0x669 JUMP JUMPDEST PUSH1 0x40 MLOAD PUSH2 0x1FF SWAP2 SWAP1 PUSH2 0x1803 JUMP JUMPDEST PUSH1 0x40 MLOAD DUP1 SWAP2 SUB SWAP1 RETURN JUMPDEST CALLVALUE DUP1 ISZERO PUSH2 0x213 JUMPI PUSH0 DUP1 REVERT JUMPDEST POP PUSH1 0xC SLOAD PUSH2 0x224 SWAP1 PUSH4 0xFFFFFFFF AND DUP2 JUMP JUMPDEST PUSH1 0x40 MLOAD PUSH4 0xFFFFFFFF SWAP1 SWAP2 AND DUP2 MSTORE PUSH1 0x20 ADD PUSH2 0x1FF JUMP JUMPDEST CALLVALUE DUP1 ISZERO PUSH2 0x244 JUMPI PUSH0 DUP1 REVERT JUMPDEST POP PUSH2 0x267 PUSH2 0x253 CALLDATASIZE PUSH1 0x4 PUSH2 0x1835 JUMP JUMPDEST PUSH1 0x8 PUSH1 0x20 MSTORE PUSH0 SWAP1 DUP2 MSTORE PUSH1 0x40 SWAP1 KECCAK256 SLOAD PUSH1 0xFF AND DUP2 JUMP JUMPDEST PUSH1 0x40 MLOAD SWAP1 ISZERO ISZERO DUP2 MSTORE PUSH1 0x20 ADD PUSH2 0x1FF JUMP JUMPDEST CALLVALUE DUP1 ISZERO PUSH2 0x282 JUMPI PUSH0 DUP1 REVERT JUMPDEST POP PUSH1 0x7 SLOAD PUSH2 0x296 SWAP1 PUSH1 0x1 PUSH1 0x1 PUSH1 0xA0 SHL SUB AND DUP2 JUMP JUMPDEST PUSH1 0x40 MLOAD PUSH1 0x1 PUSH1 0x1 PUSH1 0xA0 SHL SUB SWAP1 SWAP2 AND DUP2 MSTORE PUSH1 0x20 ADD PUSH2 0x1FF JUMP JUMPDEST CALLVALUE DUP1 ISZERO PUSH2 0x2B9 JUMPI PUSH0 DUP1 REVERT JUMPDEST POP PUSH2 0x2C2 PUSH2 0x751 JUMP JUMPDEST PUSH1 0x40 MLOAD PUSH2 0x1FF SWAP3 SWAP2 SWAP1 PUSH2 0x1886 JUMP JUMPDEST CALLVALUE DUP1 ISZERO PUSH2 0x2DB JUMPI PUSH0 DUP1 REVERT JUMPDEST POP PUSH2 0x267 PUSH2 0x2EA CALLDATASIZE PUSH1 0x4 PUSH2 0x1835 JUMP JUMPDEST PUSH1 0xA PUSH1 0x20 MSTORE PUSH0 SWAP1 DUP2 MSTORE PUSH1 0x40 SWAP1 KECCAK256 SLOAD PUSH1 0xFF AND DUP2 JUMP JUMPDEST CALLVALUE DUP1 ISZERO PUSH2 0x309 JUMPI PUSH0 DUP1 REVERT JUMPDEST POP PUSH2 0x344 PUSH2 0x318 CALLDATASIZE PUSH1 0x4 PUSH2 0x18B3 JUMP JUMPDEST PUSH1 0x40 DUP1 MLOAD PUSH1 0x20 DUP1 DUP3 ADD SWAP5 SWAP1 SWAP5 MSTORE DUP1 DUP3 ADD SWAP3 SWAP1 SWAP3 MSTORE DUP1 MLOAD DUP1 DUP4 SUB DUP3 ADD DUP2 MSTORE PUSH1 0x60 SWAP1 SWAP3 ADD SWAP1 MSTORE DUP1 MLOAD SWAP2 ADD KECCAK256 SWAP1 JUMP JUMPDEST PUSH1 0x40 MLOAD SWAP1 DUP2 MSTORE PUSH1 0x20 ADD PUSH2 0x1FF JUMP JUMPDEST CALLVALUE DUP1 ISZERO PUSH2 0x35D JUMPI PUSH0 DUP1 REVERT JUMPDEST POP PUSH2 0x344 PUSH2 0x36C CALLDATASIZE PUSH1 0x4 PUSH2 0x1835 JUMP JUMPDEST PUSH2 0x89A JUMP JUMPDEST CALLVALUE DUP1 ISZERO PUSH2 0x37C JUMPI PUSH0 DUP1 REVERT JUMPDEST POP PUSH2 0x344 PUSH2 0x38B CALLDATASIZE PUSH1 0x4 PUSH2 0x1835 JUMP JUMPDEST PUSH1 0x40 DUP1 MLOAD PUSH1 0x20 DUP1 DUP3 ADD SWAP4 SWAP1 SWAP4 MSTORE PUSH1 0x3 DUP2 DUP4 ADD MSTORE DUP2 MLOAD DUP1 DUP3 SUB DUP4 ADD DUP2 MSTORE PUSH1 0x60 SWAP1 SWAP2 ADD SWAP1 SWAP2 MSTORE DUP1 MLOAD SWAP2 ADD KECCAK256 SWAP1 JUMP JUMPDEST CALLVALUE DUP1 ISZERO PUSH2 0x3C2 JUMPI PUSH0 DUP1 REVERT JUMPDEST POP PUSH0 SLOAD PUSH2 0x224 SWAP1 PUSH4 0xFFFFFFFF AND DUP2 JUMP JUMPDEST CALLVALUE DUP1 ISZERO PUSH2 0x3DD JUMPI PUSH0 DUP1 REVERT JUMPDEST POP PUSH2 0x3F1 PUSH2 0x3EC CALLDATASIZE PUSH1 0x4 PUSH2 0x18D3 JUMP JUMPDEST PUSH2 0x903 JUMP JUMPDEST PUSH1 0x40 MLOAD PUSH2 0x1FF SWAP2 SWAP1 PUSH2 0x1909 JUMP JUMPDEST PUSH2 0x411 PUSH2 0x40C CALLDATASIZE PUSH1 0x4 PUSH2 0x191B JUMP JUMPDEST PUSH2 0x9FE JUMP JUMPDEST STOP JUMPDEST CALLVALUE DUP1 ISZERO PUSH2 0x41E JUMPI PUSH0 DUP1 REVERT JUMPDEST POP PUSH2 0x344 PUSH2 0x42D CALLDATASIZE PUSH1 0x4 PUSH2 0x1835 JUMP JUMPDEST PUSH2 0xC9C JUMP JUMPDEST CALLVALUE DUP1 ISZERO PUSH2 0x43D JUMPI PUSH0 DUP1 REVERT JUMPDEST POP PUSH2 0x267 PUSH2 0x44C CALLDATASIZE PUSH1 0x4 PUSH2 0x1835 JUMP JUMPDEST PUSH2 0xCD2 JUMP JUMPDEST CALLVALUE DUP1 ISZERO PUSH2 0x45C JUMPI PUSH0 DUP1 REVERT JUMPDEST POP PUSH2 0x267 PUSH2 0x46B CALLDATASIZE PUSH1 0x4 PUSH2 0x1835 JUMP JUMPDEST PUSH1 0x9 PUSH1 0x20 MSTORE PUSH0 SWAP1 DUP2 MSTORE PUSH1 0x40 SWAP1 KECCAK256 SLOAD PUSH1 0xFF AND DUP2 JUMP JUMPDEST CALLVALUE DUP1 ISZERO PUSH2 0x48A JUMPI PUSH0 DUP1 REVERT JUMPDEST POP PUSH2 0x344 PUSH1 0x6 SLOAD DUP2 JUMP JUMPDEST CALLVALUE DUP1 ISZERO PUSH2 0x49F JUMPI PUSH0 DUP1 REVERT JUMPDEST POP PUSH1 0x4 SLOAD PUSH2 0x224 SWAP1 PUSH4 0xFFFFFFFF AND DUP2 JUMP JUMPDEST CALLVALUE DUP1 ISZERO PUSH2 0x4BB JUMPI PUSH0 DUP1 REVERT JUMPDEST POP PUSH2 0x344 PUSH2 0x4CA CALLDATASIZE PUSH1 0x4 PUSH2 0x1835 JUMP JUMPDEST PUSH1 0x1 PUSH1 0x20 MSTORE PUSH0 SWAP1 DUP2 MSTORE PUSH1 0x40 SWAP1 KECCAK256 SLOAD DUP2 JUMP JUMPDEST CALLVALUE DUP1 ISZERO PUSH2 0x4E6 JUMPI PUSH0 DUP1 REVERT JUMPDEST POP PUSH2 0x4FA PUSH2 0x4F5 CALLDATASIZE PUSH1 0x4 PUSH2 0x19B4 JUMP JUMPDEST PUSH2 0xD4B JUMP JUMPDEST PUSH1 0x40 MLOAD PUSH2 0x1FF SWAP2 SWAP1 PUSH2 0x1A23 JUMP JUMPDEST PUSH2 0x411 PUSH2 0x515 CALLDATASIZE PUSH1 0x4 PUSH2 0x1835 JUMP JUMPDEST PUSH2 0xE05 JUMP JUMPDEST CALLVALUE DUP1 ISZERO PUSH2 0x525 JUMPI PUSH0 DUP1 REVERT JUMPDEST POP PUSH1 0x4 SLOAD PUSH4 0xFFFFFFFF AND PUSH0 SWAP1 DUP2 MSTORE PUSH1 0x3 PUSH1 0x20 MSTORE PUSH1 0x40 SWAP1 KECCAK256 SLOAD PUSH2 0x344 JUMP JUMPDEST CALLVALUE DUP1 ISZERO PUSH2 0x54D JUMPI PUSH0 DUP1 REVERT JUMPDEST POP PUSH2 0x344 PUSH2 0x55C CALLDATASIZE PUSH1 0x4 PUSH2 0x1835 JUMP JUMPDEST PUSH1 0x3 PUSH1 0x20 MSTORE PUSH0 SWAP1 DUP2 MSTORE PUSH1 0x40 SWAP1 KECCAK256 SLOAD DUP2 JUMP JUMPDEST CALLVALUE DUP1 ISZERO PUSH2 0x578 JUMPI PUSH0 DUP1 REVERT JUMPDEST POP PUSH1 0xC SLOAD PUSH2 0x296 SWAP1 PUSH1 0x1 PUSH1 0x20 SHL SWAP1 DIV PUSH1 0x1 PUSH1 0x1 PUSH1 0xA0 SHL SUB AND DUP2 JUMP JUMPDEST CALLVALUE DUP1 ISZERO PUSH2 0x59E JUMPI PUSH0 DUP1 REVERT JUMPDEST POP PUSH2 0x224 PUSH1 0x1E DUP2 JUMP JUMPDEST CALLVALUE DUP1 ISZERO PUSH2 0x5B2 JUMPI PUSH0 DUP1 REVERT JUMPDEST POP PUSH2 0x267 PUSH2 0x5C1 CALLDATASIZE PUSH1 0x4 PUSH2 0x1835 JUMP JUMPDEST PUSH0 SWAP1 DUP2 MSTORE PUSH1 0x8 PUSH1 0x20 MSTORE PUSH1 0x40 SWAP1 KECCAK256 SLOAD PUSH1 0xFF AND SWAP1 JUMP JUMPDEST CALLVALUE DUP1 ISZERO PUSH2 0x5E0 JUMPI PUSH0 DUP1 REVERT JUMPDEST POP PUSH2 0x344 PUSH2 0x5EF CALLDATASIZE PUSH1 0x4 PUSH2 0x1835 JUMP JUMPDEST PUSH2 0xEEF JUMP JUMPDEST CALLVALUE DUP1 ISZERO PUSH2 0x5FF JUMPI PUSH0 DUP1 REVERT JUMPDEST POP PUSH2 0x267 PUSH2 0x60E CALLDATASIZE PUSH1 0x4 PUSH2 0x1835 JUMP JUMPDEST PUSH2 0x1308 JUMP JUMPDEST CALLVALUE DUP1 ISZERO PUSH2 0x61E JUMPI PUSH0 DUP1 REVERT JUMPDEST POP PUSH2 0x344 PUSH2 0x62D CALLDATASIZE PUSH1 0x4 PUSH2 0x1835 JUMP JUMPDEST PUSH1 0x2 PUSH1 0x20 MSTORE PUSH0 SWAP1 DUP2 MSTORE PUSH1 0x40 SWAP1 KECCAK256 SLOAD DUP2 JUMP JUMPDEST PUSH2 0x411 PUSH2 0x13AB JUMP JUMPDEST CALLVALUE DUP1 ISZERO PUSH2 0x651 JUMPI PUSH0 DUP1 REVERT JUMPDEST POP PUSH1 0x4 SLOAD PUSH2 0x224 SWAP1 PUSH1 0x1 PUSH1 0x20 SHL SWAP1 DIV PUSH4 0xFFFFFFFF AND DUP2 JUMP JUMPDEST PUSH1 0x40 MLOAD PUSH1 0x60 DUP4 DUP2 SHL PUSH12 0xFFFFFFFFFFFFFFFFFFFFFFFF NOT AND PUSH1 0x20 DUP4 ADD MSTORE PUSH1 0x34 DUP3 ADD DUP4 SWAP1 MSTORE SWAP1 PUSH0 SWAP1 PUSH1 0x54 ADD PUSH1 0x40 MLOAD PUSH1 0x20 DUP2 DUP4 SUB SUB DUP2 MSTORE SWAP1 PUSH1 0x40 MSTORE SWAP1 POP PUSH0 PUSH1 0x60 PUSH2 0x101 PUSH1 0x1 PUSH1 0x1 PUSH1 0xA0 SHL SUB AND DUP4 PUSH1 0x40 MLOAD PUSH2 0x6C0 SWAP2 SWAP1 PUSH2 0x1A68 JUMP JUMPDEST PUSH0 PUSH1 0x40 MLOAD DUP1 DUP4 SUB DUP2 DUP6 GAS STATICCALL SWAP2 POP POP RETURNDATASIZE DUP1 PUSH0 DUP2 EQ PUSH2 0x6F8 JUMPI PUSH1 0x40 MLOAD SWAP2 POP PUSH1 0x1F NOT PUSH1 0x3F RETURNDATASIZE ADD AND DUP3 ADD PUSH1 0x40 MSTORE RETURNDATASIZE DUP3 MSTORE RETURNDATASIZE PUSH0 PUSH1 0x20 DUP5 ADD RETURNDATACOPY PUSH2 0x6FD JUMP JUMPDEST PUSH1 0x60 SWAP2 POP JUMPDEST POP SWAP1 SWAP3 POP SWAP1 POP DUP2 PUSH2 0x746 JUMPI PUSH1 0x40 MLOAD PUSH3 0x461BCD PUSH1 0xE5 SHL DUP2 MSTORE PUSH1 0x20 PUSH1 0x4 DUP3 ADD MSTORE PUSH1 0xE PUSH1 0x24 DUP3 ADD MSTORE PUSH14 0x130C54D313D0510819985A5B1959 PUSH1 0x92 SHL PUSH1 0x44 DUP3 ADD MSTORE PUSH1 0x64 ADD JUMPDEST PUSH1 0x40 MLOAD DUP1 SWAP2 SUB SWAP1 REVERT JUMPDEST SWAP3 POP POP POP JUMPDEST SWAP3 SWAP2 POP POP JUMP JUMPDEST PUSH1 0x40 DUP1 MLOAD PUSH1 0x20 DUP1 DUP3 MSTORE PUSH2 0x420 DUP3 ADD SWAP1 SWAP3 MSTORE PUSH1 0x60 SWAP2 DUP3 SWAP2 PUSH0 SWAP1 DUP3 DUP1 DUP3 ADD PUSH2 0x400 DUP1 CALLDATASIZE DUP4 CALLDATACOPY ADD SWAP1 POP POP PUSH1 0x4 SLOAD SWAP1 SWAP2 POP PUSH0 SWAP1 PUSH1 0x1 PUSH1 0x20 SHL SWAP1 DIV PUSH4 0xFFFFFFFF AND PUSH8 0xFFFFFFFFFFFFFFFF DUP2 GT ISZERO PUSH2 0x7A5 JUMPI PUSH2 0x7A5 PUSH2 0x1A83 JUMP JUMPDEST PUSH1 0x40 MLOAD SWAP1 DUP1 DUP3 MSTORE DUP1 PUSH1 0x20 MUL PUSH1 0x20 ADD DUP3 ADD PUSH1 0x40 MSTORE DUP1 ISZERO PUSH2 0x7CE JUMPI DUP2 PUSH1 0x20 ADD PUSH1 0x20 DUP3 MUL DUP1 CALLDATASIZE DUP4 CALLDATACOPY ADD SWAP1 POP JUMPDEST POP SWAP1 POP PUSH0 JUMPDEST PUSH1 0x4 SLOAD PUSH4 0xFFFFFFFF PUSH1 0x1 PUSH1 0x20 SHL SWAP1 SWAP2 DIV DUP2 AND SWAP1 DUP3 AND LT ISZERO PUSH2 0x82A JUMPI PUSH4 0xFFFFFFFF DUP2 AND PUSH0 DUP2 DUP2 MSTORE PUSH1 0x1 PUSH1 0x20 MSTORE PUSH1 0x40 SWAP1 KECCAK256 SLOAD DUP4 MLOAD SWAP1 SWAP2 DUP5 SWAP2 DUP2 LT PUSH2 0x817 JUMPI PUSH2 0x817 PUSH2 0x1A97 JUMP JUMPDEST PUSH1 0x20 SWAP1 DUP2 MUL SWAP2 SWAP1 SWAP2 ADD ADD MSTORE PUSH1 0x1 ADD PUSH2 0x7D3 JUMP JUMPDEST POP PUSH0 JUMPDEST DUP4 PUSH4 0xFFFFFFFF AND DUP2 PUSH4 0xFFFFFFFF AND LT ISZERO PUSH2 0x88F JUMPI PUSH2 0x850 DUP2 PUSH4 0xFFFFFFFF AND PUSH2 0x89A JUMP JUMPDEST ISZERO PUSH2 0x88F JUMPI PUSH2 0x864 DUP2 PUSH4 0xFFFFFFFF AND PUSH2 0x89A JUMP JUMPDEST DUP4 DUP3 PUSH4 0xFFFFFFFF AND DUP2 MLOAD DUP2 LT PUSH2 0x87C JUMPI PUSH2 0x87C PUSH2 0x1A97 JUMP JUMPDEST PUSH1 0x20 SWAP1 DUP2 MUL SWAP2 SWAP1 SWAP2 ADD ADD MSTORE PUSH1 0x1 ADD PUSH2 0x82D JUMP JUMPDEST POP SWAP1 SWAP5 SWAP1 SWAP4 POP SWAP2 POP POP JUMP JUMPDEST PUSH1 0xC SLOAD PUSH1 0x40 DUP1 MLOAD PUSH1 0x20 DUP2 ADD DUP5 SWAP1 MSTORE PUSH1 0x1 SWAP2 DUP2 ADD DUP3 SWAP1 MSTORE PUSH0 SWAP3 PUSH2 0x8E9 SWAP2 PUSH1 0x1 PUSH1 0x20 SHL SWAP1 SWAP2 DIV PUSH1 0x1 PUSH1 0x1 PUSH1 0xA0 SHL SUB AND SWAP1 PUSH1 0x60 ADD JUMPDEST PUSH1 0x40 MLOAD PUSH1 0x20 DUP2 DUP4 SUB SUB DUP2 MSTORE SWAP1 PUSH1 0x40 MSTORE DUP1 MLOAD SWAP1 PUSH1 0x20 ADD KECCAK256 PUSH0 SHR PUSH2 0x669 JUMP JUMPDEST DUP1 PUSH1 0x20 ADD SWAP1 MLOAD DUP2 ADD SWAP1 PUSH2 0x8FC SWAP2 SWAP1 PUSH2 0x1AAB JUMP JUMPDEST SWAP4 SWAP3 POP POP POP JUMP JUMPDEST PUSH1 0x40 DUP1 MLOAD PUSH1 0x41 DUP1 DUP3 MSTORE PUSH2 0x840 DUP3 ADD SWAP1 SWAP3 MSTORE PUSH1 0x60 SWAP2 PUSH0 SWAP2 SWAP1 PUSH1 0x20 DUP3 ADD PUSH2 0x820 DUP1 CALLDATASIZE DUP4 CALLDATACOPY ADD SWAP1 POP POP SWAP1 POP PUSH0 JUMPDEST PUSH1 0x20 DUP2 LT ISZERO PUSH2 0x973 JUMPI DUP6 DUP2 PUSH1 0x20 DUP2 LT PUSH2 0x948 JUMPI PUSH2 0x948 PUSH2 0x1A97 JUMP JUMPDEST DUP4 MLOAD SWAP2 SWAP1 BYTE SWAP1 DUP4 SWAP1 DUP4 SWAP1 DUP2 LT PUSH2 0x960 JUMPI PUSH2 0x960 PUSH2 0x1A97 JUMP JUMPDEST PUSH1 0x20 SWAP1 DUP2 MUL SWAP2 SWAP1 SWAP2 ADD ADD MSTORE PUSH1 0x1 ADD PUSH2 0x92D JUMP JUMPDEST POP PUSH1 0x20 JUMPDEST PUSH1 0x40 DUP2 LT ISZERO PUSH2 0x9C7 JUMPI DUP5 PUSH2 0x98C PUSH1 0x20 DUP4 PUSH2 0x1AD6 JUMP JUMPDEST PUSH1 0x20 DUP2 LT PUSH2 0x99C JUMPI PUSH2 0x99C PUSH2 0x1A97 JUMP JUMPDEST DUP4 MLOAD SWAP2 SWAP1 BYTE SWAP1 DUP4 SWAP1 DUP4 SWAP1 DUP2 LT PUSH2 0x9B4 JUMPI PUSH2 0x9B4 PUSH2 0x1A97 JUMP JUMPDEST PUSH1 0x20 SWAP1 DUP2 MUL SWAP2 SWAP1 SWAP2 ADD ADD MSTORE PUSH1 0x1 ADD PUSH2 0x977 JUMP JUMPDEST POP DUP1 MLOAD PUSH1 0x1 PUSH1 0x1 PUSH1 0xA0 SHL SUB DUP5 AND SWAP1 DUP2 SWAP1 DUP4 SWAP1 PUSH1 0x40 SWAP1 DUP2 LT PUSH2 0x9EA JUMPI PUSH2 0x9EA PUSH2 0x1A97 JUMP JUMPDEST PUSH1 0x20 SWAP1 DUP2 MUL SWAP2 SWAP1 SWAP2 ADD ADD MSTORE POP SWAP5 SWAP4 POP POP POP POP JUMP JUMPDEST PUSH2 0xA06 PUSH2 0x146C JUMP JUMPDEST CHAINID PUSH3 0xAA36A7 SUB PUSH2 0xA58 JUMPI PUSH1 0x40 MLOAD PUSH3 0x461BCD PUSH1 0xE5 SHL DUP2 MSTORE PUSH1 0x20 PUSH1 0x4 DUP3 ADD MSTORE PUSH1 0x1D PUSH1 0x24 DUP3 ADD MSTORE PUSH32 0x7769746864726177616C206F6E6C7920616C6C6F776564206F6E204C32000000 PUSH1 0x44 DUP3 ADD MSTORE PUSH1 0x64 ADD PUSH2 0x73D JUMP JUMPDEST PUSH0 DUP5 DUP2 MSTORE PUSH1 0x8 PUSH1 0x20 MSTORE PUSH1 0x40 SWAP1 KECCAK256 SLOAD PUSH1 0xFF AND ISZERO PUSH2 0xAB6 JUMPI PUSH1 0x40 MLOAD PUSH3 0x461BCD PUSH1 0xE5 SHL DUP2 MSTORE PUSH1 0x20 PUSH1 0x4 DUP3 ADD MSTORE PUSH1 0x1F PUSH1 0x24 DUP3 ADD MSTORE PUSH32 0x546865206E6F746520686173206265656E20616C7265616479207370656E7400 PUSH1 0x44 DUP3 ADD MSTORE PUSH1 0x64 ADD PUSH2 0x73D JUMP JUMPDEST PUSH2 0xABF DUP6 PUSH2 0xCD2 JUMP JUMPDEST PUSH2 0xB0B JUMPI PUSH1 0x40 MLOAD PUSH3 0x461BCD PUSH1 0xE5 SHL DUP2 MSTORE PUSH1 0x20 PUSH1 0x4 DUP3 ADD MSTORE PUSH1 0x1F PUSH1 0x24 DUP3 ADD MSTORE PUSH32 0x43616E6E6F742066696E6420796F7572206C32206D65726B6C6520726F6F7400 PUSH1 0x44 DUP3 ADD MSTORE PUSH1 0x64 ADD PUSH2 0x73D JUMP JUMPDEST PUSH2 0xB14 DUP7 PUSH2 0x1308 JUMP JUMPDEST PUSH2 0xB60 JUMPI PUSH1 0x40 MLOAD PUSH3 0x461BCD PUSH1 0xE5 SHL DUP2 MSTORE PUSH1 0x20 PUSH1 0x4 DUP3 ADD MSTORE PUSH1 0x1F PUSH1 0x24 DUP3 ADD MSTORE PUSH32 0x43616E6E6F742066696E6420796F7572206C31206D65726B6C6520726F6F7400 PUSH1 0x44 DUP3 ADD MSTORE PUSH1 0x64 ADD PUSH2 0x73D JUMP JUMPDEST PUSH1 0x40 DUP1 MLOAD PUSH1 0x20 DUP1 DUP3 ADD DUP10 SWAP1 MSTORE DUP2 DUP4 ADD DUP9 SWAP1 MSTORE DUP3 MLOAD DUP1 DUP4 SUB DUP5 ADD DUP2 MSTORE PUSH1 0x60 SWAP1 SWAP3 ADD SWAP1 SWAP3 MSTORE DUP1 MLOAD SWAP2 ADD KECCAK256 PUSH0 PUSH2 0xB94 DUP3 DUP8 DUP8 PUSH2 0x903 JUMP JUMPDEST PUSH1 0x7 SLOAD PUSH1 0x40 MLOAD PUSH4 0x3A943439 PUSH1 0xE2 SHL DUP2 MSTORE SWAP2 SWAP3 POP PUSH1 0x1 PUSH1 0x1 PUSH1 0xA0 SHL SUB AND SWAP1 PUSH4 0xEA50D0E4 SWAP1 PUSH2 0xBC9 SWAP1 DUP8 SWAP1 DUP8 SWAP1 DUP7 SWAP1 PUSH1 0x4 ADD PUSH2 0x1AE9 JUMP JUMPDEST PUSH1 0x20 PUSH1 0x40 MLOAD DUP1 DUP4 SUB DUP2 DUP7 GAS STATICCALL ISZERO DUP1 ISZERO PUSH2 0xBE4 JUMPI RETURNDATASIZE PUSH0 DUP1 RETURNDATACOPY RETURNDATASIZE PUSH0 REVERT JUMPDEST POP POP POP POP PUSH1 0x40 MLOAD RETURNDATASIZE PUSH1 0x1F NOT PUSH1 0x1F DUP3 ADD AND DUP3 ADD DUP1 PUSH1 0x40 MSTORE POP DUP2 ADD SWAP1 PUSH2 0xC08 SWAP2 SWAP1 PUSH2 0x1B2F JUMP JUMPDEST PUSH2 0xC25 JUMPI PUSH1 0x40 MLOAD PUSH4 0x439CC0CD PUSH1 0xE0 SHL DUP2 MSTORE PUSH1 0x4 ADD PUSH1 0x40 MLOAD DUP1 SWAP2 SUB SWAP1 REVERT JUMPDEST PUSH0 DUP7 DUP2 MSTORE PUSH1 0x8 PUSH1 0x20 MSTORE PUSH1 0x40 SWAP1 KECCAK256 DUP1 SLOAD PUSH1 0xFF NOT AND PUSH1 0x1 OR SWAP1 SSTORE PUSH2 0xC46 DUP6 PUSH2 0x1496 JUMP JUMPDEST PUSH1 0x40 DUP1 MLOAD PUSH1 0x1 PUSH1 0x1 PUSH1 0xA0 SHL SUB DUP8 AND DUP2 MSTORE PUSH1 0x20 DUP2 ADD DUP9 SWAP1 MSTORE PUSH32 0xCE490531F6C8AE2F1FF174643BC8B7ED5E52987AB50DC1E8F33655D2CD8C90B SWAP2 ADD PUSH1 0x40 MLOAD DUP1 SWAP2 SUB SWAP1 LOG1 POP POP PUSH2 0xC94 PUSH1 0x1 PUSH1 0x5 SSTORE JUMP JUMPDEST POP POP POP POP POP POP JUMP JUMPDEST PUSH1 0xC SLOAD PUSH1 0x40 DUP1 MLOAD PUSH1 0x20 DUP2 ADD DUP5 SWAP1 MSTORE PUSH1 0x3 SWAP2 DUP2 ADD DUP3 SWAP1 MSTORE PUSH0 SWAP3 PUSH2 0x8E9 SWAP2 PUSH1 0x1 PUSH1 0x20 SHL SWAP1 SWAP2 DIV PUSH1 0x1 PUSH1 0x1 PUSH1 0xA0 SHL SUB AND SWAP1 PUSH1 0x60 ADD PUSH2 0x8CC JUMP JUMPDEST PUSH0 DUP2 DUP2 SUB PUSH2 0xCE1 JUMPI POP PUSH0 SWAP2 SWAP1 POP JUMP JUMPDEST PUSH1 0x4 SLOAD PUSH4 0xFFFFFFFF AND DUP1 JUMPDEST PUSH4 0xFFFFFFFF DUP2 AND PUSH0 SWAP1 DUP2 MSTORE PUSH1 0x3 PUSH1 0x20 MSTORE PUSH1 0x40 SWAP1 KECCAK256 SLOAD DUP5 SUB PUSH2 0xD11 JUMPI POP PUSH1 0x1 SWAP4 SWAP3 POP POP POP JUMP JUMPDEST DUP1 PUSH4 0xFFFFFFFF AND PUSH0 SUB PUSH2 0xD22 JUMPI POP PUSH1 0x1E JUMPDEST DUP1 PUSH2 0xD2C DUP2 PUSH2 0x1B4E JUMP JUMPDEST SWAP2 POP POP DUP2 PUSH4 0xFFFFFFFF AND DUP2 PUSH4 0xFFFFFFFF AND SUB PUSH2 0xCEC JUMPI POP PUSH0 SWAP4 SWAP3 POP POP POP JUMP JUMPDEST PUSH1 0x60 DUP2 PUSH8 0xFFFFFFFFFFFFFFFF DUP2 GT ISZERO PUSH2 0xD66 JUMPI PUSH2 0xD66 PUSH2 0x1A83 JUMP JUMPDEST PUSH1 0x40 MLOAD SWAP1 DUP1 DUP3 MSTORE DUP1 PUSH1 0x20 MUL PUSH1 0x20 ADD DUP3 ADD PUSH1 0x40 MSTORE DUP1 ISZERO PUSH2 0xD8F JUMPI DUP2 PUSH1 0x20 ADD PUSH1 0x20 DUP3 MUL DUP1 CALLDATASIZE DUP4 CALLDATACOPY ADD SWAP1 POP JUMPDEST POP SWAP1 POP PUSH0 JUMPDEST DUP3 DUP2 LT ISZERO PUSH2 0xDFE JUMPI PUSH2 0xDCC DUP5 DUP5 DUP4 DUP2 DUP2 LT PUSH2 0xDB1 JUMPI PUSH2 0xDB1 PUSH2 0x1A97 JUMP JUMPDEST SWAP1 POP PUSH1 0x20 MUL ADD CALLDATALOAD PUSH0 SWAP1 DUP2 MSTORE PUSH1 0x8 PUSH1 0x20 MSTORE PUSH1 0x40 SWAP1 KECCAK256 SLOAD PUSH1 0xFF AND SWAP1 JUMP JUMPDEST ISZERO PUSH2 0xDF6 JUMPI PUSH1 0x1 DUP3 DUP3 DUP2 MLOAD DUP2 LT PUSH2 0xDE5 JUMPI PUSH2 0xDE5 PUSH2 0x1A97 JUMP JUMPDEST SWAP2 ISZERO ISZERO PUSH1 0x20 SWAP3 DUP4 MUL SWAP2 SWAP1 SWAP2 ADD SWAP1 SWAP2 ADD MSTORE JUMPDEST PUSH1 0x1 ADD PUSH2 0xD94 JUMP JUMPDEST POP SWAP3 SWAP2 POP POP JUMP JUMPDEST PUSH2 0xE0D PUSH2 0x146C JUMP JUMPDEST PUSH0 DUP2 DUP2 MSTORE PUSH1 0x9 PUSH1 0x20 MSTORE PUSH1 0x40 SWAP1 KECCAK256 SLOAD PUSH1 0xFF AND ISZERO PUSH2 0xE75 JUMPI PUSH1 0x40 MLOAD PUSH3 0x461BCD PUSH1 0xE5 SHL DUP2 MSTORE PUSH1 0x20 PUSH1 0x4 DUP3 ADD MSTORE PUSH1 0x21 PUSH1 0x24 DUP3 ADD MSTORE PUSH32 0x54686520636F6D6D69746D656E7420686173206265656E207375626D69747465 PUSH1 0x44 DUP3 ADD MSTORE PUSH1 0x19 PUSH1 0xFA SHL PUSH1 0x64 DUP3 ADD MSTORE PUSH1 0x84 ADD PUSH2 0x73D JUMP JUMPDEST PUSH0 PUSH2 0xE7F DUP3 PUSH2 0x153A JUMP JUMPDEST PUSH0 DUP4 DUP2 MSTORE PUSH1 0x9 PUSH1 0x20 MSTORE PUSH1 0x40 SWAP1 KECCAK256 DUP1 SLOAD PUSH1 0xFF NOT AND PUSH1 0x1 OR SWAP1 SSTORE SWAP1 POP PUSH2 0xEA1 PUSH2 0x172C JUMP JUMPDEST PUSH1 0x40 DUP1 MLOAD PUSH4 0xFFFFFFFF DUP4 AND DUP2 MSTORE TIMESTAMP PUSH1 0x20 DUP3 ADD MSTORE DUP4 SWAP2 PUSH32 0xA945E51EEC50AB98C161376F0DB4CF2AEBA3EC92755FE2FCD388BDBBB80FF196 SWAP2 ADD PUSH1 0x40 MLOAD DUP1 SWAP2 SUB SWAP1 LOG2 POP PUSH2 0xEEC PUSH1 0x1 PUSH1 0x5 SSTORE JUMP JUMPDEST POP JUMP JUMPDEST PUSH0 DUP2 PUSH0 SUB PUSH2 0xF1E JUMPI POP PUSH32 0x2FE54C60D3ACABF3343A35B6EBA15DB4821B340F76E741E2249685ED4899AF6C SWAP2 SWAP1 POP JUMP JUMPDEST DUP2 PUSH1 0x1 SUB PUSH2 0xF4D JUMPI POP PUSH32 0x4FC2FE9184A25F44CE8DDB5F32671FCAE6D9C85ED710C199ACEF16AD16B29911 SWAP2 SWAP1 POP JUMP JUMPDEST DUP2 PUSH1 0x2 SUB PUSH2 0xF7C JUMPI POP PUSH32 0xD826A474F851C563052D929EF0DAA70F658ABA9BA084F51F6E3483C13C0E59A SWAP2 SWAP1 POP JUMP JUMPDEST DUP2 PUSH1 0x3 SUB PUSH2 0xFAB JUMPI POP PUSH32 0xF7761A16B5E4C0120E4C5704B910DBE18FF6162A9668ED1C2C4EFDE7C4F15806 SWAP2 SWAP1 POP JUMP JUMPDEST DUP2 PUSH1 0x4 SUB PUSH2 0xFDA JUMPI POP PUSH32 0xCE9CE09A0AB259D6D14CA3DCD74E6C6B9E7D9074BFF66973D4C57CCDFFDB2A82 SWAP2 SWAP1 POP JUMP JUMPDEST DUP2 PUSH1 0x5 SUB PUSH2 0x1009 JUMPI POP PUSH32 0x2EFD44C63015FF1385344E0624867775486D05E6EB1290A24976964A598003B SWAP2 SWAP1 POP JUMP JUMPDEST DUP2 PUSH1 0x6 SUB PUSH2 0x1038 JUMPI POP PUSH32 0xC4DEC5845D407CE2AC2E6824BB7857C4B138F819E5789D5D11E812DB10C846CD SWAP2 SWAP1 POP JUMP JUMPDEST DUP2 PUSH1 0x7 SUB PUSH2 0x1067 JUMPI POP PUSH32 0x5FBE3F20C23F3BD6AC347917FB0903433E0B9A48373412348240A5F919BFDE19 SWAP2 SWAP1 POP JUMP JUMPDEST DUP2 PUSH1 0x8 SUB PUSH2 0x1096 JUMPI POP PUSH32 0x92D1B07E56B3DA96B7917778CB657F2C513EAEEB4D1579A73B5EA316F25B7289 SWAP2 SWAP1 POP JUMP JUMPDEST DUP2 PUSH1 0x9 SUB PUSH2 0x10C5 JUMPI POP PUSH32 0xA08ADD5656D6D3D0827EF909F7647981EAC42AA1F51970A752F130F718F6D76A SWAP2 SWAP1 POP JUMP JUMPDEST DUP2 PUSH1 0xA SUB PUSH2 0x10F4 JUMPI POP PUSH32 0x1704C5F297590D8EC62776B0714F4F3F2234BAE0524035342B0DA8B8988EBD79 SWAP2 SWAP1 POP JUMP JUMPDEST DUP2 PUSH1 0xB SUB PUSH2 0x1123 JUMPI POP PUSH32 0xC5AE2BD47379C2C6D1189CFC3D057948DC6054CAF845FCACD8F7AFFE94B11944 SWAP2 SWAP1 POP JUMP JUMPDEST DUP2 PUSH1 0xC SUB PUSH2 0x1152 JUMPI POP PUSH32 0x12A161D6D5561062F387D91AD9F0F8966C0956AFDB9E8325458B9E5057B82BDB SWAP2 SWAP1 POP JUMP JUMPDEST DUP2 PUSH1 0xD SUB PUSH2 0x1181 JUMPI POP PUSH32 0x4ADE524BA596DE20BBE94507A761C45251AE7A27857CEB4287D9018525B99BC5 SWAP2 SWAP1 POP JUMP JUMPDEST DUP2 PUSH1 0xE SUB PUSH2 0x11B0 JUMPI POP PUSH32 0x38287AD69151FA833BF4BF8B8EB6FFB39400A38F1A7E53B473F639C8C60FD5E4 SWAP2 SWAP1 POP JUMP JUMPDEST DUP2 PUSH1 0xF SUB PUSH2 0x11DF JUMPI POP PUSH32 0x57F2ADE7D711707E785451F2ABA6C95872C7FE03153A98B7327B4024E8068FA3 SWAP2 SWAP1 POP JUMP JUMPDEST DUP2 PUSH1 0x10 SUB PUSH2 0x120E JUMPI POP PUSH32 0xB1982E0D1B0DE46A88D8B17941472E41A86D3FF64571ED8E0CA72D58633547FC SWAP2 SWAP1 POP JUMP JUMPDEST DUP2 PUSH1 0x11 SUB PUSH2 0x123D JUMPI POP PUSH32 0xB7C60F8670AF15EB32B4EE36727179BC085A3DDE03D5F9A1486664BA576B30A6 SWAP2 SWAP1 POP JUMP JUMPDEST DUP2 PUSH1 0x12 SUB PUSH2 0x126C JUMPI POP PUSH32 0x5FF905C5C659A926B132EF3665A3DE5D5A859C1D479E68851085BFC0348C5331 SWAP2 SWAP1 POP JUMP JUMPDEST DUP2 PUSH1 0x13 SUB PUSH2 0x129B JUMPI POP PUSH32 0xB4DFA78B912E98C9F7EB42D71EB537A02BF3173D44A2EB887A48B3972072DD8E SWAP2 SWAP1 POP JUMP JUMPDEST DUP2 PUSH1 0x14 SUB PUSH2 0x12CA JUMPI POP PUSH32 0x60919A16A2EB8B91CFB8BA1E5B4C155A76A14C217B5403EDBD563F34E508ECDC SWAP2 SWAP1 POP JUMP JUMPDEST PUSH1 0x40 MLOAD PUSH3 0x461BCD PUSH1 0xE5 SHL DUP2 MSTORE PUSH1 0x20 PUSH1 0x4 DUP3 ADD MSTORE PUSH1 0x13 PUSH1 0x24 DUP3 ADD MSTORE PUSH19 0x496E646578206F7574206F6620626F756E6473 PUSH1 0x68 SHL PUSH1 0x44 DUP3 ADD MSTORE PUSH1 0x64 ADD PUSH2 0x73D JUMP JUMPDEST PUSH0 PUSH1 0x3 DUP3 DUP3 SUB PUSH2 0x131A JUMPI POP PUSH0 SWAP3 SWAP2 POP POP JUMP JUMPDEST PUSH1 0xC SLOAD PUSH0 SWAP1 PUSH2 0x1339 SWAP1 PUSH1 0x1 PUSH1 0x20 SHL SWAP1 DIV PUSH1 0x1 PUSH1 0x1 PUSH1 0xA0 SHL SUB AND DUP4 PUSH2 0x669 JUMP JUMPDEST DUP1 PUSH1 0x20 ADD SWAP1 MLOAD DUP2 ADD SWAP1 PUSH2 0x134C SWAP2 SWAP1 PUSH2 0x1B6C JUMP JUMPDEST SWAP1 POP DUP1 JUMPDEST PUSH2 0x135F DUP2 PUSH4 0xFFFFFFFF AND PUSH2 0xC9C JUMP JUMPDEST DUP6 SUB PUSH2 0x1370 JUMPI POP PUSH1 0x1 SWAP5 SWAP4 POP POP POP POP JUMP JUMPDEST DUP1 PUSH4 0xFFFFFFFF AND PUSH0 SUB PUSH2 0x1381 JUMPI POP PUSH1 0x1E JUMPDEST DUP1 PUSH2 0x138B DUP2 PUSH2 0x1B4E JUMP JUMPDEST SWAP2 POP POP DUP2 PUSH4 0xFFFFFFFF AND DUP2 PUSH4 0xFFFFFFFF AND SUB PUSH2 0x1350 JUMPI POP PUSH0 SWAP5 SWAP4 POP POP POP POP JUMP JUMPDEST PUSH2 0x13B3 PUSH2 0x146C JUMP JUMPDEST PUSH1 0x40 MLOAD PUSH20 0xBE34CC4CEBF526887EC2C0035463DD26B3E7FEA4 SWAP1 PUSH0 SWAP1 DUP3 SWAP1 SELFBALANCE SWAP1 DUP4 DUP2 DUP2 DUP2 DUP6 DUP8 GAS CALL SWAP3 POP POP POP RETURNDATASIZE DUP1 PUSH0 DUP2 EQ PUSH2 0x1408 JUMPI PUSH1 0x40 MLOAD SWAP2 POP PUSH1 0x1F NOT PUSH1 0x3F RETURNDATASIZE ADD AND DUP3 ADD PUSH1 0x40 MSTORE RETURNDATASIZE DUP3 MSTORE RETURNDATASIZE PUSH0 PUSH1 0x20 DUP5 ADD RETURNDATACOPY PUSH2 0x140D JUMP JUMPDEST PUSH1 0x60 SWAP2 POP JUMPDEST POP POP SWAP1 POP DUP1 PUSH2 0x145E JUMPI PUSH1 0x40 MLOAD PUSH3 0x461BCD PUSH1 0xE5 SHL DUP2 MSTORE PUSH1 0x20 PUSH1 0x4 DUP3 ADD DUP2 SWAP1 MSTORE PUSH1 0x24 DUP3 ADD MSTORE PUSH32 0x7061796D656E7420746F2061646D696E20646964206E6F7420676F2074687275 PUSH1 0x44 DUP3 ADD MSTORE PUSH1 0x64 ADD PUSH2 0x73D JUMP JUMPDEST POP POP PUSH2 0x146A PUSH1 0x1 PUSH1 0x5 SSTORE JUMP JUMPDEST JUMP JUMPDEST PUSH1 0x2 PUSH1 0x5 SLOAD SUB PUSH2 0x148F JUMPI PUSH1 0x40 MLOAD PUSH4 0x3EE5AEB5 PUSH1 0xE0 SHL DUP2 MSTORE PUSH1 0x4 ADD PUSH1 0x40 MLOAD DUP1 SWAP2 SUB SWAP1 REVERT JUMPDEST PUSH1 0x2 PUSH1 0x5 SSTORE JUMP JUMPDEST CALLVALUE ISZERO PUSH2 0x1502 JUMPI PUSH1 0x40 MLOAD PUSH3 0x461BCD PUSH1 0xE5 SHL DUP2 MSTORE PUSH1 0x20 PUSH1 0x4 DUP3 ADD MSTORE PUSH1 0x35 PUSH1 0x24 DUP3 ADD MSTORE PUSH32 0x4D6573736167652076616C756520697320737570706F73656420746F20626520 PUSH1 0x44 DUP3 ADD MSTORE PUSH21 0x7A65726F20666F722045544820696E7374616E6365 PUSH1 0x58 SHL PUSH1 0x64 DUP3 ADD MSTORE PUSH1 0x84 ADD PUSH2 0x73D JUMP JUMPDEST PUSH1 0x6 SLOAD PUSH1 0x40 MLOAD PUSH1 0x1 PUSH1 0x1 PUSH1 0xA0 SHL SUB DUP4 AND SWAP2 DUP1 ISZERO PUSH2 0x8FC MUL SWAP2 PUSH0 DUP2 DUP2 DUP2 DUP6 DUP9 DUP9 CALL SWAP4 POP POP POP POP ISZERO DUP1 ISZERO PUSH2 0x1536 JUMPI RETURNDATASIZE PUSH0 DUP1 RETURNDATACOPY RETURNDATASIZE PUSH0 REVERT JUMPDEST POP POP JUMP JUMPDEST PUSH1 0x4 SLOAD PUSH0 DUP1 SLOAD SWAP1 SWAP2 PUSH4 0xFFFFFFFF PUSH1 0x1 PUSH1 0x20 SHL SWAP1 SWAP2 DIV DUP2 AND SWAP2 PUSH2 0x155E SWAP2 AND PUSH1 0x2 PUSH2 0x1C9E JUMP JUMPDEST PUSH4 0xFFFFFFFF AND DUP2 PUSH4 0xFFFFFFFF AND SUB PUSH2 0x15D1 JUMPI PUSH1 0x40 MLOAD PUSH3 0x461BCD PUSH1 0xE5 SHL DUP2 MSTORE PUSH1 0x20 PUSH1 0x4 DUP3 ADD MSTORE PUSH1 0x30 PUSH1 0x24 DUP3 ADD MSTORE PUSH32 0x4D65726B6C6520747265652069732066756C6C2E204E6F206D6F7265206C6561 PUSH1 0x44 DUP3 ADD MSTORE PUSH16 0x1D995CC818D85B881899481859191959 PUSH1 0x82 SHL PUSH1 0x64 DUP3 ADD MSTORE PUSH1 0x84 ADD PUSH2 0x73D JUMP JUMPDEST DUP1 DUP4 PUSH0 DUP1 DUP1 JUMPDEST PUSH0 SLOAD PUSH4 0xFFFFFFFF SWAP1 DUP2 AND SWAP1 DUP3 AND LT ISZERO PUSH2 0x168B JUMPI PUSH2 0x15F5 PUSH1 0x2 DUP7 PUSH2 0x1CCE JUMP JUMPDEST PUSH4 0xFFFFFFFF AND PUSH0 SUB PUSH2 0x1631 JUMPI DUP4 SWAP3 POP PUSH2 0x1613 DUP2 PUSH4 0xFFFFFFFF AND PUSH2 0xEEF JUMP JUMPDEST PUSH4 0xFFFFFFFF DUP3 AND PUSH0 SWAP1 DUP2 MSTORE PUSH1 0x2 PUSH1 0x20 MSTORE PUSH1 0x40 SWAP1 KECCAK256 DUP6 SWAP1 SSTORE SWAP2 POP PUSH2 0x164C JUMP JUMPDEST PUSH4 0xFFFFFFFF DUP2 AND PUSH0 SWAP1 DUP2 MSTORE PUSH1 0x2 PUSH1 0x20 MSTORE PUSH1 0x40 SWAP1 KECCAK256 SLOAD SWAP3 POP DUP4 SWAP2 POP JUMPDEST PUSH1 0x40 DUP1 MLOAD PUSH1 0x20 DUP1 DUP3 ADD DUP7 SWAP1 MSTORE DUP2 DUP4 ADD DUP6 SWAP1 MSTORE DUP3 MLOAD DUP1 DUP4 SUB DUP5 ADD DUP2 MSTORE PUSH1 0x60 SWAP1 SWAP3 ADD SWAP1 SWAP3 MSTORE DUP1 MLOAD SWAP2 ADD KECCAK256 SWAP4 POP PUSH2 0x1681 PUSH1 0x2 DUP7 PUSH2 0x1CF0 JUMP JUMPDEST SWAP5 POP PUSH1 0x1 ADD PUSH2 0x15D7 JUMP JUMPDEST POP PUSH1 0x4 SLOAD PUSH0 SWAP1 PUSH1 0x1E SWAP1 PUSH2 0x16A5 SWAP1 PUSH4 0xFFFFFFFF AND PUSH1 0x1 PUSH2 0x1D12 JUMP JUMPDEST PUSH2 0x16AF SWAP2 SWAP1 PUSH2 0x1CCE JUMP JUMPDEST PUSH1 0x4 DUP1 SLOAD PUSH4 0xFFFFFFFF NOT AND PUSH4 0xFFFFFFFF DUP4 DUP2 AND SWAP2 DUP3 OR SWAP1 SWAP3 SSTORE PUSH0 SWAP1 DUP2 MSTORE PUSH1 0x3 PUSH1 0x20 SWAP1 DUP2 MSTORE PUSH1 0x40 DUP1 DUP4 KECCAK256 DUP10 SWAP1 SSTORE SWAP3 DUP11 AND DUP3 MSTORE PUSH1 0x1 SWAP1 DUP2 SWAP1 MSTORE SWAP2 SWAP1 KECCAK256 DUP11 SWAP1 SSTORE SWAP1 SWAP2 POP PUSH2 0x16FA SWAP1 DUP8 SWAP1 PUSH2 0x1D12 JUMP JUMPDEST PUSH1 0x4 DUP1 SLOAD PUSH4 0xFFFFFFFF SWAP3 SWAP1 SWAP3 AND PUSH1 0x1 PUSH1 0x20 SHL MUL PUSH8 0xFFFFFFFF00000000 NOT SWAP1 SWAP3 AND SWAP2 SWAP1 SWAP2 OR SWAP1 SSTORE POP SWAP4 SWAP7 SWAP6 POP POP POP POP POP POP JUMP JUMPDEST PUSH1 0x6 SLOAD CALLVALUE EQ PUSH2 0x146A JUMPI PUSH1 0x40 MLOAD PUSH3 0x461BCD PUSH1 0xE5 SHL DUP2 MSTORE PUSH1 0x20 PUSH1 0x4 DUP3 ADD MSTORE PUSH1 0x38 PUSH1 0x24 DUP3 ADD MSTORE PUSH32 0x506C656173652073656E6420606D697844656E6F6D696E6174696F6E60204554 PUSH1 0x44 DUP3 ADD MSTORE PUSH32 0x4820616C6F6E672077697468207472616E73616374696F6E0000000000000000 PUSH1 0x64 DUP3 ADD MSTORE PUSH1 0x84 ADD PUSH2 0x73D JUMP JUMPDEST PUSH1 0x1 PUSH1 0x1 PUSH1 0xA0 SHL SUB DUP2 AND DUP2 EQ PUSH2 0xEEC JUMPI PUSH0 DUP1 REVERT JUMPDEST PUSH0 DUP1 PUSH1 0x40 DUP4 DUP6 SUB SLT ISZERO PUSH2 0x17C8 JUMPI PUSH0 DUP1 REVERT JUMPDEST DUP3 CALLDATALOAD PUSH2 0x17D3 DUP2 PUSH2 0x17A3 JUMP JUMPDEST SWAP5 PUSH1 0x20 SWAP4 SWAP1 SWAP4 ADD CALLDATALOAD SWAP4 POP POP POP JUMP JUMPDEST PUSH0 JUMPDEST DUP4 DUP2 LT ISZERO PUSH2 0x17FB JUMPI DUP2 DUP2 ADD MLOAD DUP4 DUP3 ADD MSTORE PUSH1 0x20 ADD PUSH2 0x17E3 JUMP JUMPDEST POP POP PUSH0 SWAP2 ADD MSTORE JUMP JUMPDEST PUSH1 0x20 DUP2 MSTORE PUSH0 DUP3 MLOAD DUP1 PUSH1 0x20 DUP5 ADD MSTORE PUSH2 0x1821 DUP2 PUSH1 0x40 DUP6 ADD PUSH1 0x20 DUP8 ADD PUSH2 0x17E1 JUMP JUMPDEST PUSH1 0x1F ADD PUSH1 0x1F NOT AND SWAP2 SWAP1 SWAP2 ADD PUSH1 0x40 ADD SWAP3 SWAP2 POP POP JUMP JUMPDEST PUSH0 PUSH1 0x20 DUP3 DUP5 SUB SLT ISZERO PUSH2 0x1845 JUMPI PUSH0 DUP1 REVERT JUMPDEST POP CALLDATALOAD SWAP2 SWAP1 POP JUMP JUMPDEST PUSH0 DUP2 MLOAD DUP1 DUP5 MSTORE PUSH1 0x20 DUP1 DUP6 ADD SWAP5 POP PUSH1 0x20 DUP5 ADD PUSH0 JUMPDEST DUP4 DUP2 LT ISZERO PUSH2 0x187B JUMPI DUP2 MLOAD DUP8 MSTORE SWAP6 DUP3 ADD SWAP6 SWAP1 DUP3 ADD SWAP1 PUSH1 0x1 ADD PUSH2 0x185F JUMP JUMPDEST POP SWAP5 SWAP6 SWAP5 POP POP POP POP POP JUMP JUMPDEST PUSH1 0x40 DUP2 MSTORE PUSH0 PUSH2 0x1898 PUSH1 0x40 DUP4 ADD DUP6 PUSH2 0x184C JUMP JUMPDEST DUP3 DUP2 SUB PUSH1 0x20 DUP5 ADD MSTORE PUSH2 0x18AA DUP2 DUP6 PUSH2 0x184C JUMP JUMPDEST SWAP6 SWAP5 POP POP POP POP POP JUMP JUMPDEST PUSH0 DUP1 PUSH1 0x40 DUP4 DUP6 SUB SLT ISZERO PUSH2 0x18C4 JUMPI PUSH0 DUP1 REVERT JUMPDEST POP POP DUP1 CALLDATALOAD SWAP3 PUSH1 0x20 SWAP1 SWAP2 ADD CALLDATALOAD SWAP2 POP JUMP JUMPDEST PUSH0 DUP1 PUSH0 PUSH1 0x60 DUP5 DUP7 SUB SLT ISZERO PUSH2 0x18E5 JUMPI PUSH0 DUP1 REVERT JUMPDEST DUP4 CALLDATALOAD SWAP3 POP PUSH1 0x20 DUP5 ADD CALLDATALOAD SWAP2 POP PUSH1 0x40 DUP5 ADD CALLDATALOAD PUSH2 0x18FE DUP2 PUSH2 0x17A3 JUMP JUMPDEST DUP1 SWAP2 POP POP SWAP3 POP SWAP3 POP SWAP3 JUMP JUMPDEST PUSH1 0x20 DUP2 MSTORE PUSH0 PUSH2 0x8FC PUSH1 0x20 DUP4 ADD DUP5 PUSH2 0x184C JUMP JUMPDEST PUSH0 DUP1 PUSH0 DUP1 PUSH0 DUP1 PUSH1 0xA0 DUP8 DUP10 SUB SLT ISZERO PUSH2 0x1930 JUMPI PUSH0 DUP1 REVERT JUMPDEST DUP7 CALLDATALOAD SWAP6 POP PUSH1 0x20 DUP8 ADD CALLDATALOAD SWAP5 POP PUSH1 0x40 DUP8 ADD CALLDATALOAD SWAP4 POP PUSH1 0x60 DUP8 ADD CALLDATALOAD PUSH2 0x1950 DUP2 PUSH2 0x17A3 JUMP JUMPDEST SWAP3 POP PUSH1 0x80 DUP8 ADD CALLDATALOAD PUSH8 0xFFFFFFFFFFFFFFFF DUP1 DUP3 GT ISZERO PUSH2 0x196C JUMPI PUSH0 DUP1 REVERT JUMPDEST DUP2 DUP10 ADD SWAP2 POP DUP10 PUSH1 0x1F DUP4 ADD SLT PUSH2 0x197F JUMPI PUSH0 DUP1 REVERT JUMPDEST DUP2 CALLDATALOAD DUP2 DUP2 GT ISZERO PUSH2 0x198D JUMPI PUSH0 DUP1 REVERT JUMPDEST DUP11 PUSH1 0x20 DUP3 DUP6 ADD ADD GT ISZERO PUSH2 0x199E JUMPI PUSH0 DUP1 REVERT JUMPDEST PUSH1 0x20 DUP4 ADD SWAP5 POP DUP1 SWAP4 POP POP POP POP SWAP3 SWAP6 POP SWAP3 SWAP6 POP SWAP3 SWAP6 JUMP JUMPDEST PUSH0 DUP1 PUSH1 0x20 DUP4 DUP6 SUB SLT ISZERO PUSH2 0x19C5 JUMPI PUSH0 DUP1 REVERT JUMPDEST DUP3 CALLDATALOAD PUSH8 0xFFFFFFFFFFFFFFFF DUP1 DUP3 GT ISZERO PUSH2 0x19DC JUMPI PUSH0 DUP1 REVERT JUMPDEST DUP2 DUP6 ADD SWAP2 POP DUP6 PUSH1 0x1F DUP4 ADD SLT PUSH2 0x19EF JUMPI PUSH0 DUP1 REVERT JUMPDEST DUP2 CALLDATALOAD DUP2 DUP2 GT ISZERO PUSH2 0x19FD JUMPI PUSH0 DUP1 REVERT JUMPDEST DUP7 PUSH1 0x20 DUP3 PUSH1 0x5 SHL DUP6 ADD ADD GT ISZERO PUSH2 0x1A11 JUMPI PUSH0 DUP1 REVERT JUMPDEST PUSH1 0x20 SWAP3 SWAP1 SWAP3 ADD SWAP7 SWAP2 SWAP6 POP SWAP1 SWAP4 POP POP POP POP JUMP JUMPDEST PUSH1 0x20 DUP1 DUP3 MSTORE DUP3 MLOAD DUP3 DUP3 ADD DUP2 SWAP1 MSTORE PUSH0 SWAP2 SWAP1 DUP5 DUP3 ADD SWAP1 PUSH1 0x40 DUP6 ADD SWAP1 DUP5 JUMPDEST DUP2 DUP2 LT ISZERO PUSH2 0x1A5C JUMPI DUP4 MLOAD ISZERO ISZERO DUP4 MSTORE SWAP3 DUP5 ADD SWAP3 SWAP2 DUP5 ADD SWAP2 PUSH1 0x1 ADD PUSH2 0x1A3E JUMP JUMPDEST POP SWAP1 SWAP7 SWAP6 POP POP POP POP POP POP JUMP JUMPDEST PUSH0 DUP3 MLOAD PUSH2 0x1A79 DUP2 DUP5 PUSH1 0x20 DUP8 ADD PUSH2 0x17E1 JUMP JUMPDEST SWAP2 SWAP1 SWAP2 ADD SWAP3 SWAP2 POP POP JUMP JUMPDEST PUSH4 0x4E487B71 PUSH1 0xE0 SHL PUSH0 MSTORE PUSH1 0x41 PUSH1 0x4 MSTORE PUSH1 0x24 PUSH0 REVERT JUMPDEST PUSH4 0x4E487B71 PUSH1 0xE0 SHL PUSH0 MSTORE PUSH1 0x32 PUSH1 0x4 MSTORE PUSH1 0x24 PUSH0 REVERT JUMPDEST PUSH0 PUSH1 0x20 DUP3 DUP5 SUB SLT ISZERO PUSH2 0x1ABB JUMPI PUSH0 DUP1 REVERT JUMPDEST POP MLOAD SWAP2 SWAP1 POP JUMP JUMPDEST PUSH4 0x4E487B71 PUSH1 0xE0 SHL PUSH0 MSTORE PUSH1 0x11 PUSH1 0x4 MSTORE PUSH1 0x24 PUSH0 REVERT JUMPDEST DUP2 DUP2 SUB DUP2 DUP2 GT ISZERO PUSH2 0x74B JUMPI PUSH2 0x74B PUSH2 0x1AC2 JUMP JUMPDEST PUSH1 0x40 DUP2 MSTORE DUP3 PUSH1 0x40 DUP3 ADD MSTORE DUP3 DUP5 PUSH1 0x60 DUP4 ADD CALLDATACOPY PUSH0 PUSH1 0x60 DUP5 DUP4 ADD ADD MSTORE PUSH0 PUSH1 0x1F NOT PUSH1 0x1F DUP6 ADD AND DUP3 ADD PUSH1 0x60 DUP4 DUP3 SUB ADD PUSH1 0x20 DUP5 ADD MSTORE PUSH2 0x1B25 PUSH1 0x60 DUP3 ADD DUP6 PUSH2 0x184C JUMP JUMPDEST SWAP7 SWAP6 POP POP POP POP POP POP JUMP JUMPDEST PUSH0 PUSH1 0x20 DUP3 DUP5 SUB SLT ISZERO PUSH2 0x1B3F JUMPI PUSH0 DUP1 REVERT JUMPDEST DUP2 MLOAD DUP1 ISZERO ISZERO DUP2 EQ PUSH2 0x8FC JUMPI PUSH0 DUP1 REVERT JUMPDEST PUSH0 PUSH4 0xFFFFFFFF DUP3 AND DUP1 PUSH2 0x1B63 JUMPI PUSH2 0x1B63 PUSH2 0x1AC2 JUMP JUMPDEST PUSH0 NOT ADD SWAP3 SWAP2 POP POP JUMP JUMPDEST PUSH0 PUSH1 0x20 DUP3 DUP5 SUB SLT ISZERO PUSH2 0x1B7C JUMPI PUSH0 DUP1 REVERT JUMPDEST DUP2 MLOAD PUSH4 0xFFFFFFFF DUP2 AND DUP2 EQ PUSH2 0x8FC JUMPI PUSH0 DUP1 REVERT JUMPDEST PUSH1 0x1 DUP2 DUP2 JUMPDEST DUP1 DUP6 GT ISZERO PUSH2 0x1BCC JUMPI DUP2 PUSH4 0xFFFFFFFF DIV DUP3 GT ISZERO PUSH2 0x1BB2 JUMPI PUSH2 0x1BB2 PUSH2 0x1AC2 JUMP JUMPDEST DUP1 DUP6 AND ISZERO PUSH2 0x1BBF JUMPI SWAP2 DUP2 MUL SWAP2 JUMPDEST SWAP4 DUP5 SHR SWAP4 SWAP1 DUP1 MUL SWAP1 PUSH2 0x1B94 JUMP JUMPDEST POP SWAP3 POP SWAP3 SWAP1 POP JUMP JUMPDEST PUSH0 DUP3 PUSH2 0x1BE2 JUMPI POP PUSH1 0x1 PUSH2 0x74B JUMP JUMPDEST DUP2 PUSH2 0x1BEE JUMPI POP PUSH0 PUSH2 0x74B JUMP JUMPDEST DUP2 PUSH1 0x1 DUP2 EQ PUSH2 0x1C04 JUMPI PUSH1 0x2 DUP2 EQ PUSH2 0x1C0E JUMPI PUSH2 0x1C3F JUMP JUMPDEST PUSH1 0x1 SWAP2 POP POP PUSH2 0x74B JUMP JUMPDEST PUSH1 0xFF DUP5 GT ISZERO PUSH2 0x1C1F JUMPI PUSH2 0x1C1F PUSH2 0x1AC2 JUMP JUMPDEST PUSH1 0x1 DUP5 SHL SWAP2 POP PUSH4 0xFFFFFFFF DUP3 GT ISZERO PUSH2 0x1C39 JUMPI PUSH2 0x1C39 PUSH2 0x1AC2 JUMP JUMPDEST POP PUSH2 0x74B JUMP JUMPDEST POP PUSH1 0x20 DUP4 LT PUSH2 0x133 DUP4 LT AND PUSH1 0x4E DUP5 LT PUSH1 0xB DUP5 LT AND OR ISZERO PUSH2 0x1C76 JUMPI POP DUP2 DUP2 EXP PUSH4 0xFFFFFFFF DUP2 GT ISZERO PUSH2 0x1C71 JUMPI PUSH2 0x1C71 PUSH2 0x1AC2 JUMP JUMPDEST PUSH2 0x74B JUMP JUMPDEST PUSH2 0x1C80 DUP4 DUP4 PUSH2 0x1B8F JUMP JUMPDEST DUP1 PUSH4 0xFFFFFFFF DIV DUP3 GT ISZERO PUSH2 0x1C96 JUMPI PUSH2 0x1C96 PUSH2 0x1AC2 JUMP JUMPDEST MUL SWAP4 SWAP3 POP POP POP JUMP JUMPDEST PUSH0 PUSH4 0xFFFFFFFF PUSH2 0x1CB2 DUP2 DUP6 AND DUP3 DUP6 AND PUSH2 0x1BD4 JUMP JUMPDEST SWAP5 SWAP4 POP POP POP POP JUMP JUMPDEST PUSH4 0x4E487B71 PUSH1 0xE0 SHL PUSH0 MSTORE PUSH1 0x12 PUSH1 0x4 MSTORE PUSH1 0x24 PUSH0 REVERT JUMPDEST PUSH0 PUSH4 0xFFFFFFFF DUP1 DUP5 AND DUP1 PUSH2 0x1CE4 JUMPI PUSH2 0x1CE4 PUSH2 0x1CBA JUMP JUMPDEST SWAP3 AND SWAP2 SWAP1 SWAP2 MOD SWAP3 SWAP2 POP POP JUMP JUMPDEST PUSH0 PUSH4 0xFFFFFFFF DUP1 DUP5 AND DUP1 PUSH2 0x1D06 JUMPI PUSH2 0x1D06 PUSH2 0x1CBA JUMP JUMPDEST SWAP3 AND SWAP2 SWAP1 SWAP2 DIV SWAP3 SWAP2 POP POP JUMP JUMPDEST PUSH4 0xFFFFFFFF DUP2 DUP2 AND DUP4 DUP3 AND ADD SWAP1 DUP1 DUP3 GT ISZERO PUSH2 0xDFE JUMPI PUSH2 0xDFE PUSH2 0x1AC2 JUMP INVALID LOG2 PUSH5 0x6970667358 0x22 SLT KECCAK256 SELFDESTRUCT 0xC9 SSTORE 0xDE 0xCE NUMBER 0xC0 PUSH9 0xFAFD6D96A93D1630C7 0xEA 0x2C 0x2C DUP1 0xE8 CALLCODE SWAP14 DUP7 ADD 0xB7 MLOAD 0xA7 0xFB 0xB6 0xFC PUSH5 0x736F6C6343 STOP ADDMOD OR STOP CALLER "},"methodIdentifiers":{"ROOT_HISTORY_SIZE()":"cd87a3b4","_formatPublicInputs(bytes32,bytes32,address)":"4fe3fbf0","adminWithdraw()":"f18d20be","commitmentLeafs(uint256)":"9ec44154","commitments(bytes32)":"839df945","commitmentsTreeRoots(bytes32)":"3591d78d","currentRootIndex()":"90eeb02b","denomination()":"8bca6d16","deposit(bytes32)":"b214faa5","filledSubtrees(uint256)":"f178e47c","getAllCommitments()":"2c0ee3c4","getL1LeafCommitments(uint256)":"3ed4eae5","getL1Root(uint256)":"5032d4f1","getL1RootSlot(uint256)":"48ee98da","getLastRoot()":"ba70f757","hashLeftRight(bytes32,bytes32)":"38bf282e","isKnownL1Root(bytes32)":"e993d00b","isKnownRoot(bytes32)":"6d9833e3","isSpent(bytes32)":"e5285dcc","isSpentArray(bytes32[])":"9fa12d0b","l1Address()":"c2eeeebd","l1_currentRootIndex()":"164ddd01","levels()":"4ecf518b","nextIndex()":"fc7e9c6f","nullifiers(bytes32)":"2997e86b","readSingleSlot(address,uint256)":"102b72e7","roots(uint256)":"c2b40ae4","verifier()":"2b7ac3f3","withdraw(bytes32,bytes32,bytes32,address,bytes)":"50241a3f","zeros(uint256)":"e8295588"}}}}}