{"contracts/test/L2SLOADmock.sol":{"L2SLOADmock":{"abi":[{"inputs":[],"stateMutability":"nonpayable","type":"constructor"},{"stateMutability":"nonpayable","type":"fallback"},{"inputs":[{"internalType":"bytes","name":"data","type":"bytes"}],"name":"decodeInput","outputs":[{"internalType":"address","name":"","type":"address"},{"internalType":"uint256","name":"","type":"uint256"}],"stateMutability":"pure","type":"function"},{"inputs":[{"internalType":"uint256","name":"key","type":"uint256"},{"internalType":"uint256","name":"slotNumber","type":"uint256"}],"name":"hashMappingSlot","outputs":[{"internalType":"bytes32","name":"","type":"bytes32"}],"stateMutability":"pure","type":"function"},{"inputs":[{"internalType":"address","name":"","type":"address"},{"internalType":"uint256","name":"","type":"uint256"}],"name":"mockedSlots","outputs":[{"internalType":"bytes","name":"","type":"bytes"}],"stateMutability":"view","type":"function"},{"inputs":[{"internalType":"address","name":"_l1ContactAddr","type":"address"},{"internalType":"uint256","name":"_slot","type":"uint256"}],"name":"readMockedSlot","outputs":[{"internalType":"bytes","name":"","type":"bytes"}],"stateMutability":"view","type":"function"},{"inputs":[{"internalType":"address","name":"l1ContactAddr","type":"address"},{"internalType":"uint256","name":"slot","type":"uint256"},{"internalType":"bytes","name":"value","type":"bytes"}],"name":"setMockedSlot","outputs":[],"stateMutability":"nonpayable","type":"function"}],"evm":{"bytecode":{"linkReferences":{},"object":"608060405234801561000f575f80fd5b506107cd8061001d5f395ff3fe608060405234801561000f575f80fd5b5060043610610055575f3560e01c806326e2872b146101225780632e065ae514610148578063540811ed1461017a578063734756331461019a5780637693efb6146101af575b5f3660605f8061006585856101c2565b6001600160a01b0382165f90815260208181526040808320848452909152902080549294509092509061009790610456565b80601f01602080910402602001604051908101604052809291908181526020018280546100c390610456565b801561010e5780601f106100e55761010080835404028352916020019161010e565b820191905f5260205f20905b8154815290600101906020018083116100f157829003601f168201915b505050505092505050915050805190602001f35b61013561013036600461048e565b6101fe565b6040519081526020015b60405180910390f35b61015b6101563660046104ec565b6101c2565b604080516001600160a01b03909316835260208301919091520161013f565b61018d610188366004610542565b61022d565b60405161013f919061056c565b6101ad6101a83660046105b8565b610385565b005b61018d6101bd366004610542565b6103b7565b5f806101d16014828587610610565b6101da91610637565b6101e8603460148688610610565b6101f191610637565b90925090505b9250929050565b604080516020808201859052818301849052825180830384018152606090920190925280519101205b92915050565b604051606083811b6bffffffffffffffffffffffff1916602083015260348201839052905f9060540160408051601f1981840301815290829052632e065ae560e01b825291505f9081903090632e065ae59061028d90869060040161056c565b6040805180830381865afa1580156102a7573d5f803e3d5ffd5b505050506040513d601f19601f820116820180604052508101906102cb9190610654565b6001600160a01b0388165f9081526020818152604080832084845290915281208054939550919350916102fd90610456565b80601f016020809104026020016040519081016040528092919081815260200182805461032990610456565b80156103745780601f1061034b57610100808354040283529160200191610374565b820191905f5260205f20905b81548152906001019060200180831161035757829003601f168201915b50939b9a5050505050505050505050565b6001600160a01b0384165f9081526020818152604080832086845290915290206103b08284836106dd565b5050505050565b5f602081815292815260408082209093529081522080546103d790610456565b80601f016020809104026020016040519081016040528092919081815260200182805461040390610456565b801561044e5780601f106104255761010080835404028352916020019161044e565b820191905f5260205f20905b81548152906001019060200180831161043157829003601f168201915b505050505081565b600181811c9082168061046a57607f821691505b60208210810361048857634e487b7160e01b5f52602260045260245ffd5b50919050565b5f806040838503121561049f575f80fd5b50508035926020909101359150565b5f8083601f8401126104be575f80fd5b50813567ffffffffffffffff8111156104d5575f80fd5b6020830191508360208285010111156101f7575f80fd5b5f80602083850312156104fd575f80fd5b823567ffffffffffffffff811115610513575f80fd5b61051f858286016104ae565b90969095509350505050565b6001600160a01b038116811461053f575f80fd5b50565b5f8060408385031215610553575f80fd5b823561055e8161052b565b946020939093013593505050565b5f602080835283518060208501525f5b818110156105985785810183015185820160400152820161057c565b505f604082860101526040601f19601f8301168501019250505092915050565b5f805f80606085870312156105cb575f80fd5b84356105d68161052b565b935060208501359250604085013567ffffffffffffffff8111156105f8575f80fd5b610604878288016104ae565b95989497509550505050565b5f808585111561061e575f80fd5b8386111561062a575f80fd5b5050820193919092039150565b80356020831015610227575f19602084900360031b1b1692915050565b5f8060408385031215610665575f80fd5b82516106708161052b565b6020939093015192949293505050565b634e487b7160e01b5f52604160045260245ffd5b601f8211156106d857805f5260205f20601f840160051c810160208510156106b95750805b601f840160051c820191505b818110156103b0575f81556001016106c5565b505050565b67ffffffffffffffff8311156106f5576106f5610680565b610709836107038354610456565b83610694565b5f601f84116001811461073a575f85156107235750838201355b5f19600387901b1c1916600186901b1783556103b0565b5f83815260208120601f198716915b828110156107695786850135825560209485019460019092019101610749565b5086821015610785575f1960f88860031b161c19848701351681555b505060018560011b018355505050505056fea26469706673582212205fa42878665f9b8b2418952c9380e5823290041dd7a66392d9ad7cfef2f8371e64736f6c63430008170033","opcodes":"PUSH1 0x80 PUSH1 0x40 MSTORE CALLVALUE DUP1 ISZERO PUSH2 0xF JUMPI PUSH0 DUP1 REVERT JUMPDEST POP PUSH2 0x7CD DUP1 PUSH2 0x1D PUSH0 CODECOPY PUSH0 RETURN INVALID PUSH1 0x80 PUSH1 0x40 MSTORE CALLVALUE DUP1 ISZERO PUSH2 0xF JUMPI PUSH0 DUP1 REVERT JUMPDEST POP PUSH1 0x4 CALLDATASIZE LT PUSH2 0x55 JUMPI PUSH0 CALLDATALOAD PUSH1 0xE0 SHR DUP1 PUSH4 0x26E2872B EQ PUSH2 0x122 JUMPI DUP1 PUSH4 0x2E065AE5 EQ PUSH2 0x148 JUMPI DUP1 PUSH4 0x540811ED EQ PUSH2 0x17A JUMPI DUP1 PUSH4 0x73475633 EQ PUSH2 0x19A JUMPI DUP1 PUSH4 0x7693EFB6 EQ PUSH2 0x1AF JUMPI JUMPDEST PUSH0 CALLDATASIZE PUSH1 0x60 PUSH0 DUP1 PUSH2 0x65 DUP6 DUP6 PUSH2 0x1C2 JUMP JUMPDEST PUSH1 0x1 PUSH1 0x1 PUSH1 0xA0 SHL SUB DUP3 AND PUSH0 SWAP1 DUP2 MSTORE PUSH1 0x20 DUP2 DUP2 MSTORE PUSH1 0x40 DUP1 DUP4 KECCAK256 DUP5 DUP5 MSTORE SWAP1 SWAP2 MSTORE SWAP1 KECCAK256 DUP1 SLOAD SWAP3 SWAP5 POP SWAP1 SWAP3 POP SWAP1 PUSH2 0x97 SWAP1 PUSH2 0x456 JUMP JUMPDEST DUP1 PUSH1 0x1F ADD PUSH1 0x20 DUP1 SWAP2 DIV MUL PUSH1 0x20 ADD PUSH1 0x40 MLOAD SWAP1 DUP2 ADD PUSH1 0x40 MSTORE DUP1 SWAP3 SWAP2 SWAP1 DUP2 DUP2 MSTORE PUSH1 0x20 ADD DUP3 DUP1 SLOAD PUSH2 0xC3 SWAP1 PUSH2 0x456 JUMP JUMPDEST DUP1 ISZERO PUSH2 0x10E JUMPI DUP1 PUSH1 0x1F LT PUSH2 0xE5 JUMPI PUSH2 0x100 DUP1 DUP4 SLOAD DIV MUL DUP4 MSTORE SWAP2 PUSH1 0x20 ADD SWAP2 PUSH2 0x10E JUMP JUMPDEST DUP3 ADD SWAP2 SWAP1 PUSH0 MSTORE PUSH1 0x20 PUSH0 KECCAK256 SWAP1 JUMPDEST DUP2 SLOAD DUP2 MSTORE SWAP1 PUSH1 0x1 ADD SWAP1 PUSH1 0x20 ADD DUP1 DUP4 GT PUSH2 0xF1 JUMPI DUP3 SWAP1 SUB PUSH1 0x1F AND DUP3 ADD SWAP2 JUMPDEST POP POP POP POP POP SWAP3 POP POP POP SWAP2 POP POP DUP1 MLOAD SWAP1 PUSH1 0x20 ADD RETURN JUMPDEST PUSH2 0x135 PUSH2 0x130 CALLDATASIZE PUSH1 0x4 PUSH2 0x48E JUMP JUMPDEST PUSH2 0x1FE JUMP JUMPDEST PUSH1 0x40 MLOAD SWAP1 DUP2 MSTORE PUSH1 0x20 ADD JUMPDEST PUSH1 0x40 MLOAD DUP1 SWAP2 SUB SWAP1 RETURN JUMPDEST PUSH2 0x15B PUSH2 0x156 CALLDATASIZE PUSH1 0x4 PUSH2 0x4EC JUMP JUMPDEST PUSH2 0x1C2 JUMP JUMPDEST PUSH1 0x40 DUP1 MLOAD PUSH1 0x1 PUSH1 0x1 PUSH1 0xA0 SHL SUB SWAP1 SWAP4 AND DUP4 MSTORE PUSH1 0x20 DUP4 ADD SWAP2 SWAP1 SWAP2 MSTORE ADD PUSH2 0x13F JUMP JUMPDEST PUSH2 0x18D PUSH2 0x188 CALLDATASIZE PUSH1 0x4 PUSH2 0x542 JUMP JUMPDEST PUSH2 0x22D JUMP JUMPDEST PUSH1 0x40 MLOAD PUSH2 0x13F SWAP2 SWAP1 PUSH2 0x56C JUMP JUMPDEST PUSH2 0x1AD PUSH2 0x1A8 CALLDATASIZE PUSH1 0x4 PUSH2 0x5B8 JUMP JUMPDEST PUSH2 0x385 JUMP JUMPDEST STOP JUMPDEST PUSH2 0x18D PUSH2 0x1BD CALLDATASIZE PUSH1 0x4 PUSH2 0x542 JUMP JUMPDEST PUSH2 0x3B7 JUMP JUMPDEST PUSH0 DUP1 PUSH2 0x1D1 PUSH1 0x14 DUP3 DUP6 DUP8 PUSH2 0x610 JUMP JUMPDEST PUSH2 0x1DA SWAP2 PUSH2 0x637 JUMP JUMPDEST PUSH2 0x1E8 PUSH1 0x34 PUSH1 0x14 DUP7 DUP9 PUSH2 0x610 JUMP JUMPDEST PUSH2 0x1F1 SWAP2 PUSH2 0x637 JUMP JUMPDEST SWAP1 SWAP3 POP SWAP1 POP JUMPDEST SWAP3 POP SWAP3 SWAP1 POP JUMP JUMPDEST PUSH1 0x40 DUP1 MLOAD PUSH1 0x20 DUP1 DUP3 ADD DUP6 SWAP1 MSTORE DUP2 DUP4 ADD DUP5 SWAP1 MSTORE DUP3 MLOAD DUP1 DUP4 SUB DUP5 ADD DUP2 MSTORE PUSH1 0x60 SWAP1 SWAP3 ADD SWAP1 SWAP3 MSTORE DUP1 MLOAD SWAP2 ADD KECCAK256 JUMPDEST SWAP3 SWAP2 POP POP JUMP JUMPDEST PUSH1 0x40 MLOAD PUSH1 0x60 DUP4 DUP2 SHL PUSH12 0xFFFFFFFFFFFFFFFFFFFFFFFF NOT AND PUSH1 0x20 DUP4 ADD MSTORE PUSH1 0x34 DUP3 ADD DUP4 SWAP1 MSTORE SWAP1 PUSH0 SWAP1 PUSH1 0x54 ADD PUSH1 0x40 DUP1 MLOAD PUSH1 0x1F NOT DUP2 DUP5 SUB ADD DUP2 MSTORE SWAP1 DUP3 SWAP1 MSTORE PUSH4 0x2E065AE5 PUSH1 0xE0 SHL DUP3 MSTORE SWAP2 POP PUSH0 SWAP1 DUP2 SWAP1 ADDRESS SWAP1 PUSH4 0x2E065AE5 SWAP1 PUSH2 0x28D SWAP1 DUP7 SWAP1 PUSH1 0x4 ADD PUSH2 0x56C JUMP JUMPDEST PUSH1 0x40 DUP1 MLOAD DUP1 DUP4 SUB DUP2 DUP7 GAS STATICCALL ISZERO DUP1 ISZERO PUSH2 0x2A7 JUMPI RETURNDATASIZE PUSH0 DUP1 RETURNDATACOPY RETURNDATASIZE PUSH0 REVERT JUMPDEST POP POP POP POP PUSH1 0x40 MLOAD RETURNDATASIZE PUSH1 0x1F NOT PUSH1 0x1F DUP3 ADD AND DUP3 ADD DUP1 PUSH1 0x40 MSTORE POP DUP2 ADD SWAP1 PUSH2 0x2CB SWAP2 SWAP1 PUSH2 0x654 JUMP JUMPDEST PUSH1 0x1 PUSH1 0x1 PUSH1 0xA0 SHL SUB DUP9 AND PUSH0 SWAP1 DUP2 MSTORE PUSH1 0x20 DUP2 DUP2 MSTORE PUSH1 0x40 DUP1 DUP4 KECCAK256 DUP5 DUP5 MSTORE SWAP1 SWAP2 MSTORE DUP2 KECCAK256 DUP1 SLOAD SWAP4 SWAP6 POP SWAP2 SWAP4 POP SWAP2 PUSH2 0x2FD SWAP1 PUSH2 0x456 JUMP JUMPDEST DUP1 PUSH1 0x1F ADD PUSH1 0x20 DUP1 SWAP2 DIV MUL PUSH1 0x20 ADD PUSH1 0x40 MLOAD SWAP1 DUP2 ADD PUSH1 0x40 MSTORE DUP1 SWAP3 SWAP2 SWAP1 DUP2 DUP2 MSTORE PUSH1 0x20 ADD DUP3 DUP1 SLOAD PUSH2 0x329 SWAP1 PUSH2 0x456 JUMP JUMPDEST DUP1 ISZERO PUSH2 0x374 JUMPI DUP1 PUSH1 0x1F LT PUSH2 0x34B JUMPI PUSH2 0x100 DUP1 DUP4 SLOAD DIV MUL DUP4 MSTORE SWAP2 PUSH1 0x20 ADD SWAP2 PUSH2 0x374 JUMP JUMPDEST DUP3 ADD SWAP2 SWAP1 PUSH0 MSTORE PUSH1 0x20 PUSH0 KECCAK256 SWAP1 JUMPDEST DUP2 SLOAD DUP2 MSTORE SWAP1 PUSH1 0x1 ADD SWAP1 PUSH1 0x20 ADD DUP1 DUP4 GT PUSH2 0x357 JUMPI DUP3 SWAP1 SUB PUSH1 0x1F AND DUP3 ADD SWAP2 JUMPDEST POP SWAP4 SWAP12 SWAP11 POP POP POP POP POP POP POP POP POP POP POP JUMP JUMPDEST PUSH1 0x1 PUSH1 0x1 PUSH1 0xA0 SHL SUB DUP5 AND PUSH0 SWAP1 DUP2 MSTORE PUSH1 0x20 DUP2 DUP2 MSTORE PUSH1 0x40 DUP1 DUP4 KECCAK256 DUP7 DUP5 MSTORE SWAP1 SWAP2 MSTORE SWAP1 KECCAK256 PUSH2 0x3B0 DUP3 DUP5 DUP4 PUSH2 0x6DD JUMP JUMPDEST POP POP POP POP POP JUMP JUMPDEST PUSH0 PUSH1 0x20 DUP2 DUP2 MSTORE SWAP3 DUP2 MSTORE PUSH1 0x40 DUP1 DUP3 KECCAK256 SWAP1 SWAP4 MSTORE SWAP1 DUP2 MSTORE KECCAK256 DUP1 SLOAD PUSH2 0x3D7 SWAP1 PUSH2 0x456 JUMP JUMPDEST DUP1 PUSH1 0x1F ADD PUSH1 0x20 DUP1 SWAP2 DIV MUL PUSH1 0x20 ADD PUSH1 0x40 MLOAD SWAP1 DUP2 ADD PUSH1 0x40 MSTORE DUP1 SWAP3 SWAP2 SWAP1 DUP2 DUP2 MSTORE PUSH1 0x20 ADD DUP3 DUP1 SLOAD PUSH2 0x403 SWAP1 PUSH2 0x456 JUMP JUMPDEST DUP1 ISZERO PUSH2 0x44E JUMPI DUP1 PUSH1 0x1F LT PUSH2 0x425 JUMPI PUSH2 0x100 DUP1 DUP4 SLOAD DIV MUL DUP4 MSTORE SWAP2 PUSH1 0x20 ADD SWAP2 PUSH2 0x44E JUMP JUMPDEST DUP3 ADD SWAP2 SWAP1 PUSH0 MSTORE PUSH1 0x20 PUSH0 KECCAK256 SWAP1 JUMPDEST DUP2 SLOAD DUP2 MSTORE SWAP1 PUSH1 0x1 ADD SWAP1 PUSH1 0x20 ADD DUP1 DUP4 GT PUSH2 0x431 JUMPI DUP3 SWAP1 SUB PUSH1 0x1F AND DUP3 ADD SWAP2 JUMPDEST POP POP POP POP POP DUP2 JUMP JUMPDEST PUSH1 0x1 DUP2 DUP2 SHR SWAP1 DUP3 AND DUP1 PUSH2 0x46A JUMPI PUSH1 0x7F DUP3 AND SWAP2 POP JUMPDEST PUSH1 0x20 DUP3 LT DUP2 SUB PUSH2 0x488 JUMPI PUSH4 0x4E487B71 PUSH1 0xE0 SHL PUSH0 MSTORE PUSH1 0x22 PUSH1 0x4 MSTORE PUSH1 0x24 PUSH0 REVERT JUMPDEST POP SWAP2 SWAP1 POP JUMP JUMPDEST PUSH0 DUP1 PUSH1 0x40 DUP4 DUP6 SUB SLT ISZERO PUSH2 0x49F JUMPI PUSH0 DUP1 REVERT JUMPDEST POP POP DUP1 CALLDATALOAD SWAP3 PUSH1 0x20 SWAP1 SWAP2 ADD CALLDATALOAD SWAP2 POP JUMP JUMPDEST PUSH0 DUP1 DUP4 PUSH1 0x1F DUP5 ADD SLT PUSH2 0x4BE JUMPI PUSH0 DUP1 REVERT JUMPDEST POP DUP2 CALLDATALOAD PUSH8 0xFFFFFFFFFFFFFFFF DUP2 GT ISZERO PUSH2 0x4D5 JUMPI PUSH0 DUP1 REVERT JUMPDEST PUSH1 0x20 DUP4 ADD SWAP2 POP DUP4 PUSH1 0x20 DUP3 DUP6 ADD ADD GT ISZERO PUSH2 0x1F7 JUMPI PUSH0 DUP1 REVERT JUMPDEST PUSH0 DUP1 PUSH1 0x20 DUP4 DUP6 SUB SLT ISZERO PUSH2 0x4FD JUMPI PUSH0 DUP1 REVERT JUMPDEST DUP3 CALLDATALOAD PUSH8 0xFFFFFFFFFFFFFFFF DUP2 GT ISZERO PUSH2 0x513 JUMPI PUSH0 DUP1 REVERT JUMPDEST PUSH2 0x51F DUP6 DUP3 DUP7 ADD PUSH2 0x4AE JUMP JUMPDEST SWAP1 SWAP7 SWAP1 SWAP6 POP SWAP4 POP POP POP POP JUMP JUMPDEST PUSH1 0x1 PUSH1 0x1 PUSH1 0xA0 SHL SUB DUP2 AND DUP2 EQ PUSH2 0x53F JUMPI PUSH0 DUP1 REVERT JUMPDEST POP JUMP JUMPDEST PUSH0 DUP1 PUSH1 0x40 DUP4 DUP6 SUB SLT ISZERO PUSH2 0x553 JUMPI PUSH0 DUP1 REVERT JUMPDEST DUP3 CALLDATALOAD PUSH2 0x55E DUP2 PUSH2 0x52B JUMP JUMPDEST SWAP5 PUSH1 0x20 SWAP4 SWAP1 SWAP4 ADD CALLDATALOAD SWAP4 POP POP POP JUMP JUMPDEST PUSH0 PUSH1 0x20 DUP1 DUP4 MSTORE DUP4 MLOAD DUP1 PUSH1 0x20 DUP6 ADD MSTORE PUSH0 JUMPDEST DUP2 DUP2 LT ISZERO PUSH2 0x598 JUMPI DUP6 DUP2 ADD DUP4 ADD MLOAD DUP6 DUP3 ADD PUSH1 0x40 ADD MSTORE DUP3 ADD PUSH2 0x57C JUMP JUMPDEST POP PUSH0 PUSH1 0x40 DUP3 DUP7 ADD ADD MSTORE PUSH1 0x40 PUSH1 0x1F NOT PUSH1 0x1F DUP4 ADD AND DUP6 ADD ADD SWAP3 POP POP POP SWAP3 SWAP2 POP POP JUMP JUMPDEST PUSH0 DUP1 PUSH0 DUP1 PUSH1 0x60 DUP6 DUP8 SUB SLT ISZERO PUSH2 0x5CB JUMPI PUSH0 DUP1 REVERT JUMPDEST DUP5 CALLDATALOAD PUSH2 0x5D6 DUP2 PUSH2 0x52B JUMP JUMPDEST SWAP4 POP PUSH1 0x20 DUP6 ADD CALLDATALOAD SWAP3 POP PUSH1 0x40 DUP6 ADD CALLDATALOAD PUSH8 0xFFFFFFFFFFFFFFFF DUP2 GT ISZERO PUSH2 0x5F8 JUMPI PUSH0 DUP1 REVERT JUMPDEST PUSH2 0x604 DUP8 DUP3 DUP9 ADD PUSH2 0x4AE JUMP JUMPDEST SWAP6 SWAP9 SWAP5 SWAP8 POP SWAP6 POP POP POP POP JUMP JUMPDEST PUSH0 DUP1 DUP6 DUP6 GT ISZERO PUSH2 0x61E JUMPI PUSH0 DUP1 REVERT JUMPDEST DUP4 DUP7 GT ISZERO PUSH2 0x62A JUMPI PUSH0 DUP1 REVERT JUMPDEST POP POP DUP3 ADD SWAP4 SWAP2 SWAP1 SWAP3 SUB SWAP2 POP JUMP JUMPDEST DUP1 CALLDATALOAD PUSH1 0x20 DUP4 LT ISZERO PUSH2 0x227 JUMPI PUSH0 NOT PUSH1 0x20 DUP5 SWAP1 SUB PUSH1 0x3 SHL SHL AND SWAP3 SWAP2 POP POP JUMP JUMPDEST PUSH0 DUP1 PUSH1 0x40 DUP4 DUP6 SUB SLT ISZERO PUSH2 0x665 JUMPI PUSH0 DUP1 REVERT JUMPDEST DUP3 MLOAD PUSH2 0x670 DUP2 PUSH2 0x52B JUMP JUMPDEST PUSH1 0x20 SWAP4 SWAP1 SWAP4 ADD MLOAD SWAP3 SWAP5 SWAP3 SWAP4 POP POP POP JUMP JUMPDEST PUSH4 0x4E487B71 PUSH1 0xE0 SHL PUSH0 MSTORE PUSH1 0x41 PUSH1 0x4 MSTORE PUSH1 0x24 PUSH0 REVERT JUMPDEST PUSH1 0x1F DUP3 GT ISZERO PUSH2 0x6D8 JUMPI DUP1 PUSH0 MSTORE PUSH1 0x20 PUSH0 KECCAK256 PUSH1 0x1F DUP5 ADD PUSH1 0x5 SHR DUP2 ADD PUSH1 0x20 DUP6 LT ISZERO PUSH2 0x6B9 JUMPI POP DUP1 JUMPDEST PUSH1 0x1F DUP5 ADD PUSH1 0x5 SHR DUP3 ADD SWAP2 POP JUMPDEST DUP2 DUP2 LT ISZERO PUSH2 0x3B0 JUMPI PUSH0 DUP2 SSTORE PUSH1 0x1 ADD PUSH2 0x6C5 JUMP JUMPDEST POP POP POP JUMP JUMPDEST PUSH8 0xFFFFFFFFFFFFFFFF DUP4 GT ISZERO PUSH2 0x6F5 JUMPI PUSH2 0x6F5 PUSH2 0x680 JUMP JUMPDEST PUSH2 0x709 DUP4 PUSH2 0x703 DUP4 SLOAD PUSH2 0x456 JUMP JUMPDEST DUP4 PUSH2 0x694 JUMP JUMPDEST PUSH0 PUSH1 0x1F DUP5 GT PUSH1 0x1 DUP2 EQ PUSH2 0x73A JUMPI PUSH0 DUP6 ISZERO PUSH2 0x723 JUMPI POP DUP4 DUP3 ADD CALLDATALOAD JUMPDEST PUSH0 NOT PUSH1 0x3 DUP8 SWAP1 SHL SHR NOT AND PUSH1 0x1 DUP7 SWAP1 SHL OR DUP4 SSTORE PUSH2 0x3B0 JUMP JUMPDEST PUSH0 DUP4 DUP2 MSTORE PUSH1 0x20 DUP2 KECCAK256 PUSH1 0x1F NOT DUP8 AND SWAP2 JUMPDEST DUP3 DUP2 LT ISZERO PUSH2 0x769 JUMPI DUP7 DUP6 ADD CALLDATALOAD DUP3 SSTORE PUSH1 0x20 SWAP5 DUP6 ADD SWAP5 PUSH1 0x1 SWAP1 SWAP3 ADD SWAP2 ADD PUSH2 0x749 JUMP JUMPDEST POP DUP7 DUP3 LT ISZERO PUSH2 0x785 JUMPI PUSH0 NOT PUSH1 0xF8 DUP9 PUSH1 0x3 SHL AND SHR NOT DUP5 DUP8 ADD CALLDATALOAD AND DUP2 SSTORE JUMPDEST POP POP PUSH1 0x1 DUP6 PUSH1 0x1 SHL ADD DUP4 SSTORE POP POP POP POP POP JUMP INVALID LOG2 PUSH5 0x6970667358 0x22 SLT KECCAK256 PUSH0 LOG4 0x28 PUSH25 0x665F9B8B2418952C9380E5823290041DD7A66392D9AD7CFEF2 0xF8 CALLDATACOPY 0x1E PUSH5 0x736F6C6343 STOP ADDMOD OR STOP CALLER "},"methodIdentifiers":{"decodeInput(bytes)":"2e065ae5","hashMappingSlot(uint256,uint256)":"26e2872b","mockedSlots(address,uint256)":"7693efb6","readMockedSlot(address,uint256)":"540811ed","setMockedSlot(address,uint256,bytes)":"73475633"}}}}}