{"contracts/ToadnadoL2.sol":{"ToadnadoL2":{"abi":[{"inputs":[{"internalType":"address","name":"_verifier","type":"address"},{"internalType":"uint256","name":"_denomination","type":"uint256"},{"internalType":"uint32","name":"_merkleTreeHeight","type":"uint32"},{"internalType":"address","name":"_l2ScrollMessenger","type":"address"},{"internalType":"address","name":"_l1ToadnadoAddress","type":"address"}],"stateMutability":"nonpayable","type":"constructor"},{"inputs":[],"name":"ReentrancyGuardReentrantCall","type":"error"},{"inputs":[],"name":"VerificationFailed","type":"error"},{"anonymous":false,"inputs":[{"indexed":true,"internalType":"uint256","name":"commitment","type":"uint256"},{"indexed":false,"internalType":"uint32","name":"leafIndex","type":"uint32"},{"indexed":false,"internalType":"uint256","name":"timestamp","type":"uint256"}],"name":"Deposit","type":"event"},{"anonymous":false,"inputs":[{"indexed":false,"internalType":"address","name":"recipient","type":"address"},{"indexed":false,"internalType":"uint256","name":"nullifier","type":"uint256"}],"name":"PendingWithdrawal","type":"event"},{"anonymous":false,"inputs":[{"indexed":false,"internalType":"address","name":"recipient","type":"address"},{"indexed":false,"internalType":"uint256","name":"nullifier","type":"uint256"}],"name":"Withdrawal","type":"event"},{"inputs":[],"name":"ROOT_HISTORY_SIZE","outputs":[{"internalType":"uint32","name":"","type":"uint32"}],"stateMutability":"view","type":"function"},{"inputs":[],"name":"bridgeDebt","outputs":[{"internalType":"uint256","name":"","type":"uint256"}],"stateMutability":"view","type":"function"},{"inputs":[{"internalType":"uint256","name":"_amount","type":"uint256"},{"internalType":"uint256","name":"gasLimit","type":"uint256"}],"name":"bridgeEth","outputs":[],"stateMutability":"nonpayable","type":"function"},{"inputs":[{"internalType":"uint256","name":"","type":"uint256"}],"name":"commitments","outputs":[{"internalType":"bool","name":"","type":"bool"}],"stateMutability":"view","type":"function"},{"inputs":[{"internalType":"uint256","name":"","type":"uint256"}],"name":"commitmentsTreeRoots","outputs":[{"internalType":"bool","name":"","type":"bool"}],"stateMutability":"view","type":"function"},{"inputs":[],"name":"currentRootIndex","outputs":[{"internalType":"uint32","name":"","type":"uint32"}],"stateMutability":"view","type":"function"},{"inputs":[],"name":"denomination","outputs":[{"internalType":"uint256","name":"","type":"uint256"}],"stateMutability":"view","type":"function"},{"inputs":[{"internalType":"uint256","name":"_commitment","type":"uint256"}],"name":"deposit","outputs":[],"stateMutability":"payable","type":"function"},{"inputs":[],"name":"ethPendingWithdrawals","outputs":[{"internalType":"uint256","name":"","type":"uint256"}],"stateMutability":"view","type":"function"},{"inputs":[{"internalType":"uint256","name":"","type":"uint256"}],"name":"filledSubtrees","outputs":[{"internalType":"uint256","name":"","type":"uint256"}],"stateMutability":"view","type":"function"},{"inputs":[{"internalType":"uint256","name":"key","type":"uint256"}],"name":"getL1Root","outputs":[{"internalType":"uint256","name":"","type":"uint256"}],"stateMutability":"view","type":"function"},{"inputs":[],"name":"getLastRoot","outputs":[{"internalType":"uint256","name":"","type":"uint256"}],"stateMutability":"view","type":"function"},{"inputs":[{"internalType":"uint256","name":"_left","type":"uint256"},{"internalType":"uint256","name":"_right","type":"uint256"}],"name":"hashLeftRight","outputs":[{"internalType":"uint256","name":"","type":"uint256"}],"stateMutability":"pure","type":"function"},{"inputs":[{"internalType":"uint256","name":"_root","type":"uint256"}],"name":"isKnownL1Root","outputs":[{"internalType":"bool","name":"","type":"bool"}],"stateMutability":"view","type":"function"},{"inputs":[{"internalType":"uint256","name":"_root","type":"uint256"}],"name":"isKnownL2Root","outputs":[{"internalType":"bool","name":"","type":"bool"}],"stateMutability":"view","type":"function"},{"inputs":[{"internalType":"uint256","name":"_nullifierHash","type":"uint256"}],"name":"isSpent","outputs":[{"internalType":"bool","name":"","type":"bool"}],"stateMutability":"view","type":"function"},{"inputs":[{"internalType":"uint256[]","name":"_nullifierHashes","type":"uint256[]"}],"name":"isSpentArray","outputs":[{"internalType":"bool[]","name":"spent","type":"bool[]"}],"stateMutability":"view","type":"function"},{"inputs":[],"name":"l1ToadnadoAddress","outputs":[{"internalType":"address","name":"","type":"address"}],"stateMutability":"view","type":"function"},{"inputs":[],"name":"l2ScrollMessenger","outputs":[{"internalType":"address","name":"","type":"address"}],"stateMutability":"view","type":"function"},{"inputs":[],"name":"levels","outputs":[{"internalType":"uint32","name":"","type":"uint32"}],"stateMutability":"view","type":"function"},{"inputs":[],"name":"nextIndex","outputs":[{"internalType":"uint32","name":"","type":"uint32"}],"stateMutability":"view","type":"function"},{"inputs":[{"internalType":"uint256","name":"","type":"uint256"}],"name":"nullifiers","outputs":[{"internalType":"bool","name":"","type":"bool"}],"stateMutability":"view","type":"function"},{"inputs":[{"internalType":"address","name":"l1_contract","type":"address"},{"internalType":"uint256","name":"slot","type":"uint256"}],"name":"readSingleSlot","outputs":[{"internalType":"bytes","name":"","type":"bytes"}],"stateMutability":"view","type":"function"},{"inputs":[],"name":"recieveBridgedEth","outputs":[],"stateMutability":"payable","type":"function"},{"inputs":[{"internalType":"uint256","name":"gasLimit","type":"uint256"}],"name":"requestEthBridge","outputs":[],"stateMutability":"nonpayable","type":"function"},{"inputs":[{"internalType":"uint256","name":"","type":"uint256"}],"name":"roots","outputs":[{"internalType":"uint256","name":"","type":"uint256"}],"stateMutability":"view","type":"function"},{"inputs":[{"internalType":"uint32","name":"gasLimit","type":"uint32"}],"name":"sendLatestRootToL1","outputs":[],"stateMutability":"payable","type":"function"},{"inputs":[],"name":"verifier","outputs":[{"internalType":"address","name":"","type":"address"}],"stateMutability":"view","type":"function"},{"inputs":[{"internalType":"uint256","name":"_l1root","type":"uint256"},{"internalType":"uint256","name":"_l2root","type":"uint256"},{"internalType":"uint256","name":"_nullifier","type":"uint256"},{"internalType":"address payable","name":"_recipient","type":"address"},{"internalType":"bytes","name":"snarkProof","type":"bytes"}],"name":"withdraw","outputs":[],"stateMutability":"payable","type":"function"},{"inputs":[{"internalType":"uint256","name":"_nullifier","type":"uint256"}],"name":"withdrawPending","outputs":[],"stateMutability":"nonpayable","type":"function"},{"inputs":[{"internalType":"uint256","name":"i","type":"uint256"}],"name":"zeros","outputs":[{"internalType":"uint256","name":"","type":"uint256"}],"stateMutability":"pure","type":"function"}],"evm":{"bytecode":{"linkReferences":{"poseidon-solidity/PoseidonT3.sol":{"PoseidonT3":[{"length":20,"start":5351},{"length":20,"start":5766}]}},"object":"610100604052600380546001600160401b03191690555f6009819055600a553480156200002a575f80fd5b50604051620030e6380380620030e68339810160408190526200004d91620008d7565b848484805f8163ffffffff1611620000b85760405162461bcd60e51b815260206004820152602360248201527f5f6c6576656c732073686f756c642062652067726561746572207468616e207a60448201526265726f60e81b60648201526084015b60405180910390fd5b60148163ffffffff1610620001105760405162461bcd60e51b815260206004820152601e60248201527f5f6c6576656c732073686f756c64206265206c657373207468616e20323000006044820152606401620000af565b5f805463ffffffff191663ffffffff83161781555b8163ffffffff168163ffffffff1610156200016d576200014b63ffffffff821662000232565b63ffffffff82165f908152600160208190526040909120919091550162000125565b506200017f63ffffffff821662000232565b5f805260026020527fac33ff75c19e70fe83507db0d683fd3465c996598dc972688b7ace676c89077b55506001600455816200020c5760405162461bcd60e51b815260206004820152602560248201527f64656e6f6d696e6174696f6e2073686f756c6420626520677265617465722074604482015264068616e20360dc1b6064820152608401620000af565b506001600160a01b0391821660a05260805291821660c0521660e0525062000943915050565b5f815f036200024257505f919050565b816001036200027257507f2098f5fb9e239eab3ceac3f27b81e481dc3124d55ffed523a839ee8446b64864919050565b81600203620002a257507f1069673dcdb12263df301a6ff584a7ec261a44cb9dc68df067a4774460b1f1e1919050565b81600303620002d257507f18f43331537ee2af2e3d758d50f72106467c6eea50371dd528d57eb2b856d238919050565b816004036200030257507f07f9d837cb17b0d36320ffe93ba52345f1b728571a568265caac97559dbc952a919050565b816005036200033257507f2b94cf5e8746b3f5c9631f4c5df32907a699c58c94b2ad4d7b5cec1639183f55919050565b816006036200036257507f2dee93c5a666459646ea7d22cca9e1bcfed71e6951b953611d11dda32ea09d78919050565b816007036200039257507f078295e5a22b84e982cf601eb639597b8b0515a88cb5ac7fa8a4aabe3c87349d919050565b81600803620003c257507f2fa5e5f18f6027a6501bec864564472a616b2e274a41211a444cbe3a99f3cc61919050565b81600903620003f257507f0e884376d0d8fd21ecb780389e941f66e45e7acce3e228ab3e2156a614fcd747919050565b81600a036200042257507f1b7201da72494f1e28717ad1a52eb469f95892f957713533de6175e5da190af2919050565b81600b036200045257507f1f8d8822725e36385200c0b201249819a6e6e1e4650808b5bebc6bface7d7636919050565b81600c036200048257507f2c5d82f66c914bafb9701589ba8cfcfb6162b0a12acf88a8d0879a0471b5f85a919050565b81600d03620004b257507f14c54148a0940bb820957f5adf3fa1134ef5c4aaa113f4646458f270e0bfbfd0919050565b81600e03620004e257507f190d33b12f986f961e10c0ee44d8b9af11be25588cad89d416118e4bf4ebe80c919050565b81600f036200051257507f22f98aa9ce704152ac17354914ad73ed1167ae6596af510aa5b3649325e06c92919050565b816010036200054257507f2a7c7c9b6ce5880b9f6f228d72bf6a575a526f29c66ecceef8b753d38bba7323919050565b816011036200057257507f2e8186e558698ec1c67af9c14d463ffc470043c9c2988b954d75dd643f36b992919050565b81601203620005a257507f0f57c5571e9a4eab49e2c8cf050dae948aef6ead647392273546249d1c1ff10f919050565b81601303620005d257507f1830ee67b5fb554ad5f63d4388800e1cfe78e310697d46e43c9ce36134f72cca919050565b816014036200060257507f2134e76ac5d21aab186c2be1dd8f84ee880a1e46eaf712f9d371b6df22191f3e919050565b816015036200063257507f19df90ec844ebc4ffeebd866f33859b0c051d8c958ee3aa88f8f8df3db91a5b1919050565b816016036200066257507f18cca2a66b5c0787981e69aefd84852d74af0e93ef4912b4648c05f722efe52b919050565b816017036200069257507f2388909415230d1b4d1304d2d54f473a628338f2efad83fadf05644549d2538d919050565b81601803620006c257507f27171fb4a97b6cc0e9e8f543b5294de866a2af2c9c8d0b1d96e673e4529ed540919050565b81601903620006f257507f2ff6650540f629fd5711a0bc74fc0d28dcb230b9392583e5f8d59696dde6ae21919050565b81601a036200072257507f120c58f143d491e95902f7f5277778a2e0ad5168f6add75669932630ce611518919050565b81601b036200075257507f1f21feb70d3f21b07bf853d5e5db03071ec495a0a565a21da2d665d279483795919050565b81601c036200078257507f24be905fa71335e14c638cc0f66a8623a826e768068a9e968bb1a1dde18a72d2919050565b81601d03620007b257507f0f8666b62ed17491c50ceadead57d4cd597ef3821d65c328744c74e553dac26d919050565b81601e03620007e257507f0918d46bf52d98b034413f4a1a1c41594e7a7a3f6ae08cb43d1a2a230e1959ef919050565b81601f036200081257507f1bbeb01b4c479ecde76917645e404dfa2e26f90d0afc5a65128513ad375c5ff2919050565b816020036200084257507f2f68a1c58e257e42a17a6c61dff5551ed560b9922ab119d5ac8e184c9734ead9919050565b816021036200087257507f1102d2f8db05e4af4842e8ad3d85ed45eb28447eb7212235a2281d5ab5d81d11919050565b60405162461bcd60e51b815260206004820152601360248201527f496e646578206f7574206f6620626f756e6473000000000000000000000000006044820152606401620000af565b919050565b80516001600160a01b0381168114620008bb575f80fd5b5f805f805f60a08688031215620008ec575f80fd5b620008f786620008c0565b945060208601519350604086015163ffffffff8116811462000917575f80fd5b92506200092760608701620008c0565b91506200093760808701620008c0565b90509295509295909350565b60805160a05160c05160e0516126f8620009ee5f395f81816105240152818161089e0152818161097e01528181610a6a01528181610e260152818161107a015281816118c20152611a0001525f81816104a70152818161093f015281816109a801528181610df50152818161104101528181611883015281816118ec01526119c701525f818161027b0152610d2701525f81816103eb01528181611bb80152611eeb01526126f85ff3fe6080604052600436106101d0575f3560e01c80639d7d010f116100fd578063cd87a3b411610092578063ea65ba4911610062578063ea65ba49146105bc578063f178e47c146105e8578063f8af86e714610613578063fc7e9c6f14610632575f80fd5b8063cd87a3b414610546578063d21e82ab1461055a578063db394bb914610588578063e82955881461059d575f80fd5b8063c0e70bbd116100cd578063c0e70bbd14610496578063c2b40ae4146104c9578063c9ca7a61146104f4578063cc48b73514610513575f80fd5b80639d7d010f14610429578063b6b55f251461043c578063b89d302d1461044f578063ba70f7571461046e575f80fd5b806349ce8997116101735780635bb93995116101435780635bb93995146103a85780637bde37db146103c75780638bca6d16146103da57806390eeb02b1461040d575f80fd5b806349ce8997146102fd5780634ecf518b1461032b5780635032d4f11461035b5780635a129efe1461037a575f80fd5b80632b7ac3f3116101ae5780632b7ac3f31461026a5780632e585fd8146102b5578063397a14b4146102d657806339da4b55146102f5575f80fd5b8063102b72e7146101d45780631b5844ff1461020957806328482f891461022c575b5f80fd5b3480156101df575f80fd5b506101f36101ee36600461200d565b610656565b6040516102009190612084565b60405180910390f35b348015610214575f80fd5b5061021e600a5481565b604051908152602001610200565b348015610237575f80fd5b5061025a610246366004612096565b60076020525f908152604090205460ff1681565b6040519015158152602001610200565b348015610275575f80fd5b5061029d7f000000000000000000000000000000000000000000000000000000000000000081565b6040516001600160a01b039091168152602001610200565b3480156102c0575f80fd5b506102d46102cf366004612096565b61073e565b005b3480156102e1575f80fd5b5061025a6102f0366004612096565b610889565b6102d4610934565b348015610308575f80fd5b5061025a610317366004612096565b60066020525f908152604090205460ff1681565b348015610336575f80fd5b505f546103469063ffffffff1681565b60405163ffffffff9091168152602001610200565b348015610366575f80fd5b5061021e610375366004612096565b610a64565b348015610385575f80fd5b5061025a610394366004612096565b5f9081526005602052604090205460ff1690565b3480156103b3575f80fd5b5061021e6103c23660046120ad565b610ad6565b6102d46103d53660046120cd565b610b65565b3480156103e5575f80fd5b5061021e7f000000000000000000000000000000000000000000000000000000000000000081565b348015610418575f80fd5b506003546103469063ffffffff1681565b6102d4610437366004612177565b610df3565b6102d461044a366004612096565b610ef6565b34801561045a575f80fd5b5061025a610469366004612096565b610fe8565b348015610479575f80fd5b5060035463ffffffff165f9081526002602052604090205461021e565b3480156104a1575f80fd5b5061029d7f000000000000000000000000000000000000000000000000000000000000000081565b3480156104d4575f80fd5b5061021e6104e3366004612096565b60026020525f908152604090205481565b3480156104ff575f80fd5b506102d461050e366004612096565b610ff2565b34801561051e575f80fd5b5061029d7f000000000000000000000000000000000000000000000000000000000000000081565b348015610551575f80fd5b50610346601e81565b348015610565575f80fd5b5061025a610574366004612096565b60056020525f908152604090205460ff1681565b348015610593575f80fd5b5061021e60095481565b3480156105a8575f80fd5b5061021e6105b7366004612096565b6110e0565b3480156105c7575f80fd5b506105db6105d6366004612192565b61173c565b6040516102009190612201565b3480156105f3575f80fd5b5061021e610602366004612096565b60016020525f908152604090205481565b34801561061e575f80fd5b506102d461062d3660046120ad565b6117f6565b34801561063d575f80fd5b5060035461034690640100000000900463ffffffff1681565b604051606083811b6bffffffffffffffffffffffff1916602083015260348201839052905f9060540160405160208183030381529060405290505f60606101016001600160a01b0316836040516106ad9190612246565b5f60405180830381855afa9150503d805f81146106e5576040519150601f19603f3d011682016040523d82523d5f602084013e6106ea565b606091505b509092509050816107335760405162461bcd60e51b815260206004820152600e60248201526d130c54d313d0510819985a5b195960921b60448201526064015b60405180910390fd5b925050505b92915050565b5f81815260086020908152604091829020825160608101845281546001600160a01b031681526001808301549382019390935260029091015460ff16151592810183905291146107d05760405162461bcd60e51b815260206004820181905260248201527f5468697320776974686472617720697320616c726561647920636c61696d6564604482015260640161072a565b5f8281526008602090815260408220600201805460ff19169055820151600a805491929091610800908490612275565b9091555050805160208201516040516001600160a01b039092169181156108fc0291905f818181858888f1935050505015801561083f573d5f803e3d5ffd5b508051604080516001600160a01b039092168252602082018490527f7fcf532c15f0a6db0bd6d0e038bea71d30d808c7d98cb3bf7268a95bf5081b65910160405180910390a15050565b5f815f0361089857505f919050565b5f6108c47f00000000000000000000000000000000000000000000000000000000000000006003610656565b8060200190518101906108d79190612288565b9050805b6108ea8163ffffffff16610a64565b84036108fa575060019392505050565b8063ffffffff165f0361090b5750601e5b80610915816122a3565b9150508163ffffffff168163ffffffff16036108db57505f9392505050565b336001600160a01b037f0000000000000000000000000000000000000000000000000000000000000000161461097c5760405162461bcd60e51b815260040161072a906122c1565b7f00000000000000000000000000000000000000000000000000000000000000006001600160a01b03167f00000000000000000000000000000000000000000000000000000000000000006001600160a01b0316636e296e456040518163ffffffff1660e01b8152600401602060405180830381865afa158015610a02573d5f803e3d5ffd5b505050506040513d601f19601f82011682018060405250810190610a269190612309565b6001600160a01b031614610a4c5760405162461bcd60e51b815260040161072a90612324565b34600a5f828254610a5d9190612381565b9091555050565b5f610ac37f0000000000000000000000000000000000000000000000000000000000000000836003604051602001610aa6929190918252602082015260400190565b604051602081830303815290604052805190602001205f1c610656565b8060200190518101906107389190612394565b604080518082018252838152602081018390529051632b0aac7f60e11b81525f9173__$75f79a42d9bcbdbb69ad79ebd80f556f39$__9163561558fe91610b1f916004016123ab565b602060405180830381865af4158015610b3a573d5f803e3d5ffd5b505050506040513d601f19601f82011682018060405250810190610b5e9190612394565b9392505050565b610b6d611a5f565b5f8481526005602052604090205460ff1615610bcb5760405162461bcd60e51b815260206004820152601f60248201527f546865206e6f746520686173206265656e20616c7265616479207370656e7400604482015260640161072a565b610bd485610fe8565b610c205760405162461bcd60e51b815260206004820152601f60248201527f43616e6e6f742066696e6420796f7572206c32206d65726b6c6520726f6f7400604482015260640161072a565b610c2986610889565b610c755760405162461bcd60e51b815260206004820152601f60248201527f43616e6e6f742066696e6420796f7572206c31206d65726b6c6520726f6f7400604482015260640161072a565b604080518082018252878152602081018790529051632b0aac7f60e11b81525f9173__$75f79a42d9bcbdbb69ad79ebd80f556f39$__9163561558fe91610cbe916004016123ab565b602060405180830381865af4158015610cd9573d5f803e3d5ffd5b505050506040513d601f19601f82011682018060405250810190610cfd9190612394565b9050465f610d0d83888885611a89565b604051633a94343960e21b81529091506001600160a01b037f0000000000000000000000000000000000000000000000000000000000000000169063ea50d0e490610d60908890889086906004016123db565b602060405180830381865afa158015610d7b573d5f803e3d5ffd5b505050506040513d601f19601f82011682018060405250810190610d9f9190612453565b610dbc5760405163439cc0cd60e01b815260040160405180910390fd5b5f878152600560205260409020805460ff19166001179055610dde8688611b47565b505050610deb6001600455565b505050505050565b7f00000000000000000000000000000000000000000000000000000000000000006001600160a01b038116635f7b1577347f00000000000000000000000000000000000000000000000000000000000000005f610e6360035463ffffffff165f9081526002602052604090205490565b604051602401610e7591815260200190565b60408051601f198184030181529181526020820180516001600160e01b0316636b91e4d560e01b1790525160e086901b6001600160e01b0319168152610ec49392919089903390600401612472565b5f604051808303818588803b158015610edb575f80fd5b505af1158015610eed573d5f803e3d5ffd5b50505050505050565b610efe611a5f565b5f8181526006602052604090205460ff1615610f6e5760405162461bcd60e51b815260206004820152602960248201527f54686520636f6d6d69746d656e742068617320616c7265616479206265656e206044820152681cdd589b5a5d1d195960ba1b606482015260840161072a565b5f610f7882611d29565b5f838152600660205260409020805460ff191660011790559050610f9a611ee9565b6040805163ffffffff8316815242602082015283917f2813ca2762c14ad53880ef467c7448a9015904c20e064e6216ffb3f63390ec5d910160405180910390a250610fe56001600455565b50565b5f61073882611f80565b6009546040805160248101839052604480820185905282518083039091018152606490910182526020810180516001600160e01b031663f8af86e760e01b1790529051635f7b157760e01b81527f0000000000000000000000000000000000000000000000000000000000000000916001600160a01b03831691635f7b1577915f916110a9917f0000000000000000000000000000000000000000000000000000000000000000918491908a9033906004016124b9565b5f604051808303818588803b1580156110c0575f80fd5b505af11580156110d2573d5f803e3d5ffd5b50505f600955505050505050565b5f815f036110ef57505f919050565b8160010361111e57507f2098f5fb9e239eab3ceac3f27b81e481dc3124d55ffed523a839ee8446b64864919050565b8160020361114d57507f1069673dcdb12263df301a6ff584a7ec261a44cb9dc68df067a4774460b1f1e1919050565b8160030361117c57507f18f43331537ee2af2e3d758d50f72106467c6eea50371dd528d57eb2b856d238919050565b816004036111ab57507f07f9d837cb17b0d36320ffe93ba52345f1b728571a568265caac97559dbc952a919050565b816005036111da57507f2b94cf5e8746b3f5c9631f4c5df32907a699c58c94b2ad4d7b5cec1639183f55919050565b8160060361120957507f2dee93c5a666459646ea7d22cca9e1bcfed71e6951b953611d11dda32ea09d78919050565b8160070361123857507f078295e5a22b84e982cf601eb639597b8b0515a88cb5ac7fa8a4aabe3c87349d919050565b8160080361126757507f2fa5e5f18f6027a6501bec864564472a616b2e274a41211a444cbe3a99f3cc61919050565b8160090361129657507f0e884376d0d8fd21ecb780389e941f66e45e7acce3e228ab3e2156a614fcd747919050565b81600a036112c557507f1b7201da72494f1e28717ad1a52eb469f95892f957713533de6175e5da190af2919050565b81600b036112f457507f1f8d8822725e36385200c0b201249819a6e6e1e4650808b5bebc6bface7d7636919050565b81600c0361132357507f2c5d82f66c914bafb9701589ba8cfcfb6162b0a12acf88a8d0879a0471b5f85a919050565b81600d0361135257507f14c54148a0940bb820957f5adf3fa1134ef5c4aaa113f4646458f270e0bfbfd0919050565b81600e0361138157507f190d33b12f986f961e10c0ee44d8b9af11be25588cad89d416118e4bf4ebe80c919050565b81600f036113b057507f22f98aa9ce704152ac17354914ad73ed1167ae6596af510aa5b3649325e06c92919050565b816010036113df57507f2a7c7c9b6ce5880b9f6f228d72bf6a575a526f29c66ecceef8b753d38bba7323919050565b8160110361140e57507f2e8186e558698ec1c67af9c14d463ffc470043c9c2988b954d75dd643f36b992919050565b8160120361143d57507f0f57c5571e9a4eab49e2c8cf050dae948aef6ead647392273546249d1c1ff10f919050565b8160130361146c57507f1830ee67b5fb554ad5f63d4388800e1cfe78e310697d46e43c9ce36134f72cca919050565b8160140361149b57507f2134e76ac5d21aab186c2be1dd8f84ee880a1e46eaf712f9d371b6df22191f3e919050565b816015036114ca57507f19df90ec844ebc4ffeebd866f33859b0c051d8c958ee3aa88f8f8df3db91a5b1919050565b816016036114f957507f18cca2a66b5c0787981e69aefd84852d74af0e93ef4912b4648c05f722efe52b919050565b8160170361152857507f2388909415230d1b4d1304d2d54f473a628338f2efad83fadf05644549d2538d919050565b8160180361155757507f27171fb4a97b6cc0e9e8f543b5294de866a2af2c9c8d0b1d96e673e4529ed540919050565b8160190361158657507f2ff6650540f629fd5711a0bc74fc0d28dcb230b9392583e5f8d59696dde6ae21919050565b81601a036115b557507f120c58f143d491e95902f7f5277778a2e0ad5168f6add75669932630ce611518919050565b81601b036115e457507f1f21feb70d3f21b07bf853d5e5db03071ec495a0a565a21da2d665d279483795919050565b81601c0361161357507f24be905fa71335e14c638cc0f66a8623a826e768068a9e968bb1a1dde18a72d2919050565b81601d0361164257507f0f8666b62ed17491c50ceadead57d4cd597ef3821d65c328744c74e553dac26d919050565b81601e0361167157507f0918d46bf52d98b034413f4a1a1c41594e7a7a3f6ae08cb43d1a2a230e1959ef919050565b81601f036116a057507f1bbeb01b4c479ecde76917645e404dfa2e26f90d0afc5a65128513ad375c5ff2919050565b816020036116cf57507f2f68a1c58e257e42a17a6c61dff5551ed560b9922ab119d5ac8e184c9734ead9919050565b816021036116fe57507f1102d2f8db05e4af4842e8ad3d85ed45eb28447eb7212235a2281d5ab5d81d11919050565b60405162461bcd60e51b8152602060048201526013602482015272496e646578206f7574206f6620626f756e647360681b604482015260640161072a565b60608167ffffffffffffffff811115611757576117576124fa565b604051908082528060200260200182016040528015611780578160200160208202803683370190505b5090505f5b828110156117ef576117bd8484838181106117a2576117a261250e565b905060200201355f9081526005602052604090205460ff1690565b156117e75760018282815181106117d6576117d661250e565b911515602092830291909101909101525b600101611785565b5092915050565b600a546118039047612275565b8211156118785760405162461bcd60e51b815260206004820152603e60248201527f6e6f7420656e6f7567682065746820696e20636f6e74726163742028636f6e7360448201527f69646572696e672065746850656e64696e675769746864726177616c73290000606482015260840161072a565b336001600160a01b037f000000000000000000000000000000000000000000000000000000000000000016146118c05760405162461bcd60e51b815260040161072a906122c1565b7f00000000000000000000000000000000000000000000000000000000000000006001600160a01b03167f00000000000000000000000000000000000000000000000000000000000000006001600160a01b0316636e296e456040518163ffffffff1660e01b8152600401602060405180830381865afa158015611946573d5f803e3d5ffd5b505050506040513d601f19601f8201168201806040525081019061196a9190612309565b6001600160a01b0316146119905760405162461bcd60e51b815260040161072a90612324565b6040805160048082526024820183526020820180516001600160e01b03166339da4b5560e01b1790529151635f7b157760e01b81527f0000000000000000000000000000000000000000000000000000000000000000926001600160a01b03841692635f7b1577928792611a2c927f00000000000000000000000000000000000000000000000000000000000000009285928a913391016124b9565b5f604051808303818588803b158015611a43575f80fd5b505af1158015611a55573d5f803e3d5ffd5b5050505050505050565b600260045403611a8257604051633ee5aeb560e01b815260040160405180910390fd5b6002600455565b60408051600480825260a082019092526060915f919060208201608080368337019050509050855f1b815f81518110611ac457611ac461250e565b602002602001018181525050845f1b81600181518110611ae657611ae661250e565b602090810291909101015280516001600160a01b0385169082906002908110611b1157611b1161250e565b602002602001018181525050825f1b81600381518110611b3357611b3361250e565b602090810291909101015295945050505050565b3415611bb35760405162461bcd60e51b815260206004820152603560248201527f4d6573736167652076616c756520697320737570706f73656420746f206265206044820152747a65726f20666f722045544820696e7374616e636560581b606482015260840161072a565b600a547f0000000000000000000000000000000000000000000000000000000000000000908190611be49047612275565b10611c6457604080516001600160a01b0385168152602081018490527f7fcf532c15f0a6db0bd6d0e038bea71d30d808c7d98cb3bf7268a95bf5081b65910160405180910390a16040516001600160a01b0384169082156108fc029083905f818181858888f19350505050158015611c5e573d5f803e3d5ffd5b50505050565b604080516001600160a01b0385168152602081018490527f39d9cf4ffb93650d8ce789639cb8cf3c8d7b039e1f9795c038af55b4ae643fca910160405180910390a1604080516060810182526001600160a01b038581168252602080830185815260018486018181525f8981526008909452958320945185546001600160a01b0319169416939093178455519183019190915591516002909101805460ff191691151591909117905560098054839290611d1f908490612381565b9091555050505050565b6003545f8054909163ffffffff640100000000909104811691611d4e91166002612631565b63ffffffff168163ffffffff1603611dc15760405162461bcd60e51b815260206004820152603060248201527f4d65726b6c6520747265652069732066756c6c2e204e6f206d6f7265206c656160448201526f1d995cc818d85b88189948185919195960821b606482015260840161072a565b80835f80805b5f5463ffffffff9081169082161015611e5d57611de5600286612661565b63ffffffff165f03611e2157839250611e038163ffffffff166110e0565b63ffffffff82165f9081526001602052604090208590559150611e3c565b63ffffffff81165f9081526001602052604090205492508391505b611e468383610ad6565b9350611e53600286612683565b9450600101611dc7565b506003545f90601e90611e779063ffffffff1660016126a5565b611e819190612661565b6003805463ffffffff191663ffffffff83169081179091555f9081526002602052604090208590559050611eb68660016126a5565b6003805463ffffffff929092166401000000000267ffffffff000000001990921691909117905550939695505050505050565b7f00000000000000000000000000000000000000000000000000000000000000003414611f7e5760405162461bcd60e51b815260206004820152603860248201527f506c656173652073656e6420606d697844656e6f6d696e6174696f6e6020455460448201527f4820616c6f6e672077697468207472616e73616374696f6e0000000000000000606482015260840161072a565b565b5f815f03611f8f57505f919050565b60035463ffffffff16805b63ffffffff81165f908152600260205260409020548403611fbf575060019392505050565b8063ffffffff165f03611fd05750601e5b80611fda816122a3565b9150508163ffffffff168163ffffffff1603611f9a57505f9392505050565b6001600160a01b0381168114610fe5575f80fd5b5f806040838503121561201e575f80fd5b823561202981611ff9565b946020939093013593505050565b5f5b83811015612051578181015183820152602001612039565b50505f910152565b5f8151808452612070816020860160208601612037565b601f01601f19169290920160200192915050565b602081525f610b5e6020830184612059565b5f602082840312156120a6575f80fd5b5035919050565b5f80604083850312156120be575f80fd5b50508035926020909101359150565b5f805f805f8060a087890312156120e2575f80fd5b863595506020870135945060408701359350606087013561210281611ff9565b9250608087013567ffffffffffffffff8082111561211e575f80fd5b818901915089601f830112612131575f80fd5b81358181111561213f575f80fd5b8a6020828501011115612150575f80fd5b6020830194508093505050509295509295509295565b63ffffffff81168114610fe5575f80fd5b5f60208284031215612187575f80fd5b8135610b5e81612166565b5f80602083850312156121a3575f80fd5b823567ffffffffffffffff808211156121ba575f80fd5b818501915085601f8301126121cd575f80fd5b8135818111156121db575f80fd5b8660208260051b85010111156121ef575f80fd5b60209290920196919550909350505050565b602080825282518282018190525f9190848201906040850190845b8181101561223a57835115158352928401929184019160010161221c565b50909695505050505050565b5f8251612257818460208701612037565b9190910192915050565b634e487b7160e01b5f52601160045260245ffd5b8181038181111561073857610738612261565b5f60208284031215612298575f80fd5b8151610b5e81612166565b5f63ffffffff8216806122b8576122b8612261565b5f190192915050565b60208082526028908201527f66756e6374696f6e206e6f742063616c6c6564206279206c315363726f6c6c4d60408201526732b9b9b2b733b2b960c11b606082015260800190565b5f60208284031215612319575f80fd5b8151610b5e81611ff9565b6020808252603d908201527f636f6e7472616374206d6573736167696e672066726f6d204c32206973206e6f60408201527f7420746865206c32546f61646e61646f5363726f6c6c41646472657373000000606082015260800190565b8082018082111561073857610738612261565b5f602082840312156123a4575f80fd5b5051919050565b6040810181835f5b60028110156123d25781518352602092830192909101906001016123b3565b50505092915050565b60408152826040820152828460608301375f606084830101525f601f19601f850116820160608101602060608584030160208601528186518084526080850191506020880194505f93505b808410156124465784518252938201936001939093019290820190612426565b5098975050505050505050565b5f60208284031215612463575f80fd5b81518015158114610b5e575f80fd5b5f60018060a01b03808816835286602084015260a0604084015261249960a0840187612059565b63ffffffff95909516606084015292909216608090910152509392505050565b5f60018060a01b03808816835286602084015260a060408401526124e060a0840187612059565b606084019590955292909216608090910152509392505050565b634e487b7160e01b5f52604160045260245ffd5b634e487b7160e01b5f52603260045260245ffd5b600181815b8085111561255f578163ffffffff0482111561254557612545612261565b8085161561255257918102915b93841c9390800290612527565b509250929050565b5f8261257557506001610738565b8161258157505f610738565b816001811461259757600281146125a1576125d2565b6001915050610738565b60ff8411156125b2576125b2612261565b6001841b915063ffffffff8211156125cc576125cc612261565b50610738565b5060208310610133831016604e8410600b8410161715612609575081810a63ffffffff81111561260457612604612261565b610738565b6126138383612522565b8063ffffffff0482111561262957612629612261565b029392505050565b5f63ffffffff612645818516828516612567565b949350505050565b634e487b7160e01b5f52601260045260245ffd5b5f63ffffffff808416806126775761267761264d565b92169190910692915050565b5f63ffffffff808416806126995761269961264d565b92169190910492915050565b63ffffffff8181168382160190808211156117ef576117ef61226156fea2646970667358221220c456983331b6018d0a17e3ac2ddfa0be6384180e901bdfe5ff4faa02009879f264736f6c63430008170033","opcodes":"PUSH2 0x100 PUSH1 0x40 MSTORE PUSH1 0x3 DUP1 SLOAD PUSH1 0x1 PUSH1 0x1 PUSH1 0x40 SHL SUB NOT AND SWAP1 SSTORE PUSH0 PUSH1 0x9 DUP2 SWAP1 SSTORE PUSH1 0xA SSTORE CALLVALUE DUP1 ISZERO PUSH3 0x2A JUMPI PUSH0 DUP1 REVERT JUMPDEST POP PUSH1 0x40 MLOAD PUSH3 0x30E6 CODESIZE SUB DUP1 PUSH3 0x30E6 DUP4 CODECOPY DUP2 ADD PUSH1 0x40 DUP2 SWAP1 MSTORE PUSH3 0x4D SWAP2 PUSH3 0x8D7 JUMP JUMPDEST DUP5 DUP5 DUP5 DUP1 PUSH0 DUP2 PUSH4 0xFFFFFFFF AND GT PUSH3 0xB8 JUMPI PUSH1 0x40 MLOAD PUSH3 0x461BCD PUSH1 0xE5 SHL DUP2 MSTORE PUSH1 0x20 PUSH1 0x4 DUP3 ADD MSTORE PUSH1 0x23 PUSH1 0x24 DUP3 ADD MSTORE PUSH32 0x5F6C6576656C732073686F756C642062652067726561746572207468616E207A PUSH1 0x44 DUP3 ADD MSTORE PUSH3 0x65726F PUSH1 0xE8 SHL PUSH1 0x64 DUP3 ADD MSTORE PUSH1 0x84 ADD JUMPDEST PUSH1 0x40 MLOAD DUP1 SWAP2 SUB SWAP1 REVERT JUMPDEST PUSH1 0x14 DUP2 PUSH4 0xFFFFFFFF AND LT PUSH3 0x110 JUMPI PUSH1 0x40 MLOAD PUSH3 0x461BCD PUSH1 0xE5 SHL DUP2 MSTORE PUSH1 0x20 PUSH1 0x4 DUP3 ADD MSTORE PUSH1 0x1E PUSH1 0x24 DUP3 ADD MSTORE PUSH32 0x5F6C6576656C732073686F756C64206265206C657373207468616E2032300000 PUSH1 0x44 DUP3 ADD MSTORE PUSH1 0x64 ADD PUSH3 0xAF JUMP JUMPDEST PUSH0 DUP1 SLOAD PUSH4 0xFFFFFFFF NOT AND PUSH4 0xFFFFFFFF DUP4 AND OR DUP2 SSTORE JUMPDEST DUP2 PUSH4 0xFFFFFFFF AND DUP2 PUSH4 0xFFFFFFFF AND LT ISZERO PUSH3 0x16D JUMPI PUSH3 0x14B PUSH4 0xFFFFFFFF DUP3 AND PUSH3 0x232 JUMP JUMPDEST PUSH4 0xFFFFFFFF DUP3 AND PUSH0 SWAP1 DUP2 MSTORE PUSH1 0x1 PUSH1 0x20 DUP2 SWAP1 MSTORE PUSH1 0x40 SWAP1 SWAP2 KECCAK256 SWAP2 SWAP1 SWAP2 SSTORE ADD PUSH3 0x125 JUMP JUMPDEST POP PUSH3 0x17F PUSH4 0xFFFFFFFF DUP3 AND PUSH3 0x232 JUMP JUMPDEST PUSH0 DUP1 MSTORE PUSH1 0x2 PUSH1 0x20 MSTORE PUSH32 0xAC33FF75C19E70FE83507DB0D683FD3465C996598DC972688B7ACE676C89077B SSTORE POP PUSH1 0x1 PUSH1 0x4 SSTORE DUP2 PUSH3 0x20C JUMPI PUSH1 0x40 MLOAD PUSH3 0x461BCD PUSH1 0xE5 SHL DUP2 MSTORE PUSH1 0x20 PUSH1 0x4 DUP3 ADD MSTORE PUSH1 0x25 PUSH1 0x24 DUP3 ADD MSTORE PUSH32 0x64656E6F6D696E6174696F6E2073686F756C6420626520677265617465722074 PUSH1 0x44 DUP3 ADD MSTORE PUSH5 0x68616E203 PUSH1 0xDC SHL PUSH1 0x64 DUP3 ADD MSTORE PUSH1 0x84 ADD PUSH3 0xAF JUMP JUMPDEST POP PUSH1 0x1 PUSH1 0x1 PUSH1 0xA0 SHL SUB SWAP2 DUP3 AND PUSH1 0xA0 MSTORE PUSH1 0x80 MSTORE SWAP2 DUP3 AND PUSH1 0xC0 MSTORE AND PUSH1 0xE0 MSTORE POP PUSH3 0x943 SWAP2 POP POP JUMP JUMPDEST PUSH0 DUP2 PUSH0 SUB PUSH3 0x242 JUMPI POP PUSH0 SWAP2 SWAP1 POP JUMP JUMPDEST DUP2 PUSH1 0x1 SUB PUSH3 0x272 JUMPI POP PUSH32 0x2098F5FB9E239EAB3CEAC3F27B81E481DC3124D55FFED523A839EE8446B64864 SWAP2 SWAP1 POP JUMP JUMPDEST DUP2 PUSH1 0x2 SUB PUSH3 0x2A2 JUMPI POP PUSH32 0x1069673DCDB12263DF301A6FF584A7EC261A44CB9DC68DF067A4774460B1F1E1 SWAP2 SWAP1 POP JUMP JUMPDEST DUP2 PUSH1 0x3 SUB PUSH3 0x2D2 JUMPI POP PUSH32 0x18F43331537EE2AF2E3D758D50F72106467C6EEA50371DD528D57EB2B856D238 SWAP2 SWAP1 POP JUMP JUMPDEST DUP2 PUSH1 0x4 SUB PUSH3 0x302 JUMPI POP PUSH32 0x7F9D837CB17B0D36320FFE93BA52345F1B728571A568265CAAC97559DBC952A SWAP2 SWAP1 POP JUMP JUMPDEST DUP2 PUSH1 0x5 SUB PUSH3 0x332 JUMPI POP PUSH32 0x2B94CF5E8746B3F5C9631F4C5DF32907A699C58C94B2AD4D7B5CEC1639183F55 SWAP2 SWAP1 POP JUMP JUMPDEST DUP2 PUSH1 0x6 SUB PUSH3 0x362 JUMPI POP PUSH32 0x2DEE93C5A666459646EA7D22CCA9E1BCFED71E6951B953611D11DDA32EA09D78 SWAP2 SWAP1 POP JUMP JUMPDEST DUP2 PUSH1 0x7 SUB PUSH3 0x392 JUMPI POP PUSH32 0x78295E5A22B84E982CF601EB639597B8B0515A88CB5AC7FA8A4AABE3C87349D SWAP2 SWAP1 POP JUMP JUMPDEST DUP2 PUSH1 0x8 SUB PUSH3 0x3C2 JUMPI POP PUSH32 0x2FA5E5F18F6027A6501BEC864564472A616B2E274A41211A444CBE3A99F3CC61 SWAP2 SWAP1 POP JUMP JUMPDEST DUP2 PUSH1 0x9 SUB PUSH3 0x3F2 JUMPI POP PUSH32 0xE884376D0D8FD21ECB780389E941F66E45E7ACCE3E228AB3E2156A614FCD747 SWAP2 SWAP1 POP JUMP JUMPDEST DUP2 PUSH1 0xA SUB PUSH3 0x422 JUMPI POP PUSH32 0x1B7201DA72494F1E28717AD1A52EB469F95892F957713533DE6175E5DA190AF2 SWAP2 SWAP1 POP JUMP JUMPDEST DUP2 PUSH1 0xB SUB PUSH3 0x452 JUMPI POP PUSH32 0x1F8D8822725E36385200C0B201249819A6E6E1E4650808B5BEBC6BFACE7D7636 SWAP2 SWAP1 POP JUMP JUMPDEST DUP2 PUSH1 0xC SUB PUSH3 0x482 JUMPI POP PUSH32 0x2C5D82F66C914BAFB9701589BA8CFCFB6162B0A12ACF88A8D0879A0471B5F85A SWAP2 SWAP1 POP JUMP JUMPDEST DUP2 PUSH1 0xD SUB PUSH3 0x4B2 JUMPI POP PUSH32 0x14C54148A0940BB820957F5ADF3FA1134EF5C4AAA113F4646458F270E0BFBFD0 SWAP2 SWAP1 POP JUMP JUMPDEST DUP2 PUSH1 0xE SUB PUSH3 0x4E2 JUMPI POP PUSH32 0x190D33B12F986F961E10C0EE44D8B9AF11BE25588CAD89D416118E4BF4EBE80C SWAP2 SWAP1 POP JUMP JUMPDEST DUP2 PUSH1 0xF SUB PUSH3 0x512 JUMPI POP PUSH32 0x22F98AA9CE704152AC17354914AD73ED1167AE6596AF510AA5B3649325E06C92 SWAP2 SWAP1 POP JUMP JUMPDEST DUP2 PUSH1 0x10 SUB PUSH3 0x542 JUMPI POP PUSH32 0x2A7C7C9B6CE5880B9F6F228D72BF6A575A526F29C66ECCEEF8B753D38BBA7323 SWAP2 SWAP1 POP JUMP JUMPDEST DUP2 PUSH1 0x11 SUB PUSH3 0x572 JUMPI POP PUSH32 0x2E8186E558698EC1C67AF9C14D463FFC470043C9C2988B954D75DD643F36B992 SWAP2 SWAP1 POP JUMP JUMPDEST DUP2 PUSH1 0x12 SUB PUSH3 0x5A2 JUMPI POP PUSH32 0xF57C5571E9A4EAB49E2C8CF050DAE948AEF6EAD647392273546249D1C1FF10F SWAP2 SWAP1 POP JUMP JUMPDEST DUP2 PUSH1 0x13 SUB PUSH3 0x5D2 JUMPI POP PUSH32 0x1830EE67B5FB554AD5F63D4388800E1CFE78E310697D46E43C9CE36134F72CCA SWAP2 SWAP1 POP JUMP JUMPDEST DUP2 PUSH1 0x14 SUB PUSH3 0x602 JUMPI POP PUSH32 0x2134E76AC5D21AAB186C2BE1DD8F84EE880A1E46EAF712F9D371B6DF22191F3E SWAP2 SWAP1 POP JUMP JUMPDEST DUP2 PUSH1 0x15 SUB PUSH3 0x632 JUMPI POP PUSH32 0x19DF90EC844EBC4FFEEBD866F33859B0C051D8C958EE3AA88F8F8DF3DB91A5B1 SWAP2 SWAP1 POP JUMP JUMPDEST DUP2 PUSH1 0x16 SUB PUSH3 0x662 JUMPI POP PUSH32 0x18CCA2A66B5C0787981E69AEFD84852D74AF0E93EF4912B4648C05F722EFE52B SWAP2 SWAP1 POP JUMP JUMPDEST DUP2 PUSH1 0x17 SUB PUSH3 0x692 JUMPI POP PUSH32 0x2388909415230D1B4D1304D2D54F473A628338F2EFAD83FADF05644549D2538D SWAP2 SWAP1 POP JUMP JUMPDEST DUP2 PUSH1 0x18 SUB PUSH3 0x6C2 JUMPI POP PUSH32 0x27171FB4A97B6CC0E9E8F543B5294DE866A2AF2C9C8D0B1D96E673E4529ED540 SWAP2 SWAP1 POP JUMP JUMPDEST DUP2 PUSH1 0x19 SUB PUSH3 0x6F2 JUMPI POP PUSH32 0x2FF6650540F629FD5711A0BC74FC0D28DCB230B9392583E5F8D59696DDE6AE21 SWAP2 SWAP1 POP JUMP JUMPDEST DUP2 PUSH1 0x1A SUB PUSH3 0x722 JUMPI POP PUSH32 0x120C58F143D491E95902F7F5277778A2E0AD5168F6ADD75669932630CE611518 SWAP2 SWAP1 POP JUMP JUMPDEST DUP2 PUSH1 0x1B SUB PUSH3 0x752 JUMPI POP PUSH32 0x1F21FEB70D3F21B07BF853D5E5DB03071EC495A0A565A21DA2D665D279483795 SWAP2 SWAP1 POP JUMP JUMPDEST DUP2 PUSH1 0x1C SUB PUSH3 0x782 JUMPI POP PUSH32 0x24BE905FA71335E14C638CC0F66A8623A826E768068A9E968BB1A1DDE18A72D2 SWAP2 SWAP1 POP JUMP JUMPDEST DUP2 PUSH1 0x1D SUB PUSH3 0x7B2 JUMPI POP PUSH32 0xF8666B62ED17491C50CEADEAD57D4CD597EF3821D65C328744C74E553DAC26D SWAP2 SWAP1 POP JUMP JUMPDEST DUP2 PUSH1 0x1E SUB PUSH3 0x7E2 JUMPI POP PUSH32 0x918D46BF52D98B034413F4A1A1C41594E7A7A3F6AE08CB43D1A2A230E1959EF SWAP2 SWAP1 POP JUMP JUMPDEST DUP2 PUSH1 0x1F SUB PUSH3 0x812 JUMPI POP PUSH32 0x1BBEB01B4C479ECDE76917645E404DFA2E26F90D0AFC5A65128513AD375C5FF2 SWAP2 SWAP1 POP JUMP JUMPDEST DUP2 PUSH1 0x20 SUB PUSH3 0x842 JUMPI POP PUSH32 0x2F68A1C58E257E42A17A6C61DFF5551ED560B9922AB119D5AC8E184C9734EAD9 SWAP2 SWAP1 POP JUMP JUMPDEST DUP2 PUSH1 0x21 SUB PUSH3 0x872 JUMPI POP PUSH32 0x1102D2F8DB05E4AF4842E8AD3D85ED45EB28447EB7212235A2281D5AB5D81D11 SWAP2 SWAP1 POP JUMP JUMPDEST PUSH1 0x40 MLOAD PUSH3 0x461BCD PUSH1 0xE5 SHL DUP2 MSTORE PUSH1 0x20 PUSH1 0x4 DUP3 ADD MSTORE PUSH1 0x13 PUSH1 0x24 DUP3 ADD MSTORE PUSH32 0x496E646578206F7574206F6620626F756E647300000000000000000000000000 PUSH1 0x44 DUP3 ADD MSTORE PUSH1 0x64 ADD PUSH3 0xAF JUMP JUMPDEST SWAP2 SWAP1 POP JUMP JUMPDEST DUP1 MLOAD PUSH1 0x1 PUSH1 0x1 PUSH1 0xA0 SHL SUB DUP2 AND DUP2 EQ PUSH3 0x8BB JUMPI PUSH0 DUP1 REVERT JUMPDEST PUSH0 DUP1 PUSH0 DUP1 PUSH0 PUSH1 0xA0 DUP7 DUP9 SUB SLT ISZERO PUSH3 0x8EC JUMPI PUSH0 DUP1 REVERT JUMPDEST PUSH3 0x8F7 DUP7 PUSH3 0x8C0 JUMP JUMPDEST SWAP5 POP PUSH1 0x20 DUP7 ADD MLOAD SWAP4 POP PUSH1 0x40 DUP7 ADD MLOAD PUSH4 0xFFFFFFFF DUP2 AND DUP2 EQ PUSH3 0x917 JUMPI PUSH0 DUP1 REVERT JUMPDEST SWAP3 POP PUSH3 0x927 PUSH1 0x60 DUP8 ADD PUSH3 0x8C0 JUMP JUMPDEST SWAP2 POP PUSH3 0x937 PUSH1 0x80 DUP8 ADD PUSH3 0x8C0 JUMP JUMPDEST SWAP1 POP SWAP3 SWAP6 POP SWAP3 SWAP6 SWAP1 SWAP4 POP JUMP JUMPDEST PUSH1 0x80 MLOAD PUSH1 0xA0 MLOAD PUSH1 0xC0 MLOAD PUSH1 0xE0 MLOAD PUSH2 0x26F8 PUSH3 0x9EE PUSH0 CODECOPY PUSH0 DUP2 DUP2 PUSH2 0x524 ADD MSTORE DUP2 DUP2 PUSH2 0x89E ADD MSTORE DUP2 DUP2 PUSH2 0x97E ADD MSTORE DUP2 DUP2 PUSH2 0xA6A ADD MSTORE DUP2 DUP2 PUSH2 0xE26 ADD MSTORE DUP2 DUP2 PUSH2 0x107A ADD MSTORE DUP2 DUP2 PUSH2 0x18C2 ADD MSTORE PUSH2 0x1A00 ADD MSTORE PUSH0 DUP2 DUP2 PUSH2 0x4A7 ADD MSTORE DUP2 DUP2 PUSH2 0x93F ADD MSTORE DUP2 DUP2 PUSH2 0x9A8 ADD MSTORE DUP2 DUP2 PUSH2 0xDF5 ADD MSTORE DUP2 DUP2 PUSH2 0x1041 ADD MSTORE DUP2 DUP2 PUSH2 0x1883 ADD MSTORE DUP2 DUP2 PUSH2 0x18EC ADD MSTORE PUSH2 0x19C7 ADD MSTORE PUSH0 DUP2 DUP2 PUSH2 0x27B ADD MSTORE PUSH2 0xD27 ADD MSTORE PUSH0 DUP2 DUP2 PUSH2 0x3EB ADD MSTORE DUP2 DUP2 PUSH2 0x1BB8 ADD MSTORE PUSH2 0x1EEB ADD MSTORE PUSH2 0x26F8 PUSH0 RETURN INVALID PUSH1 0x80 PUSH1 0x40 MSTORE PUSH1 0x4 CALLDATASIZE LT PUSH2 0x1D0 JUMPI PUSH0 CALLDATALOAD PUSH1 0xE0 SHR DUP1 PUSH4 0x9D7D010F GT PUSH2 0xFD JUMPI DUP1 PUSH4 0xCD87A3B4 GT PUSH2 0x92 JUMPI DUP1 PUSH4 0xEA65BA49 GT PUSH2 0x62 JUMPI DUP1 PUSH4 0xEA65BA49 EQ PUSH2 0x5BC JUMPI DUP1 PUSH4 0xF178E47C EQ PUSH2 0x5E8 JUMPI DUP1 PUSH4 0xF8AF86E7 EQ PUSH2 0x613 JUMPI DUP1 PUSH4 0xFC7E9C6F EQ PUSH2 0x632 JUMPI PUSH0 DUP1 REVERT JUMPDEST DUP1 PUSH4 0xCD87A3B4 EQ PUSH2 0x546 JUMPI DUP1 PUSH4 0xD21E82AB EQ PUSH2 0x55A JUMPI DUP1 PUSH4 0xDB394BB9 EQ PUSH2 0x588 JUMPI DUP1 PUSH4 0xE8295588 EQ PUSH2 0x59D JUMPI PUSH0 DUP1 REVERT JUMPDEST DUP1 PUSH4 0xC0E70BBD GT PUSH2 0xCD JUMPI DUP1 PUSH4 0xC0E70BBD EQ PUSH2 0x496 JUMPI DUP1 PUSH4 0xC2B40AE4 EQ PUSH2 0x4C9 JUMPI DUP1 PUSH4 0xC9CA7A61 EQ PUSH2 0x4F4 JUMPI DUP1 PUSH4 0xCC48B735 EQ PUSH2 0x513 JUMPI PUSH0 DUP1 REVERT JUMPDEST DUP1 PUSH4 0x9D7D010F EQ PUSH2 0x429 JUMPI DUP1 PUSH4 0xB6B55F25 EQ PUSH2 0x43C JUMPI DUP1 PUSH4 0xB89D302D EQ PUSH2 0x44F JUMPI DUP1 PUSH4 0xBA70F757 EQ PUSH2 0x46E JUMPI PUSH0 DUP1 REVERT JUMPDEST DUP1 PUSH4 0x49CE8997 GT PUSH2 0x173 JUMPI DUP1 PUSH4 0x5BB93995 GT PUSH2 0x143 JUMPI DUP1 PUSH4 0x5BB93995 EQ PUSH2 0x3A8 JUMPI DUP1 PUSH4 0x7BDE37DB EQ PUSH2 0x3C7 JUMPI DUP1 PUSH4 0x8BCA6D16 EQ PUSH2 0x3DA JUMPI DUP1 PUSH4 0x90EEB02B EQ PUSH2 0x40D JUMPI PUSH0 DUP1 REVERT JUMPDEST DUP1 PUSH4 0x49CE8997 EQ PUSH2 0x2FD JUMPI DUP1 PUSH4 0x4ECF518B EQ PUSH2 0x32B JUMPI DUP1 PUSH4 0x5032D4F1 EQ PUSH2 0x35B JUMPI DUP1 PUSH4 0x5A129EFE EQ PUSH2 0x37A JUMPI PUSH0 DUP1 REVERT JUMPDEST DUP1 PUSH4 0x2B7AC3F3 GT PUSH2 0x1AE JUMPI DUP1 PUSH4 0x2B7AC3F3 EQ PUSH2 0x26A JUMPI DUP1 PUSH4 0x2E585FD8 EQ PUSH2 0x2B5 JUMPI DUP1 PUSH4 0x397A14B4 EQ PUSH2 0x2D6 JUMPI DUP1 PUSH4 0x39DA4B55 EQ PUSH2 0x2F5 JUMPI PUSH0 DUP1 REVERT JUMPDEST DUP1 PUSH4 0x102B72E7 EQ PUSH2 0x1D4 JUMPI DUP1 PUSH4 0x1B5844FF EQ PUSH2 0x209 JUMPI DUP1 PUSH4 0x28482F89 EQ PUSH2 0x22C JUMPI JUMPDEST PUSH0 DUP1 REVERT JUMPDEST CALLVALUE DUP1 ISZERO PUSH2 0x1DF JUMPI PUSH0 DUP1 REVERT JUMPDEST POP PUSH2 0x1F3 PUSH2 0x1EE CALLDATASIZE PUSH1 0x4 PUSH2 0x200D JUMP JUMPDEST PUSH2 0x656 JUMP JUMPDEST PUSH1 0x40 MLOAD PUSH2 0x200 SWAP2 SWAP1 PUSH2 0x2084 JUMP JUMPDEST PUSH1 0x40 MLOAD DUP1 SWAP2 SUB SWAP1 RETURN JUMPDEST CALLVALUE DUP1 ISZERO PUSH2 0x214 JUMPI PUSH0 DUP1 REVERT JUMPDEST POP PUSH2 0x21E PUSH1 0xA SLOAD DUP2 JUMP JUMPDEST PUSH1 0x40 MLOAD SWAP1 DUP2 MSTORE PUSH1 0x20 ADD PUSH2 0x200 JUMP JUMPDEST CALLVALUE DUP1 ISZERO PUSH2 0x237 JUMPI PUSH0 DUP1 REVERT JUMPDEST POP PUSH2 0x25A PUSH2 0x246 CALLDATASIZE PUSH1 0x4 PUSH2 0x2096 JUMP JUMPDEST PUSH1 0x7 PUSH1 0x20 MSTORE PUSH0 SWAP1 DUP2 MSTORE PUSH1 0x40 SWAP1 KECCAK256 SLOAD PUSH1 0xFF AND DUP2 JUMP JUMPDEST PUSH1 0x40 MLOAD SWAP1 ISZERO ISZERO DUP2 MSTORE PUSH1 0x20 ADD PUSH2 0x200 JUMP JUMPDEST CALLVALUE DUP1 ISZERO PUSH2 0x275 JUMPI PUSH0 DUP1 REVERT JUMPDEST POP PUSH2 0x29D PUSH32 0x0 DUP2 JUMP JUMPDEST PUSH1 0x40 MLOAD PUSH1 0x1 PUSH1 0x1 PUSH1 0xA0 SHL SUB SWAP1 SWAP2 AND DUP2 MSTORE PUSH1 0x20 ADD PUSH2 0x200 JUMP JUMPDEST CALLVALUE DUP1 ISZERO PUSH2 0x2C0 JUMPI PUSH0 DUP1 REVERT JUMPDEST POP PUSH2 0x2D4 PUSH2 0x2CF CALLDATASIZE PUSH1 0x4 PUSH2 0x2096 JUMP JUMPDEST PUSH2 0x73E JUMP JUMPDEST STOP JUMPDEST CALLVALUE DUP1 ISZERO PUSH2 0x2E1 JUMPI PUSH0 DUP1 REVERT JUMPDEST POP PUSH2 0x25A PUSH2 0x2F0 CALLDATASIZE PUSH1 0x4 PUSH2 0x2096 JUMP JUMPDEST PUSH2 0x889 JUMP JUMPDEST PUSH2 0x2D4 PUSH2 0x934 JUMP JUMPDEST CALLVALUE DUP1 ISZERO PUSH2 0x308 JUMPI PUSH0 DUP1 REVERT JUMPDEST POP PUSH2 0x25A PUSH2 0x317 CALLDATASIZE PUSH1 0x4 PUSH2 0x2096 JUMP JUMPDEST PUSH1 0x6 PUSH1 0x20 MSTORE PUSH0 SWAP1 DUP2 MSTORE PUSH1 0x40 SWAP1 KECCAK256 SLOAD PUSH1 0xFF AND DUP2 JUMP JUMPDEST CALLVALUE DUP1 ISZERO PUSH2 0x336 JUMPI PUSH0 DUP1 REVERT JUMPDEST POP PUSH0 SLOAD PUSH2 0x346 SWAP1 PUSH4 0xFFFFFFFF AND DUP2 JUMP JUMPDEST PUSH1 0x40 MLOAD PUSH4 0xFFFFFFFF SWAP1 SWAP2 AND DUP2 MSTORE PUSH1 0x20 ADD PUSH2 0x200 JUMP JUMPDEST CALLVALUE DUP1 ISZERO PUSH2 0x366 JUMPI PUSH0 DUP1 REVERT JUMPDEST POP PUSH2 0x21E PUSH2 0x375 CALLDATASIZE PUSH1 0x4 PUSH2 0x2096 JUMP JUMPDEST PUSH2 0xA64 JUMP JUMPDEST CALLVALUE DUP1 ISZERO PUSH2 0x385 JUMPI PUSH0 DUP1 REVERT JUMPDEST POP PUSH2 0x25A PUSH2 0x394 CALLDATASIZE PUSH1 0x4 PUSH2 0x2096 JUMP JUMPDEST PUSH0 SWAP1 DUP2 MSTORE PUSH1 0x5 PUSH1 0x20 MSTORE PUSH1 0x40 SWAP1 KECCAK256 SLOAD PUSH1 0xFF AND SWAP1 JUMP JUMPDEST CALLVALUE DUP1 ISZERO PUSH2 0x3B3 JUMPI PUSH0 DUP1 REVERT JUMPDEST POP PUSH2 0x21E PUSH2 0x3C2 CALLDATASIZE PUSH1 0x4 PUSH2 0x20AD JUMP JUMPDEST PUSH2 0xAD6 JUMP JUMPDEST PUSH2 0x2D4 PUSH2 0x3D5 CALLDATASIZE PUSH1 0x4 PUSH2 0x20CD JUMP JUMPDEST PUSH2 0xB65 JUMP JUMPDEST CALLVALUE DUP1 ISZERO PUSH2 0x3E5 JUMPI PUSH0 DUP1 REVERT JUMPDEST POP PUSH2 0x21E PUSH32 0x0 DUP2 JUMP JUMPDEST CALLVALUE DUP1 ISZERO PUSH2 0x418 JUMPI PUSH0 DUP1 REVERT JUMPDEST POP PUSH1 0x3 SLOAD PUSH2 0x346 SWAP1 PUSH4 0xFFFFFFFF AND DUP2 JUMP JUMPDEST PUSH2 0x2D4 PUSH2 0x437 CALLDATASIZE PUSH1 0x4 PUSH2 0x2177 JUMP JUMPDEST PUSH2 0xDF3 JUMP JUMPDEST PUSH2 0x2D4 PUSH2 0x44A CALLDATASIZE PUSH1 0x4 PUSH2 0x2096 JUMP JUMPDEST PUSH2 0xEF6 JUMP JUMPDEST CALLVALUE DUP1 ISZERO PUSH2 0x45A JUMPI PUSH0 DUP1 REVERT JUMPDEST POP PUSH2 0x25A PUSH2 0x469 CALLDATASIZE PUSH1 0x4 PUSH2 0x2096 JUMP JUMPDEST PUSH2 0xFE8 JUMP JUMPDEST CALLVALUE DUP1 ISZERO PUSH2 0x479 JUMPI PUSH0 DUP1 REVERT JUMPDEST POP PUSH1 0x3 SLOAD PUSH4 0xFFFFFFFF AND PUSH0 SWAP1 DUP2 MSTORE PUSH1 0x2 PUSH1 0x20 MSTORE PUSH1 0x40 SWAP1 KECCAK256 SLOAD PUSH2 0x21E JUMP JUMPDEST CALLVALUE DUP1 ISZERO PUSH2 0x4A1 JUMPI PUSH0 DUP1 REVERT JUMPDEST POP PUSH2 0x29D PUSH32 0x0 DUP2 JUMP JUMPDEST CALLVALUE DUP1 ISZERO PUSH2 0x4D4 JUMPI PUSH0 DUP1 REVERT JUMPDEST POP PUSH2 0x21E PUSH2 0x4E3 CALLDATASIZE PUSH1 0x4 PUSH2 0x2096 JUMP JUMPDEST PUSH1 0x2 PUSH1 0x20 MSTORE PUSH0 SWAP1 DUP2 MSTORE PUSH1 0x40 SWAP1 KECCAK256 SLOAD DUP2 JUMP JUMPDEST CALLVALUE DUP1 ISZERO PUSH2 0x4FF JUMPI PUSH0 DUP1 REVERT JUMPDEST POP PUSH2 0x2D4 PUSH2 0x50E CALLDATASIZE PUSH1 0x4 PUSH2 0x2096 JUMP JUMPDEST PUSH2 0xFF2 JUMP JUMPDEST CALLVALUE DUP1 ISZERO PUSH2 0x51E JUMPI PUSH0 DUP1 REVERT JUMPDEST POP PUSH2 0x29D PUSH32 0x0 DUP2 JUMP JUMPDEST CALLVALUE DUP1 ISZERO PUSH2 0x551 JUMPI PUSH0 DUP1 REVERT JUMPDEST POP PUSH2 0x346 PUSH1 0x1E DUP2 JUMP JUMPDEST CALLVALUE DUP1 ISZERO PUSH2 0x565 JUMPI PUSH0 DUP1 REVERT JUMPDEST POP PUSH2 0x25A PUSH2 0x574 CALLDATASIZE PUSH1 0x4 PUSH2 0x2096 JUMP JUMPDEST PUSH1 0x5 PUSH1 0x20 MSTORE PUSH0 SWAP1 DUP2 MSTORE PUSH1 0x40 SWAP1 KECCAK256 SLOAD PUSH1 0xFF AND DUP2 JUMP JUMPDEST CALLVALUE DUP1 ISZERO PUSH2 0x593 JUMPI PUSH0 DUP1 REVERT JUMPDEST POP PUSH2 0x21E PUSH1 0x9 SLOAD DUP2 JUMP JUMPDEST CALLVALUE DUP1 ISZERO PUSH2 0x5A8 JUMPI PUSH0 DUP1 REVERT JUMPDEST POP PUSH2 0x21E PUSH2 0x5B7 CALLDATASIZE PUSH1 0x4 PUSH2 0x2096 JUMP JUMPDEST PUSH2 0x10E0 JUMP JUMPDEST CALLVALUE DUP1 ISZERO PUSH2 0x5C7 JUMPI PUSH0 DUP1 REVERT JUMPDEST POP PUSH2 0x5DB PUSH2 0x5D6 CALLDATASIZE PUSH1 0x4 PUSH2 0x2192 JUMP JUMPDEST PUSH2 0x173C JUMP JUMPDEST PUSH1 0x40 MLOAD PUSH2 0x200 SWAP2 SWAP1 PUSH2 0x2201 JUMP JUMPDEST CALLVALUE DUP1 ISZERO PUSH2 0x5F3 JUMPI PUSH0 DUP1 REVERT JUMPDEST POP PUSH2 0x21E PUSH2 0x602 CALLDATASIZE PUSH1 0x4 PUSH2 0x2096 JUMP JUMPDEST PUSH1 0x1 PUSH1 0x20 MSTORE PUSH0 SWAP1 DUP2 MSTORE PUSH1 0x40 SWAP1 KECCAK256 SLOAD DUP2 JUMP JUMPDEST CALLVALUE DUP1 ISZERO PUSH2 0x61E JUMPI PUSH0 DUP1 REVERT JUMPDEST POP PUSH2 0x2D4 PUSH2 0x62D CALLDATASIZE PUSH1 0x4 PUSH2 0x20AD JUMP JUMPDEST PUSH2 0x17F6 JUMP JUMPDEST CALLVALUE DUP1 ISZERO PUSH2 0x63D JUMPI PUSH0 DUP1 REVERT JUMPDEST POP PUSH1 0x3 SLOAD PUSH2 0x346 SWAP1 PUSH5 0x100000000 SWAP1 DIV PUSH4 0xFFFFFFFF AND DUP2 JUMP JUMPDEST PUSH1 0x40 MLOAD PUSH1 0x60 DUP4 DUP2 SHL PUSH12 0xFFFFFFFFFFFFFFFFFFFFFFFF NOT AND PUSH1 0x20 DUP4 ADD MSTORE PUSH1 0x34 DUP3 ADD DUP4 SWAP1 MSTORE SWAP1 PUSH0 SWAP1 PUSH1 0x54 ADD PUSH1 0x40 MLOAD PUSH1 0x20 DUP2 DUP4 SUB SUB DUP2 MSTORE SWAP1 PUSH1 0x40 MSTORE SWAP1 POP PUSH0 PUSH1 0x60 PUSH2 0x101 PUSH1 0x1 PUSH1 0x1 PUSH1 0xA0 SHL SUB AND DUP4 PUSH1 0x40 MLOAD PUSH2 0x6AD SWAP2 SWAP1 PUSH2 0x2246 JUMP JUMPDEST PUSH0 PUSH1 0x40 MLOAD DUP1 DUP4 SUB DUP2 DUP6 GAS STATICCALL SWAP2 POP POP RETURNDATASIZE DUP1 PUSH0 DUP2 EQ PUSH2 0x6E5 JUMPI PUSH1 0x40 MLOAD SWAP2 POP PUSH1 0x1F NOT PUSH1 0x3F RETURNDATASIZE ADD AND DUP3 ADD PUSH1 0x40 MSTORE RETURNDATASIZE DUP3 MSTORE RETURNDATASIZE PUSH0 PUSH1 0x20 DUP5 ADD RETURNDATACOPY PUSH2 0x6EA JUMP JUMPDEST PUSH1 0x60 SWAP2 POP JUMPDEST POP SWAP1 SWAP3 POP SWAP1 POP DUP2 PUSH2 0x733 JUMPI PUSH1 0x40 MLOAD PUSH3 0x461BCD PUSH1 0xE5 SHL DUP2 MSTORE PUSH1 0x20 PUSH1 0x4 DUP3 ADD MSTORE PUSH1 0xE PUSH1 0x24 DUP3 ADD MSTORE PUSH14 0x130C54D313D0510819985A5B1959 PUSH1 0x92 SHL PUSH1 0x44 DUP3 ADD MSTORE PUSH1 0x64 ADD JUMPDEST PUSH1 0x40 MLOAD DUP1 SWAP2 SUB SWAP1 REVERT JUMPDEST SWAP3 POP POP POP JUMPDEST SWAP3 SWAP2 POP POP JUMP JUMPDEST PUSH0 DUP2 DUP2 MSTORE PUSH1 0x8 PUSH1 0x20 SWAP1 DUP2 MSTORE PUSH1 0x40 SWAP2 DUP3 SWAP1 KECCAK256 DUP3 MLOAD PUSH1 0x60 DUP2 ADD DUP5 MSTORE DUP2 SLOAD PUSH1 0x1 PUSH1 0x1 PUSH1 0xA0 SHL SUB AND DUP2 MSTORE PUSH1 0x1 DUP1 DUP4 ADD SLOAD SWAP4 DUP3 ADD SWAP4 SWAP1 SWAP4 MSTORE PUSH1 0x2 SWAP1 SWAP2 ADD SLOAD PUSH1 0xFF AND ISZERO ISZERO SWAP3 DUP2 ADD DUP4 SWAP1 MSTORE SWAP2 EQ PUSH2 0x7D0 JUMPI PUSH1 0x40 MLOAD PUSH3 0x461BCD PUSH1 0xE5 SHL DUP2 MSTORE PUSH1 0x20 PUSH1 0x4 DUP3 ADD DUP2 SWAP1 MSTORE PUSH1 0x24 DUP3 ADD MSTORE PUSH32 0x5468697320776974686472617720697320616C726561647920636C61696D6564 PUSH1 0x44 DUP3 ADD MSTORE PUSH1 0x64 ADD PUSH2 0x72A JUMP JUMPDEST PUSH0 DUP3 DUP2 MSTORE PUSH1 0x8 PUSH1 0x20 SWAP1 DUP2 MSTORE PUSH1 0x40 DUP3 KECCAK256 PUSH1 0x2 ADD DUP1 SLOAD PUSH1 0xFF NOT AND SWAP1 SSTORE DUP3 ADD MLOAD PUSH1 0xA DUP1 SLOAD SWAP2 SWAP3 SWAP1 SWAP2 PUSH2 0x800 SWAP1 DUP5 SWAP1 PUSH2 0x2275 JUMP JUMPDEST SWAP1 SWAP2 SSTORE POP POP DUP1 MLOAD PUSH1 0x20 DUP3 ADD MLOAD PUSH1 0x40 MLOAD PUSH1 0x1 PUSH1 0x1 PUSH1 0xA0 SHL SUB SWAP1 SWAP3 AND SWAP2 DUP2 ISZERO PUSH2 0x8FC MUL SWAP2 SWAP1 PUSH0 DUP2 DUP2 DUP2 DUP6 DUP9 DUP9 CALL SWAP4 POP POP POP POP ISZERO DUP1 ISZERO PUSH2 0x83F JUMPI RETURNDATASIZE PUSH0 DUP1 RETURNDATACOPY RETURNDATASIZE PUSH0 REVERT JUMPDEST POP DUP1 MLOAD PUSH1 0x40 DUP1 MLOAD PUSH1 0x1 PUSH1 0x1 PUSH1 0xA0 SHL SUB SWAP1 SWAP3 AND DUP3 MSTORE PUSH1 0x20 DUP3 ADD DUP5 SWAP1 MSTORE PUSH32 0x7FCF532C15F0A6DB0BD6D0E038BEA71D30D808C7D98CB3BF7268A95BF5081B65 SWAP2 ADD PUSH1 0x40 MLOAD DUP1 SWAP2 SUB SWAP1 LOG1 POP POP JUMP JUMPDEST PUSH0 DUP2 PUSH0 SUB PUSH2 0x898 JUMPI POP PUSH0 SWAP2 SWAP1 POP JUMP JUMPDEST PUSH0 PUSH2 0x8C4 PUSH32 0x0 PUSH1 0x3 PUSH2 0x656 JUMP JUMPDEST DUP1 PUSH1 0x20 ADD SWAP1 MLOAD DUP2 ADD SWAP1 PUSH2 0x8D7 SWAP2 SWAP1 PUSH2 0x2288 JUMP JUMPDEST SWAP1 POP DUP1 JUMPDEST PUSH2 0x8EA DUP2 PUSH4 0xFFFFFFFF AND PUSH2 0xA64 JUMP JUMPDEST DUP5 SUB PUSH2 0x8FA JUMPI POP PUSH1 0x1 SWAP4 SWAP3 POP POP POP JUMP JUMPDEST DUP1 PUSH4 0xFFFFFFFF AND PUSH0 SUB PUSH2 0x90B JUMPI POP PUSH1 0x1E JUMPDEST DUP1 PUSH2 0x915 DUP2 PUSH2 0x22A3 JUMP JUMPDEST SWAP2 POP POP DUP2 PUSH4 0xFFFFFFFF AND DUP2 PUSH4 0xFFFFFFFF AND SUB PUSH2 0x8DB JUMPI POP PUSH0 SWAP4 SWAP3 POP POP POP JUMP JUMPDEST CALLER PUSH1 0x1 PUSH1 0x1 PUSH1 0xA0 SHL SUB PUSH32 0x0 AND EQ PUSH2 0x97C JUMPI PUSH1 0x40 MLOAD PUSH3 0x461BCD PUSH1 0xE5 SHL DUP2 MSTORE PUSH1 0x4 ADD PUSH2 0x72A SWAP1 PUSH2 0x22C1 JUMP JUMPDEST PUSH32 0x0 PUSH1 0x1 PUSH1 0x1 PUSH1 0xA0 SHL SUB AND PUSH32 0x0 PUSH1 0x1 PUSH1 0x1 PUSH1 0xA0 SHL SUB AND PUSH4 0x6E296E45 PUSH1 0x40 MLOAD DUP2 PUSH4 0xFFFFFFFF AND PUSH1 0xE0 SHL DUP2 MSTORE PUSH1 0x4 ADD PUSH1 0x20 PUSH1 0x40 MLOAD DUP1 DUP4 SUB DUP2 DUP7 GAS STATICCALL ISZERO DUP1 ISZERO PUSH2 0xA02 JUMPI RETURNDATASIZE PUSH0 DUP1 RETURNDATACOPY RETURNDATASIZE PUSH0 REVERT JUMPDEST POP POP POP POP PUSH1 0x40 MLOAD RETURNDATASIZE PUSH1 0x1F NOT PUSH1 0x1F DUP3 ADD AND DUP3 ADD DUP1 PUSH1 0x40 MSTORE POP DUP2 ADD SWAP1 PUSH2 0xA26 SWAP2 SWAP1 PUSH2 0x2309 JUMP JUMPDEST PUSH1 0x1 PUSH1 0x1 PUSH1 0xA0 SHL SUB AND EQ PUSH2 0xA4C JUMPI PUSH1 0x40 MLOAD PUSH3 0x461BCD PUSH1 0xE5 SHL DUP2 MSTORE PUSH1 0x4 ADD PUSH2 0x72A SWAP1 PUSH2 0x2324 JUMP JUMPDEST CALLVALUE PUSH1 0xA PUSH0 DUP3 DUP3 SLOAD PUSH2 0xA5D SWAP2 SWAP1 PUSH2 0x2381 JUMP JUMPDEST SWAP1 SWAP2 SSTORE POP POP JUMP JUMPDEST PUSH0 PUSH2 0xAC3 PUSH32 0x0 DUP4 PUSH1 0x3 PUSH1 0x40 MLOAD PUSH1 0x20 ADD PUSH2 0xAA6 SWAP3 SWAP2 SWAP1 SWAP2 DUP3 MSTORE PUSH1 0x20 DUP3 ADD MSTORE PUSH1 0x40 ADD SWAP1 JUMP JUMPDEST PUSH1 0x40 MLOAD PUSH1 0x20 DUP2 DUP4 SUB SUB DUP2 MSTORE SWAP1 PUSH1 0x40 MSTORE DUP1 MLOAD SWAP1 PUSH1 0x20 ADD KECCAK256 PUSH0 SHR PUSH2 0x656 JUMP JUMPDEST DUP1 PUSH1 0x20 ADD SWAP1 MLOAD DUP2 ADD SWAP1 PUSH2 0x738 SWAP2 SWAP1 PUSH2 0x2394 JUMP JUMPDEST PUSH1 0x40 DUP1 MLOAD DUP1 DUP3 ADD DUP3 MSTORE DUP4 DUP2 MSTORE PUSH1 0x20 DUP2 ADD DUP4 SWAP1 MSTORE SWAP1 MLOAD PUSH4 0x2B0AAC7F PUSH1 0xE1 SHL DUP2 MSTORE PUSH0 SWAP2 PUSH20 0x0 SWAP2 PUSH4 0x561558FE SWAP2 PUSH2 0xB1F SWAP2 PUSH1 0x4 ADD PUSH2 0x23AB JUMP JUMPDEST PUSH1 0x20 PUSH1 0x40 MLOAD DUP1 DUP4 SUB DUP2 DUP7 GAS DELEGATECALL ISZERO DUP1 ISZERO PUSH2 0xB3A JUMPI RETURNDATASIZE PUSH0 DUP1 RETURNDATACOPY RETURNDATASIZE PUSH0 REVERT JUMPDEST POP POP POP POP PUSH1 0x40 MLOAD RETURNDATASIZE PUSH1 0x1F NOT PUSH1 0x1F DUP3 ADD AND DUP3 ADD DUP1 PUSH1 0x40 MSTORE POP DUP2 ADD SWAP1 PUSH2 0xB5E SWAP2 SWAP1 PUSH2 0x2394 JUMP JUMPDEST SWAP4 SWAP3 POP POP POP JUMP JUMPDEST PUSH2 0xB6D PUSH2 0x1A5F JUMP JUMPDEST PUSH0 DUP5 DUP2 MSTORE PUSH1 0x5 PUSH1 0x20 MSTORE PUSH1 0x40 SWAP1 KECCAK256 SLOAD PUSH1 0xFF AND ISZERO PUSH2 0xBCB JUMPI PUSH1 0x40 MLOAD PUSH3 0x461BCD PUSH1 0xE5 SHL DUP2 MSTORE PUSH1 0x20 PUSH1 0x4 DUP3 ADD MSTORE PUSH1 0x1F PUSH1 0x24 DUP3 ADD MSTORE PUSH32 0x546865206E6F746520686173206265656E20616C7265616479207370656E7400 PUSH1 0x44 DUP3 ADD MSTORE PUSH1 0x64 ADD PUSH2 0x72A JUMP JUMPDEST PUSH2 0xBD4 DUP6 PUSH2 0xFE8 JUMP JUMPDEST PUSH2 0xC20 JUMPI PUSH1 0x40 MLOAD PUSH3 0x461BCD PUSH1 0xE5 SHL DUP2 MSTORE PUSH1 0x20 PUSH1 0x4 DUP3 ADD MSTORE PUSH1 0x1F PUSH1 0x24 DUP3 ADD MSTORE PUSH32 0x43616E6E6F742066696E6420796F7572206C32206D65726B6C6520726F6F7400 PUSH1 0x44 DUP3 ADD MSTORE PUSH1 0x64 ADD PUSH2 0x72A JUMP JUMPDEST PUSH2 0xC29 DUP7 PUSH2 0x889 JUMP JUMPDEST PUSH2 0xC75 JUMPI PUSH1 0x40 MLOAD PUSH3 0x461BCD PUSH1 0xE5 SHL DUP2 MSTORE PUSH1 0x20 PUSH1 0x4 DUP3 ADD MSTORE PUSH1 0x1F PUSH1 0x24 DUP3 ADD MSTORE PUSH32 0x43616E6E6F742066696E6420796F7572206C31206D65726B6C6520726F6F7400 PUSH1 0x44 DUP3 ADD MSTORE PUSH1 0x64 ADD PUSH2 0x72A JUMP JUMPDEST PUSH1 0x40 DUP1 MLOAD DUP1 DUP3 ADD DUP3 MSTORE DUP8 DUP2 MSTORE PUSH1 0x20 DUP2 ADD DUP8 SWAP1 MSTORE SWAP1 MLOAD PUSH4 0x2B0AAC7F PUSH1 0xE1 SHL DUP2 MSTORE PUSH0 SWAP2 PUSH20 0x0 SWAP2 PUSH4 0x561558FE SWAP2 PUSH2 0xCBE SWAP2 PUSH1 0x4 ADD PUSH2 0x23AB JUMP JUMPDEST PUSH1 0x20 PUSH1 0x40 MLOAD DUP1 DUP4 SUB DUP2 DUP7 GAS DELEGATECALL ISZERO DUP1 ISZERO PUSH2 0xCD9 JUMPI RETURNDATASIZE PUSH0 DUP1 RETURNDATACOPY RETURNDATASIZE PUSH0 REVERT JUMPDEST POP POP POP POP PUSH1 0x40 MLOAD RETURNDATASIZE PUSH1 0x1F NOT PUSH1 0x1F DUP3 ADD AND DUP3 ADD DUP1 PUSH1 0x40 MSTORE POP DUP2 ADD SWAP1 PUSH2 0xCFD SWAP2 SWAP1 PUSH2 0x2394 JUMP JUMPDEST SWAP1 POP CHAINID PUSH0 PUSH2 0xD0D DUP4 DUP9 DUP9 DUP6 PUSH2 0x1A89 JUMP JUMPDEST PUSH1 0x40 MLOAD PUSH4 0x3A943439 PUSH1 0xE2 SHL DUP2 MSTORE SWAP1 SWAP2 POP PUSH1 0x1 PUSH1 0x1 PUSH1 0xA0 SHL SUB PUSH32 0x0 AND SWAP1 PUSH4 0xEA50D0E4 SWAP1 PUSH2 0xD60 SWAP1 DUP9 SWAP1 DUP9 SWAP1 DUP7 SWAP1 PUSH1 0x4 ADD PUSH2 0x23DB JUMP JUMPDEST PUSH1 0x20 PUSH1 0x40 MLOAD DUP1 DUP4 SUB DUP2 DUP7 GAS STATICCALL ISZERO DUP1 ISZERO PUSH2 0xD7B JUMPI RETURNDATASIZE PUSH0 DUP1 RETURNDATACOPY RETURNDATASIZE PUSH0 REVERT JUMPDEST POP POP POP POP PUSH1 0x40 MLOAD RETURNDATASIZE PUSH1 0x1F NOT PUSH1 0x1F DUP3 ADD AND DUP3 ADD DUP1 PUSH1 0x40 MSTORE POP DUP2 ADD SWAP1 PUSH2 0xD9F SWAP2 SWAP1 PUSH2 0x2453 JUMP JUMPDEST PUSH2 0xDBC JUMPI PUSH1 0x40 MLOAD PUSH4 0x439CC0CD PUSH1 0xE0 SHL DUP2 MSTORE PUSH1 0x4 ADD PUSH1 0x40 MLOAD DUP1 SWAP2 SUB SWAP1 REVERT JUMPDEST PUSH0 DUP8 DUP2 MSTORE PUSH1 0x5 PUSH1 0x20 MSTORE PUSH1 0x40 SWAP1 KECCAK256 DUP1 SLOAD PUSH1 0xFF NOT AND PUSH1 0x1 OR SWAP1 SSTORE PUSH2 0xDDE DUP7 DUP9 PUSH2 0x1B47 JUMP JUMPDEST POP POP POP PUSH2 0xDEB PUSH1 0x1 PUSH1 0x4 SSTORE JUMP JUMPDEST POP POP POP POP POP POP JUMP JUMPDEST PUSH32 0x0 PUSH1 0x1 PUSH1 0x1 PUSH1 0xA0 SHL SUB DUP2 AND PUSH4 0x5F7B1577 CALLVALUE PUSH32 0x0 PUSH0 PUSH2 0xE63 PUSH1 0x3 SLOAD PUSH4 0xFFFFFFFF AND PUSH0 SWAP1 DUP2 MSTORE PUSH1 0x2 PUSH1 0x20 MSTORE PUSH1 0x40 SWAP1 KECCAK256 SLOAD SWAP1 JUMP JUMPDEST PUSH1 0x40 MLOAD PUSH1 0x24 ADD PUSH2 0xE75 SWAP2 DUP2 MSTORE PUSH1 0x20 ADD SWAP1 JUMP JUMPDEST PUSH1 0x40 DUP1 MLOAD PUSH1 0x1F NOT DUP2 DUP5 SUB ADD DUP2 MSTORE SWAP2 DUP2 MSTORE PUSH1 0x20 DUP3 ADD DUP1 MLOAD PUSH1 0x1 PUSH1 0x1 PUSH1 0xE0 SHL SUB AND PUSH4 0x6B91E4D5 PUSH1 0xE0 SHL OR SWAP1 MSTORE MLOAD PUSH1 0xE0 DUP7 SWAP1 SHL PUSH1 0x1 PUSH1 0x1 PUSH1 0xE0 SHL SUB NOT AND DUP2 MSTORE PUSH2 0xEC4 SWAP4 SWAP3 SWAP2 SWAP1 DUP10 SWAP1 CALLER SWAP1 PUSH1 0x4 ADD PUSH2 0x2472 JUMP JUMPDEST PUSH0 PUSH1 0x40 MLOAD DUP1 DUP4 SUB DUP2 DUP6 DUP9 DUP1 EXTCODESIZE ISZERO DUP1 ISZERO PUSH2 0xEDB JUMPI PUSH0 DUP1 REVERT JUMPDEST POP GAS CALL ISZERO DUP1 ISZERO PUSH2 0xEED JUMPI RETURNDATASIZE PUSH0 DUP1 RETURNDATACOPY RETURNDATASIZE PUSH0 REVERT JUMPDEST POP POP POP POP POP POP POP JUMP JUMPDEST PUSH2 0xEFE PUSH2 0x1A5F JUMP JUMPDEST PUSH0 DUP2 DUP2 MSTORE PUSH1 0x6 PUSH1 0x20 MSTORE PUSH1 0x40 SWAP1 KECCAK256 SLOAD PUSH1 0xFF AND ISZERO PUSH2 0xF6E JUMPI PUSH1 0x40 MLOAD PUSH3 0x461BCD PUSH1 0xE5 SHL DUP2 MSTORE PUSH1 0x20 PUSH1 0x4 DUP3 ADD MSTORE PUSH1 0x29 PUSH1 0x24 DUP3 ADD MSTORE PUSH32 0x54686520636F6D6D69746D656E742068617320616C7265616479206265656E20 PUSH1 0x44 DUP3 ADD MSTORE PUSH9 0x1CDD589B5A5D1D1959 PUSH1 0xBA SHL PUSH1 0x64 DUP3 ADD MSTORE PUSH1 0x84 ADD PUSH2 0x72A JUMP JUMPDEST PUSH0 PUSH2 0xF78 DUP3 PUSH2 0x1D29 JUMP JUMPDEST PUSH0 DUP4 DUP2 MSTORE PUSH1 0x6 PUSH1 0x20 MSTORE PUSH1 0x40 SWAP1 KECCAK256 DUP1 SLOAD PUSH1 0xFF NOT AND PUSH1 0x1 OR SWAP1 SSTORE SWAP1 POP PUSH2 0xF9A PUSH2 0x1EE9 JUMP JUMPDEST PUSH1 0x40 DUP1 MLOAD PUSH4 0xFFFFFFFF DUP4 AND DUP2 MSTORE TIMESTAMP PUSH1 0x20 DUP3 ADD MSTORE DUP4 SWAP2 PUSH32 0x2813CA2762C14AD53880EF467C7448A9015904C20E064E6216FFB3F63390EC5D SWAP2 ADD PUSH1 0x40 MLOAD DUP1 SWAP2 SUB SWAP1 LOG2 POP PUSH2 0xFE5 PUSH1 0x1 PUSH1 0x4 SSTORE JUMP JUMPDEST POP JUMP JUMPDEST PUSH0 PUSH2 0x738 DUP3 PUSH2 0x1F80 JUMP JUMPDEST PUSH1 0x9 SLOAD PUSH1 0x40 DUP1 MLOAD PUSH1 0x24 DUP2 ADD DUP4 SWAP1 MSTORE PUSH1 0x44 DUP1 DUP3 ADD DUP6 SWAP1 MSTORE DUP3 MLOAD DUP1 DUP4 SUB SWAP1 SWAP2 ADD DUP2 MSTORE PUSH1 0x64 SWAP1 SWAP2 ADD DUP3 MSTORE PUSH1 0x20 DUP2 ADD DUP1 MLOAD PUSH1 0x1 PUSH1 0x1 PUSH1 0xE0 SHL SUB AND PUSH4 0xF8AF86E7 PUSH1 0xE0 SHL OR SWAP1 MSTORE SWAP1 MLOAD PUSH4 0x5F7B1577 PUSH1 0xE0 SHL DUP2 MSTORE PUSH32 0x0 SWAP2 PUSH1 0x1 PUSH1 0x1 PUSH1 0xA0 SHL SUB DUP4 AND SWAP2 PUSH4 0x5F7B1577 SWAP2 PUSH0 SWAP2 PUSH2 0x10A9 SWAP2 PUSH32 0x0 SWAP2 DUP5 SWAP2 SWAP1 DUP11 SWAP1 CALLER SWAP1 PUSH1 0x4 ADD PUSH2 0x24B9 JUMP JUMPDEST PUSH0 PUSH1 0x40 MLOAD DUP1 DUP4 SUB DUP2 DUP6 DUP9 DUP1 EXTCODESIZE ISZERO DUP1 ISZERO PUSH2 0x10C0 JUMPI PUSH0 DUP1 REVERT JUMPDEST POP GAS CALL ISZERO DUP1 ISZERO PUSH2 0x10D2 JUMPI RETURNDATASIZE PUSH0 DUP1 RETURNDATACOPY RETURNDATASIZE PUSH0 REVERT JUMPDEST POP POP PUSH0 PUSH1 0x9 SSTORE POP POP POP POP POP POP JUMP JUMPDEST PUSH0 DUP2 PUSH0 SUB PUSH2 0x10EF JUMPI POP PUSH0 SWAP2 SWAP1 POP JUMP JUMPDEST DUP2 PUSH1 0x1 SUB PUSH2 0x111E JUMPI POP PUSH32 0x2098F5FB9E239EAB3CEAC3F27B81E481DC3124D55FFED523A839EE8446B64864 SWAP2 SWAP1 POP JUMP JUMPDEST DUP2 PUSH1 0x2 SUB PUSH2 0x114D JUMPI POP PUSH32 0x1069673DCDB12263DF301A6FF584A7EC261A44CB9DC68DF067A4774460B1F1E1 SWAP2 SWAP1 POP JUMP JUMPDEST DUP2 PUSH1 0x3 SUB PUSH2 0x117C JUMPI POP PUSH32 0x18F43331537EE2AF2E3D758D50F72106467C6EEA50371DD528D57EB2B856D238 SWAP2 SWAP1 POP JUMP JUMPDEST DUP2 PUSH1 0x4 SUB PUSH2 0x11AB JUMPI POP PUSH32 0x7F9D837CB17B0D36320FFE93BA52345F1B728571A568265CAAC97559DBC952A SWAP2 SWAP1 POP JUMP JUMPDEST DUP2 PUSH1 0x5 SUB PUSH2 0x11DA JUMPI POP PUSH32 0x2B94CF5E8746B3F5C9631F4C5DF32907A699C58C94B2AD4D7B5CEC1639183F55 SWAP2 SWAP1 POP JUMP JUMPDEST DUP2 PUSH1 0x6 SUB PUSH2 0x1209 JUMPI POP PUSH32 0x2DEE93C5A666459646EA7D22CCA9E1BCFED71E6951B953611D11DDA32EA09D78 SWAP2 SWAP1 POP JUMP JUMPDEST DUP2 PUSH1 0x7 SUB PUSH2 0x1238 JUMPI POP PUSH32 0x78295E5A22B84E982CF601EB639597B8B0515A88CB5AC7FA8A4AABE3C87349D SWAP2 SWAP1 POP JUMP JUMPDEST DUP2 PUSH1 0x8 SUB PUSH2 0x1267 JUMPI POP PUSH32 0x2FA5E5F18F6027A6501BEC864564472A616B2E274A41211A444CBE3A99F3CC61 SWAP2 SWAP1 POP JUMP JUMPDEST DUP2 PUSH1 0x9 SUB PUSH2 0x1296 JUMPI POP PUSH32 0xE884376D0D8FD21ECB780389E941F66E45E7ACCE3E228AB3E2156A614FCD747 SWAP2 SWAP1 POP JUMP JUMPDEST DUP2 PUSH1 0xA SUB PUSH2 0x12C5 JUMPI POP PUSH32 0x1B7201DA72494F1E28717AD1A52EB469F95892F957713533DE6175E5DA190AF2 SWAP2 SWAP1 POP JUMP JUMPDEST DUP2 PUSH1 0xB SUB PUSH2 0x12F4 JUMPI POP PUSH32 0x1F8D8822725E36385200C0B201249819A6E6E1E4650808B5BEBC6BFACE7D7636 SWAP2 SWAP1 POP JUMP JUMPDEST DUP2 PUSH1 0xC SUB PUSH2 0x1323 JUMPI POP PUSH32 0x2C5D82F66C914BAFB9701589BA8CFCFB6162B0A12ACF88A8D0879A0471B5F85A SWAP2 SWAP1 POP JUMP JUMPDEST DUP2 PUSH1 0xD SUB PUSH2 0x1352 JUMPI POP PUSH32 0x14C54148A0940BB820957F5ADF3FA1134EF5C4AAA113F4646458F270E0BFBFD0 SWAP2 SWAP1 POP JUMP JUMPDEST DUP2 PUSH1 0xE SUB PUSH2 0x1381 JUMPI POP PUSH32 0x190D33B12F986F961E10C0EE44D8B9AF11BE25588CAD89D416118E4BF4EBE80C SWAP2 SWAP1 POP JUMP JUMPDEST DUP2 PUSH1 0xF SUB PUSH2 0x13B0 JUMPI POP PUSH32 0x22F98AA9CE704152AC17354914AD73ED1167AE6596AF510AA5B3649325E06C92 SWAP2 SWAP1 POP JUMP JUMPDEST DUP2 PUSH1 0x10 SUB PUSH2 0x13DF JUMPI POP PUSH32 0x2A7C7C9B6CE5880B9F6F228D72BF6A575A526F29C66ECCEEF8B753D38BBA7323 SWAP2 SWAP1 POP JUMP JUMPDEST DUP2 PUSH1 0x11 SUB PUSH2 0x140E JUMPI POP PUSH32 0x2E8186E558698EC1C67AF9C14D463FFC470043C9C2988B954D75DD643F36B992 SWAP2 SWAP1 POP JUMP JUMPDEST DUP2 PUSH1 0x12 SUB PUSH2 0x143D JUMPI POP PUSH32 0xF57C5571E9A4EAB49E2C8CF050DAE948AEF6EAD647392273546249D1C1FF10F SWAP2 SWAP1 POP JUMP JUMPDEST DUP2 PUSH1 0x13 SUB PUSH2 0x146C JUMPI POP PUSH32 0x1830EE67B5FB554AD5F63D4388800E1CFE78E310697D46E43C9CE36134F72CCA SWAP2 SWAP1 POP JUMP JUMPDEST DUP2 PUSH1 0x14 SUB PUSH2 0x149B JUMPI POP PUSH32 0x2134E76AC5D21AAB186C2BE1DD8F84EE880A1E46EAF712F9D371B6DF22191F3E SWAP2 SWAP1 POP JUMP JUMPDEST DUP2 PUSH1 0x15 SUB PUSH2 0x14CA JUMPI POP PUSH32 0x19DF90EC844EBC4FFEEBD866F33859B0C051D8C958EE3AA88F8F8DF3DB91A5B1 SWAP2 SWAP1 POP JUMP JUMPDEST DUP2 PUSH1 0x16 SUB PUSH2 0x14F9 JUMPI POP PUSH32 0x18CCA2A66B5C0787981E69AEFD84852D74AF0E93EF4912B4648C05F722EFE52B SWAP2 SWAP1 POP JUMP JUMPDEST DUP2 PUSH1 0x17 SUB PUSH2 0x1528 JUMPI POP PUSH32 0x2388909415230D1B4D1304D2D54F473A628338F2EFAD83FADF05644549D2538D SWAP2 SWAP1 POP JUMP JUMPDEST DUP2 PUSH1 0x18 SUB PUSH2 0x1557 JUMPI POP PUSH32 0x27171FB4A97B6CC0E9E8F543B5294DE866A2AF2C9C8D0B1D96E673E4529ED540 SWAP2 SWAP1 POP JUMP JUMPDEST DUP2 PUSH1 0x19 SUB PUSH2 0x1586 JUMPI POP PUSH32 0x2FF6650540F629FD5711A0BC74FC0D28DCB230B9392583E5F8D59696DDE6AE21 SWAP2 SWAP1 POP JUMP JUMPDEST DUP2 PUSH1 0x1A SUB PUSH2 0x15B5 JUMPI POP PUSH32 0x120C58F143D491E95902F7F5277778A2E0AD5168F6ADD75669932630CE611518 SWAP2 SWAP1 POP JUMP JUMPDEST DUP2 PUSH1 0x1B SUB PUSH2 0x15E4 JUMPI POP PUSH32 0x1F21FEB70D3F21B07BF853D5E5DB03071EC495A0A565A21DA2D665D279483795 SWAP2 SWAP1 POP JUMP JUMPDEST DUP2 PUSH1 0x1C SUB PUSH2 0x1613 JUMPI POP PUSH32 0x24BE905FA71335E14C638CC0F66A8623A826E768068A9E968BB1A1DDE18A72D2 SWAP2 SWAP1 POP JUMP JUMPDEST DUP2 PUSH1 0x1D SUB PUSH2 0x1642 JUMPI POP PUSH32 0xF8666B62ED17491C50CEADEAD57D4CD597EF3821D65C328744C74E553DAC26D SWAP2 SWAP1 POP JUMP JUMPDEST DUP2 PUSH1 0x1E SUB PUSH2 0x1671 JUMPI POP PUSH32 0x918D46BF52D98B034413F4A1A1C41594E7A7A3F6AE08CB43D1A2A230E1959EF SWAP2 SWAP1 POP JUMP JUMPDEST DUP2 PUSH1 0x1F SUB PUSH2 0x16A0 JUMPI POP PUSH32 0x1BBEB01B4C479ECDE76917645E404DFA2E26F90D0AFC5A65128513AD375C5FF2 SWAP2 SWAP1 POP JUMP JUMPDEST DUP2 PUSH1 0x20 SUB PUSH2 0x16CF JUMPI POP PUSH32 0x2F68A1C58E257E42A17A6C61DFF5551ED560B9922AB119D5AC8E184C9734EAD9 SWAP2 SWAP1 POP JUMP JUMPDEST DUP2 PUSH1 0x21 SUB PUSH2 0x16FE JUMPI POP PUSH32 0x1102D2F8DB05E4AF4842E8AD3D85ED45EB28447EB7212235A2281D5AB5D81D11 SWAP2 SWAP1 POP JUMP JUMPDEST PUSH1 0x40 MLOAD PUSH3 0x461BCD PUSH1 0xE5 SHL DUP2 MSTORE PUSH1 0x20 PUSH1 0x4 DUP3 ADD MSTORE PUSH1 0x13 PUSH1 0x24 DUP3 ADD MSTORE PUSH19 0x496E646578206F7574206F6620626F756E6473 PUSH1 0x68 SHL PUSH1 0x44 DUP3 ADD MSTORE PUSH1 0x64 ADD PUSH2 0x72A JUMP JUMPDEST PUSH1 0x60 DUP2 PUSH8 0xFFFFFFFFFFFFFFFF DUP2 GT ISZERO PUSH2 0x1757 JUMPI PUSH2 0x1757 PUSH2 0x24FA JUMP JUMPDEST PUSH1 0x40 MLOAD SWAP1 DUP1 DUP3 MSTORE DUP1 PUSH1 0x20 MUL PUSH1 0x20 ADD DUP3 ADD PUSH1 0x40 MSTORE DUP1 ISZERO PUSH2 0x1780 JUMPI DUP2 PUSH1 0x20 ADD PUSH1 0x20 DUP3 MUL DUP1 CALLDATASIZE DUP4 CALLDATACOPY ADD SWAP1 POP JUMPDEST POP SWAP1 POP PUSH0 JUMPDEST DUP3 DUP2 LT ISZERO PUSH2 0x17EF JUMPI PUSH2 0x17BD DUP5 DUP5 DUP4 DUP2 DUP2 LT PUSH2 0x17A2 JUMPI PUSH2 0x17A2 PUSH2 0x250E JUMP JUMPDEST SWAP1 POP PUSH1 0x20 MUL ADD CALLDATALOAD PUSH0 SWAP1 DUP2 MSTORE PUSH1 0x5 PUSH1 0x20 MSTORE PUSH1 0x40 SWAP1 KECCAK256 SLOAD PUSH1 0xFF AND SWAP1 JUMP JUMPDEST ISZERO PUSH2 0x17E7 JUMPI PUSH1 0x1 DUP3 DUP3 DUP2 MLOAD DUP2 LT PUSH2 0x17D6 JUMPI PUSH2 0x17D6 PUSH2 0x250E JUMP JUMPDEST SWAP2 ISZERO ISZERO PUSH1 0x20 SWAP3 DUP4 MUL SWAP2 SWAP1 SWAP2 ADD SWAP1 SWAP2 ADD MSTORE JUMPDEST PUSH1 0x1 ADD PUSH2 0x1785 JUMP JUMPDEST POP SWAP3 SWAP2 POP POP JUMP JUMPDEST PUSH1 0xA SLOAD PUSH2 0x1803 SWAP1 SELFBALANCE PUSH2 0x2275 JUMP JUMPDEST DUP3 GT ISZERO PUSH2 0x1878 JUMPI PUSH1 0x40 MLOAD PUSH3 0x461BCD PUSH1 0xE5 SHL DUP2 MSTORE PUSH1 0x20 PUSH1 0x4 DUP3 ADD MSTORE PUSH1 0x3E PUSH1 0x24 DUP3 ADD MSTORE PUSH32 0x6E6F7420656E6F7567682065746820696E20636F6E74726163742028636F6E73 PUSH1 0x44 DUP3 ADD MSTORE PUSH32 0x69646572696E672065746850656E64696E675769746864726177616C73290000 PUSH1 0x64 DUP3 ADD MSTORE PUSH1 0x84 ADD PUSH2 0x72A JUMP JUMPDEST CALLER PUSH1 0x1 PUSH1 0x1 PUSH1 0xA0 SHL SUB PUSH32 0x0 AND EQ PUSH2 0x18C0 JUMPI PUSH1 0x40 MLOAD PUSH3 0x461BCD PUSH1 0xE5 SHL DUP2 MSTORE PUSH1 0x4 ADD PUSH2 0x72A SWAP1 PUSH2 0x22C1 JUMP JUMPDEST PUSH32 0x0 PUSH1 0x1 PUSH1 0x1 PUSH1 0xA0 SHL SUB AND PUSH32 0x0 PUSH1 0x1 PUSH1 0x1 PUSH1 0xA0 SHL SUB AND PUSH4 0x6E296E45 PUSH1 0x40 MLOAD DUP2 PUSH4 0xFFFFFFFF AND PUSH1 0xE0 SHL DUP2 MSTORE PUSH1 0x4 ADD PUSH1 0x20 PUSH1 0x40 MLOAD DUP1 DUP4 SUB DUP2 DUP7 GAS STATICCALL ISZERO DUP1 ISZERO PUSH2 0x1946 JUMPI RETURNDATASIZE PUSH0 DUP1 RETURNDATACOPY RETURNDATASIZE PUSH0 REVERT JUMPDEST POP POP POP POP PUSH1 0x40 MLOAD RETURNDATASIZE PUSH1 0x1F NOT PUSH1 0x1F DUP3 ADD AND DUP3 ADD DUP1 PUSH1 0x40 MSTORE POP DUP2 ADD SWAP1 PUSH2 0x196A SWAP2 SWAP1 PUSH2 0x2309 JUMP JUMPDEST PUSH1 0x1 PUSH1 0x1 PUSH1 0xA0 SHL SUB AND EQ PUSH2 0x1990 JUMPI PUSH1 0x40 MLOAD PUSH3 0x461BCD PUSH1 0xE5 SHL DUP2 MSTORE PUSH1 0x4 ADD PUSH2 0x72A SWAP1 PUSH2 0x2324 JUMP JUMPDEST PUSH1 0x40 DUP1 MLOAD PUSH1 0x4 DUP1 DUP3 MSTORE PUSH1 0x24 DUP3 ADD DUP4 MSTORE PUSH1 0x20 DUP3 ADD DUP1 MLOAD PUSH1 0x1 PUSH1 0x1 PUSH1 0xE0 SHL SUB AND PUSH4 0x39DA4B55 PUSH1 0xE0 SHL OR SWAP1 MSTORE SWAP2 MLOAD PUSH4 0x5F7B1577 PUSH1 0xE0 SHL DUP2 MSTORE PUSH32 0x0 SWAP3 PUSH1 0x1 PUSH1 0x1 PUSH1 0xA0 SHL SUB DUP5 AND SWAP3 PUSH4 0x5F7B1577 SWAP3 DUP8 SWAP3 PUSH2 0x1A2C SWAP3 PUSH32 0x0 SWAP3 DUP6 SWAP3 DUP11 SWAP2 CALLER SWAP2 ADD PUSH2 0x24B9 JUMP JUMPDEST PUSH0 PUSH1 0x40 MLOAD DUP1 DUP4 SUB DUP2 DUP6 DUP9 DUP1 EXTCODESIZE ISZERO DUP1 ISZERO PUSH2 0x1A43 JUMPI PUSH0 DUP1 REVERT JUMPDEST POP GAS CALL ISZERO DUP1 ISZERO PUSH2 0x1A55 JUMPI RETURNDATASIZE PUSH0 DUP1 RETURNDATACOPY RETURNDATASIZE PUSH0 REVERT JUMPDEST POP POP POP POP POP POP POP POP JUMP JUMPDEST PUSH1 0x2 PUSH1 0x4 SLOAD SUB PUSH2 0x1A82 JUMPI PUSH1 0x40 MLOAD PUSH4 0x3EE5AEB5 PUSH1 0xE0 SHL DUP2 MSTORE PUSH1 0x4 ADD PUSH1 0x40 MLOAD DUP1 SWAP2 SUB SWAP1 REVERT JUMPDEST PUSH1 0x2 PUSH1 0x4 SSTORE JUMP JUMPDEST PUSH1 0x40 DUP1 MLOAD PUSH1 0x4 DUP1 DUP3 MSTORE PUSH1 0xA0 DUP3 ADD SWAP1 SWAP3 MSTORE PUSH1 0x60 SWAP2 PUSH0 SWAP2 SWAP1 PUSH1 0x20 DUP3 ADD PUSH1 0x80 DUP1 CALLDATASIZE DUP4 CALLDATACOPY ADD SWAP1 POP POP SWAP1 POP DUP6 PUSH0 SHL DUP2 PUSH0 DUP2 MLOAD DUP2 LT PUSH2 0x1AC4 JUMPI PUSH2 0x1AC4 PUSH2 0x250E JUMP JUMPDEST PUSH1 0x20 MUL PUSH1 0x20 ADD ADD DUP2 DUP2 MSTORE POP POP DUP5 PUSH0 SHL DUP2 PUSH1 0x1 DUP2 MLOAD DUP2 LT PUSH2 0x1AE6 JUMPI PUSH2 0x1AE6 PUSH2 0x250E JUMP JUMPDEST PUSH1 0x20 SWAP1 DUP2 MUL SWAP2 SWAP1 SWAP2 ADD ADD MSTORE DUP1 MLOAD PUSH1 0x1 PUSH1 0x1 PUSH1 0xA0 SHL SUB DUP6 AND SWAP1 DUP3 SWAP1 PUSH1 0x2 SWAP1 DUP2 LT PUSH2 0x1B11 JUMPI PUSH2 0x1B11 PUSH2 0x250E JUMP JUMPDEST PUSH1 0x20 MUL PUSH1 0x20 ADD ADD DUP2 DUP2 MSTORE POP POP DUP3 PUSH0 SHL DUP2 PUSH1 0x3 DUP2 MLOAD DUP2 LT PUSH2 0x1B33 JUMPI PUSH2 0x1B33 PUSH2 0x250E JUMP JUMPDEST PUSH1 0x20 SWAP1 DUP2 MUL SWAP2 SWAP1 SWAP2 ADD ADD MSTORE SWAP6 SWAP5 POP POP POP POP POP JUMP JUMPDEST CALLVALUE ISZERO PUSH2 0x1BB3 JUMPI PUSH1 0x40 MLOAD PUSH3 0x461BCD PUSH1 0xE5 SHL DUP2 MSTORE PUSH1 0x20 PUSH1 0x4 DUP3 ADD MSTORE PUSH1 0x35 PUSH1 0x24 DUP3 ADD MSTORE PUSH32 0x4D6573736167652076616C756520697320737570706F73656420746F20626520 PUSH1 0x44 DUP3 ADD MSTORE PUSH21 0x7A65726F20666F722045544820696E7374616E6365 PUSH1 0x58 SHL PUSH1 0x64 DUP3 ADD MSTORE PUSH1 0x84 ADD PUSH2 0x72A JUMP JUMPDEST PUSH1 0xA SLOAD PUSH32 0x0 SWAP1 DUP2 SWAP1 PUSH2 0x1BE4 SWAP1 SELFBALANCE PUSH2 0x2275 JUMP JUMPDEST LT PUSH2 0x1C64 JUMPI PUSH1 0x40 DUP1 MLOAD PUSH1 0x1 PUSH1 0x1 PUSH1 0xA0 SHL SUB DUP6 AND DUP2 MSTORE PUSH1 0x20 DUP2 ADD DUP5 SWAP1 MSTORE PUSH32 0x7FCF532C15F0A6DB0BD6D0E038BEA71D30D808C7D98CB3BF7268A95BF5081B65 SWAP2 ADD PUSH1 0x40 MLOAD DUP1 SWAP2 SUB SWAP1 LOG1 PUSH1 0x40 MLOAD PUSH1 0x1 PUSH1 0x1 PUSH1 0xA0 SHL SUB DUP5 AND SWAP1 DUP3 ISZERO PUSH2 0x8FC MUL SWAP1 DUP4 SWAP1 PUSH0 DUP2 DUP2 DUP2 DUP6 DUP9 DUP9 CALL SWAP4 POP POP POP POP ISZERO DUP1 ISZERO PUSH2 0x1C5E JUMPI RETURNDATASIZE PUSH0 DUP1 RETURNDATACOPY RETURNDATASIZE PUSH0 REVERT JUMPDEST POP POP POP POP JUMP JUMPDEST PUSH1 0x40 DUP1 MLOAD PUSH1 0x1 PUSH1 0x1 PUSH1 0xA0 SHL SUB DUP6 AND DUP2 MSTORE PUSH1 0x20 DUP2 ADD DUP5 SWAP1 MSTORE PUSH32 0x39D9CF4FFB93650D8CE789639CB8CF3C8D7B039E1F9795C038AF55B4AE643FCA SWAP2 ADD PUSH1 0x40 MLOAD DUP1 SWAP2 SUB SWAP1 LOG1 PUSH1 0x40 DUP1 MLOAD PUSH1 0x60 DUP2 ADD DUP3 MSTORE PUSH1 0x1 PUSH1 0x1 PUSH1 0xA0 SHL SUB DUP6 DUP2 AND DUP3 MSTORE PUSH1 0x20 DUP1 DUP4 ADD DUP6 DUP2 MSTORE PUSH1 0x1 DUP5 DUP7 ADD DUP2 DUP2 MSTORE PUSH0 DUP10 DUP2 MSTORE PUSH1 0x8 SWAP1 SWAP5 MSTORE SWAP6 DUP4 KECCAK256 SWAP5 MLOAD DUP6 SLOAD PUSH1 0x1 PUSH1 0x1 PUSH1 0xA0 SHL SUB NOT AND SWAP5 AND SWAP4 SWAP1 SWAP4 OR DUP5 SSTORE MLOAD SWAP2 DUP4 ADD SWAP2 SWAP1 SWAP2 SSTORE SWAP2 MLOAD PUSH1 0x2 SWAP1 SWAP2 ADD DUP1 SLOAD PUSH1 0xFF NOT AND SWAP2 ISZERO ISZERO SWAP2 SWAP1 SWAP2 OR SWAP1 SSTORE PUSH1 0x9 DUP1 SLOAD DUP4 SWAP3 SWAP1 PUSH2 0x1D1F SWAP1 DUP5 SWAP1 PUSH2 0x2381 JUMP JUMPDEST SWAP1 SWAP2 SSTORE POP POP POP POP POP JUMP JUMPDEST PUSH1 0x3 SLOAD PUSH0 DUP1 SLOAD SWAP1 SWAP2 PUSH4 0xFFFFFFFF PUSH5 0x100000000 SWAP1 SWAP2 DIV DUP2 AND SWAP2 PUSH2 0x1D4E SWAP2 AND PUSH1 0x2 PUSH2 0x2631 JUMP JUMPDEST PUSH4 0xFFFFFFFF AND DUP2 PUSH4 0xFFFFFFFF AND SUB PUSH2 0x1DC1 JUMPI PUSH1 0x40 MLOAD PUSH3 0x461BCD PUSH1 0xE5 SHL DUP2 MSTORE PUSH1 0x20 PUSH1 0x4 DUP3 ADD MSTORE PUSH1 0x30 PUSH1 0x24 DUP3 ADD MSTORE PUSH32 0x4D65726B6C6520747265652069732066756C6C2E204E6F206D6F7265206C6561 PUSH1 0x44 DUP3 ADD MSTORE PUSH16 0x1D995CC818D85B881899481859191959 PUSH1 0x82 SHL PUSH1 0x64 DUP3 ADD MSTORE PUSH1 0x84 ADD PUSH2 0x72A JUMP JUMPDEST DUP1 DUP4 PUSH0 DUP1 DUP1 JUMPDEST PUSH0 SLOAD PUSH4 0xFFFFFFFF SWAP1 DUP2 AND SWAP1 DUP3 AND LT ISZERO PUSH2 0x1E5D JUMPI PUSH2 0x1DE5 PUSH1 0x2 DUP7 PUSH2 0x2661 JUMP JUMPDEST PUSH4 0xFFFFFFFF AND PUSH0 SUB PUSH2 0x1E21 JUMPI DUP4 SWAP3 POP PUSH2 0x1E03 DUP2 PUSH4 0xFFFFFFFF AND PUSH2 0x10E0 JUMP JUMPDEST PUSH4 0xFFFFFFFF DUP3 AND PUSH0 SWAP1 DUP2 MSTORE PUSH1 0x1 PUSH1 0x20 MSTORE PUSH1 0x40 SWAP1 KECCAK256 DUP6 SWAP1 SSTORE SWAP2 POP PUSH2 0x1E3C JUMP JUMPDEST PUSH4 0xFFFFFFFF DUP2 AND PUSH0 SWAP1 DUP2 MSTORE PUSH1 0x1 PUSH1 0x20 MSTORE PUSH1 0x40 SWAP1 KECCAK256 SLOAD SWAP3 POP DUP4 SWAP2 POP JUMPDEST PUSH2 0x1E46 DUP4 DUP4 PUSH2 0xAD6 JUMP JUMPDEST SWAP4 POP PUSH2 0x1E53 PUSH1 0x2 DUP7 PUSH2 0x2683 JUMP JUMPDEST SWAP5 POP PUSH1 0x1 ADD PUSH2 0x1DC7 JUMP JUMPDEST POP PUSH1 0x3 SLOAD PUSH0 SWAP1 PUSH1 0x1E SWAP1 PUSH2 0x1E77 SWAP1 PUSH4 0xFFFFFFFF AND PUSH1 0x1 PUSH2 0x26A5 JUMP JUMPDEST PUSH2 0x1E81 SWAP2 SWAP1 PUSH2 0x2661 JUMP JUMPDEST PUSH1 0x3 DUP1 SLOAD PUSH4 0xFFFFFFFF NOT AND PUSH4 0xFFFFFFFF DUP4 AND SWAP1 DUP2 OR SWAP1 SWAP2 SSTORE PUSH0 SWAP1 DUP2 MSTORE PUSH1 0x2 PUSH1 0x20 MSTORE PUSH1 0x40 SWAP1 KECCAK256 DUP6 SWAP1 SSTORE SWAP1 POP PUSH2 0x1EB6 DUP7 PUSH1 0x1 PUSH2 0x26A5 JUMP JUMPDEST PUSH1 0x3 DUP1 SLOAD PUSH4 0xFFFFFFFF SWAP3 SWAP1 SWAP3 AND PUSH5 0x100000000 MUL PUSH8 0xFFFFFFFF00000000 NOT SWAP1 SWAP3 AND SWAP2 SWAP1 SWAP2 OR SWAP1 SSTORE POP SWAP4 SWAP7 SWAP6 POP POP POP POP POP POP JUMP JUMPDEST PUSH32 0x0 CALLVALUE EQ PUSH2 0x1F7E JUMPI PUSH1 0x40 MLOAD PUSH3 0x461BCD PUSH1 0xE5 SHL DUP2 MSTORE PUSH1 0x20 PUSH1 0x4 DUP3 ADD MSTORE PUSH1 0x38 PUSH1 0x24 DUP3 ADD MSTORE PUSH32 0x506C656173652073656E6420606D697844656E6F6D696E6174696F6E60204554 PUSH1 0x44 DUP3 ADD MSTORE PUSH32 0x4820616C6F6E672077697468207472616E73616374696F6E0000000000000000 PUSH1 0x64 DUP3 ADD MSTORE PUSH1 0x84 ADD PUSH2 0x72A JUMP JUMPDEST JUMP JUMPDEST PUSH0 DUP2 PUSH0 SUB PUSH2 0x1F8F JUMPI POP PUSH0 SWAP2 SWAP1 POP JUMP JUMPDEST PUSH1 0x3 SLOAD PUSH4 0xFFFFFFFF AND DUP1 JUMPDEST PUSH4 0xFFFFFFFF DUP2 AND PUSH0 SWAP1 DUP2 MSTORE PUSH1 0x2 PUSH1 0x20 MSTORE PUSH1 0x40 SWAP1 KECCAK256 SLOAD DUP5 SUB PUSH2 0x1FBF JUMPI POP PUSH1 0x1 SWAP4 SWAP3 POP POP POP JUMP JUMPDEST DUP1 PUSH4 0xFFFFFFFF AND PUSH0 SUB PUSH2 0x1FD0 JUMPI POP PUSH1 0x1E JUMPDEST DUP1 PUSH2 0x1FDA DUP2 PUSH2 0x22A3 JUMP JUMPDEST SWAP2 POP POP DUP2 PUSH4 0xFFFFFFFF AND DUP2 PUSH4 0xFFFFFFFF AND SUB PUSH2 0x1F9A JUMPI POP PUSH0 SWAP4 SWAP3 POP POP POP JUMP JUMPDEST PUSH1 0x1 PUSH1 0x1 PUSH1 0xA0 SHL SUB DUP2 AND DUP2 EQ PUSH2 0xFE5 JUMPI PUSH0 DUP1 REVERT JUMPDEST PUSH0 DUP1 PUSH1 0x40 DUP4 DUP6 SUB SLT ISZERO PUSH2 0x201E JUMPI PUSH0 DUP1 REVERT JUMPDEST DUP3 CALLDATALOAD PUSH2 0x2029 DUP2 PUSH2 0x1FF9 JUMP JUMPDEST SWAP5 PUSH1 0x20 SWAP4 SWAP1 SWAP4 ADD CALLDATALOAD SWAP4 POP POP POP JUMP JUMPDEST PUSH0 JUMPDEST DUP4 DUP2 LT ISZERO PUSH2 0x2051 JUMPI DUP2 DUP2 ADD MLOAD DUP4 DUP3 ADD MSTORE PUSH1 0x20 ADD PUSH2 0x2039 JUMP JUMPDEST POP POP PUSH0 SWAP2 ADD MSTORE JUMP JUMPDEST PUSH0 DUP2 MLOAD DUP1 DUP5 MSTORE PUSH2 0x2070 DUP2 PUSH1 0x20 DUP7 ADD PUSH1 0x20 DUP7 ADD PUSH2 0x2037 JUMP JUMPDEST PUSH1 0x1F ADD PUSH1 0x1F NOT AND SWAP3 SWAP1 SWAP3 ADD PUSH1 0x20 ADD SWAP3 SWAP2 POP POP JUMP JUMPDEST PUSH1 0x20 DUP2 MSTORE PUSH0 PUSH2 0xB5E PUSH1 0x20 DUP4 ADD DUP5 PUSH2 0x2059 JUMP JUMPDEST PUSH0 PUSH1 0x20 DUP3 DUP5 SUB SLT ISZERO PUSH2 0x20A6 JUMPI PUSH0 DUP1 REVERT JUMPDEST POP CALLDATALOAD SWAP2 SWAP1 POP JUMP JUMPDEST PUSH0 DUP1 PUSH1 0x40 DUP4 DUP6 SUB SLT ISZERO PUSH2 0x20BE JUMPI PUSH0 DUP1 REVERT JUMPDEST POP POP DUP1 CALLDATALOAD SWAP3 PUSH1 0x20 SWAP1 SWAP2 ADD CALLDATALOAD SWAP2 POP JUMP JUMPDEST PUSH0 DUP1 PUSH0 DUP1 PUSH0 DUP1 PUSH1 0xA0 DUP8 DUP10 SUB SLT ISZERO PUSH2 0x20E2 JUMPI PUSH0 DUP1 REVERT JUMPDEST DUP7 CALLDATALOAD SWAP6 POP PUSH1 0x20 DUP8 ADD CALLDATALOAD SWAP5 POP PUSH1 0x40 DUP8 ADD CALLDATALOAD SWAP4 POP PUSH1 0x60 DUP8 ADD CALLDATALOAD PUSH2 0x2102 DUP2 PUSH2 0x1FF9 JUMP JUMPDEST SWAP3 POP PUSH1 0x80 DUP8 ADD CALLDATALOAD PUSH8 0xFFFFFFFFFFFFFFFF DUP1 DUP3 GT ISZERO PUSH2 0x211E JUMPI PUSH0 DUP1 REVERT JUMPDEST DUP2 DUP10 ADD SWAP2 POP DUP10 PUSH1 0x1F DUP4 ADD SLT PUSH2 0x2131 JUMPI PUSH0 DUP1 REVERT JUMPDEST DUP2 CALLDATALOAD DUP2 DUP2 GT ISZERO PUSH2 0x213F JUMPI PUSH0 DUP1 REVERT JUMPDEST DUP11 PUSH1 0x20 DUP3 DUP6 ADD ADD GT ISZERO PUSH2 0x2150 JUMPI PUSH0 DUP1 REVERT JUMPDEST PUSH1 0x20 DUP4 ADD SWAP5 POP DUP1 SWAP4 POP POP POP POP SWAP3 SWAP6 POP SWAP3 SWAP6 POP SWAP3 SWAP6 JUMP JUMPDEST PUSH4 0xFFFFFFFF DUP2 AND DUP2 EQ PUSH2 0xFE5 JUMPI PUSH0 DUP1 REVERT JUMPDEST PUSH0 PUSH1 0x20 DUP3 DUP5 SUB SLT ISZERO PUSH2 0x2187 JUMPI PUSH0 DUP1 REVERT JUMPDEST DUP2 CALLDATALOAD PUSH2 0xB5E DUP2 PUSH2 0x2166 JUMP JUMPDEST PUSH0 DUP1 PUSH1 0x20 DUP4 DUP6 SUB SLT ISZERO PUSH2 0x21A3 JUMPI PUSH0 DUP1 REVERT JUMPDEST DUP3 CALLDATALOAD PUSH8 0xFFFFFFFFFFFFFFFF DUP1 DUP3 GT ISZERO PUSH2 0x21BA JUMPI PUSH0 DUP1 REVERT JUMPDEST DUP2 DUP6 ADD SWAP2 POP DUP6 PUSH1 0x1F DUP4 ADD SLT PUSH2 0x21CD JUMPI PUSH0 DUP1 REVERT JUMPDEST DUP2 CALLDATALOAD DUP2 DUP2 GT ISZERO PUSH2 0x21DB JUMPI PUSH0 DUP1 REVERT JUMPDEST DUP7 PUSH1 0x20 DUP3 PUSH1 0x5 SHL DUP6 ADD ADD GT ISZERO PUSH2 0x21EF JUMPI PUSH0 DUP1 REVERT JUMPDEST PUSH1 0x20 SWAP3 SWAP1 SWAP3 ADD SWAP7 SWAP2 SWAP6 POP SWAP1 SWAP4 POP POP POP POP JUMP JUMPDEST PUSH1 0x20 DUP1 DUP3 MSTORE DUP3 MLOAD DUP3 DUP3 ADD DUP2 SWAP1 MSTORE PUSH0 SWAP2 SWAP1 DUP5 DUP3 ADD SWAP1 PUSH1 0x40 DUP6 ADD SWAP1 DUP5 JUMPDEST DUP2 DUP2 LT ISZERO PUSH2 0x223A JUMPI DUP4 MLOAD ISZERO ISZERO DUP4 MSTORE SWAP3 DUP5 ADD SWAP3 SWAP2 DUP5 ADD SWAP2 PUSH1 0x1 ADD PUSH2 0x221C JUMP JUMPDEST POP SWAP1 SWAP7 SWAP6 POP POP POP POP POP POP JUMP JUMPDEST PUSH0 DUP3 MLOAD PUSH2 0x2257 DUP2 DUP5 PUSH1 0x20 DUP8 ADD PUSH2 0x2037 JUMP JUMPDEST SWAP2 SWAP1 SWAP2 ADD SWAP3 SWAP2 POP POP JUMP JUMPDEST PUSH4 0x4E487B71 PUSH1 0xE0 SHL PUSH0 MSTORE PUSH1 0x11 PUSH1 0x4 MSTORE PUSH1 0x24 PUSH0 REVERT JUMPDEST DUP2 DUP2 SUB DUP2 DUP2 GT ISZERO PUSH2 0x738 JUMPI PUSH2 0x738 PUSH2 0x2261 JUMP JUMPDEST PUSH0 PUSH1 0x20 DUP3 DUP5 SUB SLT ISZERO PUSH2 0x2298 JUMPI PUSH0 DUP1 REVERT JUMPDEST DUP2 MLOAD PUSH2 0xB5E DUP2 PUSH2 0x2166 JUMP JUMPDEST PUSH0 PUSH4 0xFFFFFFFF DUP3 AND DUP1 PUSH2 0x22B8 JUMPI PUSH2 0x22B8 PUSH2 0x2261 JUMP JUMPDEST PUSH0 NOT ADD SWAP3 SWAP2 POP POP JUMP JUMPDEST PUSH1 0x20 DUP1 DUP3 MSTORE PUSH1 0x28 SWAP1 DUP3 ADD MSTORE PUSH32 0x66756E6374696F6E206E6F742063616C6C6564206279206C315363726F6C6C4D PUSH1 0x40 DUP3 ADD MSTORE PUSH8 0x32B9B9B2B733B2B9 PUSH1 0xC1 SHL PUSH1 0x60 DUP3 ADD MSTORE PUSH1 0x80 ADD SWAP1 JUMP JUMPDEST PUSH0 PUSH1 0x20 DUP3 DUP5 SUB SLT ISZERO PUSH2 0x2319 JUMPI PUSH0 DUP1 REVERT JUMPDEST DUP2 MLOAD PUSH2 0xB5E DUP2 PUSH2 0x1FF9 JUMP JUMPDEST PUSH1 0x20 DUP1 DUP3 MSTORE PUSH1 0x3D SWAP1 DUP3 ADD MSTORE PUSH32 0x636F6E7472616374206D6573736167696E672066726F6D204C32206973206E6F PUSH1 0x40 DUP3 ADD MSTORE PUSH32 0x7420746865206C32546F61646E61646F5363726F6C6C41646472657373000000 PUSH1 0x60 DUP3 ADD MSTORE PUSH1 0x80 ADD SWAP1 JUMP JUMPDEST DUP1 DUP3 ADD DUP1 DUP3 GT ISZERO PUSH2 0x738 JUMPI PUSH2 0x738 PUSH2 0x2261 JUMP JUMPDEST PUSH0 PUSH1 0x20 DUP3 DUP5 SUB SLT ISZERO PUSH2 0x23A4 JUMPI PUSH0 DUP1 REVERT JUMPDEST POP MLOAD SWAP2 SWAP1 POP JUMP JUMPDEST PUSH1 0x40 DUP2 ADD DUP2 DUP4 PUSH0 JUMPDEST PUSH1 0x2 DUP2 LT ISZERO PUSH2 0x23D2 JUMPI DUP2 MLOAD DUP4 MSTORE PUSH1 0x20 SWAP3 DUP4 ADD SWAP3 SWAP1 SWAP2 ADD SWAP1 PUSH1 0x1 ADD PUSH2 0x23B3 JUMP JUMPDEST POP POP POP SWAP3 SWAP2 POP POP JUMP JUMPDEST PUSH1 0x40 DUP2 MSTORE DUP3 PUSH1 0x40 DUP3 ADD MSTORE DUP3 DUP5 PUSH1 0x60 DUP4 ADD CALLDATACOPY PUSH0 PUSH1 0x60 DUP5 DUP4 ADD ADD MSTORE PUSH0 PUSH1 0x1F NOT PUSH1 0x1F DUP6 ADD AND DUP3 ADD PUSH1 0x60 DUP2 ADD PUSH1 0x20 PUSH1 0x60 DUP6 DUP5 SUB ADD PUSH1 0x20 DUP7 ADD MSTORE DUP2 DUP7 MLOAD DUP1 DUP5 MSTORE PUSH1 0x80 DUP6 ADD SWAP2 POP PUSH1 0x20 DUP9 ADD SWAP5 POP PUSH0 SWAP4 POP JUMPDEST DUP1 DUP5 LT ISZERO PUSH2 0x2446 JUMPI DUP5 MLOAD DUP3 MSTORE SWAP4 DUP3 ADD SWAP4 PUSH1 0x1 SWAP4 SWAP1 SWAP4 ADD SWAP3 SWAP1 DUP3 ADD SWAP1 PUSH2 0x2426 JUMP JUMPDEST POP SWAP9 SWAP8 POP POP POP POP POP POP POP POP JUMP JUMPDEST PUSH0 PUSH1 0x20 DUP3 DUP5 SUB SLT ISZERO PUSH2 0x2463 JUMPI PUSH0 DUP1 REVERT JUMPDEST DUP2 MLOAD DUP1 ISZERO ISZERO DUP2 EQ PUSH2 0xB5E JUMPI PUSH0 DUP1 REVERT JUMPDEST PUSH0 PUSH1 0x1 DUP1 PUSH1 0xA0 SHL SUB DUP1 DUP9 AND DUP4 MSTORE DUP7 PUSH1 0x20 DUP5 ADD MSTORE PUSH1 0xA0 PUSH1 0x40 DUP5 ADD MSTORE PUSH2 0x2499 PUSH1 0xA0 DUP5 ADD DUP8 PUSH2 0x2059 JUMP JUMPDEST PUSH4 0xFFFFFFFF SWAP6 SWAP1 SWAP6 AND PUSH1 0x60 DUP5 ADD MSTORE SWAP3 SWAP1 SWAP3 AND PUSH1 0x80 SWAP1 SWAP2 ADD MSTORE POP SWAP4 SWAP3 POP POP POP JUMP JUMPDEST PUSH0 PUSH1 0x1 DUP1 PUSH1 0xA0 SHL SUB DUP1 DUP9 AND DUP4 MSTORE DUP7 PUSH1 0x20 DUP5 ADD MSTORE PUSH1 0xA0 PUSH1 0x40 DUP5 ADD MSTORE PUSH2 0x24E0 PUSH1 0xA0 DUP5 ADD DUP8 PUSH2 0x2059 JUMP JUMPDEST PUSH1 0x60 DUP5 ADD SWAP6 SWAP1 SWAP6 MSTORE SWAP3 SWAP1 SWAP3 AND PUSH1 0x80 SWAP1 SWAP2 ADD MSTORE POP SWAP4 SWAP3 POP POP POP JUMP JUMPDEST PUSH4 0x4E487B71 PUSH1 0xE0 SHL PUSH0 MSTORE PUSH1 0x41 PUSH1 0x4 MSTORE PUSH1 0x24 PUSH0 REVERT JUMPDEST PUSH4 0x4E487B71 PUSH1 0xE0 SHL PUSH0 MSTORE PUSH1 0x32 PUSH1 0x4 MSTORE PUSH1 0x24 PUSH0 REVERT JUMPDEST PUSH1 0x1 DUP2 DUP2 JUMPDEST DUP1 DUP6 GT ISZERO PUSH2 0x255F JUMPI DUP2 PUSH4 0xFFFFFFFF DIV DUP3 GT ISZERO PUSH2 0x2545 JUMPI PUSH2 0x2545 PUSH2 0x2261 JUMP JUMPDEST DUP1 DUP6 AND ISZERO PUSH2 0x2552 JUMPI SWAP2 DUP2 MUL SWAP2 JUMPDEST SWAP4 DUP5 SHR SWAP4 SWAP1 DUP1 MUL SWAP1 PUSH2 0x2527 JUMP JUMPDEST POP SWAP3 POP SWAP3 SWAP1 POP JUMP JUMPDEST PUSH0 DUP3 PUSH2 0x2575 JUMPI POP PUSH1 0x1 PUSH2 0x738 JUMP JUMPDEST DUP2 PUSH2 0x2581 JUMPI POP PUSH0 PUSH2 0x738 JUMP JUMPDEST DUP2 PUSH1 0x1 DUP2 EQ PUSH2 0x2597 JUMPI PUSH1 0x2 DUP2 EQ PUSH2 0x25A1 JUMPI PUSH2 0x25D2 JUMP JUMPDEST PUSH1 0x1 SWAP2 POP POP PUSH2 0x738 JUMP JUMPDEST PUSH1 0xFF DUP5 GT ISZERO PUSH2 0x25B2 JUMPI PUSH2 0x25B2 PUSH2 0x2261 JUMP JUMPDEST PUSH1 0x1 DUP5 SHL SWAP2 POP PUSH4 0xFFFFFFFF DUP3 GT ISZERO PUSH2 0x25CC JUMPI PUSH2 0x25CC PUSH2 0x2261 JUMP JUMPDEST POP PUSH2 0x738 JUMP JUMPDEST POP PUSH1 0x20 DUP4 LT PUSH2 0x133 DUP4 LT AND PUSH1 0x4E DUP5 LT PUSH1 0xB DUP5 LT AND OR ISZERO PUSH2 0x2609 JUMPI POP DUP2 DUP2 EXP PUSH4 0xFFFFFFFF DUP2 GT ISZERO PUSH2 0x2604 JUMPI PUSH2 0x2604 PUSH2 0x2261 JUMP JUMPDEST PUSH2 0x738 JUMP JUMPDEST PUSH2 0x2613 DUP4 DUP4 PUSH2 0x2522 JUMP JUMPDEST DUP1 PUSH4 0xFFFFFFFF DIV DUP3 GT ISZERO PUSH2 0x2629 JUMPI PUSH2 0x2629 PUSH2 0x2261 JUMP JUMPDEST MUL SWAP4 SWAP3 POP POP POP JUMP JUMPDEST PUSH0 PUSH4 0xFFFFFFFF PUSH2 0x2645 DUP2 DUP6 AND DUP3 DUP6 AND PUSH2 0x2567 JUMP JUMPDEST SWAP5 SWAP4 POP POP POP POP JUMP JUMPDEST PUSH4 0x4E487B71 PUSH1 0xE0 SHL PUSH0 MSTORE PUSH1 0x12 PUSH1 0x4 MSTORE PUSH1 0x24 PUSH0 REVERT JUMPDEST PUSH0 PUSH4 0xFFFFFFFF DUP1 DUP5 AND DUP1 PUSH2 0x2677 JUMPI PUSH2 0x2677 PUSH2 0x264D JUMP JUMPDEST SWAP3 AND SWAP2 SWAP1 SWAP2 MOD SWAP3 SWAP2 POP POP JUMP JUMPDEST PUSH0 PUSH4 0xFFFFFFFF DUP1 DUP5 AND DUP1 PUSH2 0x2699 JUMPI PUSH2 0x2699 PUSH2 0x264D JUMP JUMPDEST SWAP3 AND SWAP2 SWAP1 SWAP2 DIV SWAP3 SWAP2 POP POP JUMP JUMPDEST PUSH4 0xFFFFFFFF DUP2 DUP2 AND DUP4 DUP3 AND ADD SWAP1 DUP1 DUP3 GT ISZERO PUSH2 0x17EF JUMPI PUSH2 0x17EF PUSH2 0x2261 JUMP INVALID LOG2 PUSH5 0x6970667358 0x22 SLT KECCAK256 0xC4 JUMP SWAP9 CALLER BALANCE 0xB6 ADD DUP14 EXP OR 0xE3 0xAC 0x2D 0xDF LOG0 0xBE PUSH4 0x84180E90 SHL 0xDF 0xE5 SELFDESTRUCT 0x4F 0xAA MUL STOP SWAP9 PUSH26 0xF264736F6C634300081700330000000000000000000000000000 "},"methodIdentifiers":{"ROOT_HISTORY_SIZE()":"cd87a3b4","bridgeDebt()":"db394bb9","bridgeEth(uint256,uint256)":"f8af86e7","commitments(uint256)":"49ce8997","commitmentsTreeRoots(uint256)":"28482f89","currentRootIndex()":"90eeb02b","denomination()":"8bca6d16","deposit(uint256)":"b6b55f25","ethPendingWithdrawals()":"1b5844ff","filledSubtrees(uint256)":"f178e47c","getL1Root(uint256)":"5032d4f1","getLastRoot()":"ba70f757","hashLeftRight(uint256,uint256)":"5bb93995","isKnownL1Root(uint256)":"397a14b4","isKnownL2Root(uint256)":"b89d302d","isSpent(uint256)":"5a129efe","isSpentArray(uint256[])":"ea65ba49","l1ToadnadoAddress()":"cc48b735","l2ScrollMessenger()":"c0e70bbd","levels()":"4ecf518b","nextIndex()":"fc7e9c6f","nullifiers(uint256)":"d21e82ab","readSingleSlot(address,uint256)":"102b72e7","recieveBridgedEth()":"39da4b55","requestEthBridge(uint256)":"c9ca7a61","roots(uint256)":"c2b40ae4","sendLatestRootToL1(uint32)":"9d7d010f","verifier()":"2b7ac3f3","withdraw(uint256,uint256,uint256,address,bytes)":"7bde37db","withdrawPending(uint256)":"2e585fd8","zeros(uint256)":"e8295588"}}}}}