{"contracts/MerkleTree.sol":{"MerkleTree":{"abi":[{"inputs":[{"internalType":"uint32","name":"_levels","type":"uint32"}],"stateMutability":"nonpayable","type":"constructor"},{"inputs":[],"name":"ROOT_HISTORY_SIZE","outputs":[{"internalType":"uint32","name":"","type":"uint32"}],"stateMutability":"view","type":"function"},{"inputs":[],"name":"currentRootIndex","outputs":[{"internalType":"uint32","name":"","type":"uint32"}],"stateMutability":"view","type":"function"},{"inputs":[{"internalType":"uint256","name":"","type":"uint256"}],"name":"filledSubtrees","outputs":[{"internalType":"uint256","name":"","type":"uint256"}],"stateMutability":"view","type":"function"},{"inputs":[],"name":"getLastRoot","outputs":[{"internalType":"uint256","name":"","type":"uint256"}],"stateMutability":"view","type":"function"},{"inputs":[{"internalType":"uint256","name":"_left","type":"uint256"},{"internalType":"uint256","name":"_right","type":"uint256"}],"name":"hashLeftRight","outputs":[{"internalType":"uint256","name":"","type":"uint256"}],"stateMutability":"pure","type":"function"},{"inputs":[],"name":"levels","outputs":[{"internalType":"uint32","name":"","type":"uint32"}],"stateMutability":"view","type":"function"},{"inputs":[],"name":"nextIndex","outputs":[{"internalType":"uint32","name":"","type":"uint32"}],"stateMutability":"view","type":"function"},{"inputs":[{"internalType":"uint256","name":"","type":"uint256"}],"name":"roots","outputs":[{"internalType":"uint256","name":"","type":"uint256"}],"stateMutability":"view","type":"function"},{"inputs":[{"internalType":"uint256","name":"i","type":"uint256"}],"name":"zeros","outputs":[{"internalType":"uint256","name":"","type":"uint256"}],"stateMutability":"pure","type":"function"}],"evm":{"bytecode":{"linkReferences":{"poseidon-solidity/PoseidonT3.sol":{"PoseidonT3":[{"length":20,"start":2563}]}},"object":"6080604052600380546001600160401b031916905534801562000020575f80fd5b50604051620011833803806200118383398101604081905262000043916200082b565b5f8163ffffffff1611620000aa5760405162461bcd60e51b815260206004820152602360248201527f5f6c6576656c732073686f756c642062652067726561746572207468616e207a60448201526265726f60e81b60648201526084015b60405180910390fd5b60148163ffffffff1610620001025760405162461bcd60e51b815260206004820152601e60248201527f5f6c6576656c732073686f756c64206265206c657373207468616e20323000006044820152606401620000a1565b5f805463ffffffff191663ffffffff83161781555b8163ffffffff168163ffffffff1610156200015f576200013d63ffffffff8216620001a2565b63ffffffff82165f908152600160208190526040909120919091550162000117565b506200017163ffffffff8216620001a2565b5f805260026020527fac33ff75c19e70fe83507db0d683fd3465c996598dc972688b7ace676c89077b555062000857565b5f815f03620001b257505f919050565b81600103620001e257507f2098f5fb9e239eab3ceac3f27b81e481dc3124d55ffed523a839ee8446b64864919050565b816002036200021257507f1069673dcdb12263df301a6ff584a7ec261a44cb9dc68df067a4774460b1f1e1919050565b816003036200024257507f18f43331537ee2af2e3d758d50f72106467c6eea50371dd528d57eb2b856d238919050565b816004036200027257507f07f9d837cb17b0d36320ffe93ba52345f1b728571a568265caac97559dbc952a919050565b81600503620002a257507f2b94cf5e8746b3f5c9631f4c5df32907a699c58c94b2ad4d7b5cec1639183f55919050565b81600603620002d257507f2dee93c5a666459646ea7d22cca9e1bcfed71e6951b953611d11dda32ea09d78919050565b816007036200030257507f078295e5a22b84e982cf601eb639597b8b0515a88cb5ac7fa8a4aabe3c87349d919050565b816008036200033257507f2fa5e5f18f6027a6501bec864564472a616b2e274a41211a444cbe3a99f3cc61919050565b816009036200036257507f0e884376d0d8fd21ecb780389e941f66e45e7acce3e228ab3e2156a614fcd747919050565b81600a036200039257507f1b7201da72494f1e28717ad1a52eb469f95892f957713533de6175e5da190af2919050565b81600b03620003c257507f1f8d8822725e36385200c0b201249819a6e6e1e4650808b5bebc6bface7d7636919050565b81600c03620003f257507f2c5d82f66c914bafb9701589ba8cfcfb6162b0a12acf88a8d0879a0471b5f85a919050565b81600d036200042257507f14c54148a0940bb820957f5adf3fa1134ef5c4aaa113f4646458f270e0bfbfd0919050565b81600e036200045257507f190d33b12f986f961e10c0ee44d8b9af11be25588cad89d416118e4bf4ebe80c919050565b81600f036200048257507f22f98aa9ce704152ac17354914ad73ed1167ae6596af510aa5b3649325e06c92919050565b81601003620004b257507f2a7c7c9b6ce5880b9f6f228d72bf6a575a526f29c66ecceef8b753d38bba7323919050565b81601103620004e257507f2e8186e558698ec1c67af9c14d463ffc470043c9c2988b954d75dd643f36b992919050565b816012036200051257507f0f57c5571e9a4eab49e2c8cf050dae948aef6ead647392273546249d1c1ff10f919050565b816013036200054257507f1830ee67b5fb554ad5f63d4388800e1cfe78e310697d46e43c9ce36134f72cca919050565b816014036200057257507f2134e76ac5d21aab186c2be1dd8f84ee880a1e46eaf712f9d371b6df22191f3e919050565b81601503620005a257507f19df90ec844ebc4ffeebd866f33859b0c051d8c958ee3aa88f8f8df3db91a5b1919050565b81601603620005d257507f18cca2a66b5c0787981e69aefd84852d74af0e93ef4912b4648c05f722efe52b919050565b816017036200060257507f2388909415230d1b4d1304d2d54f473a628338f2efad83fadf05644549d2538d919050565b816018036200063257507f27171fb4a97b6cc0e9e8f543b5294de866a2af2c9c8d0b1d96e673e4529ed540919050565b816019036200066257507f2ff6650540f629fd5711a0bc74fc0d28dcb230b9392583e5f8d59696dde6ae21919050565b81601a036200069257507f120c58f143d491e95902f7f5277778a2e0ad5168f6add75669932630ce611518919050565b81601b03620006c257507f1f21feb70d3f21b07bf853d5e5db03071ec495a0a565a21da2d665d279483795919050565b81601c03620006f257507f24be905fa71335e14c638cc0f66a8623a826e768068a9e968bb1a1dde18a72d2919050565b81601d036200072257507f0f8666b62ed17491c50ceadead57d4cd597ef3821d65c328744c74e553dac26d919050565b81601e036200075257507f0918d46bf52d98b034413f4a1a1c41594e7a7a3f6ae08cb43d1a2a230e1959ef919050565b81601f036200078257507f1bbeb01b4c479ecde76917645e404dfa2e26f90d0afc5a65128513ad375c5ff2919050565b81602003620007b257507f2f68a1c58e257e42a17a6c61dff5551ed560b9922ab119d5ac8e184c9734ead9919050565b81602103620007e257507f1102d2f8db05e4af4842e8ad3d85ed45eb28447eb7212235a2281d5ab5d81d11919050565b60405162461bcd60e51b815260206004820152601360248201527f496e646578206f7574206f6620626f756e6473000000000000000000000000006044820152606401620000a1565b5f602082840312156200083c575f80fd5b815163ffffffff8116811462000850575f80fd5b9392505050565b61091e80620008655f395ff3fe608060405234801561000f575f80fd5b5060043610610090575f3560e01c8063c2b40ae411610063578063c2b40ae41461010a578063cd87a3b414610129578063e829558814610131578063f178e47c14610144578063fc7e9c6f14610163575f80fd5b80634ecf518b146100945780635bb93995146100bd57806390eeb02b146100de578063ba70f757146100ee575b5f80fd5b5f546100a39063ffffffff1681565b60405163ffffffff90911681526020015b60405180910390f35b6100d06100cb36600461086a565b61017b565b6040519081526020016100b4565b6003546100a39063ffffffff1681565b60035463ffffffff165f908152600260205260409020546100d0565b6100d061011836600461088a565b60026020525f908152604090205481565b6100a3601e81565b6100d061013f36600461088a565b61020a565b6100d061015236600461088a565b60016020525f908152604090205481565b6003546100a390640100000000900463ffffffff1681565b604080518082018252838152602081018390529051632b0aac7f60e11b81525f9173__$75f79a42d9bcbdbb69ad79ebd80f556f39$__9163561558fe916101c4916004016108a1565b602060405180830381865af41580156101df573d5f803e3d5ffd5b505050506040513d601f19601f8201168201806040525081019061020391906108d1565b9392505050565b5f815f0361021957505f919050565b8160010361024857507f2098f5fb9e239eab3ceac3f27b81e481dc3124d55ffed523a839ee8446b64864919050565b8160020361027757507f1069673dcdb12263df301a6ff584a7ec261a44cb9dc68df067a4774460b1f1e1919050565b816003036102a657507f18f43331537ee2af2e3d758d50f72106467c6eea50371dd528d57eb2b856d238919050565b816004036102d557507f07f9d837cb17b0d36320ffe93ba52345f1b728571a568265caac97559dbc952a919050565b8160050361030457507f2b94cf5e8746b3f5c9631f4c5df32907a699c58c94b2ad4d7b5cec1639183f55919050565b8160060361033357507f2dee93c5a666459646ea7d22cca9e1bcfed71e6951b953611d11dda32ea09d78919050565b8160070361036257507f078295e5a22b84e982cf601eb639597b8b0515a88cb5ac7fa8a4aabe3c87349d919050565b8160080361039157507f2fa5e5f18f6027a6501bec864564472a616b2e274a41211a444cbe3a99f3cc61919050565b816009036103c057507f0e884376d0d8fd21ecb780389e941f66e45e7acce3e228ab3e2156a614fcd747919050565b81600a036103ef57507f1b7201da72494f1e28717ad1a52eb469f95892f957713533de6175e5da190af2919050565b81600b0361041e57507f1f8d8822725e36385200c0b201249819a6e6e1e4650808b5bebc6bface7d7636919050565b81600c0361044d57507f2c5d82f66c914bafb9701589ba8cfcfb6162b0a12acf88a8d0879a0471b5f85a919050565b81600d0361047c57507f14c54148a0940bb820957f5adf3fa1134ef5c4aaa113f4646458f270e0bfbfd0919050565b81600e036104ab57507f190d33b12f986f961e10c0ee44d8b9af11be25588cad89d416118e4bf4ebe80c919050565b81600f036104da57507f22f98aa9ce704152ac17354914ad73ed1167ae6596af510aa5b3649325e06c92919050565b8160100361050957507f2a7c7c9b6ce5880b9f6f228d72bf6a575a526f29c66ecceef8b753d38bba7323919050565b8160110361053857507f2e8186e558698ec1c67af9c14d463ffc470043c9c2988b954d75dd643f36b992919050565b8160120361056757507f0f57c5571e9a4eab49e2c8cf050dae948aef6ead647392273546249d1c1ff10f919050565b8160130361059657507f1830ee67b5fb554ad5f63d4388800e1cfe78e310697d46e43c9ce36134f72cca919050565b816014036105c557507f2134e76ac5d21aab186c2be1dd8f84ee880a1e46eaf712f9d371b6df22191f3e919050565b816015036105f457507f19df90ec844ebc4ffeebd866f33859b0c051d8c958ee3aa88f8f8df3db91a5b1919050565b8160160361062357507f18cca2a66b5c0787981e69aefd84852d74af0e93ef4912b4648c05f722efe52b919050565b8160170361065257507f2388909415230d1b4d1304d2d54f473a628338f2efad83fadf05644549d2538d919050565b8160180361068157507f27171fb4a97b6cc0e9e8f543b5294de866a2af2c9c8d0b1d96e673e4529ed540919050565b816019036106b057507f2ff6650540f629fd5711a0bc74fc0d28dcb230b9392583e5f8d59696dde6ae21919050565b81601a036106df57507f120c58f143d491e95902f7f5277778a2e0ad5168f6add75669932630ce611518919050565b81601b0361070e57507f1f21feb70d3f21b07bf853d5e5db03071ec495a0a565a21da2d665d279483795919050565b81601c0361073d57507f24be905fa71335e14c638cc0f66a8623a826e768068a9e968bb1a1dde18a72d2919050565b81601d0361076c57507f0f8666b62ed17491c50ceadead57d4cd597ef3821d65c328744c74e553dac26d919050565b81601e0361079b57507f0918d46bf52d98b034413f4a1a1c41594e7a7a3f6ae08cb43d1a2a230e1959ef919050565b81601f036107ca57507f1bbeb01b4c479ecde76917645e404dfa2e26f90d0afc5a65128513ad375c5ff2919050565b816020036107f957507f2f68a1c58e257e42a17a6c61dff5551ed560b9922ab119d5ac8e184c9734ead9919050565b8160210361082857507f1102d2f8db05e4af4842e8ad3d85ed45eb28447eb7212235a2281d5ab5d81d11919050565b60405162461bcd60e51b8152602060048201526013602482015272496e646578206f7574206f6620626f756e647360681b604482015260640160405180910390fd5b5f806040838503121561087b575f80fd5b50508035926020909101359150565b5f6020828403121561089a575f80fd5b5035919050565b6040810181835f5b60028110156108c85781518352602092830192909101906001016108a9565b50505092915050565b5f602082840312156108e1575f80fd5b505191905056fea26469706673582212201785960bcf2d2ae75be3ee7be281cb865178bc30330d775e1bdba2263674c97064736f6c63430008170033","opcodes":"PUSH1 0x80 PUSH1 0x40 MSTORE PUSH1 0x3 DUP1 SLOAD PUSH1 0x1 PUSH1 0x1 PUSH1 0x40 SHL SUB NOT AND SWAP1 SSTORE CALLVALUE DUP1 ISZERO PUSH3 0x20 JUMPI PUSH0 DUP1 REVERT JUMPDEST POP PUSH1 0x40 MLOAD PUSH3 0x1183 CODESIZE SUB DUP1 PUSH3 0x1183 DUP4 CODECOPY DUP2 ADD PUSH1 0x40 DUP2 SWAP1 MSTORE PUSH3 0x43 SWAP2 PUSH3 0x82B JUMP JUMPDEST PUSH0 DUP2 PUSH4 0xFFFFFFFF AND GT PUSH3 0xAA JUMPI PUSH1 0x40 MLOAD PUSH3 0x461BCD PUSH1 0xE5 SHL DUP2 MSTORE PUSH1 0x20 PUSH1 0x4 DUP3 ADD MSTORE PUSH1 0x23 PUSH1 0x24 DUP3 ADD MSTORE PUSH32 0x5F6C6576656C732073686F756C642062652067726561746572207468616E207A PUSH1 0x44 DUP3 ADD MSTORE PUSH3 0x65726F PUSH1 0xE8 SHL PUSH1 0x64 DUP3 ADD MSTORE PUSH1 0x84 ADD JUMPDEST PUSH1 0x40 MLOAD DUP1 SWAP2 SUB SWAP1 REVERT JUMPDEST PUSH1 0x14 DUP2 PUSH4 0xFFFFFFFF AND LT PUSH3 0x102 JUMPI PUSH1 0x40 MLOAD PUSH3 0x461BCD PUSH1 0xE5 SHL DUP2 MSTORE PUSH1 0x20 PUSH1 0x4 DUP3 ADD MSTORE PUSH1 0x1E PUSH1 0x24 DUP3 ADD MSTORE PUSH32 0x5F6C6576656C732073686F756C64206265206C657373207468616E2032300000 PUSH1 0x44 DUP3 ADD MSTORE PUSH1 0x64 ADD PUSH3 0xA1 JUMP JUMPDEST PUSH0 DUP1 SLOAD PUSH4 0xFFFFFFFF NOT AND PUSH4 0xFFFFFFFF DUP4 AND OR DUP2 SSTORE JUMPDEST DUP2 PUSH4 0xFFFFFFFF AND DUP2 PUSH4 0xFFFFFFFF AND LT ISZERO PUSH3 0x15F JUMPI PUSH3 0x13D PUSH4 0xFFFFFFFF DUP3 AND PUSH3 0x1A2 JUMP JUMPDEST PUSH4 0xFFFFFFFF DUP3 AND PUSH0 SWAP1 DUP2 MSTORE PUSH1 0x1 PUSH1 0x20 DUP2 SWAP1 MSTORE PUSH1 0x40 SWAP1 SWAP2 KECCAK256 SWAP2 SWAP1 SWAP2 SSTORE ADD PUSH3 0x117 JUMP JUMPDEST POP PUSH3 0x171 PUSH4 0xFFFFFFFF DUP3 AND PUSH3 0x1A2 JUMP JUMPDEST PUSH0 DUP1 MSTORE PUSH1 0x2 PUSH1 0x20 MSTORE PUSH32 0xAC33FF75C19E70FE83507DB0D683FD3465C996598DC972688B7ACE676C89077B SSTORE POP PUSH3 0x857 JUMP JUMPDEST PUSH0 DUP2 PUSH0 SUB PUSH3 0x1B2 JUMPI POP PUSH0 SWAP2 SWAP1 POP JUMP JUMPDEST DUP2 PUSH1 0x1 SUB PUSH3 0x1E2 JUMPI POP PUSH32 0x2098F5FB9E239EAB3CEAC3F27B81E481DC3124D55FFED523A839EE8446B64864 SWAP2 SWAP1 POP JUMP JUMPDEST DUP2 PUSH1 0x2 SUB PUSH3 0x212 JUMPI POP PUSH32 0x1069673DCDB12263DF301A6FF584A7EC261A44CB9DC68DF067A4774460B1F1E1 SWAP2 SWAP1 POP JUMP JUMPDEST DUP2 PUSH1 0x3 SUB PUSH3 0x242 JUMPI POP PUSH32 0x18F43331537EE2AF2E3D758D50F72106467C6EEA50371DD528D57EB2B856D238 SWAP2 SWAP1 POP JUMP JUMPDEST DUP2 PUSH1 0x4 SUB PUSH3 0x272 JUMPI POP PUSH32 0x7F9D837CB17B0D36320FFE93BA52345F1B728571A568265CAAC97559DBC952A SWAP2 SWAP1 POP JUMP JUMPDEST DUP2 PUSH1 0x5 SUB PUSH3 0x2A2 JUMPI POP PUSH32 0x2B94CF5E8746B3F5C9631F4C5DF32907A699C58C94B2AD4D7B5CEC1639183F55 SWAP2 SWAP1 POP JUMP JUMPDEST DUP2 PUSH1 0x6 SUB PUSH3 0x2D2 JUMPI POP PUSH32 0x2DEE93C5A666459646EA7D22CCA9E1BCFED71E6951B953611D11DDA32EA09D78 SWAP2 SWAP1 POP JUMP JUMPDEST DUP2 PUSH1 0x7 SUB PUSH3 0x302 JUMPI POP PUSH32 0x78295E5A22B84E982CF601EB639597B8B0515A88CB5AC7FA8A4AABE3C87349D SWAP2 SWAP1 POP JUMP JUMPDEST DUP2 PUSH1 0x8 SUB PUSH3 0x332 JUMPI POP PUSH32 0x2FA5E5F18F6027A6501BEC864564472A616B2E274A41211A444CBE3A99F3CC61 SWAP2 SWAP1 POP JUMP JUMPDEST DUP2 PUSH1 0x9 SUB PUSH3 0x362 JUMPI POP PUSH32 0xE884376D0D8FD21ECB780389E941F66E45E7ACCE3E228AB3E2156A614FCD747 SWAP2 SWAP1 POP JUMP JUMPDEST DUP2 PUSH1 0xA SUB PUSH3 0x392 JUMPI POP PUSH32 0x1B7201DA72494F1E28717AD1A52EB469F95892F957713533DE6175E5DA190AF2 SWAP2 SWAP1 POP JUMP JUMPDEST DUP2 PUSH1 0xB SUB PUSH3 0x3C2 JUMPI POP PUSH32 0x1F8D8822725E36385200C0B201249819A6E6E1E4650808B5BEBC6BFACE7D7636 SWAP2 SWAP1 POP JUMP JUMPDEST DUP2 PUSH1 0xC SUB PUSH3 0x3F2 JUMPI POP PUSH32 0x2C5D82F66C914BAFB9701589BA8CFCFB6162B0A12ACF88A8D0879A0471B5F85A SWAP2 SWAP1 POP JUMP JUMPDEST DUP2 PUSH1 0xD SUB PUSH3 0x422 JUMPI POP PUSH32 0x14C54148A0940BB820957F5ADF3FA1134EF5C4AAA113F4646458F270E0BFBFD0 SWAP2 SWAP1 POP JUMP JUMPDEST DUP2 PUSH1 0xE SUB PUSH3 0x452 JUMPI POP PUSH32 0x190D33B12F986F961E10C0EE44D8B9AF11BE25588CAD89D416118E4BF4EBE80C SWAP2 SWAP1 POP JUMP JUMPDEST DUP2 PUSH1 0xF SUB PUSH3 0x482 JUMPI POP PUSH32 0x22F98AA9CE704152AC17354914AD73ED1167AE6596AF510AA5B3649325E06C92 SWAP2 SWAP1 POP JUMP JUMPDEST DUP2 PUSH1 0x10 SUB PUSH3 0x4B2 JUMPI POP PUSH32 0x2A7C7C9B6CE5880B9F6F228D72BF6A575A526F29C66ECCEEF8B753D38BBA7323 SWAP2 SWAP1 POP JUMP JUMPDEST DUP2 PUSH1 0x11 SUB PUSH3 0x4E2 JUMPI POP PUSH32 0x2E8186E558698EC1C67AF9C14D463FFC470043C9C2988B954D75DD643F36B992 SWAP2 SWAP1 POP JUMP JUMPDEST DUP2 PUSH1 0x12 SUB PUSH3 0x512 JUMPI POP PUSH32 0xF57C5571E9A4EAB49E2C8CF050DAE948AEF6EAD647392273546249D1C1FF10F SWAP2 SWAP1 POP JUMP JUMPDEST DUP2 PUSH1 0x13 SUB PUSH3 0x542 JUMPI POP PUSH32 0x1830EE67B5FB554AD5F63D4388800E1CFE78E310697D46E43C9CE36134F72CCA SWAP2 SWAP1 POP JUMP JUMPDEST DUP2 PUSH1 0x14 SUB PUSH3 0x572 JUMPI POP PUSH32 0x2134E76AC5D21AAB186C2BE1DD8F84EE880A1E46EAF712F9D371B6DF22191F3E SWAP2 SWAP1 POP JUMP JUMPDEST DUP2 PUSH1 0x15 SUB PUSH3 0x5A2 JUMPI POP PUSH32 0x19DF90EC844EBC4FFEEBD866F33859B0C051D8C958EE3AA88F8F8DF3DB91A5B1 SWAP2 SWAP1 POP JUMP JUMPDEST DUP2 PUSH1 0x16 SUB PUSH3 0x5D2 JUMPI POP PUSH32 0x18CCA2A66B5C0787981E69AEFD84852D74AF0E93EF4912B4648C05F722EFE52B SWAP2 SWAP1 POP JUMP JUMPDEST DUP2 PUSH1 0x17 SUB PUSH3 0x602 JUMPI POP PUSH32 0x2388909415230D1B4D1304D2D54F473A628338F2EFAD83FADF05644549D2538D SWAP2 SWAP1 POP JUMP JUMPDEST DUP2 PUSH1 0x18 SUB PUSH3 0x632 JUMPI POP PUSH32 0x27171FB4A97B6CC0E9E8F543B5294DE866A2AF2C9C8D0B1D96E673E4529ED540 SWAP2 SWAP1 POP JUMP JUMPDEST DUP2 PUSH1 0x19 SUB PUSH3 0x662 JUMPI POP PUSH32 0x2FF6650540F629FD5711A0BC74FC0D28DCB230B9392583E5F8D59696DDE6AE21 SWAP2 SWAP1 POP JUMP JUMPDEST DUP2 PUSH1 0x1A SUB PUSH3 0x692 JUMPI POP PUSH32 0x120C58F143D491E95902F7F5277778A2E0AD5168F6ADD75669932630CE611518 SWAP2 SWAP1 POP JUMP JUMPDEST DUP2 PUSH1 0x1B SUB PUSH3 0x6C2 JUMPI POP PUSH32 0x1F21FEB70D3F21B07BF853D5E5DB03071EC495A0A565A21DA2D665D279483795 SWAP2 SWAP1 POP JUMP JUMPDEST DUP2 PUSH1 0x1C SUB PUSH3 0x6F2 JUMPI POP PUSH32 0x24BE905FA71335E14C638CC0F66A8623A826E768068A9E968BB1A1DDE18A72D2 SWAP2 SWAP1 POP JUMP JUMPDEST DUP2 PUSH1 0x1D SUB PUSH3 0x722 JUMPI POP PUSH32 0xF8666B62ED17491C50CEADEAD57D4CD597EF3821D65C328744C74E553DAC26D SWAP2 SWAP1 POP JUMP JUMPDEST DUP2 PUSH1 0x1E SUB PUSH3 0x752 JUMPI POP PUSH32 0x918D46BF52D98B034413F4A1A1C41594E7A7A3F6AE08CB43D1A2A230E1959EF SWAP2 SWAP1 POP JUMP JUMPDEST DUP2 PUSH1 0x1F SUB PUSH3 0x782 JUMPI POP PUSH32 0x1BBEB01B4C479ECDE76917645E404DFA2E26F90D0AFC5A65128513AD375C5FF2 SWAP2 SWAP1 POP JUMP JUMPDEST DUP2 PUSH1 0x20 SUB PUSH3 0x7B2 JUMPI POP PUSH32 0x2F68A1C58E257E42A17A6C61DFF5551ED560B9922AB119D5AC8E184C9734EAD9 SWAP2 SWAP1 POP JUMP JUMPDEST DUP2 PUSH1 0x21 SUB PUSH3 0x7E2 JUMPI POP PUSH32 0x1102D2F8DB05E4AF4842E8AD3D85ED45EB28447EB7212235A2281D5AB5D81D11 SWAP2 SWAP1 POP JUMP JUMPDEST PUSH1 0x40 MLOAD PUSH3 0x461BCD PUSH1 0xE5 SHL DUP2 MSTORE PUSH1 0x20 PUSH1 0x4 DUP3 ADD MSTORE PUSH1 0x13 PUSH1 0x24 DUP3 ADD MSTORE PUSH32 0x496E646578206F7574206F6620626F756E647300000000000000000000000000 PUSH1 0x44 DUP3 ADD MSTORE PUSH1 0x64 ADD PUSH3 0xA1 JUMP JUMPDEST PUSH0 PUSH1 0x20 DUP3 DUP5 SUB SLT ISZERO PUSH3 0x83C JUMPI PUSH0 DUP1 REVERT JUMPDEST DUP2 MLOAD PUSH4 0xFFFFFFFF DUP2 AND DUP2 EQ PUSH3 0x850 JUMPI PUSH0 DUP1 REVERT JUMPDEST SWAP4 SWAP3 POP POP POP JUMP JUMPDEST PUSH2 0x91E DUP1 PUSH3 0x865 PUSH0 CODECOPY PUSH0 RETURN INVALID PUSH1 0x80 PUSH1 0x40 MSTORE CALLVALUE DUP1 ISZERO PUSH2 0xF JUMPI PUSH0 DUP1 REVERT JUMPDEST POP PUSH1 0x4 CALLDATASIZE LT PUSH2 0x90 JUMPI PUSH0 CALLDATALOAD PUSH1 0xE0 SHR DUP1 PUSH4 0xC2B40AE4 GT PUSH2 0x63 JUMPI DUP1 PUSH4 0xC2B40AE4 EQ PUSH2 0x10A JUMPI DUP1 PUSH4 0xCD87A3B4 EQ PUSH2 0x129 JUMPI DUP1 PUSH4 0xE8295588 EQ PUSH2 0x131 JUMPI DUP1 PUSH4 0xF178E47C EQ PUSH2 0x144 JUMPI DUP1 PUSH4 0xFC7E9C6F EQ PUSH2 0x163 JUMPI PUSH0 DUP1 REVERT JUMPDEST DUP1 PUSH4 0x4ECF518B EQ PUSH2 0x94 JUMPI DUP1 PUSH4 0x5BB93995 EQ PUSH2 0xBD JUMPI DUP1 PUSH4 0x90EEB02B EQ PUSH2 0xDE JUMPI DUP1 PUSH4 0xBA70F757 EQ PUSH2 0xEE JUMPI JUMPDEST PUSH0 DUP1 REVERT JUMPDEST PUSH0 SLOAD PUSH2 0xA3 SWAP1 PUSH4 0xFFFFFFFF AND DUP2 JUMP JUMPDEST PUSH1 0x40 MLOAD PUSH4 0xFFFFFFFF SWAP1 SWAP2 AND DUP2 MSTORE PUSH1 0x20 ADD JUMPDEST PUSH1 0x40 MLOAD DUP1 SWAP2 SUB SWAP1 RETURN JUMPDEST PUSH2 0xD0 PUSH2 0xCB CALLDATASIZE PUSH1 0x4 PUSH2 0x86A JUMP JUMPDEST PUSH2 0x17B JUMP JUMPDEST PUSH1 0x40 MLOAD SWAP1 DUP2 MSTORE PUSH1 0x20 ADD PUSH2 0xB4 JUMP JUMPDEST PUSH1 0x3 SLOAD PUSH2 0xA3 SWAP1 PUSH4 0xFFFFFFFF AND DUP2 JUMP JUMPDEST PUSH1 0x3 SLOAD PUSH4 0xFFFFFFFF AND PUSH0 SWAP1 DUP2 MSTORE PUSH1 0x2 PUSH1 0x20 MSTORE PUSH1 0x40 SWAP1 KECCAK256 SLOAD PUSH2 0xD0 JUMP JUMPDEST PUSH2 0xD0 PUSH2 0x118 CALLDATASIZE PUSH1 0x4 PUSH2 0x88A JUMP JUMPDEST PUSH1 0x2 PUSH1 0x20 MSTORE PUSH0 SWAP1 DUP2 MSTORE PUSH1 0x40 SWAP1 KECCAK256 SLOAD DUP2 JUMP JUMPDEST PUSH2 0xA3 PUSH1 0x1E DUP2 JUMP JUMPDEST PUSH2 0xD0 PUSH2 0x13F CALLDATASIZE PUSH1 0x4 PUSH2 0x88A JUMP JUMPDEST PUSH2 0x20A JUMP JUMPDEST PUSH2 0xD0 PUSH2 0x152 CALLDATASIZE PUSH1 0x4 PUSH2 0x88A JUMP JUMPDEST PUSH1 0x1 PUSH1 0x20 MSTORE PUSH0 SWAP1 DUP2 MSTORE PUSH1 0x40 SWAP1 KECCAK256 SLOAD DUP2 JUMP JUMPDEST PUSH1 0x3 SLOAD PUSH2 0xA3 SWAP1 PUSH5 0x100000000 SWAP1 DIV PUSH4 0xFFFFFFFF AND DUP2 JUMP JUMPDEST PUSH1 0x40 DUP1 MLOAD DUP1 DUP3 ADD DUP3 MSTORE DUP4 DUP2 MSTORE PUSH1 0x20 DUP2 ADD DUP4 SWAP1 MSTORE SWAP1 MLOAD PUSH4 0x2B0AAC7F PUSH1 0xE1 SHL DUP2 MSTORE PUSH0 SWAP2 PUSH20 0x0 SWAP2 PUSH4 0x561558FE SWAP2 PUSH2 0x1C4 SWAP2 PUSH1 0x4 ADD PUSH2 0x8A1 JUMP JUMPDEST PUSH1 0x20 PUSH1 0x40 MLOAD DUP1 DUP4 SUB DUP2 DUP7 GAS DELEGATECALL ISZERO DUP1 ISZERO PUSH2 0x1DF JUMPI RETURNDATASIZE PUSH0 DUP1 RETURNDATACOPY RETURNDATASIZE PUSH0 REVERT JUMPDEST POP POP POP POP PUSH1 0x40 MLOAD RETURNDATASIZE PUSH1 0x1F NOT PUSH1 0x1F DUP3 ADD AND DUP3 ADD DUP1 PUSH1 0x40 MSTORE POP DUP2 ADD SWAP1 PUSH2 0x203 SWAP2 SWAP1 PUSH2 0x8D1 JUMP JUMPDEST SWAP4 SWAP3 POP POP POP JUMP JUMPDEST PUSH0 DUP2 PUSH0 SUB PUSH2 0x219 JUMPI POP PUSH0 SWAP2 SWAP1 POP JUMP JUMPDEST DUP2 PUSH1 0x1 SUB PUSH2 0x248 JUMPI POP PUSH32 0x2098F5FB9E239EAB3CEAC3F27B81E481DC3124D55FFED523A839EE8446B64864 SWAP2 SWAP1 POP JUMP JUMPDEST DUP2 PUSH1 0x2 SUB PUSH2 0x277 JUMPI POP PUSH32 0x1069673DCDB12263DF301A6FF584A7EC261A44CB9DC68DF067A4774460B1F1E1 SWAP2 SWAP1 POP JUMP JUMPDEST DUP2 PUSH1 0x3 SUB PUSH2 0x2A6 JUMPI POP PUSH32 0x18F43331537EE2AF2E3D758D50F72106467C6EEA50371DD528D57EB2B856D238 SWAP2 SWAP1 POP JUMP JUMPDEST DUP2 PUSH1 0x4 SUB PUSH2 0x2D5 JUMPI POP PUSH32 0x7F9D837CB17B0D36320FFE93BA52345F1B728571A568265CAAC97559DBC952A SWAP2 SWAP1 POP JUMP JUMPDEST DUP2 PUSH1 0x5 SUB PUSH2 0x304 JUMPI POP PUSH32 0x2B94CF5E8746B3F5C9631F4C5DF32907A699C58C94B2AD4D7B5CEC1639183F55 SWAP2 SWAP1 POP JUMP JUMPDEST DUP2 PUSH1 0x6 SUB PUSH2 0x333 JUMPI POP PUSH32 0x2DEE93C5A666459646EA7D22CCA9E1BCFED71E6951B953611D11DDA32EA09D78 SWAP2 SWAP1 POP JUMP JUMPDEST DUP2 PUSH1 0x7 SUB PUSH2 0x362 JUMPI POP PUSH32 0x78295E5A22B84E982CF601EB639597B8B0515A88CB5AC7FA8A4AABE3C87349D SWAP2 SWAP1 POP JUMP JUMPDEST DUP2 PUSH1 0x8 SUB PUSH2 0x391 JUMPI POP PUSH32 0x2FA5E5F18F6027A6501BEC864564472A616B2E274A41211A444CBE3A99F3CC61 SWAP2 SWAP1 POP JUMP JUMPDEST DUP2 PUSH1 0x9 SUB PUSH2 0x3C0 JUMPI POP PUSH32 0xE884376D0D8FD21ECB780389E941F66E45E7ACCE3E228AB3E2156A614FCD747 SWAP2 SWAP1 POP JUMP JUMPDEST DUP2 PUSH1 0xA SUB PUSH2 0x3EF JUMPI POP PUSH32 0x1B7201DA72494F1E28717AD1A52EB469F95892F957713533DE6175E5DA190AF2 SWAP2 SWAP1 POP JUMP JUMPDEST DUP2 PUSH1 0xB SUB PUSH2 0x41E JUMPI POP PUSH32 0x1F8D8822725E36385200C0B201249819A6E6E1E4650808B5BEBC6BFACE7D7636 SWAP2 SWAP1 POP JUMP JUMPDEST DUP2 PUSH1 0xC SUB PUSH2 0x44D JUMPI POP PUSH32 0x2C5D82F66C914BAFB9701589BA8CFCFB6162B0A12ACF88A8D0879A0471B5F85A SWAP2 SWAP1 POP JUMP JUMPDEST DUP2 PUSH1 0xD SUB PUSH2 0x47C JUMPI POP PUSH32 0x14C54148A0940BB820957F5ADF3FA1134EF5C4AAA113F4646458F270E0BFBFD0 SWAP2 SWAP1 POP JUMP JUMPDEST DUP2 PUSH1 0xE SUB PUSH2 0x4AB JUMPI POP PUSH32 0x190D33B12F986F961E10C0EE44D8B9AF11BE25588CAD89D416118E4BF4EBE80C SWAP2 SWAP1 POP JUMP JUMPDEST DUP2 PUSH1 0xF SUB PUSH2 0x4DA JUMPI POP PUSH32 0x22F98AA9CE704152AC17354914AD73ED1167AE6596AF510AA5B3649325E06C92 SWAP2 SWAP1 POP JUMP JUMPDEST DUP2 PUSH1 0x10 SUB PUSH2 0x509 JUMPI POP PUSH32 0x2A7C7C9B6CE5880B9F6F228D72BF6A575A526F29C66ECCEEF8B753D38BBA7323 SWAP2 SWAP1 POP JUMP JUMPDEST DUP2 PUSH1 0x11 SUB PUSH2 0x538 JUMPI POP PUSH32 0x2E8186E558698EC1C67AF9C14D463FFC470043C9C2988B954D75DD643F36B992 SWAP2 SWAP1 POP JUMP JUMPDEST DUP2 PUSH1 0x12 SUB PUSH2 0x567 JUMPI POP PUSH32 0xF57C5571E9A4EAB49E2C8CF050DAE948AEF6EAD647392273546249D1C1FF10F SWAP2 SWAP1 POP JUMP JUMPDEST DUP2 PUSH1 0x13 SUB PUSH2 0x596 JUMPI POP PUSH32 0x1830EE67B5FB554AD5F63D4388800E1CFE78E310697D46E43C9CE36134F72CCA SWAP2 SWAP1 POP JUMP JUMPDEST DUP2 PUSH1 0x14 SUB PUSH2 0x5C5 JUMPI POP PUSH32 0x2134E76AC5D21AAB186C2BE1DD8F84EE880A1E46EAF712F9D371B6DF22191F3E SWAP2 SWAP1 POP JUMP JUMPDEST DUP2 PUSH1 0x15 SUB PUSH2 0x5F4 JUMPI POP PUSH32 0x19DF90EC844EBC4FFEEBD866F33859B0C051D8C958EE3AA88F8F8DF3DB91A5B1 SWAP2 SWAP1 POP JUMP JUMPDEST DUP2 PUSH1 0x16 SUB PUSH2 0x623 JUMPI POP PUSH32 0x18CCA2A66B5C0787981E69AEFD84852D74AF0E93EF4912B4648C05F722EFE52B SWAP2 SWAP1 POP JUMP JUMPDEST DUP2 PUSH1 0x17 SUB PUSH2 0x652 JUMPI POP PUSH32 0x2388909415230D1B4D1304D2D54F473A628338F2EFAD83FADF05644549D2538D SWAP2 SWAP1 POP JUMP JUMPDEST DUP2 PUSH1 0x18 SUB PUSH2 0x681 JUMPI POP PUSH32 0x27171FB4A97B6CC0E9E8F543B5294DE866A2AF2C9C8D0B1D96E673E4529ED540 SWAP2 SWAP1 POP JUMP JUMPDEST DUP2 PUSH1 0x19 SUB PUSH2 0x6B0 JUMPI POP PUSH32 0x2FF6650540F629FD5711A0BC74FC0D28DCB230B9392583E5F8D59696DDE6AE21 SWAP2 SWAP1 POP JUMP JUMPDEST DUP2 PUSH1 0x1A SUB PUSH2 0x6DF JUMPI POP PUSH32 0x120C58F143D491E95902F7F5277778A2E0AD5168F6ADD75669932630CE611518 SWAP2 SWAP1 POP JUMP JUMPDEST DUP2 PUSH1 0x1B SUB PUSH2 0x70E JUMPI POP PUSH32 0x1F21FEB70D3F21B07BF853D5E5DB03071EC495A0A565A21DA2D665D279483795 SWAP2 SWAP1 POP JUMP JUMPDEST DUP2 PUSH1 0x1C SUB PUSH2 0x73D JUMPI POP PUSH32 0x24BE905FA71335E14C638CC0F66A8623A826E768068A9E968BB1A1DDE18A72D2 SWAP2 SWAP1 POP JUMP JUMPDEST DUP2 PUSH1 0x1D SUB PUSH2 0x76C JUMPI POP PUSH32 0xF8666B62ED17491C50CEADEAD57D4CD597EF3821D65C328744C74E553DAC26D SWAP2 SWAP1 POP JUMP JUMPDEST DUP2 PUSH1 0x1E SUB PUSH2 0x79B JUMPI POP PUSH32 0x918D46BF52D98B034413F4A1A1C41594E7A7A3F6AE08CB43D1A2A230E1959EF SWAP2 SWAP1 POP JUMP JUMPDEST DUP2 PUSH1 0x1F SUB PUSH2 0x7CA JUMPI POP PUSH32 0x1BBEB01B4C479ECDE76917645E404DFA2E26F90D0AFC5A65128513AD375C5FF2 SWAP2 SWAP1 POP JUMP JUMPDEST DUP2 PUSH1 0x20 SUB PUSH2 0x7F9 JUMPI POP PUSH32 0x2F68A1C58E257E42A17A6C61DFF5551ED560B9922AB119D5AC8E184C9734EAD9 SWAP2 SWAP1 POP JUMP JUMPDEST DUP2 PUSH1 0x21 SUB PUSH2 0x828 JUMPI POP PUSH32 0x1102D2F8DB05E4AF4842E8AD3D85ED45EB28447EB7212235A2281D5AB5D81D11 SWAP2 SWAP1 POP JUMP JUMPDEST PUSH1 0x40 MLOAD PUSH3 0x461BCD PUSH1 0xE5 SHL DUP2 MSTORE PUSH1 0x20 PUSH1 0x4 DUP3 ADD MSTORE PUSH1 0x13 PUSH1 0x24 DUP3 ADD MSTORE PUSH19 0x496E646578206F7574206F6620626F756E6473 PUSH1 0x68 SHL PUSH1 0x44 DUP3 ADD MSTORE PUSH1 0x64 ADD PUSH1 0x40 MLOAD DUP1 SWAP2 SUB SWAP1 REVERT JUMPDEST PUSH0 DUP1 PUSH1 0x40 DUP4 DUP6 SUB SLT ISZERO PUSH2 0x87B JUMPI PUSH0 DUP1 REVERT JUMPDEST POP POP DUP1 CALLDATALOAD SWAP3 PUSH1 0x20 SWAP1 SWAP2 ADD CALLDATALOAD SWAP2 POP JUMP JUMPDEST PUSH0 PUSH1 0x20 DUP3 DUP5 SUB SLT ISZERO PUSH2 0x89A JUMPI PUSH0 DUP1 REVERT JUMPDEST POP CALLDATALOAD SWAP2 SWAP1 POP JUMP JUMPDEST PUSH1 0x40 DUP2 ADD DUP2 DUP4 PUSH0 JUMPDEST PUSH1 0x2 DUP2 LT ISZERO PUSH2 0x8C8 JUMPI DUP2 MLOAD DUP4 MSTORE PUSH1 0x20 SWAP3 DUP4 ADD SWAP3 SWAP1 SWAP2 ADD SWAP1 PUSH1 0x1 ADD PUSH2 0x8A9 JUMP JUMPDEST POP POP POP SWAP3 SWAP2 POP POP JUMP JUMPDEST PUSH0 PUSH1 0x20 DUP3 DUP5 SUB SLT ISZERO PUSH2 0x8E1 JUMPI PUSH0 DUP1 REVERT JUMPDEST POP MLOAD SWAP2 SWAP1 POP JUMP INVALID LOG2 PUSH5 0x6970667358 0x22 SLT KECCAK256 OR DUP6 SWAP7 SIGNEXTEND 0xCF 0x2D 0x2A 0xE7 JUMPDEST 0xE3 0xEE PUSH28 0xE281CB865178BC30330D775E1BDBA2263674C97064736F6C63430008 OR STOP CALLER "},"methodIdentifiers":{"ROOT_HISTORY_SIZE()":"cd87a3b4","currentRootIndex()":"90eeb02b","filledSubtrees(uint256)":"f178e47c","getLastRoot()":"ba70f757","hashLeftRight(uint256,uint256)":"5bb93995","levels()":"4ecf518b","nextIndex()":"fc7e9c6f","roots(uint256)":"c2b40ae4","zeros(uint256)":"e8295588"}}}}}