{
  "_format": "hh-sol-artifact-1",
  "contractName": "L2SLOADmock",
  "sourceName": "contracts/test/L2SLOADmock.sol",
  "abi": [
    {
      "inputs": [],
      "stateMutability": "nonpayable",
      "type": "constructor"
    },
    {
      "stateMutability": "nonpayable",
      "type": "fallback"
    },
    {
      "inputs": [],
      "name": "hi",
      "outputs": [
        {
          "internalType": "uint256",
          "name": "",
          "type": "uint256"
        }
      ],
      "stateMutability": "view",
      "type": "function"
    },
    {
      "inputs": [
        {
          "internalType": "address",
          "name": "",
          "type": "address"
        },
        {
          "internalType": "uint256",
          "name": "",
          "type": "uint256"
        }
      ],
      "name": "mockedSlots",
      "outputs": [
        {
          "internalType": "bytes",
          "name": "",
          "type": "bytes"
        }
      ],
      "stateMutability": "view",
      "type": "function"
    },
    {
      "inputs": [
        {
          "internalType": "address",
          "name": "l1ContactAddr",
          "type": "address"
        },
        {
          "internalType": "uint256",
          "name": "slot",
          "type": "uint256"
        }
      ],
      "name": "readMockedSlot",
      "outputs": [
        {
          "internalType": "bytes",
          "name": "",
          "type": "bytes"
        }
      ],
      "stateMutability": "view",
      "type": "function"
    },
    {
      "inputs": [
        {
          "internalType": "address",
          "name": "l1ContactAddr",
          "type": "address"
        },
        {
          "internalType": "uint256",
          "name": "slot",
          "type": "uint256"
        },
        {
          "internalType": "bytes",
          "name": "value",
          "type": "bytes"
        }
      ],
      "name": "setMockedSlot",
      "outputs": [],
      "stateMutability": "nonpayable",
      "type": "function"
    }
  ],
  "bytecode": "0x608060405234801561000f575f80fd5b506104f28061001d5f395ff3fe608060405234801561000f575f80fd5b506004361061004a575f3560e01c8063540811ed1461007757806373475633146100a05780637693efb6146100b5578063a99dca3f146100c8575b5f366060828061005a8482610275565b909250905061006982826100d8565b805195506020019350505050f35b61008a610085366004610275565b6100d8565b604051610097919061029f565b60405180910390f35b6100b36100ae3660046102eb565b61018d565b005b61008a6100c3366004610275565b6101bf565b6040516101a48152602001610097565b6001600160a01b0382165f908152602081815260408083208484529091528120805460609291906101089061036d565b80601f01602080910402602001604051908101604052809291908181526020018280546101349061036d565b801561017f5780601f106101565761010080835404028352916020019161017f565b820191905f5260205f20905b81548152906001019060200180831161016257829003601f168201915b509398975050505050505050565b6001600160a01b0384165f9081526020818152604080832086845290915290206101b8828483610402565b5050505050565b5f602081815292815260408082209093529081522080546101df9061036d565b80601f016020809104026020016040519081016040528092919081815260200182805461020b9061036d565b80156102565780601f1061022d57610100808354040283529160200191610256565b820191905f5260205f20905b81548152906001019060200180831161023957829003601f168201915b505050505081565b6001600160a01b0381168114610272575f80fd5b50565b5f8060408385031215610286575f80fd5b82356102918161025e565b946020939093013593505050565b5f602080835283518060208501525f5b818110156102cb578581018301518582016040015282016102af565b505f604082860101526040601f19601f8301168501019250505092915050565b5f805f80606085870312156102fe575f80fd5b84356103098161025e565b935060208501359250604085013567ffffffffffffffff8082111561032c575f80fd5b818701915087601f83011261033f575f80fd5b81358181111561034d575f80fd5b88602082850101111561035e575f80fd5b95989497505060200194505050565b600181811c9082168061038157607f821691505b60208210810361039f57634e487b7160e01b5f52602260045260245ffd5b50919050565b634e487b7160e01b5f52604160045260245ffd5b601f8211156103fd57805f5260205f20601f840160051c810160208510156103de5750805b601f840160051c820191505b818110156101b8575f81556001016103ea565b505050565b67ffffffffffffffff83111561041a5761041a6103a5565b61042e83610428835461036d565b836103b9565b5f601f84116001811461045f575f85156104485750838201355b5f19600387901b1c1916600186901b1783556101b8565b5f83815260208120601f198716915b8281101561048e578685013582556020948501946001909201910161046e565b50868210156104aa575f1960f88860031b161c19848701351681555b505060018560011b018355505050505056fea26469706673582212209c907c1a6847bbe4eeb1f5aa9fa24e842ef86dd6da8b7cdee171f41558e980e564736f6c63430008170033",
  "linkReferences": {},
  "deployedLinkReferences": {}
}