{
  "_format": "hh-sol-artifact-1",
  "contractName": "ToadnadoL1",
  "sourceName": "contracts/ToadnadoL1.sol",
  "abi": [
    {
      "inputs": [
        {
          "internalType": "address",
          "name": "_verifier",
          "type": "address"
        },
        {
          "internalType": "uint256",
          "name": "_denomination",
          "type": "uint256"
        },
        {
          "internalType": "uint32",
          "name": "_merkleTreeHeight",
          "type": "uint32"
        }
      ],
      "stateMutability": "nonpayable",
      "type": "constructor"
    },
    {
      "inputs": [],
      "name": "ReentrancyGuardReentrantCall",
      "type": "error"
    },
    {
      "inputs": [],
      "name": "VerificationFailed",
      "type": "error"
    },
    {
      "anonymous": false,
      "inputs": [
        {
          "indexed": true,
          "internalType": "bytes32",
          "name": "commitment",
          "type": "bytes32"
        },
        {
          "indexed": false,
          "internalType": "uint32",
          "name": "leafIndex",
          "type": "uint32"
        },
        {
          "indexed": false,
          "internalType": "uint256",
          "name": "timestamp",
          "type": "uint256"
        }
      ],
      "name": "Deposit",
      "type": "event"
    },
    {
      "anonymous": false,
      "inputs": [
        {
          "indexed": false,
          "internalType": "address",
          "name": "recipient",
          "type": "address"
        },
        {
          "indexed": false,
          "internalType": "bytes32",
          "name": "nullifier",
          "type": "bytes32"
        }
      ],
      "name": "Withdrawal",
      "type": "event"
    },
    {
      "inputs": [],
      "name": "ROOT_HISTORY_SIZE",
      "outputs": [
        {
          "internalType": "uint32",
          "name": "",
          "type": "uint32"
        }
      ],
      "stateMutability": "view",
      "type": "function"
    },
    {
      "inputs": [
        {
          "internalType": "bytes32",
          "name": "_root",
          "type": "bytes32"
        },
        {
          "internalType": "bytes32",
          "name": "_nullifier",
          "type": "bytes32"
        },
        {
          "internalType": "address",
          "name": "_recipient",
          "type": "address"
        }
      ],
      "name": "_formatPublicInputs",
      "outputs": [
        {
          "internalType": "bytes32[]",
          "name": "",
          "type": "bytes32[]"
        }
      ],
      "stateMutability": "pure",
      "type": "function"
    },
    {
      "inputs": [],
      "name": "adminWithdraw",
      "outputs": [],
      "stateMutability": "payable",
      "type": "function"
    },
    {
      "inputs": [
        {
          "internalType": "uint256",
          "name": "",
          "type": "uint256"
        }
      ],
      "name": "commitmentLeafs",
      "outputs": [
        {
          "internalType": "bytes32",
          "name": "",
          "type": "bytes32"
        }
      ],
      "stateMutability": "view",
      "type": "function"
    },
    {
      "inputs": [
        {
          "internalType": "bytes32",
          "name": "",
          "type": "bytes32"
        }
      ],
      "name": "commitments",
      "outputs": [
        {
          "internalType": "bool",
          "name": "",
          "type": "bool"
        }
      ],
      "stateMutability": "view",
      "type": "function"
    },
    {
      "inputs": [
        {
          "internalType": "bytes32",
          "name": "",
          "type": "bytes32"
        }
      ],
      "name": "commitmentsTreeRoots",
      "outputs": [
        {
          "internalType": "bool",
          "name": "",
          "type": "bool"
        }
      ],
      "stateMutability": "view",
      "type": "function"
    },
    {
      "inputs": [],
      "name": "currentRootIndex",
      "outputs": [
        {
          "internalType": "uint32",
          "name": "",
          "type": "uint32"
        }
      ],
      "stateMutability": "view",
      "type": "function"
    },
    {
      "inputs": [],
      "name": "denomination",
      "outputs": [
        {
          "internalType": "uint256",
          "name": "",
          "type": "uint256"
        }
      ],
      "stateMutability": "view",
      "type": "function"
    },
    {
      "inputs": [
        {
          "internalType": "bytes32",
          "name": "_commitment",
          "type": "bytes32"
        }
      ],
      "name": "deposit",
      "outputs": [],
      "stateMutability": "payable",
      "type": "function"
    },
    {
      "inputs": [
        {
          "internalType": "uint256",
          "name": "",
          "type": "uint256"
        }
      ],
      "name": "filledSubtrees",
      "outputs": [
        {
          "internalType": "bytes32",
          "name": "",
          "type": "bytes32"
        }
      ],
      "stateMutability": "view",
      "type": "function"
    },
    {
      "inputs": [],
      "name": "getLastRoot",
      "outputs": [
        {
          "internalType": "bytes32",
          "name": "",
          "type": "bytes32"
        }
      ],
      "stateMutability": "view",
      "type": "function"
    },
    {
      "inputs": [
        {
          "internalType": "bytes32",
          "name": "_left",
          "type": "bytes32"
        },
        {
          "internalType": "bytes32",
          "name": "_right",
          "type": "bytes32"
        }
      ],
      "name": "hashLeftRight",
      "outputs": [
        {
          "internalType": "bytes32",
          "name": "",
          "type": "bytes32"
        }
      ],
      "stateMutability": "pure",
      "type": "function"
    },
    {
      "inputs": [
        {
          "internalType": "bytes32",
          "name": "_root",
          "type": "bytes32"
        }
      ],
      "name": "isKnownRoot",
      "outputs": [
        {
          "internalType": "bool",
          "name": "",
          "type": "bool"
        }
      ],
      "stateMutability": "view",
      "type": "function"
    },
    {
      "inputs": [
        {
          "internalType": "bytes32",
          "name": "_nullifierHash",
          "type": "bytes32"
        }
      ],
      "name": "isSpent",
      "outputs": [
        {
          "internalType": "bool",
          "name": "",
          "type": "bool"
        }
      ],
      "stateMutability": "view",
      "type": "function"
    },
    {
      "inputs": [
        {
          "internalType": "bytes32[]",
          "name": "_nullifierHashes",
          "type": "bytes32[]"
        }
      ],
      "name": "isSpentArray",
      "outputs": [
        {
          "internalType": "bool[]",
          "name": "spent",
          "type": "bool[]"
        }
      ],
      "stateMutability": "view",
      "type": "function"
    },
    {
      "inputs": [],
      "name": "levels",
      "outputs": [
        {
          "internalType": "uint32",
          "name": "",
          "type": "uint32"
        }
      ],
      "stateMutability": "view",
      "type": "function"
    },
    {
      "inputs": [],
      "name": "nextIndex",
      "outputs": [
        {
          "internalType": "uint32",
          "name": "",
          "type": "uint32"
        }
      ],
      "stateMutability": "view",
      "type": "function"
    },
    {
      "inputs": [
        {
          "internalType": "bytes32",
          "name": "",
          "type": "bytes32"
        }
      ],
      "name": "nullifiers",
      "outputs": [
        {
          "internalType": "bool",
          "name": "",
          "type": "bool"
        }
      ],
      "stateMutability": "view",
      "type": "function"
    },
    {
      "inputs": [
        {
          "internalType": "uint256",
          "name": "",
          "type": "uint256"
        }
      ],
      "name": "roots",
      "outputs": [
        {
          "internalType": "bytes32",
          "name": "",
          "type": "bytes32"
        }
      ],
      "stateMutability": "view",
      "type": "function"
    },
    {
      "inputs": [],
      "name": "verifier",
      "outputs": [
        {
          "internalType": "address",
          "name": "",
          "type": "address"
        }
      ],
      "stateMutability": "view",
      "type": "function"
    },
    {
      "inputs": [
        {
          "internalType": "bytes32",
          "name": "_root",
          "type": "bytes32"
        },
        {
          "internalType": "bytes32",
          "name": "_nullifier",
          "type": "bytes32"
        },
        {
          "internalType": "address payable",
          "name": "_recipient",
          "type": "address"
        },
        {
          "internalType": "bytes",
          "name": "snarkProof",
          "type": "bytes"
        }
      ],
      "name": "withdraw",
      "outputs": [],
      "stateMutability": "payable",
      "type": "function"
    },
    {
      "inputs": [
        {
          "internalType": "uint256",
          "name": "i",
          "type": "uint256"
        }
      ],
      "name": "zeros",
      "outputs": [
        {
          "internalType": "bytes32",
          "name": "",
          "type": "bytes32"
        }
      ],
      "stateMutability": "pure",
      "type": "function"
    }
  ],
  "bytecode": "0x6080604052600480546001600160401b031916905534801562000020575f80fd5b506040516200224a3803806200224a8339810160408190526200004391620008d0565b828282805f8163ffffffff1611620000ae5760405162461bcd60e51b815260206004820152602360248201527f5f6c6576656c732073686f756c642062652067726561746572207468616e207a60448201526265726f60e81b60648201526084015b60405180910390fd5b60148163ffffffff1610620001065760405162461bcd60e51b815260206004820152601e60248201527f5f6c6576656c732073686f756c64206265206c657373207468616e20323000006044820152606401620000a5565b5f805463ffffffff191663ffffffff83161781555b8163ffffffff168163ffffffff1610156200015f576200014163ffffffff82166200027d565b63ffffffff82165f908152600260205260409020556001016200011b565b506200017d620001716001836200093a565b63ffffffff166200027d565b5f805260036020527f3617319a054d772f909f7c479a2cebe5066e836a939412e32403c99029b92eff55506001600555816200020a5760405162461bcd60e51b815260206004820152602560248201527f64656e6f6d696e6174696f6e2073686f756c6420626520677265617465722074604482015264068616e20360dc1b6064820152608401620000a5565b600780546001600160a01b0319166001600160a01b03851617905560068290555f620002376001620006b6565b505060015f81905260096020527f92e85d02570a8092d09a6e3a57665bc3815a2699a4074001bf1ccabf660f5a36805460ff191690911790555062000b2b945050505050565b5f815f03620002ad57507f2fe54c60d3acabf3343a35b6eba15db4821b340f76e741e2249685ed4899af6c919050565b81600103620002dd57507f4fc2fe9184a25f44ce8ddb5f32671fcae6d9c85ed710c199acef16ad16b29911919050565b816002036200030d57507f0d826a474f851c563052d929ef0daa70f658aba9ba084f51f6e3483c13c0e59a919050565b816003036200033d57507ff7761a16b5e4c0120e4c5704b910dbe18ff6162a9668ed1c2c4efde7c4f15806919050565b816004036200036d57507fce9ce09a0ab259d6d14ca3dcd74e6c6b9e7d9074bff66973d4c57ccdffdb2a82919050565b816005036200039d57507f02efd44c63015ff1385344e0624867775486d05e6eb1290a24976964a598003b919050565b81600603620003cd57507fc4dec5845d407ce2ac2e6824bb7857c4b138f819e5789d5d11e812db10c846cd919050565b81600703620003fd57507f5fbe3f20c23f3bd6ac347917fb0903433e0b9a48373412348240a5f919bfde19919050565b816008036200042d57507f92d1b07e56b3da96b7917778cb657f2c513eaeeb4d1579a73b5ea316f25b7289919050565b816009036200045d57507fa08add5656d6d3d0827ef909f7647981eac42aa1f51970a752f130f718f6d76a919050565b81600a036200048d57507f1704c5f297590d8ec62776b0714f4f3f2234bae0524035342b0da8b8988ebd79919050565b81600b03620004bd57507fc5ae2bd47379c2c6d1189cfc3d057948dc6054caf845fcacd8f7affe94b11944919050565b81600c03620004ed57507f12a161d6d5561062f387d91ad9f0f8966c0956afdb9e8325458b9e5057b82bdb919050565b81600d036200051d57507f4ade524ba596de20bbe94507a761c45251ae7a27857ceb4287d9018525b99bc5919050565b81600e036200054d57507f38287ad69151fa833bf4bf8b8eb6ffb39400a38f1a7e53b473f639c8c60fd5e4919050565b81600f036200057d57507f57f2ade7d711707e785451f2aba6c95872c7fe03153a98b7327b4024e8068fa3919050565b81601003620005ad57507fb1982e0d1b0de46a88d8b17941472e41a86d3ff64571ed8e0ca72d58633547fc919050565b81601103620005dd57507fb7c60f8670af15eb32b4ee36727179bc085a3dde03d5f9a1486664ba576b30a6919050565b816012036200060d57507f5ff905c5c659a926b132ef3665a3de5d5a859c1d479e68851085bfc0348c5331919050565b816013036200063d57507fb4dfa78b912e98c9f7eb42d71eb537a02bf3173d44a2eb887a48b3972072dd8e919050565b816014036200066d57507f60919a16a2eb8b91cfb8ba1e5b4c155a76a14c217b5403edbd563f34e508ecdc919050565b60405162461bcd60e51b815260206004820152601360248201527f496e646578206f7574206f6620626f756e6473000000000000000000000000006044820152606401620000a5565b6004545f8054909163ffffffff640100000000909104811691620006dd9116600262000a8f565b63ffffffff168163ffffffff1603620007525760405162461bcd60e51b815260206004820152603060248201527f4d65726b6c6520747265652069732066756c6c2e204e6f206d6f7265206c656160448201526f1d995cc818d85b88189948185919195960821b6064820152608401620000a5565b80835f80805b5f5463ffffffff9081169082161015620007fa576200077960028662000ac1565b63ffffffff165f03620007b9578392506200079a63ffffffff82166200027d565b63ffffffff82165f9081526002602052604090208590559150620007d4565b63ffffffff81165f9081526002602052604090205492508391505b620007e08383620008a1565b9350620007ef60028662000ae6565b945060010162000758565b506004545f90601e90620008169063ffffffff16600162000b0b565b62000822919062000ac1565b6004805463ffffffff191663ffffffff8381169182179092555f908152600360209081526040808320899055928a1682526001908190529190208a90559091506200086f90879062000b0b565b6004805463ffffffff929092166401000000000263ffffffff60201b1990921691909117905550939695505050505050565b604080516020808201859052818301849052825180830384018152606090920190925280519101205b92915050565b5f805f60608486031215620008e3575f80fd5b83516001600160a01b0381168114620008fa575f80fd5b60208501516040860151919450925063ffffffff811681146200091b575f80fd5b809150509250925092565b634e487b7160e01b5f52601160045260245ffd5b63ffffffff8281168282160390808211156200095a576200095a62000926565b5092915050565b600181815b80851115620009a4578163ffffffff0482111562000988576200098862000926565b808516156200099657918102915b93841c939080029062000966565b509250929050565b5f82620009bc57506001620008ca565b81620009ca57505f620008ca565b8160018114620009e35760028114620009ee5762000a26565b6001915050620008ca565b60ff84111562000a025762000a0262000926565b6001841b915063ffffffff82111562000a1f5762000a1f62000926565b50620008ca565b5060208310610133831016604e8410600b841016171562000a62575081810a63ffffffff81111562000a5c5762000a5c62000926565b620008ca565b62000a6e838362000961565b8063ffffffff0482111562000a875762000a8762000926565b029392505050565b5f63ffffffff62000aa5818516828516620009ac565b949350505050565b634e487b7160e01b5f52601260045260245ffd5b5f63ffffffff8084168062000ada5762000ada62000aad565b92169190910692915050565b5f63ffffffff8084168062000aff5762000aff62000aad565b92169190910492915050565b63ffffffff8181168382160190808211156200095a576200095a62000926565b6117118062000b395f395ff3fe608060405260043610610131575f3560e01c80639ec44154116100a8578063cd87a3b41161006d578063cd87a3b4146103b6578063e5285dcc146103ca578063e8295588146103f8578063f178e47c14610417578063f18d20be14610442578063fc7e9c6f1461044a575f80fd5b80639ec44154146102f95780639fa12d0b14610324578063b214faa514610350578063ba70f75714610363578063c2b40ae41461038b575f80fd5b80634ecf518b116100f95780634ecf518b1461021f5780634fe3fbf01461024f5780636d9833e31461027b578063839df9451461029a5780638bca6d16146102c857806390eeb02b146102dd575f80fd5b806311a0ed1d146101355780632997e86b1461014a5780632b7ac3f31461018d5780633591d78d146101c457806338bf282e146101f2575b5f80fd5b610148610143366004611265565b61046e565b005b348015610155575f80fd5b506101786101643660046112f3565b60086020525f908152604090205460ff1681565b60405190151581526020015b60405180910390f35b348015610198575f80fd5b506007546101ac906001600160a01b031681565b6040516001600160a01b039091168152602001610184565b3480156101cf575f80fd5b506101786101de3660046112f3565b600a6020525f908152604090205460ff1681565b3480156101fd575f80fd5b5061021161020c36600461130a565b610692565b604051908152602001610184565b34801561022a575f80fd5b505f5461023a9063ffffffff1681565b60405163ffffffff9091168152602001610184565b34801561025a575f80fd5b5061026e61026936600461132a565b6106c1565b604051610184919061139a565b348015610286575f80fd5b506101786102953660046112f3565b6107c6565b3480156102a5575f80fd5b506101786102b43660046112f3565b60096020525f908152604090205460ff1681565b3480156102d3575f80fd5b5061021160065481565b3480156102e8575f80fd5b5060045461023a9063ffffffff1681565b348015610304575f80fd5b506102116103133660046112f3565b60016020525f908152604090205481565b34801561032f575f80fd5b5061034361033e3660046113b3565b61083f565b6040516101849190611422565b61014861035e3660046112f3565b6108f9565b34801561036e575f80fd5b5060045463ffffffff165f90815260036020526040902054610211565b348015610396575f80fd5b506102116103a53660046112f3565b60036020525f908152604090205481565b3480156103c1575f80fd5b5061023a601e81565b3480156103d5575f80fd5b506101786103e43660046112f3565b5f9081526008602052604090205460ff1690565b348015610403575f80fd5b506102116104123660046112f3565b6109e3565b348015610422575f80fd5b506102116104313660046112f3565b60026020525f908152604090205481565b610148610dfc565b348015610455575f80fd5b5060045461023a90640100000000900463ffffffff1681565b610476610ebd565b4662aa36a7036104cd5760405162461bcd60e51b815260206004820152601d60248201527f7769746864726177616c206f6e6c7920616c6c6f776564206f6e204c3200000060448201526064015b60405180910390fd5b5f8481526008602052604090205460ff161561052b5760405162461bcd60e51b815260206004820152601f60248201527f546865206e6f746520686173206265656e20616c7265616479207370656e740060448201526064016104c4565b610534856107c6565b6105805760405162461bcd60e51b815260206004820152601c60248201527f43616e6e6f742066696e6420796f7572206d65726b6c6520726f6f740000000060448201526064016104c4565b5f61058c8686866106c1565b600754604051633a94343960e21b81529192506001600160a01b03169063ea50d0e4906105c190869086908690600401611467565b602060405180830381865afa1580156105dc573d5f803e3d5ffd5b505050506040513d601f19601f8201168201806040525081019061060091906114ad565b61061d5760405163439cc0cd60e01b815260040160405180910390fd5b5f858152600860205260409020805460ff1916600117905561063e84610ee7565b604080516001600160a01b0386168152602081018790527f0ce490531f6c8ae2f1ff174643bc8b7ed5e52987ab50dc1e8f33655d2cd8c90b910160405180910390a15061068b6001600555565b5050505050565b604080516020808201859052818301849052825180830384018152606090920190925280519101205b92915050565b60408051604180825261084082019092526060915f919060208201610820803683370190505090505f5b602181101561073b57856107006001836114f4565b6020811061071057610710611507565b835191901a9083908390811061072857610728611507565b60209081029190910101526001016106eb565b5060205b604081101561078f57846107546021836114f4565b6020811061076457610764611507565b835191901a9083908390811061077c5761077c611507565b602090810291909101015260010161073f565b5080516001600160a01b038416908190839060419081106107b2576107b2611507565b602090810291909101015250949350505050565b5f8181036107d557505f919050565b60045463ffffffff16805b63ffffffff81165f908152600360205260409020548403610805575060019392505050565b8063ffffffff165f036108165750601e5b806108208161151b565b9150508163ffffffff168163ffffffff16036107e057505f9392505050565b60608167ffffffffffffffff81111561085a5761085a6114cc565b604051908082528060200260200182016040528015610883578160200160208202803683370190505b5090505f5b828110156108f2576108c08484838181106108a5576108a5611507565b905060200201355f9081526008602052604090205460ff1690565b156108ea5760018282815181106108d9576108d9611507565b911515602092830291909101909101525b600101610888565b5092915050565b610901610ebd565b5f8181526009602052604090205460ff16156109695760405162461bcd60e51b815260206004820152602160248201527f54686520636f6d6d69746d656e7420686173206265656e207375626d697474656044820152601960fa1b60648201526084016104c4565b5f61097382611004565b5f838152600960205260409020805460ff1916600117905590506109956111da565b6040805163ffffffff8316815242602082015283917fa945e51eec50ab98c161376f0db4cf2aeba3ec92755fe2fcd388bdbbb80ff196910160405180910390a2506109e06001600555565b50565b5f815f03610a1257507f2fe54c60d3acabf3343a35b6eba15db4821b340f76e741e2249685ed4899af6c919050565b81600103610a4157507f4fc2fe9184a25f44ce8ddb5f32671fcae6d9c85ed710c199acef16ad16b29911919050565b81600203610a7057507f0d826a474f851c563052d929ef0daa70f658aba9ba084f51f6e3483c13c0e59a919050565b81600303610a9f57507ff7761a16b5e4c0120e4c5704b910dbe18ff6162a9668ed1c2c4efde7c4f15806919050565b81600403610ace57507fce9ce09a0ab259d6d14ca3dcd74e6c6b9e7d9074bff66973d4c57ccdffdb2a82919050565b81600503610afd57507f02efd44c63015ff1385344e0624867775486d05e6eb1290a24976964a598003b919050565b81600603610b2c57507fc4dec5845d407ce2ac2e6824bb7857c4b138f819e5789d5d11e812db10c846cd919050565b81600703610b5b57507f5fbe3f20c23f3bd6ac347917fb0903433e0b9a48373412348240a5f919bfde19919050565b81600803610b8a57507f92d1b07e56b3da96b7917778cb657f2c513eaeeb4d1579a73b5ea316f25b7289919050565b81600903610bb957507fa08add5656d6d3d0827ef909f7647981eac42aa1f51970a752f130f718f6d76a919050565b81600a03610be857507f1704c5f297590d8ec62776b0714f4f3f2234bae0524035342b0da8b8988ebd79919050565b81600b03610c1757507fc5ae2bd47379c2c6d1189cfc3d057948dc6054caf845fcacd8f7affe94b11944919050565b81600c03610c4657507f12a161d6d5561062f387d91ad9f0f8966c0956afdb9e8325458b9e5057b82bdb919050565b81600d03610c7557507f4ade524ba596de20bbe94507a761c45251ae7a27857ceb4287d9018525b99bc5919050565b81600e03610ca457507f38287ad69151fa833bf4bf8b8eb6ffb39400a38f1a7e53b473f639c8c60fd5e4919050565b81600f03610cd357507f57f2ade7d711707e785451f2aba6c95872c7fe03153a98b7327b4024e8068fa3919050565b81601003610d0257507fb1982e0d1b0de46a88d8b17941472e41a86d3ff64571ed8e0ca72d58633547fc919050565b81601103610d3157507fb7c60f8670af15eb32b4ee36727179bc085a3dde03d5f9a1486664ba576b30a6919050565b81601203610d6057507f5ff905c5c659a926b132ef3665a3de5d5a859c1d479e68851085bfc0348c5331919050565b81601303610d8f57507fb4dfa78b912e98c9f7eb42d71eb537a02bf3173d44a2eb887a48b3972072dd8e919050565b81601403610dbe57507f60919a16a2eb8b91cfb8ba1e5b4c155a76a14c217b5403edbd563f34e508ecdc919050565b60405162461bcd60e51b8152602060048201526013602482015272496e646578206f7574206f6620626f756e647360681b60448201526064016104c4565b610e04610ebd565b60405173be34cc4cebf526887ec2c0035463dd26b3e7fea4905f90829047908381818185875af1925050503d805f8114610e59576040519150601f19603f3d011682016040523d82523d5f602084013e610e5e565b606091505b5050905080610eaf5760405162461bcd60e51b815260206004820181905260248201527f7061796d656e7420746f2061646d696e20646964206e6f7420676f207468727560448201526064016104c4565b5050610ebb6001600555565b565b600260055403610ee057604051633ee5aeb560e01b815260040160405180910390fd5b6002600555565b3415610f535760405162461bcd60e51b815260206004820152603560248201527f4d6573736167652076616c756520697320737570706f73656420746f206265206044820152747a65726f20666f722045544820696e7374616e636560581b60648201526084016104c4565b6006546040515f916001600160a01b038416918381818185875af1925050503d805f8114610f9c576040519150601f19603f3d011682016040523d82523d5f602084013e610fa1565b606091505b50509050806110005760405162461bcd60e51b815260206004820152602560248201527f7061796d656e7420746f205f726563697069656e7420646964206e6f7420676f604482015264207468727560d81b60648201526084016104c4565b5050565b6004545f8054909163ffffffff6401000000009091048116916110299116600261164a565b63ffffffff168163ffffffff160361109c5760405162461bcd60e51b815260206004820152603060248201527f4d65726b6c6520747265652069732066756c6c2e204e6f206d6f7265206c656160448201526f1d995cc818d85b88189948185919195960821b60648201526084016104c4565b80835f80805b5f5463ffffffff9081169082161015611138576110c060028661167a565b63ffffffff165f036110fc578392506110de8163ffffffff166109e3565b63ffffffff82165f9081526002602052604090208590559150611117565b63ffffffff81165f9081526002602052604090205492508391505b6111218383610692565b935061112e60028661169c565b94506001016110a2565b506004545f90601e906111529063ffffffff1660016116be565b61115c919061167a565b6004805463ffffffff191663ffffffff8381169182179092555f908152600360209081526040808320899055928a1682526001908190529190208a90559091506111a79087906116be565b6004805463ffffffff929092166401000000000267ffffffff000000001990921691909117905550939695505050505050565b6006543414610ebb5760405162461bcd60e51b815260206004820152603860248201527f506c656173652073656e6420606d697844656e6f6d696e6174696f6e6020455460448201527f4820616c6f6e672077697468207472616e73616374696f6e000000000000000060648201526084016104c4565b6001600160a01b03811681146109e0575f80fd5b5f805f805f60808688031215611279575f80fd5b8535945060208601359350604086013561129281611251565b9250606086013567ffffffffffffffff808211156112ae575f80fd5b818801915088601f8301126112c1575f80fd5b8135818111156112cf575f80fd5b8960208285010111156112e0575f80fd5b9699959850939650602001949392505050565b5f60208284031215611303575f80fd5b5035919050565b5f806040838503121561131b575f80fd5b50508035926020909101359150565b5f805f6060848603121561133c575f80fd5b8335925060208401359150604084013561135581611251565b809150509250925092565b5f815180845260208085019450602084015f5b8381101561138f57815187529582019590820190600101611373565b509495945050505050565b602081525f6113ac6020830184611360565b9392505050565b5f80602083850312156113c4575f80fd5b823567ffffffffffffffff808211156113db575f80fd5b818501915085601f8301126113ee575f80fd5b8135818111156113fc575f80fd5b8660208260051b8501011115611410575f80fd5b60209290920196919550909350505050565b602080825282518282018190525f9190848201906040850190845b8181101561145b57835115158352928401929184019160010161143d565b50909695505050505050565b60408152826040820152828460608301375f606084830101525f601f19601f850116820160608382030160208401526114a36060820185611360565b9695505050505050565b5f602082840312156114bd575f80fd5b815180151581146113ac575f80fd5b634e487b7160e01b5f52604160045260245ffd5b634e487b7160e01b5f52601160045260245ffd5b818103818111156106bb576106bb6114e0565b634e487b7160e01b5f52603260045260245ffd5b5f63ffffffff821680611530576115306114e0565b5f190192915050565b60018163ffffffff825b808611156115775782820483111561155d5761155d6114e0565b8086161561156a57928202925b94851c9491800291611543565b50509250929050565b5f8261158e575060016106bb565b8161159a57505f6106bb565b81600181146115b057600281146115ba576115eb565b60019150506106bb565b60ff8411156115cb576115cb6114e0565b6001841b915063ffffffff8211156115e5576115e56114e0565b506106bb565b5060208310610133831016604e8410600b8410161715611622575081810a63ffffffff81111561161d5761161d6114e0565b6106bb565b61162c8383611539565b8063ffffffff04821115611642576116426114e0565b029392505050565b5f63ffffffff61165e818516828516611580565b949350505050565b634e487b7160e01b5f52601260045260245ffd5b5f63ffffffff8084168061169057611690611666565b92169190910692915050565b5f63ffffffff808416806116b2576116b2611666565b92169190910492915050565b63ffffffff8181168382160190808211156108f2576108f26114e056fea2646970667358221220e86b7110a20f1760c96c45f0e2634c273a96f4cf5b4c151ade0d0e6a97e80b0064736f6c63430008170033",
  "linkReferences": {},
  "deployedLinkReferences": {}
}