{
  "_format": "hh-sol-artifact-1",
  "contractName": "ToadnadoL1",
  "sourceName": "contracts/ToadnadoL1.sol",
  "abi": [
    {
      "inputs": [
        {
          "internalType": "address",
          "name": "_verifier",
          "type": "address"
        },
        {
          "internalType": "uint256",
          "name": "_denomination",
          "type": "uint256"
        },
        {
          "internalType": "uint32",
          "name": "_merkleTreeHeight",
          "type": "uint32"
        }
      ],
      "stateMutability": "nonpayable",
      "type": "constructor"
    },
    {
      "inputs": [],
      "name": "ReentrancyGuardReentrantCall",
      "type": "error"
    },
    {
      "inputs": [],
      "name": "VerificationFailed",
      "type": "error"
    },
    {
      "anonymous": false,
      "inputs": [
        {
          "indexed": true,
          "internalType": "bytes32",
          "name": "commitment",
          "type": "bytes32"
        },
        {
          "indexed": false,
          "internalType": "uint32",
          "name": "leafIndex",
          "type": "uint32"
        },
        {
          "indexed": false,
          "internalType": "uint256",
          "name": "timestamp",
          "type": "uint256"
        }
      ],
      "name": "Deposit",
      "type": "event"
    },
    {
      "anonymous": false,
      "inputs": [
        {
          "indexed": false,
          "internalType": "address",
          "name": "recipient",
          "type": "address"
        },
        {
          "indexed": false,
          "internalType": "bytes32",
          "name": "nullifier",
          "type": "bytes32"
        }
      ],
      "name": "Withdrawal",
      "type": "event"
    },
    {
      "inputs": [],
      "name": "ROOT_HISTORY_SIZE",
      "outputs": [
        {
          "internalType": "uint32",
          "name": "",
          "type": "uint32"
        }
      ],
      "stateMutability": "view",
      "type": "function"
    },
    {
      "inputs": [
        {
          "internalType": "bytes32",
          "name": "_root",
          "type": "bytes32"
        },
        {
          "internalType": "bytes32",
          "name": "_nullifier",
          "type": "bytes32"
        },
        {
          "internalType": "address",
          "name": "_recipient",
          "type": "address"
        }
      ],
      "name": "_formatPublicInputs",
      "outputs": [
        {
          "internalType": "bytes32[]",
          "name": "",
          "type": "bytes32[]"
        }
      ],
      "stateMutability": "nonpayable",
      "type": "function"
    },
    {
      "inputs": [
        {
          "internalType": "uint256",
          "name": "",
          "type": "uint256"
        }
      ],
      "name": "commitmentLeafs",
      "outputs": [
        {
          "internalType": "bytes32",
          "name": "",
          "type": "bytes32"
        }
      ],
      "stateMutability": "view",
      "type": "function"
    },
    {
      "inputs": [
        {
          "internalType": "bytes32",
          "name": "",
          "type": "bytes32"
        }
      ],
      "name": "commitments",
      "outputs": [
        {
          "internalType": "bool",
          "name": "",
          "type": "bool"
        }
      ],
      "stateMutability": "view",
      "type": "function"
    },
    {
      "inputs": [
        {
          "internalType": "bytes32",
          "name": "",
          "type": "bytes32"
        }
      ],
      "name": "commitmentsTreeRoots",
      "outputs": [
        {
          "internalType": "bool",
          "name": "",
          "type": "bool"
        }
      ],
      "stateMutability": "view",
      "type": "function"
    },
    {
      "inputs": [],
      "name": "currentRootIndex",
      "outputs": [
        {
          "internalType": "uint32",
          "name": "",
          "type": "uint32"
        }
      ],
      "stateMutability": "view",
      "type": "function"
    },
    {
      "inputs": [],
      "name": "denomination",
      "outputs": [
        {
          "internalType": "uint256",
          "name": "",
          "type": "uint256"
        }
      ],
      "stateMutability": "view",
      "type": "function"
    },
    {
      "inputs": [
        {
          "internalType": "bytes32",
          "name": "_commitment",
          "type": "bytes32"
        }
      ],
      "name": "deposit",
      "outputs": [],
      "stateMutability": "payable",
      "type": "function"
    },
    {
      "inputs": [
        {
          "internalType": "uint256",
          "name": "",
          "type": "uint256"
        }
      ],
      "name": "filledSubtrees",
      "outputs": [
        {
          "internalType": "bytes32",
          "name": "",
          "type": "bytes32"
        }
      ],
      "stateMutability": "view",
      "type": "function"
    },
    {
      "inputs": [],
      "name": "getLastRoot",
      "outputs": [
        {
          "internalType": "bytes32",
          "name": "",
          "type": "bytes32"
        }
      ],
      "stateMutability": "view",
      "type": "function"
    },
    {
      "inputs": [
        {
          "internalType": "bytes32",
          "name": "_left",
          "type": "bytes32"
        },
        {
          "internalType": "bytes32",
          "name": "_right",
          "type": "bytes32"
        }
      ],
      "name": "hashLeftRight",
      "outputs": [
        {
          "internalType": "bytes32",
          "name": "",
          "type": "bytes32"
        }
      ],
      "stateMutability": "pure",
      "type": "function"
    },
    {
      "inputs": [
        {
          "internalType": "bytes32",
          "name": "_root",
          "type": "bytes32"
        }
      ],
      "name": "isKnownRoot",
      "outputs": [
        {
          "internalType": "bool",
          "name": "",
          "type": "bool"
        }
      ],
      "stateMutability": "view",
      "type": "function"
    },
    {
      "inputs": [
        {
          "internalType": "bytes32",
          "name": "_nullifierHash",
          "type": "bytes32"
        }
      ],
      "name": "isSpent",
      "outputs": [
        {
          "internalType": "bool",
          "name": "",
          "type": "bool"
        }
      ],
      "stateMutability": "view",
      "type": "function"
    },
    {
      "inputs": [
        {
          "internalType": "bytes32[]",
          "name": "_nullifierHashes",
          "type": "bytes32[]"
        }
      ],
      "name": "isSpentArray",
      "outputs": [
        {
          "internalType": "bool[]",
          "name": "spent",
          "type": "bool[]"
        }
      ],
      "stateMutability": "view",
      "type": "function"
    },
    {
      "inputs": [],
      "name": "levels",
      "outputs": [
        {
          "internalType": "uint32",
          "name": "",
          "type": "uint32"
        }
      ],
      "stateMutability": "view",
      "type": "function"
    },
    {
      "inputs": [],
      "name": "nextIndex",
      "outputs": [
        {
          "internalType": "uint32",
          "name": "",
          "type": "uint32"
        }
      ],
      "stateMutability": "view",
      "type": "function"
    },
    {
      "inputs": [
        {
          "internalType": "bytes32",
          "name": "",
          "type": "bytes32"
        }
      ],
      "name": "nullifiers",
      "outputs": [
        {
          "internalType": "bool",
          "name": "",
          "type": "bool"
        }
      ],
      "stateMutability": "view",
      "type": "function"
    },
    {
      "inputs": [
        {
          "internalType": "uint256",
          "name": "",
          "type": "uint256"
        }
      ],
      "name": "roots",
      "outputs": [
        {
          "internalType": "bytes32",
          "name": "",
          "type": "bytes32"
        }
      ],
      "stateMutability": "view",
      "type": "function"
    },
    {
      "inputs": [],
      "name": "verifier",
      "outputs": [
        {
          "internalType": "address",
          "name": "",
          "type": "address"
        }
      ],
      "stateMutability": "view",
      "type": "function"
    },
    {
      "inputs": [
        {
          "internalType": "bytes32",
          "name": "_root",
          "type": "bytes32"
        },
        {
          "internalType": "bytes32",
          "name": "_nullifier",
          "type": "bytes32"
        },
        {
          "internalType": "address payable",
          "name": "_recipient",
          "type": "address"
        },
        {
          "internalType": "bytes",
          "name": "snarkProof",
          "type": "bytes"
        }
      ],
      "name": "withdraw",
      "outputs": [],
      "stateMutability": "payable",
      "type": "function"
    },
    {
      "inputs": [
        {
          "internalType": "uint256",
          "name": "i",
          "type": "uint256"
        }
      ],
      "name": "zeros",
      "outputs": [
        {
          "internalType": "bytes32",
          "name": "",
          "type": "bytes32"
        }
      ],
      "stateMutability": "pure",
      "type": "function"
    }
  ],
  "bytecode": "0x6080604052600480546001600160401b031916905534801562000020575f80fd5b5060405162001d9c38038062001d9c833981016040819052620000439162000672565b828282805f8163ffffffff1611620000ae5760405162461bcd60e51b815260206004820152602360248201527f5f6c6576656c732073686f756c642062652067726561746572207468616e207a60448201526265726f60e81b60648201526084015b60405180910390fd5b60148163ffffffff1610620001065760405162461bcd60e51b815260206004820152601e60248201527f5f6c6576656c732073686f756c64206265206c657373207468616e20323000006044820152606401620000a5565b5f805463ffffffff191663ffffffff83161781555b8163ffffffff168163ffffffff1610156200015f576200014163ffffffff821662000239565b63ffffffff82165f908152600260205260409020556001016200011b565b506200017d62000171600183620006c8565b63ffffffff1662000239565b5f805260036020527f3617319a054d772f909f7c479a2cebe5066e836a939412e32403c99029b92eff55506001600555816200020a5760405162461bcd60e51b815260206004820152602560248201527f64656e6f6d696e6174696f6e2073686f756c6420626520677265617465722074604482015264068616e20360dc1b6064820152608401620000a5565b50600780546001600160a01b0319166001600160a01b03939093169290921790915560065550620006f9915050565b5f815f036200026957507f2fe54c60d3acabf3343a35b6eba15db4821b340f76e741e2249685ed4899af6c919050565b816001036200029957507f4fc2fe9184a25f44ce8ddb5f32671fcae6d9c85ed710c199acef16ad16b29911919050565b81600203620002c957507f0d826a474f851c563052d929ef0daa70f658aba9ba084f51f6e3483c13c0e59a919050565b81600303620002f957507ff7761a16b5e4c0120e4c5704b910dbe18ff6162a9668ed1c2c4efde7c4f15806919050565b816004036200032957507fce9ce09a0ab259d6d14ca3dcd74e6c6b9e7d9074bff66973d4c57ccdffdb2a82919050565b816005036200035957507f02efd44c63015ff1385344e0624867775486d05e6eb1290a24976964a598003b919050565b816006036200038957507fc4dec5845d407ce2ac2e6824bb7857c4b138f819e5789d5d11e812db10c846cd919050565b81600703620003b957507f5fbe3f20c23f3bd6ac347917fb0903433e0b9a48373412348240a5f919bfde19919050565b81600803620003e957507f92d1b07e56b3da96b7917778cb657f2c513eaeeb4d1579a73b5ea316f25b7289919050565b816009036200041957507fa08add5656d6d3d0827ef909f7647981eac42aa1f51970a752f130f718f6d76a919050565b81600a036200044957507f1704c5f297590d8ec62776b0714f4f3f2234bae0524035342b0da8b8988ebd79919050565b81600b036200047957507fc5ae2bd47379c2c6d1189cfc3d057948dc6054caf845fcacd8f7affe94b11944919050565b81600c03620004a957507f12a161d6d5561062f387d91ad9f0f8966c0956afdb9e8325458b9e5057b82bdb919050565b81600d03620004d957507f4ade524ba596de20bbe94507a761c45251ae7a27857ceb4287d9018525b99bc5919050565b81600e036200050957507f38287ad69151fa833bf4bf8b8eb6ffb39400a38f1a7e53b473f639c8c60fd5e4919050565b81600f036200053957507f57f2ade7d711707e785451f2aba6c95872c7fe03153a98b7327b4024e8068fa3919050565b816010036200056957507fb1982e0d1b0de46a88d8b17941472e41a86d3ff64571ed8e0ca72d58633547fc919050565b816011036200059957507fb7c60f8670af15eb32b4ee36727179bc085a3dde03d5f9a1486664ba576b30a6919050565b81601203620005c957507f5ff905c5c659a926b132ef3665a3de5d5a859c1d479e68851085bfc0348c5331919050565b81601303620005f957507fb4dfa78b912e98c9f7eb42d71eb537a02bf3173d44a2eb887a48b3972072dd8e919050565b816014036200062957507f60919a16a2eb8b91cfb8ba1e5b4c155a76a14c217b5403edbd563f34e508ecdc919050565b60405162461bcd60e51b815260206004820152601360248201527f496e646578206f7574206f6620626f756e6473000000000000000000000000006044820152606401620000a5565b5f805f6060848603121562000685575f80fd5b83516001600160a01b03811681146200069c575f80fd5b60208501516040860151919450925063ffffffff81168114620006bd575f80fd5b809150509250925092565b63ffffffff828116828216039080821115620006f257634e487b7160e01b5f52601160045260245ffd5b5092915050565b61169580620007075f395ff3fe608060405260043610610126575f3560e01c806390eeb02b116100a8578063c2b40ae41161006d578063c2b40ae414610380578063cd87a3b4146103ab578063e5285dcc146103bf578063e8295588146103ed578063f178e47c1461040c578063fc7e9c6f14610437575f80fd5b806390eeb02b146102d25780639ec44154146102ee5780639fa12d0b14610319578063b214faa514610345578063ba70f75714610358575f80fd5b80634ecf518b116100ee5780634ecf518b146102145780634fe3fbf0146102445780636d9833e314610270578063839df9451461028f5780638bca6d16146102bd575f80fd5b806311a0ed1d1461012a5780632997e86b1461013f5780632b7ac3f3146101825780633591d78d146101b957806338bf282e146101e7575b5f80fd5b61013d6101383660046111e9565b61045b565b005b34801561014a575f80fd5b5061016d610159366004611277565b60086020525f908152604090205460ff1681565b60405190151581526020015b60405180910390f35b34801561018d575f80fd5b506007546101a1906001600160a01b031681565b6040516001600160a01b039091168152602001610179565b3480156101c4575f80fd5b5061016d6101d3366004611277565b600a6020525f908152604090205460ff1681565b3480156101f2575f80fd5b5061020661020136600461128e565b61062d565b604051908152602001610179565b34801561021f575f80fd5b505f5461022f9063ffffffff1681565b60405163ffffffff9091168152602001610179565b34801561024f575f80fd5b5061026361025e3660046112ae565b61065c565b604051610179919061131e565b34801561027b575f80fd5b5061016d61028a366004611277565b610761565b34801561029a575f80fd5b5061016d6102a9366004611277565b60096020525f908152604090205460ff1681565b3480156102c8575f80fd5b5061020660065481565b3480156102dd575f80fd5b5060045461022f9063ffffffff1681565b3480156102f9575f80fd5b50610206610308366004611277565b60016020525f908152604090205481565b348015610324575f80fd5b50610338610333366004611337565b6107da565b60405161017991906113a6565b61013d610353366004611277565b610894565b348015610363575f80fd5b5060045463ffffffff165f90815260036020526040902054610206565b34801561038b575f80fd5b5061020661039a366004611277565b60036020525f908152604090205481565b3480156103b6575f80fd5b5061022f601e81565b3480156103ca575f80fd5b5061016d6103d9366004611277565b5f9081526008602052604090205460ff1690565b3480156103f8575f80fd5b50610206610407366004611277565b61097e565b348015610417575f80fd5b50610206610426366004611277565b60026020525f908152604090205481565b348015610442575f80fd5b5060045461022f90640100000000900463ffffffff1681565b610463610d97565b5f8481526008602052604090205460ff16156104c65760405162461bcd60e51b815260206004820152601f60248201527f546865206e6f746520686173206265656e20616c7265616479207370656e740060448201526064015b60405180910390fd5b6104cf85610761565b61051b5760405162461bcd60e51b815260206004820152601c60248201527f43616e6e6f742066696e6420796f7572206d65726b6c6520726f6f740000000060448201526064016104bd565b5f61052786868661065c565b600754604051633a94343960e21b81529192506001600160a01b03169063ea50d0e49061055c908690869086906004016113eb565b602060405180830381865afa158015610577573d5f803e3d5ffd5b505050506040513d601f19601f8201168201806040525081019061059b9190611431565b6105b85760405163439cc0cd60e01b815260040160405180910390fd5b5f858152600860205260409020805460ff191660011790556105d984610dc1565b604080516001600160a01b0386168152602081018790527f0ce490531f6c8ae2f1ff174643bc8b7ed5e52987ab50dc1e8f33655d2cd8c90b910160405180910390a1506106266001600555565b5050505050565b604080516020808201859052818301849052825180830384018152606090920190925280519101205b92915050565b60408051604180825261084082019092526060915f919060208201610820803683370190505090505f5b60218110156106d6578561069b600183611478565b602081106106ab576106ab61148b565b835191901a908390839081106106c3576106c361148b565b6020908102919091010152600101610686565b5060205b604081101561072a57846106ef602183611478565b602081106106ff576106ff61148b565b835191901a908390839081106107175761071761148b565b60209081029190910101526001016106da565b5080516001600160a01b0384169081908390604190811061074d5761074d61148b565b602090810291909101015250949350505050565b5f81810361077057505f919050565b60045463ffffffff16805b63ffffffff81165f9081526003602052604090205484036107a0575060019392505050565b8063ffffffff165f036107b15750601e5b806107bb8161149f565b9150508163ffffffff168163ffffffff160361077b57505f9392505050565b60608167ffffffffffffffff8111156107f5576107f5611450565b60405190808252806020026020018201604052801561081e578160200160208202803683370190505b5090505f5b8281101561088d5761085b8484838181106108405761084061148b565b905060200201355f9081526008602052604090205460ff1690565b156108855760018282815181106108745761087461148b565b911515602092830291909101909101525b600101610823565b5092915050565b61089c610d97565b5f8181526009602052604090205460ff16156109045760405162461bcd60e51b815260206004820152602160248201527f54686520636f6d6d69746d656e7420686173206265656e207375626d697474656044820152601960fa1b60648201526084016104bd565b5f61090e82610ede565b5f838152600960205260409020805460ff1916600117905590506109306110b4565b6040805163ffffffff8316815242602082015283917fa945e51eec50ab98c161376f0db4cf2aeba3ec92755fe2fcd388bdbbb80ff196910160405180910390a25061097b6001600555565b50565b5f815f036109ad57507f2fe54c60d3acabf3343a35b6eba15db4821b340f76e741e2249685ed4899af6c919050565b816001036109dc57507f4fc2fe9184a25f44ce8ddb5f32671fcae6d9c85ed710c199acef16ad16b29911919050565b81600203610a0b57507f0d826a474f851c563052d929ef0daa70f658aba9ba084f51f6e3483c13c0e59a919050565b81600303610a3a57507ff7761a16b5e4c0120e4c5704b910dbe18ff6162a9668ed1c2c4efde7c4f15806919050565b81600403610a6957507fce9ce09a0ab259d6d14ca3dcd74e6c6b9e7d9074bff66973d4c57ccdffdb2a82919050565b81600503610a9857507f02efd44c63015ff1385344e0624867775486d05e6eb1290a24976964a598003b919050565b81600603610ac757507fc4dec5845d407ce2ac2e6824bb7857c4b138f819e5789d5d11e812db10c846cd919050565b81600703610af657507f5fbe3f20c23f3bd6ac347917fb0903433e0b9a48373412348240a5f919bfde19919050565b81600803610b2557507f92d1b07e56b3da96b7917778cb657f2c513eaeeb4d1579a73b5ea316f25b7289919050565b81600903610b5457507fa08add5656d6d3d0827ef909f7647981eac42aa1f51970a752f130f718f6d76a919050565b81600a03610b8357507f1704c5f297590d8ec62776b0714f4f3f2234bae0524035342b0da8b8988ebd79919050565b81600b03610bb257507fc5ae2bd47379c2c6d1189cfc3d057948dc6054caf845fcacd8f7affe94b11944919050565b81600c03610be157507f12a161d6d5561062f387d91ad9f0f8966c0956afdb9e8325458b9e5057b82bdb919050565b81600d03610c1057507f4ade524ba596de20bbe94507a761c45251ae7a27857ceb4287d9018525b99bc5919050565b81600e03610c3f57507f38287ad69151fa833bf4bf8b8eb6ffb39400a38f1a7e53b473f639c8c60fd5e4919050565b81600f03610c6e57507f57f2ade7d711707e785451f2aba6c95872c7fe03153a98b7327b4024e8068fa3919050565b81601003610c9d57507fb1982e0d1b0de46a88d8b17941472e41a86d3ff64571ed8e0ca72d58633547fc919050565b81601103610ccc57507fb7c60f8670af15eb32b4ee36727179bc085a3dde03d5f9a1486664ba576b30a6919050565b81601203610cfb57507f5ff905c5c659a926b132ef3665a3de5d5a859c1d479e68851085bfc0348c5331919050565b81601303610d2a57507fb4dfa78b912e98c9f7eb42d71eb537a02bf3173d44a2eb887a48b3972072dd8e919050565b81601403610d5957507f60919a16a2eb8b91cfb8ba1e5b4c155a76a14c217b5403edbd563f34e508ecdc919050565b60405162461bcd60e51b8152602060048201526013602482015272496e646578206f7574206f6620626f756e647360681b60448201526064016104bd565b600260055403610dba57604051633ee5aeb560e01b815260040160405180910390fd5b6002600555565b3415610e2d5760405162461bcd60e51b815260206004820152603560248201527f4d6573736167652076616c756520697320737570706f73656420746f206265206044820152747a65726f20666f722045544820696e7374616e636560581b60648201526084016104bd565b6006546040515f916001600160a01b038416918381818185875af1925050503d805f8114610e76576040519150601f19603f3d011682016040523d82523d5f602084013e610e7b565b606091505b5050905080610eda5760405162461bcd60e51b815260206004820152602560248201527f7061796d656e7420746f205f726563697069656e7420646964206e6f7420676f604482015264207468727560d81b60648201526084016104bd565b5050565b6004545f8054909163ffffffff640100000000909104811691610f03911660026115ce565b63ffffffff168163ffffffff1603610f765760405162461bcd60e51b815260206004820152603060248201527f4d65726b6c6520747265652069732066756c6c2e204e6f206d6f7265206c656160448201526f1d995cc818d85b88189948185919195960821b60648201526084016104bd565b80835f80805b5f5463ffffffff908116908216101561101257610f9a6002866115fe565b63ffffffff165f03610fd657839250610fb88163ffffffff1661097e565b63ffffffff82165f9081526002602052604090208590559150610ff1565b63ffffffff81165f9081526002602052604090205492508391505b610ffb838361062d565b9350611008600286611620565b9450600101610f7c565b506004545f90601e9061102c9063ffffffff166001611642565b61103691906115fe565b6004805463ffffffff191663ffffffff8381169182179092555f908152600360209081526040808320899055928a1682526001908190529190208a9055909150611081908790611642565b6004805463ffffffff929092166401000000000267ffffffff000000001990921691909117905550939695505050505050565b600654341461112b5760405162461bcd60e51b815260206004820152603860248201527f506c656173652073656e6420606d697844656e6f6d696e6174696f6e6020455460448201527f4820616c6f6e672077697468207472616e73616374696f6e000000000000000060648201526084016104bd565b4662aa36a7146111d35760405173be34cc4cebf526887ec2c0035463dd26b3e7fea4905f90829034908381818185875af1925050503d805f811461118a576040519150601f19603f3d011682016040523d82523d5f602084013e61118f565b606091505b5050905080610eda5760405162461bcd60e51b815260206004820152601060248201526f2a3930b739b332b9103330b4b632b21760811b60448201526064016104bd565b565b6001600160a01b038116811461097b575f80fd5b5f805f805f608086880312156111fd575f80fd5b85359450602086013593506040860135611216816111d5565b9250606086013567ffffffffffffffff80821115611232575f80fd5b818801915088601f830112611245575f80fd5b813581811115611253575f80fd5b896020828501011115611264575f80fd5b9699959850939650602001949392505050565b5f60208284031215611287575f80fd5b5035919050565b5f806040838503121561129f575f80fd5b50508035926020909101359150565b5f805f606084860312156112c0575f80fd5b833592506020840135915060408401356112d9816111d5565b809150509250925092565b5f815180845260208085019450602084015f5b83811015611313578151875295820195908201906001016112f7565b509495945050505050565b602081525f61133060208301846112e4565b9392505050565b5f8060208385031215611348575f80fd5b823567ffffffffffffffff8082111561135f575f80fd5b818501915085601f830112611372575f80fd5b813581811115611380575f80fd5b8660208260051b8501011115611394575f80fd5b60209290920196919550909350505050565b602080825282518282018190525f9190848201906040850190845b818110156113df5783511515835292840192918401916001016113c1565b50909695505050505050565b60408152826040820152828460608301375f606084830101525f601f19601f8501168201606083820301602084015261142760608201856112e4565b9695505050505050565b5f60208284031215611441575f80fd5b81518015158114611330575f80fd5b634e487b7160e01b5f52604160045260245ffd5b634e487b7160e01b5f52601160045260245ffd5b8181038181111561065657610656611464565b634e487b7160e01b5f52603260045260245ffd5b5f63ffffffff8216806114b4576114b4611464565b5f190192915050565b60018163ffffffff825b808611156114fb578282048311156114e1576114e1611464565b808616156114ee57928202925b94851c94918002916114c7565b50509250929050565b5f8261151257506001610656565b8161151e57505f610656565b8160018114611534576002811461153e5761156f565b6001915050610656565b60ff84111561154f5761154f611464565b6001841b915063ffffffff82111561156957611569611464565b50610656565b5060208310610133831016604e8410600b84101617156115a6575081810a63ffffffff8111156115a1576115a1611464565b610656565b6115b083836114bd565b8063ffffffff048211156115c6576115c6611464565b029392505050565b5f63ffffffff6115e2818516828516611504565b949350505050565b634e487b7160e01b5f52601260045260245ffd5b5f63ffffffff80841680611614576116146115ea565b92169190910692915050565b5f63ffffffff80841680611636576116366115ea565b92169190910492915050565b63ffffffff81811683821601908082111561088d5761088d61146456fea2646970667358221220e3ea53501fcf41c9c947136a07e9cada464a0d0f3e05a89c9ccc3abd4bc6baf664736f6c63430008170033",
  "linkReferences": {},
  "deployedLinkReferences": {}
}