{
  "_format": "hh-sol-artifact-1",
  "contractName": "ToadnadoL1",
  "sourceName": "contracts/ToadnadoL1.sol",
  "abi": [
    {
      "inputs": [
        {
          "internalType": "address",
          "name": "_verifier",
          "type": "address"
        },
        {
          "internalType": "uint256",
          "name": "_denomination",
          "type": "uint256"
        },
        {
          "internalType": "uint32",
          "name": "_merkleTreeHeight",
          "type": "uint32"
        }
      ],
      "stateMutability": "nonpayable",
      "type": "constructor"
    },
    {
      "inputs": [],
      "name": "ReentrancyGuardReentrantCall",
      "type": "error"
    },
    {
      "anonymous": false,
      "inputs": [
        {
          "indexed": true,
          "internalType": "bytes32",
          "name": "commitment",
          "type": "bytes32"
        },
        {
          "indexed": false,
          "internalType": "uint32",
          "name": "leafIndex",
          "type": "uint32"
        },
        {
          "indexed": false,
          "internalType": "uint256",
          "name": "timestamp",
          "type": "uint256"
        }
      ],
      "name": "Deposit",
      "type": "event"
    },
    {
      "inputs": [],
      "name": "ROOT_HISTORY_SIZE",
      "outputs": [
        {
          "internalType": "uint32",
          "name": "",
          "type": "uint32"
        }
      ],
      "stateMutability": "view",
      "type": "function"
    },
    {
      "inputs": [
        {
          "internalType": "bytes32",
          "name": "_root",
          "type": "bytes32"
        },
        {
          "internalType": "bytes32",
          "name": "_nullifier",
          "type": "bytes32"
        },
        {
          "internalType": "address",
          "name": "_recipient",
          "type": "address"
        }
      ],
      "name": "_formatPublicInputs",
      "outputs": [
        {
          "internalType": "bytes32[]",
          "name": "",
          "type": "bytes32[]"
        }
      ],
      "stateMutability": "pure",
      "type": "function"
    },
    {
      "inputs": [],
      "name": "adminWithdraw",
      "outputs": [],
      "stateMutability": "payable",
      "type": "function"
    },
    {
      "inputs": [
        {
          "internalType": "uint256",
          "name": "",
          "type": "uint256"
        }
      ],
      "name": "commitmentLeafs",
      "outputs": [
        {
          "internalType": "bytes32",
          "name": "",
          "type": "bytes32"
        }
      ],
      "stateMutability": "view",
      "type": "function"
    },
    {
      "inputs": [
        {
          "internalType": "bytes32",
          "name": "",
          "type": "bytes32"
        }
      ],
      "name": "commitments",
      "outputs": [
        {
          "internalType": "bool",
          "name": "",
          "type": "bool"
        }
      ],
      "stateMutability": "view",
      "type": "function"
    },
    {
      "inputs": [
        {
          "internalType": "bytes32",
          "name": "",
          "type": "bytes32"
        }
      ],
      "name": "commitmentsTreeRoots",
      "outputs": [
        {
          "internalType": "bool",
          "name": "",
          "type": "bool"
        }
      ],
      "stateMutability": "view",
      "type": "function"
    },
    {
      "inputs": [],
      "name": "currentRootIndex",
      "outputs": [
        {
          "internalType": "uint32",
          "name": "",
          "type": "uint32"
        }
      ],
      "stateMutability": "view",
      "type": "function"
    },
    {
      "inputs": [],
      "name": "denomination",
      "outputs": [
        {
          "internalType": "uint256",
          "name": "",
          "type": "uint256"
        }
      ],
      "stateMutability": "view",
      "type": "function"
    },
    {
      "inputs": [
        {
          "internalType": "bytes32",
          "name": "_commitment",
          "type": "bytes32"
        }
      ],
      "name": "deposit",
      "outputs": [],
      "stateMutability": "payable",
      "type": "function"
    },
    {
      "inputs": [
        {
          "internalType": "uint256",
          "name": "",
          "type": "uint256"
        }
      ],
      "name": "filledSubtrees",
      "outputs": [
        {
          "internalType": "bytes32",
          "name": "",
          "type": "bytes32"
        }
      ],
      "stateMutability": "view",
      "type": "function"
    },
    {
      "inputs": [],
      "name": "getLastRoot",
      "outputs": [
        {
          "internalType": "bytes32",
          "name": "",
          "type": "bytes32"
        }
      ],
      "stateMutability": "view",
      "type": "function"
    },
    {
      "inputs": [
        {
          "internalType": "bytes32",
          "name": "_left",
          "type": "bytes32"
        },
        {
          "internalType": "bytes32",
          "name": "_right",
          "type": "bytes32"
        }
      ],
      "name": "hashLeftRight",
      "outputs": [
        {
          "internalType": "bytes32",
          "name": "",
          "type": "bytes32"
        }
      ],
      "stateMutability": "pure",
      "type": "function"
    },
    {
      "inputs": [
        {
          "internalType": "bytes32",
          "name": "_root",
          "type": "bytes32"
        }
      ],
      "name": "isKnownRoot",
      "outputs": [
        {
          "internalType": "bool",
          "name": "",
          "type": "bool"
        }
      ],
      "stateMutability": "view",
      "type": "function"
    },
    {
      "inputs": [
        {
          "internalType": "bytes32",
          "name": "_nullifierHash",
          "type": "bytes32"
        }
      ],
      "name": "isSpent",
      "outputs": [
        {
          "internalType": "bool",
          "name": "",
          "type": "bool"
        }
      ],
      "stateMutability": "view",
      "type": "function"
    },
    {
      "inputs": [
        {
          "internalType": "bytes32[]",
          "name": "_nullifierHashes",
          "type": "bytes32[]"
        }
      ],
      "name": "isSpentArray",
      "outputs": [
        {
          "internalType": "bool[]",
          "name": "spent",
          "type": "bool[]"
        }
      ],
      "stateMutability": "view",
      "type": "function"
    },
    {
      "inputs": [],
      "name": "levels",
      "outputs": [
        {
          "internalType": "uint32",
          "name": "",
          "type": "uint32"
        }
      ],
      "stateMutability": "view",
      "type": "function"
    },
    {
      "inputs": [],
      "name": "nextIndex",
      "outputs": [
        {
          "internalType": "uint32",
          "name": "",
          "type": "uint32"
        }
      ],
      "stateMutability": "view",
      "type": "function"
    },
    {
      "inputs": [
        {
          "internalType": "bytes32",
          "name": "",
          "type": "bytes32"
        }
      ],
      "name": "nullifiers",
      "outputs": [
        {
          "internalType": "bool",
          "name": "",
          "type": "bool"
        }
      ],
      "stateMutability": "view",
      "type": "function"
    },
    {
      "inputs": [
        {
          "internalType": "uint256",
          "name": "",
          "type": "uint256"
        }
      ],
      "name": "roots",
      "outputs": [
        {
          "internalType": "bytes32",
          "name": "",
          "type": "bytes32"
        }
      ],
      "stateMutability": "view",
      "type": "function"
    },
    {
      "inputs": [],
      "name": "verifier",
      "outputs": [
        {
          "internalType": "address",
          "name": "",
          "type": "address"
        }
      ],
      "stateMutability": "view",
      "type": "function"
    },
    {
      "inputs": [
        {
          "internalType": "uint256",
          "name": "i",
          "type": "uint256"
        }
      ],
      "name": "zeros",
      "outputs": [
        {
          "internalType": "bytes32",
          "name": "",
          "type": "bytes32"
        }
      ],
      "stateMutability": "pure",
      "type": "function"
    }
  ],
  "bytecode": "0x6080604052600480546001600160401b031916905534801562000020575f80fd5b506040516200195d3803806200195d833981016040819052620000439162000666565b828282805f8163ffffffff1611620000ae5760405162461bcd60e51b815260206004820152602360248201527f5f6c6576656c732073686f756c642062652067726561746572207468616e207a60448201526265726f60e81b60648201526084015b60405180910390fd5b60148163ffffffff1610620001065760405162461bcd60e51b815260206004820152601e60248201527f5f6c6576656c732073686f756c64206265206c657373207468616e20323000006044820152606401620000a5565b5f805463ffffffff191663ffffffff83161781555b8163ffffffff168163ffffffff1610156200015f576200014163ffffffff82166200022d565b63ffffffff82165f908152600260205260409020556001016200011b565b506200017163ffffffff82166200022d565b5f805260036020527f3617319a054d772f909f7c479a2cebe5066e836a939412e32403c99029b92eff5550600160055581620001fe5760405162461bcd60e51b815260206004820152602560248201527f64656e6f6d696e6174696f6e2073686f756c6420626520677265617465722074604482015264068616e20360dc1b6064820152608401620000a5565b50600780546001600160a01b0319166001600160a01b03939093169290921790915560065550620006bc915050565b5f815f036200025d57507f2fe54c60d3acabf3343a35b6eba15db4821b340f76e741e2249685ed4899af6c919050565b816001036200028d57507f4fc2fe9184a25f44ce8ddb5f32671fcae6d9c85ed710c199acef16ad16b29911919050565b81600203620002bd57507f0d826a474f851c563052d929ef0daa70f658aba9ba084f51f6e3483c13c0e59a919050565b81600303620002ed57507ff7761a16b5e4c0120e4c5704b910dbe18ff6162a9668ed1c2c4efde7c4f15806919050565b816004036200031d57507fce9ce09a0ab259d6d14ca3dcd74e6c6b9e7d9074bff66973d4c57ccdffdb2a82919050565b816005036200034d57507f02efd44c63015ff1385344e0624867775486d05e6eb1290a24976964a598003b919050565b816006036200037d57507fc4dec5845d407ce2ac2e6824bb7857c4b138f819e5789d5d11e812db10c846cd919050565b81600703620003ad57507f5fbe3f20c23f3bd6ac347917fb0903433e0b9a48373412348240a5f919bfde19919050565b81600803620003dd57507f92d1b07e56b3da96b7917778cb657f2c513eaeeb4d1579a73b5ea316f25b7289919050565b816009036200040d57507fa08add5656d6d3d0827ef909f7647981eac42aa1f51970a752f130f718f6d76a919050565b81600a036200043d57507f1704c5f297590d8ec62776b0714f4f3f2234bae0524035342b0da8b8988ebd79919050565b81600b036200046d57507fc5ae2bd47379c2c6d1189cfc3d057948dc6054caf845fcacd8f7affe94b11944919050565b81600c036200049d57507f12a161d6d5561062f387d91ad9f0f8966c0956afdb9e8325458b9e5057b82bdb919050565b81600d03620004cd57507f4ade524ba596de20bbe94507a761c45251ae7a27857ceb4287d9018525b99bc5919050565b81600e03620004fd57507f38287ad69151fa833bf4bf8b8eb6ffb39400a38f1a7e53b473f639c8c60fd5e4919050565b81600f036200052d57507f57f2ade7d711707e785451f2aba6c95872c7fe03153a98b7327b4024e8068fa3919050565b816010036200055d57507fb1982e0d1b0de46a88d8b17941472e41a86d3ff64571ed8e0ca72d58633547fc919050565b816011036200058d57507fb7c60f8670af15eb32b4ee36727179bc085a3dde03d5f9a1486664ba576b30a6919050565b81601203620005bd57507f5ff905c5c659a926b132ef3665a3de5d5a859c1d479e68851085bfc0348c5331919050565b81601303620005ed57507fb4dfa78b912e98c9f7eb42d71eb537a02bf3173d44a2eb887a48b3972072dd8e919050565b816014036200061d57507f60919a16a2eb8b91cfb8ba1e5b4c155a76a14c217b5403edbd563f34e508ecdc919050565b60405162461bcd60e51b815260206004820152601360248201527f496e646578206f7574206f6620626f756e6473000000000000000000000000006044820152606401620000a5565b5f805f6060848603121562000679575f80fd5b83516001600160a01b038116811462000690575f80fd5b60208501516040860151919450925063ffffffff81168114620006b1575f80fd5b809150509250925092565b61129380620006ca5f395ff3fe608060405260043610610126575f3560e01c80639ec44154116100a8578063cd87a3b41161006d578063cd87a3b414610398578063e5285dcc146103ac578063e8295588146103da578063f178e47c146103f9578063f18d20be14610424578063fc7e9c6f1461042c575f80fd5b80639ec44154146102d95780639fa12d0b14610304578063b214faa514610330578063ba70f75714610345578063c2b40ae41461036d575f80fd5b80634fe3fbf0116100ee5780634fe3fbf01461022f5780636d9833e31461025b578063839df9451461027a5780638bca6d16146102a857806390eeb02b146102bd575f80fd5b80632997e86b1461012a5780632b7ac3f31461016d5780633591d78d146101a457806338bf282e146101d25780634ecf518b146101ff575b5f80fd5b348015610135575f80fd5b50610158610144366004610eed565b60086020525f908152604090205460ff1681565b60405190151581526020015b60405180910390f35b348015610178575f80fd5b5060075461018c906001600160a01b031681565b6040516001600160a01b039091168152602001610164565b3480156101af575f80fd5b506101586101be366004610eed565b600a6020525f908152604090205460ff1681565b3480156101dd575f80fd5b506101f16101ec366004610f04565b610450565b604051908152602001610164565b34801561020a575f80fd5b505f5461021a9063ffffffff1681565b60405163ffffffff9091168152602001610164565b34801561023a575f80fd5b5061024e610249366004610f24565b61047f565b6040516101649190610f65565b348015610266575f80fd5b50610158610275366004610eed565b61057a565b348015610285575f80fd5b50610158610294366004610eed565b60096020525f908152604090205460ff1681565b3480156102b3575f80fd5b506101f160065481565b3480156102c8575f80fd5b5060045461021a9063ffffffff1681565b3480156102e4575f80fd5b506101f16102f3366004610eed565b60016020525f908152604090205481565b34801561030f575f80fd5b5061032361031e366004610fa8565b6105f3565b6040516101649190611017565b61034361033e366004610eed565b6106ad565b005b348015610350575f80fd5b5060045463ffffffff165f908152600360205260409020546101f1565b348015610378575f80fd5b506101f1610387366004610eed565b60036020525f908152604090205481565b3480156103a3575f80fd5b5061021a601e81565b3480156103b7575f80fd5b506101586103c6366004610eed565b5f9081526008602052604090205460ff1690565b3480156103e5575f80fd5b506101f16103f4366004610eed565b61079c565b348015610404575f80fd5b506101f1610413366004610eed565b60026020525f908152604090205481565b610343610bb5565b348015610437575f80fd5b5060045461021a90640100000000900463ffffffff1681565b604080516020808201859052818301849052825180830384018152606090920190925280519101205b92915050565b60408051604180825261084082019092526060915f919060208201610820803683370190505090505f5b60208110156104ef578581602081106104c4576104c4611064565b835191901a908390839081106104dc576104dc611064565b60209081029190910101526001016104a9565b5060205b6040811015610543578461050860208361108c565b6020811061051857610518611064565b835191901a9083908390811061053057610530611064565b60209081029190910101526001016104f3565b5080516001600160a01b0384169081908390604090811061056657610566611064565b602090810291909101015250949350505050565b5f81810361058957505f919050565b60045463ffffffff16805b63ffffffff81165f9081526003602052604090205484036105b9575060019392505050565b8063ffffffff165f036105ca5750601e5b806105d48161109f565b9150508163ffffffff168163ffffffff160361059457505f9392505050565b60608167ffffffffffffffff81111561060e5761060e611050565b604051908082528060200260200182016040528015610637578160200160208202803683370190505b5090505f5b828110156106a65761067484848381811061065957610659611064565b905060200201355f9081526008602052604090205460ff1690565b1561069e57600182828151811061068d5761068d611064565b911515602092830291909101909101525b60010161063c565b5092915050565b6106b5610c76565b5f8181526009602052604090205460ff16156107225760405162461bcd60e51b815260206004820152602160248201527f54686520636f6d6d69746d656e7420686173206265656e207375626d697474656044820152601960fa1b60648201526084015b60405180910390fd5b5f61072c82610ca0565b5f838152600960205260409020805460ff19166001179055905061074e610e76565b6040805163ffffffff8316815242602082015283917fa945e51eec50ab98c161376f0db4cf2aeba3ec92755fe2fcd388bdbbb80ff196910160405180910390a2506107996001600555565b50565b5f815f036107cb57507f2fe54c60d3acabf3343a35b6eba15db4821b340f76e741e2249685ed4899af6c919050565b816001036107fa57507f4fc2fe9184a25f44ce8ddb5f32671fcae6d9c85ed710c199acef16ad16b29911919050565b8160020361082957507f0d826a474f851c563052d929ef0daa70f658aba9ba084f51f6e3483c13c0e59a919050565b8160030361085857507ff7761a16b5e4c0120e4c5704b910dbe18ff6162a9668ed1c2c4efde7c4f15806919050565b8160040361088757507fce9ce09a0ab259d6d14ca3dcd74e6c6b9e7d9074bff66973d4c57ccdffdb2a82919050565b816005036108b657507f02efd44c63015ff1385344e0624867775486d05e6eb1290a24976964a598003b919050565b816006036108e557507fc4dec5845d407ce2ac2e6824bb7857c4b138f819e5789d5d11e812db10c846cd919050565b8160070361091457507f5fbe3f20c23f3bd6ac347917fb0903433e0b9a48373412348240a5f919bfde19919050565b8160080361094357507f92d1b07e56b3da96b7917778cb657f2c513eaeeb4d1579a73b5ea316f25b7289919050565b8160090361097257507fa08add5656d6d3d0827ef909f7647981eac42aa1f51970a752f130f718f6d76a919050565b81600a036109a157507f1704c5f297590d8ec62776b0714f4f3f2234bae0524035342b0da8b8988ebd79919050565b81600b036109d057507fc5ae2bd47379c2c6d1189cfc3d057948dc6054caf845fcacd8f7affe94b11944919050565b81600c036109ff57507f12a161d6d5561062f387d91ad9f0f8966c0956afdb9e8325458b9e5057b82bdb919050565b81600d03610a2e57507f4ade524ba596de20bbe94507a761c45251ae7a27857ceb4287d9018525b99bc5919050565b81600e03610a5d57507f38287ad69151fa833bf4bf8b8eb6ffb39400a38f1a7e53b473f639c8c60fd5e4919050565b81600f03610a8c57507f57f2ade7d711707e785451f2aba6c95872c7fe03153a98b7327b4024e8068fa3919050565b81601003610abb57507fb1982e0d1b0de46a88d8b17941472e41a86d3ff64571ed8e0ca72d58633547fc919050565b81601103610aea57507fb7c60f8670af15eb32b4ee36727179bc085a3dde03d5f9a1486664ba576b30a6919050565b81601203610b1957507f5ff905c5c659a926b132ef3665a3de5d5a859c1d479e68851085bfc0348c5331919050565b81601303610b4857507fb4dfa78b912e98c9f7eb42d71eb537a02bf3173d44a2eb887a48b3972072dd8e919050565b81601403610b7757507f60919a16a2eb8b91cfb8ba1e5b4c155a76a14c217b5403edbd563f34e508ecdc919050565b60405162461bcd60e51b8152602060048201526013602482015272496e646578206f7574206f6620626f756e647360681b6044820152606401610719565b610bbd610c76565b60405173be34cc4cebf526887ec2c0035463dd26b3e7fea4905f90829047908381818185875af1925050503d805f8114610c12576040519150601f19603f3d011682016040523d82523d5f602084013e610c17565b606091505b5050905080610c685760405162461bcd60e51b815260206004820181905260248201527f7061796d656e7420746f2061646d696e20646964206e6f7420676f20746872756044820152606401610719565b5050610c746001600555565b565b600260055403610c9957604051633ee5aeb560e01b815260040160405180910390fd5b6002600555565b6004545f8054909163ffffffff640100000000909104811691610cc5911660026111cc565b63ffffffff168163ffffffff1603610d385760405162461bcd60e51b815260206004820152603060248201527f4d65726b6c6520747265652069732066756c6c2e204e6f206d6f7265206c656160448201526f1d995cc818d85b88189948185919195960821b6064820152608401610719565b80835f80805b5f5463ffffffff9081169082161015610dd457610d5c6002866111fc565b63ffffffff165f03610d9857839250610d7a8163ffffffff1661079c565b63ffffffff82165f9081526002602052604090208590559150610db3565b63ffffffff81165f9081526002602052604090205492508391505b610dbd8383610450565b9350610dca60028661121e565b9450600101610d3e565b506004545f90601e90610dee9063ffffffff166001611240565b610df891906111fc565b6004805463ffffffff191663ffffffff8381169182179092555f908152600360209081526040808320899055928a1682526001908190529190208a9055909150610e43908790611240565b6004805463ffffffff929092166401000000000267ffffffff000000001990921691909117905550939695505050505050565b6006543414610c745760405162461bcd60e51b815260206004820152603860248201527f506c656173652073656e6420606d697844656e6f6d696e6174696f6e6020455460448201527f4820616c6f6e672077697468207472616e73616374696f6e00000000000000006064820152608401610719565b5f60208284031215610efd575f80fd5b5035919050565b5f8060408385031215610f15575f80fd5b50508035926020909101359150565b5f805f60608486031215610f36575f80fd5b833592506020840135915060408401356001600160a01b0381168114610f5a575f80fd5b809150509250925092565b602080825282518282018190525f9190848201906040850190845b81811015610f9c57835183529284019291840191600101610f80565b50909695505050505050565b5f8060208385031215610fb9575f80fd5b823567ffffffffffffffff80821115610fd0575f80fd5b818501915085601f830112610fe3575f80fd5b813581811115610ff1575f80fd5b8660208260051b8501011115611005575f80fd5b60209290920196919550909350505050565b602080825282518282018190525f9190848201906040850190845b81811015610f9c578351151583529284019291840191600101611032565b634e487b7160e01b5f52604160045260245ffd5b634e487b7160e01b5f52603260045260245ffd5b634e487b7160e01b5f52601160045260245ffd5b8181038181111561047957610479611078565b5f63ffffffff8216806110b4576110b4611078565b5f190192915050565b600181815b808511156110fa578163ffffffff048211156110e0576110e0611078565b808516156110ed57918102915b93841c93908002906110c2565b509250929050565b5f8261111057506001610479565b8161111c57505f610479565b8160018114611132576002811461113c5761116d565b6001915050610479565b60ff84111561114d5761114d611078565b6001841b915063ffffffff82111561116757611167611078565b50610479565b5060208310610133831016604e8410600b84101617156111a4575081810a63ffffffff81111561119f5761119f611078565b610479565b6111ae83836110bd565b8063ffffffff048211156111c4576111c4611078565b029392505050565b5f63ffffffff6111e0818516828516611102565b949350505050565b634e487b7160e01b5f52601260045260245ffd5b5f63ffffffff80841680611212576112126111e8565b92169190910692915050565b5f63ffffffff80841680611234576112346111e8565b92169190910492915050565b63ffffffff8181168382160190808211156106a6576106a661107856fea264697066735822122032c26ec1a91185372f31f575e1697b041e6cfb88bfa7cebdab806beca5d1ac3e64736f6c63430008170033",
  "linkReferences": {},
  "deployedLinkReferences": {}
}