{
  "address": "0xbf3fcB0a0c17A994cc3668741da88E1f09c4e0dd",
  "abi": [
    {
      "inputs": [
        {
          "internalType": "address",
          "name": "_l1Address",
          "type": "address"
        }
      ],
      "stateMutability": "nonpayable",
      "type": "constructor"
    },
    {
      "inputs": [],
      "name": "ROOT_HISTORY_SIZE",
      "outputs": [
        {
          "internalType": "uint32",
          "name": "",
          "type": "uint32"
        }
      ],
      "stateMutability": "view",
      "type": "function"
    },
    {
      "inputs": [],
      "name": "currentRootIndex",
      "outputs": [
        {
          "internalType": "uint32",
          "name": "",
          "type": "uint32"
        }
      ],
      "stateMutability": "view",
      "type": "function"
    },
    {
      "inputs": [
        {
          "internalType": "uint256",
          "name": "key",
          "type": "uint256"
        }
      ],
      "name": "getL1Root",
      "outputs": [
        {
          "internalType": "bytes32",
          "name": "",
          "type": "bytes32"
        }
      ],
      "stateMutability": "view",
      "type": "function"
    },
    {
      "inputs": [
        {
          "internalType": "bytes32",
          "name": "_root",
          "type": "bytes32"
        }
      ],
      "name": "isKnownL2Root",
      "outputs": [
        {
          "internalType": "bool",
          "name": "",
          "type": "bool"
        }
      ],
      "stateMutability": "view",
      "type": "function"
    },
    {
      "inputs": [
        {
          "internalType": "bytes32",
          "name": "_root",
          "type": "bytes32"
        }
      ],
      "name": "isKnownRoot",
      "outputs": [
        {
          "internalType": "bool",
          "name": "",
          "type": "bool"
        }
      ],
      "stateMutability": "view",
      "type": "function"
    },
    {
      "inputs": [],
      "name": "l1Address",
      "outputs": [
        {
          "internalType": "address",
          "name": "",
          "type": "address"
        }
      ],
      "stateMutability": "view",
      "type": "function"
    },
    {
      "inputs": [
        {
          "internalType": "address",
          "name": "l1_contract",
          "type": "address"
        },
        {
          "internalType": "uint256",
          "name": "slot",
          "type": "uint256"
        }
      ],
      "name": "readSingleSlot",
      "outputs": [
        {
          "internalType": "bytes",
          "name": "",
          "type": "bytes"
        }
      ],
      "stateMutability": "view",
      "type": "function"
    }
  ],
  "transactionHash": "0x3664bd8488eb66949bd9c8d0887fa64b99921eafb863901bce644425e90650cd",
  "args": [
    "0x598666BF32AFaF4e5b16edf9f86cb3d7A413b2B1"
  ],
  "numDeployments": 9,
  "solcInputHash": "ab23f8b7552ec5b6a9e36f41bfc6632a",
  "bytecode": "0x60806040526001805463ffffffff1916905534801561001c575f80fd5b5060405161056f38038061056f83398101604081905261003b9161006b565b600180546001600160a01b0390921664010000000002600160201b600160c01b0319909216919091179055610098565b5f6020828403121561007b575f80fd5b81516001600160a01b0381168114610091575f80fd5b9392505050565b6104ca806100a55f395ff3fe608060405234801561000f575f80fd5b506004361061007a575f3560e01c806390eeb02b1161005857806390eeb02b146100eb578063c2eeeebd14610110578063cd87a3b414610143578063d0f94b551461014b575f80fd5b8063102b72e71461007e5780635032d4f1146100a75780636d9833e3146100c8575b5f80fd5b61009161008c366004610398565b61015e565b60405161009e91906103ef565b60405180910390f35b6100ba6100b5366004610421565b610243565b60405190815260200161009e565b6100db6100d6366004610421565b6102ac565b604051901515815260200161009e565b6001546100fb9063ffffffff1681565b60405163ffffffff909116815260200161009e565b60015461012b9064010000000090046001600160a01b031681565b6040516001600160a01b03909116815260200161009e565b6100fb601e81565b6100db610159366004610421565b61031f565b604051606083811b6bffffffffffffffffffffffff1916602083015260348201839052905f9060540160405160208183030381529060405290505f60606101016001600160a01b0316836040516101b59190610438565b5f60405180830381855afa9150503d805f81146101ed576040519150601f19603f3d011682016040523d82523d5f602084013e6101f2565b606091505b5090925090508161023a5760405162461bcd60e51b815260206004820152600e60248201526d130c54d313d0510819985a5b195960921b604482015260640160405180910390fd5b95945050505050565b600154604080516020810184905260039181018290525f92610292916401000000009091046001600160a01b031690606001604051602081830303815290604052805190602001205f1c61015e565b8060200190518101906102a59190610453565b9392505050565b5f8181036102bb57505f919050565b60015463ffffffff16805b6102d58163ffffffff16610243565b84036102e5575060019392505050565b8063ffffffff165f036102f65750601e5b806103008161046a565b9150508163ffffffff168163ffffffff16036102c657505f9392505050565b5f81810361032e57505f919050565b60015463ffffffff16805b63ffffffff81165f90815260208190526040902054840361035e575060019392505050565b8063ffffffff165f0361036f5750601e5b806103798161046a565b9150508163ffffffff168163ffffffff160361033957505f9392505050565b5f80604083850312156103a9575f80fd5b82356001600160a01b03811681146103bf575f80fd5b946020939093013593505050565b5f5b838110156103e75781810151838201526020016103cf565b50505f910152565b602081525f825180602084015261040d8160408501602087016103cd565b601f01601f19169190910160400192915050565b5f60208284031215610431575f80fd5b5035919050565b5f82516104498184602087016103cd565b9190910192915050565b5f60208284031215610463575f80fd5b5051919050565b5f63ffffffff82168061048b57634e487b7160e01b5f52601160045260245ffd5b5f19019291505056fea2646970667358221220dbba0b4e46c594e08f9a7f57c3ad830a306b30a93671a49163a8431eedbb048c64736f6c63430008170033",
  "devdoc": {
    "kind": "dev",
    "methods": {},
    "version": 1
  },
  "userdoc": {
    "kind": "user",
    "methods": {},
    "version": 1
  },
  "storageLayout": {
    "storage": [
      {
        "astId": 920,
        "contract": "contracts/ToadnadoL2.sol:ToadnadoL2",
        "label": "l1Roots",
        "offset": 0,
        "slot": "0",
        "type": "t_mapping(t_uint256,t_bytes32)"
      },
      {
        "astId": 926,
        "contract": "contracts/ToadnadoL2.sol:ToadnadoL2",
        "label": "currentRootIndex",
        "offset": 0,
        "slot": "1",
        "type": "t_uint32"
      },
      {
        "astId": 928,
        "contract": "contracts/ToadnadoL2.sol:ToadnadoL2",
        "label": "l1Address",
        "offset": 4,
        "slot": "1",
        "type": "t_address"
      }
    ],
    "types": {
      "t_address": {
        "encoding": "inplace",
        "label": "address",
        "numberOfBytes": "20"
      },
      "t_bytes32": {
        "encoding": "inplace",
        "label": "bytes32",
        "numberOfBytes": "32"
      },
      "t_mapping(t_uint256,t_bytes32)": {
        "encoding": "mapping",
        "key": "t_uint256",
        "label": "mapping(uint256 => bytes32)",
        "numberOfBytes": "32",
        "value": "t_bytes32"
      },
      "t_uint256": {
        "encoding": "inplace",
        "label": "uint256",
        "numberOfBytes": "32"
      },
      "t_uint32": {
        "encoding": "inplace",
        "label": "uint32",
        "numberOfBytes": "4"
      }
    }
  }
}