{
  "address": "0x6Bf8cDaa27Fec1EB57aA075490Cb0FAb3508aa90",
  "abi": [
    {
      "inputs": [
        {
          "internalType": "address",
          "name": "_l1Address",
          "type": "address"
        },
        {
          "internalType": "address",
          "name": "_verifier",
          "type": "address"
        },
        {
          "internalType": "uint256",
          "name": "_denomination",
          "type": "uint256"
        },
        {
          "internalType": "uint32",
          "name": "_merkleTreeHeight",
          "type": "uint32"
        }
      ],
      "stateMutability": "nonpayable",
      "type": "constructor"
    },
    {
      "inputs": [],
      "name": "ReentrancyGuardReentrantCall",
      "type": "error"
    },
    {
      "inputs": [],
      "name": "VerificationFailed",
      "type": "error"
    },
    {
      "anonymous": false,
      "inputs": [
        {
          "indexed": true,
          "internalType": "bytes32",
          "name": "commitment",
          "type": "bytes32"
        },
        {
          "indexed": false,
          "internalType": "uint32",
          "name": "leafIndex",
          "type": "uint32"
        },
        {
          "indexed": false,
          "internalType": "uint256",
          "name": "timestamp",
          "type": "uint256"
        }
      ],
      "name": "Deposit",
      "type": "event"
    },
    {
      "anonymous": false,
      "inputs": [
        {
          "indexed": false,
          "internalType": "address",
          "name": "recipient",
          "type": "address"
        },
        {
          "indexed": false,
          "internalType": "bytes32",
          "name": "nullifier",
          "type": "bytes32"
        }
      ],
      "name": "Withdrawal",
      "type": "event"
    },
    {
      "inputs": [],
      "name": "ROOT_HISTORY_SIZE",
      "outputs": [
        {
          "internalType": "uint32",
          "name": "",
          "type": "uint32"
        }
      ],
      "stateMutability": "view",
      "type": "function"
    },
    {
      "inputs": [
        {
          "internalType": "bytes32",
          "name": "_root",
          "type": "bytes32"
        },
        {
          "internalType": "bytes32",
          "name": "_nullifier",
          "type": "bytes32"
        },
        {
          "internalType": "address",
          "name": "_recipient",
          "type": "address"
        }
      ],
      "name": "_formatPublicInputs",
      "outputs": [
        {
          "internalType": "bytes32[]",
          "name": "",
          "type": "bytes32[]"
        }
      ],
      "stateMutability": "pure",
      "type": "function"
    },
    {
      "inputs": [],
      "name": "adminWithdraw",
      "outputs": [],
      "stateMutability": "payable",
      "type": "function"
    },
    {
      "inputs": [
        {
          "internalType": "uint256",
          "name": "",
          "type": "uint256"
        }
      ],
      "name": "commitmentLeafs",
      "outputs": [
        {
          "internalType": "bytes32",
          "name": "",
          "type": "bytes32"
        }
      ],
      "stateMutability": "view",
      "type": "function"
    },
    {
      "inputs": [
        {
          "internalType": "bytes32",
          "name": "",
          "type": "bytes32"
        }
      ],
      "name": "commitments",
      "outputs": [
        {
          "internalType": "bool",
          "name": "",
          "type": "bool"
        }
      ],
      "stateMutability": "view",
      "type": "function"
    },
    {
      "inputs": [
        {
          "internalType": "bytes32",
          "name": "",
          "type": "bytes32"
        }
      ],
      "name": "commitmentsTreeRoots",
      "outputs": [
        {
          "internalType": "bool",
          "name": "",
          "type": "bool"
        }
      ],
      "stateMutability": "view",
      "type": "function"
    },
    {
      "inputs": [],
      "name": "currentRootIndex",
      "outputs": [
        {
          "internalType": "uint32",
          "name": "",
          "type": "uint32"
        }
      ],
      "stateMutability": "view",
      "type": "function"
    },
    {
      "inputs": [],
      "name": "denomination",
      "outputs": [
        {
          "internalType": "uint256",
          "name": "",
          "type": "uint256"
        }
      ],
      "stateMutability": "view",
      "type": "function"
    },
    {
      "inputs": [
        {
          "internalType": "bytes32",
          "name": "_commitment",
          "type": "bytes32"
        }
      ],
      "name": "deposit",
      "outputs": [],
      "stateMutability": "payable",
      "type": "function"
    },
    {
      "inputs": [
        {
          "internalType": "uint256",
          "name": "",
          "type": "uint256"
        }
      ],
      "name": "filledSubtrees",
      "outputs": [
        {
          "internalType": "bytes32",
          "name": "",
          "type": "bytes32"
        }
      ],
      "stateMutability": "view",
      "type": "function"
    },
    {
      "inputs": [],
      "name": "getAllCommitments",
      "outputs": [
        {
          "internalType": "bytes32[]",
          "name": "",
          "type": "bytes32[]"
        },
        {
          "internalType": "bytes32[]",
          "name": "",
          "type": "bytes32[]"
        }
      ],
      "stateMutability": "view",
      "type": "function"
    },
    {
      "inputs": [
        {
          "internalType": "uint256",
          "name": "key",
          "type": "uint256"
        }
      ],
      "name": "getL1LeafCommitments",
      "outputs": [
        {
          "internalType": "bytes32",
          "name": "",
          "type": "bytes32"
        }
      ],
      "stateMutability": "view",
      "type": "function"
    },
    {
      "inputs": [
        {
          "internalType": "uint256",
          "name": "key",
          "type": "uint256"
        }
      ],
      "name": "getL1Root",
      "outputs": [
        {
          "internalType": "bytes32",
          "name": "",
          "type": "bytes32"
        }
      ],
      "stateMutability": "view",
      "type": "function"
    },
    {
      "inputs": [],
      "name": "getLastRoot",
      "outputs": [
        {
          "internalType": "bytes32",
          "name": "",
          "type": "bytes32"
        }
      ],
      "stateMutability": "view",
      "type": "function"
    },
    {
      "inputs": [
        {
          "internalType": "bytes32",
          "name": "_left",
          "type": "bytes32"
        },
        {
          "internalType": "bytes32",
          "name": "_right",
          "type": "bytes32"
        }
      ],
      "name": "hashLeftRight",
      "outputs": [
        {
          "internalType": "bytes32",
          "name": "",
          "type": "bytes32"
        }
      ],
      "stateMutability": "pure",
      "type": "function"
    },
    {
      "inputs": [
        {
          "internalType": "bytes32",
          "name": "_root",
          "type": "bytes32"
        }
      ],
      "name": "isKnownL1Root",
      "outputs": [
        {
          "internalType": "bool",
          "name": "",
          "type": "bool"
        }
      ],
      "stateMutability": "view",
      "type": "function"
    },
    {
      "inputs": [
        {
          "internalType": "bytes32",
          "name": "_root",
          "type": "bytes32"
        }
      ],
      "name": "isKnownRoot",
      "outputs": [
        {
          "internalType": "bool",
          "name": "",
          "type": "bool"
        }
      ],
      "stateMutability": "view",
      "type": "function"
    },
    {
      "inputs": [
        {
          "internalType": "bytes32",
          "name": "_nullifierHash",
          "type": "bytes32"
        }
      ],
      "name": "isSpent",
      "outputs": [
        {
          "internalType": "bool",
          "name": "",
          "type": "bool"
        }
      ],
      "stateMutability": "view",
      "type": "function"
    },
    {
      "inputs": [
        {
          "internalType": "bytes32[]",
          "name": "_nullifierHashes",
          "type": "bytes32[]"
        }
      ],
      "name": "isSpentArray",
      "outputs": [
        {
          "internalType": "bool[]",
          "name": "spent",
          "type": "bool[]"
        }
      ],
      "stateMutability": "view",
      "type": "function"
    },
    {
      "inputs": [],
      "name": "l1Address",
      "outputs": [
        {
          "internalType": "address",
          "name": "",
          "type": "address"
        }
      ],
      "stateMutability": "view",
      "type": "function"
    },
    {
      "inputs": [],
      "name": "l1_currentRootIndex",
      "outputs": [
        {
          "internalType": "uint32",
          "name": "",
          "type": "uint32"
        }
      ],
      "stateMutability": "view",
      "type": "function"
    },
    {
      "inputs": [],
      "name": "levels",
      "outputs": [
        {
          "internalType": "uint32",
          "name": "",
          "type": "uint32"
        }
      ],
      "stateMutability": "view",
      "type": "function"
    },
    {
      "inputs": [],
      "name": "nextIndex",
      "outputs": [
        {
          "internalType": "uint32",
          "name": "",
          "type": "uint32"
        }
      ],
      "stateMutability": "view",
      "type": "function"
    },
    {
      "inputs": [
        {
          "internalType": "bytes32",
          "name": "",
          "type": "bytes32"
        }
      ],
      "name": "nullifiers",
      "outputs": [
        {
          "internalType": "bool",
          "name": "",
          "type": "bool"
        }
      ],
      "stateMutability": "view",
      "type": "function"
    },
    {
      "inputs": [
        {
          "internalType": "address",
          "name": "l1_contract",
          "type": "address"
        },
        {
          "internalType": "uint256",
          "name": "slot",
          "type": "uint256"
        }
      ],
      "name": "readSingleSlot",
      "outputs": [
        {
          "internalType": "bytes",
          "name": "",
          "type": "bytes"
        }
      ],
      "stateMutability": "view",
      "type": "function"
    },
    {
      "inputs": [],
      "name": "receiveEth",
      "outputs": [],
      "stateMutability": "payable",
      "type": "function"
    },
    {
      "inputs": [
        {
          "internalType": "uint256",
          "name": "",
          "type": "uint256"
        }
      ],
      "name": "roots",
      "outputs": [
        {
          "internalType": "bytes32",
          "name": "",
          "type": "bytes32"
        }
      ],
      "stateMutability": "view",
      "type": "function"
    },
    {
      "inputs": [],
      "name": "verifier",
      "outputs": [
        {
          "internalType": "address",
          "name": "",
          "type": "address"
        }
      ],
      "stateMutability": "view",
      "type": "function"
    },
    {
      "inputs": [
        {
          "internalType": "bytes32",
          "name": "_root",
          "type": "bytes32"
        },
        {
          "internalType": "bytes32",
          "name": "_nullifier",
          "type": "bytes32"
        },
        {
          "internalType": "address payable",
          "name": "_recipient",
          "type": "address"
        },
        {
          "internalType": "bytes",
          "name": "snarkProof",
          "type": "bytes"
        }
      ],
      "name": "withdraw",
      "outputs": [],
      "stateMutability": "payable",
      "type": "function"
    },
    {
      "inputs": [
        {
          "internalType": "uint256",
          "name": "i",
          "type": "uint256"
        }
      ],
      "name": "zeros",
      "outputs": [
        {
          "internalType": "bytes32",
          "name": "",
          "type": "bytes32"
        }
      ],
      "stateMutability": "pure",
      "type": "function"
    }
  ],
  "transactionHash": "0x6ffe08fe133b95706d2c0714c4bac2bdc901b3f1c70d9c1588c49f670b499ba8",
  "args": [
    "0x598666BF32AFaF4e5b16edf9f86cb3d7A413b2B1",
    "0xa4762435Db7D4e405a124D531bF7aFffD15987dF",
    "10000000000000000",
    5
  ],
  "numDeployments": 31,
  "solcInputHash": "b65bac9073b19f316fec6fd6afda04a5",
  "bytecode": "0x6080604052600480546001600160401b0319169055600c805463ffffffff191690553480156200002d575f80fd5b5060405162002460380380620024608339810160408190526200005091620006b9565b828282805f8163ffffffff1611620000bb5760405162461bcd60e51b815260206004820152602360248201527f5f6c6576656c732073686f756c642062652067726561746572207468616e207a60448201526265726f60e81b60648201526084015b60405180910390fd5b60148163ffffffff1610620001135760405162461bcd60e51b815260206004820152601e60248201527f5f6c6576656c732073686f756c64206265206c657373207468616e20323000006044820152606401620000b2565b5f805463ffffffff191663ffffffff83161781555b8163ffffffff168163ffffffff1610156200016c576200014e63ffffffff821662000264565b63ffffffff82165f9081526002602052604090205560010162000128565b506200018a6200017e60018362000713565b63ffffffff1662000264565b5f805260036020527f3617319a054d772f909f7c479a2cebe5066e836a939412e32403c99029b92eff5550600160055581620002175760405162461bcd60e51b815260206004820152602560248201527f64656e6f6d696e6174696f6e2073686f756c6420626520677265617465722074604482015264068616e20360dc1b6064820152608401620000b2565b50600780546001600160a01b0319166001600160a01b03938416179055600655600c8054600160201b600160c01b0319166401000000009690921695909502179093555062000744915050565b5f815f036200029457507f2fe54c60d3acabf3343a35b6eba15db4821b340f76e741e2249685ed4899af6c919050565b81600103620002c457507f4fc2fe9184a25f44ce8ddb5f32671fcae6d9c85ed710c199acef16ad16b29911919050565b81600203620002f457507f0d826a474f851c563052d929ef0daa70f658aba9ba084f51f6e3483c13c0e59a919050565b816003036200032457507ff7761a16b5e4c0120e4c5704b910dbe18ff6162a9668ed1c2c4efde7c4f15806919050565b816004036200035457507fce9ce09a0ab259d6d14ca3dcd74e6c6b9e7d9074bff66973d4c57ccdffdb2a82919050565b816005036200038457507f02efd44c63015ff1385344e0624867775486d05e6eb1290a24976964a598003b919050565b81600603620003b457507fc4dec5845d407ce2ac2e6824bb7857c4b138f819e5789d5d11e812db10c846cd919050565b81600703620003e457507f5fbe3f20c23f3bd6ac347917fb0903433e0b9a48373412348240a5f919bfde19919050565b816008036200041457507f92d1b07e56b3da96b7917778cb657f2c513eaeeb4d1579a73b5ea316f25b7289919050565b816009036200044457507fa08add5656d6d3d0827ef909f7647981eac42aa1f51970a752f130f718f6d76a919050565b81600a036200047457507f1704c5f297590d8ec62776b0714f4f3f2234bae0524035342b0da8b8988ebd79919050565b81600b03620004a457507fc5ae2bd47379c2c6d1189cfc3d057948dc6054caf845fcacd8f7affe94b11944919050565b81600c03620004d457507f12a161d6d5561062f387d91ad9f0f8966c0956afdb9e8325458b9e5057b82bdb919050565b81600d036200050457507f4ade524ba596de20bbe94507a761c45251ae7a27857ceb4287d9018525b99bc5919050565b81600e036200053457507f38287ad69151fa833bf4bf8b8eb6ffb39400a38f1a7e53b473f639c8c60fd5e4919050565b81600f036200056457507f57f2ade7d711707e785451f2aba6c95872c7fe03153a98b7327b4024e8068fa3919050565b816010036200059457507fb1982e0d1b0de46a88d8b17941472e41a86d3ff64571ed8e0ca72d58633547fc919050565b81601103620005c457507fb7c60f8670af15eb32b4ee36727179bc085a3dde03d5f9a1486664ba576b30a6919050565b81601203620005f457507f5ff905c5c659a926b132ef3665a3de5d5a859c1d479e68851085bfc0348c5331919050565b816013036200062457507fb4dfa78b912e98c9f7eb42d71eb537a02bf3173d44a2eb887a48b3972072dd8e919050565b816014036200065457507f60919a16a2eb8b91cfb8ba1e5b4c155a76a14c217b5403edbd563f34e508ecdc919050565b60405162461bcd60e51b815260206004820152601360248201527f496e646578206f7574206f6620626f756e6473000000000000000000000000006044820152606401620000b2565b919050565b80516001600160a01b03811681146200069d575f80fd5b5f805f8060808587031215620006cd575f80fd5b620006d885620006a2565b9350620006e860208601620006a2565b925060408501519150606085015163ffffffff8116811462000708575f80fd5b939692955090935050565b63ffffffff8281168282160390808211156200073d57634e487b7160e01b5f52601160045260245ffd5b5092915050565b611d0e80620007525f395ff3fe6080604052600436106101c5575f3560e01c80638bca6d16116100f2578063c2eeeebd11610092578063e993d00b11610062578063e993d00b146105a4578063f178e47c146105c3578063f18d20be146105ee578063fc7e9c6f146105f6575f80fd5b8063c2eeeebd1461051d578063cd87a3b414610543578063e5285dcc14610557578063e829558814610585575f80fd5b80639fa12d0b116100cd5780639fa12d0b1461048b578063b214faa5146104b7578063ba70f757146104ca578063c2b40ae4146104f2575f80fd5b80638bca6d161461042f57806390eeb02b146104445780639ec4415414610460575f80fd5b806338bf282e116101685780634fe3fbf0116101385780634fe3fbf0146103975780635032d4f1146103c35780636d9833e3146103e2578063839df94514610401575f80fd5b806338bf282e146103095780633ed4eae51461035d5780634185f8eb146102115780634ecf518b1461037c575f80fd5b80632997e86b116101a35780632997e86b146102445780632b7ac3f3146102825780632c0ee3c4146102b95780633591d78d146102db575f80fd5b8063102b72e7146101c957806311a0ed1d146101fe578063164ddd0114610213575b5f80fd5b3480156101d4575f80fd5b506101e86101e336600461176b565b610619565b6040516101f591906117b7565b60405180910390f35b61021161020c3660046117e9565b610701565b005b34801561021e575f80fd5b50600c5461022f9063ffffffff1681565b60405163ffffffff90911681526020016101f5565b34801561024f575f80fd5b5061027261025e366004611877565b60086020525f908152604090205460ff1681565b60405190151581526020016101f5565b34801561028d575f80fd5b506007546102a1906001600160a01b031681565b6040516001600160a01b0390911681526020016101f5565b3480156102c4575f80fd5b506102cd610920565b6040516101f59291906118c8565b3480156102e6575f80fd5b506102726102f5366004611877565b600a6020525f908152604090205460ff1681565b348015610314575f80fd5b5061034f6103233660046118f5565b604080516020808201949094528082019290925280518083038201815260609092019052805191012090565b6040519081526020016101f5565b348015610368575f80fd5b5061034f610377366004611877565b610a69565b348015610387575f80fd5b505f5461022f9063ffffffff1681565b3480156103a2575f80fd5b506103b66103b1366004611915565b610ad4565b6040516101f5919061194b565b3480156103ce575f80fd5b5061034f6103dd366004611877565b610bd9565b3480156103ed575f80fd5b506102726103fc366004611877565b610c0f565b34801561040c575f80fd5b5061027261041b366004611877565b60096020525f908152604090205460ff1681565b34801561043a575f80fd5b5061034f60065481565b34801561044f575f80fd5b5060045461022f9063ffffffff1681565b34801561046b575f80fd5b5061034f61047a366004611877565b60016020525f908152604090205481565b348015610496575f80fd5b506104aa6104a536600461195d565b610c88565b6040516101f591906119cc565b6102116104c5366004611877565b610d42565b3480156104d5575f80fd5b5060045463ffffffff165f9081526003602052604090205461034f565b3480156104fd575f80fd5b5061034f61050c366004611877565b60036020525f908152604090205481565b348015610528575f80fd5b50600c546102a190600160201b90046001600160a01b031681565b34801561054e575f80fd5b5061022f601e81565b348015610562575f80fd5b50610272610571366004611877565b5f9081526008602052604090205460ff1690565b348015610590575f80fd5b5061034f61059f366004611877565b610e2c565b3480156105af575f80fd5b506102726105be366004611877565b611245565b3480156105ce575f80fd5b5061034f6105dd366004611877565b60026020525f908152604090205481565b6102116112e8565b348015610601575f80fd5b5060045461022f90600160201b900463ffffffff1681565b604051606083811b6bffffffffffffffffffffffff1916602083015260348201839052905f9060540160405160208183030381529060405290505f60606101016001600160a01b0316836040516106709190611a11565b5f60405180830381855afa9150503d805f81146106a8576040519150601f19603f3d011682016040523d82523d5f602084013e6106ad565b606091505b509092509050816106f65760405162461bcd60e51b815260206004820152600e60248201526d130c54d313d0510819985a5b195960921b60448201526064015b60405180910390fd5b925050505b92915050565b6107096113a7565b4662aa36a70361075b5760405162461bcd60e51b815260206004820152601d60248201527f7769746864726177616c206f6e6c7920616c6c6f776564206f6e204c3200000060448201526064016106ed565b5f8481526008602052604090205460ff16156107b95760405162461bcd60e51b815260206004820152601f60248201527f546865206e6f746520686173206265656e20616c7265616479207370656e740060448201526064016106ed565b6107c285610c0f565b61080e5760405162461bcd60e51b815260206004820152601c60248201527f43616e6e6f742066696e6420796f7572206d65726b6c6520726f6f740000000060448201526064016106ed565b5f61081a868686610ad4565b600754604051633a94343960e21b81529192506001600160a01b03169063ea50d0e49061084f90869086908690600401611a2c565b602060405180830381865afa15801561086a573d5f803e3d5ffd5b505050506040513d601f19601f8201168201806040525081019061088e9190611a72565b6108ab5760405163439cc0cd60e01b815260040160405180910390fd5b5f858152600860205260409020805460ff191660011790556108cc846113d1565b604080516001600160a01b0386168152602081018790527f0ce490531f6c8ae2f1ff174643bc8b7ed5e52987ab50dc1e8f33655d2cd8c90b910160405180910390a1506109196001600555565b5050505050565b604080516020808252610420820190925260609182915f908280820161040080368337019050506004549091505f90600160201b900463ffffffff1667ffffffffffffffff81111561097457610974611a91565b60405190808252806020026020018201604052801561099d578160200160208202803683370190505b5090505f5b60045463ffffffff600160201b909104811690821610156109f95763ffffffff81165f8181526001602052604090205483519091849181106109e6576109e6611aa5565b60209081029190910101526001016109a2565b505f5b8363ffffffff168163ffffffff161015610a5e57610a1f8163ffffffff16610a69565b15610a5e57610a338163ffffffff16610a69565b838263ffffffff1681518110610a4b57610a4b611aa5565b60209081029190910101526001016109fc565b509094909350915050565b600c54604080516020810184905260019181018290525f92610ab891600160201b9091046001600160a01b0316906060015b604051602081830303815290604052805190602001205f1c610619565b806020019051810190610acb9190611ab9565b9392505050565b565b60408051604180825261084082019092526060915f919060208201610820803683370190505090505f5b6021811015610b4e5785610b13600183611ae4565b60208110610b2357610b23611aa5565b835191901a90839083908110610b3b57610b3b611aa5565b6020908102919091010152600101610afe565b5060205b6040811015610ba25784610b67602183611ae4565b60208110610b7757610b77611aa5565b835191901a90839083908110610b8f57610b8f611aa5565b6020908102919091010152600101610b52565b5080516001600160a01b03841690819083906041908110610bc557610bc5611aa5565b602090810291909101015250949350505050565b600c54604080516020810184905260039181018290525f92610ab891600160201b9091046001600160a01b031690606001610a9b565b5f818103610c1e57505f919050565b60045463ffffffff16805b63ffffffff81165f908152600360205260409020548403610c4e575060019392505050565b8063ffffffff165f03610c5f5750601e5b80610c6981611af7565b9150508163ffffffff168163ffffffff1603610c2957505f9392505050565b60608167ffffffffffffffff811115610ca357610ca3611a91565b604051908082528060200260200182016040528015610ccc578160200160208202803683370190505b5090505f5b82811015610d3b57610d09848483818110610cee57610cee611aa5565b905060200201355f9081526008602052604090205460ff1690565b15610d33576001828281518110610d2257610d22611aa5565b911515602092830291909101909101525b600101610cd1565b5092915050565b610d4a6113a7565b5f8181526009602052604090205460ff1615610db25760405162461bcd60e51b815260206004820152602160248201527f54686520636f6d6d69746d656e7420686173206265656e207375626d697474656044820152601960fa1b60648201526084016106ed565b5f610dbc826114ee565b5f838152600960205260409020805460ff191660011790559050610dde6116e0565b6040805163ffffffff8316815242602082015283917fa945e51eec50ab98c161376f0db4cf2aeba3ec92755fe2fcd388bdbbb80ff196910160405180910390a250610e296001600555565b50565b5f815f03610e5b57507f2fe54c60d3acabf3343a35b6eba15db4821b340f76e741e2249685ed4899af6c919050565b81600103610e8a57507f4fc2fe9184a25f44ce8ddb5f32671fcae6d9c85ed710c199acef16ad16b29911919050565b81600203610eb957507f0d826a474f851c563052d929ef0daa70f658aba9ba084f51f6e3483c13c0e59a919050565b81600303610ee857507ff7761a16b5e4c0120e4c5704b910dbe18ff6162a9668ed1c2c4efde7c4f15806919050565b81600403610f1757507fce9ce09a0ab259d6d14ca3dcd74e6c6b9e7d9074bff66973d4c57ccdffdb2a82919050565b81600503610f4657507f02efd44c63015ff1385344e0624867775486d05e6eb1290a24976964a598003b919050565b81600603610f7557507fc4dec5845d407ce2ac2e6824bb7857c4b138f819e5789d5d11e812db10c846cd919050565b81600703610fa457507f5fbe3f20c23f3bd6ac347917fb0903433e0b9a48373412348240a5f919bfde19919050565b81600803610fd357507f92d1b07e56b3da96b7917778cb657f2c513eaeeb4d1579a73b5ea316f25b7289919050565b8160090361100257507fa08add5656d6d3d0827ef909f7647981eac42aa1f51970a752f130f718f6d76a919050565b81600a0361103157507f1704c5f297590d8ec62776b0714f4f3f2234bae0524035342b0da8b8988ebd79919050565b81600b0361106057507fc5ae2bd47379c2c6d1189cfc3d057948dc6054caf845fcacd8f7affe94b11944919050565b81600c0361108f57507f12a161d6d5561062f387d91ad9f0f8966c0956afdb9e8325458b9e5057b82bdb919050565b81600d036110be57507f4ade524ba596de20bbe94507a761c45251ae7a27857ceb4287d9018525b99bc5919050565b81600e036110ed57507f38287ad69151fa833bf4bf8b8eb6ffb39400a38f1a7e53b473f639c8c60fd5e4919050565b81600f0361111c57507f57f2ade7d711707e785451f2aba6c95872c7fe03153a98b7327b4024e8068fa3919050565b8160100361114b57507fb1982e0d1b0de46a88d8b17941472e41a86d3ff64571ed8e0ca72d58633547fc919050565b8160110361117a57507fb7c60f8670af15eb32b4ee36727179bc085a3dde03d5f9a1486664ba576b30a6919050565b816012036111a957507f5ff905c5c659a926b132ef3665a3de5d5a859c1d479e68851085bfc0348c5331919050565b816013036111d857507fb4dfa78b912e98c9f7eb42d71eb537a02bf3173d44a2eb887a48b3972072dd8e919050565b8160140361120757507f60919a16a2eb8b91cfb8ba1e5b4c155a76a14c217b5403edbd563f34e508ecdc919050565b60405162461bcd60e51b8152602060048201526013602482015272496e646578206f7574206f6620626f756e647360681b60448201526064016106ed565b5f600382820361125757505f92915050565b600c545f9061127690600160201b90046001600160a01b031683610619565b8060200190518101906112899190611b15565b9050805b61129c8163ffffffff16610bd9565b85036112ad57506001949350505050565b8063ffffffff165f036112be5750601e5b806112c881611af7565b9150508163ffffffff168163ffffffff160361128d57505f949350505050565b6112f06113a7565b60405173be34cc4cebf526887ec2c0035463dd26b3e7fea4905f90829047908381818185875af1925050503d805f8114611345576040519150601f19603f3d011682016040523d82523d5f602084013e61134a565b606091505b505090508061139b5760405162461bcd60e51b815260206004820181905260248201527f7061796d656e7420746f2061646d696e20646964206e6f7420676f207468727560448201526064016106ed565b5050610ad26001600555565b6002600554036113ca57604051633ee5aeb560e01b815260040160405180910390fd5b6002600555565b341561143d5760405162461bcd60e51b815260206004820152603560248201527f4d6573736167652076616c756520697320737570706f73656420746f206265206044820152747a65726f20666f722045544820696e7374616e636560581b60648201526084016106ed565b6006546040515f916001600160a01b038416918381818185875af1925050503d805f8114611486576040519150601f19603f3d011682016040523d82523d5f602084013e61148b565b606091505b50509050806114ea5760405162461bcd60e51b815260206004820152602560248201527f7061796d656e7420746f205f726563697069656e7420646964206e6f7420676f604482015264207468727560d81b60648201526084016106ed565b5050565b6004545f8054909163ffffffff600160201b90910481169161151291166002611c47565b63ffffffff168163ffffffff16036115855760405162461bcd60e51b815260206004820152603060248201527f4d65726b6c6520747265652069732066756c6c2e204e6f206d6f7265206c656160448201526f1d995cc818d85b88189948185919195960821b60648201526084016106ed565b80835f80805b5f5463ffffffff908116908216101561163f576115a9600286611c77565b63ffffffff165f036115e5578392506115c78163ffffffff16610e2c565b63ffffffff82165f9081526002602052604090208590559150611600565b63ffffffff81165f9081526002602052604090205492508391505b604080516020808201869052818301859052825180830384018152606090920190925280519101209350611635600286611c99565b945060010161158b565b506004545f90601e906116599063ffffffff166001611cbb565b6116639190611c77565b6004805463ffffffff191663ffffffff8381169182179092555f908152600360209081526040808320899055928a1682526001908190529190208a90559091506116ae908790611cbb565b6004805463ffffffff92909216600160201b0267ffffffff000000001990921691909117905550939695505050505050565b6006543414610ad25760405162461bcd60e51b815260206004820152603860248201527f506c656173652073656e6420606d697844656e6f6d696e6174696f6e6020455460448201527f4820616c6f6e672077697468207472616e73616374696f6e000000000000000060648201526084016106ed565b6001600160a01b0381168114610e29575f80fd5b5f806040838503121561177c575f80fd5b823561178781611757565b946020939093013593505050565b5f5b838110156117af578181015183820152602001611797565b50505f910152565b602081525f82518060208401526117d5816040850160208701611795565b601f01601f19169190910160400192915050565b5f805f805f608086880312156117fd575f80fd5b8535945060208601359350604086013561181681611757565b9250606086013567ffffffffffffffff80821115611832575f80fd5b818801915088601f830112611845575f80fd5b813581811115611853575f80fd5b896020828501011115611864575f80fd5b9699959850939650602001949392505050565b5f60208284031215611887575f80fd5b5035919050565b5f815180845260208085019450602084015f5b838110156118bd578151875295820195908201906001016118a1565b509495945050505050565b604081525f6118da604083018561188e565b82810360208401526118ec818561188e565b95945050505050565b5f8060408385031215611906575f80fd5b50508035926020909101359150565b5f805f60608486031215611927575f80fd5b8335925060208401359150604084013561194081611757565b809150509250925092565b602081525f610acb602083018461188e565b5f806020838503121561196e575f80fd5b823567ffffffffffffffff80821115611985575f80fd5b818501915085601f830112611998575f80fd5b8135818111156119a6575f80fd5b8660208260051b85010111156119ba575f80fd5b60209290920196919550909350505050565b602080825282518282018190525f9190848201906040850190845b81811015611a055783511515835292840192918401916001016119e7565b50909695505050505050565b5f8251611a22818460208701611795565b9190910192915050565b60408152826040820152828460608301375f606084830101525f601f19601f85011682016060838203016020840152611a68606082018561188e565b9695505050505050565b5f60208284031215611a82575f80fd5b81518015158114610acb575f80fd5b634e487b7160e01b5f52604160045260245ffd5b634e487b7160e01b5f52603260045260245ffd5b5f60208284031215611ac9575f80fd5b5051919050565b634e487b7160e01b5f52601160045260245ffd5b818103818111156106fb576106fb611ad0565b5f63ffffffff821680611b0c57611b0c611ad0565b5f190192915050565b5f60208284031215611b25575f80fd5b815163ffffffff81168114610acb575f80fd5b600181815b80851115611b75578163ffffffff04821115611b5b57611b5b611ad0565b80851615611b6857918102915b93841c9390800290611b3d565b509250929050565b5f82611b8b575060016106fb565b81611b9757505f6106fb565b8160018114611bad5760028114611bb757611be8565b60019150506106fb565b60ff841115611bc857611bc8611ad0565b6001841b915063ffffffff821115611be257611be2611ad0565b506106fb565b5060208310610133831016604e8410600b8410161715611c1f575081810a63ffffffff811115611c1a57611c1a611ad0565b6106fb565b611c298383611b38565b8063ffffffff04821115611c3f57611c3f611ad0565b029392505050565b5f63ffffffff611c5b818516828516611b7d565b949350505050565b634e487b7160e01b5f52601260045260245ffd5b5f63ffffffff80841680611c8d57611c8d611c63565b92169190910692915050565b5f63ffffffff80841680611caf57611caf611c63565b92169190910492915050565b63ffffffff818116838216019080821115610d3b57610d3b611ad056fea2646970667358221220bcf5474e412498ae67d5c6d6e77a59b34e7f97c7e08d36560b3e02cffe0cf2f864736f6c63430008170033",
  "devdoc": {
    "errors": {
      "ReentrancyGuardReentrantCall()": [
        {
          "details": "Unauthorized reentrant call."
        }
      ]
    },
    "kind": "dev",
    "methods": {
      "getLastRoot()": {
        "details": "Returns the last root"
      },
      "hashLeftRight(bytes32,bytes32)": {
        "details": "Hash 2 tree leaves, returns keccak256(_left, _right)"
      },
      "isKnownRoot(bytes32)": {
        "details": "Whether the root is present in the root history"
      },
      "isSpent(bytes32)": {
        "details": "whether a note is already spent "
      },
      "isSpentArray(bytes32[])": {
        "details": "whether an array of notes is already spent "
      },
      "zeros(uint256)": {
        "details": "provides Zero (Empty) elements for a MiMC MerkleTree. Up to 32 levels"
      }
    },
    "version": 1
  },
  "userdoc": {
    "kind": "user",
    "methods": {},
    "version": 1
  },
  "storageLayout": {
    "storage": [
      {
        "astId": 72,
        "contract": "contracts/ToadnadoL2.sol:ToadnadoL2",
        "label": "levels",
        "offset": 0,
        "slot": "0",
        "type": "t_uint32"
      },
      {
        "astId": 76,
        "contract": "contracts/ToadnadoL2.sol:ToadnadoL2",
        "label": "commitmentLeafs",
        "offset": 0,
        "slot": "1",
        "type": "t_mapping(t_uint256,t_bytes32)"
      },
      {
        "astId": 80,
        "contract": "contracts/ToadnadoL2.sol:ToadnadoL2",
        "label": "filledSubtrees",
        "offset": 0,
        "slot": "2",
        "type": "t_mapping(t_uint256,t_bytes32)"
      },
      {
        "astId": 84,
        "contract": "contracts/ToadnadoL2.sol:ToadnadoL2",
        "label": "roots",
        "offset": 0,
        "slot": "3",
        "type": "t_mapping(t_uint256,t_bytes32)"
      },
      {
        "astId": 90,
        "contract": "contracts/ToadnadoL2.sol:ToadnadoL2",
        "label": "currentRootIndex",
        "offset": 0,
        "slot": "4",
        "type": "t_uint32"
      },
      {
        "astId": 93,
        "contract": "contracts/ToadnadoL2.sol:ToadnadoL2",
        "label": "nextIndex",
        "offset": 4,
        "slot": "4",
        "type": "t_uint32"
      },
      {
        "astId": 10,
        "contract": "contracts/ToadnadoL2.sol:ToadnadoL2",
        "label": "_status",
        "offset": 0,
        "slot": "5",
        "type": "t_uint256"
      },
      {
        "astId": 583,
        "contract": "contracts/ToadnadoL2.sol:ToadnadoL2",
        "label": "denomination",
        "offset": 0,
        "slot": "6",
        "type": "t_uint256"
      },
      {
        "astId": 613,
        "contract": "contracts/ToadnadoL2.sol:ToadnadoL2",
        "label": "verifier",
        "offset": 0,
        "slot": "7",
        "type": "t_address"
      },
      {
        "astId": 617,
        "contract": "contracts/ToadnadoL2.sol:ToadnadoL2",
        "label": "nullifiers",
        "offset": 0,
        "slot": "8",
        "type": "t_mapping(t_bytes32,t_bool)"
      },
      {
        "astId": 621,
        "contract": "contracts/ToadnadoL2.sol:ToadnadoL2",
        "label": "commitments",
        "offset": 0,
        "slot": "9",
        "type": "t_mapping(t_bytes32,t_bool)"
      },
      {
        "astId": 625,
        "contract": "contracts/ToadnadoL2.sol:ToadnadoL2",
        "label": "commitmentsTreeRoots",
        "offset": 0,
        "slot": "10",
        "type": "t_mapping(t_bytes32,t_bool)"
      },
      {
        "astId": 1036,
        "contract": "contracts/ToadnadoL2.sol:ToadnadoL2",
        "label": "l1Roots",
        "offset": 0,
        "slot": "11",
        "type": "t_mapping(t_uint256,t_bytes32)"
      },
      {
        "astId": 1039,
        "contract": "contracts/ToadnadoL2.sol:ToadnadoL2",
        "label": "l1_currentRootIndex",
        "offset": 0,
        "slot": "12",
        "type": "t_uint32"
      },
      {
        "astId": 1041,
        "contract": "contracts/ToadnadoL2.sol:ToadnadoL2",
        "label": "l1Address",
        "offset": 4,
        "slot": "12",
        "type": "t_address"
      }
    ],
    "types": {
      "t_address": {
        "encoding": "inplace",
        "label": "address",
        "numberOfBytes": "20"
      },
      "t_bool": {
        "encoding": "inplace",
        "label": "bool",
        "numberOfBytes": "1"
      },
      "t_bytes32": {
        "encoding": "inplace",
        "label": "bytes32",
        "numberOfBytes": "32"
      },
      "t_mapping(t_bytes32,t_bool)": {
        "encoding": "mapping",
        "key": "t_bytes32",
        "label": "mapping(bytes32 => bool)",
        "numberOfBytes": "32",
        "value": "t_bool"
      },
      "t_mapping(t_uint256,t_bytes32)": {
        "encoding": "mapping",
        "key": "t_uint256",
        "label": "mapping(uint256 => bytes32)",
        "numberOfBytes": "32",
        "value": "t_bytes32"
      },
      "t_uint256": {
        "encoding": "inplace",
        "label": "uint256",
        "numberOfBytes": "32"
      },
      "t_uint32": {
        "encoding": "inplace",
        "label": "uint32",
        "numberOfBytes": "4"
      }
    }
  }
}