{
  "_format": "hh-sol-artifact-1",
  "contractName": "ToadnadoL1",
  "sourceName": "contracts/ToadnadoL1.sol",
  "abi": [
    {
      "inputs": [
        {
          "internalType": "address",
          "name": "_verifier",
          "type": "address"
        },
        {
          "internalType": "uint256",
          "name": "_denomination",
          "type": "uint256"
        },
        {
          "internalType": "uint32",
          "name": "_merkleTreeHeight",
          "type": "uint32"
        }
      ],
      "stateMutability": "nonpayable",
      "type": "constructor"
    },
    {
      "inputs": [],
      "name": "ReentrancyGuardReentrantCall",
      "type": "error"
    },
    {
      "anonymous": false,
      "inputs": [
        {
          "indexed": true,
          "internalType": "bytes32",
          "name": "commitment",
          "type": "bytes32"
        },
        {
          "indexed": false,
          "internalType": "uint32",
          "name": "leafIndex",
          "type": "uint32"
        },
        {
          "indexed": false,
          "internalType": "uint256",
          "name": "timestamp",
          "type": "uint256"
        }
      ],
      "name": "Deposit",
      "type": "event"
    },
    {
      "inputs": [],
      "name": "ROOT_HISTORY_SIZE",
      "outputs": [
        {
          "internalType": "uint32",
          "name": "",
          "type": "uint32"
        }
      ],
      "stateMutability": "view",
      "type": "function"
    },
    {
      "inputs": [
        {
          "internalType": "bytes32",
          "name": "_root",
          "type": "bytes32"
        },
        {
          "internalType": "bytes32",
          "name": "_nullifier",
          "type": "bytes32"
        },
        {
          "internalType": "address",
          "name": "_recipient",
          "type": "address"
        },
        {
          "internalType": "uint256",
          "name": "_chainId",
          "type": "uint256"
        }
      ],
      "name": "_formatPublicInputs",
      "outputs": [
        {
          "internalType": "bytes32[]",
          "name": "",
          "type": "bytes32[]"
        }
      ],
      "stateMutability": "pure",
      "type": "function"
    },
    {
      "inputs": [],
      "name": "adminWithdraw",
      "outputs": [],
      "stateMutability": "payable",
      "type": "function"
    },
    {
      "inputs": [
        {
          "internalType": "uint256",
          "name": "",
          "type": "uint256"
        }
      ],
      "name": "commitmentLeafs",
      "outputs": [
        {
          "internalType": "bytes32",
          "name": "",
          "type": "bytes32"
        }
      ],
      "stateMutability": "view",
      "type": "function"
    },
    {
      "inputs": [
        {
          "internalType": "bytes32",
          "name": "",
          "type": "bytes32"
        }
      ],
      "name": "commitments",
      "outputs": [
        {
          "internalType": "bool",
          "name": "",
          "type": "bool"
        }
      ],
      "stateMutability": "view",
      "type": "function"
    },
    {
      "inputs": [
        {
          "internalType": "bytes32",
          "name": "",
          "type": "bytes32"
        }
      ],
      "name": "commitmentsTreeRoots",
      "outputs": [
        {
          "internalType": "bool",
          "name": "",
          "type": "bool"
        }
      ],
      "stateMutability": "view",
      "type": "function"
    },
    {
      "inputs": [],
      "name": "currentRootIndex",
      "outputs": [
        {
          "internalType": "uint32",
          "name": "",
          "type": "uint32"
        }
      ],
      "stateMutability": "view",
      "type": "function"
    },
    {
      "inputs": [],
      "name": "denomination",
      "outputs": [
        {
          "internalType": "uint256",
          "name": "",
          "type": "uint256"
        }
      ],
      "stateMutability": "view",
      "type": "function"
    },
    {
      "inputs": [
        {
          "internalType": "bytes32",
          "name": "_commitment",
          "type": "bytes32"
        }
      ],
      "name": "deposit",
      "outputs": [],
      "stateMutability": "payable",
      "type": "function"
    },
    {
      "inputs": [
        {
          "internalType": "uint256",
          "name": "",
          "type": "uint256"
        }
      ],
      "name": "filledSubtrees",
      "outputs": [
        {
          "internalType": "bytes32",
          "name": "",
          "type": "bytes32"
        }
      ],
      "stateMutability": "view",
      "type": "function"
    },
    {
      "inputs": [],
      "name": "getLastRoot",
      "outputs": [
        {
          "internalType": "bytes32",
          "name": "",
          "type": "bytes32"
        }
      ],
      "stateMutability": "view",
      "type": "function"
    },
    {
      "inputs": [
        {
          "internalType": "bytes32",
          "name": "_left",
          "type": "bytes32"
        },
        {
          "internalType": "bytes32",
          "name": "_right",
          "type": "bytes32"
        }
      ],
      "name": "hashLeftRight",
      "outputs": [
        {
          "internalType": "bytes32",
          "name": "",
          "type": "bytes32"
        }
      ],
      "stateMutability": "pure",
      "type": "function"
    },
    {
      "inputs": [
        {
          "internalType": "bytes32",
          "name": "_root",
          "type": "bytes32"
        }
      ],
      "name": "isKnownRoot",
      "outputs": [
        {
          "internalType": "bool",
          "name": "",
          "type": "bool"
        }
      ],
      "stateMutability": "view",
      "type": "function"
    },
    {
      "inputs": [
        {
          "internalType": "bytes32",
          "name": "_nullifierHash",
          "type": "bytes32"
        }
      ],
      "name": "isSpent",
      "outputs": [
        {
          "internalType": "bool",
          "name": "",
          "type": "bool"
        }
      ],
      "stateMutability": "view",
      "type": "function"
    },
    {
      "inputs": [
        {
          "internalType": "bytes32[]",
          "name": "_nullifierHashes",
          "type": "bytes32[]"
        }
      ],
      "name": "isSpentArray",
      "outputs": [
        {
          "internalType": "bool[]",
          "name": "spent",
          "type": "bool[]"
        }
      ],
      "stateMutability": "view",
      "type": "function"
    },
    {
      "inputs": [],
      "name": "levels",
      "outputs": [
        {
          "internalType": "uint32",
          "name": "",
          "type": "uint32"
        }
      ],
      "stateMutability": "view",
      "type": "function"
    },
    {
      "inputs": [],
      "name": "nextIndex",
      "outputs": [
        {
          "internalType": "uint32",
          "name": "",
          "type": "uint32"
        }
      ],
      "stateMutability": "view",
      "type": "function"
    },
    {
      "inputs": [
        {
          "internalType": "bytes32",
          "name": "",
          "type": "bytes32"
        }
      ],
      "name": "nullifiers",
      "outputs": [
        {
          "internalType": "bool",
          "name": "",
          "type": "bool"
        }
      ],
      "stateMutability": "view",
      "type": "function"
    },
    {
      "inputs": [
        {
          "internalType": "uint256",
          "name": "",
          "type": "uint256"
        }
      ],
      "name": "roots",
      "outputs": [
        {
          "internalType": "bytes32",
          "name": "",
          "type": "bytes32"
        }
      ],
      "stateMutability": "view",
      "type": "function"
    },
    {
      "inputs": [],
      "name": "verifier",
      "outputs": [
        {
          "internalType": "address",
          "name": "",
          "type": "address"
        }
      ],
      "stateMutability": "view",
      "type": "function"
    },
    {
      "inputs": [
        {
          "internalType": "uint256",
          "name": "i",
          "type": "uint256"
        }
      ],
      "name": "zeros",
      "outputs": [
        {
          "internalType": "bytes32",
          "name": "",
          "type": "bytes32"
        }
      ],
      "stateMutability": "pure",
      "type": "function"
    },
    {
      "stateMutability": "payable",
      "type": "receive"
    }
  ],
  "bytecode": "0x6080604052600480546001600160401b031916905534801562000020575f80fd5b506040516200199438038062001994833981016040819052620000439162000666565b828282805f8163ffffffff1611620000ae5760405162461bcd60e51b815260206004820152602360248201527f5f6c6576656c732073686f756c642062652067726561746572207468616e207a60448201526265726f60e81b60648201526084015b60405180910390fd5b60148163ffffffff1610620001065760405162461bcd60e51b815260206004820152601e60248201527f5f6c6576656c732073686f756c64206265206c657373207468616e20323000006044820152606401620000a5565b5f805463ffffffff191663ffffffff83161781555b8163ffffffff168163ffffffff1610156200015f576200014163ffffffff82166200022d565b63ffffffff82165f908152600260205260409020556001016200011b565b506200017163ffffffff82166200022d565b5f805260036020527f3617319a054d772f909f7c479a2cebe5066e836a939412e32403c99029b92eff5550600160055581620001fe5760405162461bcd60e51b815260206004820152602560248201527f64656e6f6d696e6174696f6e2073686f756c6420626520677265617465722074604482015264068616e20360dc1b6064820152608401620000a5565b50600780546001600160a01b0319166001600160a01b03939093169290921790915560065550620006bc915050565b5f815f036200025d57507f2fe54c60d3acabf3343a35b6eba15db4821b340f76e741e2249685ed4899af6c919050565b816001036200028d57507f4fc2fe9184a25f44ce8ddb5f32671fcae6d9c85ed710c199acef16ad16b29911919050565b81600203620002bd57507f0d826a474f851c563052d929ef0daa70f658aba9ba084f51f6e3483c13c0e59a919050565b81600303620002ed57507ff7761a16b5e4c0120e4c5704b910dbe18ff6162a9668ed1c2c4efde7c4f15806919050565b816004036200031d57507fce9ce09a0ab259d6d14ca3dcd74e6c6b9e7d9074bff66973d4c57ccdffdb2a82919050565b816005036200034d57507f02efd44c63015ff1385344e0624867775486d05e6eb1290a24976964a598003b919050565b816006036200037d57507fc4dec5845d407ce2ac2e6824bb7857c4b138f819e5789d5d11e812db10c846cd919050565b81600703620003ad57507f5fbe3f20c23f3bd6ac347917fb0903433e0b9a48373412348240a5f919bfde19919050565b81600803620003dd57507f92d1b07e56b3da96b7917778cb657f2c513eaeeb4d1579a73b5ea316f25b7289919050565b816009036200040d57507fa08add5656d6d3d0827ef909f7647981eac42aa1f51970a752f130f718f6d76a919050565b81600a036200043d57507f1704c5f297590d8ec62776b0714f4f3f2234bae0524035342b0da8b8988ebd79919050565b81600b036200046d57507fc5ae2bd47379c2c6d1189cfc3d057948dc6054caf845fcacd8f7affe94b11944919050565b81600c036200049d57507f12a161d6d5561062f387d91ad9f0f8966c0956afdb9e8325458b9e5057b82bdb919050565b81600d03620004cd57507f4ade524ba596de20bbe94507a761c45251ae7a27857ceb4287d9018525b99bc5919050565b81600e03620004fd57507f38287ad69151fa833bf4bf8b8eb6ffb39400a38f1a7e53b473f639c8c60fd5e4919050565b81600f036200052d57507f57f2ade7d711707e785451f2aba6c95872c7fe03153a98b7327b4024e8068fa3919050565b816010036200055d57507fb1982e0d1b0de46a88d8b17941472e41a86d3ff64571ed8e0ca72d58633547fc919050565b816011036200058d57507fb7c60f8670af15eb32b4ee36727179bc085a3dde03d5f9a1486664ba576b30a6919050565b81601203620005bd57507f5ff905c5c659a926b132ef3665a3de5d5a859c1d479e68851085bfc0348c5331919050565b81601303620005ed57507fb4dfa78b912e98c9f7eb42d71eb537a02bf3173d44a2eb887a48b3972072dd8e919050565b816014036200061d57507f60919a16a2eb8b91cfb8ba1e5b4c155a76a14c217b5403edbd563f34e508ecdc919050565b60405162461bcd60e51b815260206004820152601360248201527f496e646578206f7574206f6620626f756e6473000000000000000000000000006044820152606401620000a5565b5f805f6060848603121562000679575f80fd5b83516001600160a01b038116811462000690575f80fd5b60208501516040860151919450925063ffffffff81168114620006b1575f80fd5b809150509250925092565b6112ca80620006ca5f395ff3fe608060405260043610610129575f3560e01c80639ec44154116100a8578063cd87a3b41161006d578063cd87a3b4146103a6578063e5285dcc146103ba578063e8295588146103e8578063f178e47c14610407578063f18d20be14610432578063fc7e9c6f1461043a575f80fd5b80639ec44154146102e75780639fa12d0b14610312578063b214faa51461033e578063ba70f75714610353578063c2b40ae41461037b575f80fd5b80634ecf518b116100ee5780634ecf518b146102395780636d9833e314610269578063839df945146102885780638bca6d16146102b657806390eeb02b146102cb575f80fd5b806326627210146101345780632997e86b146101695780632b7ac3f3146101a75780633591d78d146101de57806338bf282e1461020c575f80fd5b3661013057005b5f80fd5b34801561013f575f80fd5b5061015361014e366004610f1e565b61045e565b6040516101609190610f65565b60405180910390f35b348015610174575f80fd5b50610197610183366004610fa8565b60086020525f908152604090205460ff1681565b6040519015158152602001610160565b3480156101b2575f80fd5b506007546101c6906001600160a01b031681565b6040516001600160a01b039091168152602001610160565b3480156101e9575f80fd5b506101976101f8366004610fa8565b600a6020525f908152604090205460ff1681565b348015610217575f80fd5b5061022b610226366004610fbf565b61057c565b604051908152602001610160565b348015610244575f80fd5b505f546102549063ffffffff1681565b60405163ffffffff9091168152602001610160565b348015610274575f80fd5b50610197610283366004610fa8565b6105ab565b348015610293575f80fd5b506101976102a2366004610fa8565b60096020525f908152604090205460ff1681565b3480156102c1575f80fd5b5061022b60065481565b3480156102d6575f80fd5b506004546102549063ffffffff1681565b3480156102f2575f80fd5b5061022b610301366004610fa8565b60016020525f908152604090205481565b34801561031d575f80fd5b5061033161032c366004610fdf565b610624565b604051610160919061104e565b61035161034c366004610fa8565b6106de565b005b34801561035e575f80fd5b5060045463ffffffff165f9081526003602052604090205461022b565b348015610386575f80fd5b5061022b610395366004610fa8565b60036020525f908152604090205481565b3480156103b1575f80fd5b50610254601e81565b3480156103c5575f80fd5b506101976103d4366004610fa8565b5f9081526008602052604090205460ff1690565b3480156103f3575f80fd5b5061022b610402366004610fa8565b6107cd565b348015610412575f80fd5b5061022b610421366004610fa8565b60026020525f908152604090205481565b610351610be6565b348015610445575f80fd5b5060045461025490640100000000900463ffffffff1681565b60408051604280825261086082019092526060915f919060208201610840803683370190505090505f5b60208110156104ce578681602081106104a3576104a361109b565b835191901a908390839081106104bb576104bb61109b565b6020908102919091010152600101610488565b5060205b604081101561052257856104e76020836110c3565b602081106104f7576104f761109b565b835191901a9083908390811061050f5761050f61109b565b60209081029190910101526001016104d2565b5080516001600160a01b038516908190839060409081106105455761054561109b565b602002602001018181525050835f1b826041815181106105675761056761109b565b60209081029190910101525095945050505050565b604080516020808201859052818301849052825180830384018152606090920190925280519101205b92915050565b5f8181036105ba57505f919050565b60045463ffffffff16805b63ffffffff81165f9081526003602052604090205484036105ea575060019392505050565b8063ffffffff165f036105fb5750601e5b80610605816110d6565b9150508163ffffffff168163ffffffff16036105c557505f9392505050565b60608167ffffffffffffffff81111561063f5761063f611087565b604051908082528060200260200182016040528015610668578160200160208202803683370190505b5090505f5b828110156106d7576106a584848381811061068a5761068a61109b565b905060200201355f9081526008602052604090205460ff1690565b156106cf5760018282815181106106be576106be61109b565b911515602092830291909101909101525b60010161066d565b5092915050565b6106e6610ca7565b5f8181526009602052604090205460ff16156107535760405162461bcd60e51b815260206004820152602160248201527f54686520636f6d6d69746d656e7420686173206265656e207375626d697474656044820152601960fa1b60648201526084015b60405180910390fd5b5f61075d82610cd1565b5f838152600960205260409020805460ff19166001179055905061077f610ea7565b6040805163ffffffff8316815242602082015283917fa945e51eec50ab98c161376f0db4cf2aeba3ec92755fe2fcd388bdbbb80ff196910160405180910390a2506107ca6001600555565b50565b5f815f036107fc57507f2fe54c60d3acabf3343a35b6eba15db4821b340f76e741e2249685ed4899af6c919050565b8160010361082b57507f4fc2fe9184a25f44ce8ddb5f32671fcae6d9c85ed710c199acef16ad16b29911919050565b8160020361085a57507f0d826a474f851c563052d929ef0daa70f658aba9ba084f51f6e3483c13c0e59a919050565b8160030361088957507ff7761a16b5e4c0120e4c5704b910dbe18ff6162a9668ed1c2c4efde7c4f15806919050565b816004036108b857507fce9ce09a0ab259d6d14ca3dcd74e6c6b9e7d9074bff66973d4c57ccdffdb2a82919050565b816005036108e757507f02efd44c63015ff1385344e0624867775486d05e6eb1290a24976964a598003b919050565b8160060361091657507fc4dec5845d407ce2ac2e6824bb7857c4b138f819e5789d5d11e812db10c846cd919050565b8160070361094557507f5fbe3f20c23f3bd6ac347917fb0903433e0b9a48373412348240a5f919bfde19919050565b8160080361097457507f92d1b07e56b3da96b7917778cb657f2c513eaeeb4d1579a73b5ea316f25b7289919050565b816009036109a357507fa08add5656d6d3d0827ef909f7647981eac42aa1f51970a752f130f718f6d76a919050565b81600a036109d257507f1704c5f297590d8ec62776b0714f4f3f2234bae0524035342b0da8b8988ebd79919050565b81600b03610a0157507fc5ae2bd47379c2c6d1189cfc3d057948dc6054caf845fcacd8f7affe94b11944919050565b81600c03610a3057507f12a161d6d5561062f387d91ad9f0f8966c0956afdb9e8325458b9e5057b82bdb919050565b81600d03610a5f57507f4ade524ba596de20bbe94507a761c45251ae7a27857ceb4287d9018525b99bc5919050565b81600e03610a8e57507f38287ad69151fa833bf4bf8b8eb6ffb39400a38f1a7e53b473f639c8c60fd5e4919050565b81600f03610abd57507f57f2ade7d711707e785451f2aba6c95872c7fe03153a98b7327b4024e8068fa3919050565b81601003610aec57507fb1982e0d1b0de46a88d8b17941472e41a86d3ff64571ed8e0ca72d58633547fc919050565b81601103610b1b57507fb7c60f8670af15eb32b4ee36727179bc085a3dde03d5f9a1486664ba576b30a6919050565b81601203610b4a57507f5ff905c5c659a926b132ef3665a3de5d5a859c1d479e68851085bfc0348c5331919050565b81601303610b7957507fb4dfa78b912e98c9f7eb42d71eb537a02bf3173d44a2eb887a48b3972072dd8e919050565b81601403610ba857507f60919a16a2eb8b91cfb8ba1e5b4c155a76a14c217b5403edbd563f34e508ecdc919050565b60405162461bcd60e51b8152602060048201526013602482015272496e646578206f7574206f6620626f756e647360681b604482015260640161074a565b610bee610ca7565b60405173be34cc4cebf526887ec2c0035463dd26b3e7fea4905f90829047908381818185875af1925050503d805f8114610c43576040519150601f19603f3d011682016040523d82523d5f602084013e610c48565b606091505b5050905080610c995760405162461bcd60e51b815260206004820181905260248201527f7061796d656e7420746f2061646d696e20646964206e6f7420676f2074687275604482015260640161074a565b5050610ca56001600555565b565b600260055403610cca57604051633ee5aeb560e01b815260040160405180910390fd5b6002600555565b6004545f8054909163ffffffff640100000000909104811691610cf691166002611203565b63ffffffff168163ffffffff1603610d695760405162461bcd60e51b815260206004820152603060248201527f4d65726b6c6520747265652069732066756c6c2e204e6f206d6f7265206c656160448201526f1d995cc818d85b88189948185919195960821b606482015260840161074a565b80835f80805b5f5463ffffffff9081169082161015610e0557610d8d600286611233565b63ffffffff165f03610dc957839250610dab8163ffffffff166107cd565b63ffffffff82165f9081526002602052604090208590559150610de4565b63ffffffff81165f9081526002602052604090205492508391505b610dee838361057c565b9350610dfb600286611255565b9450600101610d6f565b506004545f90601e90610e1f9063ffffffff166001611277565b610e299190611233565b6004805463ffffffff191663ffffffff8381169182179092555f908152600360209081526040808320899055928a1682526001908190529190208a9055909150610e74908790611277565b6004805463ffffffff929092166401000000000267ffffffff000000001990921691909117905550939695505050505050565b6006543414610ca55760405162461bcd60e51b815260206004820152603860248201527f506c656173652073656e6420606d697844656e6f6d696e6174696f6e6020455460448201527f4820616c6f6e672077697468207472616e73616374696f6e0000000000000000606482015260840161074a565b5f805f8060808587031215610f31575f80fd5b843593506020850135925060408501356001600160a01b0381168114610f55575f80fd5b9396929550929360600135925050565b602080825282518282018190525f9190848201906040850190845b81811015610f9c57835183529284019291840191600101610f80565b50909695505050505050565b5f60208284031215610fb8575f80fd5b5035919050565b5f8060408385031215610fd0575f80fd5b50508035926020909101359150565b5f8060208385031215610ff0575f80fd5b823567ffffffffffffffff80821115611007575f80fd5b818501915085601f83011261101a575f80fd5b813581811115611028575f80fd5b8660208260051b850101111561103c575f80fd5b60209290920196919550909350505050565b602080825282518282018190525f9190848201906040850190845b81811015610f9c578351151583529284019291840191600101611069565b634e487b7160e01b5f52604160045260245ffd5b634e487b7160e01b5f52603260045260245ffd5b634e487b7160e01b5f52601160045260245ffd5b818103818111156105a5576105a56110af565b5f63ffffffff8216806110eb576110eb6110af565b5f190192915050565b600181815b80851115611131578163ffffffff04821115611117576111176110af565b8085161561112457918102915b93841c93908002906110f9565b509250929050565b5f82611147575060016105a5565b8161115357505f6105a5565b81600181146111695760028114611173576111a4565b60019150506105a5565b60ff841115611184576111846110af565b6001841b915063ffffffff82111561119e5761119e6110af565b506105a5565b5060208310610133831016604e8410600b84101617156111db575081810a63ffffffff8111156111d6576111d66110af565b6105a5565b6111e583836110f4565b8063ffffffff048211156111fb576111fb6110af565b029392505050565b5f63ffffffff611217818516828516611139565b949350505050565b634e487b7160e01b5f52601260045260245ffd5b5f63ffffffff808416806112495761124961121f565b92169190910692915050565b5f63ffffffff8084168061126b5761126b61121f565b92169190910492915050565b63ffffffff8181168382160190808211156106d7576106d76110af56fea26469706673582212203b3568ed75ac6dfd9d00eede77a4699fcea68cad62a64b5a1ba1daa45d3be59164736f6c63430008170033",
  "linkReferences": {},
  "deployedLinkReferences": {}
}