{
  "_format": "hh-sol-artifact-1",
  "contractName": "ToadnadoL1",
  "sourceName": "contracts/ToadnadoL1.sol",
  "abi": [
    {
      "inputs": [
        {
          "internalType": "address",
          "name": "_verifier",
          "type": "address"
        },
        {
          "internalType": "uint256",
          "name": "_denomination",
          "type": "uint256"
        },
        {
          "internalType": "uint32",
          "name": "_merkleTreeHeight",
          "type": "uint32"
        },
        {
          "internalType": "address",
          "name": "_l1ScrollMessenger",
          "type": "address"
        }
      ],
      "stateMutability": "nonpayable",
      "type": "constructor"
    },
    {
      "inputs": [
        {
          "internalType": "address",
          "name": "owner",
          "type": "address"
        }
      ],
      "name": "OwnableInvalidOwner",
      "type": "error"
    },
    {
      "inputs": [
        {
          "internalType": "address",
          "name": "account",
          "type": "address"
        }
      ],
      "name": "OwnableUnauthorizedAccount",
      "type": "error"
    },
    {
      "inputs": [],
      "name": "ReentrancyGuardReentrantCall",
      "type": "error"
    },
    {
      "inputs": [],
      "name": "VerificationFailed",
      "type": "error"
    },
    {
      "anonymous": false,
      "inputs": [
        {
          "indexed": true,
          "internalType": "bytes32",
          "name": "commitment",
          "type": "bytes32"
        },
        {
          "indexed": false,
          "internalType": "uint32",
          "name": "leafIndex",
          "type": "uint32"
        },
        {
          "indexed": false,
          "internalType": "uint256",
          "name": "timestamp",
          "type": "uint256"
        }
      ],
      "name": "Deposit",
      "type": "event"
    },
    {
      "anonymous": false,
      "inputs": [
        {
          "indexed": true,
          "internalType": "address",
          "name": "previousOwner",
          "type": "address"
        },
        {
          "indexed": true,
          "internalType": "address",
          "name": "newOwner",
          "type": "address"
        }
      ],
      "name": "OwnershipTransferred",
      "type": "event"
    },
    {
      "anonymous": false,
      "inputs": [
        {
          "indexed": false,
          "internalType": "address",
          "name": "recipient",
          "type": "address"
        },
        {
          "indexed": false,
          "internalType": "bytes32",
          "name": "nullifier",
          "type": "bytes32"
        }
      ],
      "name": "PendingWithdrawal",
      "type": "event"
    },
    {
      "anonymous": false,
      "inputs": [
        {
          "indexed": false,
          "internalType": "address",
          "name": "recipient",
          "type": "address"
        },
        {
          "indexed": false,
          "internalType": "bytes32",
          "name": "nullifier",
          "type": "bytes32"
        }
      ],
      "name": "Withdrawal",
      "type": "event"
    },
    {
      "inputs": [],
      "name": "ROOT_HISTORY_SIZE",
      "outputs": [
        {
          "internalType": "uint32",
          "name": "",
          "type": "uint32"
        }
      ],
      "stateMutability": "view",
      "type": "function"
    },
    {
      "inputs": [
        {
          "internalType": "bytes32",
          "name": "_root",
          "type": "bytes32"
        }
      ],
      "name": "addL2Root",
      "outputs": [],
      "stateMutability": "nonpayable",
      "type": "function"
    },
    {
      "inputs": [],
      "name": "bridgeDebt",
      "outputs": [
        {
          "internalType": "uint256",
          "name": "",
          "type": "uint256"
        }
      ],
      "stateMutability": "view",
      "type": "function"
    },
    {
      "inputs": [
        {
          "internalType": "uint256",
          "name": "_amount",
          "type": "uint256"
        },
        {
          "internalType": "uint256",
          "name": "gasLimit",
          "type": "uint256"
        }
      ],
      "name": "bridgeEth",
      "outputs": [],
      "stateMutability": "nonpayable",
      "type": "function"
    },
    {
      "inputs": [
        {
          "internalType": "uint256",
          "name": "",
          "type": "uint256"
        }
      ],
      "name": "commitmentLeafs",
      "outputs": [
        {
          "internalType": "bytes32",
          "name": "",
          "type": "bytes32"
        }
      ],
      "stateMutability": "view",
      "type": "function"
    },
    {
      "inputs": [
        {
          "internalType": "bytes32",
          "name": "",
          "type": "bytes32"
        }
      ],
      "name": "commitments",
      "outputs": [
        {
          "internalType": "bool",
          "name": "",
          "type": "bool"
        }
      ],
      "stateMutability": "view",
      "type": "function"
    },
    {
      "inputs": [
        {
          "internalType": "bytes32",
          "name": "",
          "type": "bytes32"
        }
      ],
      "name": "commitmentsTreeRoots",
      "outputs": [
        {
          "internalType": "bool",
          "name": "",
          "type": "bool"
        }
      ],
      "stateMutability": "view",
      "type": "function"
    },
    {
      "inputs": [],
      "name": "currentRootIndex",
      "outputs": [
        {
          "internalType": "uint32",
          "name": "",
          "type": "uint32"
        }
      ],
      "stateMutability": "view",
      "type": "function"
    },
    {
      "inputs": [],
      "name": "denomination",
      "outputs": [
        {
          "internalType": "uint256",
          "name": "",
          "type": "uint256"
        }
      ],
      "stateMutability": "view",
      "type": "function"
    },
    {
      "inputs": [
        {
          "internalType": "bytes32",
          "name": "_commitment",
          "type": "bytes32"
        }
      ],
      "name": "deposit",
      "outputs": [],
      "stateMutability": "payable",
      "type": "function"
    },
    {
      "inputs": [],
      "name": "ethPendingWithdrawals",
      "outputs": [
        {
          "internalType": "uint256",
          "name": "",
          "type": "uint256"
        }
      ],
      "stateMutability": "view",
      "type": "function"
    },
    {
      "inputs": [
        {
          "internalType": "uint256",
          "name": "",
          "type": "uint256"
        }
      ],
      "name": "filledSubtrees",
      "outputs": [
        {
          "internalType": "bytes32",
          "name": "",
          "type": "bytes32"
        }
      ],
      "stateMutability": "view",
      "type": "function"
    },
    {
      "inputs": [],
      "name": "getLastRoot",
      "outputs": [
        {
          "internalType": "bytes32",
          "name": "",
          "type": "bytes32"
        }
      ],
      "stateMutability": "view",
      "type": "function"
    },
    {
      "inputs": [
        {
          "internalType": "bytes32",
          "name": "_left",
          "type": "bytes32"
        },
        {
          "internalType": "bytes32",
          "name": "_right",
          "type": "bytes32"
        }
      ],
      "name": "hashLeftRight",
      "outputs": [
        {
          "internalType": "bytes32",
          "name": "",
          "type": "bytes32"
        }
      ],
      "stateMutability": "pure",
      "type": "function"
    },
    {
      "inputs": [
        {
          "internalType": "bytes32",
          "name": "_root",
          "type": "bytes32"
        }
      ],
      "name": "isKnownL1Root",
      "outputs": [
        {
          "internalType": "bool",
          "name": "",
          "type": "bool"
        }
      ],
      "stateMutability": "view",
      "type": "function"
    },
    {
      "inputs": [
        {
          "internalType": "bytes32",
          "name": "_root",
          "type": "bytes32"
        }
      ],
      "name": "isKnownL2Root",
      "outputs": [
        {
          "internalType": "bool",
          "name": "",
          "type": "bool"
        }
      ],
      "stateMutability": "view",
      "type": "function"
    },
    {
      "inputs": [
        {
          "internalType": "bytes32",
          "name": "_nullifierHash",
          "type": "bytes32"
        }
      ],
      "name": "isSpent",
      "outputs": [
        {
          "internalType": "bool",
          "name": "",
          "type": "bool"
        }
      ],
      "stateMutability": "view",
      "type": "function"
    },
    {
      "inputs": [
        {
          "internalType": "bytes32[]",
          "name": "_nullifierHashes",
          "type": "bytes32[]"
        }
      ],
      "name": "isSpentArray",
      "outputs": [
        {
          "internalType": "bool[]",
          "name": "spent",
          "type": "bool[]"
        }
      ],
      "stateMutability": "view",
      "type": "function"
    },
    {
      "inputs": [],
      "name": "l1ScrollMessenger",
      "outputs": [
        {
          "internalType": "address",
          "name": "",
          "type": "address"
        }
      ],
      "stateMutability": "view",
      "type": "function"
    },
    {
      "inputs": [],
      "name": "l2ScrollToadnadoAddress",
      "outputs": [
        {
          "internalType": "address",
          "name": "",
          "type": "address"
        }
      ],
      "stateMutability": "view",
      "type": "function"
    },
    {
      "inputs": [],
      "name": "levels",
      "outputs": [
        {
          "internalType": "uint32",
          "name": "",
          "type": "uint32"
        }
      ],
      "stateMutability": "view",
      "type": "function"
    },
    {
      "inputs": [],
      "name": "nextIndex",
      "outputs": [
        {
          "internalType": "uint32",
          "name": "",
          "type": "uint32"
        }
      ],
      "stateMutability": "view",
      "type": "function"
    },
    {
      "inputs": [
        {
          "internalType": "bytes32",
          "name": "",
          "type": "bytes32"
        }
      ],
      "name": "nullifiers",
      "outputs": [
        {
          "internalType": "bool",
          "name": "",
          "type": "bool"
        }
      ],
      "stateMutability": "view",
      "type": "function"
    },
    {
      "inputs": [],
      "name": "owner",
      "outputs": [
        {
          "internalType": "address",
          "name": "",
          "type": "address"
        }
      ],
      "stateMutability": "view",
      "type": "function"
    },
    {
      "inputs": [],
      "name": "recieveBridgedEth",
      "outputs": [],
      "stateMutability": "payable",
      "type": "function"
    },
    {
      "inputs": [],
      "name": "renounceOwnership",
      "outputs": [],
      "stateMutability": "nonpayable",
      "type": "function"
    },
    {
      "inputs": [
        {
          "internalType": "uint256",
          "name": "gasLimit",
          "type": "uint256"
        }
      ],
      "name": "requestEthBridge",
      "outputs": [],
      "stateMutability": "nonpayable",
      "type": "function"
    },
    {
      "inputs": [
        {
          "internalType": "uint256",
          "name": "",
          "type": "uint256"
        }
      ],
      "name": "roots",
      "outputs": [
        {
          "internalType": "bytes32",
          "name": "",
          "type": "bytes32"
        }
      ],
      "stateMutability": "view",
      "type": "function"
    },
    {
      "inputs": [
        {
          "internalType": "address",
          "name": "_l2ScrollToadnadoAddress",
          "type": "address"
        }
      ],
      "name": "setL2ScrollToadnadoAddress",
      "outputs": [],
      "stateMutability": "nonpayable",
      "type": "function"
    },
    {
      "inputs": [
        {
          "internalType": "address",
          "name": "newOwner",
          "type": "address"
        }
      ],
      "name": "transferOwnership",
      "outputs": [],
      "stateMutability": "nonpayable",
      "type": "function"
    },
    {
      "inputs": [],
      "name": "verifier",
      "outputs": [
        {
          "internalType": "address",
          "name": "",
          "type": "address"
        }
      ],
      "stateMutability": "view",
      "type": "function"
    },
    {
      "inputs": [
        {
          "internalType": "bytes32",
          "name": "_l1root",
          "type": "bytes32"
        },
        {
          "internalType": "bytes32",
          "name": "_l2root",
          "type": "bytes32"
        },
        {
          "internalType": "bytes32",
          "name": "_nullifier",
          "type": "bytes32"
        },
        {
          "internalType": "address payable",
          "name": "_recipient",
          "type": "address"
        },
        {
          "internalType": "bytes",
          "name": "snarkProof",
          "type": "bytes"
        }
      ],
      "name": "withdraw",
      "outputs": [],
      "stateMutability": "payable",
      "type": "function"
    },
    {
      "inputs": [
        {
          "internalType": "bytes32",
          "name": "_nullifier",
          "type": "bytes32"
        }
      ],
      "name": "withdrawPending",
      "outputs": [],
      "stateMutability": "nonpayable",
      "type": "function"
    },
    {
      "inputs": [
        {
          "internalType": "uint256",
          "name": "i",
          "type": "uint256"
        }
      ],
      "name": "zeros",
      "outputs": [
        {
          "internalType": "bytes32",
          "name": "",
          "type": "bytes32"
        }
      ],
      "stateMutability": "pure",
      "type": "function"
    }
  ],
  "bytecode": "0x60e0604052600480546001600160401b03191690555f600a819055600b5534801562000029575f80fd5b5060405162002bb438038062002bb48339810160408190526200004c9162000705565b33848484805f8163ffffffff1611620000b85760405162461bcd60e51b815260206004820152602360248201527f5f6c6576656c732073686f756c642062652067726561746572207468616e207a60448201526265726f60e81b60648201526084015b60405180910390fd5b60148163ffffffff1610620001105760405162461bcd60e51b815260206004820152601e60248201527f5f6c6576656c732073686f756c64206265206c657373207468616e20323000006044820152606401620000af565b5f805463ffffffff191663ffffffff83161781555b8163ffffffff168163ffffffff16101562000169576200014b63ffffffff82166200025f565b63ffffffff82165f9081526002602052604090205560010162000125565b506200017b63ffffffff82166200025f565b5f805260036020527f3617319a054d772f909f7c479a2cebe5066e836a939412e32403c99029b92eff5550600160055581620002085760405162461bcd60e51b815260206004820152602560248201527f64656e6f6d696e6174696f6e2073686f756c6420626520677265617465722074604482015264068616e20360dc1b6064820152608401620000af565b506001600160a01b0391821660a05260805281166200023d57604051631e4fbdf760e01b81525f6004820152602401620000af565b62000248816200069d565b506001600160a01b031660c052506200075f915050565b5f815f036200028f57507f2fe54c60d3acabf3343a35b6eba15db4821b340f76e741e2249685ed4899af6c919050565b81600103620002bf57507f4fc2fe9184a25f44ce8ddb5f32671fcae6d9c85ed710c199acef16ad16b29911919050565b81600203620002ef57507f0d826a474f851c563052d929ef0daa70f658aba9ba084f51f6e3483c13c0e59a919050565b816003036200031f57507ff7761a16b5e4c0120e4c5704b910dbe18ff6162a9668ed1c2c4efde7c4f15806919050565b816004036200034f57507fce9ce09a0ab259d6d14ca3dcd74e6c6b9e7d9074bff66973d4c57ccdffdb2a82919050565b816005036200037f57507f02efd44c63015ff1385344e0624867775486d05e6eb1290a24976964a598003b919050565b81600603620003af57507fc4dec5845d407ce2ac2e6824bb7857c4b138f819e5789d5d11e812db10c846cd919050565b81600703620003df57507f5fbe3f20c23f3bd6ac347917fb0903433e0b9a48373412348240a5f919bfde19919050565b816008036200040f57507f92d1b07e56b3da96b7917778cb657f2c513eaeeb4d1579a73b5ea316f25b7289919050565b816009036200043f57507fa08add5656d6d3d0827ef909f7647981eac42aa1f51970a752f130f718f6d76a919050565b81600a036200046f57507f1704c5f297590d8ec62776b0714f4f3f2234bae0524035342b0da8b8988ebd79919050565b81600b036200049f57507fc5ae2bd47379c2c6d1189cfc3d057948dc6054caf845fcacd8f7affe94b11944919050565b81600c03620004cf57507f12a161d6d5561062f387d91ad9f0f8966c0956afdb9e8325458b9e5057b82bdb919050565b81600d03620004ff57507f4ade524ba596de20bbe94507a761c45251ae7a27857ceb4287d9018525b99bc5919050565b81600e036200052f57507f38287ad69151fa833bf4bf8b8eb6ffb39400a38f1a7e53b473f639c8c60fd5e4919050565b81600f036200055f57507f57f2ade7d711707e785451f2aba6c95872c7fe03153a98b7327b4024e8068fa3919050565b816010036200058f57507fb1982e0d1b0de46a88d8b17941472e41a86d3ff64571ed8e0ca72d58633547fc919050565b81601103620005bf57507fb7c60f8670af15eb32b4ee36727179bc085a3dde03d5f9a1486664ba576b30a6919050565b81601203620005ef57507f5ff905c5c659a926b132ef3665a3de5d5a859c1d479e68851085bfc0348c5331919050565b816013036200061f57507fb4dfa78b912e98c9f7eb42d71eb537a02bf3173d44a2eb887a48b3972072dd8e919050565b816014036200064f57507f60919a16a2eb8b91cfb8ba1e5b4c155a76a14c217b5403edbd563f34e508ecdc919050565b60405162461bcd60e51b815260206004820152601360248201527f496e646578206f7574206f6620626f756e6473000000000000000000000000006044820152606401620000af565b919050565b600c80546001600160a01b038381166001600160a01b0319831681179093556040519116919082907f8be0079c531659141344cd1fd0a4f28419497f9722a3daafe3b4186f6b6457e0905f90a35050565b80516001600160a01b038116811462000698575f80fd5b5f805f806080858703121562000719575f80fd5b6200072485620006ee565b935060208501519250604085015163ffffffff8116811462000744575f80fd5b91506200075460608601620006ee565b905092959194509250565b60805160a05160c0516123d6620007de5f395f8181610494015281816107030152818161076a01528181610e3701528181610ec101528181610f1f015281816114b60152818161150d015281816115b1015261167e01525f81816102a3015261097d01525f81816103d1015281816118b20152611c7901526123d65ff3fe6080604052600436106101f1575f3560e01c8063a98f704411610108578063d0f94b551161009d578063e993d00b1161006d578063e993d00b1461061d578063f178e47c1461063c578063f2fde38b14610667578063f8af86e714610686578063fc7e9c6f146106a5575f80fd5b8063d0f94b551461058d578063db394bb9146105bb578063e5285dcc146105d0578063e8295588146105fe575f80fd5b8063c2b40ae4116100d8578063c2b40ae414610510578063c9ca7a611461053b578063cd87a3b41461055a578063d051212f1461056e575f80fd5b8063a98f704414610483578063adbdeaf3146104b6578063b214faa5146104d5578063ba70f757146104e8575f80fd5b806350241a3f116101895780638bca6d16116101595780638bca6d16146103c05780638da5cb5b146103f357806390eeb02b146104105780639ec441541461042c5780639fa12d0b14610457575f80fd5b806350241a3f1461034c578063715018a61461035f5780637d7f923214610373578063839df94514610392575f80fd5b80633591d78d116101c45780633591d78d146102c557806338bf282e146102f357806339da4b55146103125780634ecf518b1461031c575f80fd5b80630b2f37fa146101f55780631b5844ff146102315780632997e86b146102545780632b7ac3f314610292575b5f80fd5b348015610200575f80fd5b50600d54610214906001600160a01b031681565b6040516001600160a01b0390911681526020015b60405180910390f35b34801561023c575f80fd5b50610246600b5481565b604051908152602001610228565b34801561025f575f80fd5b5061028261026e366004611deb565b60066020525f908152604090205460ff1681565b6040519015158152602001610228565b34801561029d575f80fd5b506102147f000000000000000000000000000000000000000000000000000000000000000081565b3480156102d0575f80fd5b506102826102df366004611deb565b60086020525f908152604090205460ff1681565b3480156102fe575f80fd5b5061024661030d366004611e02565b6106c9565b61031a6106f8565b005b348015610327575f80fd5b505f546103379063ffffffff1681565b60405163ffffffff9091168152602001610228565b61031a61035a366004611e36565b610815565b34801561036a575f80fd5b5061031a610a49565b34801561037e575f80fd5b5061031a61038d366004611deb565b610a5c565b34801561039d575f80fd5b506102826103ac366004611deb565b60076020525f908152604090205460ff1681565b3480156103cb575f80fd5b506102467f000000000000000000000000000000000000000000000000000000000000000081565b3480156103fe575f80fd5b50600c546001600160a01b0316610214565b34801561041b575f80fd5b506004546103379063ffffffff1681565b348015610437575f80fd5b50610246610446366004611deb565b60016020525f908152604090205481565b348015610462575f80fd5b50610476610471366004611ecf565b610ba7565b6040516102289190611f3e565b34801561048e575f80fd5b506102147f000000000000000000000000000000000000000000000000000000000000000081565b3480156104c1575f80fd5b5061031a6104d0366004611f83565b610c61565b61031a6104e3366004611deb565b610cf3565b3480156104f3575f80fd5b5060045463ffffffff165f90815260036020526040902054610246565b34801561051b575f80fd5b5061024661052a366004611deb565b60036020525f908152604090205481565b348015610546575f80fd5b5061031a610555366004611deb565b610de5565b348015610565575f80fd5b50610337601e81565b348015610579575f80fd5b5061031a610588366004611deb565b610eb6565b348015610598575f80fd5b506102826105a7366004611deb565b5f908152600e602052604090205460ff1690565b3480156105c6575f80fd5b50610246600a5481565b3480156105db575f80fd5b506102826105ea366004611deb565b5f9081526006602052604090205460ff1690565b348015610609575f80fd5b50610246610618366004611deb565b610fcc565b348015610628575f80fd5b50610282610637366004611deb565b6113e5565b348015610647575f80fd5b50610246610656366004611deb565b60026020525f908152604090205481565b348015610672575f80fd5b5061031a610681366004611f83565b6113ef565b348015610691575f80fd5b5061031a6106a0366004611e02565b611429565b3480156106b0575f80fd5b5060045461033790640100000000900463ffffffff1681565b604080516020808201859052818301849052825180830384018152606090920190925280519101205b92915050565b336001600160a01b037f000000000000000000000000000000000000000000000000000000000000000016146107495760405162461bcd60e51b815260040161074090611fa5565b60405180910390fd5b600d5460408051636e296e4560e01b815290516001600160a01b03928316927f00000000000000000000000000000000000000000000000000000000000000001691636e296e459160048083019260209291908290030181865afa1580156107b3573d5f803e3d5ffd5b505050506040513d601f19601f820116820180604052508101906107d79190611fed565b6001600160a01b0316146107fd5760405162461bcd60e51b815260040161074090612008565b34600b5f82825461080e9190612079565b9091555050565b61081d6116f9565b5f8481526006602052604090205460ff161561087b5760405162461bcd60e51b815260206004820152601f60248201527f546865206e6f746520686173206265656e20616c7265616479207370656e74006044820152606401610740565b5f858152600e602052604090205460ff166108d85760405162461bcd60e51b815260206004820152601f60248201527f43616e6e6f742066696e6420796f7572206c32206d65726b6c6520726f6f74006044820152606401610740565b6108e1866113e5565b61092d5760405162461bcd60e51b815260206004820152601f60248201527f43616e6e6f742066696e6420796f7572206c31206d65726b6c6520726f6f74006044820152606401610740565b60408051602080820189905281830188905282518083038401815260609092019092528051910120465f61096383888885611723565b604051633a94343960e21b81529091506001600160a01b037f0000000000000000000000000000000000000000000000000000000000000000169063ea50d0e4906109b69088908890869060040161208c565b602060405180830381865afa1580156109d1573d5f803e3d5ffd5b505050506040513d601f19601f820116820180604052508101906109f59190612104565b610a125760405163439cc0cd60e01b815260040160405180910390fd5b5f878152600660205260409020805460ff19166001179055610a348688611841565b505050610a416001600555565b505050505050565b610a51611a23565b610a5a5f611a50565b565b5f81815260096020908152604091829020825160608101845281546001600160a01b031681526001808301549382019390935260029091015460ff1615159281018390529114610aee5760405162461bcd60e51b815260206004820181905260248201527f5468697320776974686472617720697320616c726561647920636c61696d65646044820152606401610740565b5f8281526009602090815260408220600201805460ff19169055820151600b805491929091610b1e908490612123565b9091555050805160208201516040516001600160a01b039092169181156108fc0291905f818181858888f19350505050158015610b5d573d5f803e3d5ffd5b508051604080516001600160a01b039092168252602082018490527f0ce490531f6c8ae2f1ff174643bc8b7ed5e52987ab50dc1e8f33655d2cd8c90b910160405180910390a15050565b60608167ffffffffffffffff811115610bc257610bc2612136565b604051908082528060200260200182016040528015610beb578160200160208202803683370190505b5090505f5b82811015610c5a57610c28848483818110610c0d57610c0d61214a565b905060200201355f9081526006602052604090205460ff1690565b15610c52576001828281518110610c4157610c4161214a565b911515602092830291909101909101525b600101610bf0565b5092915050565b610c69611a23565b600d546001600160a01b031615610cd15760405162461bcd60e51b815260206004820152602660248201527f6c325363726f6c6c546f61646e61646f4164647265737320697320616c726561604482015265191e481cd95d60d21b6064820152608401610740565b600d80546001600160a01b0319166001600160a01b0392909216919091179055565b610cfb6116f9565b5f8181526007602052604090205460ff1615610d6b5760405162461bcd60e51b815260206004820152602960248201527f54686520636f6d6d69746d656e742068617320616c7265616479206265656e206044820152681cdd589b5a5d1d195960ba1b6064820152608401610740565b5f610d7582611aa1565b5f838152600760205260409020805460ff191660011790559050610d97611c77565b6040805163ffffffff8316815242602082015283917fa945e51eec50ab98c161376f0db4cf2aeba3ec92755fe2fcd388bdbbb80ff196910160405180910390a250610de26001600555565b50565b600a54600d546040805160248101849052604480820186905282518083039091018152606490910182526020810180516001600160e01b031663f8af86e760e01b1790529051635f7b157760e01b81527f0000000000000000000000000000000000000000000000000000000000000000926001600160a01b0380851693635f7b1577935f93610e7f93169184918a9033906004016121a1565b5f604051808303818588803b158015610e96575f80fd5b505af1158015610ea8573d5f803e3d5ffd5b50505f600a55505050505050565b336001600160a01b037f00000000000000000000000000000000000000000000000000000000000000001614610efe5760405162461bcd60e51b815260040161074090611fa5565b600d5460408051636e296e4560e01b815290516001600160a01b03928316927f00000000000000000000000000000000000000000000000000000000000000001691636e296e459160048083019260209291908290030181865afa158015610f68573d5f803e3d5ffd5b505050506040513d601f19601f82011682018060405250810190610f8c9190611fed565b6001600160a01b031614610fb25760405162461bcd60e51b815260040161074090612008565b5f908152600e60205260409020805460ff19166001179055565b5f815f03610ffb57507f2fe54c60d3acabf3343a35b6eba15db4821b340f76e741e2249685ed4899af6c919050565b8160010361102a57507f4fc2fe9184a25f44ce8ddb5f32671fcae6d9c85ed710c199acef16ad16b29911919050565b8160020361105957507f0d826a474f851c563052d929ef0daa70f658aba9ba084f51f6e3483c13c0e59a919050565b8160030361108857507ff7761a16b5e4c0120e4c5704b910dbe18ff6162a9668ed1c2c4efde7c4f15806919050565b816004036110b757507fce9ce09a0ab259d6d14ca3dcd74e6c6b9e7d9074bff66973d4c57ccdffdb2a82919050565b816005036110e657507f02efd44c63015ff1385344e0624867775486d05e6eb1290a24976964a598003b919050565b8160060361111557507fc4dec5845d407ce2ac2e6824bb7857c4b138f819e5789d5d11e812db10c846cd919050565b8160070361114457507f5fbe3f20c23f3bd6ac347917fb0903433e0b9a48373412348240a5f919bfde19919050565b8160080361117357507f92d1b07e56b3da96b7917778cb657f2c513eaeeb4d1579a73b5ea316f25b7289919050565b816009036111a257507fa08add5656d6d3d0827ef909f7647981eac42aa1f51970a752f130f718f6d76a919050565b81600a036111d157507f1704c5f297590d8ec62776b0714f4f3f2234bae0524035342b0da8b8988ebd79919050565b81600b0361120057507fc5ae2bd47379c2c6d1189cfc3d057948dc6054caf845fcacd8f7affe94b11944919050565b81600c0361122f57507f12a161d6d5561062f387d91ad9f0f8966c0956afdb9e8325458b9e5057b82bdb919050565b81600d0361125e57507f4ade524ba596de20bbe94507a761c45251ae7a27857ceb4287d9018525b99bc5919050565b81600e0361128d57507f38287ad69151fa833bf4bf8b8eb6ffb39400a38f1a7e53b473f639c8c60fd5e4919050565b81600f036112bc57507f57f2ade7d711707e785451f2aba6c95872c7fe03153a98b7327b4024e8068fa3919050565b816010036112eb57507fb1982e0d1b0de46a88d8b17941472e41a86d3ff64571ed8e0ca72d58633547fc919050565b8160110361131a57507fb7c60f8670af15eb32b4ee36727179bc085a3dde03d5f9a1486664ba576b30a6919050565b8160120361134957507f5ff905c5c659a926b132ef3665a3de5d5a859c1d479e68851085bfc0348c5331919050565b8160130361137857507fb4dfa78b912e98c9f7eb42d71eb537a02bf3173d44a2eb887a48b3972072dd8e919050565b816014036113a757507f60919a16a2eb8b91cfb8ba1e5b4c155a76a14c217b5403edbd563f34e508ecdc919050565b60405162461bcd60e51b8152602060048201526013602482015272496e646578206f7574206f6620626f756e647360681b6044820152606401610740565b5f6106f282611d0c565b6113f7611a23565b6001600160a01b03811661142057604051631e4fbdf760e01b81525f6004820152602401610740565b610de281611a50565b600b546114369047612123565b8211156114ab5760405162461bcd60e51b815260206004820152603e60248201527f6e6f7420656e6f7567682065746820696e20636f6e74726163742028636f6e7360448201527f69646572696e672065746850656e64696e675769746864726177616c732900006064820152608401610740565b336001600160a01b037f000000000000000000000000000000000000000000000000000000000000000016146114f35760405162461bcd60e51b815260040161074090611fa5565b600d54611508906001600160a01b0316611d85565b6115907f00000000000000000000000000000000000000000000000000000000000000006001600160a01b0316636e296e456040518163ffffffff1660e01b8152600401602060405180830381865afa158015611567573d5f803e3d5ffd5b505050506040513d601f19601f8201168201806040525081019061158b9190611fed565b611d85565b600d5460408051636e296e4560e01b815290516001600160a01b03928316927f00000000000000000000000000000000000000000000000000000000000000001691636e296e459160048083019260209291908290030181865afa1580156115fa573d5f803e3d5ffd5b505050506040513d601f19601f8201168201806040525081019061161e9190611fed565b6001600160a01b0316146116445760405162461bcd60e51b815260040161074090612008565b600d546040805160048082526024820183526020820180516001600160e01b03166339da4b5560e01b1790529151635f7b157760e01b81527f0000000000000000000000000000000000000000000000000000000000000000936001600160a01b0380861694635f7b15779489946116c6949093169285928a913391016121a1565b5f604051808303818588803b1580156116dd575f80fd5b505af11580156116ef573d5f803e3d5ffd5b5050505050505050565b60026005540361171c57604051633ee5aeb560e01b815260040160405180910390fd5b6002600555565b60408051604280825261086082019092526060915f919060208201610840803683370190505090505f5b6020811015611793578681602081106117685761176861214a565b835191901a908390839081106117805761178061214a565b602090810291909101015260010161174d565b5060205b60408110156117e757856117ac602083612123565b602081106117bc576117bc61214a565b835191901a908390839081106117d4576117d461214a565b6020908102919091010152600101611797565b5080516001600160a01b0385169081908390604090811061180a5761180a61214a565b602002602001018181525050835f1b8260418151811061182c5761182c61214a565b60209081029190910101525095945050505050565b34156118ad5760405162461bcd60e51b815260206004820152603560248201527f4d6573736167652076616c756520697320737570706f73656420746f206265206044820152747a65726f20666f722045544820696e7374616e636560581b6064820152608401610740565b600b547f00000000000000000000000000000000000000000000000000000000000000009081906118de9047612123565b1061195e57604080516001600160a01b0385168152602081018490527f0ce490531f6c8ae2f1ff174643bc8b7ed5e52987ab50dc1e8f33655d2cd8c90b910160405180910390a16040516001600160a01b0384169082156108fc029083905f818181858888f19350505050158015611958573d5f803e3d5ffd5b50505050565b604080516001600160a01b0385168152602081018490527f09af5d80016d1c2f289791412c4d5d7d42fecce9295ce18c7395fdddd98d4d00910160405180910390a1604080516060810182526001600160a01b038581168252602080830185815260018486018181525f8981526009909452958320945185546001600160a01b0319169416939093178455519183019190915591516002909101805460ff1916911515919091179055600a8054839290611a19908490612079565b9091555050505050565b600c546001600160a01b03163314610a5a5760405163118cdaa760e01b8152336004820152602401610740565b600c80546001600160a01b038381166001600160a01b0319831681179093556040519116919082907f8be0079c531659141344cd1fd0a4f28419497f9722a3daafe3b4186f6b6457e0905f90a35050565b6004545f8054909163ffffffff640100000000909104811691611ac6911660026122f1565b63ffffffff168163ffffffff1603611b395760405162461bcd60e51b815260206004820152603060248201527f4d65726b6c6520747265652069732066756c6c2e204e6f206d6f7265206c656160448201526f1d995cc818d85b88189948185919195960821b6064820152608401610740565b80835f80805b5f5463ffffffff9081169082161015611bd557611b5d600286612321565b63ffffffff165f03611b9957839250611b7b8163ffffffff16610fcc565b63ffffffff82165f9081526002602052604090208590559150611bb4565b63ffffffff81165f9081526002602052604090205492508391505b611bbe83836106c9565b9350611bcb600286612343565b9450600101611b3f565b506004545f90601e90611bef9063ffffffff166001612365565b611bf99190612321565b6004805463ffffffff191663ffffffff8381169182179092555f908152600360209081526040808320899055928a1682526001908190529190208a9055909150611c44908790612365565b6004805463ffffffff929092166401000000000267ffffffff000000001990921691909117905550939695505050505050565b7f00000000000000000000000000000000000000000000000000000000000000003414610a5a5760405162461bcd60e51b815260206004820152603860248201527f506c656173652073656e6420606d697844656e6f6d696e6174696f6e6020455460448201527f4820616c6f6e672077697468207472616e73616374696f6e00000000000000006064820152608401610740565b5f818103611d1b57505f919050565b60045463ffffffff16805b63ffffffff81165f908152600360205260409020548403611d4b575060019392505050565b8063ffffffff165f03611d5c5750601e5b80611d6681612382565b9150508163ffffffff168163ffffffff1603611d2657505f9392505050565b6040516001600160a01b0382166024820152610de29060440160408051601f198184030181529190526020810180516001600160e01b031663161765e160e11b179052610de2815f6a636f6e736f6c652e6c6f6790505f80835160208501845afa505050565b5f60208284031215611dfb575f80fd5b5035919050565b5f8060408385031215611e13575f80fd5b50508035926020909101359150565b6001600160a01b0381168114610de2575f80fd5b5f805f805f8060a08789031215611e4b575f80fd5b8635955060208701359450604087013593506060870135611e6b81611e22565b9250608087013567ffffffffffffffff80821115611e87575f80fd5b818901915089601f830112611e9a575f80fd5b813581811115611ea8575f80fd5b8a6020828501011115611eb9575f80fd5b6020830194508093505050509295509295509295565b5f8060208385031215611ee0575f80fd5b823567ffffffffffffffff80821115611ef7575f80fd5b818501915085601f830112611f0a575f80fd5b813581811115611f18575f80fd5b8660208260051b8501011115611f2c575f80fd5b60209290920196919550909350505050565b602080825282518282018190525f9190848201906040850190845b81811015611f77578351151583529284019291840191600101611f59565b50909695505050505050565b5f60208284031215611f93575f80fd5b8135611f9e81611e22565b9392505050565b60208082526028908201527f66756e6374696f6e206e6f742063616c6c6564206279206c315363726f6c6c4d60408201526732b9b9b2b733b2b960c11b606082015260800190565b5f60208284031215611ffd575f80fd5b8151611f9e81611e22565b6020808252603d908201527f636f6e7472616374206d6573736167696e672066726f6d204c32206973206e6f60408201527f7420746865206c32546f61646e61646f5363726f6c6c41646472657373000000606082015260800190565b634e487b7160e01b5f52601160045260245ffd5b808201808211156106f2576106f2612065565b60408152826040820152828460608301375f606084830101525f601f19601f850116820160608101602060608584030160208601528186518084526080850191506020880194505f93505b808410156120f757845182529382019360019390930192908201906120d7565b5098975050505050505050565b5f60208284031215612114575f80fd5b81518015158114611f9e575f80fd5b818103818111156106f2576106f2612065565b634e487b7160e01b5f52604160045260245ffd5b634e487b7160e01b5f52603260045260245ffd5b5f81518084525f5b8181101561218257602081850181015186830182015201612166565b505f602082860101526020601f19601f83011685010191505092915050565b5f60018060a01b03808816835286602084015260a060408401526121c860a084018761215e565b606084019590955292909216608090910152509392505050565b600181815b8085111561221f578163ffffffff0482111561220557612205612065565b8085161561221257918102915b93841c93908002906121e7565b509250929050565b5f82612235575060016106f2565b8161224157505f6106f2565b8160018114612257576002811461226157612292565b60019150506106f2565b60ff84111561227257612272612065565b6001841b915063ffffffff82111561228c5761228c612065565b506106f2565b5060208310610133831016604e8410600b84101617156122c9575081810a63ffffffff8111156122c4576122c4612065565b6106f2565b6122d383836121e2565b8063ffffffff048211156122e9576122e9612065565b029392505050565b5f63ffffffff612305818516828516612227565b949350505050565b634e487b7160e01b5f52601260045260245ffd5b5f63ffffffff808416806123375761233761230d565b92169190910692915050565b5f63ffffffff808416806123595761235961230d565b92169190910492915050565b63ffffffff818116838216019080821115610c5a57610c5a612065565b5f63ffffffff82168061239757612397612065565b5f19019291505056fea26469706673582212205c6b3e8f65b0ecd863a4b1b7da5525da691bff299b22786c4e2c301d3af16e7464736f6c63430008170033",
  "linkReferences": {},
  "deployedLinkReferences": {}
}