{
  "_format": "hh-sol-artifact-1",
  "contractName": "scrollMessengerMock",
  "sourceName": "contracts/test/scrollMessengerMock.sol",
  "abi": [
    {
      "inputs": [],
      "stateMutability": "nonpayable",
      "type": "constructor"
    },
    {
      "anonymous": false,
      "inputs": [
        {
          "indexed": true,
          "internalType": "bytes32",
          "name": "messageHash",
          "type": "bytes32"
        }
      ],
      "name": "FailedRelayedMessage",
      "type": "event"
    },
    {
      "anonymous": false,
      "inputs": [
        {
          "indexed": true,
          "internalType": "bytes32",
          "name": "messageHash",
          "type": "bytes32"
        }
      ],
      "name": "RelayedMessage",
      "type": "event"
    },
    {
      "inputs": [],
      "name": "getLastMessage",
      "outputs": [
        {
          "components": [
            {
              "internalType": "address",
              "name": "_to",
              "type": "address"
            },
            {
              "internalType": "uint256",
              "name": "_value",
              "type": "uint256"
            },
            {
              "internalType": "bytes",
              "name": "_message",
              "type": "bytes"
            },
            {
              "internalType": "uint256",
              "name": "_gasLimit",
              "type": "uint256"
            }
          ],
          "internalType": "struct scrollMessengerMock.message",
          "name": "",
          "type": "tuple"
        }
      ],
      "stateMutability": "view",
      "type": "function"
    },
    {
      "inputs": [],
      "name": "otherMessenger",
      "outputs": [
        {
          "internalType": "address",
          "name": "",
          "type": "address"
        }
      ],
      "stateMutability": "view",
      "type": "function"
    },
    {
      "inputs": [
        {
          "internalType": "address",
          "name": "_from",
          "type": "address"
        },
        {
          "internalType": "address",
          "name": "_to",
          "type": "address"
        },
        {
          "internalType": "uint256",
          "name": "_value",
          "type": "uint256"
        },
        {
          "internalType": "uint256",
          "name": "_nonce",
          "type": "uint256"
        },
        {
          "internalType": "bytes",
          "name": "_message",
          "type": "bytes"
        },
        {
          "components": [
            {
              "internalType": "uint256",
              "name": "batchIndex",
              "type": "uint256"
            },
            {
              "internalType": "bytes",
              "name": "merkleProof",
              "type": "bytes"
            }
          ],
          "internalType": "struct scrollMessengerMock.L2MessageProof",
          "name": "_proof",
          "type": "tuple"
        }
      ],
      "name": "relayMessageWithProof",
      "outputs": [],
      "stateMutability": "nonpayable",
      "type": "function"
    },
    {
      "inputs": [
        {
          "internalType": "address",
          "name": "_to",
          "type": "address"
        },
        {
          "internalType": "uint256",
          "name": "_value",
          "type": "uint256"
        },
        {
          "internalType": "bytes",
          "name": "_message",
          "type": "bytes"
        },
        {
          "internalType": "uint256",
          "name": "_gasLimit",
          "type": "uint256"
        },
        {
          "internalType": "address",
          "name": "_refundAddress",
          "type": "address"
        }
      ],
      "name": "sendMessage",
      "outputs": [],
      "stateMutability": "payable",
      "type": "function"
    },
    {
      "inputs": [
        {
          "internalType": "address",
          "name": "_otherMessenger",
          "type": "address"
        }
      ],
      "name": "setOtherMessenger",
      "outputs": [],
      "stateMutability": "nonpayable",
      "type": "function"
    },
    {
      "inputs": [],
      "name": "xDomainMessageSender",
      "outputs": [
        {
          "internalType": "address",
          "name": "",
          "type": "address"
        }
      ],
      "stateMutability": "view",
      "type": "function"
    },
    {
      "stateMutability": "payable",
      "type": "receive"
    }
  ],
  "bytecode": "0x60806040525f600155348015610013575f80fd5b50610aac806100215f395ff3fe608060405260043610610057575f3560e01c8063494ec2b614610062578063526bf76e146100a05780635f7b1577146100ca5780636e296e45146100dd578063c311b6fc14610114578063db505d8014610133575f80fd5b3661005e57005b5f80fd5b34801561006d575f80fd5b5061009e61007c3660046105a7565b600280546001600160a01b0319166001600160a01b0392909216919091179055565b005b3480156100ab575f80fd5b506100b4610152565b6040516100c19190610614565b60405180910390f35b61009e6100d8366004610661565b610259565b3480156100e8575f80fd5b506004546100fc906001600160a01b031681565b6040516001600160a01b0390911681526020016100c1565b34801561011f575f80fd5b5061009e61012e3660046107c5565b61039c565b34801561013e575f80fd5b506002546100fc906001600160a01b031681565b61018360405180608001604052805f6001600160a01b031681526020015f8152602001606081526020015f81525090565b600180545f9081526020818152604091829020825160808101845281546001600160a01b03168152938101549184019190915260028101805491928401916101ca9061088e565b80601f01602080910402602001604051908101604052809291908181526020018280546101f69061088e565b80156102415780601f1061021857610100808354040283529160200191610241565b820191905f5260205f20905b81548152906001019060200180831161022457829003601f168201915b50505050508152602001600382015481525050905090565b60018054905f610268836108da565b91905055506040518060800160405280876001600160a01b0316815260200186815260200185858080601f0160208091040260200160405190810160405280939291908181526020018383808284375f9201829052509385525050506020918201859052600180548252818352604091829020845181546001600160a01b0319166001600160a01b0390911617815592840151908301558201516002820190610311908261093e565b50606091909101516003909101556002546040516001600160a01b039091169086156108fc029087905f818181858888f19350505050158015610356573d5f803e3d5ffd5b506001600160a01b0381166108fc61036e34886109fe565b6040518115909202915f818181858888f19350505050158015610393573d5f803e3d5ffd5b50505050505050565b5f6103aa878787878761053c565b8051602090910120600480546001600160a01b0319166001600160a01b038a161790559050478511156104185760405162461bcd60e51b81526020600482015260116024820152700dcdee840cadcdeeaced040cae8d040745607b1b60448201526064015b60405180910390fd5b5f866001600160a01b031686856040516104329190610a17565b5f6040518083038185875af1925050503d805f811461046c576040519150601f19603f3d011682016040523d82523d5f602084013e610471565b606091505b50509050806104c25760405162461bcd60e51b815260206004820152601860248201527f7761616161206272696467696e67206661696c656420443a0000000000000000604482015260640161040f565b600480546001600160a01b031916905580156105075760405182907f4641df4a962071e12719d8c8c8e5ac7fc4d97b927346a3d7a335b1f7517e133c905f90a2610532565b60405182907f99d0e048484baa1b1540b1367cb128acd7ab2946d1ed91ec10e3c85e4bf51b8f905f90a25b5050505050505050565b60608585858585604051602401610557959493929190610a32565b60408051601f198184030181529190526020810180516001600160e01b0316634778999760e11b179052905095945050505050565b80356001600160a01b03811681146105a2575f80fd5b919050565b5f602082840312156105b7575f80fd5b6105c08261058c565b9392505050565b5f5b838110156105e15781810151838201526020016105c9565b50505f910152565b5f81518084526106008160208601602086016105c7565b601f01601f19169290920160200192915050565b6020815260018060a01b038251166020820152602082015160408201525f60408301516080606084015261064b60a08401826105e9565b9050606084015160808401528091505092915050565b5f805f805f8060a08789031215610676575f80fd5b61067f8761058c565b955060208701359450604087013567ffffffffffffffff808211156106a2575f80fd5b818901915089601f8301126106b5575f80fd5b8135818111156106c3575f80fd5b8a60208285010111156106d4575f80fd5b602083019650809550505050606087013591506106f36080880161058c565b90509295509295509295565b634e487b7160e01b5f52604160045260245ffd5b6040805190810167ffffffffffffffff81118282101715610736576107366106ff565b60405290565b5f82601f83011261074b575f80fd5b813567ffffffffffffffff80821115610766576107666106ff565b604051601f8301601f19908116603f0116810190828211818310171561078e5761078e6106ff565b816040528381528660208588010111156107a6575f80fd5b836020870160208301375f602085830101528094505050505092915050565b5f805f805f8060c087890312156107da575f80fd5b6107e38761058c565b95506107f16020880161058c565b94506040870135935060608701359250608087013567ffffffffffffffff8082111561081b575f80fd5b6108278a838b0161073c565b935060a089013591508082111561083c575f80fd5b908801906040828b03121561084f575f80fd5b610857610713565b8235815260208301358281111561086c575f80fd5b6108788c82860161073c565b6020830152508093505050509295509295509295565b600181811c908216806108a257607f821691505b6020821081036108c057634e487b7160e01b5f52602260045260245ffd5b50919050565b634e487b7160e01b5f52601160045260245ffd5b5f600182016108eb576108eb6108c6565b5060010190565b601f82111561093957805f5260205f20601f840160051c810160208510156109175750805b601f840160051c820191505b81811015610936575f8155600101610923565b50505b505050565b815167ffffffffffffffff811115610958576109586106ff565b61096c81610966845461088e565b846108f2565b602080601f83116001811461099f575f84156109885750858301515b5f19600386901b1c1916600185901b1785556109f6565b5f85815260208120601f198616915b828110156109cd578886015182559484019460019091019084016109ae565b50858210156109ea57878501515f19600388901b60f8161c191681555b505060018460011b0185555b505050505050565b81810381811115610a1157610a116108c6565b92915050565b5f8251610a288184602087016105c7565b9190910192915050565b6001600160a01b03868116825285166020820152604081018490526060810183905260a0608082018190525f90610a6b908301846105e9565b97965050505050505056fea2646970667358221220ef31c4c97c12af959d0aafe7e9125f64b53c90ad79c5a8fe929d8790e16ffe8564736f6c63430008170033",
  "linkReferences": {},
  "deployedLinkReferences": {}
}