{
  "_format": "hh-sol-artifact-1",
  "contractName": "ToadnadoL2",
  "sourceName": "contracts/ToadnadoL2.sol",
  "abi": [
    {
      "inputs": [
        {
          "internalType": "address",
          "name": "_verifier",
          "type": "address"
        },
        {
          "internalType": "uint256",
          "name": "_denomination",
          "type": "uint256"
        },
        {
          "internalType": "uint32",
          "name": "_merkleTreeHeight",
          "type": "uint32"
        },
        {
          "internalType": "address",
          "name": "_l2ScrollMessenger",
          "type": "address"
        },
        {
          "internalType": "address",
          "name": "_l1ToadnadoAddress",
          "type": "address"
        }
      ],
      "stateMutability": "nonpayable",
      "type": "constructor"
    },
    {
      "inputs": [],
      "name": "ReentrancyGuardReentrantCall",
      "type": "error"
    },
    {
      "inputs": [],
      "name": "VerificationFailed",
      "type": "error"
    },
    {
      "anonymous": false,
      "inputs": [
        {
          "indexed": true,
          "internalType": "bytes32",
          "name": "commitment",
          "type": "bytes32"
        },
        {
          "indexed": false,
          "internalType": "uint32",
          "name": "leafIndex",
          "type": "uint32"
        },
        {
          "indexed": false,
          "internalType": "uint256",
          "name": "timestamp",
          "type": "uint256"
        }
      ],
      "name": "Deposit",
      "type": "event"
    },
    {
      "anonymous": false,
      "inputs": [
        {
          "indexed": false,
          "internalType": "address",
          "name": "recipient",
          "type": "address"
        },
        {
          "indexed": false,
          "internalType": "bytes32",
          "name": "nullifier",
          "type": "bytes32"
        }
      ],
      "name": "PendingWithdrawal",
      "type": "event"
    },
    {
      "anonymous": false,
      "inputs": [
        {
          "indexed": false,
          "internalType": "address",
          "name": "recipient",
          "type": "address"
        },
        {
          "indexed": false,
          "internalType": "bytes32",
          "name": "nullifier",
          "type": "bytes32"
        }
      ],
      "name": "Withdrawal",
      "type": "event"
    },
    {
      "inputs": [],
      "name": "ROOT_HISTORY_SIZE",
      "outputs": [
        {
          "internalType": "uint32",
          "name": "",
          "type": "uint32"
        }
      ],
      "stateMutability": "view",
      "type": "function"
    },
    {
      "inputs": [],
      "name": "bridgeDebt",
      "outputs": [
        {
          "internalType": "uint256",
          "name": "",
          "type": "uint256"
        }
      ],
      "stateMutability": "view",
      "type": "function"
    },
    {
      "inputs": [
        {
          "internalType": "uint256",
          "name": "_amount",
          "type": "uint256"
        },
        {
          "internalType": "uint256",
          "name": "gasLimit",
          "type": "uint256"
        }
      ],
      "name": "bridgeEth",
      "outputs": [],
      "stateMutability": "nonpayable",
      "type": "function"
    },
    {
      "inputs": [
        {
          "internalType": "uint256",
          "name": "",
          "type": "uint256"
        }
      ],
      "name": "commitmentLeafs",
      "outputs": [
        {
          "internalType": "bytes32",
          "name": "",
          "type": "bytes32"
        }
      ],
      "stateMutability": "view",
      "type": "function"
    },
    {
      "inputs": [
        {
          "internalType": "bytes32",
          "name": "",
          "type": "bytes32"
        }
      ],
      "name": "commitments",
      "outputs": [
        {
          "internalType": "bool",
          "name": "",
          "type": "bool"
        }
      ],
      "stateMutability": "view",
      "type": "function"
    },
    {
      "inputs": [
        {
          "internalType": "bytes32",
          "name": "",
          "type": "bytes32"
        }
      ],
      "name": "commitmentsTreeRoots",
      "outputs": [
        {
          "internalType": "bool",
          "name": "",
          "type": "bool"
        }
      ],
      "stateMutability": "view",
      "type": "function"
    },
    {
      "inputs": [],
      "name": "currentRootIndex",
      "outputs": [
        {
          "internalType": "uint32",
          "name": "",
          "type": "uint32"
        }
      ],
      "stateMutability": "view",
      "type": "function"
    },
    {
      "inputs": [],
      "name": "denomination",
      "outputs": [
        {
          "internalType": "uint256",
          "name": "",
          "type": "uint256"
        }
      ],
      "stateMutability": "view",
      "type": "function"
    },
    {
      "inputs": [
        {
          "internalType": "bytes32",
          "name": "_commitment",
          "type": "bytes32"
        }
      ],
      "name": "deposit",
      "outputs": [],
      "stateMutability": "payable",
      "type": "function"
    },
    {
      "inputs": [],
      "name": "ethPendingWithdrawals",
      "outputs": [
        {
          "internalType": "uint256",
          "name": "",
          "type": "uint256"
        }
      ],
      "stateMutability": "view",
      "type": "function"
    },
    {
      "inputs": [
        {
          "internalType": "uint256",
          "name": "",
          "type": "uint256"
        }
      ],
      "name": "filledSubtrees",
      "outputs": [
        {
          "internalType": "bytes32",
          "name": "",
          "type": "bytes32"
        }
      ],
      "stateMutability": "view",
      "type": "function"
    },
    {
      "inputs": [
        {
          "internalType": "uint256",
          "name": "key",
          "type": "uint256"
        }
      ],
      "name": "getL1Root",
      "outputs": [
        {
          "internalType": "bytes32",
          "name": "",
          "type": "bytes32"
        }
      ],
      "stateMutability": "view",
      "type": "function"
    },
    {
      "inputs": [],
      "name": "getLastRoot",
      "outputs": [
        {
          "internalType": "bytes32",
          "name": "",
          "type": "bytes32"
        }
      ],
      "stateMutability": "view",
      "type": "function"
    },
    {
      "inputs": [
        {
          "internalType": "bytes32",
          "name": "_left",
          "type": "bytes32"
        },
        {
          "internalType": "bytes32",
          "name": "_right",
          "type": "bytes32"
        }
      ],
      "name": "hashLeftRight",
      "outputs": [
        {
          "internalType": "bytes32",
          "name": "",
          "type": "bytes32"
        }
      ],
      "stateMutability": "pure",
      "type": "function"
    },
    {
      "inputs": [
        {
          "internalType": "bytes32",
          "name": "_root",
          "type": "bytes32"
        }
      ],
      "name": "isKnownL1Root",
      "outputs": [
        {
          "internalType": "bool",
          "name": "",
          "type": "bool"
        }
      ],
      "stateMutability": "view",
      "type": "function"
    },
    {
      "inputs": [
        {
          "internalType": "bytes32",
          "name": "_root",
          "type": "bytes32"
        }
      ],
      "name": "isKnownL2Root",
      "outputs": [
        {
          "internalType": "bool",
          "name": "",
          "type": "bool"
        }
      ],
      "stateMutability": "view",
      "type": "function"
    },
    {
      "inputs": [
        {
          "internalType": "bytes32",
          "name": "_nullifierHash",
          "type": "bytes32"
        }
      ],
      "name": "isSpent",
      "outputs": [
        {
          "internalType": "bool",
          "name": "",
          "type": "bool"
        }
      ],
      "stateMutability": "view",
      "type": "function"
    },
    {
      "inputs": [
        {
          "internalType": "bytes32[]",
          "name": "_nullifierHashes",
          "type": "bytes32[]"
        }
      ],
      "name": "isSpentArray",
      "outputs": [
        {
          "internalType": "bool[]",
          "name": "spent",
          "type": "bool[]"
        }
      ],
      "stateMutability": "view",
      "type": "function"
    },
    {
      "inputs": [],
      "name": "l1ToadnadoAddress",
      "outputs": [
        {
          "internalType": "address",
          "name": "",
          "type": "address"
        }
      ],
      "stateMutability": "view",
      "type": "function"
    },
    {
      "inputs": [],
      "name": "l2ScrollMessenger",
      "outputs": [
        {
          "internalType": "address",
          "name": "",
          "type": "address"
        }
      ],
      "stateMutability": "view",
      "type": "function"
    },
    {
      "inputs": [],
      "name": "levels",
      "outputs": [
        {
          "internalType": "uint32",
          "name": "",
          "type": "uint32"
        }
      ],
      "stateMutability": "view",
      "type": "function"
    },
    {
      "inputs": [],
      "name": "nextIndex",
      "outputs": [
        {
          "internalType": "uint32",
          "name": "",
          "type": "uint32"
        }
      ],
      "stateMutability": "view",
      "type": "function"
    },
    {
      "inputs": [
        {
          "internalType": "bytes32",
          "name": "",
          "type": "bytes32"
        }
      ],
      "name": "nullifiers",
      "outputs": [
        {
          "internalType": "bool",
          "name": "",
          "type": "bool"
        }
      ],
      "stateMutability": "view",
      "type": "function"
    },
    {
      "inputs": [
        {
          "internalType": "address",
          "name": "l1_contract",
          "type": "address"
        },
        {
          "internalType": "uint256",
          "name": "slot",
          "type": "uint256"
        }
      ],
      "name": "readSingleSlot",
      "outputs": [
        {
          "internalType": "bytes",
          "name": "",
          "type": "bytes"
        }
      ],
      "stateMutability": "view",
      "type": "function"
    },
    {
      "inputs": [],
      "name": "recieveBridgedEth",
      "outputs": [],
      "stateMutability": "payable",
      "type": "function"
    },
    {
      "inputs": [
        {
          "internalType": "uint256",
          "name": "gasLimit",
          "type": "uint256"
        }
      ],
      "name": "requestEthBridge",
      "outputs": [],
      "stateMutability": "nonpayable",
      "type": "function"
    },
    {
      "inputs": [
        {
          "internalType": "uint256",
          "name": "",
          "type": "uint256"
        }
      ],
      "name": "roots",
      "outputs": [
        {
          "internalType": "bytes32",
          "name": "",
          "type": "bytes32"
        }
      ],
      "stateMutability": "view",
      "type": "function"
    },
    {
      "inputs": [
        {
          "internalType": "uint32",
          "name": "gasLimit",
          "type": "uint32"
        }
      ],
      "name": "sendLatestRootToL1",
      "outputs": [],
      "stateMutability": "payable",
      "type": "function"
    },
    {
      "inputs": [],
      "name": "verifier",
      "outputs": [
        {
          "internalType": "address",
          "name": "",
          "type": "address"
        }
      ],
      "stateMutability": "view",
      "type": "function"
    },
    {
      "inputs": [
        {
          "internalType": "bytes32",
          "name": "_l1root",
          "type": "bytes32"
        },
        {
          "internalType": "bytes32",
          "name": "_l2root",
          "type": "bytes32"
        },
        {
          "internalType": "bytes32",
          "name": "_nullifier",
          "type": "bytes32"
        },
        {
          "internalType": "address payable",
          "name": "_recipient",
          "type": "address"
        },
        {
          "internalType": "bytes",
          "name": "snarkProof",
          "type": "bytes"
        }
      ],
      "name": "withdraw",
      "outputs": [],
      "stateMutability": "payable",
      "type": "function"
    },
    {
      "inputs": [
        {
          "internalType": "bytes32",
          "name": "_nullifier",
          "type": "bytes32"
        }
      ],
      "name": "withdrawPending",
      "outputs": [],
      "stateMutability": "nonpayable",
      "type": "function"
    },
    {
      "inputs": [
        {
          "internalType": "uint256",
          "name": "i",
          "type": "uint256"
        }
      ],
      "name": "zeros",
      "outputs": [
        {
          "internalType": "bytes32",
          "name": "",
          "type": "bytes32"
        }
      ],
      "stateMutability": "pure",
      "type": "function"
    }
  ],
  "bytecode": "0x610100604052600480546001600160401b03191690555f600a819055600b553480156200002a575f80fd5b5060405162002c2638038062002c268339810160408190526200004d9162000683565b848484805f8163ffffffff1611620000b85760405162461bcd60e51b815260206004820152602360248201527f5f6c6576656c732073686f756c642062652067726561746572207468616e207a60448201526265726f60e81b60648201526084015b60405180910390fd5b60148163ffffffff1610620001105760405162461bcd60e51b815260206004820152601e60248201527f5f6c6576656c732073686f756c64206265206c657373207468616e20323000006044820152606401620000af565b5f805463ffffffff191663ffffffff83161781555b8163ffffffff168163ffffffff16101562000169576200014b63ffffffff82166200022e565b63ffffffff82165f9081526002602052604090205560010162000125565b506200017b63ffffffff82166200022e565b5f805260036020527f3617319a054d772f909f7c479a2cebe5066e836a939412e32403c99029b92eff5550600160055581620002085760405162461bcd60e51b815260206004820152602560248201527f64656e6f6d696e6174696f6e2073686f756c6420626520677265617465722074604482015264068616e20360dc1b6064820152608401620000af565b506001600160a01b0391821660a05260805291821660c0521660e05250620006ef915050565b5f815f036200025e57507f2fe54c60d3acabf3343a35b6eba15db4821b340f76e741e2249685ed4899af6c919050565b816001036200028e57507f4fc2fe9184a25f44ce8ddb5f32671fcae6d9c85ed710c199acef16ad16b29911919050565b81600203620002be57507f0d826a474f851c563052d929ef0daa70f658aba9ba084f51f6e3483c13c0e59a919050565b81600303620002ee57507ff7761a16b5e4c0120e4c5704b910dbe18ff6162a9668ed1c2c4efde7c4f15806919050565b816004036200031e57507fce9ce09a0ab259d6d14ca3dcd74e6c6b9e7d9074bff66973d4c57ccdffdb2a82919050565b816005036200034e57507f02efd44c63015ff1385344e0624867775486d05e6eb1290a24976964a598003b919050565b816006036200037e57507fc4dec5845d407ce2ac2e6824bb7857c4b138f819e5789d5d11e812db10c846cd919050565b81600703620003ae57507f5fbe3f20c23f3bd6ac347917fb0903433e0b9a48373412348240a5f919bfde19919050565b81600803620003de57507f92d1b07e56b3da96b7917778cb657f2c513eaeeb4d1579a73b5ea316f25b7289919050565b816009036200040e57507fa08add5656d6d3d0827ef909f7647981eac42aa1f51970a752f130f718f6d76a919050565b81600a036200043e57507f1704c5f297590d8ec62776b0714f4f3f2234bae0524035342b0da8b8988ebd79919050565b81600b036200046e57507fc5ae2bd47379c2c6d1189cfc3d057948dc6054caf845fcacd8f7affe94b11944919050565b81600c036200049e57507f12a161d6d5561062f387d91ad9f0f8966c0956afdb9e8325458b9e5057b82bdb919050565b81600d03620004ce57507f4ade524ba596de20bbe94507a761c45251ae7a27857ceb4287d9018525b99bc5919050565b81600e03620004fe57507f38287ad69151fa833bf4bf8b8eb6ffb39400a38f1a7e53b473f639c8c60fd5e4919050565b81600f036200052e57507f57f2ade7d711707e785451f2aba6c95872c7fe03153a98b7327b4024e8068fa3919050565b816010036200055e57507fb1982e0d1b0de46a88d8b17941472e41a86d3ff64571ed8e0ca72d58633547fc919050565b816011036200058e57507fb7c60f8670af15eb32b4ee36727179bc085a3dde03d5f9a1486664ba576b30a6919050565b81601203620005be57507f5ff905c5c659a926b132ef3665a3de5d5a859c1d479e68851085bfc0348c5331919050565b81601303620005ee57507fb4dfa78b912e98c9f7eb42d71eb537a02bf3173d44a2eb887a48b3972072dd8e919050565b816014036200061e57507f60919a16a2eb8b91cfb8ba1e5b4c155a76a14c217b5403edbd563f34e508ecdc919050565b60405162461bcd60e51b815260206004820152601360248201527f496e646578206f7574206f6620626f756e6473000000000000000000000000006044820152606401620000af565b919050565b80516001600160a01b038116811462000667575f80fd5b5f805f805f60a0868803121562000698575f80fd5b620006a3866200066c565b945060208601519350604086015163ffffffff81168114620006c3575f80fd5b9250620006d3606087016200066c565b9150620006e3608087016200066c565b90509295509295909350565b60805160a05160c05160e05161248c6200079a5f395f818161056f015281816107e501528181610afd01528181610ce701528181610feb01528181611489015281816115eb015261172901525f81816104f2015281816107a60152818161080f01528181610cb601528181610fb2015281816115ac0152818161161501526116f001525f81816102860152610a2b01525f81816103fe015281816119410152611ca8015261248c5ff3fe6080604052600436106101db575f3560e01c80639fa12d0b116100fd578063d0f94b5511610092578063e993d00b11610062578063e993d00b14610626578063f178e47c14610645578063f8af86e714610670578063fc7e9c6f1461068f575f80fd5b8063d0f94b55146105a5578063db394bb9146105c4578063e5285dcc146105d9578063e829558814610607575f80fd5b8063c2b40ae4116100cd578063c2b40ae414610514578063c9ca7a611461053f578063cc48b7351461055e578063cd87a3b414610591575f80fd5b80639fa12d0b1461047a578063b214faa5146104a6578063ba70f757146104b9578063c0e70bbd146104e1575f80fd5b806350241a3f116101735780638bca6d16116101435780638bca6d16146103ed57806390eeb02b146104205780639d7d010f1461043c5780639ec441541461044f575f80fd5b806350241a3f1461036e5780635032d4f1146103815780637d7f9232146103a0578063839df945146103bf575f80fd5b80633591d78d116101ae5780633591d78d146102c057806338bf282e146102ee57806339da4b55146103345780634ecf518b1461033e575f80fd5b8063102b72e7146101df5780631b5844ff146102145780632997e86b146102375780632b7ac3f314610275575b5f80fd5b3480156101ea575f80fd5b506101fe6101f9366004611dca565b6106b3565b60405161020b9190611e41565b60405180910390f35b34801561021f575f80fd5b50610229600b5481565b60405190815260200161020b565b348015610242575f80fd5b50610265610251366004611e5a565b60066020525f908152604090205460ff1681565b604051901515815260200161020b565b348015610280575f80fd5b506102a87f000000000000000000000000000000000000000000000000000000000000000081565b6040516001600160a01b03909116815260200161020b565b3480156102cb575f80fd5b506102656102da366004611e5a565b60086020525f908152604090205460ff1681565b3480156102f9575f80fd5b50610229610308366004611e71565b604080516020808201949094528082019290925280518083038201815260609092019052805191012090565b61033c61079b565b005b348015610349575f80fd5b505f546103599063ffffffff1681565b60405163ffffffff909116815260200161020b565b61033c61037c366004611e91565b6108cb565b34801561038c575f80fd5b5061022961039b366004611e5a565b610af7565b3480156103ab575f80fd5b5061033c6103ba366004611e5a565b610b69565b3480156103ca575f80fd5b506102656103d9366004611e5a565b60076020525f908152604090205460ff1681565b3480156103f8575f80fd5b506102297f000000000000000000000000000000000000000000000000000000000000000081565b34801561042b575f80fd5b506004546103599063ffffffff1681565b61033c61044a366004611f3b565b610cb4565b34801561045a575f80fd5b50610229610469366004611e5a565b60016020525f908152604090205481565b348015610485575f80fd5b50610499610494366004611f56565b610db7565b60405161020b9190611fc5565b61033c6104b4366004611e5a565b610e71565b3480156104c4575f80fd5b5060045463ffffffff165f90815260036020526040902054610229565b3480156104ec575f80fd5b506102a87f000000000000000000000000000000000000000000000000000000000000000081565b34801561051f575f80fd5b5061022961052e366004611e5a565b60036020525f908152604090205481565b34801561054a575f80fd5b5061033c610559366004611e5a565b610f63565b348015610569575f80fd5b506102a87f000000000000000000000000000000000000000000000000000000000000000081565b34801561059c575f80fd5b50610359601e81565b3480156105b0575f80fd5b506102656105bf366004611e5a565b611051565b3480156105cf575f80fd5b50610229600a5481565b3480156105e4575f80fd5b506102656105f3366004611e5a565b5f9081526006602052604090205460ff1690565b348015610612575f80fd5b50610229610621366004611e5a565b61105b565b348015610631575f80fd5b50610265610640366004611e5a565b611474565b348015610650575f80fd5b5061022961065f366004611e5a565b60026020525f908152604090205481565b34801561067b575f80fd5b5061033c61068a366004611e71565b61151f565b34801561069a575f80fd5b5060045461035990640100000000900463ffffffff1681565b604051606083811b6bffffffffffffffffffffffff1916602083015260348201839052905f9060540160405160208183030381529060405290505f60606101016001600160a01b03168360405161070a919061200a565b5f60405180830381855afa9150503d805f8114610742576040519150601f19603f3d011682016040523d82523d5f602084013e610747565b606091505b509092509050816107905760405162461bcd60e51b815260206004820152600e60248201526d130c54d313d0510819985a5b195960921b60448201526064015b60405180910390fd5b925050505b92915050565b336001600160a01b037f000000000000000000000000000000000000000000000000000000000000000016146107e35760405162461bcd60e51b815260040161078790612025565b7f00000000000000000000000000000000000000000000000000000000000000006001600160a01b03167f00000000000000000000000000000000000000000000000000000000000000006001600160a01b0316636e296e456040518163ffffffff1660e01b8152600401602060405180830381865afa158015610869573d5f803e3d5ffd5b505050506040513d601f19601f8201168201806040525081019061088d919061206d565b6001600160a01b0316146108b35760405162461bcd60e51b815260040161078790612088565b34600b5f8282546108c491906120f9565b9091555050565b6108d3611788565b5f8481526006602052604090205460ff16156109315760405162461bcd60e51b815260206004820152601f60248201527f546865206e6f746520686173206265656e20616c7265616479207370656e74006044820152606401610787565b61093a85611051565b6109865760405162461bcd60e51b815260206004820152601f60248201527f43616e6e6f742066696e6420796f7572206c32206d65726b6c6520726f6f74006044820152606401610787565b61098f86611474565b6109db5760405162461bcd60e51b815260206004820152601f60248201527f43616e6e6f742066696e6420796f7572206c31206d65726b6c6520726f6f74006044820152606401610787565b60408051602080820189905281830188905282518083038401815260609092019092528051910120465f610a11838888856117b2565b604051633a94343960e21b81529091506001600160a01b037f0000000000000000000000000000000000000000000000000000000000000000169063ea50d0e490610a649088908890869060040161210c565b602060405180830381865afa158015610a7f573d5f803e3d5ffd5b505050506040513d601f19601f82011682018060405250810190610aa39190612184565b610ac05760405163439cc0cd60e01b815260040160405180910390fd5b5f878152600660205260409020805460ff19166001179055610ae286886118d0565b505050610aef6001600555565b505050505050565b5f610b567f0000000000000000000000000000000000000000000000000000000000000000836003604051602001610b39929190918252602082015260400190565b604051602081830303815290604052805190602001205f1c6106b3565b80602001905181019061079591906121a3565b5f81815260096020908152604091829020825160608101845281546001600160a01b031681526001808301549382019390935260029091015460ff1615159281018390529114610bfb5760405162461bcd60e51b815260206004820181905260248201527f5468697320776974686472617720697320616c726561647920636c61696d65646044820152606401610787565b5f8281526009602090815260408220600201805460ff19169055820151600b805491929091610c2b9084906121ba565b9091555050805160208201516040516001600160a01b039092169181156108fc0291905f818181858888f19350505050158015610c6a573d5f803e3d5ffd5b508051604080516001600160a01b039092168252602082018490527f0ce490531f6c8ae2f1ff174643bc8b7ed5e52987ab50dc1e8f33655d2cd8c90b910160405180910390a15050565b7f00000000000000000000000000000000000000000000000000000000000000006001600160a01b038116635f7b1577347f00000000000000000000000000000000000000000000000000000000000000005f610d2460045463ffffffff165f9081526003602052604090205490565b604051602401610d3691815260200190565b60408051601f198184030181529181526020820180516001600160e01b031663d051212f60e01b1790525160e086901b6001600160e01b0319168152610d8593929190899033906004016121cd565b5f604051808303818588803b158015610d9c575f80fd5b505af1158015610dae573d5f803e3d5ffd5b50505050505050565b60608167ffffffffffffffff811115610dd257610dd2612214565b604051908082528060200260200182016040528015610dfb578160200160208202803683370190505b5090505f5b82811015610e6a57610e38848483818110610e1d57610e1d612228565b905060200201355f9081526006602052604090205460ff1690565b15610e62576001828281518110610e5157610e51612228565b911515602092830291909101909101525b600101610e00565b5092915050565b610e79611788565b5f8181526007602052604090205460ff1615610ee95760405162461bcd60e51b815260206004820152602960248201527f54686520636f6d6d69746d656e742068617320616c7265616479206265656e206044820152681cdd589b5a5d1d195960ba1b6064820152608401610787565b5f610ef382611ab2565b5f838152600760205260409020805460ff191660011790559050610f15611ca6565b6040805163ffffffff8316815242602082015283917fa945e51eec50ab98c161376f0db4cf2aeba3ec92755fe2fcd388bdbbb80ff196910160405180910390a250610f606001600555565b50565b600a546040805160248101839052604480820185905282518083039091018152606490910182526020810180516001600160e01b031663f8af86e760e01b1790529051635f7b157760e01b81527f0000000000000000000000000000000000000000000000000000000000000000916001600160a01b03831691635f7b1577915f9161101a917f0000000000000000000000000000000000000000000000000000000000000000918491908a90339060040161223c565b5f604051808303818588803b158015611031575f80fd5b505af1158015611043573d5f803e3d5ffd5b50505f600a55505050505050565b5f61079582611d3d565b5f815f0361108a57507f2fe54c60d3acabf3343a35b6eba15db4821b340f76e741e2249685ed4899af6c919050565b816001036110b957507f4fc2fe9184a25f44ce8ddb5f32671fcae6d9c85ed710c199acef16ad16b29911919050565b816002036110e857507f0d826a474f851c563052d929ef0daa70f658aba9ba084f51f6e3483c13c0e59a919050565b8160030361111757507ff7761a16b5e4c0120e4c5704b910dbe18ff6162a9668ed1c2c4efde7c4f15806919050565b8160040361114657507fce9ce09a0ab259d6d14ca3dcd74e6c6b9e7d9074bff66973d4c57ccdffdb2a82919050565b8160050361117557507f02efd44c63015ff1385344e0624867775486d05e6eb1290a24976964a598003b919050565b816006036111a457507fc4dec5845d407ce2ac2e6824bb7857c4b138f819e5789d5d11e812db10c846cd919050565b816007036111d357507f5fbe3f20c23f3bd6ac347917fb0903433e0b9a48373412348240a5f919bfde19919050565b8160080361120257507f92d1b07e56b3da96b7917778cb657f2c513eaeeb4d1579a73b5ea316f25b7289919050565b8160090361123157507fa08add5656d6d3d0827ef909f7647981eac42aa1f51970a752f130f718f6d76a919050565b81600a0361126057507f1704c5f297590d8ec62776b0714f4f3f2234bae0524035342b0da8b8988ebd79919050565b81600b0361128f57507fc5ae2bd47379c2c6d1189cfc3d057948dc6054caf845fcacd8f7affe94b11944919050565b81600c036112be57507f12a161d6d5561062f387d91ad9f0f8966c0956afdb9e8325458b9e5057b82bdb919050565b81600d036112ed57507f4ade524ba596de20bbe94507a761c45251ae7a27857ceb4287d9018525b99bc5919050565b81600e0361131c57507f38287ad69151fa833bf4bf8b8eb6ffb39400a38f1a7e53b473f639c8c60fd5e4919050565b81600f0361134b57507f57f2ade7d711707e785451f2aba6c95872c7fe03153a98b7327b4024e8068fa3919050565b8160100361137a57507fb1982e0d1b0de46a88d8b17941472e41a86d3ff64571ed8e0ca72d58633547fc919050565b816011036113a957507fb7c60f8670af15eb32b4ee36727179bc085a3dde03d5f9a1486664ba576b30a6919050565b816012036113d857507f5ff905c5c659a926b132ef3665a3de5d5a859c1d479e68851085bfc0348c5331919050565b8160130361140757507fb4dfa78b912e98c9f7eb42d71eb537a02bf3173d44a2eb887a48b3972072dd8e919050565b8160140361143657507f60919a16a2eb8b91cfb8ba1e5b4c155a76a14c217b5403edbd563f34e508ecdc919050565b60405162461bcd60e51b8152602060048201526013602482015272496e646578206f7574206f6620626f756e647360681b6044820152606401610787565b5f81810361148357505f919050565b5f6114af7f000000000000000000000000000000000000000000000000000000000000000060036106b3565b8060200190518101906114c2919061227d565b9050805b6114d58163ffffffff16610af7565b84036114e5575060019392505050565b8063ffffffff165f036114f65750601e5b8061150081612298565b9150508163ffffffff168163ffffffff16036114c657505f9392505050565b600b5461152c90476121ba565b8211156115a15760405162461bcd60e51b815260206004820152603e60248201527f6e6f7420656e6f7567682065746820696e20636f6e74726163742028636f6e7360448201527f69646572696e672065746850656e64696e675769746864726177616c732900006064820152608401610787565b336001600160a01b037f000000000000000000000000000000000000000000000000000000000000000016146115e95760405162461bcd60e51b815260040161078790612025565b7f00000000000000000000000000000000000000000000000000000000000000006001600160a01b03167f00000000000000000000000000000000000000000000000000000000000000006001600160a01b0316636e296e456040518163ffffffff1660e01b8152600401602060405180830381865afa15801561166f573d5f803e3d5ffd5b505050506040513d601f19601f82011682018060405250810190611693919061206d565b6001600160a01b0316146116b95760405162461bcd60e51b815260040161078790612088565b6040805160048082526024820183526020820180516001600160e01b03166339da4b5560e01b1790529151635f7b157760e01b81527f0000000000000000000000000000000000000000000000000000000000000000926001600160a01b03841692635f7b1577928792611755927f00000000000000000000000000000000000000000000000000000000000000009285928a9133910161223c565b5f604051808303818588803b15801561176c575f80fd5b505af115801561177e573d5f803e3d5ffd5b5050505050505050565b6002600554036117ab57604051633ee5aeb560e01b815260040160405180910390fd5b6002600555565b60408051604280825261086082019092526060915f919060208201610840803683370190505090505f5b6020811015611822578681602081106117f7576117f7612228565b835191901a9083908390811061180f5761180f612228565b60209081029190910101526001016117dc565b5060205b6040811015611876578561183b6020836121ba565b6020811061184b5761184b612228565b835191901a9083908390811061186357611863612228565b6020908102919091010152600101611826565b5080516001600160a01b0385169081908390604090811061189957611899612228565b602002602001018181525050835f1b826041815181106118bb576118bb612228565b60209081029190910101525095945050505050565b341561193c5760405162461bcd60e51b815260206004820152603560248201527f4d6573736167652076616c756520697320737570706f73656420746f206265206044820152747a65726f20666f722045544820696e7374616e636560581b6064820152608401610787565b600b547f000000000000000000000000000000000000000000000000000000000000000090819061196d90476121ba565b106119ed57604080516001600160a01b0385168152602081018490527f0ce490531f6c8ae2f1ff174643bc8b7ed5e52987ab50dc1e8f33655d2cd8c90b910160405180910390a16040516001600160a01b0384169082156108fc029083905f818181858888f193505050501580156119e7573d5f803e3d5ffd5b50505050565b604080516001600160a01b0385168152602081018490527f09af5d80016d1c2f289791412c4d5d7d42fecce9295ce18c7395fdddd98d4d00910160405180910390a1604080516060810182526001600160a01b038581168252602080830185815260018486018181525f8981526009909452958320945185546001600160a01b0319169416939093178455519183019190915591516002909101805460ff1916911515919091179055600a8054839290611aa89084906120f9565b9091555050505050565b6004545f8054909163ffffffff640100000000909104811691611ad7911660026123c5565b63ffffffff168163ffffffff1603611b4a5760405162461bcd60e51b815260206004820152603060248201527f4d65726b6c6520747265652069732066756c6c2e204e6f206d6f7265206c656160448201526f1d995cc818d85b88189948185919195960821b6064820152608401610787565b80835f80805b5f5463ffffffff9081169082161015611c0457611b6e6002866123f5565b63ffffffff165f03611baa57839250611b8c8163ffffffff1661105b565b63ffffffff82165f9081526002602052604090208590559150611bc5565b63ffffffff81165f9081526002602052604090205492508391505b604080516020808201869052818301859052825180830384018152606090920190925280519101209350611bfa600286612417565b9450600101611b50565b506004545f90601e90611c1e9063ffffffff166001612439565b611c2891906123f5565b6004805463ffffffff191663ffffffff8381169182179092555f908152600360209081526040808320899055928a1682526001908190529190208a9055909150611c73908790612439565b6004805463ffffffff929092166401000000000267ffffffff000000001990921691909117905550939695505050505050565b7f00000000000000000000000000000000000000000000000000000000000000003414611d3b5760405162461bcd60e51b815260206004820152603860248201527f506c656173652073656e6420606d697844656e6f6d696e6174696f6e6020455460448201527f4820616c6f6e672077697468207472616e73616374696f6e00000000000000006064820152608401610787565b565b5f818103611d4c57505f919050565b60045463ffffffff16805b63ffffffff81165f908152600360205260409020548403611d7c575060019392505050565b8063ffffffff165f03611d8d5750601e5b80611d9781612298565b9150508163ffffffff168163ffffffff1603611d5757505f9392505050565b6001600160a01b0381168114610f60575f80fd5b5f8060408385031215611ddb575f80fd5b8235611de681611db6565b946020939093013593505050565b5f5b83811015611e0e578181015183820152602001611df6565b50505f910152565b5f8151808452611e2d816020860160208601611df4565b601f01601f19169290920160200192915050565b602081525f611e536020830184611e16565b9392505050565b5f60208284031215611e6a575f80fd5b5035919050565b5f8060408385031215611e82575f80fd5b50508035926020909101359150565b5f805f805f8060a08789031215611ea6575f80fd5b8635955060208701359450604087013593506060870135611ec681611db6565b9250608087013567ffffffffffffffff80821115611ee2575f80fd5b818901915089601f830112611ef5575f80fd5b813581811115611f03575f80fd5b8a6020828501011115611f14575f80fd5b6020830194508093505050509295509295509295565b63ffffffff81168114610f60575f80fd5b5f60208284031215611f4b575f80fd5b8135611e5381611f2a565b5f8060208385031215611f67575f80fd5b823567ffffffffffffffff80821115611f7e575f80fd5b818501915085601f830112611f91575f80fd5b813581811115611f9f575f80fd5b8660208260051b8501011115611fb3575f80fd5b60209290920196919550909350505050565b602080825282518282018190525f9190848201906040850190845b81811015611ffe578351151583529284019291840191600101611fe0565b50909695505050505050565b5f825161201b818460208701611df4565b9190910192915050565b60208082526028908201527f66756e6374696f6e206e6f742063616c6c6564206279206c315363726f6c6c4d60408201526732b9b9b2b733b2b960c11b606082015260800190565b5f6020828403121561207d575f80fd5b8151611e5381611db6565b6020808252603d908201527f636f6e7472616374206d6573736167696e672066726f6d204c32206973206e6f60408201527f7420746865206c32546f61646e61646f5363726f6c6c41646472657373000000606082015260800190565b634e487b7160e01b5f52601160045260245ffd5b80820180821115610795576107956120e5565b60408152826040820152828460608301375f606084830101525f601f19601f850116820160608101602060608584030160208601528186518084526080850191506020880194505f93505b808410156121775784518252938201936001939093019290820190612157565b5098975050505050505050565b5f60208284031215612194575f80fd5b81518015158114611e53575f80fd5b5f602082840312156121b3575f80fd5b5051919050565b81810381811115610795576107956120e5565b5f60018060a01b03808816835286602084015260a060408401526121f460a0840187611e16565b63ffffffff95909516606084015292909216608090910152509392505050565b634e487b7160e01b5f52604160045260245ffd5b634e487b7160e01b5f52603260045260245ffd5b5f60018060a01b03808816835286602084015260a0604084015261226360a0840187611e16565b606084019590955292909216608090910152509392505050565b5f6020828403121561228d575f80fd5b8151611e5381611f2a565b5f63ffffffff8216806122ad576122ad6120e5565b5f190192915050565b600181815b808511156122f3578163ffffffff048211156122d9576122d96120e5565b808516156122e657918102915b93841c93908002906122bb565b509250929050565b5f8261230957506001610795565b8161231557505f610795565b816001811461232b576002811461233557612366565b6001915050610795565b60ff841115612346576123466120e5565b6001841b915063ffffffff821115612360576123606120e5565b50610795565b5060208310610133831016604e8410600b841016171561239d575081810a63ffffffff811115612398576123986120e5565b610795565b6123a783836122b6565b8063ffffffff048211156123bd576123bd6120e5565b029392505050565b5f63ffffffff6123d98185168285166122fb565b949350505050565b634e487b7160e01b5f52601260045260245ffd5b5f63ffffffff8084168061240b5761240b6123e1565b92169190910692915050565b5f63ffffffff8084168061242d5761242d6123e1565b92169190910492915050565b63ffffffff818116838216019080821115610e6a57610e6a6120e556fea2646970667358221220faeebe2b6cb955190a1856f0d59e7e7c99cba483cffcaae37d09b0f781b6a2f964736f6c63430008170033",
  "linkReferences": {},
  "deployedLinkReferences": {}
}