{
  "_format": "hh-sol-artifact-1",
  "contractName": "ToadnadoL2",
  "sourceName": "contracts/ToadnadoL2.sol",
  "abi": [
    {
      "inputs": [
        {
          "internalType": "address",
          "name": "_verifier",
          "type": "address"
        },
        {
          "internalType": "uint32",
          "name": "_merkleTreeHeight",
          "type": "uint32"
        },
        {
          "internalType": "address",
          "name": "_l2ScrollMessenger",
          "type": "address"
        },
        {
          "internalType": "address",
          "name": "_l1ToadnadoAddress",
          "type": "address"
        }
      ],
      "stateMutability": "nonpayable",
      "type": "constructor"
    },
    {
      "inputs": [],
      "name": "ReentrancyGuardReentrantCall",
      "type": "error"
    },
    {
      "inputs": [],
      "name": "VerificationFailed",
      "type": "error"
    },
    {
      "anonymous": false,
      "inputs": [
        {
          "indexed": true,
          "internalType": "uint256",
          "name": "commitment",
          "type": "uint256"
        },
        {
          "indexed": false,
          "internalType": "uint32",
          "name": "leafIndex",
          "type": "uint32"
        },
        {
          "indexed": false,
          "internalType": "uint256",
          "name": "timestamp",
          "type": "uint256"
        }
      ],
      "name": "Deposit",
      "type": "event"
    },
    {
      "anonymous": false,
      "inputs": [
        {
          "indexed": false,
          "internalType": "address",
          "name": "recipient",
          "type": "address"
        },
        {
          "indexed": false,
          "internalType": "uint256",
          "name": "nullifier",
          "type": "uint256"
        }
      ],
      "name": "PendingWithdrawal",
      "type": "event"
    },
    {
      "anonymous": false,
      "inputs": [
        {
          "indexed": false,
          "internalType": "address",
          "name": "recipient",
          "type": "address"
        },
        {
          "indexed": false,
          "internalType": "uint256",
          "name": "nullifier",
          "type": "uint256"
        }
      ],
      "name": "Withdrawal",
      "type": "event"
    },
    {
      "inputs": [],
      "name": "ROOT_HISTORY_SIZE",
      "outputs": [
        {
          "internalType": "uint32",
          "name": "",
          "type": "uint32"
        }
      ],
      "stateMutability": "view",
      "type": "function"
    },
    {
      "inputs": [],
      "name": "bridgeDebt",
      "outputs": [
        {
          "internalType": "uint256",
          "name": "",
          "type": "uint256"
        }
      ],
      "stateMutability": "view",
      "type": "function"
    },
    {
      "inputs": [
        {
          "internalType": "uint256",
          "name": "_amount",
          "type": "uint256"
        },
        {
          "internalType": "uint256",
          "name": "gasLimit",
          "type": "uint256"
        }
      ],
      "name": "bridgeEth",
      "outputs": [],
      "stateMutability": "nonpayable",
      "type": "function"
    },
    {
      "inputs": [
        {
          "internalType": "uint256",
          "name": "",
          "type": "uint256"
        }
      ],
      "name": "commitments",
      "outputs": [
        {
          "internalType": "bool",
          "name": "",
          "type": "bool"
        }
      ],
      "stateMutability": "view",
      "type": "function"
    },
    {
      "inputs": [
        {
          "internalType": "uint256",
          "name": "",
          "type": "uint256"
        }
      ],
      "name": "commitmentsTreeRoots",
      "outputs": [
        {
          "internalType": "bool",
          "name": "",
          "type": "bool"
        }
      ],
      "stateMutability": "view",
      "type": "function"
    },
    {
      "inputs": [],
      "name": "currentRootIndex",
      "outputs": [
        {
          "internalType": "uint32",
          "name": "",
          "type": "uint32"
        }
      ],
      "stateMutability": "view",
      "type": "function"
    },
    {
      "inputs": [
        {
          "internalType": "uint256",
          "name": "_preCommitment",
          "type": "uint256"
        }
      ],
      "name": "deposit",
      "outputs": [],
      "stateMutability": "payable",
      "type": "function"
    },
    {
      "inputs": [],
      "name": "ethPendingWithdrawals",
      "outputs": [
        {
          "internalType": "uint256",
          "name": "",
          "type": "uint256"
        }
      ],
      "stateMutability": "view",
      "type": "function"
    },
    {
      "inputs": [
        {
          "internalType": "uint256",
          "name": "",
          "type": "uint256"
        }
      ],
      "name": "filledSubtrees",
      "outputs": [
        {
          "internalType": "uint256",
          "name": "",
          "type": "uint256"
        }
      ],
      "stateMutability": "view",
      "type": "function"
    },
    {
      "inputs": [
        {
          "internalType": "uint256",
          "name": "key",
          "type": "uint256"
        }
      ],
      "name": "getL1Root",
      "outputs": [
        {
          "internalType": "uint256",
          "name": "",
          "type": "uint256"
        }
      ],
      "stateMutability": "view",
      "type": "function"
    },
    {
      "inputs": [],
      "name": "getLastKnowL1Root",
      "outputs": [
        {
          "internalType": "uint256",
          "name": "",
          "type": "uint256"
        }
      ],
      "stateMutability": "view",
      "type": "function"
    },
    {
      "inputs": [],
      "name": "getLastKnowL2Root",
      "outputs": [
        {
          "internalType": "uint256",
          "name": "",
          "type": "uint256"
        }
      ],
      "stateMutability": "view",
      "type": "function"
    },
    {
      "inputs": [],
      "name": "getLastRoot",
      "outputs": [
        {
          "internalType": "uint256",
          "name": "",
          "type": "uint256"
        }
      ],
      "stateMutability": "view",
      "type": "function"
    },
    {
      "inputs": [
        {
          "internalType": "uint256",
          "name": "_left",
          "type": "uint256"
        },
        {
          "internalType": "uint256",
          "name": "_right",
          "type": "uint256"
        }
      ],
      "name": "hashLeftRight",
      "outputs": [
        {
          "internalType": "uint256",
          "name": "",
          "type": "uint256"
        }
      ],
      "stateMutability": "pure",
      "type": "function"
    },
    {
      "inputs": [
        {
          "internalType": "uint256",
          "name": "_root",
          "type": "uint256"
        }
      ],
      "name": "isKnownL1Root",
      "outputs": [
        {
          "internalType": "bool",
          "name": "",
          "type": "bool"
        }
      ],
      "stateMutability": "view",
      "type": "function"
    },
    {
      "inputs": [
        {
          "internalType": "uint256",
          "name": "_root",
          "type": "uint256"
        }
      ],
      "name": "isKnownL2Root",
      "outputs": [
        {
          "internalType": "bool",
          "name": "",
          "type": "bool"
        }
      ],
      "stateMutability": "view",
      "type": "function"
    },
    {
      "inputs": [
        {
          "internalType": "uint256",
          "name": "_nullifierHash",
          "type": "uint256"
        }
      ],
      "name": "isSpent",
      "outputs": [
        {
          "internalType": "bool",
          "name": "",
          "type": "bool"
        }
      ],
      "stateMutability": "view",
      "type": "function"
    },
    {
      "inputs": [
        {
          "internalType": "uint256[]",
          "name": "_nullifierHashes",
          "type": "uint256[]"
        }
      ],
      "name": "isSpentArray",
      "outputs": [
        {
          "internalType": "bool[]",
          "name": "spent",
          "type": "bool[]"
        }
      ],
      "stateMutability": "view",
      "type": "function"
    },
    {
      "inputs": [],
      "name": "l1ToadnadoAddress",
      "outputs": [
        {
          "internalType": "address",
          "name": "",
          "type": "address"
        }
      ],
      "stateMutability": "view",
      "type": "function"
    },
    {
      "inputs": [],
      "name": "l2ScrollMessenger",
      "outputs": [
        {
          "internalType": "address",
          "name": "",
          "type": "address"
        }
      ],
      "stateMutability": "view",
      "type": "function"
    },
    {
      "inputs": [],
      "name": "levels",
      "outputs": [
        {
          "internalType": "uint32",
          "name": "",
          "type": "uint32"
        }
      ],
      "stateMutability": "view",
      "type": "function"
    },
    {
      "inputs": [],
      "name": "nextIndex",
      "outputs": [
        {
          "internalType": "uint32",
          "name": "",
          "type": "uint32"
        }
      ],
      "stateMutability": "view",
      "type": "function"
    },
    {
      "inputs": [
        {
          "internalType": "uint256",
          "name": "",
          "type": "uint256"
        }
      ],
      "name": "nullifiers",
      "outputs": [
        {
          "internalType": "bool",
          "name": "",
          "type": "bool"
        }
      ],
      "stateMutability": "view",
      "type": "function"
    },
    {
      "inputs": [
        {
          "internalType": "address",
          "name": "l1_contract",
          "type": "address"
        },
        {
          "internalType": "uint256",
          "name": "slot",
          "type": "uint256"
        }
      ],
      "name": "readSingleSlot",
      "outputs": [
        {
          "internalType": "bytes",
          "name": "",
          "type": "bytes"
        }
      ],
      "stateMutability": "view",
      "type": "function"
    },
    {
      "inputs": [],
      "name": "recieveBridgedEth",
      "outputs": [],
      "stateMutability": "payable",
      "type": "function"
    },
    {
      "inputs": [
        {
          "internalType": "uint256",
          "name": "gasLimit",
          "type": "uint256"
        }
      ],
      "name": "requestEthBridge",
      "outputs": [],
      "stateMutability": "nonpayable",
      "type": "function"
    },
    {
      "inputs": [
        {
          "internalType": "uint256",
          "name": "",
          "type": "uint256"
        }
      ],
      "name": "roots",
      "outputs": [
        {
          "internalType": "uint256",
          "name": "",
          "type": "uint256"
        }
      ],
      "stateMutability": "view",
      "type": "function"
    },
    {
      "inputs": [
        {
          "internalType": "uint32",
          "name": "gasLimit",
          "type": "uint32"
        }
      ],
      "name": "sendLatestRootToL1",
      "outputs": [],
      "stateMutability": "payable",
      "type": "function"
    },
    {
      "inputs": [],
      "name": "verifier",
      "outputs": [
        {
          "internalType": "address",
          "name": "",
          "type": "address"
        }
      ],
      "stateMutability": "view",
      "type": "function"
    },
    {
      "inputs": [
        {
          "internalType": "uint256",
          "name": "_l1root",
          "type": "uint256"
        },
        {
          "internalType": "uint256",
          "name": "_l2root",
          "type": "uint256"
        },
        {
          "internalType": "uint256",
          "name": "_nullifier",
          "type": "uint256"
        },
        {
          "internalType": "address payable",
          "name": "_recipient",
          "type": "address"
        },
        {
          "internalType": "uint256",
          "name": "_amount",
          "type": "uint256"
        },
        {
          "internalType": "bytes",
          "name": "snarkProof",
          "type": "bytes"
        }
      ],
      "name": "withdraw",
      "outputs": [],
      "stateMutability": "payable",
      "type": "function"
    },
    {
      "inputs": [
        {
          "internalType": "uint256",
          "name": "_nullifier",
          "type": "uint256"
        }
      ],
      "name": "withdrawPending",
      "outputs": [],
      "stateMutability": "nonpayable",
      "type": "function"
    },
    {
      "inputs": [
        {
          "internalType": "uint256",
          "name": "i",
          "type": "uint256"
        }
      ],
      "name": "zeros",
      "outputs": [
        {
          "internalType": "uint256",
          "name": "",
          "type": "uint256"
        }
      ],
      "stateMutability": "pure",
      "type": "function"
    }
  ],
  "bytecode": "0x60e0604052600380546001600160401b03191690555f6009819055600a5534801562000029575f80fd5b506040516200309a3803806200309a8339810160408190526200004c9162000874565b8383805f8163ffffffff1611620000b65760405162461bcd60e51b815260206004820152602360248201527f5f6c6576656c732073686f756c642062652067726561746572207468616e207a60448201526265726f60e81b60648201526084015b60405180910390fd5b60148163ffffffff16106200010e5760405162461bcd60e51b815260206004820152601e60248201527f5f6c6576656c732073686f756c64206265206c657373207468616e20323000006044820152606401620000ad565b5f805463ffffffff191663ffffffff83161781555b8163ffffffff168163ffffffff1610156200016b576200014963ffffffff8216620001cf565b63ffffffff82165f908152600160208190526040909120919091550162000123565b506200017d63ffffffff8216620001cf565b5f805260026020527fac33ff75c19e70fe83507db0d683fd3465c996598dc972688b7ace676c89077b55505060016004556001600160a01b0390811660805291821660a0521660c05250620008d79050565b5f815f03620001df57505f919050565b816001036200020f57507f2098f5fb9e239eab3ceac3f27b81e481dc3124d55ffed523a839ee8446b64864919050565b816002036200023f57507f1069673dcdb12263df301a6ff584a7ec261a44cb9dc68df067a4774460b1f1e1919050565b816003036200026f57507f18f43331537ee2af2e3d758d50f72106467c6eea50371dd528d57eb2b856d238919050565b816004036200029f57507f07f9d837cb17b0d36320ffe93ba52345f1b728571a568265caac97559dbc952a919050565b81600503620002cf57507f2b94cf5e8746b3f5c9631f4c5df32907a699c58c94b2ad4d7b5cec1639183f55919050565b81600603620002ff57507f2dee93c5a666459646ea7d22cca9e1bcfed71e6951b953611d11dda32ea09d78919050565b816007036200032f57507f078295e5a22b84e982cf601eb639597b8b0515a88cb5ac7fa8a4aabe3c87349d919050565b816008036200035f57507f2fa5e5f18f6027a6501bec864564472a616b2e274a41211a444cbe3a99f3cc61919050565b816009036200038f57507f0e884376d0d8fd21ecb780389e941f66e45e7acce3e228ab3e2156a614fcd747919050565b81600a03620003bf57507f1b7201da72494f1e28717ad1a52eb469f95892f957713533de6175e5da190af2919050565b81600b03620003ef57507f1f8d8822725e36385200c0b201249819a6e6e1e4650808b5bebc6bface7d7636919050565b81600c036200041f57507f2c5d82f66c914bafb9701589ba8cfcfb6162b0a12acf88a8d0879a0471b5f85a919050565b81600d036200044f57507f14c54148a0940bb820957f5adf3fa1134ef5c4aaa113f4646458f270e0bfbfd0919050565b81600e036200047f57507f190d33b12f986f961e10c0ee44d8b9af11be25588cad89d416118e4bf4ebe80c919050565b81600f03620004af57507f22f98aa9ce704152ac17354914ad73ed1167ae6596af510aa5b3649325e06c92919050565b81601003620004df57507f2a7c7c9b6ce5880b9f6f228d72bf6a575a526f29c66ecceef8b753d38bba7323919050565b816011036200050f57507f2e8186e558698ec1c67af9c14d463ffc470043c9c2988b954d75dd643f36b992919050565b816012036200053f57507f0f57c5571e9a4eab49e2c8cf050dae948aef6ead647392273546249d1c1ff10f919050565b816013036200056f57507f1830ee67b5fb554ad5f63d4388800e1cfe78e310697d46e43c9ce36134f72cca919050565b816014036200059f57507f2134e76ac5d21aab186c2be1dd8f84ee880a1e46eaf712f9d371b6df22191f3e919050565b81601503620005cf57507f19df90ec844ebc4ffeebd866f33859b0c051d8c958ee3aa88f8f8df3db91a5b1919050565b81601603620005ff57507f18cca2a66b5c0787981e69aefd84852d74af0e93ef4912b4648c05f722efe52b919050565b816017036200062f57507f2388909415230d1b4d1304d2d54f473a628338f2efad83fadf05644549d2538d919050565b816018036200065f57507f27171fb4a97b6cc0e9e8f543b5294de866a2af2c9c8d0b1d96e673e4529ed540919050565b816019036200068f57507f2ff6650540f629fd5711a0bc74fc0d28dcb230b9392583e5f8d59696dde6ae21919050565b81601a03620006bf57507f120c58f143d491e95902f7f5277778a2e0ad5168f6add75669932630ce611518919050565b81601b03620006ef57507f1f21feb70d3f21b07bf853d5e5db03071ec495a0a565a21da2d665d279483795919050565b81601c036200071f57507f24be905fa71335e14c638cc0f66a8623a826e768068a9e968bb1a1dde18a72d2919050565b81601d036200074f57507f0f8666b62ed17491c50ceadead57d4cd597ef3821d65c328744c74e553dac26d919050565b81601e036200077f57507f0918d46bf52d98b034413f4a1a1c41594e7a7a3f6ae08cb43d1a2a230e1959ef919050565b81601f03620007af57507f1bbeb01b4c479ecde76917645e404dfa2e26f90d0afc5a65128513ad375c5ff2919050565b81602003620007df57507f2f68a1c58e257e42a17a6c61dff5551ed560b9922ab119d5ac8e184c9734ead9919050565b816021036200080f57507f1102d2f8db05e4af4842e8ad3d85ed45eb28447eb7212235a2281d5ab5d81d11919050565b60405162461bcd60e51b815260206004820152601360248201527f496e646578206f7574206f6620626f756e6473000000000000000000000000006044820152606401620000ad565b919050565b80516001600160a01b038116811462000858575f80fd5b5f805f806080858703121562000888575f80fd5b62000893856200085d565b9350602085015163ffffffff81168114620008ac575f80fd5b9250620008bc604086016200085d565b9150620008cc606086016200085d565b905092959194509250565b60805160a05160c051612728620009725f395f818161051001528181610b1b01528181610bfb01528181610ce701528181610e150152818161105e015281816111360152818161197e0152611abc01525f818161049301528181610bbc01528181610c2501528181610de4015281816110fd0152818161193f015281816119a80152611a8301525f818161029b015261080a01526127285ff3fe6080604052600436106101db575f3560e01c8063b6b55f25116100fd578063cd87a3b411610092578063ea65ba4911610062578063ea65ba49146105a8578063f178e47c146105d4578063f8af86e7146105ff578063fc7e9c6f1461061e575f80fd5b8063cd87a3b414610532578063d21e82ab14610546578063db394bb914610574578063e829558814610589575f80fd5b8063c0e70bbd116100cd578063c0e70bbd14610482578063c2b40ae4146104b5578063c9ca7a61146104e0578063cc48b735146104ff575f80fd5b8063b6b55f251461043c578063b89d302d1461044f578063ba70f75714610398578063c068a7ff1461046e575f80fd5b806349ce8997116101735780635a129efe116101435780635a129efe146103c05780635bb93995146103ee57806390eeb02b1461040d5780639d7d010f14610429575f80fd5b806349ce89971461031b5780634ecf518b146103495780635032d4f11461037957806353a4778b14610398575f80fd5b80632b7ac3f3116101ae5780632b7ac3f31461028a5780632e585fd8146102d5578063397a14b4146102f457806339da4b5514610313575f80fd5b806306e473f2146101df578063102b72e7146101f45780631b5844ff1461022957806328482f891461024c575b5f80fd5b6101f26101ed366004612033565b610642565b005b3480156101ff575f80fd5b5061021361020e3660046120d6565b6108d8565b604051610220919061214d565b60405180910390f35b348015610234575f80fd5b5061023e600a5481565b604051908152602001610220565b348015610257575f80fd5b5061027a61026636600461215f565b60076020525f908152604090205460ff1681565b6040519015158152602001610220565b348015610295575f80fd5b506102bd7f000000000000000000000000000000000000000000000000000000000000000081565b6040516001600160a01b039091168152602001610220565b3480156102e0575f80fd5b506101f26102ef36600461215f565b6109bb565b3480156102ff575f80fd5b5061027a61030e36600461215f565b610b06565b6101f2610bb1565b348015610326575f80fd5b5061027a61033536600461215f565b60066020525f908152604090205460ff1681565b348015610354575f80fd5b505f546103649063ffffffff1681565b60405163ffffffff9091168152602001610220565b348015610384575f80fd5b5061023e61039336600461215f565b610ce1565b3480156103a3575f80fd5b5060035463ffffffff165f9081526002602052604090205461023e565b3480156103cb575f80fd5b5061027a6103da36600461215f565b5f9081526005602052604090205460ff1690565b3480156103f9575f80fd5b5061023e610408366004612176565b610d53565b348015610418575f80fd5b506003546103649063ffffffff1681565b6101f26104373660046121a7565b610de2565b6101f261044a36600461215f565b610ec7565b34801561045a575f80fd5b5061027a61046936600461215f565b61104d565b348015610479575f80fd5b5061023e611057565b34801561048d575f80fd5b506102bd7f000000000000000000000000000000000000000000000000000000000000000081565b3480156104c0575f80fd5b5061023e6104cf36600461215f565b60026020525f908152604090205481565b3480156104eb575f80fd5b506101f26104fa36600461215f565b6110ae565b34801561050a575f80fd5b506102bd7f000000000000000000000000000000000000000000000000000000000000000081565b34801561053d575f80fd5b50610364601e81565b348015610551575f80fd5b5061027a61056036600461215f565b60056020525f908152604090205460ff1681565b34801561057f575f80fd5b5061023e60095481565b348015610594575f80fd5b5061023e6105a336600461215f565b61119c565b3480156105b3575f80fd5b506105c76105c23660046121c2565b6117f8565b6040516102209190612231565b3480156105df575f80fd5b5061023e6105ee36600461215f565b60016020525f908152604090205481565b34801561060a575f80fd5b506101f2610619366004612176565b6118b2565b348015610629575f80fd5b5060035461036490640100000000900463ffffffff1681565b61064a611b1b565b5f8581526005602052604090205460ff16156106ad5760405162461bcd60e51b815260206004820152601f60248201527f546865206e6f746520686173206265656e20616c7265616479207370656e740060448201526064015b60405180910390fd5b6106b68661104d565b6107025760405162461bcd60e51b815260206004820152601f60248201527f43616e6e6f742066696e6420796f7572206c32206d65726b6c6520726f6f740060448201526064016106a4565b61070b87610b06565b6107575760405162461bcd60e51b815260206004820152601f60248201527f43616e6e6f742066696e6420796f7572206c31206d65726b6c6520726f6f740060448201526064016106a4565b604080518082018252888152602081018890529051632b0aac7f60e11b81525f9173__$75f79a42d9bcbdbb69ad79ebd80f556f39$__9163561558fe916107a091600401612276565b602060405180830381865af41580156107bb573d5f803e3d5ffd5b505050506040513d601f19601f820116820180604052508101906107df91906122a6565b9050465f6107f0838989858a611b45565b604051633a94343960e21b81529091506001600160a01b037f0000000000000000000000000000000000000000000000000000000000000000169063ea50d0e490610843908890889086906004016122bd565b602060405180830381865afa15801561085e573d5f803e3d5ffd5b505050506040513d601f19601f820116820180604052508101906108829190612335565b61089f5760405163439cc0cd60e01b815260040160405180910390fd5b5f888152600560205260409020805460ff191660011790556108c2878988611c26565b5050506108cf6001600455565b50505050505050565b604051606083811b6bffffffffffffffffffffffff1916602083015260348201839052905f9060540160405160208183030381529060405290505f60606101016001600160a01b03168360405161092f9190612354565b5f60405180830381855afa9150503d805f8114610967576040519150601f19603f3d011682016040523d82523d5f602084013e61096c565b606091505b509092509050816109b05760405162461bcd60e51b815260206004820152600e60248201526d130c54d313d0510819985a5b195960921b60448201526064016106a4565b925050505b92915050565b5f81815260086020908152604091829020825160608101845281546001600160a01b031681526001808301549382019390935260029091015460ff1615159281018390529114610a4d5760405162461bcd60e51b815260206004820181905260248201527f5468697320776974686472617720697320616c726561647920636c61696d656460448201526064016106a4565b5f8281526008602090815260408220600201805460ff19169055820151600a805491929091610a7d908490612383565b9091555050805160208201516040516001600160a01b039092169181156108fc0291905f818181858888f19350505050158015610abc573d5f803e3d5ffd5b508051604080516001600160a01b039092168252602082018490527f7fcf532c15f0a6db0bd6d0e038bea71d30d808c7d98cb3bf7268a95bf5081b65910160405180910390a15050565b5f815f03610b1557505f919050565b5f610b417f000000000000000000000000000000000000000000000000000000000000000060036108d8565b806020019051810190610b549190612396565b9050805b610b678163ffffffff16610ce1565b8403610b77575060019392505050565b8063ffffffff165f03610b885750601e5b80610b92816123b1565b9150508163ffffffff168163ffffffff1603610b5857505f9392505050565b336001600160a01b037f00000000000000000000000000000000000000000000000000000000000000001614610bf95760405162461bcd60e51b81526004016106a4906123cf565b7f00000000000000000000000000000000000000000000000000000000000000006001600160a01b03167f00000000000000000000000000000000000000000000000000000000000000006001600160a01b0316636e296e456040518163ffffffff1660e01b8152600401602060405180830381865afa158015610c7f573d5f803e3d5ffd5b505050506040513d601f19601f82011682018060405250810190610ca39190612417565b6001600160a01b031614610cc95760405162461bcd60e51b81526004016106a490612432565b34600a5f828254610cda919061248f565b9091555050565b5f610d407f0000000000000000000000000000000000000000000000000000000000000000836003604051602001610d23929190918252602082015260400190565b604051602081830303815290604052805190602001205f1c6108d8565b8060200190518101906109b591906122a6565b604080518082018252838152602081018390529051632b0aac7f60e11b81525f9173__$75f79a42d9bcbdbb69ad79ebd80f556f39$__9163561558fe91610d9c91600401612276565b602060405180830381865af4158015610db7573d5f803e3d5ffd5b505050506040513d601f19601f82011682018060405250810190610ddb91906122a6565b9392505050565b7f00000000000000000000000000000000000000000000000000000000000000006001600160a01b038116635f7b1577347f00000000000000000000000000000000000000000000000000000000000000005f610e3d611057565b604051602401610e4f91815260200190565b60408051601f198184030181529181526020820180516001600160e01b0316636b91e4d560e01b1790525160e086901b6001600160e01b0319168152610e9e93929190899033906004016124a2565b5f604051808303818588803b158015610eb5575f80fd5b505af11580156108cf573d5f803e3d5ffd5b610ecf611b1b565b60408051808201825282815234602082018190529151632b0aac7f60e11b81525f9173__$75f79a42d9bcbdbb69ad79ebd80f556f39$__9163561558fe91610f1991600401612276565b602060405180830381865af4158015610f34573d5f803e3d5ffd5b505050506040513d601f19601f82011682018060405250810190610f5891906122a6565b5f8181526006602052604090205490915060ff1615610fcb5760405162461bcd60e51b815260206004820152602960248201527f54686520636f6d6d69746d656e742068617320616c7265616479206265656e206044820152681cdd589b5a5d1d195960ba1b60648201526084016106a4565b5f610fd582611de6565b5f8381526006602052604090819020805460ff191660011790555190915082907f2813ca2762c14ad53880ef467c7448a9015904c20e064e6216ffb3f63390ec5d90611035908490429063ffffffff929092168252602082015260400190565b60405180910390a250505061104a6001600455565b50565b5f6109b582611fa6565b5f806110847f000000000000000000000000000000000000000000000000000000000000000060036108d8565b8060200190518101906110979190612396565b90506110a88163ffffffff16610ce1565b91505090565b6009546040805160248101839052604480820185905282518083039091018152606490910182526020810180516001600160e01b031663f8af86e760e01b1790529051635f7b157760e01b81527f0000000000000000000000000000000000000000000000000000000000000000916001600160a01b03831691635f7b1577915f91611165917f0000000000000000000000000000000000000000000000000000000000000000918491908a9033906004016124e9565b5f604051808303818588803b15801561117c575f80fd5b505af115801561118e573d5f803e3d5ffd5b50505f600955505050505050565b5f815f036111ab57505f919050565b816001036111da57507f2098f5fb9e239eab3ceac3f27b81e481dc3124d55ffed523a839ee8446b64864919050565b8160020361120957507f1069673dcdb12263df301a6ff584a7ec261a44cb9dc68df067a4774460b1f1e1919050565b8160030361123857507f18f43331537ee2af2e3d758d50f72106467c6eea50371dd528d57eb2b856d238919050565b8160040361126757507f07f9d837cb17b0d36320ffe93ba52345f1b728571a568265caac97559dbc952a919050565b8160050361129657507f2b94cf5e8746b3f5c9631f4c5df32907a699c58c94b2ad4d7b5cec1639183f55919050565b816006036112c557507f2dee93c5a666459646ea7d22cca9e1bcfed71e6951b953611d11dda32ea09d78919050565b816007036112f457507f078295e5a22b84e982cf601eb639597b8b0515a88cb5ac7fa8a4aabe3c87349d919050565b8160080361132357507f2fa5e5f18f6027a6501bec864564472a616b2e274a41211a444cbe3a99f3cc61919050565b8160090361135257507f0e884376d0d8fd21ecb780389e941f66e45e7acce3e228ab3e2156a614fcd747919050565b81600a0361138157507f1b7201da72494f1e28717ad1a52eb469f95892f957713533de6175e5da190af2919050565b81600b036113b057507f1f8d8822725e36385200c0b201249819a6e6e1e4650808b5bebc6bface7d7636919050565b81600c036113df57507f2c5d82f66c914bafb9701589ba8cfcfb6162b0a12acf88a8d0879a0471b5f85a919050565b81600d0361140e57507f14c54148a0940bb820957f5adf3fa1134ef5c4aaa113f4646458f270e0bfbfd0919050565b81600e0361143d57507f190d33b12f986f961e10c0ee44d8b9af11be25588cad89d416118e4bf4ebe80c919050565b81600f0361146c57507f22f98aa9ce704152ac17354914ad73ed1167ae6596af510aa5b3649325e06c92919050565b8160100361149b57507f2a7c7c9b6ce5880b9f6f228d72bf6a575a526f29c66ecceef8b753d38bba7323919050565b816011036114ca57507f2e8186e558698ec1c67af9c14d463ffc470043c9c2988b954d75dd643f36b992919050565b816012036114f957507f0f57c5571e9a4eab49e2c8cf050dae948aef6ead647392273546249d1c1ff10f919050565b8160130361152857507f1830ee67b5fb554ad5f63d4388800e1cfe78e310697d46e43c9ce36134f72cca919050565b8160140361155757507f2134e76ac5d21aab186c2be1dd8f84ee880a1e46eaf712f9d371b6df22191f3e919050565b8160150361158657507f19df90ec844ebc4ffeebd866f33859b0c051d8c958ee3aa88f8f8df3db91a5b1919050565b816016036115b557507f18cca2a66b5c0787981e69aefd84852d74af0e93ef4912b4648c05f722efe52b919050565b816017036115e457507f2388909415230d1b4d1304d2d54f473a628338f2efad83fadf05644549d2538d919050565b8160180361161357507f27171fb4a97b6cc0e9e8f543b5294de866a2af2c9c8d0b1d96e673e4529ed540919050565b8160190361164257507f2ff6650540f629fd5711a0bc74fc0d28dcb230b9392583e5f8d59696dde6ae21919050565b81601a0361167157507f120c58f143d491e95902f7f5277778a2e0ad5168f6add75669932630ce611518919050565b81601b036116a057507f1f21feb70d3f21b07bf853d5e5db03071ec495a0a565a21da2d665d279483795919050565b81601c036116cf57507f24be905fa71335e14c638cc0f66a8623a826e768068a9e968bb1a1dde18a72d2919050565b81601d036116fe57507f0f8666b62ed17491c50ceadead57d4cd597ef3821d65c328744c74e553dac26d919050565b81601e0361172d57507f0918d46bf52d98b034413f4a1a1c41594e7a7a3f6ae08cb43d1a2a230e1959ef919050565b81601f0361175c57507f1bbeb01b4c479ecde76917645e404dfa2e26f90d0afc5a65128513ad375c5ff2919050565b8160200361178b57507f2f68a1c58e257e42a17a6c61dff5551ed560b9922ab119d5ac8e184c9734ead9919050565b816021036117ba57507f1102d2f8db05e4af4842e8ad3d85ed45eb28447eb7212235a2281d5ab5d81d11919050565b60405162461bcd60e51b8152602060048201526013602482015272496e646578206f7574206f6620626f756e647360681b60448201526064016106a4565b60608167ffffffffffffffff8111156118135761181361252a565b60405190808252806020026020018201604052801561183c578160200160208202803683370190505b5090505f5b828110156118ab5761187984848381811061185e5761185e61253e565b905060200201355f9081526005602052604090205460ff1690565b156118a35760018282815181106118925761189261253e565b911515602092830291909101909101525b600101611841565b5092915050565b600a546118bf9047612383565b8211156119345760405162461bcd60e51b815260206004820152603e60248201527f6e6f7420656e6f7567682065746820696e20636f6e74726163742028636f6e7360448201527f69646572696e672065746850656e64696e675769746864726177616c7329000060648201526084016106a4565b336001600160a01b037f0000000000000000000000000000000000000000000000000000000000000000161461197c5760405162461bcd60e51b81526004016106a4906123cf565b7f00000000000000000000000000000000000000000000000000000000000000006001600160a01b03167f00000000000000000000000000000000000000000000000000000000000000006001600160a01b0316636e296e456040518163ffffffff1660e01b8152600401602060405180830381865afa158015611a02573d5f803e3d5ffd5b505050506040513d601f19601f82011682018060405250810190611a269190612417565b6001600160a01b031614611a4c5760405162461bcd60e51b81526004016106a490612432565b6040805160048082526024820183526020820180516001600160e01b03166339da4b5560e01b1790529151635f7b157760e01b81527f0000000000000000000000000000000000000000000000000000000000000000926001600160a01b03841692635f7b1577928792611ae8927f00000000000000000000000000000000000000000000000000000000000000009285928a913391016124e9565b5f604051808303818588803b158015611aff575f80fd5b505af1158015611b11573d5f803e3d5ffd5b5050505050505050565b600260045403611b3e57604051633ee5aeb560e01b815260040160405180910390fd5b6002600455565b60408051600580825260c082019092526060915f91906020820160a080368337019050509050865f1b815f81518110611b8057611b8061253e565b602002602001018181525050855f1b81600181518110611ba257611ba261253e565b602090810291909101015280516001600160a01b0386169082906002908110611bcd57611bcd61253e565b602002602001018181525050835f1b81600381518110611bef57611bef61253e565b602002602001018181525050825f1b81600481518110611c1157611c1161253e565b60209081029190910101529695505050505050565b3415611c925760405162461bcd60e51b815260206004820152603560248201527f4d6573736167652076616c756520697320737570706f73656420746f206265206044820152747a65726f20666f722045544820696e7374616e636560581b60648201526084016106a4565b80600a5447611ca19190612383565b10611d2157604080516001600160a01b0385168152602081018490527f7fcf532c15f0a6db0bd6d0e038bea71d30d808c7d98cb3bf7268a95bf5081b65910160405180910390a16040516001600160a01b0384169082156108fc029083905f818181858888f19350505050158015611d1b573d5f803e3d5ffd5b50505050565b604080516001600160a01b0385168152602081018490527f39d9cf4ffb93650d8ce789639cb8cf3c8d7b039e1f9795c038af55b4ae643fca910160405180910390a1604080516060810182526001600160a01b038581168252602080830185815260018486018181525f8981526008909452958320945185546001600160a01b0319169416939093178455519183019190915591516002909101805460ff191691151591909117905560098054839290611ddc90849061248f565b9091555050505050565b6003545f8054909163ffffffff640100000000909104811691611e0b91166002612661565b63ffffffff168163ffffffff1603611e7e5760405162461bcd60e51b815260206004820152603060248201527f4d65726b6c6520747265652069732066756c6c2e204e6f206d6f7265206c656160448201526f1d995cc818d85b88189948185919195960821b60648201526084016106a4565b80835f80805b5f5463ffffffff9081169082161015611f1a57611ea2600286612691565b63ffffffff165f03611ede57839250611ec08163ffffffff1661119c565b63ffffffff82165f9081526001602052604090208590559150611ef9565b63ffffffff81165f9081526001602052604090205492508391505b611f038383610d53565b9350611f106002866126b3565b9450600101611e84565b506003545f90601e90611f349063ffffffff1660016126d5565b611f3e9190612691565b6003805463ffffffff191663ffffffff83169081179091555f9081526002602052604090208590559050611f738660016126d5565b6003805463ffffffff929092166401000000000267ffffffff000000001990921691909117905550939695505050505050565b5f815f03611fb557505f919050565b60035463ffffffff16805b63ffffffff81165f908152600260205260409020548403611fe5575060019392505050565b8063ffffffff165f03611ff65750601e5b80612000816123b1565b9150508163ffffffff168163ffffffff1603611fc057505f9392505050565b6001600160a01b038116811461104a575f80fd5b5f805f805f805f60c0888a031215612049575f80fd5b87359650602088013595506040880135945060608801356120698161201f565b93506080880135925060a088013567ffffffffffffffff8082111561208c575f80fd5b818a0191508a601f83011261209f575f80fd5b8135818111156120ad575f80fd5b8b60208285010111156120be575f80fd5b60208301945080935050505092959891949750929550565b5f80604083850312156120e7575f80fd5b82356120f28161201f565b946020939093013593505050565b5f5b8381101561211a578181015183820152602001612102565b50505f910152565b5f8151808452612139816020860160208601612100565b601f01601f19169290920160200192915050565b602081525f610ddb6020830184612122565b5f6020828403121561216f575f80fd5b5035919050565b5f8060408385031215612187575f80fd5b50508035926020909101359150565b63ffffffff8116811461104a575f80fd5b5f602082840312156121b7575f80fd5b8135610ddb81612196565b5f80602083850312156121d3575f80fd5b823567ffffffffffffffff808211156121ea575f80fd5b818501915085601f8301126121fd575f80fd5b81358181111561220b575f80fd5b8660208260051b850101111561221f575f80fd5b60209290920196919550909350505050565b602080825282518282018190525f9190848201906040850190845b8181101561226a57835115158352928401929184019160010161224c565b50909695505050505050565b6040810181835f5b600281101561229d57815183526020928301929091019060010161227e565b50505092915050565b5f602082840312156122b6575f80fd5b5051919050565b60408152826040820152828460608301375f606084830101525f601f19601f850116820160608101602060608584030160208601528186518084526080850191506020880194505f93505b808410156123285784518252938201936001939093019290820190612308565b5098975050505050505050565b5f60208284031215612345575f80fd5b81518015158114610ddb575f80fd5b5f8251612365818460208701612100565b9190910192915050565b634e487b7160e01b5f52601160045260245ffd5b818103818111156109b5576109b561236f565b5f602082840312156123a6575f80fd5b8151610ddb81612196565b5f63ffffffff8216806123c6576123c661236f565b5f190192915050565b60208082526028908201527f66756e6374696f6e206e6f742063616c6c6564206279206c315363726f6c6c4d60408201526732b9b9b2b733b2b960c11b606082015260800190565b5f60208284031215612427575f80fd5b8151610ddb8161201f565b6020808252603d908201527f636f6e7472616374206d6573736167696e672066726f6d204c32206973206e6f60408201527f7420746865206c32546f61646e61646f5363726f6c6c41646472657373000000606082015260800190565b808201808211156109b5576109b561236f565b5f60018060a01b03808816835286602084015260a060408401526124c960a0840187612122565b63ffffffff95909516606084015292909216608090910152509392505050565b5f60018060a01b03808816835286602084015260a0604084015261251060a0840187612122565b606084019590955292909216608090910152509392505050565b634e487b7160e01b5f52604160045260245ffd5b634e487b7160e01b5f52603260045260245ffd5b600181815b8085111561258f578163ffffffff048211156125755761257561236f565b8085161561258257918102915b93841c9390800290612557565b509250929050565b5f826125a5575060016109b5565b816125b157505f6109b5565b81600181146125c757600281146125d157612602565b60019150506109b5565b60ff8411156125e2576125e261236f565b6001841b915063ffffffff8211156125fc576125fc61236f565b506109b5565b5060208310610133831016604e8410600b8410161715612639575081810a63ffffffff8111156126345761263461236f565b6109b5565b6126438383612552565b8063ffffffff048211156126595761265961236f565b029392505050565b5f63ffffffff612675818516828516612597565b949350505050565b634e487b7160e01b5f52601260045260245ffd5b5f63ffffffff808416806126a7576126a761267d565b92169190910692915050565b5f63ffffffff808416806126c9576126c961267d565b92169190910492915050565b63ffffffff8181168382160190808211156118ab576118ab61236f56fea2646970667358221220df42dc3d355b3d3022bb6561bec29f14e8ba4bda973f86e41ace8769d0531dd064736f6c63430008170033",
  "linkReferences": {
    "poseidon-solidity/PoseidonT3.sol": {
      "PoseidonT3": [
        {
          "length": 20,
          "start": 4332
        },
        {
          "length": 20,
          "start": 5864
        },
        {
          "length": 20,
          "start": 6245
        }
      ]
    }
  },
  "deployedLinkReferences": {
    "poseidon-solidity/PoseidonT3.sol": {
      "PoseidonT3": [
        {
          "length": 20,
          "start": 1914
        },
        {
          "length": 20,
          "start": 3446
        },
        {
          "length": 20,
          "start": 3827
        }
      ]
    }
  }
}