{
  "_format": "hh-sol-artifact-1",
  "contractName": "ToadnadoL1",
  "sourceName": "contracts/ToadnadoL1.sol",
  "abi": [
    {
      "inputs": [
        {
          "internalType": "address",
          "name": "_verifier",
          "type": "address"
        },
        {
          "internalType": "uint32",
          "name": "_merkleTreeHeight",
          "type": "uint32"
        },
        {
          "internalType": "address",
          "name": "_l1ScrollMessenger",
          "type": "address"
        }
      ],
      "stateMutability": "nonpayable",
      "type": "constructor"
    },
    {
      "inputs": [
        {
          "internalType": "address",
          "name": "owner",
          "type": "address"
        }
      ],
      "name": "OwnableInvalidOwner",
      "type": "error"
    },
    {
      "inputs": [
        {
          "internalType": "address",
          "name": "account",
          "type": "address"
        }
      ],
      "name": "OwnableUnauthorizedAccount",
      "type": "error"
    },
    {
      "inputs": [],
      "name": "ReentrancyGuardReentrantCall",
      "type": "error"
    },
    {
      "inputs": [],
      "name": "VerificationFailed",
      "type": "error"
    },
    {
      "anonymous": false,
      "inputs": [
        {
          "indexed": true,
          "internalType": "uint256",
          "name": "commitment",
          "type": "uint256"
        },
        {
          "indexed": false,
          "internalType": "uint32",
          "name": "leafIndex",
          "type": "uint32"
        },
        {
          "indexed": false,
          "internalType": "uint256",
          "name": "timestamp",
          "type": "uint256"
        }
      ],
      "name": "Deposit",
      "type": "event"
    },
    {
      "anonymous": false,
      "inputs": [
        {
          "indexed": true,
          "internalType": "address",
          "name": "previousOwner",
          "type": "address"
        },
        {
          "indexed": true,
          "internalType": "address",
          "name": "newOwner",
          "type": "address"
        }
      ],
      "name": "OwnershipTransferred",
      "type": "event"
    },
    {
      "anonymous": false,
      "inputs": [
        {
          "indexed": false,
          "internalType": "address",
          "name": "recipient",
          "type": "address"
        },
        {
          "indexed": false,
          "internalType": "uint256",
          "name": "nullifier",
          "type": "uint256"
        }
      ],
      "name": "PendingWithdrawal",
      "type": "event"
    },
    {
      "anonymous": false,
      "inputs": [
        {
          "indexed": false,
          "internalType": "address",
          "name": "recipient",
          "type": "address"
        },
        {
          "indexed": false,
          "internalType": "uint256",
          "name": "nullifier",
          "type": "uint256"
        }
      ],
      "name": "Withdrawal",
      "type": "event"
    },
    {
      "inputs": [],
      "name": "ROOT_HISTORY_SIZE",
      "outputs": [
        {
          "internalType": "uint32",
          "name": "",
          "type": "uint32"
        }
      ],
      "stateMutability": "view",
      "type": "function"
    },
    {
      "inputs": [
        {
          "internalType": "uint256",
          "name": "_root",
          "type": "uint256"
        }
      ],
      "name": "addL2Root",
      "outputs": [],
      "stateMutability": "nonpayable",
      "type": "function"
    },
    {
      "inputs": [],
      "name": "bridgeDebt",
      "outputs": [
        {
          "internalType": "uint256",
          "name": "",
          "type": "uint256"
        }
      ],
      "stateMutability": "view",
      "type": "function"
    },
    {
      "inputs": [
        {
          "internalType": "uint256",
          "name": "_amount",
          "type": "uint256"
        },
        {
          "internalType": "uint256",
          "name": "gasLimit",
          "type": "uint256"
        }
      ],
      "name": "bridgeEth",
      "outputs": [],
      "stateMutability": "nonpayable",
      "type": "function"
    },
    {
      "inputs": [
        {
          "internalType": "uint256",
          "name": "",
          "type": "uint256"
        }
      ],
      "name": "commitments",
      "outputs": [
        {
          "internalType": "bool",
          "name": "",
          "type": "bool"
        }
      ],
      "stateMutability": "view",
      "type": "function"
    },
    {
      "inputs": [
        {
          "internalType": "uint256",
          "name": "",
          "type": "uint256"
        }
      ],
      "name": "commitmentsTreeRoots",
      "outputs": [
        {
          "internalType": "bool",
          "name": "",
          "type": "bool"
        }
      ],
      "stateMutability": "view",
      "type": "function"
    },
    {
      "inputs": [],
      "name": "currentRootIndex",
      "outputs": [
        {
          "internalType": "uint32",
          "name": "",
          "type": "uint32"
        }
      ],
      "stateMutability": "view",
      "type": "function"
    },
    {
      "inputs": [
        {
          "internalType": "uint256",
          "name": "_preCommitment",
          "type": "uint256"
        }
      ],
      "name": "deposit",
      "outputs": [],
      "stateMutability": "payable",
      "type": "function"
    },
    {
      "inputs": [],
      "name": "ethPendingWithdrawals",
      "outputs": [
        {
          "internalType": "uint256",
          "name": "",
          "type": "uint256"
        }
      ],
      "stateMutability": "view",
      "type": "function"
    },
    {
      "inputs": [
        {
          "internalType": "uint256",
          "name": "",
          "type": "uint256"
        }
      ],
      "name": "filledSubtrees",
      "outputs": [
        {
          "internalType": "uint256",
          "name": "",
          "type": "uint256"
        }
      ],
      "stateMutability": "view",
      "type": "function"
    },
    {
      "inputs": [],
      "name": "getLastRoot",
      "outputs": [
        {
          "internalType": "uint256",
          "name": "",
          "type": "uint256"
        }
      ],
      "stateMutability": "view",
      "type": "function"
    },
    {
      "inputs": [
        {
          "internalType": "uint256",
          "name": "_left",
          "type": "uint256"
        },
        {
          "internalType": "uint256",
          "name": "_right",
          "type": "uint256"
        }
      ],
      "name": "hashLeftRight",
      "outputs": [
        {
          "internalType": "uint256",
          "name": "",
          "type": "uint256"
        }
      ],
      "stateMutability": "pure",
      "type": "function"
    },
    {
      "inputs": [
        {
          "internalType": "uint256",
          "name": "_root",
          "type": "uint256"
        }
      ],
      "name": "isKnownL1Root",
      "outputs": [
        {
          "internalType": "bool",
          "name": "",
          "type": "bool"
        }
      ],
      "stateMutability": "view",
      "type": "function"
    },
    {
      "inputs": [
        {
          "internalType": "uint256",
          "name": "_root",
          "type": "uint256"
        }
      ],
      "name": "isKnownL2Root",
      "outputs": [
        {
          "internalType": "bool",
          "name": "",
          "type": "bool"
        }
      ],
      "stateMutability": "view",
      "type": "function"
    },
    {
      "inputs": [
        {
          "internalType": "uint256",
          "name": "_nullifierHash",
          "type": "uint256"
        }
      ],
      "name": "isSpent",
      "outputs": [
        {
          "internalType": "bool",
          "name": "",
          "type": "bool"
        }
      ],
      "stateMutability": "view",
      "type": "function"
    },
    {
      "inputs": [
        {
          "internalType": "uint256[]",
          "name": "_nullifierHashes",
          "type": "uint256[]"
        }
      ],
      "name": "isSpentArray",
      "outputs": [
        {
          "internalType": "bool[]",
          "name": "spent",
          "type": "bool[]"
        }
      ],
      "stateMutability": "view",
      "type": "function"
    },
    {
      "inputs": [],
      "name": "l1ScrollMessenger",
      "outputs": [
        {
          "internalType": "address",
          "name": "",
          "type": "address"
        }
      ],
      "stateMutability": "view",
      "type": "function"
    },
    {
      "inputs": [],
      "name": "l2ScrollToadnadoAddress",
      "outputs": [
        {
          "internalType": "address",
          "name": "",
          "type": "address"
        }
      ],
      "stateMutability": "view",
      "type": "function"
    },
    {
      "inputs": [],
      "name": "levels",
      "outputs": [
        {
          "internalType": "uint32",
          "name": "",
          "type": "uint32"
        }
      ],
      "stateMutability": "view",
      "type": "function"
    },
    {
      "inputs": [],
      "name": "nextIndex",
      "outputs": [
        {
          "internalType": "uint32",
          "name": "",
          "type": "uint32"
        }
      ],
      "stateMutability": "view",
      "type": "function"
    },
    {
      "inputs": [
        {
          "internalType": "uint256",
          "name": "",
          "type": "uint256"
        }
      ],
      "name": "nullifiers",
      "outputs": [
        {
          "internalType": "bool",
          "name": "",
          "type": "bool"
        }
      ],
      "stateMutability": "view",
      "type": "function"
    },
    {
      "inputs": [],
      "name": "owner",
      "outputs": [
        {
          "internalType": "address",
          "name": "",
          "type": "address"
        }
      ],
      "stateMutability": "view",
      "type": "function"
    },
    {
      "inputs": [],
      "name": "recieveBridgedEth",
      "outputs": [],
      "stateMutability": "payable",
      "type": "function"
    },
    {
      "inputs": [],
      "name": "renounceOwnership",
      "outputs": [],
      "stateMutability": "nonpayable",
      "type": "function"
    },
    {
      "inputs": [
        {
          "internalType": "uint256",
          "name": "gasLimit",
          "type": "uint256"
        }
      ],
      "name": "requestEthBridge",
      "outputs": [],
      "stateMutability": "nonpayable",
      "type": "function"
    },
    {
      "inputs": [
        {
          "internalType": "uint256",
          "name": "",
          "type": "uint256"
        }
      ],
      "name": "roots",
      "outputs": [
        {
          "internalType": "uint256",
          "name": "",
          "type": "uint256"
        }
      ],
      "stateMutability": "view",
      "type": "function"
    },
    {
      "inputs": [
        {
          "internalType": "address",
          "name": "_l2ScrollToadnadoAddress",
          "type": "address"
        }
      ],
      "name": "setL2ScrollToadnadoAddress",
      "outputs": [],
      "stateMutability": "nonpayable",
      "type": "function"
    },
    {
      "inputs": [
        {
          "internalType": "address",
          "name": "newOwner",
          "type": "address"
        }
      ],
      "name": "transferOwnership",
      "outputs": [],
      "stateMutability": "nonpayable",
      "type": "function"
    },
    {
      "inputs": [],
      "name": "verifier",
      "outputs": [
        {
          "internalType": "address",
          "name": "",
          "type": "address"
        }
      ],
      "stateMutability": "view",
      "type": "function"
    },
    {
      "inputs": [
        {
          "internalType": "uint256",
          "name": "_l1root",
          "type": "uint256"
        },
        {
          "internalType": "uint256",
          "name": "_l2root",
          "type": "uint256"
        },
        {
          "internalType": "uint256",
          "name": "_nullifier",
          "type": "uint256"
        },
        {
          "internalType": "address payable",
          "name": "_recipient",
          "type": "address"
        },
        {
          "internalType": "uint256",
          "name": "_amount",
          "type": "uint256"
        },
        {
          "internalType": "bytes",
          "name": "snarkProof",
          "type": "bytes"
        }
      ],
      "name": "withdraw",
      "outputs": [],
      "stateMutability": "payable",
      "type": "function"
    },
    {
      "inputs": [
        {
          "internalType": "uint256",
          "name": "_nullifier",
          "type": "uint256"
        }
      ],
      "name": "withdrawPending",
      "outputs": [],
      "stateMutability": "nonpayable",
      "type": "function"
    },
    {
      "inputs": [
        {
          "internalType": "uint256",
          "name": "i",
          "type": "uint256"
        }
      ],
      "name": "zeros",
      "outputs": [
        {
          "internalType": "uint256",
          "name": "",
          "type": "uint256"
        }
      ],
      "stateMutability": "pure",
      "type": "function"
    }
  ],
  "bytecode": "0x60c0604052600380546001600160401b03191690555f6009819055600a5534801562000029575f80fd5b5060405162002fef38038062002fef8339810160408190526200004c91620008f7565b338383805f8163ffffffff1611620000b75760405162461bcd60e51b815260206004820152602360248201527f5f6c6576656c732073686f756c642062652067726561746572207468616e207a60448201526265726f60e81b60648201526084015b60405180910390fd5b60148163ffffffff16106200010f5760405162461bcd60e51b815260206004820152601e60248201527f5f6c6576656c732073686f756c64206265206c657373207468616e20323000006044820152606401620000ae565b5f805463ffffffff191663ffffffff83161781555b8163ffffffff168163ffffffff1610156200016c576200014a63ffffffff821662000201565b63ffffffff82165f908152600160208190526040909120919091550162000124565b506200017e63ffffffff821662000201565b5f805260026020527fac33ff75c19e70fe83507db0d683fd3465c996598dc972688b7ace676c89077b55505060016004556001600160a01b039081166080528116620001e057604051631e4fbdf760e01b81525f6004820152602401620000ae565b620001eb816200088f565b506001600160a01b031660a05250620009479050565b5f815f036200021157505f919050565b816001036200024157507f2098f5fb9e239eab3ceac3f27b81e481dc3124d55ffed523a839ee8446b64864919050565b816002036200027157507f1069673dcdb12263df301a6ff584a7ec261a44cb9dc68df067a4774460b1f1e1919050565b81600303620002a157507f18f43331537ee2af2e3d758d50f72106467c6eea50371dd528d57eb2b856d238919050565b81600403620002d157507f07f9d837cb17b0d36320ffe93ba52345f1b728571a568265caac97559dbc952a919050565b816005036200030157507f2b94cf5e8746b3f5c9631f4c5df32907a699c58c94b2ad4d7b5cec1639183f55919050565b816006036200033157507f2dee93c5a666459646ea7d22cca9e1bcfed71e6951b953611d11dda32ea09d78919050565b816007036200036157507f078295e5a22b84e982cf601eb639597b8b0515a88cb5ac7fa8a4aabe3c87349d919050565b816008036200039157507f2fa5e5f18f6027a6501bec864564472a616b2e274a41211a444cbe3a99f3cc61919050565b81600903620003c157507f0e884376d0d8fd21ecb780389e941f66e45e7acce3e228ab3e2156a614fcd747919050565b81600a03620003f157507f1b7201da72494f1e28717ad1a52eb469f95892f957713533de6175e5da190af2919050565b81600b036200042157507f1f8d8822725e36385200c0b201249819a6e6e1e4650808b5bebc6bface7d7636919050565b81600c036200045157507f2c5d82f66c914bafb9701589ba8cfcfb6162b0a12acf88a8d0879a0471b5f85a919050565b81600d036200048157507f14c54148a0940bb820957f5adf3fa1134ef5c4aaa113f4646458f270e0bfbfd0919050565b81600e03620004b157507f190d33b12f986f961e10c0ee44d8b9af11be25588cad89d416118e4bf4ebe80c919050565b81600f03620004e157507f22f98aa9ce704152ac17354914ad73ed1167ae6596af510aa5b3649325e06c92919050565b816010036200051157507f2a7c7c9b6ce5880b9f6f228d72bf6a575a526f29c66ecceef8b753d38bba7323919050565b816011036200054157507f2e8186e558698ec1c67af9c14d463ffc470043c9c2988b954d75dd643f36b992919050565b816012036200057157507f0f57c5571e9a4eab49e2c8cf050dae948aef6ead647392273546249d1c1ff10f919050565b81601303620005a157507f1830ee67b5fb554ad5f63d4388800e1cfe78e310697d46e43c9ce36134f72cca919050565b81601403620005d157507f2134e76ac5d21aab186c2be1dd8f84ee880a1e46eaf712f9d371b6df22191f3e919050565b816015036200060157507f19df90ec844ebc4ffeebd866f33859b0c051d8c958ee3aa88f8f8df3db91a5b1919050565b816016036200063157507f18cca2a66b5c0787981e69aefd84852d74af0e93ef4912b4648c05f722efe52b919050565b816017036200066157507f2388909415230d1b4d1304d2d54f473a628338f2efad83fadf05644549d2538d919050565b816018036200069157507f27171fb4a97b6cc0e9e8f543b5294de866a2af2c9c8d0b1d96e673e4529ed540919050565b81601903620006c157507f2ff6650540f629fd5711a0bc74fc0d28dcb230b9392583e5f8d59696dde6ae21919050565b81601a03620006f157507f120c58f143d491e95902f7f5277778a2e0ad5168f6add75669932630ce611518919050565b81601b036200072157507f1f21feb70d3f21b07bf853d5e5db03071ec495a0a565a21da2d665d279483795919050565b81601c036200075157507f24be905fa71335e14c638cc0f66a8623a826e768068a9e968bb1a1dde18a72d2919050565b81601d036200078157507f0f8666b62ed17491c50ceadead57d4cd597ef3821d65c328744c74e553dac26d919050565b81601e03620007b157507f0918d46bf52d98b034413f4a1a1c41594e7a7a3f6ae08cb43d1a2a230e1959ef919050565b81601f03620007e157507f1bbeb01b4c479ecde76917645e404dfa2e26f90d0afc5a65128513ad375c5ff2919050565b816020036200081157507f2f68a1c58e257e42a17a6c61dff5551ed560b9922ab119d5ac8e184c9734ead9919050565b816021036200084157507f1102d2f8db05e4af4842e8ad3d85ed45eb28447eb7212235a2281d5ab5d81d11919050565b60405162461bcd60e51b815260206004820152601360248201527f496e646578206f7574206f6620626f756e6473000000000000000000000000006044820152606401620000ae565b919050565b600b80546001600160a01b038381166001600160a01b0319831681179093556040519116919082907f8be0079c531659141344cd1fd0a4f28419497f9722a3daafe3b4186f6b6457e0905f90a35050565b80516001600160a01b03811681146200088a575f80fd5b5f805f606084860312156200090a575f80fd5b6200091584620008e0565b9250602084015163ffffffff811681146200092e575f80fd5b91506200093e60408501620008e0565b90509250925092565b60805160a051612640620009af5f395f818161043201528181610a5901528181610ab701528181610bfc01528181610c5a01528181610f84015281816117e001528181611837015281816118db01526119a801525f81816102a2015261082501526126405ff3fe6080604052600436106101db575f3560e01c8063a98f7044116100fd578063d21e82ab11610092578063f178e47c11610062578063f178e47c146105c8578063f2fde38b146105f3578063f8af86e714610612578063fc7e9c6f14610631575f80fd5b8063d21e82ab1461053a578063db394bb914610568578063e82955881461057d578063ea65ba491461059c575f80fd5b8063ba70f757116100cd578063ba70f757146104b4578063c2b40ae4146104dc578063c9ca7a6114610507578063cd87a3b414610526575f80fd5b8063a98f704414610421578063adbdeaf314610454578063b6b55f2514610473578063b89d302d14610486575f80fd5b806349ce8997116101735780636b91e4d5116101435780636b91e4d5146103b5578063715018a6146103d45780638da5cb5b146103e857806390eeb02b14610405575f80fd5b806349ce89971461030a5780634ecf518b146103385780635a129efe146103685780635bb9399514610396575f80fd5b80632b7ac3f3116101ae5780632b7ac3f3146102915780632e585fd8146102c4578063397a14b4146102e357806339da4b5514610302575f80fd5b806306e473f2146101df5780630b2f37fa146101f45780631b5844ff1461023057806328482f8914610253575b5f80fd5b6101f26101ed36600461201f565b610655565b005b3480156101ff575f80fd5b50600c54610213906001600160a01b031681565b6040516001600160a01b0390911681526020015b60405180910390f35b34801561023b575f80fd5b50610245600a5481565b604051908152602001610227565b34801561025e575f80fd5b5061028161026d3660046120c2565b60076020525f908152604090205460ff1681565b6040519015158152602001610227565b34801561029c575f80fd5b506102137f000000000000000000000000000000000000000000000000000000000000000081565b3480156102cf575f80fd5b506101f26102de3660046120c2565b6108f3565b3480156102ee575f80fd5b506102816102fd3660046120c2565b610a3e565b6101f2610a4e565b348015610315575f80fd5b506102816103243660046120c2565b60066020525f908152604090205460ff1681565b348015610343575f80fd5b505f546103539063ffffffff1681565b60405163ffffffff9091168152602001610227565b348015610373575f80fd5b506102816103823660046120c2565b5f9081526005602052604090205460ff1690565b3480156103a1575f80fd5b506102456103b03660046120d9565b610b62565b3480156103c0575f80fd5b506101f26103cf3660046120c2565b610bf1565b3480156103df575f80fd5b506101f2610d07565b3480156103f3575f80fd5b50600b546001600160a01b0316610213565b348015610410575f80fd5b506003546103539063ffffffff1681565b34801561042c575f80fd5b506102137f000000000000000000000000000000000000000000000000000000000000000081565b34801561045f575f80fd5b506101f261046e3660046120f9565b610d1a565b6101f26104813660046120c2565b610dac565b348015610491575f80fd5b506102816104a03660046120c2565b5f908152600d602052604090205460ff1690565b3480156104bf575f80fd5b5060035463ffffffff165f90815260026020526040902054610245565b3480156104e7575f80fd5b506102456104f63660046120c2565b60026020525f908152604090205481565b348015610512575f80fd5b506101f26105213660046120c2565b610f32565b348015610531575f80fd5b50610353601e81565b348015610545575f80fd5b506102816105543660046120c2565b60056020525f908152604090205460ff1681565b348015610573575f80fd5b5061024560095481565b348015610588575f80fd5b506102456105973660046120c2565b611003565b3480156105a7575f80fd5b506105bb6105b6366004612114565b61165f565b6040516102279190612183565b3480156105d3575f80fd5b506102456105e23660046120c2565b60016020525f908152604090205481565b3480156105fe575f80fd5b506101f261060d3660046120f9565b611719565b34801561061d575f80fd5b506101f261062c3660046120d9565b611753565b34801561063c575f80fd5b5060035461035390640100000000900463ffffffff1681565b61065d611a23565b5f8581526005602052604090205460ff16156106c05760405162461bcd60e51b815260206004820152601f60248201527f546865206e6f746520686173206265656e20616c7265616479207370656e740060448201526064015b60405180910390fd5b5f868152600d602052604090205460ff1661071d5760405162461bcd60e51b815260206004820152601f60248201527f43616e6e6f742066696e6420796f7572206c32206d65726b6c6520726f6f740060448201526064016106b7565b61072687610a3e565b6107725760405162461bcd60e51b815260206004820152601f60248201527f43616e6e6f742066696e6420796f7572206c31206d65726b6c6520726f6f740060448201526064016106b7565b604080518082018252888152602081018890529051632b0aac7f60e11b81525f9173__$75f79a42d9bcbdbb69ad79ebd80f556f39$__9163561558fe916107bb916004016121c8565b602060405180830381865af41580156107d6573d5f803e3d5ffd5b505050506040513d601f19601f820116820180604052508101906107fa91906121f8565b9050465f61080b838989858a611a4d565b604051633a94343960e21b81529091506001600160a01b037f0000000000000000000000000000000000000000000000000000000000000000169063ea50d0e49061085e9088908890869060040161220f565b602060405180830381865afa158015610879573d5f803e3d5ffd5b505050506040513d601f19601f8201168201806040525081019061089d9190612287565b6108ba5760405163439cc0cd60e01b815260040160405180910390fd5b5f888152600560205260409020805460ff191660011790556108dd878988611b2e565b5050506108ea6001600455565b50505050505050565b5f81815260086020908152604091829020825160608101845281546001600160a01b031681526001808301549382019390935260029091015460ff16151592810183905291146109855760405162461bcd60e51b815260206004820181905260248201527f5468697320776974686472617720697320616c726561647920636c61696d656460448201526064016106b7565b5f8281526008602090815260408220600201805460ff19169055820151600a8054919290916109b59084906122ba565b9091555050805160208201516040516001600160a01b039092169181156108fc0291905f818181858888f193505050501580156109f4573d5f803e3d5ffd5b508051604080516001600160a01b039092168252602082018490527f7fcf532c15f0a6db0bd6d0e038bea71d30d808c7d98cb3bf7268a95bf5081b65910160405180910390a15050565b5f610a4882611cee565b92915050565b336001600160a01b037f00000000000000000000000000000000000000000000000000000000000000001614610a965760405162461bcd60e51b81526004016106b7906122cd565b600c5460408051636e296e4560e01b815290516001600160a01b03928316927f00000000000000000000000000000000000000000000000000000000000000001691636e296e459160048083019260209291908290030181865afa158015610b00573d5f803e3d5ffd5b505050506040513d601f19601f82011682018060405250810190610b249190612315565b6001600160a01b031614610b4a5760405162461bcd60e51b81526004016106b790612330565b34600a5f828254610b5b919061238d565b9091555050565b604080518082018252838152602081018390529051632b0aac7f60e11b81525f9173__$75f79a42d9bcbdbb69ad79ebd80f556f39$__9163561558fe91610bab916004016121c8565b602060405180830381865af4158015610bc6573d5f803e3d5ffd5b505050506040513d601f19601f82011682018060405250810190610bea91906121f8565b9392505050565b336001600160a01b037f00000000000000000000000000000000000000000000000000000000000000001614610c395760405162461bcd60e51b81526004016106b7906122cd565b600c5460408051636e296e4560e01b815290516001600160a01b03928316927f00000000000000000000000000000000000000000000000000000000000000001691636e296e459160048083019260209291908290030181865afa158015610ca3573d5f803e3d5ffd5b505050506040513d601f19601f82011682018060405250810190610cc79190612315565b6001600160a01b031614610ced5760405162461bcd60e51b81526004016106b790612330565b5f908152600d60205260409020805460ff19166001179055565b610d0f611d67565b610d185f611d94565b565b610d22611d67565b600c546001600160a01b031615610d8a5760405162461bcd60e51b815260206004820152602660248201527f6c325363726f6c6c546f61646e61646f4164647265737320697320616c726561604482015265191e481cd95d60d21b60648201526084016106b7565b600c80546001600160a01b0319166001600160a01b0392909216919091179055565b610db4611a23565b60408051808201825282815234602082018190529151632b0aac7f60e11b81525f9173__$75f79a42d9bcbdbb69ad79ebd80f556f39$__9163561558fe91610dfe916004016121c8565b602060405180830381865af4158015610e19573d5f803e3d5ffd5b505050506040513d601f19601f82011682018060405250810190610e3d91906121f8565b5f8181526006602052604090205490915060ff1615610eb05760405162461bcd60e51b815260206004820152602960248201527f54686520636f6d6d69746d656e742068617320616c7265616479206265656e206044820152681cdd589b5a5d1d195960ba1b60648201526084016106b7565b5f610eba82611de5565b5f8381526006602052604090819020805460ff191660011790555190915082907f2813ca2762c14ad53880ef467c7448a9015904c20e064e6216ffb3f63390ec5d90610f1a908490429063ffffffff929092168252602082015260400190565b60405180910390a2505050610f2f6001600455565b50565b600954600c546040805160248101849052604480820186905282518083039091018152606490910182526020810180516001600160e01b031663f8af86e760e01b1790529051635f7b157760e01b81527f0000000000000000000000000000000000000000000000000000000000000000926001600160a01b0380851693635f7b1577935f93610fcc93169184918a9033906004016123e3565b5f604051808303818588803b158015610fe3575f80fd5b505af1158015610ff5573d5f803e3d5ffd5b50505f600955505050505050565b5f815f0361101257505f919050565b8160010361104157507f2098f5fb9e239eab3ceac3f27b81e481dc3124d55ffed523a839ee8446b64864919050565b8160020361107057507f1069673dcdb12263df301a6ff584a7ec261a44cb9dc68df067a4774460b1f1e1919050565b8160030361109f57507f18f43331537ee2af2e3d758d50f72106467c6eea50371dd528d57eb2b856d238919050565b816004036110ce57507f07f9d837cb17b0d36320ffe93ba52345f1b728571a568265caac97559dbc952a919050565b816005036110fd57507f2b94cf5e8746b3f5c9631f4c5df32907a699c58c94b2ad4d7b5cec1639183f55919050565b8160060361112c57507f2dee93c5a666459646ea7d22cca9e1bcfed71e6951b953611d11dda32ea09d78919050565b8160070361115b57507f078295e5a22b84e982cf601eb639597b8b0515a88cb5ac7fa8a4aabe3c87349d919050565b8160080361118a57507f2fa5e5f18f6027a6501bec864564472a616b2e274a41211a444cbe3a99f3cc61919050565b816009036111b957507f0e884376d0d8fd21ecb780389e941f66e45e7acce3e228ab3e2156a614fcd747919050565b81600a036111e857507f1b7201da72494f1e28717ad1a52eb469f95892f957713533de6175e5da190af2919050565b81600b0361121757507f1f8d8822725e36385200c0b201249819a6e6e1e4650808b5bebc6bface7d7636919050565b81600c0361124657507f2c5d82f66c914bafb9701589ba8cfcfb6162b0a12acf88a8d0879a0471b5f85a919050565b81600d0361127557507f14c54148a0940bb820957f5adf3fa1134ef5c4aaa113f4646458f270e0bfbfd0919050565b81600e036112a457507f190d33b12f986f961e10c0ee44d8b9af11be25588cad89d416118e4bf4ebe80c919050565b81600f036112d357507f22f98aa9ce704152ac17354914ad73ed1167ae6596af510aa5b3649325e06c92919050565b8160100361130257507f2a7c7c9b6ce5880b9f6f228d72bf6a575a526f29c66ecceef8b753d38bba7323919050565b8160110361133157507f2e8186e558698ec1c67af9c14d463ffc470043c9c2988b954d75dd643f36b992919050565b8160120361136057507f0f57c5571e9a4eab49e2c8cf050dae948aef6ead647392273546249d1c1ff10f919050565b8160130361138f57507f1830ee67b5fb554ad5f63d4388800e1cfe78e310697d46e43c9ce36134f72cca919050565b816014036113be57507f2134e76ac5d21aab186c2be1dd8f84ee880a1e46eaf712f9d371b6df22191f3e919050565b816015036113ed57507f19df90ec844ebc4ffeebd866f33859b0c051d8c958ee3aa88f8f8df3db91a5b1919050565b8160160361141c57507f18cca2a66b5c0787981e69aefd84852d74af0e93ef4912b4648c05f722efe52b919050565b8160170361144b57507f2388909415230d1b4d1304d2d54f473a628338f2efad83fadf05644549d2538d919050565b8160180361147a57507f27171fb4a97b6cc0e9e8f543b5294de866a2af2c9c8d0b1d96e673e4529ed540919050565b816019036114a957507f2ff6650540f629fd5711a0bc74fc0d28dcb230b9392583e5f8d59696dde6ae21919050565b81601a036114d857507f120c58f143d491e95902f7f5277778a2e0ad5168f6add75669932630ce611518919050565b81601b0361150757507f1f21feb70d3f21b07bf853d5e5db03071ec495a0a565a21da2d665d279483795919050565b81601c0361153657507f24be905fa71335e14c638cc0f66a8623a826e768068a9e968bb1a1dde18a72d2919050565b81601d0361156557507f0f8666b62ed17491c50ceadead57d4cd597ef3821d65c328744c74e553dac26d919050565b81601e0361159457507f0918d46bf52d98b034413f4a1a1c41594e7a7a3f6ae08cb43d1a2a230e1959ef919050565b81601f036115c357507f1bbeb01b4c479ecde76917645e404dfa2e26f90d0afc5a65128513ad375c5ff2919050565b816020036115f257507f2f68a1c58e257e42a17a6c61dff5551ed560b9922ab119d5ac8e184c9734ead9919050565b8160210361162157507f1102d2f8db05e4af4842e8ad3d85ed45eb28447eb7212235a2281d5ab5d81d11919050565b60405162461bcd60e51b8152602060048201526013602482015272496e646578206f7574206f6620626f756e647360681b60448201526064016106b7565b60608167ffffffffffffffff81111561167a5761167a612424565b6040519080825280602002602001820160405280156116a3578160200160208202803683370190505b5090505f5b82811015611712576116e08484838181106116c5576116c5612438565b905060200201355f9081526005602052604090205460ff1690565b1561170a5760018282815181106116f9576116f9612438565b911515602092830291909101909101525b6001016116a8565b5092915050565b611721611d67565b6001600160a01b03811661174a57604051631e4fbdf760e01b81525f60048201526024016106b7565b610f2f81611d94565b600a5461176090476122ba565b8211156117d55760405162461bcd60e51b815260206004820152603e60248201527f6e6f7420656e6f7567682065746820696e20636f6e74726163742028636f6e7360448201527f69646572696e672065746850656e64696e675769746864726177616c7329000060648201526084016106b7565b336001600160a01b037f0000000000000000000000000000000000000000000000000000000000000000161461181d5760405162461bcd60e51b81526004016106b7906122cd565b600c54611832906001600160a01b0316611fa5565b6118ba7f00000000000000000000000000000000000000000000000000000000000000006001600160a01b0316636e296e456040518163ffffffff1660e01b8152600401602060405180830381865afa158015611891573d5f803e3d5ffd5b505050506040513d601f19601f820116820180604052508101906118b59190612315565b611fa5565b600c5460408051636e296e4560e01b815290516001600160a01b03928316927f00000000000000000000000000000000000000000000000000000000000000001691636e296e459160048083019260209291908290030181865afa158015611924573d5f803e3d5ffd5b505050506040513d601f19601f820116820180604052508101906119489190612315565b6001600160a01b03161461196e5760405162461bcd60e51b81526004016106b790612330565b600c546040805160048082526024820183526020820180516001600160e01b03166339da4b5560e01b1790529151635f7b157760e01b81527f0000000000000000000000000000000000000000000000000000000000000000936001600160a01b0380861694635f7b15779489946119f0949093169285928a913391016123e3565b5f604051808303818588803b158015611a07575f80fd5b505af1158015611a19573d5f803e3d5ffd5b5050505050505050565b600260045403611a4657604051633ee5aeb560e01b815260040160405180910390fd5b6002600455565b60408051600580825260c082019092526060915f91906020820160a080368337019050509050865f1b815f81518110611a8857611a88612438565b602002602001018181525050855f1b81600181518110611aaa57611aaa612438565b602090810291909101015280516001600160a01b0386169082906002908110611ad557611ad5612438565b602002602001018181525050835f1b81600381518110611af757611af7612438565b602002602001018181525050825f1b81600481518110611b1957611b19612438565b60209081029190910101529695505050505050565b3415611b9a5760405162461bcd60e51b815260206004820152603560248201527f4d6573736167652076616c756520697320737570706f73656420746f206265206044820152747a65726f20666f722045544820696e7374616e636560581b60648201526084016106b7565b80600a5447611ba991906122ba565b10611c2957604080516001600160a01b0385168152602081018490527f7fcf532c15f0a6db0bd6d0e038bea71d30d808c7d98cb3bf7268a95bf5081b65910160405180910390a16040516001600160a01b0384169082156108fc029083905f818181858888f19350505050158015611c23573d5f803e3d5ffd5b50505050565b604080516001600160a01b0385168152602081018490527f39d9cf4ffb93650d8ce789639cb8cf3c8d7b039e1f9795c038af55b4ae643fca910160405180910390a1604080516060810182526001600160a01b038581168252602080830185815260018486018181525f8981526008909452958320945185546001600160a01b0319169416939093178455519183019190915591516002909101805460ff191691151591909117905560098054839290611ce490849061238d565b9091555050505050565b5f815f03611cfd57505f919050565b60035463ffffffff16805b63ffffffff81165f908152600260205260409020548403611d2d575060019392505050565b8063ffffffff165f03611d3e5750601e5b80611d488161244c565b9150508163ffffffff168163ffffffff1603611d0857505f9392505050565b600b546001600160a01b03163314610d185760405163118cdaa760e01b81523360048201526024016106b7565b600b80546001600160a01b038381166001600160a01b0319831681179093556040519116919082907f8be0079c531659141344cd1fd0a4f28419497f9722a3daafe3b4186f6b6457e0905f90a35050565b6003545f8054909163ffffffff640100000000909104811691611e0a91166002612579565b63ffffffff168163ffffffff1603611e7d5760405162461bcd60e51b815260206004820152603060248201527f4d65726b6c6520747265652069732066756c6c2e204e6f206d6f7265206c656160448201526f1d995cc818d85b88189948185919195960821b60648201526084016106b7565b80835f80805b5f5463ffffffff9081169082161015611f1957611ea16002866125a9565b63ffffffff165f03611edd57839250611ebf8163ffffffff16611003565b63ffffffff82165f9081526001602052604090208590559150611ef8565b63ffffffff81165f9081526001602052604090205492508391505b611f028383610b62565b9350611f0f6002866125cb565b9450600101611e83565b506003545f90601e90611f339063ffffffff1660016125ed565b611f3d91906125a9565b6003805463ffffffff191663ffffffff83169081179091555f9081526002602052604090208590559050611f728660016125ed565b6003805463ffffffff929092166401000000000267ffffffff000000001990921691909117905550939695505050505050565b6040516001600160a01b0382166024820152610f2f9060440160408051601f198184030181529190526020810180516001600160e01b031663161765e160e11b179052610f2f815f6a636f6e736f6c652e6c6f6790505f80835160208501845afa505050565b6001600160a01b0381168114610f2f575f80fd5b5f805f805f805f60c0888a031215612035575f80fd5b87359650602088013595506040880135945060608801356120558161200b565b93506080880135925060a088013567ffffffffffffffff80821115612078575f80fd5b818a0191508a601f83011261208b575f80fd5b813581811115612099575f80fd5b8b60208285010111156120aa575f80fd5b60208301945080935050505092959891949750929550565b5f602082840312156120d2575f80fd5b5035919050565b5f80604083850312156120ea575f80fd5b50508035926020909101359150565b5f60208284031215612109575f80fd5b8135610bea8161200b565b5f8060208385031215612125575f80fd5b823567ffffffffffffffff8082111561213c575f80fd5b818501915085601f83011261214f575f80fd5b81358181111561215d575f80fd5b8660208260051b8501011115612171575f80fd5b60209290920196919550909350505050565b602080825282518282018190525f9190848201906040850190845b818110156121bc57835115158352928401929184019160010161219e565b50909695505050505050565b6040810181835f5b60028110156121ef5781518352602092830192909101906001016121d0565b50505092915050565b5f60208284031215612208575f80fd5b5051919050565b60408152826040820152828460608301375f606084830101525f601f19601f850116820160608101602060608584030160208601528186518084526080850191506020880194505f93505b8084101561227a578451825293820193600193909301929082019061225a565b5098975050505050505050565b5f60208284031215612297575f80fd5b81518015158114610bea575f80fd5b634e487b7160e01b5f52601160045260245ffd5b81810381811115610a4857610a486122a6565b60208082526028908201527f66756e6374696f6e206e6f742063616c6c6564206279206c315363726f6c6c4d60408201526732b9b9b2b733b2b960c11b606082015260800190565b5f60208284031215612325575f80fd5b8151610bea8161200b565b6020808252603d908201527f636f6e7472616374206d6573736167696e672066726f6d204c32206973206e6f60408201527f7420746865206c32546f61646e61646f5363726f6c6c41646472657373000000606082015260800190565b80820180821115610a4857610a486122a6565b5f81518084525f5b818110156123c4576020818501810151868301820152016123a8565b505f602082860101526020601f19601f83011685010191505092915050565b5f60018060a01b03808816835286602084015260a0604084015261240a60a08401876123a0565b606084019590955292909216608090910152509392505050565b634e487b7160e01b5f52604160045260245ffd5b634e487b7160e01b5f52603260045260245ffd5b5f63ffffffff821680612461576124616122a6565b5f190192915050565b600181815b808511156124a7578163ffffffff0482111561248d5761248d6122a6565b8085161561249a57918102915b93841c939080029061246f565b509250929050565b5f826124bd57506001610a48565b816124c957505f610a48565b81600181146124df57600281146124e95761251a565b6001915050610a48565b60ff8411156124fa576124fa6122a6565b6001841b915063ffffffff821115612514576125146122a6565b50610a48565b5060208310610133831016604e8410600b8410161715612551575081810a63ffffffff81111561254c5761254c6122a6565b610a48565b61255b838361246a565b8063ffffffff04821115612571576125716122a6565b029392505050565b5f63ffffffff61258d8185168285166124af565b949350505050565b634e487b7160e01b5f52601260045260245ffd5b5f63ffffffff808416806125bf576125bf612595565b92169190910692915050565b5f63ffffffff808416806125e1576125e1612595565b92169190910492915050565b63ffffffff818116838216019080821115611712576117126122a656fea2646970667358221220ac1d6fe2baea8775789c7c23a6eec6851e0e8f7bae614e081efbcf3c27600dae64736f6c63430008170033",
  "linkReferences": {
    "poseidon-solidity/PoseidonT3.sol": {
      "PoseidonT3": [
        {
          "length": 20,
          "start": 4420
        },
        {
          "length": 20,
          "start": 5428
        },
        {
          "length": 20,
          "start": 6023
        }
      ]
    }
  },
  "deployedLinkReferences": {
    "poseidon-solidity/PoseidonT3.sol": {
      "PoseidonT3": [
        {
          "length": 20,
          "start": 1941
        },
        {
          "length": 20,
          "start": 2949
        },
        {
          "length": 20,
          "start": 3544
        }
      ]
    }
  }
}